{
	"example_hash.sol": {
		"Example03": {
			"abi": [
				{
					"inputs": [
						{
							"internalType": "uint256",
							"name": "input",
							"type": "uint256"
						}
					],
					"name": "hash",
					"outputs": [
						{
							"internalType": "uint256",
							"name": "",
							"type": "uint256"
						}
					],
					"stateMutability": "pure",
					"type": "function"
				}
			],
			"devdoc": {
				"kind": "dev",
				"methods": {},
				"version": 1
			},
			"evm": {
				"assembly": "    /* \"example_hash.sol\":62:207  contract Example03 {... */\n  mstore(0x40, 0x80)\n  callvalue\n  dup1\n  iszero\n  tag_1\n  jumpi\n  revert(0x00, 0x00)\ntag_1:\n  pop\n  dataSize(sub_0)\n  dup1\n  dataOffset(sub_0)\n  0x00\n  codecopy\n  0x00\n  return\nstop\n\nsub_0: assembly {\n        /* \"example_hash.sol\":62:207  contract Example03 {... */\n      mstore(0x40, 0x80)\n      callvalue\n      dup1\n      iszero\n      tag_1\n      jumpi\n      revert(0x00, 0x00)\n    tag_1:\n      pop\n      jumpi(tag_2, lt(calldatasize, 0x04))\n      shr(0xe0, calldataload(0x00))\n      dup1\n      0xb189fd4c\n      eq\n      tag_3\n      jumpi\n    tag_2:\n      revert(0x00, 0x00)\n        /* \"example_hash.sol\":88:205  function hash(uint256 input) public pure returns (uint256) {... */\n    tag_3:\n      tag_4\n      0x04\n      dup1\n      calldatasize\n      sub\n      dup2\n      add\n      swap1\n      tag_5\n      swap2\n      swap1\n      tag_6\n      jump\t// in\n    tag_5:\n      tag_7\n      jump\t// in\n    tag_4:\n      mload(0x40)\n      tag_8\n      swap2\n      swap1\n      tag_9\n      jump\t// in\n    tag_8:\n      mload(0x40)\n      dup1\n      swap2\n      sub\n      swap1\n      return\n    tag_7:\n        /* \"example_hash.sol\":138:145  uint256 */\n      0x00\n        /* \"example_hash.sol\":172:197  sha256(abi.encode(input)) */\n      0x02\n        /* \"example_hash.sol\":190:195  input */\n      dup3\n        /* \"example_hash.sol\":179:196  abi.encode(input) */\n      add(0x20, mload(0x40))\n      tag_11\n      swap2\n      swap1\n      tag_9\n      jump\t// in\n    tag_11:\n      mload(0x40)\n      0x20\n      dup2\n      dup4\n      sub\n      sub\n      dup2\n      mstore\n      swap1\n      0x40\n      mstore\n        /* \"example_hash.sol\":172:197  sha256(abi.encode(input)) */\n      mload(0x40)\n      tag_12\n      swap2\n      swap1\n      tag_13\n      jump\t// in\n    tag_12:\n      0x20\n      mload(0x40)\n      dup1\n      dup4\n      sub\n      dup2\n      dup6\n      gas\n      staticcall\n      iszero\n      dup1\n      iszero\n      tag_15\n      jumpi\n      returndatacopy(0x00, 0x00, returndatasize)\n      revert(0x00, returndatasize)\n    tag_15:\n      pop\n      pop\n      pop\n      mload(0x40)\n      returndatasize\n      not(0x1f)\n      0x1f\n      dup3\n      add\n      and\n      dup3\n      add\n      dup1\n      0x40\n      mstore\n      pop\n      dup2\n      add\n      swap1\n      tag_16\n      swap2\n      swap1\n      tag_17\n      jump\t// in\n    tag_16:\n        /* \"example_hash.sol\":164:198  uint256(sha256(abi.encode(input))) */\n      0x00\n      shr\n        /* \"example_hash.sol\":157:198  return uint256(sha256(abi.encode(input))) */\n      swap1\n      pop\n        /* \"example_hash.sol\":88:205  function hash(uint256 input) public pure returns (uint256) {... */\n      swap2\n      swap1\n      pop\n      jump\t// out\n        /* \"#utility.yul\":88:205   */\n    tag_19:\n        /* \"#utility.yul\":197:198   */\n      0x00\n        /* \"#utility.yul\":194:195   */\n      0x00\n        /* \"#utility.yul\":187:199   */\n      revert\n        /* \"#utility.yul\":334:411   */\n    tag_21:\n        /* \"#utility.yul\":371:378   */\n      0x00\n        /* \"#utility.yul\":400:405   */\n      dup2\n        /* \"#utility.yul\":389:405   */\n      swap1\n      pop\n        /* \"#utility.yul\":334:411   */\n      swap2\n      swap1\n      pop\n      jump\t// out\n        /* \"#utility.yul\":417:539   */\n    tag_22:\n        /* \"#utility.yul\":490:514   */\n      tag_38\n        /* \"#utility.yul\":508:513   */\n      dup2\n        /* \"#utility.yul\":490:514   */\n      tag_21\n      jump\t// in\n    tag_38:\n        /* \"#utility.yul\":483:488   */\n      dup2\n        /* \"#utility.yul\":480:515   */\n      eq\n        /* \"#utility.yul\":470:533   */\n      tag_39\n      jumpi\n        /* \"#utility.yul\":529:530   */\n      0x00\n        /* \"#utility.yul\":526:527   */\n      0x00\n        /* \"#utility.yul\":519:531   */\n      revert\n        /* \"#utility.yul\":470:533   */\n    tag_39:\n        /* \"#utility.yul\":417:539   */\n      pop\n      jump\t// out\n        /* \"#utility.yul\":545:684   */\n    tag_23:\n        /* \"#utility.yul\":591:596   */\n      0x00\n        /* \"#utility.yul\":629:635   */\n      dup2\n        /* \"#utility.yul\":616:636   */\n      calldataload\n        /* \"#utility.yul\":607:636   */\n      swap1\n      pop\n        /* \"#utility.yul\":645:678   */\n      tag_41\n        /* \"#utility.yul\":672:677   */\n      dup2\n        /* \"#utility.yul\":645:678   */\n      tag_22\n      jump\t// in\n    tag_41:\n        /* \"#utility.yul\":545:684   */\n      swap3\n      swap2\n      pop\n      pop\n      jump\t// out\n        /* \"#utility.yul\":690:1019   */\n    tag_6:\n        /* \"#utility.yul\":749:755   */\n      0x00\n        /* \"#utility.yul\":798:800   */\n      0x20\n        /* \"#utility.yul\":786:795   */\n      dup3\n        /* \"#utility.yul\":777:784   */\n      dup5\n        /* \"#utility.yul\":773:796   */\n      sub\n        /* \"#utility.yul\":769:801   */\n      slt\n        /* \"#utility.yul\":766:885   */\n      iszero\n      tag_43\n      jumpi\n        /* \"#utility.yul\":804:883   */\n      tag_44\n      tag_19\n      jump\t// in\n    tag_44:\n        /* \"#utility.yul\":766:885   */\n    tag_43:\n        /* \"#utility.yul\":924:925   */\n      0x00\n        /* \"#utility.yul\":949:1002   */\n      tag_45\n        /* \"#utility.yul\":994:1001   */\n      dup5\n        /* \"#utility.yul\":985:991   */\n      dup3\n        /* \"#utility.yul\":974:983   */\n      dup6\n        /* \"#utility.yul\":970:992   */\n      add\n        /* \"#utility.yul\":949:1002   */\n      tag_23\n      jump\t// in\n    tag_45:\n        /* \"#utility.yul\":939:1002   */\n      swap2\n      pop\n        /* \"#utility.yul\":895:1012   */\n      pop\n        /* \"#utility.yul\":690:1019   */\n      swap3\n      swap2\n      pop\n      pop\n      jump\t// out\n        /* \"#utility.yul\":1025:1143   */\n    tag_24:\n        /* \"#utility.yul\":1112:1136   */\n      tag_47\n        /* \"#utility.yul\":1130:1135   */\n      dup2\n        /* \"#utility.yul\":1112:1136   */\n      tag_21\n      jump\t// in\n    tag_47:\n        /* \"#utility.yul\":1107:1110   */\n      dup3\n        /* \"#utility.yul\":1100:1137   */\n      mstore\n        /* \"#utility.yul\":1025:1143   */\n      pop\n      pop\n      jump\t// out\n        /* \"#utility.yul\":1149:1371   */\n    tag_9:\n        /* \"#utility.yul\":1242:1246   */\n      0x00\n        /* \"#utility.yul\":1280:1282   */\n      0x20\n        /* \"#utility.yul\":1269:1278   */\n      dup3\n        /* \"#utility.yul\":1265:1283   */\n      add\n        /* \"#utility.yul\":1257:1283   */\n      swap1\n      pop\n        /* \"#utility.yul\":1293:1364   */\n      tag_49\n        /* \"#utility.yul\":1361:1362   */\n      0x00\n        /* \"#utility.yul\":1350:1359   */\n      dup4\n        /* \"#utility.yul\":1346:1363   */\n      add\n        /* \"#utility.yul\":1337:1343   */\n      dup5\n        /* \"#utility.yul\":1293:1364   */\n      tag_24\n      jump\t// in\n    tag_49:\n        /* \"#utility.yul\":1149:1371   */\n      swap3\n      swap2\n      pop\n      pop\n      jump\t// out\n        /* \"#utility.yul\":1377:1475   */\n    tag_25:\n        /* \"#utility.yul\":1428:1434   */\n      0x00\n        /* \"#utility.yul\":1462:1467   */\n      dup2\n        /* \"#utility.yul\":1456:1468   */\n      mload\n        /* \"#utility.yul\":1446:1468   */\n      swap1\n      pop\n        /* \"#utility.yul\":1377:1475   */\n      swap2\n      swap1\n      pop\n      jump\t// out\n        /* \"#utility.yul\":1481:1628   */\n    tag_26:\n        /* \"#utility.yul\":1582:1593   */\n      0x00\n        /* \"#utility.yul\":1619:1622   */\n      dup2\n        /* \"#utility.yul\":1604:1622   */\n      swap1\n      pop\n        /* \"#utility.yul\":1481:1628   */\n      swap3\n      swap2\n      pop\n      pop\n      jump\t// out\n        /* \"#utility.yul\":1634:1773   */\n    tag_27:\n        /* \"#utility.yul\":1723:1729   */\n      dup3\n        /* \"#utility.yul\":1718:1721   */\n      dup2\n        /* \"#utility.yul\":1713:1716   */\n      dup4\n        /* \"#utility.yul\":1707:1730   */\n      mcopy\n        /* \"#utility.yul\":1764:1765   */\n      0x00\n        /* \"#utility.yul\":1755:1761   */\n      dup4\n        /* \"#utility.yul\":1750:1753   */\n      dup4\n        /* \"#utility.yul\":1746:1762   */\n      add\n        /* \"#utility.yul\":1739:1766   */\n      mstore\n        /* \"#utility.yul\":1634:1773   */\n      pop\n      pop\n      pop\n      jump\t// out\n        /* \"#utility.yul\":1779:2165   */\n    tag_28:\n        /* \"#utility.yul\":1883:1886   */\n      0x00\n        /* \"#utility.yul\":1911:1949   */\n      tag_54\n        /* \"#utility.yul\":1943:1948   */\n      dup3\n        /* \"#utility.yul\":1911:1949   */\n      tag_25\n      jump\t// in\n    tag_54:\n        /* \"#utility.yul\":1965:2053   */\n      tag_55\n        /* \"#utility.yul\":2046:2052   */\n      dup2\n        /* \"#utility.yul\":2041:2044   */\n      dup6\n        /* \"#utility.yul\":1965:2053   */\n      tag_26\n      jump\t// in\n    tag_55:\n        /* \"#utility.yul\":1958:2053   */\n      swap4\n      pop\n        /* \"#utility.yul\":2062:2127   */\n      tag_56\n        /* \"#utility.yul\":2120:2126   */\n      dup2\n        /* \"#utility.yul\":2115:2118   */\n      dup6\n        /* \"#utility.yul\":2108:2112   */\n      0x20\n        /* \"#utility.yul\":2101:2106   */\n      dup7\n        /* \"#utility.yul\":2097:2113   */\n      add\n        /* \"#utility.yul\":2062:2127   */\n      tag_27\n      jump\t// in\n    tag_56:\n        /* \"#utility.yul\":2152:2158   */\n      dup1\n        /* \"#utility.yul\":2147:2150   */\n      dup5\n        /* \"#utility.yul\":2143:2159   */\n      add\n        /* \"#utility.yul\":2136:2159   */\n      swap2\n      pop\n        /* \"#utility.yul\":1887:2165   */\n      pop\n        /* \"#utility.yul\":1779:2165   */\n      swap3\n      swap2\n      pop\n      pop\n      jump\t// out\n        /* \"#utility.yul\":2171:2442   */\n    tag_13:\n        /* \"#utility.yul\":2301:2304   */\n      0x00\n        /* \"#utility.yul\":2323:2416   */\n      tag_58\n        /* \"#utility.yul\":2412:2415   */\n      dup3\n        /* \"#utility.yul\":2403:2409   */\n      dup5\n        /* \"#utility.yul\":2323:2416   */\n      tag_28\n      jump\t// in\n    tag_58:\n        /* \"#utility.yul\":2316:2416   */\n      swap2\n      pop\n        /* \"#utility.yul\":2433:2436   */\n      dup2\n        /* \"#utility.yul\":2426:2436   */\n      swap1\n      pop\n        /* \"#utility.yul\":2171:2442   */\n      swap3\n      swap2\n      pop\n      pop\n      jump\t// out\n        /* \"#utility.yul\":2448:2525   */\n    tag_29:\n        /* \"#utility.yul\":2485:2492   */\n      0x00\n        /* \"#utility.yul\":2514:2519   */\n      dup2\n        /* \"#utility.yul\":2503:2519   */\n      swap1\n      pop\n        /* \"#utility.yul\":2448:2525   */\n      swap2\n      swap1\n      pop\n      jump\t// out\n        /* \"#utility.yul\":2531:2653   */\n    tag_30:\n        /* \"#utility.yul\":2604:2628   */\n      tag_61\n        /* \"#utility.yul\":2622:2627   */\n      dup2\n        /* \"#utility.yul\":2604:2628   */\n      tag_29\n      jump\t// in\n    tag_61:\n        /* \"#utility.yul\":2597:2602   */\n      dup2\n        /* \"#utility.yul\":2594:2629   */\n      eq\n        /* \"#utility.yul\":2584:2647   */\n      tag_62\n      jumpi\n        /* \"#utility.yul\":2643:2644   */\n      0x00\n        /* \"#utility.yul\":2640:2641   */\n      0x00\n        /* \"#utility.yul\":2633:2645   */\n      revert\n        /* \"#utility.yul\":2584:2647   */\n    tag_62:\n        /* \"#utility.yul\":2531:2653   */\n      pop\n      jump\t// out\n        /* \"#utility.yul\":2659:2802   */\n    tag_31:\n        /* \"#utility.yul\":2716:2721   */\n      0x00\n        /* \"#utility.yul\":2747:2753   */\n      dup2\n        /* \"#utility.yul\":2741:2754   */\n      mload\n        /* \"#utility.yul\":2732:2754   */\n      swap1\n      pop\n        /* \"#utility.yul\":2763:2796   */\n      tag_64\n        /* \"#utility.yul\":2790:2795   */\n      dup2\n        /* \"#utility.yul\":2763:2796   */\n      tag_30\n      jump\t// in\n    tag_64:\n        /* \"#utility.yul\":2659:2802   */\n      swap3\n      swap2\n      pop\n      pop\n      jump\t// out\n        /* \"#utility.yul\":2808:3159   */\n    tag_17:\n        /* \"#utility.yul\":2878:2884   */\n      0x00\n        /* \"#utility.yul\":2927:2929   */\n      0x20\n        /* \"#utility.yul\":2915:2924   */\n      dup3\n        /* \"#utility.yul\":2906:2913   */\n      dup5\n        /* \"#utility.yul\":2902:2925   */\n      sub\n        /* \"#utility.yul\":2898:2930   */\n      slt\n        /* \"#utility.yul\":2895:3014   */\n      iszero\n      tag_66\n      jumpi\n        /* \"#utility.yul\":2933:3012   */\n      tag_67\n      tag_19\n      jump\t// in\n    tag_67:\n        /* \"#utility.yul\":2895:3014   */\n    tag_66:\n        /* \"#utility.yul\":3053:3054   */\n      0x00\n        /* \"#utility.yul\":3078:3142   */\n      tag_68\n        /* \"#utility.yul\":3134:3141   */\n      dup5\n        /* \"#utility.yul\":3125:3131   */\n      dup3\n        /* \"#utility.yul\":3114:3123   */\n      dup6\n        /* \"#utility.yul\":3110:3132   */\n      add\n        /* \"#utility.yul\":3078:3142   */\n      tag_31\n      jump\t// in\n    tag_68:\n        /* \"#utility.yul\":3068:3142   */\n      swap2\n      pop\n        /* \"#utility.yul\":3024:3152   */\n      pop\n        /* \"#utility.yul\":2808:3159   */\n      swap3\n      swap2\n      pop\n      pop\n      jump\t// out\n\n    auxdata: 0xa26469706673582212205d00eca53b8337d9d819d7540c2e473cbab3f5299d9ae5d1931970f054db062264736f6c634300081e0033\n}\n",
				"bytecode": {
					"linkReferences": {},
					"object": "6080604052348015600e575f5ffd5b5061025a8061001c5f395ff3fe608060405234801561000f575f5ffd5b5060043610610029575f3560e01c8063b189fd4c1461002d575b5f5ffd5b6100476004803603810190610042919061010b565b61005d565b6040516100549190610145565b60405180910390f35b5f6002826040516020016100719190610145565b60405160208183030381529060405260405161008d91906101b0565b602060405180830381855afa1580156100a8573d5f5f3e3d5ffd5b5050506040513d601f19601f820116820180604052508101906100cb91906101f9565b5f1c9050919050565b5f5ffd5b5f819050919050565b6100ea816100d8565b81146100f4575f5ffd5b50565b5f81359050610105816100e1565b92915050565b5f602082840312156101205761011f6100d4565b5b5f61012d848285016100f7565b91505092915050565b61013f816100d8565b82525050565b5f6020820190506101585f830184610136565b92915050565b5f81519050919050565b5f81905092915050565b8281835e5f83830152505050565b5f61018a8261015e565b6101948185610168565b93506101a4818560208601610172565b80840191505092915050565b5f6101bb8284610180565b915081905092915050565b5f819050919050565b6101d8816101c6565b81146101e2575f5ffd5b50565b5f815190506101f3816101cf565b92915050565b5f6020828403121561020e5761020d6100d4565b5b5f61021b848285016101e5565b9150509291505056fea26469706673582212205d00eca53b8337d9d819d7540c2e473cbab3f5299d9ae5d1931970f054db062264736f6c634300081e0033",
					"opcodes": "PUSH1 0x80 PUSH1 0x40 MSTORE CALLVALUE DUP1 ISZERO PUSH1 0xE JUMPI PUSH0 PUSH0 REVERT JUMPDEST POP PUSH2 0x25A DUP1 PUSH2 0x1C PUSH0 CODECOPY PUSH0 RETURN INVALID PUSH1 0x80 PUSH1 0x40 MSTORE CALLVALUE DUP1 ISZERO PUSH2 0xF JUMPI PUSH0 PUSH0 REVERT JUMPDEST POP PUSH1 0x4 CALLDATASIZE LT PUSH2 0x29 JUMPI PUSH0 CALLDATALOAD PUSH1 0xE0 SHR DUP1 PUSH4 0xB189FD4C EQ PUSH2 0x2D JUMPI JUMPDEST PUSH0 PUSH0 REVERT JUMPDEST PUSH2 0x47 PUSH1 0x4 DUP1 CALLDATASIZE SUB DUP2 ADD SWAP1 PUSH2 0x42 SWAP2 SWAP1 PUSH2 0x10B JUMP JUMPDEST PUSH2 0x5D JUMP JUMPDEST PUSH1 0x40 MLOAD PUSH2 0x54 SWAP2 SWAP1 PUSH2 0x145 JUMP JUMPDEST PUSH1 0x40 MLOAD DUP1 SWAP2 SUB SWAP1 RETURN JUMPDEST PUSH0 PUSH1 0x2 DUP3 PUSH1 0x40 MLOAD PUSH1 0x20 ADD PUSH2 0x71 SWAP2 SWAP1 PUSH2 0x145 JUMP JUMPDEST PUSH1 0x40 MLOAD PUSH1 0x20 DUP2 DUP4 SUB SUB DUP2 MSTORE SWAP1 PUSH1 0x40 MSTORE PUSH1 0x40 MLOAD PUSH2 0x8D SWAP2 SWAP1 PUSH2 0x1B0 JUMP JUMPDEST PUSH1 0x20 PUSH1 0x40 MLOAD DUP1 DUP4 SUB DUP2 DUP6 GAS STATICCALL ISZERO DUP1 ISZERO PUSH2 0xA8 JUMPI RETURNDATASIZE PUSH0 PUSH0 RETURNDATACOPY RETURNDATASIZE PUSH0 REVERT JUMPDEST POP POP POP PUSH1 0x40 MLOAD RETURNDATASIZE PUSH1 0x1F NOT PUSH1 0x1F DUP3 ADD AND DUP3 ADD DUP1 PUSH1 0x40 MSTORE POP DUP2 ADD SWAP1 PUSH2 0xCB SWAP2 SWAP1 PUSH2 0x1F9 JUMP JUMPDEST PUSH0 SHR SWAP1 POP SWAP2 SWAP1 POP JUMP JUMPDEST PUSH0 PUSH0 REVERT JUMPDEST PUSH0 DUP2 SWAP1 POP SWAP2 SWAP1 POP JUMP JUMPDEST PUSH2 0xEA DUP2 PUSH2 0xD8 JUMP JUMPDEST DUP2 EQ PUSH2 0xF4 JUMPI PUSH0 PUSH0 REVERT JUMPDEST POP JUMP JUMPDEST PUSH0 DUP2 CALLDATALOAD SWAP1 POP PUSH2 0x105 DUP2 PUSH2 0xE1 JUMP JUMPDEST SWAP3 SWAP2 POP POP JUMP JUMPDEST PUSH0 PUSH1 0x20 DUP3 DUP5 SUB SLT ISZERO PUSH2 0x120 JUMPI PUSH2 0x11F PUSH2 0xD4 JUMP JUMPDEST JUMPDEST PUSH0 PUSH2 0x12D DUP5 DUP3 DUP6 ADD PUSH2 0xF7 JUMP JUMPDEST SWAP2 POP POP SWAP3 SWAP2 POP POP JUMP JUMPDEST PUSH2 0x13F DUP2 PUSH2 0xD8 JUMP JUMPDEST DUP3 MSTORE POP POP JUMP JUMPDEST PUSH0 PUSH1 0x20 DUP3 ADD SWAP1 POP PUSH2 0x158 PUSH0 DUP4 ADD DUP5 PUSH2 0x136 JUMP JUMPDEST SWAP3 SWAP2 POP POP JUMP JUMPDEST PUSH0 DUP2 MLOAD SWAP1 POP SWAP2 SWAP1 POP JUMP JUMPDEST PUSH0 DUP2 SWAP1 POP SWAP3 SWAP2 POP POP JUMP JUMPDEST DUP3 DUP2 DUP4 MCOPY PUSH0 DUP4 DUP4 ADD MSTORE POP POP POP JUMP JUMPDEST PUSH0 PUSH2 0x18A DUP3 PUSH2 0x15E JUMP JUMPDEST PUSH2 0x194 DUP2 DUP6 PUSH2 0x168 JUMP JUMPDEST SWAP4 POP PUSH2 0x1A4 DUP2 DUP6 PUSH1 0x20 DUP7 ADD PUSH2 0x172 JUMP JUMPDEST DUP1 DUP5 ADD SWAP2 POP POP SWAP3 SWAP2 POP POP JUMP JUMPDEST PUSH0 PUSH2 0x1BB DUP3 DUP5 PUSH2 0x180 JUMP JUMPDEST SWAP2 POP DUP2 SWAP1 POP SWAP3 SWAP2 POP POP JUMP JUMPDEST PUSH0 DUP2 SWAP1 POP SWAP2 SWAP1 POP JUMP JUMPDEST PUSH2 0x1D8 DUP2 PUSH2 0x1C6 JUMP JUMPDEST DUP2 EQ PUSH2 0x1E2 JUMPI PUSH0 PUSH0 REVERT JUMPDEST POP JUMP JUMPDEST PUSH0 DUP2 MLOAD SWAP1 POP PUSH2 0x1F3 DUP2 PUSH2 0x1CF JUMP JUMPDEST SWAP3 SWAP2 POP POP JUMP JUMPDEST PUSH0 PUSH1 0x20 DUP3 DUP5 SUB SLT ISZERO PUSH2 0x20E JUMPI PUSH2 0x20D PUSH2 0xD4 JUMP JUMPDEST JUMPDEST PUSH0 PUSH2 0x21B DUP5 DUP3 DUP6 ADD PUSH2 0x1E5 JUMP JUMPDEST SWAP2 POP POP SWAP3 SWAP2 POP POP JUMP INVALID LOG2 PUSH5 0x6970667358 0x22 SLT KECCAK256 TSTORE STOP EOFCREATE 0xA5 EXTCODESIZE DUP4 CALLDATACOPY 0xD9 0xD8 NOT 0xD7 SLOAD 0xC 0x2E SELFBALANCE EXTCODECOPY 0xBA 0xB3 CREATE2 0x29 SWAP14 SWAP11 JUMPF 0xD193 NOT PUSH17 0xF054DB062264736F6C634300081E003300 "
				},
				"gasEstimates": {
					"creation": {
						"codeDepositCost": "120400",
						"executionCost": "163",
						"totalCost": "120563"
					},
					"external": {
						"hash(uint256)": "infinite"
					}
				},
				"methodIdentifiers": {
					"hash(uint256)": "b189fd4c"
				}
			},
			"storageLayout": {
				"storage": [],
				"types": null
			},
			"userdoc": {
				"kind": "user",
				"methods": {},
				"version": 1
			}
		}
	}
}