{
	"data": {
		"bytecode": {
			"linkReferences": {},
			"object": "6080604052348015600e575f5ffd5b506102748061001c5f395ff3fe608060405260043610610033575f3560e01c806312065fe014610037578063d03b1c2914610061578063d0e30db014610089575b5f5ffd5b348015610042575f5ffd5b5061004b610093565b604051610058919061011e565b60405180910390f35b34801561006c575f5ffd5b50610087600480360381019061008291906101bf565b61009a565b005b610091610104565b005b5f47905090565b8173ffffffffffffffffffffffffffffffffffffffff16816040516100be9061022a565b5f6040518083038185875af1925050503d805f81146100f8576040519150601f19603f3d011682016040523d82523d5f602084013e6100fd565b606091505b5050505050565b565b5f819050919050565b61011881610106565b82525050565b5f6020820190506101315f83018461010f565b92915050565b5f5ffd5b5f73ffffffffffffffffffffffffffffffffffffffff82169050919050565b5f6101648261013b565b9050919050565b6101748161015a565b811461017e575f5ffd5b50565b5f8135905061018f8161016b565b92915050565b61019e81610106565b81146101a8575f5ffd5b50565b5f813590506101b981610195565b92915050565b5f5f604083850312156101d5576101d4610137565b5b5f6101e285828601610181565b92505060206101f3858286016101ab565b9150509250929050565b5f81905092915050565b50565b5f6102155f836101fd565b915061022082610207565b5f82019050919050565b5f6102348261020a565b915081905091905056fea26469706673582212202325792820ab7e23463d1f180725604a08899d2c6f765f3137cf1d47eb8088e764736f6c634300081e0033",
			"opcodes": "PUSH1 0x80 PUSH1 0x40 MSTORE CALLVALUE DUP1 ISZERO PUSH1 0xE JUMPI PUSH0 PUSH0 REVERT JUMPDEST POP PUSH2 0x274 DUP1 PUSH2 0x1C PUSH0 CODECOPY PUSH0 RETURN INVALID PUSH1 0x80 PUSH1 0x40 MSTORE PUSH1 0x4 CALLDATASIZE LT PUSH2 0x33 JUMPI PUSH0 CALLDATALOAD PUSH1 0xE0 SHR DUP1 PUSH4 0x12065FE0 EQ PUSH2 0x37 JUMPI DUP1 PUSH4 0xD03B1C29 EQ PUSH2 0x61 JUMPI DUP1 PUSH4 0xD0E30DB0 EQ PUSH2 0x89 JUMPI JUMPDEST PUSH0 PUSH0 REVERT JUMPDEST CALLVALUE DUP1 ISZERO PUSH2 0x42 JUMPI PUSH0 PUSH0 REVERT JUMPDEST POP PUSH2 0x4B PUSH2 0x93 JUMP JUMPDEST PUSH1 0x40 MLOAD PUSH2 0x58 SWAP2 SWAP1 PUSH2 0x11E JUMP JUMPDEST PUSH1 0x40 MLOAD DUP1 SWAP2 SUB SWAP1 RETURN JUMPDEST CALLVALUE DUP1 ISZERO PUSH2 0x6C JUMPI PUSH0 PUSH0 REVERT JUMPDEST POP PUSH2 0x87 PUSH1 0x4 DUP1 CALLDATASIZE SUB DUP2 ADD SWAP1 PUSH2 0x82 SWAP2 SWAP1 PUSH2 0x1BF JUMP JUMPDEST PUSH2 0x9A JUMP JUMPDEST STOP JUMPDEST PUSH2 0x91 PUSH2 0x104 JUMP JUMPDEST STOP JUMPDEST PUSH0 SELFBALANCE SWAP1 POP SWAP1 JUMP JUMPDEST DUP2 PUSH20 0xFFFFFFFFFFFFFFFFFFFFFFFFFFFFFFFFFFFFFFFF AND DUP2 PUSH1 0x40 MLOAD PUSH2 0xBE SWAP1 PUSH2 0x22A JUMP JUMPDEST PUSH0 PUSH1 0x40 MLOAD DUP1 DUP4 SUB DUP2 DUP6 DUP8 GAS CALL SWAP3 POP POP POP RETURNDATASIZE DUP1 PUSH0 DUP2 EQ PUSH2 0xF8 JUMPI PUSH1 0x40 MLOAD SWAP2 POP PUSH1 0x1F NOT PUSH1 0x3F RETURNDATASIZE ADD AND DUP3 ADD PUSH1 0x40 MSTORE RETURNDATASIZE DUP3 MSTORE RETURNDATASIZE PUSH0 PUSH1 0x20 DUP5 ADD RETURNDATACOPY PUSH2 0xFD JUMP JUMPDEST PUSH1 0x60 SWAP2 POP JUMPDEST POP POP POP POP POP JUMP JUMPDEST JUMP JUMPDEST PUSH0 DUP2 SWAP1 POP SWAP2 SWAP1 POP JUMP JUMPDEST PUSH2 0x118 DUP2 PUSH2 0x106 JUMP JUMPDEST DUP3 MSTORE POP POP JUMP JUMPDEST PUSH0 PUSH1 0x20 DUP3 ADD SWAP1 POP PUSH2 0x131 PUSH0 DUP4 ADD DUP5 PUSH2 0x10F JUMP JUMPDEST SWAP3 SWAP2 POP POP JUMP JUMPDEST PUSH0 PUSH0 REVERT JUMPDEST PUSH0 PUSH20 0xFFFFFFFFFFFFFFFFFFFFFFFFFFFFFFFFFFFFFFFF DUP3 AND SWAP1 POP SWAP2 SWAP1 POP JUMP JUMPDEST PUSH0 PUSH2 0x164 DUP3 PUSH2 0x13B JUMP JUMPDEST SWAP1 POP SWAP2 SWAP1 POP JUMP JUMPDEST PUSH2 0x174 DUP2 PUSH2 0x15A JUMP JUMPDEST DUP2 EQ PUSH2 0x17E JUMPI PUSH0 PUSH0 REVERT JUMPDEST POP JUMP JUMPDEST PUSH0 DUP2 CALLDATALOAD SWAP1 POP PUSH2 0x18F DUP2 PUSH2 0x16B JUMP JUMPDEST SWAP3 SWAP2 POP POP JUMP JUMPDEST PUSH2 0x19E DUP2 PUSH2 0x106 JUMP JUMPDEST DUP2 EQ PUSH2 0x1A8 JUMPI PUSH0 PUSH0 REVERT JUMPDEST POP JUMP JUMPDEST PUSH0 DUP2 CALLDATALOAD SWAP1 POP PUSH2 0x1B9 DUP2 PUSH2 0x195 JUMP JUMPDEST SWAP3 SWAP2 POP POP JUMP JUMPDEST PUSH0 PUSH0 PUSH1 0x40 DUP4 DUP6 SUB SLT ISZERO PUSH2 0x1D5 JUMPI PUSH2 0x1D4 PUSH2 0x137 JUMP JUMPDEST JUMPDEST PUSH0 PUSH2 0x1E2 DUP6 DUP3 DUP7 ADD PUSH2 0x181 JUMP JUMPDEST SWAP3 POP POP PUSH1 0x20 PUSH2 0x1F3 DUP6 DUP3 DUP7 ADD PUSH2 0x1AB JUMP JUMPDEST SWAP2 POP POP SWAP3 POP SWAP3 SWAP1 POP JUMP JUMPDEST PUSH0 DUP2 SWAP1 POP SWAP3 SWAP2 POP POP JUMP JUMPDEST POP JUMP JUMPDEST PUSH0 PUSH2 0x215 PUSH0 DUP4 PUSH2 0x1FD JUMP JUMPDEST SWAP2 POP PUSH2 0x220 DUP3 PUSH2 0x207 JUMP JUMPDEST PUSH0 DUP3 ADD SWAP1 POP SWAP2 SWAP1 POP JUMP JUMPDEST PUSH0 PUSH2 0x234 DUP3 PUSH2 0x20A JUMP JUMPDEST SWAP2 POP DUP2 SWAP1 POP SWAP2 SWAP1 POP JUMP INVALID LOG2 PUSH5 0x6970667358 0x22 SLT KECCAK256 0x23 0x25 PUSH26 0x2820AB7E23463D1F180725604A08899D2C6F765F3137CF1D47EB DUP1 DUP9 SWAPN 0x64 PUSH20 0x6F6C634300081E00330000000000000000000000 "
		},
		"gasEstimates": {
			"creation": {
				"codeDepositCost": "125600",
				"executionCost": "169",
				"totalCost": "125769"
			},
			"external": {
				"SendToContract(address,uint256)": "infinite",
				"deposit()": "141",
				"getBalance()": "312"
			}
		},
		"methodIdentifiers": {
			"SendToContract(address,uint256)": "d03b1c29",
			"deposit()": "d0e30db0",
			"getBalance()": "12065fe0"
		}
	},
	"abi": [
		{
			"inputs": [
				{
					"internalType": "address",
					"name": "addr",
					"type": "address"
				},
				{
					"internalType": "uint256",
					"name": "amount",
					"type": "uint256"
				}
			],
			"name": "SendToContract",
			"outputs": [],
			"stateMutability": "nonpayable",
			"type": "function"
		},
		{
			"inputs": [],
			"name": "deposit",
			"outputs": [],
			"stateMutability": "payable",
			"type": "function"
		},
		{
			"inputs": [],
			"name": "getBalance",
			"outputs": [
				{
					"internalType": "uint256",
					"name": "",
					"type": "uint256"
				}
			],
			"stateMutability": "view",
			"type": "function"
		}
	]
}