{
	"contracts/上傳用/example01.sol": {
		"Example01": {
			"abi": [
				{
					"inputs": [],
					"name": "get",
					"outputs": [
						{
							"components": [
								{
									"internalType": "address",
									"name": "account",
									"type": "address"
								},
								{
									"internalType": "uint256",
									"name": "amount",
									"type": "uint256"
								}
							],
							"internalType": "struct Example01.Wallet",
							"name": "",
							"type": "tuple"
						}
					],
					"stateMutability": "view",
					"type": "function"
				},
				{
					"inputs": [
						{
							"components": [
								{
									"internalType": "address",
									"name": "account",
									"type": "address"
								},
								{
									"internalType": "uint256",
									"name": "amount",
									"type": "uint256"
								}
							],
							"internalType": "struct Example01.Wallet",
							"name": "w",
							"type": "tuple"
						}
					],
					"name": "motifyWallet",
					"outputs": [],
					"stateMutability": "nonpayable",
					"type": "function"
				},
				{
					"inputs": [
						{
							"internalType": "uint256",
							"name": "amount",
							"type": "uint256"
						}
					],
					"name": "setAmount",
					"outputs": [],
					"stateMutability": "nonpayable",
					"type": "function"
				},
				{
					"inputs": [
						{
							"components": [
								{
									"internalType": "address",
									"name": "account",
									"type": "address"
								},
								{
									"internalType": "uint256",
									"name": "amount",
									"type": "uint256"
								}
							],
							"internalType": "struct Example01.Wallet",
							"name": "w",
							"type": "tuple"
						}
					],
					"name": "setWallet",
					"outputs": [],
					"stateMutability": "nonpayable",
					"type": "function"
				},
				{
					"inputs": [
						{
							"internalType": "address",
							"name": "account",
							"type": "address"
						},
						{
							"internalType": "uint256",
							"name": "amount",
							"type": "uint256"
						}
					],
					"name": "setWallet_with_more_intuitive",
					"outputs": [],
					"stateMutability": "nonpayable",
					"type": "function"
				}
			],
			"devdoc": {
				"kind": "dev",
				"methods": {},
				"version": 1
			},
			"evm": {
				"assembly": "    /* \"contracts/\\xe4\\xb8\\x8a\\xe5\\x82\\xb3\\xe7\\x94\\xa8/example01.sol\":66:711  contract Example01 {... */\n  mstore(0x40, 0x80)\n  callvalue\n  dup1\n  iszero\n  tag_1\n  jumpi\n  revert(0x00, 0x00)\ntag_1:\n  pop\n  dataSize(sub_0)\n  dup1\n  dataOffset(sub_0)\n  0x00\n  codecopy\n  0x00\n  return\nstop\n\nsub_0: assembly {\n        /* \"contracts/\\xe4\\xb8\\x8a\\xe5\\x82\\xb3\\xe7\\x94\\xa8/example01.sol\":66:711  contract Example01 {... */\n      mstore(0x40, 0x80)\n      callvalue\n      dup1\n      iszero\n      tag_1\n      jumpi\n      revert(0x00, 0x00)\n    tag_1:\n      pop\n      jumpi(tag_2, lt(calldatasize, 0x04))\n      shr(0xe0, calldataload(0x00))\n      dup1\n      0x271f88b4\n      eq\n      tag_3\n      jumpi\n      dup1\n      0x38477cd0\n      eq\n      tag_4\n      jumpi\n      dup1\n      0x64abe4b8\n      eq\n      tag_5\n      jumpi\n      dup1\n      0x6d4ce63c\n      eq\n      tag_6\n      jumpi\n      dup1\n      0x6ec30ca1\n      eq\n      tag_7\n      jumpi\n    tag_2:\n      revert(0x00, 0x00)\n        /* \"contracts/\\xe4\\xb8\\x8a\\xe5\\x82\\xb3\\xe7\\x94\\xa8/example01.sol\":195:291  function setAmount(uint256 amount) public {... */\n    tag_3:\n      tag_8\n      0x04\n      dup1\n      calldatasize\n      sub\n      dup2\n      add\n      swap1\n      tag_9\n      swap2\n      swap1\n      tag_10\n      jump\t// in\n    tag_9:\n      tag_11\n      jump\t// in\n    tag_8:\n      stop\n        /* \"contracts/\\xe4\\xb8\\x8a\\xe5\\x82\\xb3\\xe7\\x94\\xa8/example01.sol\":299:373  function setWallet(Wallet calldata w) public {... */\n    tag_4:\n      tag_12\n      0x04\n      dup1\n      calldatasize\n      sub\n      dup2\n      add\n      swap1\n      tag_13\n      swap2\n      swap1\n      tag_14\n      jump\t// in\n    tag_13:\n      tag_15\n      jump\t// in\n    tag_12:\n      stop\n        /* \"contracts/\\xe4\\xb8\\x8a\\xe5\\x82\\xb3\\xe7\\x94\\xa8/example01.sol\":381:511  function setWallet_with_more_intuitive(address account, uint256 amount) public {... */\n    tag_5:\n      tag_16\n      0x04\n      dup1\n      calldatasize\n      sub\n      dup2\n      add\n      swap1\n      tag_17\n      swap2\n      swap1\n      tag_18\n      jump\t// in\n    tag_17:\n      tag_19\n      jump\t// in\n    tag_16:\n      stop\n        /* \"contracts/\\xe4\\xb8\\x8a\\xe5\\x82\\xb3\\xe7\\x94\\xa8/example01.sol\":625:708  function get() public view returns (Wallet memory) {... */\n    tag_6:\n      tag_20\n      tag_21\n      jump\t// in\n    tag_20:\n      mload(0x40)\n      tag_22\n      swap2\n      swap1\n      tag_23\n      jump\t// in\n    tag_22:\n      mload(0x40)\n      dup1\n      swap2\n      sub\n      swap1\n      return\n        /* \"contracts/\\xe4\\xb8\\x8a\\xe5\\x82\\xb3\\xe7\\x94\\xa8/example01.sol\":519:617  function motifyWallet(Wallet memory w)public{... */\n    tag_7:\n      tag_24\n      0x04\n      dup1\n      calldatasize\n      sub\n      dup2\n      add\n      swap1\n      tag_25\n      swap2\n      swap1\n      tag_26\n      jump\t// in\n    tag_25:\n      tag_27\n      jump\t// in\n    tag_24:\n      stop\n        /* \"contracts/\\xe4\\xb8\\x8a\\xe5\\x82\\xb3\\xe7\\x94\\xa8/example01.sol\":195:291  function setAmount(uint256 amount) public {... */\n    tag_11:\n        /* \"contracts/\\xe4\\xb8\\x8a\\xe5\\x82\\xb3\\xe7\\x94\\xa8/example01.sol\":257:283  Wallet(msg.sender, amount) */\n      mload(0x40)\n      dup1\n      0x40\n      add\n      0x40\n      mstore\n      dup1\n        /* \"contracts/\\xe4\\xb8\\x8a\\xe5\\x82\\xb3\\xe7\\x94\\xa8/example01.sol\":264:274  msg.sender */\n      caller\n        /* \"contracts/\\xe4\\xb8\\x8a\\xe5\\x82\\xb3\\xe7\\x94\\xa8/example01.sol\":257:283  Wallet(msg.sender, amount) */\n      0xffffffffffffffffffffffffffffffffffffffff\n      and\n      dup2\n      mstore\n      0x20\n      add\n        /* \"contracts/\\xe4\\xb8\\x8a\\xe5\\x82\\xb3\\xe7\\x94\\xa8/example01.sol\":276:282  amount */\n      dup3\n        /* \"contracts/\\xe4\\xb8\\x8a\\xe5\\x82\\xb3\\xe7\\x94\\xa8/example01.sol\":257:283  Wallet(msg.sender, amount) */\n      dup2\n      mstore\n      pop\n        /* \"contracts/\\xe4\\xb8\\x8a\\xe5\\x82\\xb3\\xe7\\x94\\xa8/example01.sol\":248:254  wallet */\n      0x00\n        /* \"contracts/\\xe4\\xb8\\x8a\\xe5\\x82\\xb3\\xe7\\x94\\xa8/example01.sol\":248:283  wallet = Wallet(msg.sender, amount) */\n      0x00\n      dup3\n      add\n      mload\n      dup2\n      0x00\n      add\n      exp(0x0100, 0x00)\n      dup2\n      sload\n      dup2\n      0xffffffffffffffffffffffffffffffffffffffff\n      mul\n      not\n      and\n      swap1\n      dup4\n      0xffffffffffffffffffffffffffffffffffffffff\n      and\n      mul\n      or\n      swap1\n      sstore\n      pop\n      0x20\n      dup3\n      add\n      mload\n      dup2\n      0x01\n      add\n      sstore\n      swap1\n      pop\n      pop\n        /* \"contracts/\\xe4\\xb8\\x8a\\xe5\\x82\\xb3\\xe7\\x94\\xa8/example01.sol\":195:291  function setAmount(uint256 amount) public {... */\n      pop\n      jump\t// out\n        /* \"contracts/\\xe4\\xb8\\x8a\\xe5\\x82\\xb3\\xe7\\x94\\xa8/example01.sol\":299:373  function setWallet(Wallet calldata w) public {... */\n    tag_15:\n        /* \"contracts/\\xe4\\xb8\\x8a\\xe5\\x82\\xb3\\xe7\\x94\\xa8/example01.sol\":364:365  w */\n      dup1\n        /* \"contracts/\\xe4\\xb8\\x8a\\xe5\\x82\\xb3\\xe7\\x94\\xa8/example01.sol\":355:361  wallet */\n      0x00\n        /* \"contracts/\\xe4\\xb8\\x8a\\xe5\\x82\\xb3\\xe7\\x94\\xa8/example01.sol\":355:365  wallet = w */\n      dup2\n      dup2\n      tag_30\n      swap2\n      swap1\n      tag_31\n      jump\t// in\n    tag_30:\n      swap1\n      pop\n      pop\n        /* \"contracts/\\xe4\\xb8\\x8a\\xe5\\x82\\xb3\\xe7\\x94\\xa8/example01.sol\":299:373  function setWallet(Wallet calldata w) public {... */\n      pop\n      jump\t// out\n        /* \"contracts/\\xe4\\xb8\\x8a\\xe5\\x82\\xb3\\xe7\\x94\\xa8/example01.sol\":381:511  function setWallet_with_more_intuitive(address account, uint256 amount) public {... */\n    tag_19:\n        /* \"contracts/\\xe4\\xb8\\x8a\\xe5\\x82\\xb3\\xe7\\x94\\xa8/example01.sol\":480:503  Wallet(account, amount) */\n      mload(0x40)\n      dup1\n      0x40\n      add\n      0x40\n      mstore\n      dup1\n        /* \"contracts/\\xe4\\xb8\\x8a\\xe5\\x82\\xb3\\xe7\\x94\\xa8/example01.sol\":487:494  account */\n      dup4\n        /* \"contracts/\\xe4\\xb8\\x8a\\xe5\\x82\\xb3\\xe7\\x94\\xa8/example01.sol\":480:503  Wallet(account, amount) */\n      0xffffffffffffffffffffffffffffffffffffffff\n      and\n      dup2\n      mstore\n      0x20\n      add\n        /* \"contracts/\\xe4\\xb8\\x8a\\xe5\\x82\\xb3\\xe7\\x94\\xa8/example01.sol\":496:502  amount */\n      dup3\n        /* \"contracts/\\xe4\\xb8\\x8a\\xe5\\x82\\xb3\\xe7\\x94\\xa8/example01.sol\":480:503  Wallet(account, amount) */\n      dup2\n      mstore\n      pop\n        /* \"contracts/\\xe4\\xb8\\x8a\\xe5\\x82\\xb3\\xe7\\x94\\xa8/example01.sol\":471:477  wallet */\n      0x00\n        /* \"contracts/\\xe4\\xb8\\x8a\\xe5\\x82\\xb3\\xe7\\x94\\xa8/example01.sol\":471:503  wallet = Wallet(account, amount) */\n      0x00\n      dup3\n      add\n      mload\n      dup2\n      0x00\n      add\n      exp(0x0100, 0x00)\n      dup2\n      sload\n      dup2\n      0xffffffffffffffffffffffffffffffffffffffff\n      mul\n      not\n      and\n      swap1\n      dup4\n      0xffffffffffffffffffffffffffffffffffffffff\n      and\n      mul\n      or\n      swap1\n      sstore\n      pop\n      0x20\n      dup3\n      add\n      mload\n      dup2\n      0x01\n      add\n      sstore\n      swap1\n      pop\n      pop\n        /* \"contracts/\\xe4\\xb8\\x8a\\xe5\\x82\\xb3\\xe7\\x94\\xa8/example01.sol\":381:511  function setWallet_with_more_intuitive(address account, uint256 amount) public {... */\n      pop\n      pop\n      jump\t// out\n        /* \"contracts/\\xe4\\xb8\\x8a\\xe5\\x82\\xb3\\xe7\\x94\\xa8/example01.sol\":625:708  function get() public view returns (Wallet memory) {... */\n    tag_21:\n        /* \"contracts/\\xe4\\xb8\\x8a\\xe5\\x82\\xb3\\xe7\\x94\\xa8/example01.sol\":661:674  Wallet memory */\n      tag_33\n      tag_34\n      jump\t// in\n    tag_33:\n        /* \"contracts/\\xe4\\xb8\\x8a\\xe5\\x82\\xb3\\xe7\\x94\\xa8/example01.sol\":694:700  wallet */\n      0x00\n        /* \"contracts/\\xe4\\xb8\\x8a\\xe5\\x82\\xb3\\xe7\\x94\\xa8/example01.sol\":687:700  return wallet */\n      mload(0x40)\n      dup1\n      0x40\n      add\n      0x40\n      mstore\n      swap1\n      dup2\n      0x00\n      dup3\n      add\n      0x00\n      swap1\n      sload\n      swap1\n      0x0100\n      exp\n      swap1\n      div\n      0xffffffffffffffffffffffffffffffffffffffff\n      and\n      0xffffffffffffffffffffffffffffffffffffffff\n      and\n      0xffffffffffffffffffffffffffffffffffffffff\n      and\n      dup2\n      mstore\n      0x20\n      add\n      0x01\n      dup3\n      add\n      sload\n      dup2\n      mstore\n      pop\n      pop\n      swap1\n      pop\n        /* \"contracts/\\xe4\\xb8\\x8a\\xe5\\x82\\xb3\\xe7\\x94\\xa8/example01.sol\":625:708  function get() public view returns (Wallet memory) {... */\n      swap1\n      jump\t// out\n        /* \"contracts/\\xe4\\xb8\\x8a\\xe5\\x82\\xb3\\xe7\\x94\\xa8/example01.sol\":519:617  function motifyWallet(Wallet memory w)public{... */\n    tag_27:\n        /* \"contracts/\\xe4\\xb8\\x8a\\xe5\\x82\\xb3\\xe7\\x94\\xa8/example01.sol\":586:588  10 */\n      0x0a\n        /* \"contracts/\\xe4\\xb8\\x8a\\xe5\\x82\\xb3\\xe7\\x94\\xa8/example01.sol\":574:575  w */\n      dup2\n        /* \"contracts/\\xe4\\xb8\\x8a\\xe5\\x82\\xb3\\xe7\\x94\\xa8/example01.sol\":574:582  w.amount */\n      0x20\n      add\n        /* \"contracts/\\xe4\\xb8\\x8a\\xe5\\x82\\xb3\\xe7\\x94\\xa8/example01.sol\":574:588  w.amount *= 10 */\n      dup2\n      dup2\n      mload\n      tag_37\n      swap2\n      swap1\n      tag_38\n      jump\t// in\n    tag_37:\n      swap2\n      pop\n      dup2\n      dup2\n      mstore\n      pop\n      pop\n        /* \"contracts/\\xe4\\xb8\\x8a\\xe5\\x82\\xb3\\xe7\\x94\\xa8/example01.sol\":608:609  w */\n      dup1\n        /* \"contracts/\\xe4\\xb8\\x8a\\xe5\\x82\\xb3\\xe7\\x94\\xa8/example01.sol\":599:605  wallet */\n      0x00\n        /* \"contracts/\\xe4\\xb8\\x8a\\xe5\\x82\\xb3\\xe7\\x94\\xa8/example01.sol\":599:609  wallet = w */\n      0x00\n      dup3\n      add\n      mload\n      dup2\n      0x00\n      add\n      exp(0x0100, 0x00)\n      dup2\n      sload\n      dup2\n      0xffffffffffffffffffffffffffffffffffffffff\n      mul\n      not\n      and\n      swap1\n      dup4\n      0xffffffffffffffffffffffffffffffffffffffff\n      and\n      mul\n      or\n      swap1\n      sstore\n      pop\n      0x20\n      dup3\n      add\n      mload\n      dup2\n      0x01\n      add\n      sstore\n      swap1\n      pop\n      pop\n        /* \"contracts/\\xe4\\xb8\\x8a\\xe5\\x82\\xb3\\xe7\\x94\\xa8/example01.sol\":519:617  function motifyWallet(Wallet memory w)public{... */\n      pop\n      jump\t// out\n    tag_34:\n      mload(0x40)\n      dup1\n      0x40\n      add\n      0x40\n      mstore\n      dup1\n      and(0xffffffffffffffffffffffffffffffffffffffff, 0x00)\n      dup2\n      mstore\n      0x20\n      add\n      0x00\n      dup2\n      mstore\n      pop\n      swap1\n      jump\t// out\n        /* \"#utility.yul\":7:82   */\n    tag_39:\n        /* \"#utility.yul\":40:46   */\n      0x00\n        /* \"#utility.yul\":73:75   */\n      0x40\n        /* \"#utility.yul\":67:76   */\n      mload\n        /* \"#utility.yul\":57:76   */\n      swap1\n      pop\n        /* \"#utility.yul\":7:82   */\n      swap1\n      jump\t// out\n        /* \"#utility.yul\":88:205   */\n    tag_40:\n        /* \"#utility.yul\":197:198   */\n      0x00\n        /* \"#utility.yul\":194:195   */\n      0x00\n        /* \"#utility.yul\":187:199   */\n      revert\n        /* \"#utility.yul\":334:411   */\n    tag_42:\n        /* \"#utility.yul\":371:378   */\n      0x00\n        /* \"#utility.yul\":400:405   */\n      dup2\n        /* \"#utility.yul\":389:405   */\n      swap1\n      pop\n        /* \"#utility.yul\":334:411   */\n      swap2\n      swap1\n      pop\n      jump\t// out\n        /* \"#utility.yul\":417:539   */\n    tag_43:\n        /* \"#utility.yul\":490:514   */\n      tag_84\n        /* \"#utility.yul\":508:513   */\n      dup2\n        /* \"#utility.yul\":490:514   */\n      tag_42\n      jump\t// in\n    tag_84:\n        /* \"#utility.yul\":483:488   */\n      dup2\n        /* \"#utility.yul\":480:515   */\n      eq\n        /* \"#utility.yul\":470:533   */\n      tag_85\n      jumpi\n        /* \"#utility.yul\":529:530   */\n      0x00\n        /* \"#utility.yul\":526:527   */\n      0x00\n        /* \"#utility.yul\":519:531   */\n      revert\n        /* \"#utility.yul\":470:533   */\n    tag_85:\n        /* \"#utility.yul\":417:539   */\n      pop\n      jump\t// out\n        /* \"#utility.yul\":545:684   */\n    tag_44:\n        /* \"#utility.yul\":591:596   */\n      0x00\n        /* \"#utility.yul\":629:635   */\n      dup2\n        /* \"#utility.yul\":616:636   */\n      calldataload\n        /* \"#utility.yul\":607:636   */\n      swap1\n      pop\n        /* \"#utility.yul\":645:678   */\n      tag_87\n        /* \"#utility.yul\":672:677   */\n      dup2\n        /* \"#utility.yul\":645:678   */\n      tag_43\n      jump\t// in\n    tag_87:\n        /* \"#utility.yul\":545:684   */\n      swap3\n      swap2\n      pop\n      pop\n      jump\t// out\n        /* \"#utility.yul\":690:1019   */\n    tag_10:\n        /* \"#utility.yul\":749:755   */\n      0x00\n        /* \"#utility.yul\":798:800   */\n      0x20\n        /* \"#utility.yul\":786:795   */\n      dup3\n        /* \"#utility.yul\":777:784   */\n      dup5\n        /* \"#utility.yul\":773:796   */\n      sub\n        /* \"#utility.yul\":769:801   */\n      slt\n        /* \"#utility.yul\":766:885   */\n      iszero\n      tag_89\n      jumpi\n        /* \"#utility.yul\":804:883   */\n      tag_90\n      tag_40\n      jump\t// in\n    tag_90:\n        /* \"#utility.yul\":766:885   */\n    tag_89:\n        /* \"#utility.yul\":924:925   */\n      0x00\n        /* \"#utility.yul\":949:1002   */\n      tag_91\n        /* \"#utility.yul\":994:1001   */\n      dup5\n        /* \"#utility.yul\":985:991   */\n      dup3\n        /* \"#utility.yul\":974:983   */\n      dup6\n        /* \"#utility.yul\":970:992   */\n      add\n        /* \"#utility.yul\":949:1002   */\n      tag_44\n      jump\t// in\n    tag_91:\n        /* \"#utility.yul\":939:1002   */\n      swap2\n      pop\n        /* \"#utility.yul\":895:1012   */\n      pop\n        /* \"#utility.yul\":690:1019   */\n      swap3\n      swap2\n      pop\n      pop\n      jump\t// out\n        /* \"#utility.yul\":1025:1142   */\n    tag_45:\n        /* \"#utility.yul\":1134:1135   */\n      0x00\n        /* \"#utility.yul\":1131:1132   */\n      0x00\n        /* \"#utility.yul\":1124:1136   */\n      revert\n        /* \"#utility.yul\":1179:1406   */\n    tag_46:\n        /* \"#utility.yul\":1248:1253   */\n      0x00\n        /* \"#utility.yul\":1289:1291   */\n      0x40\n        /* \"#utility.yul\":1280:1286   */\n      dup3\n        /* \"#utility.yul\":1275:1278   */\n      dup5\n        /* \"#utility.yul\":1271:1287   */\n      sub\n        /* \"#utility.yul\":1267:1292   */\n      slt\n        /* \"#utility.yul\":1264:1376   */\n      iszero\n      tag_94\n      jumpi\n        /* \"#utility.yul\":1295:1374   */\n      tag_95\n      tag_45\n      jump\t// in\n    tag_95:\n        /* \"#utility.yul\":1264:1376   */\n    tag_94:\n        /* \"#utility.yul\":1394:1400   */\n      dup2\n        /* \"#utility.yul\":1385:1400   */\n      swap1\n      pop\n        /* \"#utility.yul\":1179:1406   */\n      swap3\n      swap2\n      pop\n      pop\n      jump\t// out\n        /* \"#utility.yul\":1412:1787   */\n    tag_14:\n        /* \"#utility.yul\":1494:1500   */\n      0x00\n        /* \"#utility.yul\":1543:1545   */\n      0x40\n        /* \"#utility.yul\":1531:1540   */\n      dup3\n        /* \"#utility.yul\":1522:1529   */\n      dup5\n        /* \"#utility.yul\":1518:1541   */\n      sub\n        /* \"#utility.yul\":1514:1546   */\n      slt\n        /* \"#utility.yul\":1511:1630   */\n      iszero\n      tag_97\n      jumpi\n        /* \"#utility.yul\":1549:1628   */\n      tag_98\n      tag_40\n      jump\t// in\n    tag_98:\n        /* \"#utility.yul\":1511:1630   */\n    tag_97:\n        /* \"#utility.yul\":1669:1670   */\n      0x00\n        /* \"#utility.yul\":1694:1770   */\n      tag_99\n        /* \"#utility.yul\":1762:1769   */\n      dup5\n        /* \"#utility.yul\":1753:1759   */\n      dup3\n        /* \"#utility.yul\":1742:1751   */\n      dup6\n        /* \"#utility.yul\":1738:1760   */\n      add\n        /* \"#utility.yul\":1694:1770   */\n      tag_46\n      jump\t// in\n    tag_99:\n        /* \"#utility.yul\":1684:1770   */\n      swap2\n      pop\n        /* \"#utility.yul\":1640:1780   */\n      pop\n        /* \"#utility.yul\":1412:1787   */\n      swap3\n      swap2\n      pop\n      pop\n      jump\t// out\n        /* \"#utility.yul\":1793:1919   */\n    tag_47:\n        /* \"#utility.yul\":1830:1837   */\n      0x00\n        /* \"#utility.yul\":1870:1912   */\n      0xffffffffffffffffffffffffffffffffffffffff\n        /* \"#utility.yul\":1863:1868   */\n      dup3\n        /* \"#utility.yul\":1859:1913   */\n      and\n        /* \"#utility.yul\":1848:1913   */\n      swap1\n      pop\n        /* \"#utility.yul\":1793:1919   */\n      swap2\n      swap1\n      pop\n      jump\t// out\n        /* \"#utility.yul\":1925:2021   */\n    tag_48:\n        /* \"#utility.yul\":1962:1969   */\n      0x00\n        /* \"#utility.yul\":1991:2015   */\n      tag_102\n        /* \"#utility.yul\":2009:2014   */\n      dup3\n        /* \"#utility.yul\":1991:2015   */\n      tag_47\n      jump\t// in\n    tag_102:\n        /* \"#utility.yul\":1980:2015   */\n      swap1\n      pop\n        /* \"#utility.yul\":1925:2021   */\n      swap2\n      swap1\n      pop\n      jump\t// out\n        /* \"#utility.yul\":2027:2149   */\n    tag_49:\n        /* \"#utility.yul\":2100:2124   */\n      tag_104\n        /* \"#utility.yul\":2118:2123   */\n      dup2\n        /* \"#utility.yul\":2100:2124   */\n      tag_48\n      jump\t// in\n    tag_104:\n        /* \"#utility.yul\":2093:2098   */\n      dup2\n        /* \"#utility.yul\":2090:2125   */\n      eq\n        /* \"#utility.yul\":2080:2143   */\n      tag_105\n      jumpi\n        /* \"#utility.yul\":2139:2140   */\n      0x00\n        /* \"#utility.yul\":2136:2137   */\n      0x00\n        /* \"#utility.yul\":2129:2141   */\n      revert\n        /* \"#utility.yul\":2080:2143   */\n    tag_105:\n        /* \"#utility.yul\":2027:2149   */\n      pop\n      jump\t// out\n        /* \"#utility.yul\":2155:2294   */\n    tag_50:\n        /* \"#utility.yul\":2201:2206   */\n      0x00\n        /* \"#utility.yul\":2239:2245   */\n      dup2\n        /* \"#utility.yul\":2226:2246   */\n      calldataload\n        /* \"#utility.yul\":2217:2246   */\n      swap1\n      pop\n        /* \"#utility.yul\":2255:2288   */\n      tag_107\n        /* \"#utility.yul\":2282:2287   */\n      dup2\n        /* \"#utility.yul\":2255:2288   */\n      tag_49\n      jump\t// in\n    tag_107:\n        /* \"#utility.yul\":2155:2294   */\n      swap3\n      swap2\n      pop\n      pop\n      jump\t// out\n        /* \"#utility.yul\":2300:2774   */\n    tag_18:\n        /* \"#utility.yul\":2368:2374   */\n      0x00\n        /* \"#utility.yul\":2376:2382   */\n      0x00\n        /* \"#utility.yul\":2425:2427   */\n      0x40\n        /* \"#utility.yul\":2413:2422   */\n      dup4\n        /* \"#utility.yul\":2404:2411   */\n      dup6\n        /* \"#utility.yul\":2400:2423   */\n      sub\n        /* \"#utility.yul\":2396:2428   */\n      slt\n        /* \"#utility.yul\":2393:2512   */\n      iszero\n      tag_109\n      jumpi\n        /* \"#utility.yul\":2431:2510   */\n      tag_110\n      tag_40\n      jump\t// in\n    tag_110:\n        /* \"#utility.yul\":2393:2512   */\n    tag_109:\n        /* \"#utility.yul\":2551:2552   */\n      0x00\n        /* \"#utility.yul\":2576:2629   */\n      tag_111\n        /* \"#utility.yul\":2621:2628   */\n      dup6\n        /* \"#utility.yul\":2612:2618   */\n      dup3\n        /* \"#utility.yul\":2601:2610   */\n      dup7\n        /* \"#utility.yul\":2597:2619   */\n      add\n        /* \"#utility.yul\":2576:2629   */\n      tag_50\n      jump\t// in\n    tag_111:\n        /* \"#utility.yul\":2566:2629   */\n      swap3\n      pop\n        /* \"#utility.yul\":2522:2639   */\n      pop\n        /* \"#utility.yul\":2678:2680   */\n      0x20\n        /* \"#utility.yul\":2704:2757   */\n      tag_112\n        /* \"#utility.yul\":2749:2756   */\n      dup6\n        /* \"#utility.yul\":2740:2746   */\n      dup3\n        /* \"#utility.yul\":2729:2738   */\n      dup7\n        /* \"#utility.yul\":2725:2747   */\n      add\n        /* \"#utility.yul\":2704:2757   */\n      tag_44\n      jump\t// in\n    tag_112:\n        /* \"#utility.yul\":2694:2757   */\n      swap2\n      pop\n        /* \"#utility.yul\":2649:2767   */\n      pop\n        /* \"#utility.yul\":2300:2774   */\n      swap3\n      pop\n      swap3\n      swap1\n      pop\n      jump\t// out\n        /* \"#utility.yul\":2780:2888   */\n    tag_51:\n        /* \"#utility.yul\":2857:2881   */\n      tag_114\n        /* \"#utility.yul\":2875:2880   */\n      dup2\n        /* \"#utility.yul\":2857:2881   */\n      tag_48\n      jump\t// in\n    tag_114:\n        /* \"#utility.yul\":2852:2855   */\n      dup3\n        /* \"#utility.yul\":2845:2882   */\n      mstore\n        /* \"#utility.yul\":2780:2888   */\n      pop\n      pop\n      jump\t// out\n        /* \"#utility.yul\":2894:3002   */\n    tag_52:\n        /* \"#utility.yul\":2971:2995   */\n      tag_116\n        /* \"#utility.yul\":2989:2994   */\n      dup2\n        /* \"#utility.yul\":2971:2995   */\n      tag_42\n      jump\t// in\n    tag_116:\n        /* \"#utility.yul\":2966:2969   */\n      dup3\n        /* \"#utility.yul\":2959:2996   */\n      mstore\n        /* \"#utility.yul\":2894:3002   */\n      pop\n      pop\n      jump\t// out\n        /* \"#utility.yul\":3066:3570   */\n    tag_53:\n        /* \"#utility.yul\":3205:3209   */\n      0x40\n        /* \"#utility.yul\":3200:3203   */\n      dup3\n        /* \"#utility.yul\":3196:3210   */\n      add\n        /* \"#utility.yul\":3295:3299   */\n      0x00\n        /* \"#utility.yul\":3288:3293   */\n      dup3\n        /* \"#utility.yul\":3284:3300   */\n      add\n        /* \"#utility.yul\":3278:3301   */\n      mload\n        /* \"#utility.yul\":3314:3377   */\n      tag_118\n        /* \"#utility.yul\":3371:3375   */\n      0x00\n        /* \"#utility.yul\":3366:3369   */\n      dup6\n        /* \"#utility.yul\":3362:3376   */\n      add\n        /* \"#utility.yul\":3348:3360   */\n      dup3\n        /* \"#utility.yul\":3314:3377   */\n      tag_51\n      jump\t// in\n    tag_118:\n        /* \"#utility.yul\":3220:3387   */\n      pop\n        /* \"#utility.yul\":3471:3475   */\n      0x20\n        /* \"#utility.yul\":3464:3469   */\n      dup3\n        /* \"#utility.yul\":3460:3476   */\n      add\n        /* \"#utility.yul\":3454:3477   */\n      mload\n        /* \"#utility.yul\":3490:3553   */\n      tag_119\n        /* \"#utility.yul\":3547:3551   */\n      0x20\n        /* \"#utility.yul\":3542:3545   */\n      dup6\n        /* \"#utility.yul\":3538:3552   */\n      add\n        /* \"#utility.yul\":3524:3536   */\n      dup3\n        /* \"#utility.yul\":3490:3553   */\n      tag_52\n      jump\t// in\n    tag_119:\n        /* \"#utility.yul\":3397:3563   */\n      pop\n        /* \"#utility.yul\":3174:3570   */\n      pop\n        /* \"#utility.yul\":3066:3570   */\n      pop\n      pop\n      jump\t// out\n        /* \"#utility.yul\":3576:3882   */\n    tag_23:\n        /* \"#utility.yul\":3711:3715   */\n      0x00\n        /* \"#utility.yul\":3749:3751   */\n      0x40\n        /* \"#utility.yul\":3738:3747   */\n      dup3\n        /* \"#utility.yul\":3734:3752   */\n      add\n        /* \"#utility.yul\":3726:3752   */\n      swap1\n      pop\n        /* \"#utility.yul\":3762:3875   */\n      tag_121\n        /* \"#utility.yul\":3872:3873   */\n      0x00\n        /* \"#utility.yul\":3861:3870   */\n      dup4\n        /* \"#utility.yul\":3857:3874   */\n      add\n        /* \"#utility.yul\":3848:3854   */\n      dup5\n        /* \"#utility.yul\":3762:3875   */\n      tag_53\n      jump\t// in\n    tag_121:\n        /* \"#utility.yul\":3576:3882   */\n      swap3\n      swap2\n      pop\n      pop\n      jump\t// out\n        /* \"#utility.yul\":3888:4005   */\n    tag_54:\n        /* \"#utility.yul\":3997:3998   */\n      0x00\n        /* \"#utility.yul\":3994:3995   */\n      0x00\n        /* \"#utility.yul\":3987:3999   */\n      revert\n        /* \"#utility.yul\":4011:4113   */\n    tag_55:\n        /* \"#utility.yul\":4052:4058   */\n      0x00\n        /* \"#utility.yul\":4103:4105   */\n      0x1f\n        /* \"#utility.yul\":4099:4106   */\n      not\n        /* \"#utility.yul\":4094:4096   */\n      0x1f\n        /* \"#utility.yul\":4087:4092   */\n      dup4\n        /* \"#utility.yul\":4083:4097   */\n      add\n        /* \"#utility.yul\":4079:4107   */\n      and\n        /* \"#utility.yul\":4069:4107   */\n      swap1\n      pop\n        /* \"#utility.yul\":4011:4113   */\n      swap2\n      swap1\n      pop\n      jump\t// out\n        /* \"#utility.yul\":4119:4299   */\n    tag_56:\n        /* \"#utility.yul\":4167:4244   */\n      0x4e487b7100000000000000000000000000000000000000000000000000000000\n        /* \"#utility.yul\":4164:4165   */\n      0x00\n        /* \"#utility.yul\":4157:4245   */\n      mstore\n        /* \"#utility.yul\":4264:4268   */\n      0x41\n        /* \"#utility.yul\":4261:4262   */\n      0x04\n        /* \"#utility.yul\":4254:4269   */\n      mstore\n        /* \"#utility.yul\":4288:4292   */\n      0x24\n        /* \"#utility.yul\":4285:4286   */\n      0x00\n        /* \"#utility.yul\":4278:4293   */\n      revert\n        /* \"#utility.yul\":4305:4586   */\n    tag_57:\n        /* \"#utility.yul\":4388:4415   */\n      tag_126\n        /* \"#utility.yul\":4410:4414   */\n      dup3\n        /* \"#utility.yul\":4388:4415   */\n      tag_55\n      jump\t// in\n    tag_126:\n        /* \"#utility.yul\":4380:4386   */\n      dup2\n        /* \"#utility.yul\":4376:4416   */\n      add\n        /* \"#utility.yul\":4518:4524   */\n      dup2\n        /* \"#utility.yul\":4506:4516   */\n      dup2\n        /* \"#utility.yul\":4503:4525   */\n      lt\n        /* \"#utility.yul\":4482:4500   */\n      0xffffffffffffffff\n        /* \"#utility.yul\":4470:4480   */\n      dup3\n        /* \"#utility.yul\":4467:4501   */\n      gt\n        /* \"#utility.yul\":4464:4526   */\n      or\n        /* \"#utility.yul\":4461:4549   */\n      iszero\n      tag_127\n      jumpi\n        /* \"#utility.yul\":4529:4547   */\n      tag_128\n      tag_56\n      jump\t// in\n    tag_128:\n        /* \"#utility.yul\":4461:4549   */\n    tag_127:\n        /* \"#utility.yul\":4569:4579   */\n      dup1\n        /* \"#utility.yul\":4565:4567   */\n      0x40\n        /* \"#utility.yul\":4558:4580   */\n      mstore\n        /* \"#utility.yul\":4348:4586   */\n      pop\n        /* \"#utility.yul\":4305:4586   */\n      pop\n      pop\n      jump\t// out\n        /* \"#utility.yul\":4592:4721   */\n    tag_58:\n        /* \"#utility.yul\":4626:4632   */\n      0x00\n        /* \"#utility.yul\":4653:4673   */\n      tag_130\n      tag_39\n      jump\t// in\n    tag_130:\n        /* \"#utility.yul\":4643:4673   */\n      swap1\n      pop\n        /* \"#utility.yul\":4682:4715   */\n      tag_131\n        /* \"#utility.yul\":4710:4714   */\n      dup3\n        /* \"#utility.yul\":4702:4708   */\n      dup3\n        /* \"#utility.yul\":4682:4715   */\n      tag_57\n      jump\t// in\n    tag_131:\n        /* \"#utility.yul\":4592:4721   */\n      swap2\n      swap1\n      pop\n      jump\t// out\n        /* \"#utility.yul\":4881:5456   */\n    tag_60:\n        /* \"#utility.yul\":4951:4956   */\n      0x00\n        /* \"#utility.yul\":4995:4999   */\n      0x40\n        /* \"#utility.yul\":4983:4992   */\n      dup3\n        /* \"#utility.yul\":4978:4981   */\n      dup5\n        /* \"#utility.yul\":4974:4993   */\n      sub\n        /* \"#utility.yul\":4970:5000   */\n      slt\n        /* \"#utility.yul\":4967:5084   */\n      iszero\n      tag_134\n      jumpi\n        /* \"#utility.yul\":5003:5082   */\n      tag_135\n      tag_54\n      jump\t// in\n    tag_135:\n        /* \"#utility.yul\":4967:5084   */\n    tag_134:\n        /* \"#utility.yul\":5102:5123   */\n      tag_136\n        /* \"#utility.yul\":5118:5122   */\n      0x40\n        /* \"#utility.yul\":5102:5123   */\n      tag_58\n      jump\t// in\n    tag_136:\n        /* \"#utility.yul\":5093:5123   */\n      swap1\n      pop\n        /* \"#utility.yul\":5185:5186   */\n      0x00\n        /* \"#utility.yul\":5225:5274   */\n      tag_137\n        /* \"#utility.yul\":5270:5273   */\n      dup5\n        /* \"#utility.yul\":5261:5267   */\n      dup3\n        /* \"#utility.yul\":5250:5259   */\n      dup6\n        /* \"#utility.yul\":5246:5268   */\n      add\n        /* \"#utility.yul\":5225:5274   */\n      tag_50\n      jump\t// in\n    tag_137:\n        /* \"#utility.yul\":5218:5222   */\n      0x00\n        /* \"#utility.yul\":5211:5216   */\n      dup4\n        /* \"#utility.yul\":5207:5223   */\n      add\n        /* \"#utility.yul\":5200:5275   */\n      mstore\n        /* \"#utility.yul\":5133:5286   */\n      pop\n        /* \"#utility.yul\":5347:5349   */\n      0x20\n        /* \"#utility.yul\":5388:5437   */\n      tag_138\n        /* \"#utility.yul\":5433:5436   */\n      dup5\n        /* \"#utility.yul\":5424:5430   */\n      dup3\n        /* \"#utility.yul\":5413:5422   */\n      dup6\n        /* \"#utility.yul\":5409:5431   */\n      add\n        /* \"#utility.yul\":5388:5437   */\n      tag_44\n      jump\t// in\n    tag_138:\n        /* \"#utility.yul\":5381:5385   */\n      0x20\n        /* \"#utility.yul\":5374:5379   */\n      dup4\n        /* \"#utility.yul\":5370:5386   */\n      add\n        /* \"#utility.yul\":5363:5438   */\n      mstore\n        /* \"#utility.yul\":5296:5449   */\n      pop\n        /* \"#utility.yul\":4881:5456   */\n      swap3\n      swap2\n      pop\n      pop\n      jump\t// out\n        /* \"#utility.yul\":5462:5833   */\n    tag_26:\n        /* \"#utility.yul\":5542:5548   */\n      0x00\n        /* \"#utility.yul\":5591:5593   */\n      0x40\n        /* \"#utility.yul\":5579:5588   */\n      dup3\n        /* \"#utility.yul\":5570:5577   */\n      dup5\n        /* \"#utility.yul\":5566:5589   */\n      sub\n        /* \"#utility.yul\":5562:5594   */\n      slt\n        /* \"#utility.yul\":5559:5678   */\n      iszero\n      tag_140\n      jumpi\n        /* \"#utility.yul\":5597:5676   */\n      tag_141\n      tag_40\n      jump\t// in\n    tag_141:\n        /* \"#utility.yul\":5559:5678   */\n    tag_140:\n        /* \"#utility.yul\":5717:5718   */\n      0x00\n        /* \"#utility.yul\":5742:5816   */\n      tag_142\n        /* \"#utility.yul\":5808:5815   */\n      dup5\n        /* \"#utility.yul\":5799:5805   */\n      dup3\n        /* \"#utility.yul\":5788:5797   */\n      dup6\n        /* \"#utility.yul\":5784:5806   */\n      add\n        /* \"#utility.yul\":5742:5816   */\n      tag_60\n      jump\t// in\n    tag_142:\n        /* \"#utility.yul\":5732:5816   */\n      swap2\n      pop\n        /* \"#utility.yul\":5688:5826   */\n      pop\n        /* \"#utility.yul\":5462:5833   */\n      swap3\n      swap2\n      pop\n      pop\n      jump\t// out\n        /* \"#utility.yul\":6025:6211   */\n    tag_62:\n        /* \"#utility.yul\":6070:6081   */\n      0x00\n        /* \"#utility.yul\":6119:6122   */\n      dup2\n        /* \"#utility.yul\":6106:6123   */\n      calldataload\n        /* \"#utility.yul\":6132:6165   */\n      tag_145\n        /* \"#utility.yul\":6159:6164   */\n      dup2\n        /* \"#utility.yul\":6132:6165   */\n      tag_49\n      jump\t// in\n    tag_145:\n        /* \"#utility.yul\":6199:6204   */\n      dup1\n        /* \"#utility.yul\":6175:6204   */\n      swap2\n      pop\n        /* \"#utility.yul\":6082:6211   */\n      pop\n        /* \"#utility.yul\":6025:6211   */\n      swap2\n      swap1\n      pop\n      jump\t// out\n        /* \"#utility.yul\":6217:6309   */\n    tag_63:\n        /* \"#utility.yul\":6249:6257   */\n      0x00\n        /* \"#utility.yul\":6296:6301   */\n      dup2\n        /* \"#utility.yul\":6293:6294   */\n      0x00\n        /* \"#utility.yul\":6289:6302   */\n      shl\n        /* \"#utility.yul\":6268:6302   */\n      swap1\n      pop\n        /* \"#utility.yul\":6217:6309   */\n      swap2\n      swap1\n      pop\n      jump\t// out\n        /* \"#utility.yul\":6315:6581   */\n    tag_64:\n        /* \"#utility.yul\":6373:6379   */\n      0x00\n        /* \"#utility.yul\":6402:6444   */\n      0xffffffffffffffffffffffffffffffffffffffff\n        /* \"#utility.yul\":6465:6487   */\n      tag_148\n        /* \"#utility.yul\":6478:6486   */\n      dup5\n        /* \"#utility.yul\":6465:6487   */\n      tag_63\n      jump\t// in\n    tag_148:\n        /* \"#utility.yul\":6453:6487   */\n      swap4\n      pop\n        /* \"#utility.yul\":6520:6524   */\n      dup1\n        /* \"#utility.yul\":6516:6525   */\n      not\n        /* \"#utility.yul\":6509:6514   */\n      dup4\n        /* \"#utility.yul\":6505:6526   */\n      and\n        /* \"#utility.yul\":6496:6526   */\n      swap3\n      pop\n        /* \"#utility.yul\":6569:6573   */\n      dup1\n        /* \"#utility.yul\":6559:6567   */\n      dup5\n        /* \"#utility.yul\":6555:6574   */\n      and\n        /* \"#utility.yul\":6548:6553   */\n      dup4\n        /* \"#utility.yul\":6545:6575   */\n      or\n        /* \"#utility.yul\":6535:6575   */\n      swap2\n      pop\n        /* \"#utility.yul\":6380:6581   */\n      pop\n        /* \"#utility.yul\":6315:6581   */\n      swap3\n      swap2\n      pop\n      pop\n      jump\t// out\n        /* \"#utility.yul\":6587:6647   */\n    tag_65:\n        /* \"#utility.yul\":6615:6618   */\n      0x00\n        /* \"#utility.yul\":6636:6641   */\n      dup2\n        /* \"#utility.yul\":6629:6641   */\n      swap1\n      pop\n        /* \"#utility.yul\":6587:6647   */\n      swap2\n      swap1\n      pop\n      jump\t// out\n        /* \"#utility.yul\":6653:6795   */\n    tag_66:\n        /* \"#utility.yul\":6703:6712   */\n      0x00\n        /* \"#utility.yul\":6736:6789   */\n      tag_151\n        /* \"#utility.yul\":6754:6788   */\n      tag_152\n        /* \"#utility.yul\":6763:6787   */\n      tag_153\n        /* \"#utility.yul\":6781:6786   */\n      dup5\n        /* \"#utility.yul\":6763:6787   */\n      tag_47\n      jump\t// in\n    tag_153:\n        /* \"#utility.yul\":6754:6788   */\n      tag_65\n      jump\t// in\n    tag_152:\n        /* \"#utility.yul\":6736:6789   */\n      tag_47\n      jump\t// in\n    tag_151:\n        /* \"#utility.yul\":6723:6789   */\n      swap1\n      pop\n        /* \"#utility.yul\":6653:6795   */\n      swap2\n      swap1\n      pop\n      jump\t// out\n        /* \"#utility.yul\":6801:6927   */\n    tag_67:\n        /* \"#utility.yul\":6851:6860   */\n      0x00\n        /* \"#utility.yul\":6884:6921   */\n      tag_155\n        /* \"#utility.yul\":6915:6920   */\n      dup3\n        /* \"#utility.yul\":6884:6921   */\n      tag_66\n      jump\t// in\n    tag_155:\n        /* \"#utility.yul\":6871:6921   */\n      swap1\n      pop\n        /* \"#utility.yul\":6801:6927   */\n      swap2\n      swap1\n      pop\n      jump\t// out\n        /* \"#utility.yul\":6933:7059   */\n    tag_68:\n        /* \"#utility.yul\":6983:6992   */\n      0x00\n        /* \"#utility.yul\":7016:7053   */\n      tag_157\n        /* \"#utility.yul\":7047:7052   */\n      dup3\n        /* \"#utility.yul\":7016:7053   */\n      tag_67\n      jump\t// in\n    tag_157:\n        /* \"#utility.yul\":7003:7053   */\n      swap1\n      pop\n        /* \"#utility.yul\":6933:7059   */\n      swap2\n      swap1\n      pop\n      jump\t// out\n        /* \"#utility.yul\":7065:7140   */\n    tag_69:\n        /* \"#utility.yul\":7108:7111   */\n      0x00\n        /* \"#utility.yul\":7129:7134   */\n      dup2\n        /* \"#utility.yul\":7122:7134   */\n      swap1\n      pop\n        /* \"#utility.yul\":7065:7140   */\n      swap2\n      swap1\n      pop\n      jump\t// out\n        /* \"#utility.yul\":7146:7409   */\n    tag_70:\n        /* \"#utility.yul\":7257:7296   */\n      tag_160\n        /* \"#utility.yul\":7288:7295   */\n      dup3\n        /* \"#utility.yul\":7257:7296   */\n      tag_68\n      jump\t// in\n    tag_160:\n        /* \"#utility.yul\":7318:7402   */\n      tag_161\n        /* \"#utility.yul\":7360:7401   */\n      tag_162\n        /* \"#utility.yul\":7384:7400   */\n      dup3\n        /* \"#utility.yul\":7360:7401   */\n      tag_69\n      jump\t// in\n    tag_162:\n        /* \"#utility.yul\":7353:7357   */\n      dup4\n        /* \"#utility.yul\":7347:7358   */\n      sload\n        /* \"#utility.yul\":7318:7402   */\n      tag_64\n      jump\t// in\n    tag_161:\n        /* \"#utility.yul\":7312:7316   */\n      dup3\n        /* \"#utility.yul\":7305:7403   */\n      sstore\n        /* \"#utility.yul\":7223:7409   */\n      pop\n        /* \"#utility.yul\":7146:7409   */\n      pop\n      pop\n      jump\t// out\n        /* \"#utility.yul\":7415:7601   */\n    tag_71:\n        /* \"#utility.yul\":7460:7471   */\n      0x00\n        /* \"#utility.yul\":7509:7512   */\n      dup2\n        /* \"#utility.yul\":7496:7513   */\n      calldataload\n        /* \"#utility.yul\":7522:7555   */\n      tag_164\n        /* \"#utility.yul\":7549:7554   */\n      dup2\n        /* \"#utility.yul\":7522:7555   */\n      tag_43\n      jump\t// in\n    tag_164:\n        /* \"#utility.yul\":7589:7594   */\n      dup1\n        /* \"#utility.yul\":7565:7594   */\n      swap2\n      pop\n        /* \"#utility.yul\":7472:7601   */\n      pop\n        /* \"#utility.yul\":7415:7601   */\n      swap2\n      swap1\n      pop\n      jump\t// out\n        /* \"#utility.yul\":7607:7897   */\n    tag_72:\n        /* \"#utility.yul\":7665:7671   */\n      0x00\n        /* \"#utility.yul\":7694:7760   */\n      0xffffffffffffffffffffffffffffffffffffffffffffffffffffffffffffffff\n        /* \"#utility.yul\":7781:7803   */\n      tag_166\n        /* \"#utility.yul\":7794:7802   */\n      dup5\n        /* \"#utility.yul\":7781:7803   */\n      tag_63\n      jump\t// in\n    tag_166:\n        /* \"#utility.yul\":7769:7803   */\n      swap4\n      pop\n        /* \"#utility.yul\":7836:7840   */\n      dup1\n        /* \"#utility.yul\":7832:7841   */\n      not\n        /* \"#utility.yul\":7825:7830   */\n      dup4\n        /* \"#utility.yul\":7821:7842   */\n      and\n        /* \"#utility.yul\":7812:7842   */\n      swap3\n      pop\n        /* \"#utility.yul\":7885:7889   */\n      dup1\n        /* \"#utility.yul\":7875:7883   */\n      dup5\n        /* \"#utility.yul\":7871:7890   */\n      and\n        /* \"#utility.yul\":7864:7869   */\n      dup4\n        /* \"#utility.yul\":7861:7891   */\n      or\n        /* \"#utility.yul\":7851:7891   */\n      swap2\n      pop\n        /* \"#utility.yul\":7672:7897   */\n      pop\n        /* \"#utility.yul\":7607:7897   */\n      swap3\n      swap2\n      pop\n      pop\n      jump\t// out\n        /* \"#utility.yul\":7903:8045   */\n    tag_73:\n        /* \"#utility.yul\":7953:7962   */\n      0x00\n        /* \"#utility.yul\":7986:8039   */\n      tag_168\n        /* \"#utility.yul\":8004:8038   */\n      tag_169\n        /* \"#utility.yul\":8013:8037   */\n      tag_170\n        /* \"#utility.yul\":8031:8036   */\n      dup5\n        /* \"#utility.yul\":8013:8037   */\n      tag_42\n      jump\t// in\n    tag_170:\n        /* \"#utility.yul\":8004:8038   */\n      tag_65\n      jump\t// in\n    tag_169:\n        /* \"#utility.yul\":7986:8039   */\n      tag_42\n      jump\t// in\n    tag_168:\n        /* \"#utility.yul\":7973:8039   */\n      swap1\n      pop\n        /* \"#utility.yul\":7903:8045   */\n      swap2\n      swap1\n      pop\n      jump\t// out\n        /* \"#utility.yul\":8051:8126   */\n    tag_74:\n        /* \"#utility.yul\":8094:8097   */\n      0x00\n        /* \"#utility.yul\":8115:8120   */\n      dup2\n        /* \"#utility.yul\":8108:8120   */\n      swap1\n      pop\n        /* \"#utility.yul\":8051:8126   */\n      swap2\n      swap1\n      pop\n      jump\t// out\n        /* \"#utility.yul\":8132:8395   */\n    tag_75:\n        /* \"#utility.yul\":8243:8282   */\n      tag_173\n        /* \"#utility.yul\":8274:8281   */\n      dup3\n        /* \"#utility.yul\":8243:8282   */\n      tag_73\n      jump\t// in\n    tag_173:\n        /* \"#utility.yul\":8304:8388   */\n      tag_174\n        /* \"#utility.yul\":8346:8387   */\n      tag_175\n        /* \"#utility.yul\":8370:8386   */\n      dup3\n        /* \"#utility.yul\":8346:8387   */\n      tag_74\n      jump\t// in\n    tag_175:\n        /* \"#utility.yul\":8339:8343   */\n      dup4\n        /* \"#utility.yul\":8333:8344   */\n      sload\n        /* \"#utility.yul\":8304:8388   */\n      tag_72\n      jump\t// in\n    tag_174:\n        /* \"#utility.yul\":8298:8302   */\n      dup3\n        /* \"#utility.yul\":8291:8389   */\n      sstore\n        /* \"#utility.yul\":8209:8395   */\n      pop\n        /* \"#utility.yul\":8132:8395   */\n      pop\n      pop\n      jump\t// out\n        /* \"#utility.yul\":8401:9200   */\n    tag_76:\n        /* \"#utility.yul\":8569:8570   */\n      0x00\n        /* \"#utility.yul\":8563:8567   */\n      dup2\n        /* \"#utility.yul\":8559:8571   */\n      add\n        /* \"#utility.yul\":8615:8616   */\n      0x00\n        /* \"#utility.yul\":8608:8613   */\n      dup4\n        /* \"#utility.yul\":8604:8617   */\n      add\n        /* \"#utility.yul\":8665:8677   */\n      dup1\n        /* \"#utility.yul\":8708:8750   */\n      tag_177\n        /* \"#utility.yul\":8736:8749   */\n      dup2\n        /* \"#utility.yul\":8708:8750   */\n      tag_62\n      jump\t// in\n    tag_177:\n        /* \"#utility.yul\":8691:8750   */\n      swap1\n      pop\n        /* \"#utility.yul\":8764:8843   */\n      tag_178\n        /* \"#utility.yul\":8829:8842   */\n      dup2\n        /* \"#utility.yul\":8817:8827   */\n      dup5\n        /* \"#utility.yul\":8764:8843   */\n      tag_70\n      jump\t// in\n    tag_178:\n        /* \"#utility.yul\":8526:8854   */\n      pop\n      pop\n      pop\n        /* \"#utility.yul\":8907:8908   */\n      0x01\n        /* \"#utility.yul\":8901:8905   */\n      dup2\n        /* \"#utility.yul\":8897:8909   */\n      add\n        /* \"#utility.yul\":8953:8955   */\n      0x20\n        /* \"#utility.yul\":8946:8951   */\n      dup4\n        /* \"#utility.yul\":8942:8956   */\n      add\n        /* \"#utility.yul\":9004:9016   */\n      dup1\n        /* \"#utility.yul\":9047:9089   */\n      tag_179\n        /* \"#utility.yul\":9075:9088   */\n      dup2\n        /* \"#utility.yul\":9047:9089   */\n      tag_71\n      jump\t// in\n    tag_179:\n        /* \"#utility.yul\":9030:9089   */\n      swap1\n      pop\n        /* \"#utility.yul\":9103:9182   */\n      tag_180\n        /* \"#utility.yul\":9168:9181   */\n      dup2\n        /* \"#utility.yul\":9156:9166   */\n      dup5\n        /* \"#utility.yul\":9103:9182   */\n      tag_75\n      jump\t// in\n    tag_180:\n        /* \"#utility.yul\":8864:9193   */\n      pop\n      pop\n      pop\n        /* \"#utility.yul\":8401:9200   */\n      pop\n      pop\n      jump\t// out\n        /* \"#utility.yul\":9206:9447   */\n    tag_31:\n        /* \"#utility.yul\":9335:9441   */\n      tag_182\n        /* \"#utility.yul\":9433:9440   */\n      dup3\n        /* \"#utility.yul\":9427:9431   */\n      dup3\n        /* \"#utility.yul\":9335:9441   */\n      tag_76\n      jump\t// in\n    tag_182:\n        /* \"#utility.yul\":9206:9447   */\n      pop\n      pop\n      jump\t// out\n        /* \"#utility.yul\":9453:9633   */\n    tag_77:\n        /* \"#utility.yul\":9501:9578   */\n      0x4e487b7100000000000000000000000000000000000000000000000000000000\n        /* \"#utility.yul\":9498:9499   */\n      0x00\n        /* \"#utility.yul\":9491:9579   */\n      mstore\n        /* \"#utility.yul\":9598:9602   */\n      0x11\n        /* \"#utility.yul\":9595:9596   */\n      0x04\n        /* \"#utility.yul\":9588:9603   */\n      mstore\n        /* \"#utility.yul\":9622:9626   */\n      0x24\n        /* \"#utility.yul\":9619:9620   */\n      0x00\n        /* \"#utility.yul\":9612:9627   */\n      revert\n        /* \"#utility.yul\":9639:10049   */\n    tag_38:\n        /* \"#utility.yul\":9679:9686   */\n      0x00\n        /* \"#utility.yul\":9702:9722   */\n      tag_185\n        /* \"#utility.yul\":9720:9721   */\n      dup3\n        /* \"#utility.yul\":9702:9722   */\n      tag_42\n      jump\t// in\n    tag_185:\n        /* \"#utility.yul\":9697:9722   */\n      swap2\n      pop\n        /* \"#utility.yul\":9736:9756   */\n      tag_186\n        /* \"#utility.yul\":9754:9755   */\n      dup4\n        /* \"#utility.yul\":9736:9756   */\n      tag_42\n      jump\t// in\n    tag_186:\n        /* \"#utility.yul\":9731:9756   */\n      swap3\n      pop\n        /* \"#utility.yul\":9791:9792   */\n      dup3\n        /* \"#utility.yul\":9788:9789   */\n      dup3\n        /* \"#utility.yul\":9784:9793   */\n      mul\n        /* \"#utility.yul\":9813:9843   */\n      tag_187\n        /* \"#utility.yul\":9831:9842   */\n      dup2\n        /* \"#utility.yul\":9813:9843   */\n      tag_42\n      jump\t// in\n    tag_187:\n        /* \"#utility.yul\":9802:9843   */\n      swap2\n      pop\n        /* \"#utility.yul\":9992:9993   */\n      dup3\n        /* \"#utility.yul\":9983:9990   */\n      dup3\n        /* \"#utility.yul\":9979:9994   */\n      div\n        /* \"#utility.yul\":9976:9977   */\n      dup5\n        /* \"#utility.yul\":9973:9995   */\n      eq\n        /* \"#utility.yul\":9953:9954   */\n      dup4\n        /* \"#utility.yul\":9946:9955   */\n      iszero\n        /* \"#utility.yul\":9926:10009   */\n      or\n        /* \"#utility.yul\":9903:10042   */\n      tag_188\n      jumpi\n        /* \"#utility.yul\":10022:10040   */\n      tag_189\n      tag_77\n      jump\t// in\n    tag_189:\n        /* \"#utility.yul\":9903:10042   */\n    tag_188:\n        /* \"#utility.yul\":9687:10049   */\n      pop\n        /* \"#utility.yul\":9639:10049   */\n      swap3\n      swap2\n      pop\n      pop\n      jump\t// out\n\n    auxdata: 0xa2646970667358221220ffa3b82e7ed379ebcab264c734f3e6d3c4374f59534f438d4e3f955ced201a4264736f6c634300081e0033\n}\n",
				"bytecode": {
					"linkReferences": {},
					"object": "6080604052348015600e575f5ffd5b5061082f8061001c5f395ff3fe608060405234801561000f575f5ffd5b5060043610610055575f3560e01c8063271f88b41461005957806338477cd01461007557806364abe4b8146100915780636d4ce63c146100ad5780636ec30ca1146100cb575b5f5ffd5b610073600480360381019061006e9190610351565b6100e7565b005b61008f600480360381019061008a919061039e565b610167565b005b6100ab60048036038101906100a69190610423565b61017b565b005b6100b56101fc565b6040516100c291906104ac565b60405180910390f35b6100e560048036038101906100e0919061059e565b610273565b005b60405180604001604052803373ffffffffffffffffffffffffffffffffffffffff168152602001828152505f5f820151815f015f6101000a81548173ffffffffffffffffffffffffffffffffffffffff021916908373ffffffffffffffffffffffffffffffffffffffff1602179055506020820151816001015590505050565b805f8181610175919061077d565b90505050565b60405180604001604052808373ffffffffffffffffffffffffffffffffffffffff168152602001828152505f5f820151815f015f6101000a81548173ffffffffffffffffffffffffffffffffffffffff021916908373ffffffffffffffffffffffffffffffffffffffff160217905550602082015181600101559050505050565b6102046102e3565b5f6040518060400160405290815f82015f9054906101000a900473ffffffffffffffffffffffffffffffffffffffff1673ffffffffffffffffffffffffffffffffffffffff1673ffffffffffffffffffffffffffffffffffffffff168152602001600182015481525050905090565b600a8160200181815161028691906107b8565b91508181525050805f5f820151815f015f6101000a81548173ffffffffffffffffffffffffffffffffffffffff021916908373ffffffffffffffffffffffffffffffffffffffff1602179055506020820151816001015590505050565b60405180604001604052805f73ffffffffffffffffffffffffffffffffffffffff1681526020015f81525090565b5f604051905090565b5f5ffd5b5f819050919050565b6103308161031e565b811461033a575f5ffd5b50565b5f8135905061034b81610327565b92915050565b5f602082840312156103665761036561031a565b5b5f6103738482850161033d565b91505092915050565b5f5ffd5b5f604082840312156103955761039461037c565b5b81905092915050565b5f604082840312156103b3576103b261031a565b5b5f6103c084828501610380565b91505092915050565b5f73ffffffffffffffffffffffffffffffffffffffff82169050919050565b5f6103f2826103c9565b9050919050565b610402816103e8565b811461040c575f5ffd5b50565b5f8135905061041d816103f9565b92915050565b5f5f604083850312156104395761043861031a565b5b5f6104468582860161040f565b92505060206104578582860161033d565b9150509250929050565b61046a816103e8565b82525050565b6104798161031e565b82525050565b604082015f8201516104935f850182610461565b5060208201516104a66020850182610470565b50505050565b5f6040820190506104bf5f83018461047f565b92915050565b5f5ffd5b5f601f19601f8301169050919050565b7f4e487b71000000000000000000000000000000000000000000000000000000005f52604160045260245ffd5b61050f826104c9565b810181811067ffffffffffffffff8211171561052e5761052d6104d9565b5b80604052505050565b5f610540610311565b905061054c8282610506565b919050565b5f60408284031215610566576105656104c5565b5b6105706040610537565b90505f61057f8482850161040f565b5f8301525060206105928482850161033d565b60208301525092915050565b5f604082840312156105b3576105b261031a565b5b5f6105c084828501610551565b91505092915050565b5f81356105d5816103f9565b80915050919050565b5f815f1b9050919050565b5f73ffffffffffffffffffffffffffffffffffffffff610608846105de565b9350801983169250808416831791505092915050565b5f819050919050565b5f61064161063c610637846103c9565b61061e565b6103c9565b9050919050565b5f61065282610627565b9050919050565b5f61066382610648565b9050919050565b5f819050919050565b61067c82610659565b61068f6106888261066a565b83546105e9565b8255505050565b5f81356106a281610327565b80915050919050565b5f7fffffffffffffffffffffffffffffffffffffffffffffffffffffffffffffffff6106d6846105de565b9350801983169250808416831791505092915050565b5f6107066107016106fc8461031e565b61061e565b61031e565b9050919050565b5f819050919050565b61071f826106ec565b61073261072b8261070d565b83546106ab565b8255505050565b5f81015f830180610749816105c9565b90506107558184610673565b50505060018101602083018061076a81610696565b90506107768184610716565b5050505050565b6107878282610739565b5050565b7f4e487b71000000000000000000000000000000000000000000000000000000005f52601160045260245ffd5b5f6107c28261031e565b91506107cd8361031e565b92508282026107db8161031e565b915082820484148315176107f2576107f161078b565b5b509291505056fea2646970667358221220ffa3b82e7ed379ebcab264c734f3e6d3c4374f59534f438d4e3f955ced201a4264736f6c634300081e0033",
					"opcodes": "PUSH1 0x80 PUSH1 0x40 MSTORE CALLVALUE DUP1 ISZERO PUSH1 0xE JUMPI PUSH0 PUSH0 REVERT JUMPDEST POP PUSH2 0x82F DUP1 PUSH2 0x1C PUSH0 CODECOPY PUSH0 RETURN INVALID PUSH1 0x80 PUSH1 0x40 MSTORE CALLVALUE DUP1 ISZERO PUSH2 0xF JUMPI PUSH0 PUSH0 REVERT JUMPDEST POP PUSH1 0x4 CALLDATASIZE LT PUSH2 0x55 JUMPI PUSH0 CALLDATALOAD PUSH1 0xE0 SHR DUP1 PUSH4 0x271F88B4 EQ PUSH2 0x59 JUMPI DUP1 PUSH4 0x38477CD0 EQ PUSH2 0x75 JUMPI DUP1 PUSH4 0x64ABE4B8 EQ PUSH2 0x91 JUMPI DUP1 PUSH4 0x6D4CE63C EQ PUSH2 0xAD JUMPI DUP1 PUSH4 0x6EC30CA1 EQ PUSH2 0xCB JUMPI JUMPDEST PUSH0 PUSH0 REVERT JUMPDEST PUSH2 0x73 PUSH1 0x4 DUP1 CALLDATASIZE SUB DUP2 ADD SWAP1 PUSH2 0x6E SWAP2 SWAP1 PUSH2 0x351 JUMP JUMPDEST PUSH2 0xE7 JUMP JUMPDEST STOP JUMPDEST PUSH2 0x8F PUSH1 0x4 DUP1 CALLDATASIZE SUB DUP2 ADD SWAP1 PUSH2 0x8A SWAP2 SWAP1 PUSH2 0x39E JUMP JUMPDEST PUSH2 0x167 JUMP JUMPDEST STOP JUMPDEST PUSH2 0xAB PUSH1 0x4 DUP1 CALLDATASIZE SUB DUP2 ADD SWAP1 PUSH2 0xA6 SWAP2 SWAP1 PUSH2 0x423 JUMP JUMPDEST PUSH2 0x17B JUMP JUMPDEST STOP JUMPDEST PUSH2 0xB5 PUSH2 0x1FC JUMP JUMPDEST PUSH1 0x40 MLOAD PUSH2 0xC2 SWAP2 SWAP1 PUSH2 0x4AC JUMP JUMPDEST PUSH1 0x40 MLOAD DUP1 SWAP2 SUB SWAP1 RETURN JUMPDEST PUSH2 0xE5 PUSH1 0x4 DUP1 CALLDATASIZE SUB DUP2 ADD SWAP1 PUSH2 0xE0 SWAP2 SWAP1 PUSH2 0x59E JUMP JUMPDEST PUSH2 0x273 JUMP JUMPDEST STOP JUMPDEST PUSH1 0x40 MLOAD DUP1 PUSH1 0x40 ADD PUSH1 0x40 MSTORE DUP1 CALLER PUSH20 0xFFFFFFFFFFFFFFFFFFFFFFFFFFFFFFFFFFFFFFFF AND DUP2 MSTORE PUSH1 0x20 ADD DUP3 DUP2 MSTORE POP PUSH0 PUSH0 DUP3 ADD MLOAD DUP2 PUSH0 ADD PUSH0 PUSH2 0x100 EXP DUP2 SLOAD DUP2 PUSH20 0xFFFFFFFFFFFFFFFFFFFFFFFFFFFFFFFFFFFFFFFF MUL NOT AND SWAP1 DUP4 PUSH20 0xFFFFFFFFFFFFFFFFFFFFFFFFFFFFFFFFFFFFFFFF AND MUL OR SWAP1 SSTORE POP PUSH1 0x20 DUP3 ADD MLOAD DUP2 PUSH1 0x1 ADD SSTORE SWAP1 POP POP POP JUMP JUMPDEST DUP1 PUSH0 DUP2 DUP2 PUSH2 0x175 SWAP2 SWAP1 PUSH2 0x77D JUMP JUMPDEST SWAP1 POP POP POP JUMP JUMPDEST PUSH1 0x40 MLOAD DUP1 PUSH1 0x40 ADD PUSH1 0x40 MSTORE DUP1 DUP4 PUSH20 0xFFFFFFFFFFFFFFFFFFFFFFFFFFFFFFFFFFFFFFFF AND DUP2 MSTORE PUSH1 0x20 ADD DUP3 DUP2 MSTORE POP PUSH0 PUSH0 DUP3 ADD MLOAD DUP2 PUSH0 ADD PUSH0 PUSH2 0x100 EXP DUP2 SLOAD DUP2 PUSH20 0xFFFFFFFFFFFFFFFFFFFFFFFFFFFFFFFFFFFFFFFF MUL NOT AND SWAP1 DUP4 PUSH20 0xFFFFFFFFFFFFFFFFFFFFFFFFFFFFFFFFFFFFFFFF AND MUL OR SWAP1 SSTORE POP PUSH1 0x20 DUP3 ADD MLOAD DUP2 PUSH1 0x1 ADD SSTORE SWAP1 POP POP POP POP JUMP JUMPDEST PUSH2 0x204 PUSH2 0x2E3 JUMP JUMPDEST PUSH0 PUSH1 0x40 MLOAD DUP1 PUSH1 0x40 ADD PUSH1 0x40 MSTORE SWAP1 DUP2 PUSH0 DUP3 ADD PUSH0 SWAP1 SLOAD SWAP1 PUSH2 0x100 EXP SWAP1 DIV PUSH20 0xFFFFFFFFFFFFFFFFFFFFFFFFFFFFFFFFFFFFFFFF AND PUSH20 0xFFFFFFFFFFFFFFFFFFFFFFFFFFFFFFFFFFFFFFFF AND PUSH20 0xFFFFFFFFFFFFFFFFFFFFFFFFFFFFFFFFFFFFFFFF AND DUP2 MSTORE PUSH1 0x20 ADD PUSH1 0x1 DUP3 ADD SLOAD DUP2 MSTORE POP POP SWAP1 POP SWAP1 JUMP JUMPDEST PUSH1 0xA DUP2 PUSH1 0x20 ADD DUP2 DUP2 MLOAD PUSH2 0x286 SWAP2 SWAP1 PUSH2 0x7B8 JUMP JUMPDEST SWAP2 POP DUP2 DUP2 MSTORE POP POP DUP1 PUSH0 PUSH0 DUP3 ADD MLOAD DUP2 PUSH0 ADD PUSH0 PUSH2 0x100 EXP DUP2 SLOAD DUP2 PUSH20 0xFFFFFFFFFFFFFFFFFFFFFFFFFFFFFFFFFFFFFFFF MUL NOT AND SWAP1 DUP4 PUSH20 0xFFFFFFFFFFFFFFFFFFFFFFFFFFFFFFFFFFFFFFFF AND MUL OR SWAP1 SSTORE POP PUSH1 0x20 DUP3 ADD MLOAD DUP2 PUSH1 0x1 ADD SSTORE SWAP1 POP POP POP JUMP JUMPDEST PUSH1 0x40 MLOAD DUP1 PUSH1 0x40 ADD PUSH1 0x40 MSTORE DUP1 PUSH0 PUSH20 0xFFFFFFFFFFFFFFFFFFFFFFFFFFFFFFFFFFFFFFFF AND DUP2 MSTORE PUSH1 0x20 ADD PUSH0 DUP2 MSTORE POP SWAP1 JUMP JUMPDEST PUSH0 PUSH1 0x40 MLOAD SWAP1 POP SWAP1 JUMP JUMPDEST PUSH0 PUSH0 REVERT JUMPDEST PUSH0 DUP2 SWAP1 POP SWAP2 SWAP1 POP JUMP JUMPDEST PUSH2 0x330 DUP2 PUSH2 0x31E JUMP JUMPDEST DUP2 EQ PUSH2 0x33A JUMPI PUSH0 PUSH0 REVERT JUMPDEST POP JUMP JUMPDEST PUSH0 DUP2 CALLDATALOAD SWAP1 POP PUSH2 0x34B DUP2 PUSH2 0x327 JUMP JUMPDEST SWAP3 SWAP2 POP POP JUMP JUMPDEST PUSH0 PUSH1 0x20 DUP3 DUP5 SUB SLT ISZERO PUSH2 0x366 JUMPI PUSH2 0x365 PUSH2 0x31A JUMP JUMPDEST JUMPDEST PUSH0 PUSH2 0x373 DUP5 DUP3 DUP6 ADD PUSH2 0x33D JUMP JUMPDEST SWAP2 POP POP SWAP3 SWAP2 POP POP JUMP JUMPDEST PUSH0 PUSH0 REVERT JUMPDEST PUSH0 PUSH1 0x40 DUP3 DUP5 SUB SLT ISZERO PUSH2 0x395 JUMPI PUSH2 0x394 PUSH2 0x37C JUMP JUMPDEST JUMPDEST DUP2 SWAP1 POP SWAP3 SWAP2 POP POP JUMP JUMPDEST PUSH0 PUSH1 0x40 DUP3 DUP5 SUB SLT ISZERO PUSH2 0x3B3 JUMPI PUSH2 0x3B2 PUSH2 0x31A JUMP JUMPDEST JUMPDEST PUSH0 PUSH2 0x3C0 DUP5 DUP3 DUP6 ADD PUSH2 0x380 JUMP JUMPDEST SWAP2 POP POP SWAP3 SWAP2 POP POP JUMP JUMPDEST PUSH0 PUSH20 0xFFFFFFFFFFFFFFFFFFFFFFFFFFFFFFFFFFFFFFFF DUP3 AND SWAP1 POP SWAP2 SWAP1 POP JUMP JUMPDEST PUSH0 PUSH2 0x3F2 DUP3 PUSH2 0x3C9 JUMP JUMPDEST SWAP1 POP SWAP2 SWAP1 POP JUMP JUMPDEST PUSH2 0x402 DUP2 PUSH2 0x3E8 JUMP JUMPDEST DUP2 EQ PUSH2 0x40C JUMPI PUSH0 PUSH0 REVERT JUMPDEST POP JUMP JUMPDEST PUSH0 DUP2 CALLDATALOAD SWAP1 POP PUSH2 0x41D DUP2 PUSH2 0x3F9 JUMP JUMPDEST SWAP3 SWAP2 POP POP JUMP JUMPDEST PUSH0 PUSH0 PUSH1 0x40 DUP4 DUP6 SUB SLT ISZERO PUSH2 0x439 JUMPI PUSH2 0x438 PUSH2 0x31A JUMP JUMPDEST JUMPDEST PUSH0 PUSH2 0x446 DUP6 DUP3 DUP7 ADD PUSH2 0x40F JUMP JUMPDEST SWAP3 POP POP PUSH1 0x20 PUSH2 0x457 DUP6 DUP3 DUP7 ADD PUSH2 0x33D JUMP JUMPDEST SWAP2 POP POP SWAP3 POP SWAP3 SWAP1 POP JUMP JUMPDEST PUSH2 0x46A DUP2 PUSH2 0x3E8 JUMP JUMPDEST DUP3 MSTORE POP POP JUMP JUMPDEST PUSH2 0x479 DUP2 PUSH2 0x31E JUMP JUMPDEST DUP3 MSTORE POP POP JUMP JUMPDEST PUSH1 0x40 DUP3 ADD PUSH0 DUP3 ADD MLOAD PUSH2 0x493 PUSH0 DUP6 ADD DUP3 PUSH2 0x461 JUMP JUMPDEST POP PUSH1 0x20 DUP3 ADD MLOAD PUSH2 0x4A6 PUSH1 0x20 DUP6 ADD DUP3 PUSH2 0x470 JUMP JUMPDEST POP POP POP POP JUMP JUMPDEST PUSH0 PUSH1 0x40 DUP3 ADD SWAP1 POP PUSH2 0x4BF PUSH0 DUP4 ADD DUP5 PUSH2 0x47F JUMP JUMPDEST SWAP3 SWAP2 POP POP JUMP JUMPDEST PUSH0 PUSH0 REVERT JUMPDEST PUSH0 PUSH1 0x1F NOT PUSH1 0x1F DUP4 ADD AND SWAP1 POP SWAP2 SWAP1 POP JUMP JUMPDEST PUSH32 0x4E487B7100000000000000000000000000000000000000000000000000000000 PUSH0 MSTORE PUSH1 0x41 PUSH1 0x4 MSTORE PUSH1 0x24 PUSH0 REVERT JUMPDEST PUSH2 0x50F DUP3 PUSH2 0x4C9 JUMP JUMPDEST DUP2 ADD DUP2 DUP2 LT PUSH8 0xFFFFFFFFFFFFFFFF DUP3 GT OR ISZERO PUSH2 0x52E JUMPI PUSH2 0x52D PUSH2 0x4D9 JUMP JUMPDEST JUMPDEST DUP1 PUSH1 0x40 MSTORE POP POP POP JUMP JUMPDEST PUSH0 PUSH2 0x540 PUSH2 0x311 JUMP JUMPDEST SWAP1 POP PUSH2 0x54C DUP3 DUP3 PUSH2 0x506 JUMP JUMPDEST SWAP2 SWAP1 POP JUMP JUMPDEST PUSH0 PUSH1 0x40 DUP3 DUP5 SUB SLT ISZERO PUSH2 0x566 JUMPI PUSH2 0x565 PUSH2 0x4C5 JUMP JUMPDEST JUMPDEST PUSH2 0x570 PUSH1 0x40 PUSH2 0x537 JUMP JUMPDEST SWAP1 POP PUSH0 PUSH2 0x57F DUP5 DUP3 DUP6 ADD PUSH2 0x40F JUMP JUMPDEST PUSH0 DUP4 ADD MSTORE POP PUSH1 0x20 PUSH2 0x592 DUP5 DUP3 DUP6 ADD PUSH2 0x33D JUMP JUMPDEST PUSH1 0x20 DUP4 ADD MSTORE POP SWAP3 SWAP2 POP POP JUMP JUMPDEST PUSH0 PUSH1 0x40 DUP3 DUP5 SUB SLT ISZERO PUSH2 0x5B3 JUMPI PUSH2 0x5B2 PUSH2 0x31A JUMP JUMPDEST JUMPDEST PUSH0 PUSH2 0x5C0 DUP5 DUP3 DUP6 ADD PUSH2 0x551 JUMP JUMPDEST SWAP2 POP POP SWAP3 SWAP2 POP POP JUMP JUMPDEST PUSH0 DUP2 CALLDATALOAD PUSH2 0x5D5 DUP2 PUSH2 0x3F9 JUMP JUMPDEST DUP1 SWAP2 POP POP SWAP2 SWAP1 POP JUMP JUMPDEST PUSH0 DUP2 PUSH0 SHL SWAP1 POP SWAP2 SWAP1 POP JUMP JUMPDEST PUSH0 PUSH20 0xFFFFFFFFFFFFFFFFFFFFFFFFFFFFFFFFFFFFFFFF PUSH2 0x608 DUP5 PUSH2 0x5DE JUMP JUMPDEST SWAP4 POP DUP1 NOT DUP4 AND SWAP3 POP DUP1 DUP5 AND DUP4 OR SWAP2 POP POP SWAP3 SWAP2 POP POP JUMP JUMPDEST PUSH0 DUP2 SWAP1 POP SWAP2 SWAP1 POP JUMP JUMPDEST PUSH0 PUSH2 0x641 PUSH2 0x63C PUSH2 0x637 DUP5 PUSH2 0x3C9 JUMP JUMPDEST PUSH2 0x61E JUMP JUMPDEST PUSH2 0x3C9 JUMP JUMPDEST SWAP1 POP SWAP2 SWAP1 POP JUMP JUMPDEST PUSH0 PUSH2 0x652 DUP3 PUSH2 0x627 JUMP JUMPDEST SWAP1 POP SWAP2 SWAP1 POP JUMP JUMPDEST PUSH0 PUSH2 0x663 DUP3 PUSH2 0x648 JUMP JUMPDEST SWAP1 POP SWAP2 SWAP1 POP JUMP JUMPDEST PUSH0 DUP2 SWAP1 POP SWAP2 SWAP1 POP JUMP JUMPDEST PUSH2 0x67C DUP3 PUSH2 0x659 JUMP JUMPDEST PUSH2 0x68F PUSH2 0x688 DUP3 PUSH2 0x66A JUMP JUMPDEST DUP4 SLOAD PUSH2 0x5E9 JUMP JUMPDEST DUP3 SSTORE POP POP POP JUMP JUMPDEST PUSH0 DUP2 CALLDATALOAD PUSH2 0x6A2 DUP2 PUSH2 0x327 JUMP JUMPDEST DUP1 SWAP2 POP POP SWAP2 SWAP1 POP JUMP JUMPDEST PUSH0 PUSH32 0xFFFFFFFFFFFFFFFFFFFFFFFFFFFFFFFFFFFFFFFFFFFFFFFFFFFFFFFFFFFFFFFF PUSH2 0x6D6 DUP5 PUSH2 0x5DE JUMP JUMPDEST SWAP4 POP DUP1 NOT DUP4 AND SWAP3 POP DUP1 DUP5 AND DUP4 OR SWAP2 POP POP SWAP3 SWAP2 POP POP JUMP JUMPDEST PUSH0 PUSH2 0x706 PUSH2 0x701 PUSH2 0x6FC DUP5 PUSH2 0x31E JUMP JUMPDEST PUSH2 0x61E JUMP JUMPDEST PUSH2 0x31E JUMP JUMPDEST SWAP1 POP SWAP2 SWAP1 POP JUMP JUMPDEST PUSH0 DUP2 SWAP1 POP SWAP2 SWAP1 POP JUMP JUMPDEST PUSH2 0x71F DUP3 PUSH2 0x6EC JUMP JUMPDEST PUSH2 0x732 PUSH2 0x72B DUP3 PUSH2 0x70D JUMP JUMPDEST DUP4 SLOAD PUSH2 0x6AB JUMP JUMPDEST DUP3 SSTORE POP POP POP JUMP JUMPDEST PUSH0 DUP2 ADD PUSH0 DUP4 ADD DUP1 PUSH2 0x749 DUP2 PUSH2 0x5C9 JUMP JUMPDEST SWAP1 POP PUSH2 0x755 DUP2 DUP5 PUSH2 0x673 JUMP JUMPDEST POP POP POP PUSH1 0x1 DUP2 ADD PUSH1 0x20 DUP4 ADD DUP1 PUSH2 0x76A DUP2 PUSH2 0x696 JUMP JUMPDEST SWAP1 POP PUSH2 0x776 DUP2 DUP5 PUSH2 0x716 JUMP JUMPDEST POP POP POP POP POP JUMP JUMPDEST PUSH2 0x787 DUP3 DUP3 PUSH2 0x739 JUMP JUMPDEST POP POP JUMP JUMPDEST PUSH32 0x4E487B7100000000000000000000000000000000000000000000000000000000 PUSH0 MSTORE PUSH1 0x11 PUSH1 0x4 MSTORE PUSH1 0x24 PUSH0 REVERT JUMPDEST PUSH0 PUSH2 0x7C2 DUP3 PUSH2 0x31E JUMP JUMPDEST SWAP2 POP PUSH2 0x7CD DUP4 PUSH2 0x31E JUMP JUMPDEST SWAP3 POP DUP3 DUP3 MUL PUSH2 0x7DB DUP2 PUSH2 0x31E JUMP JUMPDEST SWAP2 POP DUP3 DUP3 DIV DUP5 EQ DUP4 ISZERO OR PUSH2 0x7F2 JUMPI PUSH2 0x7F1 PUSH2 0x78B JUMP JUMPDEST JUMPDEST POP SWAP3 SWAP2 POP POP JUMP INVALID LOG2 PUSH5 0x6970667358 0x22 SLT KECCAK256 SELFDESTRUCT LOG3 0xB8 0x2E PUSH31 0xD379EBCAB264C734F3E6D3C4374F59534F438D4E3F955CED201A4264736F6C PUSH4 0x4300081E STOP CALLER "
				},
				"gasEstimates": {
					"creation": {
						"codeDepositCost": "419000",
						"executionCost": "453",
						"totalCost": "419453"
					},
					"external": {
						"get()": "4998",
						"motifyWallet((address,uint256))": "infinite",
						"setAmount(uint256)": "46852",
						"setWallet((address,uint256))": "infinite",
						"setWallet_with_more_intuitive(address,uint256)": "47115"
					}
				},
				"methodIdentifiers": {
					"get()": "6d4ce63c",
					"motifyWallet((address,uint256))": "6ec30ca1",
					"setAmount(uint256)": "271f88b4",
					"setWallet((address,uint256))": "38477cd0",
					"setWallet_with_more_intuitive(address,uint256)": "64abe4b8"
				}
			},
			"storageLayout": {
				"storage": [
					{
						"astId": 9,
						"contract": "contracts/上傳用/example01.sol:Example01",
						"label": "wallet",
						"offset": 0,
						"slot": "0",
						"type": "t_struct(Wallet)6_storage"
					}
				],
				"types": {
					"t_address": {
						"encoding": "inplace",
						"label": "address",
						"numberOfBytes": "20"
					},
					"t_struct(Wallet)6_storage": {
						"encoding": "inplace",
						"label": "struct Example01.Wallet",
						"members": [
							{
								"astId": 3,
								"contract": "contracts/上傳用/example01.sol:Example01",
								"label": "account",
								"offset": 0,
								"slot": "0",
								"type": "t_address"
							},
							{
								"astId": 5,
								"contract": "contracts/上傳用/example01.sol:Example01",
								"label": "amount",
								"offset": 0,
								"slot": "1",
								"type": "t_uint256"
							}
						],
						"numberOfBytes": "64"
					},
					"t_uint256": {
						"encoding": "inplace",
						"label": "uint256",
						"numberOfBytes": "32"
					}
				}
			},
			"userdoc": {
				"kind": "user",
				"methods": {},
				"version": 1
			}
		}
	}
}