{
	"contracts/上傳用/example04.sol": {
		"Example04": {
			"abi": [
				{
					"inputs": [],
					"name": "deposit",
					"outputs": [],
					"stateMutability": "payable",
					"type": "function"
				},
				{
					"inputs": [
						{
							"internalType": "address",
							"name": "addr",
							"type": "address"
						}
					],
					"name": "getBalance",
					"outputs": [
						{
							"internalType": "uint256",
							"name": "",
							"type": "uint256"
						}
					],
					"stateMutability": "view",
					"type": "function"
				},
				{
					"inputs": [
						{
							"internalType": "address",
							"name": "to",
							"type": "address"
						},
						{
							"internalType": "uint256",
							"name": "amount",
							"type": "uint256"
						}
					],
					"name": "transfer",
					"outputs": [],
					"stateMutability": "nonpayable",
					"type": "function"
				},
				{
					"inputs": [],
					"name": "withdrawal",
					"outputs": [],
					"stateMutability": "nonpayable",
					"type": "function"
				}
			],
			"devdoc": {
				"kind": "dev",
				"methods": {},
				"version": 1
			},
			"evm": {
				"assembly": "    /* \"contracts/\\xe4\\xb8\\x8a\\xe5\\x82\\xb3\\xe7\\x94\\xa8/example04.sol\":66:1763  contract Example04 {... */\n  mstore(0x40, 0x80)\n  callvalue\n  dup1\n  iszero\n  tag_1\n  jumpi\n  revert(0x00, 0x00)\ntag_1:\n  pop\n  dataSize(sub_0)\n  dup1\n  dataOffset(sub_0)\n  0x00\n  codecopy\n  0x00\n  return\nstop\n\nsub_0: assembly {\n        /* \"contracts/\\xe4\\xb8\\x8a\\xe5\\x82\\xb3\\xe7\\x94\\xa8/example04.sol\":66:1763  contract Example04 {... */\n      mstore(0x40, 0x80)\n      jumpi(tag_1, lt(calldatasize, 0x04))\n      shr(0xe0, calldataload(0x00))\n      dup1\n      0xa9059cbb\n      eq\n      tag_2\n      jumpi\n      dup1\n      0xd0e30db0\n      eq\n      tag_3\n      jumpi\n      dup1\n      0xd4e93292\n      eq\n      tag_4\n      jumpi\n      dup1\n      0xf8b2cb4f\n      eq\n      tag_5\n      jumpi\n    tag_1:\n      revert(0x00, 0x00)\n        /* \"contracts/\\xe4\\xb8\\x8a\\xe5\\x82\\xb3\\xe7\\x94\\xa8/example04.sol\":750:1204  function transfer(address to, uint256 amount) public {... */\n    tag_2:\n      callvalue\n      dup1\n      iszero\n      tag_6\n      jumpi\n      revert(0x00, 0x00)\n    tag_6:\n      pop\n      tag_7\n      0x04\n      dup1\n      calldatasize\n      sub\n      dup2\n      add\n      swap1\n      tag_8\n      swap2\n      swap1\n      tag_9\n      jump\t// in\n    tag_8:\n      tag_10\n      jump\t// in\n    tag_7:\n      stop\n        /* \"contracts/\\xe4\\xb8\\x8a\\xe5\\x82\\xb3\\xe7\\x94\\xa8/example04.sol\":197:463  function deposit() public payable {... */\n    tag_3:\n      tag_11\n      tag_12\n      jump\t// in\n    tag_11:\n      stop\n        /* \"contracts/\\xe4\\xb8\\x8a\\xe5\\x82\\xb3\\xe7\\x94\\xa8/example04.sol\":471:742  function withdrawal() public {... */\n    tag_4:\n      callvalue\n      dup1\n      iszero\n      tag_13\n      jumpi\n      revert(0x00, 0x00)\n    tag_13:\n      pop\n      tag_14\n      tag_15\n      jump\t// in\n    tag_14:\n      stop\n        /* \"contracts/\\xe4\\xb8\\x8a\\xe5\\x82\\xb3\\xe7\\x94\\xa8/example04.sol\":1212:1462  function getBalance(address addr) public view returns (uint256) {... */\n    tag_5:\n      callvalue\n      dup1\n      iszero\n      tag_16\n      jumpi\n      revert(0x00, 0x00)\n    tag_16:\n      pop\n      tag_17\n      0x04\n      dup1\n      calldatasize\n      sub\n      dup2\n      add\n      swap1\n      tag_18\n      swap2\n      swap1\n      tag_19\n      jump\t// in\n    tag_18:\n      tag_20\n      jump\t// in\n    tag_17:\n      mload(0x40)\n      tag_21\n      swap2\n      swap1\n      tag_22\n      jump\t// in\n    tag_21:\n      mload(0x40)\n      dup1\n      swap2\n      sub\n      swap1\n      return\n        /* \"contracts/\\xe4\\xb8\\x8a\\xe5\\x82\\xb3\\xe7\\x94\\xa8/example04.sol\":750:1204  function transfer(address to, uint256 amount) public {... */\n    tag_10:\n        /* \"contracts/\\xe4\\xb8\\x8a\\xe5\\x82\\xb3\\xe7\\x94\\xa8/example04.sol\":815:828  uint256 index */\n      0x00\n        /* \"contracts/\\xe4\\xb8\\x8a\\xe5\\x82\\xb3\\xe7\\x94\\xa8/example04.sol\":830:840  bool found */\n      0x00\n        /* \"contracts/\\xe4\\xb8\\x8a\\xe5\\x82\\xb3\\xe7\\x94\\xa8/example04.sol\":844:871  getAccountIndex(msg.sender) */\n      tag_24\n        /* \"contracts/\\xe4\\xb8\\x8a\\xe5\\x82\\xb3\\xe7\\x94\\xa8/example04.sol\":860:870  msg.sender */\n      caller\n        /* \"contracts/\\xe4\\xb8\\x8a\\xe5\\x82\\xb3\\xe7\\x94\\xa8/example04.sol\":844:859  getAccountIndex */\n      tag_25\n        /* \"contracts/\\xe4\\xb8\\x8a\\xe5\\x82\\xb3\\xe7\\x94\\xa8/example04.sol\":844:871  getAccountIndex(msg.sender) */\n      jump\t// in\n    tag_24:\n        /* \"contracts/\\xe4\\xb8\\x8a\\xe5\\x82\\xb3\\xe7\\x94\\xa8/example04.sol\":814:871  (uint256 index, bool found) = getAccountIndex(msg.sender) */\n      swap2\n      pop\n      swap2\n      pop\n        /* \"contracts/\\xe4\\xb8\\x8a\\xe5\\x82\\xb3\\xe7\\x94\\xa8/example04.sol\":886:891  found */\n      dup1\n        /* \"contracts/\\xe4\\xb8\\x8a\\xe5\\x82\\xb3\\xe7\\x94\\xa8/example04.sol\":886:925  found && record[index].amount >= amount */\n      dup1\n      iszero\n      tag_26\n      jumpi\n      pop\n        /* \"contracts/\\xe4\\xb8\\x8a\\xe5\\x82\\xb3\\xe7\\x94\\xa8/example04.sol\":919:925  amount */\n      dup3\n        /* \"contracts/\\xe4\\xb8\\x8a\\xe5\\x82\\xb3\\xe7\\x94\\xa8/example04.sol\":895:901  record */\n      0x00\n        /* \"contracts/\\xe4\\xb8\\x8a\\xe5\\x82\\xb3\\xe7\\x94\\xa8/example04.sol\":902:907  index */\n      dup4\n        /* \"contracts/\\xe4\\xb8\\x8a\\xe5\\x82\\xb3\\xe7\\x94\\xa8/example04.sol\":895:908  record[index] */\n      dup2\n      sload\n      dup2\n      lt\n      tag_27\n      jumpi\n      tag_28\n      tag_29\n      jump\t// in\n    tag_28:\n    tag_27:\n      swap1\n      0x00\n      mstore\n      keccak256(0x00, 0x20)\n      swap1\n      0x02\n      mul\n      add\n        /* \"contracts/\\xe4\\xb8\\x8a\\xe5\\x82\\xb3\\xe7\\x94\\xa8/example04.sol\":895:915  record[index].amount */\n      0x01\n      add\n      sload\n        /* \"contracts/\\xe4\\xb8\\x8a\\xe5\\x82\\xb3\\xe7\\x94\\xa8/example04.sol\":895:925  record[index].amount >= amount */\n      lt\n      iszero\n        /* \"contracts/\\xe4\\xb8\\x8a\\xe5\\x82\\xb3\\xe7\\x94\\xa8/example04.sol\":886:925  found && record[index].amount >= amount */\n    tag_26:\n        /* \"contracts/\\xe4\\xb8\\x8a\\xe5\\x82\\xb3\\xe7\\x94\\xa8/example04.sol\":882:1197  if (found && record[index].amount >= amount) {... */\n      iszero\n      tag_31\n      jumpi\n        /* \"contracts/\\xe4\\xb8\\x8a\\xe5\\x82\\xb3\\xe7\\x94\\xa8/example04.sol\":966:972  amount */\n      dup3\n        /* \"contracts/\\xe4\\xb8\\x8a\\xe5\\x82\\xb3\\xe7\\x94\\xa8/example04.sol\":942:948  record */\n      0x00\n        /* \"contracts/\\xe4\\xb8\\x8a\\xe5\\x82\\xb3\\xe7\\x94\\xa8/example04.sol\":949:954  index */\n      dup4\n        /* \"contracts/\\xe4\\xb8\\x8a\\xe5\\x82\\xb3\\xe7\\x94\\xa8/example04.sol\":942:955  record[index] */\n      dup2\n      sload\n      dup2\n      lt\n      tag_32\n      jumpi\n      tag_33\n      tag_29\n      jump\t// in\n    tag_33:\n    tag_32:\n      swap1\n      0x00\n      mstore\n      keccak256(0x00, 0x20)\n      swap1\n      0x02\n      mul\n      add\n        /* \"contracts/\\xe4\\xb8\\x8a\\xe5\\x82\\xb3\\xe7\\x94\\xa8/example04.sol\":942:962  record[index].amount */\n      0x01\n      add\n      0x00\n        /* \"contracts/\\xe4\\xb8\\x8a\\xe5\\x82\\xb3\\xe7\\x94\\xa8/example04.sol\":942:972  record[index].amount -= amount */\n      dup3\n      dup3\n      sload\n      tag_35\n      swap2\n      swap1\n      tag_36\n      jump\t// in\n    tag_35:\n      swap3\n      pop\n      pop\n      dup2\n      swap1\n      sstore\n      pop\n        /* \"contracts/\\xe4\\xb8\\x8a\\xe5\\x82\\xb3\\xe7\\x94\\xa8/example04.sol\":1004:1023  getAccountIndex(to) */\n      tag_37\n        /* \"contracts/\\xe4\\xb8\\x8a\\xe5\\x82\\xb3\\xe7\\x94\\xa8/example04.sol\":1020:1022  to */\n      dup5\n        /* \"contracts/\\xe4\\xb8\\x8a\\xe5\\x82\\xb3\\xe7\\x94\\xa8/example04.sol\":1004:1019  getAccountIndex */\n      tag_25\n        /* \"contracts/\\xe4\\xb8\\x8a\\xe5\\x82\\xb3\\xe7\\x94\\xa8/example04.sol\":1004:1023  getAccountIndex(to) */\n      jump\t// in\n    tag_37:\n        /* \"contracts/\\xe4\\xb8\\x8a\\xe5\\x82\\xb3\\xe7\\x94\\xa8/example04.sol\":987:1023  (index, found) = getAccountIndex(to) */\n      dup1\n      swap3\n      pop\n      dup2\n      swap4\n      pop\n      pop\n      pop\n        /* \"contracts/\\xe4\\xb8\\x8a\\xe5\\x82\\xb3\\xe7\\x94\\xa8/example04.sol\":1042:1047  found */\n      dup1\n        /* \"contracts/\\xe4\\xb8\\x8a\\xe5\\x82\\xb3\\xe7\\x94\\xa8/example04.sol\":1038:1186  if (found) {... */\n      iszero\n      tag_38\n      jumpi\n        /* \"contracts/\\xe4\\xb8\\x8a\\xe5\\x82\\xb3\\xe7\\x94\\xa8/example04.sol\":1092:1098  amount */\n      dup3\n        /* \"contracts/\\xe4\\xb8\\x8a\\xe5\\x82\\xb3\\xe7\\x94\\xa8/example04.sol\":1068:1074  record */\n      0x00\n        /* \"contracts/\\xe4\\xb8\\x8a\\xe5\\x82\\xb3\\xe7\\x94\\xa8/example04.sol\":1075:1080  index */\n      dup4\n        /* \"contracts/\\xe4\\xb8\\x8a\\xe5\\x82\\xb3\\xe7\\x94\\xa8/example04.sol\":1068:1081  record[index] */\n      dup2\n      sload\n      dup2\n      lt\n      tag_39\n      jumpi\n      tag_40\n      tag_29\n      jump\t// in\n    tag_40:\n    tag_39:\n      swap1\n      0x00\n      mstore\n      keccak256(0x00, 0x20)\n      swap1\n      0x02\n      mul\n      add\n        /* \"contracts/\\xe4\\xb8\\x8a\\xe5\\x82\\xb3\\xe7\\x94\\xa8/example04.sol\":1068:1088  record[index].amount */\n      0x01\n      add\n      0x00\n        /* \"contracts/\\xe4\\xb8\\x8a\\xe5\\x82\\xb3\\xe7\\x94\\xa8/example04.sol\":1068:1098  record[index].amount += amount */\n      dup3\n      dup3\n      sload\n      tag_42\n      swap2\n      swap1\n      tag_43\n      jump\t// in\n    tag_42:\n      swap3\n      pop\n      pop\n      dup2\n      swap1\n      sstore\n      pop\n        /* \"contracts/\\xe4\\xb8\\x8a\\xe5\\x82\\xb3\\xe7\\x94\\xa8/example04.sol\":1038:1186  if (found) {... */\n      jump(tag_44)\n    tag_38:\n        /* \"contracts/\\xe4\\xb8\\x8a\\xe5\\x82\\xb3\\xe7\\x94\\xa8/example04.sol\":1139:1145  record */\n      0x00\n        /* \"contracts/\\xe4\\xb8\\x8a\\xe5\\x82\\xb3\\xe7\\x94\\xa8/example04.sol\":1151:1169  Wallet(to, amount) */\n      mload(0x40)\n      dup1\n      0x40\n      add\n      0x40\n      mstore\n      dup1\n        /* \"contracts/\\xe4\\xb8\\x8a\\xe5\\x82\\xb3\\xe7\\x94\\xa8/example04.sol\":1158:1160  to */\n      dup7\n        /* \"contracts/\\xe4\\xb8\\x8a\\xe5\\x82\\xb3\\xe7\\x94\\xa8/example04.sol\":1151:1169  Wallet(to, amount) */\n      0xffffffffffffffffffffffffffffffffffffffff\n      and\n      dup2\n      mstore\n      0x20\n      add\n        /* \"contracts/\\xe4\\xb8\\x8a\\xe5\\x82\\xb3\\xe7\\x94\\xa8/example04.sol\":1162:1168  amount */\n      dup6\n        /* \"contracts/\\xe4\\xb8\\x8a\\xe5\\x82\\xb3\\xe7\\x94\\xa8/example04.sol\":1151:1169  Wallet(to, amount) */\n      dup2\n      mstore\n      pop\n        /* \"contracts/\\xe4\\xb8\\x8a\\xe5\\x82\\xb3\\xe7\\x94\\xa8/example04.sol\":1139:1170  record.push(Wallet(to, amount)) */\n      swap1\n      dup1\n      0x01\n      dup2\n      sload\n      add\n      dup1\n      dup3\n      sstore\n      dup1\n      swap2\n      pop\n      pop\n      0x01\n      swap1\n      sub\n      swap1\n      0x00\n      mstore\n      keccak256(0x00, 0x20)\n      swap1\n      0x02\n      mul\n      add\n      0x00\n      swap1\n      swap2\n      swap1\n      swap2\n      swap1\n      swap2\n      pop\n      0x00\n      dup3\n      add\n      mload\n      dup2\n      0x00\n      add\n      exp(0x0100, 0x00)\n      dup2\n      sload\n      dup2\n      0xffffffffffffffffffffffffffffffffffffffff\n      mul\n      not\n      and\n      swap1\n      dup4\n      0xffffffffffffffffffffffffffffffffffffffff\n      and\n      mul\n      or\n      swap1\n      sstore\n      pop\n      0x20\n      dup3\n      add\n      mload\n      dup2\n      0x01\n      add\n      sstore\n      pop\n      pop\n        /* \"contracts/\\xe4\\xb8\\x8a\\xe5\\x82\\xb3\\xe7\\x94\\xa8/example04.sol\":1038:1186  if (found) {... */\n    tag_44:\n        /* \"contracts/\\xe4\\xb8\\x8a\\xe5\\x82\\xb3\\xe7\\x94\\xa8/example04.sol\":882:1197  if (found && record[index].amount >= amount) {... */\n    tag_31:\n        /* \"contracts/\\xe4\\xb8\\x8a\\xe5\\x82\\xb3\\xe7\\x94\\xa8/example04.sol\":803:1204  {... */\n      pop\n      pop\n        /* \"contracts/\\xe4\\xb8\\x8a\\xe5\\x82\\xb3\\xe7\\x94\\xa8/example04.sol\":750:1204  function transfer(address to, uint256 amount) public {... */\n      pop\n      pop\n      jump\t// out\n        /* \"contracts/\\xe4\\xb8\\x8a\\xe5\\x82\\xb3\\xe7\\x94\\xa8/example04.sol\":197:463  function deposit() public payable {... */\n    tag_12:\n        /* \"contracts/\\xe4\\xb8\\x8a\\xe5\\x82\\xb3\\xe7\\x94\\xa8/example04.sol\":243:256  uint256 index */\n      0x00\n        /* \"contracts/\\xe4\\xb8\\x8a\\xe5\\x82\\xb3\\xe7\\x94\\xa8/example04.sol\":258:268  bool found */\n      0x00\n        /* \"contracts/\\xe4\\xb8\\x8a\\xe5\\x82\\xb3\\xe7\\x94\\xa8/example04.sol\":272:299  getAccountIndex(msg.sender) */\n      tag_47\n        /* \"contracts/\\xe4\\xb8\\x8a\\xe5\\x82\\xb3\\xe7\\x94\\xa8/example04.sol\":288:298  msg.sender */\n      caller\n        /* \"contracts/\\xe4\\xb8\\x8a\\xe5\\x82\\xb3\\xe7\\x94\\xa8/example04.sol\":272:287  getAccountIndex */\n      tag_25\n        /* \"contracts/\\xe4\\xb8\\x8a\\xe5\\x82\\xb3\\xe7\\x94\\xa8/example04.sol\":272:299  getAccountIndex(msg.sender) */\n      jump\t// in\n    tag_47:\n        /* \"contracts/\\xe4\\xb8\\x8a\\xe5\\x82\\xb3\\xe7\\x94\\xa8/example04.sol\":242:299  (uint256 index, bool found) = getAccountIndex(msg.sender) */\n      swap2\n      pop\n      swap2\n      pop\n        /* \"contracts/\\xe4\\xb8\\x8a\\xe5\\x82\\xb3\\xe7\\x94\\xa8/example04.sol\":314:319  found */\n      dup1\n        /* \"contracts/\\xe4\\xb8\\x8a\\xe5\\x82\\xb3\\xe7\\x94\\xa8/example04.sol\":310:456  if (found) {... */\n      iszero\n      tag_48\n      jumpi\n        /* \"contracts/\\xe4\\xb8\\x8a\\xe5\\x82\\xb3\\xe7\\x94\\xa8/example04.sol\":360:369  msg.value */\n      callvalue\n        /* \"contracts/\\xe4\\xb8\\x8a\\xe5\\x82\\xb3\\xe7\\x94\\xa8/example04.sol\":336:342  record */\n      0x00\n        /* \"contracts/\\xe4\\xb8\\x8a\\xe5\\x82\\xb3\\xe7\\x94\\xa8/example04.sol\":343:348  index */\n      dup4\n        /* \"contracts/\\xe4\\xb8\\x8a\\xe5\\x82\\xb3\\xe7\\x94\\xa8/example04.sol\":336:349  record[index] */\n      dup2\n      sload\n      dup2\n      lt\n      tag_49\n      jumpi\n      tag_50\n      tag_29\n      jump\t// in\n    tag_50:\n    tag_49:\n      swap1\n      0x00\n      mstore\n      keccak256(0x00, 0x20)\n      swap1\n      0x02\n      mul\n      add\n        /* \"contracts/\\xe4\\xb8\\x8a\\xe5\\x82\\xb3\\xe7\\x94\\xa8/example04.sol\":336:356  record[index].amount */\n      0x01\n      add\n      0x00\n        /* \"contracts/\\xe4\\xb8\\x8a\\xe5\\x82\\xb3\\xe7\\x94\\xa8/example04.sol\":336:369  record[index].amount += msg.value */\n      dup3\n      dup3\n      sload\n      tag_52\n      swap2\n      swap1\n      tag_43\n      jump\t// in\n    tag_52:\n      swap3\n      pop\n      pop\n      dup2\n      swap1\n      sstore\n      pop\n        /* \"contracts/\\xe4\\xb8\\x8a\\xe5\\x82\\xb3\\xe7\\x94\\xa8/example04.sol\":310:456  if (found) {... */\n      jump(tag_53)\n    tag_48:\n        /* \"contracts/\\xe4\\xb8\\x8a\\xe5\\x82\\xb3\\xe7\\x94\\xa8/example04.sol\":402:408  record */\n      0x00\n        /* \"contracts/\\xe4\\xb8\\x8a\\xe5\\x82\\xb3\\xe7\\x94\\xa8/example04.sol\":414:443  Wallet(msg.sender, msg.value) */\n      mload(0x40)\n      dup1\n      0x40\n      add\n      0x40\n      mstore\n      dup1\n        /* \"contracts/\\xe4\\xb8\\x8a\\xe5\\x82\\xb3\\xe7\\x94\\xa8/example04.sol\":421:431  msg.sender */\n      caller\n        /* \"contracts/\\xe4\\xb8\\x8a\\xe5\\x82\\xb3\\xe7\\x94\\xa8/example04.sol\":414:443  Wallet(msg.sender, msg.value) */\n      0xffffffffffffffffffffffffffffffffffffffff\n      and\n      dup2\n      mstore\n      0x20\n      add\n        /* \"contracts/\\xe4\\xb8\\x8a\\xe5\\x82\\xb3\\xe7\\x94\\xa8/example04.sol\":433:442  msg.value */\n      callvalue\n        /* \"contracts/\\xe4\\xb8\\x8a\\xe5\\x82\\xb3\\xe7\\x94\\xa8/example04.sol\":414:443  Wallet(msg.sender, msg.value) */\n      dup2\n      mstore\n      pop\n        /* \"contracts/\\xe4\\xb8\\x8a\\xe5\\x82\\xb3\\xe7\\x94\\xa8/example04.sol\":402:444  record.push(Wallet(msg.sender, msg.value)) */\n      swap1\n      dup1\n      0x01\n      dup2\n      sload\n      add\n      dup1\n      dup3\n      sstore\n      dup1\n      swap2\n      pop\n      pop\n      0x01\n      swap1\n      sub\n      swap1\n      0x00\n      mstore\n      keccak256(0x00, 0x20)\n      swap1\n      0x02\n      mul\n      add\n      0x00\n      swap1\n      swap2\n      swap1\n      swap2\n      swap1\n      swap2\n      pop\n      0x00\n      dup3\n      add\n      mload\n      dup2\n      0x00\n      add\n      exp(0x0100, 0x00)\n      dup2\n      sload\n      dup2\n      0xffffffffffffffffffffffffffffffffffffffff\n      mul\n      not\n      and\n      swap1\n      dup4\n      0xffffffffffffffffffffffffffffffffffffffff\n      and\n      mul\n      or\n      swap1\n      sstore\n      pop\n      0x20\n      dup3\n      add\n      mload\n      dup2\n      0x01\n      add\n      sstore\n      pop\n      pop\n        /* \"contracts/\\xe4\\xb8\\x8a\\xe5\\x82\\xb3\\xe7\\x94\\xa8/example04.sol\":310:456  if (found) {... */\n    tag_53:\n        /* \"contracts/\\xe4\\xb8\\x8a\\xe5\\x82\\xb3\\xe7\\x94\\xa8/example04.sol\":231:463  {... */\n      pop\n      pop\n        /* \"contracts/\\xe4\\xb8\\x8a\\xe5\\x82\\xb3\\xe7\\x94\\xa8/example04.sol\":197:463  function deposit() public payable {... */\n      jump\t// out\n        /* \"contracts/\\xe4\\xb8\\x8a\\xe5\\x82\\xb3\\xe7\\x94\\xa8/example04.sol\":471:742  function withdrawal() public {... */\n    tag_15:\n        /* \"contracts/\\xe4\\xb8\\x8a\\xe5\\x82\\xb3\\xe7\\x94\\xa8/example04.sol\":512:525  uint256 index */\n      0x00\n        /* \"contracts/\\xe4\\xb8\\x8a\\xe5\\x82\\xb3\\xe7\\x94\\xa8/example04.sol\":527:537  bool found */\n      0x00\n        /* \"contracts/\\xe4\\xb8\\x8a\\xe5\\x82\\xb3\\xe7\\x94\\xa8/example04.sol\":541:568  getAccountIndex(msg.sender) */\n      tag_56\n        /* \"contracts/\\xe4\\xb8\\x8a\\xe5\\x82\\xb3\\xe7\\x94\\xa8/example04.sol\":557:567  msg.sender */\n      caller\n        /* \"contracts/\\xe4\\xb8\\x8a\\xe5\\x82\\xb3\\xe7\\x94\\xa8/example04.sol\":541:556  getAccountIndex */\n      tag_25\n        /* \"contracts/\\xe4\\xb8\\x8a\\xe5\\x82\\xb3\\xe7\\x94\\xa8/example04.sol\":541:568  getAccountIndex(msg.sender) */\n      jump\t// in\n    tag_56:\n        /* \"contracts/\\xe4\\xb8\\x8a\\xe5\\x82\\xb3\\xe7\\x94\\xa8/example04.sol\":511:568  (uint256 index, bool found) = getAccountIndex(msg.sender) */\n      swap2\n      pop\n      swap2\n      pop\n        /* \"contracts/\\xe4\\xb8\\x8a\\xe5\\x82\\xb3\\xe7\\x94\\xa8/example04.sol\":583:588  found */\n      dup1\n        /* \"contracts/\\xe4\\xb8\\x8a\\xe5\\x82\\xb3\\xe7\\x94\\xa8/example04.sol\":583:617  found && record[index].amount != 0 */\n      dup1\n      iszero\n      tag_57\n      jumpi\n      pop\n        /* \"contracts/\\xe4\\xb8\\x8a\\xe5\\x82\\xb3\\xe7\\x94\\xa8/example04.sol\":616:617  0 */\n      0x00\n        /* \"contracts/\\xe4\\xb8\\x8a\\xe5\\x82\\xb3\\xe7\\x94\\xa8/example04.sol\":592:598  record */\n      0x00\n        /* \"contracts/\\xe4\\xb8\\x8a\\xe5\\x82\\xb3\\xe7\\x94\\xa8/example04.sol\":599:604  index */\n      dup4\n        /* \"contracts/\\xe4\\xb8\\x8a\\xe5\\x82\\xb3\\xe7\\x94\\xa8/example04.sol\":592:605  record[index] */\n      dup2\n      sload\n      dup2\n      lt\n      tag_58\n      jumpi\n      tag_59\n      tag_29\n      jump\t// in\n    tag_59:\n    tag_58:\n      swap1\n      0x00\n      mstore\n      keccak256(0x00, 0x20)\n      swap1\n      0x02\n      mul\n      add\n        /* \"contracts/\\xe4\\xb8\\x8a\\xe5\\x82\\xb3\\xe7\\x94\\xa8/example04.sol\":592:612  record[index].amount */\n      0x01\n      add\n      sload\n        /* \"contracts/\\xe4\\xb8\\x8a\\xe5\\x82\\xb3\\xe7\\x94\\xa8/example04.sol\":592:617  record[index].amount != 0 */\n      eq\n      iszero\n        /* \"contracts/\\xe4\\xb8\\x8a\\xe5\\x82\\xb3\\xe7\\x94\\xa8/example04.sol\":583:617  found && record[index].amount != 0 */\n    tag_57:\n        /* \"contracts/\\xe4\\xb8\\x8a\\xe5\\x82\\xb3\\xe7\\x94\\xa8/example04.sol\":579:735  if (found && record[index].amount != 0) {... */\n      iszero\n      tag_61\n      jumpi\n        /* \"contracts/\\xe4\\xb8\\x8a\\xe5\\x82\\xb3\\xe7\\x94\\xa8/example04.sol\":642:652  msg.sender */\n      caller\n        /* \"contracts/\\xe4\\xb8\\x8a\\xe5\\x82\\xb3\\xe7\\x94\\xa8/example04.sol\":634:662  payable(msg.sender).transfer */\n      0xffffffffffffffffffffffffffffffffffffffff\n      and\n        /* \"contracts/\\xe4\\xb8\\x8a\\xe5\\x82\\xb3\\xe7\\x94\\xa8/example04.sol\":634:684  payable(msg.sender).transfer(record[index].amount) */\n      0x08fc\n        /* \"contracts/\\xe4\\xb8\\x8a\\xe5\\x82\\xb3\\xe7\\x94\\xa8/example04.sol\":663:669  record */\n      0x00\n        /* \"contracts/\\xe4\\xb8\\x8a\\xe5\\x82\\xb3\\xe7\\x94\\xa8/example04.sol\":670:675  index */\n      dup5\n        /* \"contracts/\\xe4\\xb8\\x8a\\xe5\\x82\\xb3\\xe7\\x94\\xa8/example04.sol\":663:676  record[index] */\n      dup2\n      sload\n      dup2\n      lt\n      tag_62\n      jumpi\n      tag_63\n      tag_29\n      jump\t// in\n    tag_63:\n    tag_62:\n      swap1\n      0x00\n      mstore\n      keccak256(0x00, 0x20)\n      swap1\n      0x02\n      mul\n      add\n        /* \"contracts/\\xe4\\xb8\\x8a\\xe5\\x82\\xb3\\xe7\\x94\\xa8/example04.sol\":663:683  record[index].amount */\n      0x01\n      add\n      sload\n        /* \"contracts/\\xe4\\xb8\\x8a\\xe5\\x82\\xb3\\xe7\\x94\\xa8/example04.sol\":634:684  payable(msg.sender).transfer(record[index].amount) */\n      swap1\n      dup2\n      iszero\n      mul\n      swap1\n      mload(0x40)\n      0x00\n      mload(0x40)\n      dup1\n      dup4\n      sub\n      dup2\n      dup6\n      dup9\n      dup9\n      call\n      swap4\n      pop\n      pop\n      pop\n      pop\n      iszero\n      dup1\n      iszero\n      tag_66\n      jumpi\n      returndatacopy(0x00, 0x00, returndatasize)\n      revert(0x00, returndatasize)\n    tag_66:\n      pop\n        /* \"contracts/\\xe4\\xb8\\x8a\\xe5\\x82\\xb3\\xe7\\x94\\xa8/example04.sol\":722:723  0 */\n      0x00\n        /* \"contracts/\\xe4\\xb8\\x8a\\xe5\\x82\\xb3\\xe7\\x94\\xa8/example04.sol\":699:705  record */\n      0x00\n        /* \"contracts/\\xe4\\xb8\\x8a\\xe5\\x82\\xb3\\xe7\\x94\\xa8/example04.sol\":706:711  index */\n      dup4\n        /* \"contracts/\\xe4\\xb8\\x8a\\xe5\\x82\\xb3\\xe7\\x94\\xa8/example04.sol\":699:712  record[index] */\n      dup2\n      sload\n      dup2\n      lt\n      tag_67\n      jumpi\n      tag_68\n      tag_29\n      jump\t// in\n    tag_68:\n    tag_67:\n      swap1\n      0x00\n      mstore\n      keccak256(0x00, 0x20)\n      swap1\n      0x02\n      mul\n      add\n        /* \"contracts/\\xe4\\xb8\\x8a\\xe5\\x82\\xb3\\xe7\\x94\\xa8/example04.sol\":699:719  record[index].amount */\n      0x01\n      add\n        /* \"contracts/\\xe4\\xb8\\x8a\\xe5\\x82\\xb3\\xe7\\x94\\xa8/example04.sol\":699:723  record[index].amount = 0 */\n      dup2\n      swap1\n      sstore\n      pop\n        /* \"contracts/\\xe4\\xb8\\x8a\\xe5\\x82\\xb3\\xe7\\x94\\xa8/example04.sol\":579:735  if (found && record[index].amount != 0) {... */\n    tag_61:\n        /* \"contracts/\\xe4\\xb8\\x8a\\xe5\\x82\\xb3\\xe7\\x94\\xa8/example04.sol\":500:742  {... */\n      pop\n      pop\n        /* \"contracts/\\xe4\\xb8\\x8a\\xe5\\x82\\xb3\\xe7\\x94\\xa8/example04.sol\":471:742  function withdrawal() public {... */\n      jump\t// out\n        /* \"contracts/\\xe4\\xb8\\x8a\\xe5\\x82\\xb3\\xe7\\x94\\xa8/example04.sol\":1212:1462  function getBalance(address addr) public view returns (uint256) {... */\n    tag_20:\n        /* \"contracts/\\xe4\\xb8\\x8a\\xe5\\x82\\xb3\\xe7\\x94\\xa8/example04.sol\":1267:1274  uint256 */\n      0x00\n        /* \"contracts/\\xe4\\xb8\\x8a\\xe5\\x82\\xb3\\xe7\\x94\\xa8/example04.sol\":1288:1301  uint256 index */\n      0x00\n        /* \"contracts/\\xe4\\xb8\\x8a\\xe5\\x82\\xb3\\xe7\\x94\\xa8/example04.sol\":1303:1313  bool found */\n      0x00\n        /* \"contracts/\\xe4\\xb8\\x8a\\xe5\\x82\\xb3\\xe7\\x94\\xa8/example04.sol\":1317:1338  getAccountIndex(addr) */\n      tag_71\n        /* \"contracts/\\xe4\\xb8\\x8a\\xe5\\x82\\xb3\\xe7\\x94\\xa8/example04.sol\":1333:1337  addr */\n      dup5\n        /* \"contracts/\\xe4\\xb8\\x8a\\xe5\\x82\\xb3\\xe7\\x94\\xa8/example04.sol\":1317:1332  getAccountIndex */\n      tag_25\n        /* \"contracts/\\xe4\\xb8\\x8a\\xe5\\x82\\xb3\\xe7\\x94\\xa8/example04.sol\":1317:1338  getAccountIndex(addr) */\n      jump\t// in\n    tag_71:\n        /* \"contracts/\\xe4\\xb8\\x8a\\xe5\\x82\\xb3\\xe7\\x94\\xa8/example04.sol\":1287:1338  (uint256 index, bool found) = getAccountIndex(addr) */\n      swap2\n      pop\n      swap2\n      pop\n        /* \"contracts/\\xe4\\xb8\\x8a\\xe5\\x82\\xb3\\xe7\\x94\\xa8/example04.sol\":1353:1358  found */\n      dup1\n        /* \"contracts/\\xe4\\xb8\\x8a\\xe5\\x82\\xb3\\xe7\\x94\\xa8/example04.sol\":1349:1455  if (found) {... */\n      iszero\n      tag_72\n      jumpi\n        /* \"contracts/\\xe4\\xb8\\x8a\\xe5\\x82\\xb3\\xe7\\x94\\xa8/example04.sol\":1382:1388  record */\n      0x00\n        /* \"contracts/\\xe4\\xb8\\x8a\\xe5\\x82\\xb3\\xe7\\x94\\xa8/example04.sol\":1389:1394  index */\n      dup3\n        /* \"contracts/\\xe4\\xb8\\x8a\\xe5\\x82\\xb3\\xe7\\x94\\xa8/example04.sol\":1382:1395  record[index] */\n      dup2\n      sload\n      dup2\n      lt\n      tag_73\n      jumpi\n      tag_74\n      tag_29\n      jump\t// in\n    tag_74:\n    tag_73:\n      swap1\n      0x00\n      mstore\n      keccak256(0x00, 0x20)\n      swap1\n      0x02\n      mul\n      add\n        /* \"contracts/\\xe4\\xb8\\x8a\\xe5\\x82\\xb3\\xe7\\x94\\xa8/example04.sol\":1382:1402  record[index].amount */\n      0x01\n      add\n      sload\n        /* \"contracts/\\xe4\\xb8\\x8a\\xe5\\x82\\xb3\\xe7\\x94\\xa8/example04.sol\":1375:1402  return record[index].amount */\n      swap3\n      pop\n      pop\n      pop\n      jump(tag_70)\n        /* \"contracts/\\xe4\\xb8\\x8a\\xe5\\x82\\xb3\\xe7\\x94\\xa8/example04.sol\":1349:1455  if (found) {... */\n    tag_72:\n        /* \"contracts/\\xe4\\xb8\\x8a\\xe5\\x82\\xb3\\xe7\\x94\\xa8/example04.sol\":1442:1443  0 */\n      0x00\n        /* \"contracts/\\xe4\\xb8\\x8a\\xe5\\x82\\xb3\\xe7\\x94\\xa8/example04.sol\":1435:1443  return 0 */\n      swap3\n      pop\n      pop\n      pop\n        /* \"contracts/\\xe4\\xb8\\x8a\\xe5\\x82\\xb3\\xe7\\x94\\xa8/example04.sol\":1212:1462  function getBalance(address addr) public view returns (uint256) {... */\n    tag_70:\n      swap2\n      swap1\n      pop\n      jump\t// out\n        /* \"contracts/\\xe4\\xb8\\x8a\\xe5\\x82\\xb3\\xe7\\x94\\xa8/example04.sol\":1470:1760  function getAccountIndex(... */\n    tag_25:\n        /* \"contracts/\\xe4\\xb8\\x8a\\xe5\\x82\\xb3\\xe7\\x94\\xa8/example04.sol\":1547:1554  uint256 */\n      0x00\n        /* \"contracts/\\xe4\\xb8\\x8a\\xe5\\x82\\xb3\\xe7\\x94\\xa8/example04.sol\":1556:1560  bool */\n      0x00\n        /* \"contracts/\\xe4\\xb8\\x8a\\xe5\\x82\\xb3\\xe7\\x94\\xa8/example04.sol\":1578:1587  uint256 i */\n      0x00\n        /* \"contracts/\\xe4\\xb8\\x8a\\xe5\\x82\\xb3\\xe7\\x94\\xa8/example04.sol\":1590:1591  0 */\n      0x00\n        /* \"contracts/\\xe4\\xb8\\x8a\\xe5\\x82\\xb3\\xe7\\x94\\xa8/example04.sol\":1578:1591  uint256 i = 0 */\n      swap1\n      pop\n        /* \"contracts/\\xe4\\xb8\\x8a\\xe5\\x82\\xb3\\xe7\\x94\\xa8/example04.sol\":1573:1725  for (uint256 i = 0; i < record.length; ++i) {... */\n    tag_78:\n        /* \"contracts/\\xe4\\xb8\\x8a\\xe5\\x82\\xb3\\xe7\\x94\\xa8/example04.sol\":1597:1603  record */\n      0x00\n        /* \"contracts/\\xe4\\xb8\\x8a\\xe5\\x82\\xb3\\xe7\\x94\\xa8/example04.sol\":1597:1610  record.length */\n      dup1\n      sload\n      swap1\n      pop\n        /* \"contracts/\\xe4\\xb8\\x8a\\xe5\\x82\\xb3\\xe7\\x94\\xa8/example04.sol\":1593:1594  i */\n      dup2\n        /* \"contracts/\\xe4\\xb8\\x8a\\xe5\\x82\\xb3\\xe7\\x94\\xa8/example04.sol\":1593:1610  i < record.length */\n      lt\n        /* \"contracts/\\xe4\\xb8\\x8a\\xe5\\x82\\xb3\\xe7\\x94\\xa8/example04.sol\":1573:1725  for (uint256 i = 0; i < record.length; ++i) {... */\n      iszero\n      tag_79\n      jumpi\n        /* \"contracts/\\xe4\\xb8\\x8a\\xe5\\x82\\xb3\\xe7\\x94\\xa8/example04.sol\":1657:1661  addr */\n      dup4\n        /* \"contracts/\\xe4\\xb8\\x8a\\xe5\\x82\\xb3\\xe7\\x94\\xa8/example04.sol\":1636:1661  record[i].account == addr */\n      0xffffffffffffffffffffffffffffffffffffffff\n      and\n        /* \"contracts/\\xe4\\xb8\\x8a\\xe5\\x82\\xb3\\xe7\\x94\\xa8/example04.sol\":1636:1642  record */\n      0x00\n        /* \"contracts/\\xe4\\xb8\\x8a\\xe5\\x82\\xb3\\xe7\\x94\\xa8/example04.sol\":1643:1644  i */\n      dup3\n        /* \"contracts/\\xe4\\xb8\\x8a\\xe5\\x82\\xb3\\xe7\\x94\\xa8/example04.sol\":1636:1645  record[i] */\n      dup2\n      sload\n      dup2\n      lt\n      tag_81\n      jumpi\n      tag_82\n      tag_29\n      jump\t// in\n    tag_82:\n    tag_81:\n      swap1\n      0x00\n      mstore\n      keccak256(0x00, 0x20)\n      swap1\n      0x02\n      mul\n      add\n        /* \"contracts/\\xe4\\xb8\\x8a\\xe5\\x82\\xb3\\xe7\\x94\\xa8/example04.sol\":1636:1653  record[i].account */\n      0x00\n      add\n      0x00\n      swap1\n      sload\n      swap1\n      0x0100\n      exp\n      swap1\n      div\n      0xffffffffffffffffffffffffffffffffffffffff\n      and\n        /* \"contracts/\\xe4\\xb8\\x8a\\xe5\\x82\\xb3\\xe7\\x94\\xa8/example04.sol\":1636:1661  record[i].account == addr */\n      0xffffffffffffffffffffffffffffffffffffffff\n      and\n      sub\n        /* \"contracts/\\xe4\\xb8\\x8a\\xe5\\x82\\xb3\\xe7\\x94\\xa8/example04.sol\":1632:1714  if (record[i].account == addr) {... */\n      tag_84\n      jumpi\n        /* \"contracts/\\xe4\\xb8\\x8a\\xe5\\x82\\xb3\\xe7\\x94\\xa8/example04.sol\":1690:1691  i */\n      dup1\n        /* \"contracts/\\xe4\\xb8\\x8a\\xe5\\x82\\xb3\\xe7\\x94\\xa8/example04.sol\":1693:1697  true */\n      0x01\n        /* \"contracts/\\xe4\\xb8\\x8a\\xe5\\x82\\xb3\\xe7\\x94\\xa8/example04.sol\":1682:1698  return (i, true) */\n      swap3\n      pop\n      swap3\n      pop\n      pop\n      jump(tag_77)\n        /* \"contracts/\\xe4\\xb8\\x8a\\xe5\\x82\\xb3\\xe7\\x94\\xa8/example04.sol\":1632:1714  if (record[i].account == addr) {... */\n    tag_84:\n        /* \"contracts/\\xe4\\xb8\\x8a\\xe5\\x82\\xb3\\xe7\\x94\\xa8/example04.sol\":1612:1615  ++i */\n      dup1\n      0x01\n      add\n      swap1\n      pop\n        /* \"contracts/\\xe4\\xb8\\x8a\\xe5\\x82\\xb3\\xe7\\x94\\xa8/example04.sol\":1573:1725  for (uint256 i = 0; i < record.length; ++i) {... */\n      jump(tag_78)\n    tag_79:\n      pop\n        /* \"contracts/\\xe4\\xb8\\x8a\\xe5\\x82\\xb3\\xe7\\x94\\xa8/example04.sol\":1743:1744  0 */\n      0x00\n        /* \"contracts/\\xe4\\xb8\\x8a\\xe5\\x82\\xb3\\xe7\\x94\\xa8/example04.sol\":1746:1751  false */\n      0x00\n        /* \"contracts/\\xe4\\xb8\\x8a\\xe5\\x82\\xb3\\xe7\\x94\\xa8/example04.sol\":1735:1752  return (0, false) */\n      swap2\n      pop\n      swap2\n      pop\n        /* \"contracts/\\xe4\\xb8\\x8a\\xe5\\x82\\xb3\\xe7\\x94\\xa8/example04.sol\":1470:1760  function getAccountIndex(... */\n    tag_77:\n      swap2\n      pop\n      swap2\n      jump\t// out\n        /* \"#utility.yul\":88:205   */\n    tag_86:\n        /* \"#utility.yul\":197:198   */\n      0x00\n        /* \"#utility.yul\":194:195   */\n      0x00\n        /* \"#utility.yul\":187:199   */\n      revert\n        /* \"#utility.yul\":334:460   */\n    tag_88:\n        /* \"#utility.yul\":371:378   */\n      0x00\n        /* \"#utility.yul\":411:453   */\n      0xffffffffffffffffffffffffffffffffffffffff\n        /* \"#utility.yul\":404:409   */\n      dup3\n        /* \"#utility.yul\":400:454   */\n      and\n        /* \"#utility.yul\":389:454   */\n      swap1\n      pop\n        /* \"#utility.yul\":334:460   */\n      swap2\n      swap1\n      pop\n      jump\t// out\n        /* \"#utility.yul\":466:562   */\n    tag_89:\n        /* \"#utility.yul\":503:510   */\n      0x00\n        /* \"#utility.yul\":532:556   */\n      tag_103\n        /* \"#utility.yul\":550:555   */\n      dup3\n        /* \"#utility.yul\":532:556   */\n      tag_88\n      jump\t// in\n    tag_103:\n        /* \"#utility.yul\":521:556   */\n      swap1\n      pop\n        /* \"#utility.yul\":466:562   */\n      swap2\n      swap1\n      pop\n      jump\t// out\n        /* \"#utility.yul\":568:690   */\n    tag_90:\n        /* \"#utility.yul\":641:665   */\n      tag_105\n        /* \"#utility.yul\":659:664   */\n      dup2\n        /* \"#utility.yul\":641:665   */\n      tag_89\n      jump\t// in\n    tag_105:\n        /* \"#utility.yul\":634:639   */\n      dup2\n        /* \"#utility.yul\":631:666   */\n      eq\n        /* \"#utility.yul\":621:684   */\n      tag_106\n      jumpi\n        /* \"#utility.yul\":680:681   */\n      0x00\n        /* \"#utility.yul\":677:678   */\n      0x00\n        /* \"#utility.yul\":670:682   */\n      revert\n        /* \"#utility.yul\":621:684   */\n    tag_106:\n        /* \"#utility.yul\":568:690   */\n      pop\n      jump\t// out\n        /* \"#utility.yul\":696:835   */\n    tag_91:\n        /* \"#utility.yul\":742:747   */\n      0x00\n        /* \"#utility.yul\":780:786   */\n      dup2\n        /* \"#utility.yul\":767:787   */\n      calldataload\n        /* \"#utility.yul\":758:787   */\n      swap1\n      pop\n        /* \"#utility.yul\":796:829   */\n      tag_108\n        /* \"#utility.yul\":823:828   */\n      dup2\n        /* \"#utility.yul\":796:829   */\n      tag_90\n      jump\t// in\n    tag_108:\n        /* \"#utility.yul\":696:835   */\n      swap3\n      swap2\n      pop\n      pop\n      jump\t// out\n        /* \"#utility.yul\":841:918   */\n    tag_92:\n        /* \"#utility.yul\":878:885   */\n      0x00\n        /* \"#utility.yul\":907:912   */\n      dup2\n        /* \"#utility.yul\":896:912   */\n      swap1\n      pop\n        /* \"#utility.yul\":841:918   */\n      swap2\n      swap1\n      pop\n      jump\t// out\n        /* \"#utility.yul\":924:1046   */\n    tag_93:\n        /* \"#utility.yul\":997:1021   */\n      tag_111\n        /* \"#utility.yul\":1015:1020   */\n      dup2\n        /* \"#utility.yul\":997:1021   */\n      tag_92\n      jump\t// in\n    tag_111:\n        /* \"#utility.yul\":990:995   */\n      dup2\n        /* \"#utility.yul\":987:1022   */\n      eq\n        /* \"#utility.yul\":977:1040   */\n      tag_112\n      jumpi\n        /* \"#utility.yul\":1036:1037   */\n      0x00\n        /* \"#utility.yul\":1033:1034   */\n      0x00\n        /* \"#utility.yul\":1026:1038   */\n      revert\n        /* \"#utility.yul\":977:1040   */\n    tag_112:\n        /* \"#utility.yul\":924:1046   */\n      pop\n      jump\t// out\n        /* \"#utility.yul\":1052:1191   */\n    tag_94:\n        /* \"#utility.yul\":1098:1103   */\n      0x00\n        /* \"#utility.yul\":1136:1142   */\n      dup2\n        /* \"#utility.yul\":1123:1143   */\n      calldataload\n        /* \"#utility.yul\":1114:1143   */\n      swap1\n      pop\n        /* \"#utility.yul\":1152:1185   */\n      tag_114\n        /* \"#utility.yul\":1179:1184   */\n      dup2\n        /* \"#utility.yul\":1152:1185   */\n      tag_93\n      jump\t// in\n    tag_114:\n        /* \"#utility.yul\":1052:1191   */\n      swap3\n      swap2\n      pop\n      pop\n      jump\t// out\n        /* \"#utility.yul\":1197:1671   */\n    tag_9:\n        /* \"#utility.yul\":1265:1271   */\n      0x00\n        /* \"#utility.yul\":1273:1279   */\n      0x00\n        /* \"#utility.yul\":1322:1324   */\n      0x40\n        /* \"#utility.yul\":1310:1319   */\n      dup4\n        /* \"#utility.yul\":1301:1308   */\n      dup6\n        /* \"#utility.yul\":1297:1320   */\n      sub\n        /* \"#utility.yul\":1293:1325   */\n      slt\n        /* \"#utility.yul\":1290:1409   */\n      iszero\n      tag_116\n      jumpi\n        /* \"#utility.yul\":1328:1407   */\n      tag_117\n      tag_86\n      jump\t// in\n    tag_117:\n        /* \"#utility.yul\":1290:1409   */\n    tag_116:\n        /* \"#utility.yul\":1448:1449   */\n      0x00\n        /* \"#utility.yul\":1473:1526   */\n      tag_118\n        /* \"#utility.yul\":1518:1525   */\n      dup6\n        /* \"#utility.yul\":1509:1515   */\n      dup3\n        /* \"#utility.yul\":1498:1507   */\n      dup7\n        /* \"#utility.yul\":1494:1516   */\n      add\n        /* \"#utility.yul\":1473:1526   */\n      tag_91\n      jump\t// in\n    tag_118:\n        /* \"#utility.yul\":1463:1526   */\n      swap3\n      pop\n        /* \"#utility.yul\":1419:1536   */\n      pop\n        /* \"#utility.yul\":1575:1577   */\n      0x20\n        /* \"#utility.yul\":1601:1654   */\n      tag_119\n        /* \"#utility.yul\":1646:1653   */\n      dup6\n        /* \"#utility.yul\":1637:1643   */\n      dup3\n        /* \"#utility.yul\":1626:1635   */\n      dup7\n        /* \"#utility.yul\":1622:1644   */\n      add\n        /* \"#utility.yul\":1601:1654   */\n      tag_94\n      jump\t// in\n    tag_119:\n        /* \"#utility.yul\":1591:1654   */\n      swap2\n      pop\n        /* \"#utility.yul\":1546:1664   */\n      pop\n        /* \"#utility.yul\":1197:1671   */\n      swap3\n      pop\n      swap3\n      swap1\n      pop\n      jump\t// out\n        /* \"#utility.yul\":1677:2006   */\n    tag_19:\n        /* \"#utility.yul\":1736:1742   */\n      0x00\n        /* \"#utility.yul\":1785:1787   */\n      0x20\n        /* \"#utility.yul\":1773:1782   */\n      dup3\n        /* \"#utility.yul\":1764:1771   */\n      dup5\n        /* \"#utility.yul\":1760:1783   */\n      sub\n        /* \"#utility.yul\":1756:1788   */\n      slt\n        /* \"#utility.yul\":1753:1872   */\n      iszero\n      tag_121\n      jumpi\n        /* \"#utility.yul\":1791:1870   */\n      tag_122\n      tag_86\n      jump\t// in\n    tag_122:\n        /* \"#utility.yul\":1753:1872   */\n    tag_121:\n        /* \"#utility.yul\":1911:1912   */\n      0x00\n        /* \"#utility.yul\":1936:1989   */\n      tag_123\n        /* \"#utility.yul\":1981:1988   */\n      dup5\n        /* \"#utility.yul\":1972:1978   */\n      dup3\n        /* \"#utility.yul\":1961:1970   */\n      dup6\n        /* \"#utility.yul\":1957:1979   */\n      add\n        /* \"#utility.yul\":1936:1989   */\n      tag_91\n      jump\t// in\n    tag_123:\n        /* \"#utility.yul\":1926:1989   */\n      swap2\n      pop\n        /* \"#utility.yul\":1882:1999   */\n      pop\n        /* \"#utility.yul\":1677:2006   */\n      swap3\n      swap2\n      pop\n      pop\n      jump\t// out\n        /* \"#utility.yul\":2012:2130   */\n    tag_95:\n        /* \"#utility.yul\":2099:2123   */\n      tag_125\n        /* \"#utility.yul\":2117:2122   */\n      dup2\n        /* \"#utility.yul\":2099:2123   */\n      tag_92\n      jump\t// in\n    tag_125:\n        /* \"#utility.yul\":2094:2097   */\n      dup3\n        /* \"#utility.yul\":2087:2124   */\n      mstore\n        /* \"#utility.yul\":2012:2130   */\n      pop\n      pop\n      jump\t// out\n        /* \"#utility.yul\":2136:2358   */\n    tag_22:\n        /* \"#utility.yul\":2229:2233   */\n      0x00\n        /* \"#utility.yul\":2267:2269   */\n      0x20\n        /* \"#utility.yul\":2256:2265   */\n      dup3\n        /* \"#utility.yul\":2252:2270   */\n      add\n        /* \"#utility.yul\":2244:2270   */\n      swap1\n      pop\n        /* \"#utility.yul\":2280:2351   */\n      tag_127\n        /* \"#utility.yul\":2348:2349   */\n      0x00\n        /* \"#utility.yul\":2337:2346   */\n      dup4\n        /* \"#utility.yul\":2333:2350   */\n      add\n        /* \"#utility.yul\":2324:2330   */\n      dup5\n        /* \"#utility.yul\":2280:2351   */\n      tag_95\n      jump\t// in\n    tag_127:\n        /* \"#utility.yul\":2136:2358   */\n      swap3\n      swap2\n      pop\n      pop\n      jump\t// out\n        /* \"#utility.yul\":2364:2544   */\n    tag_29:\n        /* \"#utility.yul\":2412:2489   */\n      0x4e487b7100000000000000000000000000000000000000000000000000000000\n        /* \"#utility.yul\":2409:2410   */\n      0x00\n        /* \"#utility.yul\":2402:2490   */\n      mstore\n        /* \"#utility.yul\":2509:2513   */\n      0x32\n        /* \"#utility.yul\":2506:2507   */\n      0x04\n        /* \"#utility.yul\":2499:2514   */\n      mstore\n        /* \"#utility.yul\":2533:2537   */\n      0x24\n        /* \"#utility.yul\":2530:2531   */\n      0x00\n        /* \"#utility.yul\":2523:2538   */\n      revert\n        /* \"#utility.yul\":2550:2730   */\n    tag_96:\n        /* \"#utility.yul\":2598:2675   */\n      0x4e487b7100000000000000000000000000000000000000000000000000000000\n        /* \"#utility.yul\":2595:2596   */\n      0x00\n        /* \"#utility.yul\":2588:2676   */\n      mstore\n        /* \"#utility.yul\":2695:2699   */\n      0x11\n        /* \"#utility.yul\":2692:2693   */\n      0x04\n        /* \"#utility.yul\":2685:2700   */\n      mstore\n        /* \"#utility.yul\":2719:2723   */\n      0x24\n        /* \"#utility.yul\":2716:2717   */\n      0x00\n        /* \"#utility.yul\":2709:2724   */\n      revert\n        /* \"#utility.yul\":2736:2930   */\n    tag_36:\n        /* \"#utility.yul\":2776:2780   */\n      0x00\n        /* \"#utility.yul\":2796:2816   */\n      tag_131\n        /* \"#utility.yul\":2814:2815   */\n      dup3\n        /* \"#utility.yul\":2796:2816   */\n      tag_92\n      jump\t// in\n    tag_131:\n        /* \"#utility.yul\":2791:2816   */\n      swap2\n      pop\n        /* \"#utility.yul\":2830:2850   */\n      tag_132\n        /* \"#utility.yul\":2848:2849   */\n      dup4\n        /* \"#utility.yul\":2830:2850   */\n      tag_92\n      jump\t// in\n    tag_132:\n        /* \"#utility.yul\":2825:2850   */\n      swap3\n      pop\n        /* \"#utility.yul\":2874:2875   */\n      dup3\n        /* \"#utility.yul\":2871:2872   */\n      dup3\n        /* \"#utility.yul\":2867:2876   */\n      sub\n        /* \"#utility.yul\":2859:2876   */\n      swap1\n      pop\n        /* \"#utility.yul\":2898:2899   */\n      dup2\n        /* \"#utility.yul\":2892:2896   */\n      dup2\n        /* \"#utility.yul\":2889:2900   */\n      gt\n        /* \"#utility.yul\":2886:2923   */\n      iszero\n      tag_133\n      jumpi\n        /* \"#utility.yul\":2903:2921   */\n      tag_134\n      tag_96\n      jump\t// in\n    tag_134:\n        /* \"#utility.yul\":2886:2923   */\n    tag_133:\n        /* \"#utility.yul\":2736:2930   */\n      swap3\n      swap2\n      pop\n      pop\n      jump\t// out\n        /* \"#utility.yul\":2936:3127   */\n    tag_43:\n        /* \"#utility.yul\":2976:2979   */\n      0x00\n        /* \"#utility.yul\":2995:3015   */\n      tag_136\n        /* \"#utility.yul\":3013:3014   */\n      dup3\n        /* \"#utility.yul\":2995:3015   */\n      tag_92\n      jump\t// in\n    tag_136:\n        /* \"#utility.yul\":2990:3015   */\n      swap2\n      pop\n        /* \"#utility.yul\":3029:3049   */\n      tag_137\n        /* \"#utility.yul\":3047:3048   */\n      dup4\n        /* \"#utility.yul\":3029:3049   */\n      tag_92\n      jump\t// in\n    tag_137:\n        /* \"#utility.yul\":3024:3049   */\n      swap3\n      pop\n        /* \"#utility.yul\":3072:3073   */\n      dup3\n        /* \"#utility.yul\":3069:3070   */\n      dup3\n        /* \"#utility.yul\":3065:3074   */\n      add\n        /* \"#utility.yul\":3058:3074   */\n      swap1\n      pop\n        /* \"#utility.yul\":3093:3096   */\n      dup1\n        /* \"#utility.yul\":3090:3091   */\n      dup3\n        /* \"#utility.yul\":3087:3097   */\n      gt\n        /* \"#utility.yul\":3084:3120   */\n      iszero\n      tag_138\n      jumpi\n        /* \"#utility.yul\":3100:3118   */\n      tag_139\n      tag_96\n      jump\t// in\n    tag_139:\n        /* \"#utility.yul\":3084:3120   */\n    tag_138:\n        /* \"#utility.yul\":2936:3127   */\n      swap3\n      swap2\n      pop\n      pop\n      jump\t// out\n\n    auxdata: 0xa2646970667358221220b4b4090cea569a1608ab96ec996837f7d2c641a4f2553aa3cc6e5c8e03cdbc1064736f6c634300081e0033\n}\n",
				"bytecode": {
					"linkReferences": {},
					"object": "6080604052348015600e575f5ffd5b5061071d8061001c5f395ff3fe60806040526004361061003e575f3560e01c8063a9059cbb14610042578063d0e30db01461006a578063d4e9329214610074578063f8b2cb4f1461008a575b5f5ffd5b34801561004d575f5ffd5b5061006860048036038101906100639190610596565b6100c6565b005b61007261023f565b005b34801561007f575f5ffd5b50610088610338565b005b348015610095575f5ffd5b506100b060048036038101906100ab91906105d4565b61040d565b6040516100bd919061060e565b60405180910390f35b5f5f6100d13361045a565b915091508080156101045750825f83815481106100f1576100f0610627565b5b905f5260205f2090600202016001015410155b1561023957825f838154811061011d5761011c610627565b5b905f5260205f2090600202016001015f82825461013a9190610681565b9250508190555061014a8461045a565b8092508193505050801561019557825f838154811061016c5761016b610627565b5b905f5260205f2090600202016001015f82825461018991906106b4565b92505081905550610238565b5f60405180604001604052808673ffffffffffffffffffffffffffffffffffffffff16815260200185815250908060018154018082558091505060019003905f5260205f2090600202015f909190919091505f820151815f015f6101000a81548173ffffffffffffffffffffffffffffffffffffffff021916908373ffffffffffffffffffffffffffffffffffffffff1602179055506020820151816001015550505b5b50505050565b5f5f61024a3361045a565b91509150801561029157345f838154811061026857610267610627565b5b905f5260205f2090600202016001015f82825461028591906106b4565b92505081905550610334565b5f60405180604001604052803373ffffffffffffffffffffffffffffffffffffffff16815260200134815250908060018154018082558091505060019003905f5260205f2090600202015f909190919091505f820151815f015f6101000a81548173ffffffffffffffffffffffffffffffffffffffff021916908373ffffffffffffffffffffffffffffffffffffffff1602179055506020820151816001015550505b5050565b5f5f6103433361045a565b9150915080801561037657505f5f838154811061036357610362610627565b5b905f5260205f2090600202016001015414155b15610409573373ffffffffffffffffffffffffffffffffffffffff166108fc5f84815481106103a8576103a7610627565b5b905f5260205f2090600202016001015490811502906040515f60405180830381858888f193505050501580156103e0573d5f5f3e3d5ffd5b505f5f83815481106103f5576103f4610627565b5b905f5260205f209060020201600101819055505b5050565b5f5f5f6104198461045a565b91509150801561044f575f828154811061043657610435610627565b5b905f5260205f2090600202016001015492505050610455565b5f925050505b919050565b5f5f5f5f90505b5f805490508110156104f8578373ffffffffffffffffffffffffffffffffffffffff165f828154811061049757610496610627565b5b905f5260205f2090600202015f015f9054906101000a900473ffffffffffffffffffffffffffffffffffffffff1673ffffffffffffffffffffffffffffffffffffffff16036104ed578060019250925050610500565b806001019050610461565b505f5f915091505b915091565b5f5ffd5b5f73ffffffffffffffffffffffffffffffffffffffff82169050919050565b5f61053282610509565b9050919050565b61054281610528565b811461054c575f5ffd5b50565b5f8135905061055d81610539565b92915050565b5f819050919050565b61057581610563565b811461057f575f5ffd5b50565b5f813590506105908161056c565b92915050565b5f5f604083850312156105ac576105ab610505565b5b5f6105b98582860161054f565b92505060206105ca85828601610582565b9150509250929050565b5f602082840312156105e9576105e8610505565b5b5f6105f68482850161054f565b91505092915050565b61060881610563565b82525050565b5f6020820190506106215f8301846105ff565b92915050565b7f4e487b71000000000000000000000000000000000000000000000000000000005f52603260045260245ffd5b7f4e487b71000000000000000000000000000000000000000000000000000000005f52601160045260245ffd5b5f61068b82610563565b915061069683610563565b92508282039050818111156106ae576106ad610654565b5b92915050565b5f6106be82610563565b91506106c983610563565b92508282019050808211156106e1576106e0610654565b5b9291505056fea2646970667358221220b4b4090cea569a1608ab96ec996837f7d2c641a4f2553aa3cc6e5c8e03cdbc1064736f6c634300081e0033",
					"opcodes": "PUSH1 0x80 PUSH1 0x40 MSTORE CALLVALUE DUP1 ISZERO PUSH1 0xE JUMPI PUSH0 PUSH0 REVERT JUMPDEST POP PUSH2 0x71D DUP1 PUSH2 0x1C PUSH0 CODECOPY PUSH0 RETURN INVALID PUSH1 0x80 PUSH1 0x40 MSTORE PUSH1 0x4 CALLDATASIZE LT PUSH2 0x3E JUMPI PUSH0 CALLDATALOAD PUSH1 0xE0 SHR DUP1 PUSH4 0xA9059CBB EQ PUSH2 0x42 JUMPI DUP1 PUSH4 0xD0E30DB0 EQ PUSH2 0x6A JUMPI DUP1 PUSH4 0xD4E93292 EQ PUSH2 0x74 JUMPI DUP1 PUSH4 0xF8B2CB4F EQ PUSH2 0x8A JUMPI JUMPDEST PUSH0 PUSH0 REVERT JUMPDEST CALLVALUE DUP1 ISZERO PUSH2 0x4D JUMPI PUSH0 PUSH0 REVERT JUMPDEST POP PUSH2 0x68 PUSH1 0x4 DUP1 CALLDATASIZE SUB DUP2 ADD SWAP1 PUSH2 0x63 SWAP2 SWAP1 PUSH2 0x596 JUMP JUMPDEST PUSH2 0xC6 JUMP JUMPDEST STOP JUMPDEST PUSH2 0x72 PUSH2 0x23F JUMP JUMPDEST STOP JUMPDEST CALLVALUE DUP1 ISZERO PUSH2 0x7F JUMPI PUSH0 PUSH0 REVERT JUMPDEST POP PUSH2 0x88 PUSH2 0x338 JUMP JUMPDEST STOP JUMPDEST CALLVALUE DUP1 ISZERO PUSH2 0x95 JUMPI PUSH0 PUSH0 REVERT JUMPDEST POP PUSH2 0xB0 PUSH1 0x4 DUP1 CALLDATASIZE SUB DUP2 ADD SWAP1 PUSH2 0xAB SWAP2 SWAP1 PUSH2 0x5D4 JUMP JUMPDEST PUSH2 0x40D JUMP JUMPDEST PUSH1 0x40 MLOAD PUSH2 0xBD SWAP2 SWAP1 PUSH2 0x60E JUMP JUMPDEST PUSH1 0x40 MLOAD DUP1 SWAP2 SUB SWAP1 RETURN JUMPDEST PUSH0 PUSH0 PUSH2 0xD1 CALLER PUSH2 0x45A JUMP JUMPDEST SWAP2 POP SWAP2 POP DUP1 DUP1 ISZERO PUSH2 0x104 JUMPI POP DUP3 PUSH0 DUP4 DUP2 SLOAD DUP2 LT PUSH2 0xF1 JUMPI PUSH2 0xF0 PUSH2 0x627 JUMP JUMPDEST JUMPDEST SWAP1 PUSH0 MSTORE PUSH1 0x20 PUSH0 KECCAK256 SWAP1 PUSH1 0x2 MUL ADD PUSH1 0x1 ADD SLOAD LT ISZERO JUMPDEST ISZERO PUSH2 0x239 JUMPI DUP3 PUSH0 DUP4 DUP2 SLOAD DUP2 LT PUSH2 0x11D JUMPI PUSH2 0x11C PUSH2 0x627 JUMP JUMPDEST JUMPDEST SWAP1 PUSH0 MSTORE PUSH1 0x20 PUSH0 KECCAK256 SWAP1 PUSH1 0x2 MUL ADD PUSH1 0x1 ADD PUSH0 DUP3 DUP3 SLOAD PUSH2 0x13A SWAP2 SWAP1 PUSH2 0x681 JUMP JUMPDEST SWAP3 POP POP DUP2 SWAP1 SSTORE POP PUSH2 0x14A DUP5 PUSH2 0x45A JUMP JUMPDEST DUP1 SWAP3 POP DUP2 SWAP4 POP POP POP DUP1 ISZERO PUSH2 0x195 JUMPI DUP3 PUSH0 DUP4 DUP2 SLOAD DUP2 LT PUSH2 0x16C JUMPI PUSH2 0x16B PUSH2 0x627 JUMP JUMPDEST JUMPDEST SWAP1 PUSH0 MSTORE PUSH1 0x20 PUSH0 KECCAK256 SWAP1 PUSH1 0x2 MUL ADD PUSH1 0x1 ADD PUSH0 DUP3 DUP3 SLOAD PUSH2 0x189 SWAP2 SWAP1 PUSH2 0x6B4 JUMP JUMPDEST SWAP3 POP POP DUP2 SWAP1 SSTORE POP PUSH2 0x238 JUMP JUMPDEST PUSH0 PUSH1 0x40 MLOAD DUP1 PUSH1 0x40 ADD PUSH1 0x40 MSTORE DUP1 DUP7 PUSH20 0xFFFFFFFFFFFFFFFFFFFFFFFFFFFFFFFFFFFFFFFF AND DUP2 MSTORE PUSH1 0x20 ADD DUP6 DUP2 MSTORE POP SWAP1 DUP1 PUSH1 0x1 DUP2 SLOAD ADD DUP1 DUP3 SSTORE DUP1 SWAP2 POP POP PUSH1 0x1 SWAP1 SUB SWAP1 PUSH0 MSTORE PUSH1 0x20 PUSH0 KECCAK256 SWAP1 PUSH1 0x2 MUL ADD PUSH0 SWAP1 SWAP2 SWAP1 SWAP2 SWAP1 SWAP2 POP PUSH0 DUP3 ADD MLOAD DUP2 PUSH0 ADD PUSH0 PUSH2 0x100 EXP DUP2 SLOAD DUP2 PUSH20 0xFFFFFFFFFFFFFFFFFFFFFFFFFFFFFFFFFFFFFFFF MUL NOT AND SWAP1 DUP4 PUSH20 0xFFFFFFFFFFFFFFFFFFFFFFFFFFFFFFFFFFFFFFFF AND MUL OR SWAP1 SSTORE POP PUSH1 0x20 DUP3 ADD MLOAD DUP2 PUSH1 0x1 ADD SSTORE POP POP JUMPDEST JUMPDEST POP POP POP POP JUMP JUMPDEST PUSH0 PUSH0 PUSH2 0x24A CALLER PUSH2 0x45A JUMP JUMPDEST SWAP2 POP SWAP2 POP DUP1 ISZERO PUSH2 0x291 JUMPI CALLVALUE PUSH0 DUP4 DUP2 SLOAD DUP2 LT PUSH2 0x268 JUMPI PUSH2 0x267 PUSH2 0x627 JUMP JUMPDEST JUMPDEST SWAP1 PUSH0 MSTORE PUSH1 0x20 PUSH0 KECCAK256 SWAP1 PUSH1 0x2 MUL ADD PUSH1 0x1 ADD PUSH0 DUP3 DUP3 SLOAD PUSH2 0x285 SWAP2 SWAP1 PUSH2 0x6B4 JUMP JUMPDEST SWAP3 POP POP DUP2 SWAP1 SSTORE POP PUSH2 0x334 JUMP JUMPDEST PUSH0 PUSH1 0x40 MLOAD DUP1 PUSH1 0x40 ADD PUSH1 0x40 MSTORE DUP1 CALLER PUSH20 0xFFFFFFFFFFFFFFFFFFFFFFFFFFFFFFFFFFFFFFFF AND DUP2 MSTORE PUSH1 0x20 ADD CALLVALUE DUP2 MSTORE POP SWAP1 DUP1 PUSH1 0x1 DUP2 SLOAD ADD DUP1 DUP3 SSTORE DUP1 SWAP2 POP POP PUSH1 0x1 SWAP1 SUB SWAP1 PUSH0 MSTORE PUSH1 0x20 PUSH0 KECCAK256 SWAP1 PUSH1 0x2 MUL ADD PUSH0 SWAP1 SWAP2 SWAP1 SWAP2 SWAP1 SWAP2 POP PUSH0 DUP3 ADD MLOAD DUP2 PUSH0 ADD PUSH0 PUSH2 0x100 EXP DUP2 SLOAD DUP2 PUSH20 0xFFFFFFFFFFFFFFFFFFFFFFFFFFFFFFFFFFFFFFFF MUL NOT AND SWAP1 DUP4 PUSH20 0xFFFFFFFFFFFFFFFFFFFFFFFFFFFFFFFFFFFFFFFF AND MUL OR SWAP1 SSTORE POP PUSH1 0x20 DUP3 ADD MLOAD DUP2 PUSH1 0x1 ADD SSTORE POP POP JUMPDEST POP POP JUMP JUMPDEST PUSH0 PUSH0 PUSH2 0x343 CALLER PUSH2 0x45A JUMP JUMPDEST SWAP2 POP SWAP2 POP DUP1 DUP1 ISZERO PUSH2 0x376 JUMPI POP PUSH0 PUSH0 DUP4 DUP2 SLOAD DUP2 LT PUSH2 0x363 JUMPI PUSH2 0x362 PUSH2 0x627 JUMP JUMPDEST JUMPDEST SWAP1 PUSH0 MSTORE PUSH1 0x20 PUSH0 KECCAK256 SWAP1 PUSH1 0x2 MUL ADD PUSH1 0x1 ADD SLOAD EQ ISZERO JUMPDEST ISZERO PUSH2 0x409 JUMPI CALLER PUSH20 0xFFFFFFFFFFFFFFFFFFFFFFFFFFFFFFFFFFFFFFFF AND PUSH2 0x8FC PUSH0 DUP5 DUP2 SLOAD DUP2 LT PUSH2 0x3A8 JUMPI PUSH2 0x3A7 PUSH2 0x627 JUMP JUMPDEST JUMPDEST SWAP1 PUSH0 MSTORE PUSH1 0x20 PUSH0 KECCAK256 SWAP1 PUSH1 0x2 MUL ADD PUSH1 0x1 ADD SLOAD SWAP1 DUP2 ISZERO MUL SWAP1 PUSH1 0x40 MLOAD PUSH0 PUSH1 0x40 MLOAD DUP1 DUP4 SUB DUP2 DUP6 DUP9 DUP9 CALL SWAP4 POP POP POP POP ISZERO DUP1 ISZERO PUSH2 0x3E0 JUMPI RETURNDATASIZE PUSH0 PUSH0 RETURNDATACOPY RETURNDATASIZE PUSH0 REVERT JUMPDEST POP PUSH0 PUSH0 DUP4 DUP2 SLOAD DUP2 LT PUSH2 0x3F5 JUMPI PUSH2 0x3F4 PUSH2 0x627 JUMP JUMPDEST JUMPDEST SWAP1 PUSH0 MSTORE PUSH1 0x20 PUSH0 KECCAK256 SWAP1 PUSH1 0x2 MUL ADD PUSH1 0x1 ADD DUP2 SWAP1 SSTORE POP JUMPDEST POP POP JUMP JUMPDEST PUSH0 PUSH0 PUSH0 PUSH2 0x419 DUP5 PUSH2 0x45A JUMP JUMPDEST SWAP2 POP SWAP2 POP DUP1 ISZERO PUSH2 0x44F JUMPI PUSH0 DUP3 DUP2 SLOAD DUP2 LT PUSH2 0x436 JUMPI PUSH2 0x435 PUSH2 0x627 JUMP JUMPDEST JUMPDEST SWAP1 PUSH0 MSTORE PUSH1 0x20 PUSH0 KECCAK256 SWAP1 PUSH1 0x2 MUL ADD PUSH1 0x1 ADD SLOAD SWAP3 POP POP POP PUSH2 0x455 JUMP JUMPDEST PUSH0 SWAP3 POP POP POP JUMPDEST SWAP2 SWAP1 POP JUMP JUMPDEST PUSH0 PUSH0 PUSH0 PUSH0 SWAP1 POP JUMPDEST PUSH0 DUP1 SLOAD SWAP1 POP DUP2 LT ISZERO PUSH2 0x4F8 JUMPI DUP4 PUSH20 0xFFFFFFFFFFFFFFFFFFFFFFFFFFFFFFFFFFFFFFFF AND PUSH0 DUP3 DUP2 SLOAD DUP2 LT PUSH2 0x497 JUMPI PUSH2 0x496 PUSH2 0x627 JUMP JUMPDEST JUMPDEST SWAP1 PUSH0 MSTORE PUSH1 0x20 PUSH0 KECCAK256 SWAP1 PUSH1 0x2 MUL ADD PUSH0 ADD PUSH0 SWAP1 SLOAD SWAP1 PUSH2 0x100 EXP SWAP1 DIV PUSH20 0xFFFFFFFFFFFFFFFFFFFFFFFFFFFFFFFFFFFFFFFF AND PUSH20 0xFFFFFFFFFFFFFFFFFFFFFFFFFFFFFFFFFFFFFFFF AND SUB PUSH2 0x4ED JUMPI DUP1 PUSH1 0x1 SWAP3 POP SWAP3 POP POP PUSH2 0x500 JUMP JUMPDEST DUP1 PUSH1 0x1 ADD SWAP1 POP PUSH2 0x461 JUMP JUMPDEST POP PUSH0 PUSH0 SWAP2 POP SWAP2 POP JUMPDEST SWAP2 POP SWAP2 JUMP JUMPDEST PUSH0 PUSH0 REVERT JUMPDEST PUSH0 PUSH20 0xFFFFFFFFFFFFFFFFFFFFFFFFFFFFFFFFFFFFFFFF DUP3 AND SWAP1 POP SWAP2 SWAP1 POP JUMP JUMPDEST PUSH0 PUSH2 0x532 DUP3 PUSH2 0x509 JUMP JUMPDEST SWAP1 POP SWAP2 SWAP1 POP JUMP JUMPDEST PUSH2 0x542 DUP2 PUSH2 0x528 JUMP JUMPDEST DUP2 EQ PUSH2 0x54C JUMPI PUSH0 PUSH0 REVERT JUMPDEST POP JUMP JUMPDEST PUSH0 DUP2 CALLDATALOAD SWAP1 POP PUSH2 0x55D DUP2 PUSH2 0x539 JUMP JUMPDEST SWAP3 SWAP2 POP POP JUMP JUMPDEST PUSH0 DUP2 SWAP1 POP SWAP2 SWAP1 POP JUMP JUMPDEST PUSH2 0x575 DUP2 PUSH2 0x563 JUMP JUMPDEST DUP2 EQ PUSH2 0x57F JUMPI PUSH0 PUSH0 REVERT JUMPDEST POP JUMP JUMPDEST PUSH0 DUP2 CALLDATALOAD SWAP1 POP PUSH2 0x590 DUP2 PUSH2 0x56C JUMP JUMPDEST SWAP3 SWAP2 POP POP JUMP JUMPDEST PUSH0 PUSH0 PUSH1 0x40 DUP4 DUP6 SUB SLT ISZERO PUSH2 0x5AC JUMPI PUSH2 0x5AB PUSH2 0x505 JUMP JUMPDEST JUMPDEST PUSH0 PUSH2 0x5B9 DUP6 DUP3 DUP7 ADD PUSH2 0x54F JUMP JUMPDEST SWAP3 POP POP PUSH1 0x20 PUSH2 0x5CA DUP6 DUP3 DUP7 ADD PUSH2 0x582 JUMP JUMPDEST SWAP2 POP POP SWAP3 POP SWAP3 SWAP1 POP JUMP JUMPDEST PUSH0 PUSH1 0x20 DUP3 DUP5 SUB SLT ISZERO PUSH2 0x5E9 JUMPI PUSH2 0x5E8 PUSH2 0x505 JUMP JUMPDEST JUMPDEST PUSH0 PUSH2 0x5F6 DUP5 DUP3 DUP6 ADD PUSH2 0x54F JUMP JUMPDEST SWAP2 POP POP SWAP3 SWAP2 POP POP JUMP JUMPDEST PUSH2 0x608 DUP2 PUSH2 0x563 JUMP JUMPDEST DUP3 MSTORE POP POP JUMP JUMPDEST PUSH0 PUSH1 0x20 DUP3 ADD SWAP1 POP PUSH2 0x621 PUSH0 DUP4 ADD DUP5 PUSH2 0x5FF JUMP JUMPDEST SWAP3 SWAP2 POP POP JUMP JUMPDEST PUSH32 0x4E487B7100000000000000000000000000000000000000000000000000000000 PUSH0 MSTORE PUSH1 0x32 PUSH1 0x4 MSTORE PUSH1 0x24 PUSH0 REVERT JUMPDEST PUSH32 0x4E487B7100000000000000000000000000000000000000000000000000000000 PUSH0 MSTORE PUSH1 0x11 PUSH1 0x4 MSTORE PUSH1 0x24 PUSH0 REVERT JUMPDEST PUSH0 PUSH2 0x68B DUP3 PUSH2 0x563 JUMP JUMPDEST SWAP2 POP PUSH2 0x696 DUP4 PUSH2 0x563 JUMP JUMPDEST SWAP3 POP DUP3 DUP3 SUB SWAP1 POP DUP2 DUP2 GT ISZERO PUSH2 0x6AE JUMPI PUSH2 0x6AD PUSH2 0x654 JUMP JUMPDEST JUMPDEST SWAP3 SWAP2 POP POP JUMP JUMPDEST PUSH0 PUSH2 0x6BE DUP3 PUSH2 0x563 JUMP JUMPDEST SWAP2 POP PUSH2 0x6C9 DUP4 PUSH2 0x563 JUMP JUMPDEST SWAP3 POP DUP3 DUP3 ADD SWAP1 POP DUP1 DUP3 GT ISZERO PUSH2 0x6E1 JUMPI PUSH2 0x6E0 PUSH2 0x654 JUMP JUMPDEST JUMPDEST SWAP3 SWAP2 POP POP JUMP INVALID LOG2 PUSH5 0x6970667358 0x22 SLT KECCAK256 0xB4 0xB4 MULMOD 0xC 0xEA JUMP SWAP11 AND ADDMOD 0xAB SWAP7 EOFCREATE 0x99 PUSH9 0x37F7D2C641A4F2553A LOG3 0xCC PUSH15 0x5C8E03CDBC1064736F6C634300081E STOP CALLER "
				},
				"gasEstimates": {
					"creation": {
						"codeDepositCost": "364200",
						"executionCost": "397",
						"totalCost": "364597"
					},
					"external": {
						"deposit()": "infinite",
						"getBalance(address)": "infinite",
						"transfer(address,uint256)": "infinite",
						"withdrawal()": "infinite"
					},
					"internal": {
						"getAccountIndex(address)": "infinite"
					}
				},
				"methodIdentifiers": {
					"deposit()": "d0e30db0",
					"getBalance(address)": "f8b2cb4f",
					"transfer(address,uint256)": "a9059cbb",
					"withdrawal()": "d4e93292"
				}
			},
			"storageLayout": {
				"storage": [
					{
						"astId": 10,
						"contract": "contracts/上傳用/example04.sol:Example04",
						"label": "record",
						"offset": 0,
						"slot": "0",
						"type": "t_array(t_struct(Wallet)6_storage)dyn_storage"
					}
				],
				"types": {
					"t_address": {
						"encoding": "inplace",
						"label": "address",
						"numberOfBytes": "20"
					},
					"t_array(t_struct(Wallet)6_storage)dyn_storage": {
						"base": "t_struct(Wallet)6_storage",
						"encoding": "dynamic_array",
						"label": "struct Example04.Wallet[]",
						"numberOfBytes": "32"
					},
					"t_struct(Wallet)6_storage": {
						"encoding": "inplace",
						"label": "struct Example04.Wallet",
						"members": [
							{
								"astId": 3,
								"contract": "contracts/上傳用/example04.sol:Example04",
								"label": "account",
								"offset": 0,
								"slot": "0",
								"type": "t_address"
							},
							{
								"astId": 5,
								"contract": "contracts/上傳用/example04.sol:Example04",
								"label": "amount",
								"offset": 0,
								"slot": "1",
								"type": "t_uint256"
							}
						],
						"numberOfBytes": "64"
					},
					"t_uint256": {
						"encoding": "inplace",
						"label": "uint256",
						"numberOfBytes": "32"
					}
				}
			},
			"userdoc": {
				"kind": "user",
				"methods": {},
				"version": 1
			}
		}
	}
}