{
	"contracts/week15/example02.sol": {
		"Example02": {
			"abi": [
				{
					"inputs": [],
					"name": "deposit",
					"outputs": [],
					"stateMutability": "payable",
					"type": "function"
				},
				{
					"inputs": [],
					"name": "getBalance",
					"outputs": [
						{
							"internalType": "uint256",
							"name": "",
							"type": "uint256"
						}
					],
					"stateMutability": "view",
					"type": "function"
				},
				{
					"inputs": [
						{
							"internalType": "uint256",
							"name": "amount",
							"type": "uint256"
						}
					],
					"name": "sendWithdraw",
					"outputs": [
						{
							"internalType": "bool",
							"name": "",
							"type": "bool"
						}
					],
					"stateMutability": "nonpayable",
					"type": "function"
				},
				{
					"inputs": [],
					"name": "setAdmin",
					"outputs": [],
					"stateMutability": "nonpayable",
					"type": "function"
				},
				{
					"inputs": [
						{
							"internalType": "uint256",
							"name": "amount",
							"type": "uint256"
						}
					],
					"name": "transferWithdraw",
					"outputs": [],
					"stateMutability": "nonpayable",
					"type": "function"
				}
			],
			"devdoc": {
				"kind": "dev",
				"methods": {},
				"version": 1
			},
			"evm": {
				"assembly": "    /* \"contracts/week15/example02.sol\":62:836  contract Example02 {... */\n  mstore(0x40, 0x80)\n  callvalue\n  dup1\n  iszero\n  tag_1\n  jumpi\n  revert(0x00, 0x00)\ntag_1:\n  pop\n  dataSize(sub_0)\n  dup1\n  dataOffset(sub_0)\n  0x00\n  codecopy\n  0x00\n  return\nstop\n\nsub_0: assembly {\n        /* \"contracts/week15/example02.sol\":62:836  contract Example02 {... */\n      mstore(0x40, 0x80)\n      jumpi(tag_1, lt(calldatasize, 0x04))\n      shr(0xe0, calldataload(0x00))\n      dup1\n      0x12065fe0\n      eq\n      tag_2\n      jumpi\n      dup1\n      0x2cae2096\n      eq\n      tag_3\n      jumpi\n      dup1\n      0x301e4f60\n      eq\n      tag_4\n      jumpi\n      dup1\n      0xa1364123\n      eq\n      tag_5\n      jumpi\n      dup1\n      0xd0e30db0\n      eq\n      tag_6\n      jumpi\n    tag_1:\n      revert(0x00, 0x00)\n        /* \"contracts/week15/example02.sol\":754:834  function getBalance()public view returns(uint256){... */\n    tag_2:\n      callvalue\n      dup1\n      iszero\n      tag_7\n      jumpi\n      revert(0x00, 0x00)\n    tag_7:\n      pop\n      tag_8\n      tag_9\n      jump\t// in\n    tag_8:\n      mload(0x40)\n      tag_10\n      swap2\n      swap1\n      tag_11\n      jump\t// in\n    tag_10:\n      mload(0x40)\n      dup1\n      swap2\n      sub\n      swap1\n      return\n        /* \"contracts/week15/example02.sol\":136:208  function setAdmin() public {... */\n    tag_3:\n      callvalue\n      dup1\n      iszero\n      tag_12\n      jumpi\n      revert(0x00, 0x00)\n    tag_12:\n      pop\n      tag_13\n      tag_14\n      jump\t// in\n    tag_13:\n      stop\n        /* \"contracts/week15/example02.sol\":291:515  function sendWithdraw(uint256 amount) public returns (bool) {... */\n    tag_4:\n      callvalue\n      dup1\n      iszero\n      tag_15\n      jumpi\n      revert(0x00, 0x00)\n    tag_15:\n      pop\n      tag_16\n      0x04\n      dup1\n      calldatasize\n      sub\n      dup2\n      add\n      swap1\n      tag_17\n      swap2\n      swap1\n      tag_18\n      jump\t// in\n    tag_17:\n      tag_19\n      jump\t// in\n    tag_16:\n      mload(0x40)\n      tag_20\n      swap2\n      swap1\n      tag_21\n      jump\t// in\n    tag_20:\n      mload(0x40)\n      dup1\n      swap2\n      sub\n      swap1\n      return\n        /* \"contracts/week15/example02.sol\":521:737  function transferWithdraw(uint256 amount) public {... */\n    tag_5:\n      callvalue\n      dup1\n      iszero\n      tag_22\n      jumpi\n      revert(0x00, 0x00)\n    tag_22:\n      pop\n      tag_23\n      0x04\n      dup1\n      calldatasize\n      sub\n      dup2\n      add\n      swap1\n      tag_24\n      swap2\n      swap1\n      tag_18\n      jump\t// in\n    tag_24:\n      tag_25\n      jump\t// in\n    tag_23:\n      stop\n        /* \"contracts/week15/example02.sol\":214:285  function deposit() public payable {... */\n    tag_6:\n      tag_26\n      tag_27\n      jump\t// in\n    tag_26:\n      stop\n        /* \"contracts/week15/example02.sol\":754:834  function getBalance()public view returns(uint256){... */\n    tag_9:\n        /* \"contracts/week15/example02.sol\":795:802  uint256 */\n      0x00\n        /* \"contracts/week15/example02.sol\":820:827  balance */\n      sload(0x01)\n        /* \"contracts/week15/example02.sol\":813:827  return balance */\n      swap1\n      pop\n        /* \"contracts/week15/example02.sol\":754:834  function getBalance()public view returns(uint256){... */\n      swap1\n      jump\t// out\n        /* \"contracts/week15/example02.sol\":136:208  function setAdmin() public {... */\n    tag_14:\n        /* \"contracts/week15/example02.sol\":190:200  msg.sender */\n      caller\n        /* \"contracts/week15/example02.sol\":173:178  admin */\n      0x00\n      0x00\n        /* \"contracts/week15/example02.sol\":173:201  admin = payable (msg.sender) */\n      0x0100\n      exp\n      dup2\n      sload\n      dup2\n      0xffffffffffffffffffffffffffffffffffffffff\n      mul\n      not\n      and\n      swap1\n      dup4\n      0xffffffffffffffffffffffffffffffffffffffff\n      and\n      mul\n      or\n      swap1\n      sstore\n      pop\n        /* \"contracts/week15/example02.sol\":136:208  function setAdmin() public {... */\n      jump\t// out\n        /* \"contracts/week15/example02.sol\":291:515  function sendWithdraw(uint256 amount) public returns (bool) {... */\n    tag_19:\n        /* \"contracts/week15/example02.sol\":345:349  bool */\n      0x00\n        /* \"contracts/week15/example02.sol\":361:373  bool success */\n      0x00\n        /* \"contracts/week15/example02.sol\":376:381  admin */\n      0x00\n      0x00\n      swap1\n      sload\n      swap1\n      0x0100\n      exp\n      swap1\n      div\n      0xffffffffffffffffffffffffffffffffffffffff\n      and\n        /* \"contracts/week15/example02.sol\":376:386  admin.send */\n      0xffffffffffffffffffffffffffffffffffffffff\n      and\n        /* \"contracts/week15/example02.sol\":376:394  admin.send(amount) */\n      0x08fc\n        /* \"contracts/week15/example02.sol\":387:393  amount */\n      dup5\n        /* \"contracts/week15/example02.sol\":376:394  admin.send(amount) */\n      swap1\n      dup2\n      iszero\n      mul\n      swap1\n      mload(0x40)\n      0x00\n      mload(0x40)\n      dup1\n      dup4\n      sub\n      dup2\n      dup6\n      dup9\n      dup9\n      call\n      swap4\n      pop\n      pop\n      pop\n      pop\n        /* \"contracts/week15/example02.sol\":361:394  bool success = admin.send(amount) */\n      swap1\n      pop\n        /* \"contracts/week15/example02.sol\":408:415  success */\n      dup1\n        /* \"contracts/week15/example02.sol\":404:484  if(!success) revert(\"Insufficient balance! (message is send from sendWithdraw)\") */\n      tag_32\n      jumpi\n        /* \"contracts/week15/example02.sol\":417:484  revert(\"Insufficient balance! (message is send from sendWithdraw)\") */\n      mload(0x40)\n      0x08c379a000000000000000000000000000000000000000000000000000000000\n      dup2\n      mstore\n      0x04\n      add\n      tag_33\n      swap1\n      tag_34\n      jump\t// in\n    tag_33:\n      mload(0x40)\n      dup1\n      swap2\n      sub\n      swap1\n      revert\n        /* \"contracts/week15/example02.sol\":404:484  if(!success) revert(\"Insufficient balance! (message is send from sendWithdraw)\") */\n    tag_32:\n        /* \"contracts/week15/example02.sol\":501:508  success */\n      dup1\n        /* \"contracts/week15/example02.sol\":494:508  return success */\n      swap2\n      pop\n      pop\n        /* \"contracts/week15/example02.sol\":291:515  function sendWithdraw(uint256 amount) public returns (bool) {... */\n      swap2\n      swap1\n      pop\n      jump\t// out\n        /* \"contracts/week15/example02.sol\":521:737  function transferWithdraw(uint256 amount) public {... */\n    tag_25:\n        /* \"contracts/week15/example02.sol\":599:605  amount */\n      dup1\n        /* \"contracts/week15/example02.sol\":588:595  balance */\n      sload(0x01)\n        /* \"contracts/week15/example02.sol\":588:605  balance >= amount */\n      lt\n      iszero\n        /* \"contracts/week15/example02.sol\":580:671  require(balance >= amount ,\"Insufficient balance! (message is send from transferWithdraw)\") */\n      tag_36\n      jumpi\n      mload(0x40)\n      0x08c379a000000000000000000000000000000000000000000000000000000000\n      dup2\n      mstore\n      0x04\n      add\n      tag_37\n      swap1\n      tag_38\n      jump\t// in\n    tag_37:\n      mload(0x40)\n      dup1\n      swap2\n      sub\n      swap1\n      revert\n    tag_36:\n        /* \"contracts/week15/example02.sol\":681:686  admin */\n      0x00\n      0x00\n      swap1\n      sload\n      swap1\n      0x0100\n      exp\n      swap1\n      div\n      0xffffffffffffffffffffffffffffffffffffffff\n      and\n        /* \"contracts/week15/example02.sol\":681:695  admin.transfer */\n      0xffffffffffffffffffffffffffffffffffffffff\n      and\n        /* \"contracts/week15/example02.sol\":681:703  admin.transfer(amount) */\n      0x08fc\n        /* \"contracts/week15/example02.sol\":696:702  amount */\n      dup3\n        /* \"contracts/week15/example02.sol\":681:703  admin.transfer(amount) */\n      swap1\n      dup2\n      iszero\n      mul\n      swap1\n      mload(0x40)\n      0x00\n      mload(0x40)\n      dup1\n      dup4\n      sub\n      dup2\n      dup6\n      dup9\n      dup9\n      call\n      swap4\n      pop\n      pop\n      pop\n      pop\n      iszero\n      dup1\n      iszero\n      tag_40\n      jumpi\n      returndatacopy(0x00, 0x00, returndatasize)\n      revert(0x00, returndatasize)\n    tag_40:\n      pop\n        /* \"contracts/week15/example02.sol\":724:730  amount */\n      dup1\n        /* \"contracts/week15/example02.sol\":713:720  balance */\n      0x01\n      0x00\n        /* \"contracts/week15/example02.sol\":713:730  balance -= amount */\n      dup3\n      dup3\n      sload\n      tag_41\n      swap2\n      swap1\n      tag_42\n      jump\t// in\n    tag_41:\n      swap3\n      pop\n      pop\n      dup2\n      swap1\n      sstore\n      pop\n        /* \"contracts/week15/example02.sol\":521:737  function transferWithdraw(uint256 amount) public {... */\n      pop\n      jump\t// out\n        /* \"contracts/week15/example02.sol\":214:285  function deposit() public payable {... */\n    tag_27:\n        /* \"contracts/week15/example02.sol\":269:278  msg.value */\n      callvalue\n        /* \"contracts/week15/example02.sol\":258:265  balance */\n      0x01\n      0x00\n        /* \"contracts/week15/example02.sol\":258:278  balance += msg.value */\n      dup3\n      dup3\n      sload\n      tag_44\n      swap2\n      swap1\n      tag_45\n      jump\t// in\n    tag_44:\n      swap3\n      pop\n      pop\n      dup2\n      swap1\n      sstore\n      pop\n        /* \"contracts/week15/example02.sol\":214:285  function deposit() public payable {... */\n      jump\t// out\n        /* \"#utility.yul\":7:84   */\n    tag_46:\n        /* \"#utility.yul\":44:51   */\n      0x00\n        /* \"#utility.yul\":73:78   */\n      dup2\n        /* \"#utility.yul\":62:78   */\n      swap1\n      pop\n        /* \"#utility.yul\":7:84   */\n      swap2\n      swap1\n      pop\n      jump\t// out\n        /* \"#utility.yul\":90:208   */\n    tag_47:\n        /* \"#utility.yul\":177:201   */\n      tag_64\n        /* \"#utility.yul\":195:200   */\n      dup2\n        /* \"#utility.yul\":177:201   */\n      tag_46\n      jump\t// in\n    tag_64:\n        /* \"#utility.yul\":172:175   */\n      dup3\n        /* \"#utility.yul\":165:202   */\n      mstore\n        /* \"#utility.yul\":90:208   */\n      pop\n      pop\n      jump\t// out\n        /* \"#utility.yul\":214:436   */\n    tag_11:\n        /* \"#utility.yul\":307:311   */\n      0x00\n        /* \"#utility.yul\":345:347   */\n      0x20\n        /* \"#utility.yul\":334:343   */\n      dup3\n        /* \"#utility.yul\":330:348   */\n      add\n        /* \"#utility.yul\":322:348   */\n      swap1\n      pop\n        /* \"#utility.yul\":358:429   */\n      tag_66\n        /* \"#utility.yul\":426:427   */\n      0x00\n        /* \"#utility.yul\":415:424   */\n      dup4\n        /* \"#utility.yul\":411:428   */\n      add\n        /* \"#utility.yul\":402:408   */\n      dup5\n        /* \"#utility.yul\":358:429   */\n      tag_47\n      jump\t// in\n    tag_66:\n        /* \"#utility.yul\":214:436   */\n      swap3\n      swap2\n      pop\n      pop\n      jump\t// out\n        /* \"#utility.yul\":523:640   */\n    tag_49:\n        /* \"#utility.yul\":632:633   */\n      0x00\n        /* \"#utility.yul\":629:630   */\n      0x00\n        /* \"#utility.yul\":622:634   */\n      revert\n        /* \"#utility.yul\":769:891   */\n    tag_51:\n        /* \"#utility.yul\":842:866   */\n      tag_71\n        /* \"#utility.yul\":860:865   */\n      dup2\n        /* \"#utility.yul\":842:866   */\n      tag_46\n      jump\t// in\n    tag_71:\n        /* \"#utility.yul\":835:840   */\n      dup2\n        /* \"#utility.yul\":832:867   */\n      eq\n        /* \"#utility.yul\":822:885   */\n      tag_72\n      jumpi\n        /* \"#utility.yul\":881:882   */\n      0x00\n        /* \"#utility.yul\":878:879   */\n      0x00\n        /* \"#utility.yul\":871:883   */\n      revert\n        /* \"#utility.yul\":822:885   */\n    tag_72:\n        /* \"#utility.yul\":769:891   */\n      pop\n      jump\t// out\n        /* \"#utility.yul\":897:1036   */\n    tag_52:\n        /* \"#utility.yul\":943:948   */\n      0x00\n        /* \"#utility.yul\":981:987   */\n      dup2\n        /* \"#utility.yul\":968:988   */\n      calldataload\n        /* \"#utility.yul\":959:988   */\n      swap1\n      pop\n        /* \"#utility.yul\":997:1030   */\n      tag_74\n        /* \"#utility.yul\":1024:1029   */\n      dup2\n        /* \"#utility.yul\":997:1030   */\n      tag_51\n      jump\t// in\n    tag_74:\n        /* \"#utility.yul\":897:1036   */\n      swap3\n      swap2\n      pop\n      pop\n      jump\t// out\n        /* \"#utility.yul\":1042:1371   */\n    tag_18:\n        /* \"#utility.yul\":1101:1107   */\n      0x00\n        /* \"#utility.yul\":1150:1152   */\n      0x20\n        /* \"#utility.yul\":1138:1147   */\n      dup3\n        /* \"#utility.yul\":1129:1136   */\n      dup5\n        /* \"#utility.yul\":1125:1148   */\n      sub\n        /* \"#utility.yul\":1121:1153   */\n      slt\n        /* \"#utility.yul\":1118:1237   */\n      iszero\n      tag_76\n      jumpi\n        /* \"#utility.yul\":1156:1235   */\n      tag_77\n      tag_49\n      jump\t// in\n    tag_77:\n        /* \"#utility.yul\":1118:1237   */\n    tag_76:\n        /* \"#utility.yul\":1276:1277   */\n      0x00\n        /* \"#utility.yul\":1301:1354   */\n      tag_78\n        /* \"#utility.yul\":1346:1353   */\n      dup5\n        /* \"#utility.yul\":1337:1343   */\n      dup3\n        /* \"#utility.yul\":1326:1335   */\n      dup6\n        /* \"#utility.yul\":1322:1344   */\n      add\n        /* \"#utility.yul\":1301:1354   */\n      tag_52\n      jump\t// in\n    tag_78:\n        /* \"#utility.yul\":1291:1354   */\n      swap2\n      pop\n        /* \"#utility.yul\":1247:1364   */\n      pop\n        /* \"#utility.yul\":1042:1371   */\n      swap3\n      swap2\n      pop\n      pop\n      jump\t// out\n        /* \"#utility.yul\":1377:1467   */\n    tag_53:\n        /* \"#utility.yul\":1411:1418   */\n      0x00\n        /* \"#utility.yul\":1454:1459   */\n      dup2\n        /* \"#utility.yul\":1447:1460   */\n      iszero\n        /* \"#utility.yul\":1440:1461   */\n      iszero\n        /* \"#utility.yul\":1429:1461   */\n      swap1\n      pop\n        /* \"#utility.yul\":1377:1467   */\n      swap2\n      swap1\n      pop\n      jump\t// out\n        /* \"#utility.yul\":1473:1582   */\n    tag_54:\n        /* \"#utility.yul\":1554:1575   */\n      tag_81\n        /* \"#utility.yul\":1569:1574   */\n      dup2\n        /* \"#utility.yul\":1554:1575   */\n      tag_53\n      jump\t// in\n    tag_81:\n        /* \"#utility.yul\":1549:1552   */\n      dup3\n        /* \"#utility.yul\":1542:1576   */\n      mstore\n        /* \"#utility.yul\":1473:1582   */\n      pop\n      pop\n      jump\t// out\n        /* \"#utility.yul\":1588:1798   */\n    tag_21:\n        /* \"#utility.yul\":1675:1679   */\n      0x00\n        /* \"#utility.yul\":1713:1715   */\n      0x20\n        /* \"#utility.yul\":1702:1711   */\n      dup3\n        /* \"#utility.yul\":1698:1716   */\n      add\n        /* \"#utility.yul\":1690:1716   */\n      swap1\n      pop\n        /* \"#utility.yul\":1726:1791   */\n      tag_83\n        /* \"#utility.yul\":1788:1789   */\n      0x00\n        /* \"#utility.yul\":1777:1786   */\n      dup4\n        /* \"#utility.yul\":1773:1790   */\n      add\n        /* \"#utility.yul\":1764:1770   */\n      dup5\n        /* \"#utility.yul\":1726:1791   */\n      tag_54\n      jump\t// in\n    tag_83:\n        /* \"#utility.yul\":1588:1798   */\n      swap3\n      swap2\n      pop\n      pop\n      jump\t// out\n        /* \"#utility.yul\":1804:1973   */\n    tag_55:\n        /* \"#utility.yul\":1888:1899   */\n      0x00\n        /* \"#utility.yul\":1922:1928   */\n      dup3\n        /* \"#utility.yul\":1917:1920   */\n      dup3\n        /* \"#utility.yul\":1910:1929   */\n      mstore\n        /* \"#utility.yul\":1962:1966   */\n      0x20\n        /* \"#utility.yul\":1957:1960   */\n      dup3\n        /* \"#utility.yul\":1953:1967   */\n      add\n        /* \"#utility.yul\":1938:1967   */\n      swap1\n      pop\n        /* \"#utility.yul\":1804:1973   */\n      swap3\n      swap2\n      pop\n      pop\n      jump\t// out\n        /* \"#utility.yul\":1979:2223   */\n    tag_56:\n        /* \"#utility.yul\":2119:2153   */\n      0x496e73756666696369656e742062616c616e63652120286d6573736167652069\n        /* \"#utility.yul\":2115:2116   */\n      0x00\n        /* \"#utility.yul\":2107:2113   */\n      dup3\n        /* \"#utility.yul\":2103:2117   */\n      add\n        /* \"#utility.yul\":2096:2154   */\n      mstore\n        /* \"#utility.yul\":2188:2215   */\n      0x732073656e642066726f6d2073656e6457697468647261772900000000000000\n        /* \"#utility.yul\":2183:2185   */\n      0x20\n        /* \"#utility.yul\":2175:2181   */\n      dup3\n        /* \"#utility.yul\":2171:2186   */\n      add\n        /* \"#utility.yul\":2164:2216   */\n      mstore\n        /* \"#utility.yul\":1979:2223   */\n      pop\n      jump\t// out\n        /* \"#utility.yul\":2229:2595   */\n    tag_57:\n        /* \"#utility.yul\":2371:2374   */\n      0x00\n        /* \"#utility.yul\":2392:2459   */\n      tag_87\n        /* \"#utility.yul\":2456:2458   */\n      0x39\n        /* \"#utility.yul\":2451:2454   */\n      dup4\n        /* \"#utility.yul\":2392:2459   */\n      tag_55\n      jump\t// in\n    tag_87:\n        /* \"#utility.yul\":2385:2459   */\n      swap2\n      pop\n        /* \"#utility.yul\":2468:2561   */\n      tag_88\n        /* \"#utility.yul\":2557:2560   */\n      dup3\n        /* \"#utility.yul\":2468:2561   */\n      tag_56\n      jump\t// in\n    tag_88:\n        /* \"#utility.yul\":2586:2588   */\n      0x40\n        /* \"#utility.yul\":2581:2584   */\n      dup3\n        /* \"#utility.yul\":2577:2589   */\n      add\n        /* \"#utility.yul\":2570:2589   */\n      swap1\n      pop\n        /* \"#utility.yul\":2229:2595   */\n      swap2\n      swap1\n      pop\n      jump\t// out\n        /* \"#utility.yul\":2601:3020   */\n    tag_34:\n        /* \"#utility.yul\":2767:2771   */\n      0x00\n        /* \"#utility.yul\":2805:2807   */\n      0x20\n        /* \"#utility.yul\":2794:2803   */\n      dup3\n        /* \"#utility.yul\":2790:2808   */\n      add\n        /* \"#utility.yul\":2782:2808   */\n      swap1\n      pop\n        /* \"#utility.yul\":2854:2863   */\n      dup2\n        /* \"#utility.yul\":2848:2852   */\n      dup2\n        /* \"#utility.yul\":2844:2864   */\n      sub\n        /* \"#utility.yul\":2840:2841   */\n      0x00\n        /* \"#utility.yul\":2829:2838   */\n      dup4\n        /* \"#utility.yul\":2825:2842   */\n      add\n        /* \"#utility.yul\":2818:2865   */\n      mstore\n        /* \"#utility.yul\":2882:3013   */\n      tag_90\n        /* \"#utility.yul\":3008:3012   */\n      dup2\n        /* \"#utility.yul\":2882:3013   */\n      tag_57\n      jump\t// in\n    tag_90:\n        /* \"#utility.yul\":2874:3013   */\n      swap1\n      pop\n        /* \"#utility.yul\":2601:3020   */\n      swap2\n      swap1\n      pop\n      jump\t// out\n        /* \"#utility.yul\":3026:3274   */\n    tag_58:\n        /* \"#utility.yul\":3166:3200   */\n      0x496e73756666696369656e742062616c616e63652120286d6573736167652069\n        /* \"#utility.yul\":3162:3163   */\n      0x00\n        /* \"#utility.yul\":3154:3160   */\n      dup3\n        /* \"#utility.yul\":3150:3164   */\n      add\n        /* \"#utility.yul\":3143:3201   */\n      mstore\n        /* \"#utility.yul\":3235:3266   */\n      0x732073656e642066726f6d207472616e73666572576974686472617729000000\n        /* \"#utility.yul\":3230:3232   */\n      0x20\n        /* \"#utility.yul\":3222:3228   */\n      dup3\n        /* \"#utility.yul\":3218:3233   */\n      add\n        /* \"#utility.yul\":3211:3267   */\n      mstore\n        /* \"#utility.yul\":3026:3274   */\n      pop\n      jump\t// out\n        /* \"#utility.yul\":3280:3646   */\n    tag_59:\n        /* \"#utility.yul\":3422:3425   */\n      0x00\n        /* \"#utility.yul\":3443:3510   */\n      tag_93\n        /* \"#utility.yul\":3507:3509   */\n      0x3d\n        /* \"#utility.yul\":3502:3505   */\n      dup4\n        /* \"#utility.yul\":3443:3510   */\n      tag_55\n      jump\t// in\n    tag_93:\n        /* \"#utility.yul\":3436:3510   */\n      swap2\n      pop\n        /* \"#utility.yul\":3519:3612   */\n      tag_94\n        /* \"#utility.yul\":3608:3611   */\n      dup3\n        /* \"#utility.yul\":3519:3612   */\n      tag_58\n      jump\t// in\n    tag_94:\n        /* \"#utility.yul\":3637:3639   */\n      0x40\n        /* \"#utility.yul\":3632:3635   */\n      dup3\n        /* \"#utility.yul\":3628:3640   */\n      add\n        /* \"#utility.yul\":3621:3640   */\n      swap1\n      pop\n        /* \"#utility.yul\":3280:3646   */\n      swap2\n      swap1\n      pop\n      jump\t// out\n        /* \"#utility.yul\":3652:4071   */\n    tag_38:\n        /* \"#utility.yul\":3818:3822   */\n      0x00\n        /* \"#utility.yul\":3856:3858   */\n      0x20\n        /* \"#utility.yul\":3845:3854   */\n      dup3\n        /* \"#utility.yul\":3841:3859   */\n      add\n        /* \"#utility.yul\":3833:3859   */\n      swap1\n      pop\n        /* \"#utility.yul\":3905:3914   */\n      dup2\n        /* \"#utility.yul\":3899:3903   */\n      dup2\n        /* \"#utility.yul\":3895:3915   */\n      sub\n        /* \"#utility.yul\":3891:3892   */\n      0x00\n        /* \"#utility.yul\":3880:3889   */\n      dup4\n        /* \"#utility.yul\":3876:3893   */\n      add\n        /* \"#utility.yul\":3869:3916   */\n      mstore\n        /* \"#utility.yul\":3933:4064   */\n      tag_96\n        /* \"#utility.yul\":4059:4063   */\n      dup2\n        /* \"#utility.yul\":3933:4064   */\n      tag_59\n      jump\t// in\n    tag_96:\n        /* \"#utility.yul\":3925:4064   */\n      swap1\n      pop\n        /* \"#utility.yul\":3652:4071   */\n      swap2\n      swap1\n      pop\n      jump\t// out\n        /* \"#utility.yul\":4077:4257   */\n    tag_60:\n        /* \"#utility.yul\":4125:4202   */\n      0x4e487b7100000000000000000000000000000000000000000000000000000000\n        /* \"#utility.yul\":4122:4123   */\n      0x00\n        /* \"#utility.yul\":4115:4203   */\n      mstore\n        /* \"#utility.yul\":4222:4226   */\n      0x11\n        /* \"#utility.yul\":4219:4220   */\n      0x04\n        /* \"#utility.yul\":4212:4227   */\n      mstore\n        /* \"#utility.yul\":4246:4250   */\n      0x24\n        /* \"#utility.yul\":4243:4244   */\n      0x00\n        /* \"#utility.yul\":4236:4251   */\n      revert\n        /* \"#utility.yul\":4263:4457   */\n    tag_42:\n        /* \"#utility.yul\":4303:4307   */\n      0x00\n        /* \"#utility.yul\":4323:4343   */\n      tag_99\n        /* \"#utility.yul\":4341:4342   */\n      dup3\n        /* \"#utility.yul\":4323:4343   */\n      tag_46\n      jump\t// in\n    tag_99:\n        /* \"#utility.yul\":4318:4343   */\n      swap2\n      pop\n        /* \"#utility.yul\":4357:4377   */\n      tag_100\n        /* \"#utility.yul\":4375:4376   */\n      dup4\n        /* \"#utility.yul\":4357:4377   */\n      tag_46\n      jump\t// in\n    tag_100:\n        /* \"#utility.yul\":4352:4377   */\n      swap3\n      pop\n        /* \"#utility.yul\":4401:4402   */\n      dup3\n        /* \"#utility.yul\":4398:4399   */\n      dup3\n        /* \"#utility.yul\":4394:4403   */\n      sub\n        /* \"#utility.yul\":4386:4403   */\n      swap1\n      pop\n        /* \"#utility.yul\":4425:4426   */\n      dup2\n        /* \"#utility.yul\":4419:4423   */\n      dup2\n        /* \"#utility.yul\":4416:4427   */\n      gt\n        /* \"#utility.yul\":4413:4450   */\n      iszero\n      tag_101\n      jumpi\n        /* \"#utility.yul\":4430:4448   */\n      tag_102\n      tag_60\n      jump\t// in\n    tag_102:\n        /* \"#utility.yul\":4413:4450   */\n    tag_101:\n        /* \"#utility.yul\":4263:4457   */\n      swap3\n      swap2\n      pop\n      pop\n      jump\t// out\n        /* \"#utility.yul\":4463:4654   */\n    tag_45:\n        /* \"#utility.yul\":4503:4506   */\n      0x00\n        /* \"#utility.yul\":4522:4542   */\n      tag_104\n        /* \"#utility.yul\":4540:4541   */\n      dup3\n        /* \"#utility.yul\":4522:4542   */\n      tag_46\n      jump\t// in\n    tag_104:\n        /* \"#utility.yul\":4517:4542   */\n      swap2\n      pop\n        /* \"#utility.yul\":4556:4576   */\n      tag_105\n        /* \"#utility.yul\":4574:4575   */\n      dup4\n        /* \"#utility.yul\":4556:4576   */\n      tag_46\n      jump\t// in\n    tag_105:\n        /* \"#utility.yul\":4551:4576   */\n      swap3\n      pop\n        /* \"#utility.yul\":4599:4600   */\n      dup3\n        /* \"#utility.yul\":4596:4597   */\n      dup3\n        /* \"#utility.yul\":4592:4601   */\n      add\n        /* \"#utility.yul\":4585:4601   */\n      swap1\n      pop\n        /* \"#utility.yul\":4620:4623   */\n      dup1\n        /* \"#utility.yul\":4617:4618   */\n      dup3\n        /* \"#utility.yul\":4614:4624   */\n      gt\n        /* \"#utility.yul\":4611:4647   */\n      iszero\n      tag_106\n      jumpi\n        /* \"#utility.yul\":4627:4645   */\n      tag_107\n      tag_60\n      jump\t// in\n    tag_107:\n        /* \"#utility.yul\":4611:4647   */\n    tag_106:\n        /* \"#utility.yul\":4463:4654   */\n      swap3\n      swap2\n      pop\n      pop\n      jump\t// out\n\n    auxdata: 0xa2646970667358221220393877297db13a2baf6dd3a6806db7bebc0f60b5e8769c4329ce18f8d2647ed264736f6c634300081e0033\n}\n",
				"bytecode": {
					"linkReferences": {},
					"object": "6080604052348015600e575f5ffd5b506105768061001c5f395ff3fe608060405260043610610049575f3560e01c806312065fe01461004d5780632cae209614610077578063301e4f601461008d578063a1364123146100c9578063d0e30db0146100f1575b5f5ffd5b348015610058575f5ffd5b506100616100fb565b60405161006e91906102dc565b60405180910390f35b348015610082575f5ffd5b5061008b610104565b005b348015610098575f5ffd5b506100b360048036038101906100ae9190610323565b610145565b6040516100c09190610368565b60405180910390f35b3480156100d4575f5ffd5b506100ef60048036038101906100ea9190610323565b6101e6565b005b6100f96102aa565b005b5f600154905090565b335f5f6101000a81548173ffffffffffffffffffffffffffffffffffffffff021916908373ffffffffffffffffffffffffffffffffffffffff160217905550565b5f5f5f5f9054906101000a900473ffffffffffffffffffffffffffffffffffffffff1673ffffffffffffffffffffffffffffffffffffffff166108fc8490811502906040515f60405180830381858888f193505050509050806101dd576040517f08c379a00000000000000000000000000000000000000000000000000000000081526004016101d490610401565b60405180910390fd5b80915050919050565b80600154101561022b576040517f08c379a00000000000000000000000000000000000000000000000000000000081526004016102229061048f565b60405180910390fd5b5f5f9054906101000a900473ffffffffffffffffffffffffffffffffffffffff1673ffffffffffffffffffffffffffffffffffffffff166108fc8290811502906040515f60405180830381858888f1935050505015801561028e573d5f5f3e3d5ffd5b508060015f8282546102a091906104da565b9250508190555050565b3460015f8282546102bb919061050d565b92505081905550565b5f819050919050565b6102d6816102c4565b82525050565b5f6020820190506102ef5f8301846102cd565b92915050565b5f5ffd5b610302816102c4565b811461030c575f5ffd5b50565b5f8135905061031d816102f9565b92915050565b5f60208284031215610338576103376102f5565b5b5f6103458482850161030f565b91505092915050565b5f8115159050919050565b6103628161034e565b82525050565b5f60208201905061037b5f830184610359565b92915050565b5f82825260208201905092915050565b7f496e73756666696369656e742062616c616e63652120286d65737361676520695f8201527f732073656e642066726f6d2073656e6457697468647261772900000000000000602082015250565b5f6103eb603983610381565b91506103f682610391565b604082019050919050565b5f6020820190508181035f830152610418816103df565b9050919050565b7f496e73756666696369656e742062616c616e63652120286d65737361676520695f8201527f732073656e642066726f6d207472616e73666572576974686472617729000000602082015250565b5f610479603d83610381565b91506104848261041f565b604082019050919050565b5f6020820190508181035f8301526104a68161046d565b9050919050565b7f4e487b71000000000000000000000000000000000000000000000000000000005f52601160045260245ffd5b5f6104e4826102c4565b91506104ef836102c4565b9250828203905081811115610507576105066104ad565b5b92915050565b5f610517826102c4565b9150610522836102c4565b925082820190508082111561053a576105396104ad565b5b9291505056fea2646970667358221220393877297db13a2baf6dd3a6806db7bebc0f60b5e8769c4329ce18f8d2647ed264736f6c634300081e0033",
					"opcodes": "PUSH1 0x80 PUSH1 0x40 MSTORE CALLVALUE DUP1 ISZERO PUSH1 0xE JUMPI PUSH0 PUSH0 REVERT JUMPDEST POP PUSH2 0x576 DUP1 PUSH2 0x1C PUSH0 CODECOPY PUSH0 RETURN INVALID PUSH1 0x80 PUSH1 0x40 MSTORE PUSH1 0x4 CALLDATASIZE LT PUSH2 0x49 JUMPI PUSH0 CALLDATALOAD PUSH1 0xE0 SHR DUP1 PUSH4 0x12065FE0 EQ PUSH2 0x4D JUMPI DUP1 PUSH4 0x2CAE2096 EQ PUSH2 0x77 JUMPI DUP1 PUSH4 0x301E4F60 EQ PUSH2 0x8D JUMPI DUP1 PUSH4 0xA1364123 EQ PUSH2 0xC9 JUMPI DUP1 PUSH4 0xD0E30DB0 EQ PUSH2 0xF1 JUMPI JUMPDEST PUSH0 PUSH0 REVERT JUMPDEST CALLVALUE DUP1 ISZERO PUSH2 0x58 JUMPI PUSH0 PUSH0 REVERT JUMPDEST POP PUSH2 0x61 PUSH2 0xFB JUMP JUMPDEST PUSH1 0x40 MLOAD PUSH2 0x6E SWAP2 SWAP1 PUSH2 0x2DC JUMP JUMPDEST PUSH1 0x40 MLOAD DUP1 SWAP2 SUB SWAP1 RETURN JUMPDEST CALLVALUE DUP1 ISZERO PUSH2 0x82 JUMPI PUSH0 PUSH0 REVERT JUMPDEST POP PUSH2 0x8B PUSH2 0x104 JUMP JUMPDEST STOP JUMPDEST CALLVALUE DUP1 ISZERO PUSH2 0x98 JUMPI PUSH0 PUSH0 REVERT JUMPDEST POP PUSH2 0xB3 PUSH1 0x4 DUP1 CALLDATASIZE SUB DUP2 ADD SWAP1 PUSH2 0xAE SWAP2 SWAP1 PUSH2 0x323 JUMP JUMPDEST PUSH2 0x145 JUMP JUMPDEST PUSH1 0x40 MLOAD PUSH2 0xC0 SWAP2 SWAP1 PUSH2 0x368 JUMP JUMPDEST PUSH1 0x40 MLOAD DUP1 SWAP2 SUB SWAP1 RETURN JUMPDEST CALLVALUE DUP1 ISZERO PUSH2 0xD4 JUMPI PUSH0 PUSH0 REVERT JUMPDEST POP PUSH2 0xEF PUSH1 0x4 DUP1 CALLDATASIZE SUB DUP2 ADD SWAP1 PUSH2 0xEA SWAP2 SWAP1 PUSH2 0x323 JUMP JUMPDEST PUSH2 0x1E6 JUMP JUMPDEST STOP JUMPDEST PUSH2 0xF9 PUSH2 0x2AA JUMP JUMPDEST STOP JUMPDEST PUSH0 PUSH1 0x1 SLOAD SWAP1 POP SWAP1 JUMP JUMPDEST CALLER PUSH0 PUSH0 PUSH2 0x100 EXP DUP2 SLOAD DUP2 PUSH20 0xFFFFFFFFFFFFFFFFFFFFFFFFFFFFFFFFFFFFFFFF MUL NOT AND SWAP1 DUP4 PUSH20 0xFFFFFFFFFFFFFFFFFFFFFFFFFFFFFFFFFFFFFFFF AND MUL OR SWAP1 SSTORE POP JUMP JUMPDEST PUSH0 PUSH0 PUSH0 PUSH0 SWAP1 SLOAD SWAP1 PUSH2 0x100 EXP SWAP1 DIV PUSH20 0xFFFFFFFFFFFFFFFFFFFFFFFFFFFFFFFFFFFFFFFF AND PUSH20 0xFFFFFFFFFFFFFFFFFFFFFFFFFFFFFFFFFFFFFFFF AND PUSH2 0x8FC DUP5 SWAP1 DUP2 ISZERO MUL SWAP1 PUSH1 0x40 MLOAD PUSH0 PUSH1 0x40 MLOAD DUP1 DUP4 SUB DUP2 DUP6 DUP9 DUP9 CALL SWAP4 POP POP POP POP SWAP1 POP DUP1 PUSH2 0x1DD JUMPI PUSH1 0x40 MLOAD PUSH32 0x8C379A000000000000000000000000000000000000000000000000000000000 DUP2 MSTORE PUSH1 0x4 ADD PUSH2 0x1D4 SWAP1 PUSH2 0x401 JUMP JUMPDEST PUSH1 0x40 MLOAD DUP1 SWAP2 SUB SWAP1 REVERT JUMPDEST DUP1 SWAP2 POP POP SWAP2 SWAP1 POP JUMP JUMPDEST DUP1 PUSH1 0x1 SLOAD LT ISZERO PUSH2 0x22B JUMPI PUSH1 0x40 MLOAD PUSH32 0x8C379A000000000000000000000000000000000000000000000000000000000 DUP2 MSTORE PUSH1 0x4 ADD PUSH2 0x222 SWAP1 PUSH2 0x48F JUMP JUMPDEST PUSH1 0x40 MLOAD DUP1 SWAP2 SUB SWAP1 REVERT JUMPDEST PUSH0 PUSH0 SWAP1 SLOAD SWAP1 PUSH2 0x100 EXP SWAP1 DIV PUSH20 0xFFFFFFFFFFFFFFFFFFFFFFFFFFFFFFFFFFFFFFFF AND PUSH20 0xFFFFFFFFFFFFFFFFFFFFFFFFFFFFFFFFFFFFFFFF AND PUSH2 0x8FC DUP3 SWAP1 DUP2 ISZERO MUL SWAP1 PUSH1 0x40 MLOAD PUSH0 PUSH1 0x40 MLOAD DUP1 DUP4 SUB DUP2 DUP6 DUP9 DUP9 CALL SWAP4 POP POP POP POP ISZERO DUP1 ISZERO PUSH2 0x28E JUMPI RETURNDATASIZE PUSH0 PUSH0 RETURNDATACOPY RETURNDATASIZE PUSH0 REVERT JUMPDEST POP DUP1 PUSH1 0x1 PUSH0 DUP3 DUP3 SLOAD PUSH2 0x2A0 SWAP2 SWAP1 PUSH2 0x4DA JUMP JUMPDEST SWAP3 POP POP DUP2 SWAP1 SSTORE POP POP JUMP JUMPDEST CALLVALUE PUSH1 0x1 PUSH0 DUP3 DUP3 SLOAD PUSH2 0x2BB SWAP2 SWAP1 PUSH2 0x50D JUMP JUMPDEST SWAP3 POP POP DUP2 SWAP1 SSTORE POP JUMP JUMPDEST PUSH0 DUP2 SWAP1 POP SWAP2 SWAP1 POP JUMP JUMPDEST PUSH2 0x2D6 DUP2 PUSH2 0x2C4 JUMP JUMPDEST DUP3 MSTORE POP POP JUMP JUMPDEST PUSH0 PUSH1 0x20 DUP3 ADD SWAP1 POP PUSH2 0x2EF PUSH0 DUP4 ADD DUP5 PUSH2 0x2CD JUMP JUMPDEST SWAP3 SWAP2 POP POP JUMP JUMPDEST PUSH0 PUSH0 REVERT JUMPDEST PUSH2 0x302 DUP2 PUSH2 0x2C4 JUMP JUMPDEST DUP2 EQ PUSH2 0x30C JUMPI PUSH0 PUSH0 REVERT JUMPDEST POP JUMP JUMPDEST PUSH0 DUP2 CALLDATALOAD SWAP1 POP PUSH2 0x31D DUP2 PUSH2 0x2F9 JUMP JUMPDEST SWAP3 SWAP2 POP POP JUMP JUMPDEST PUSH0 PUSH1 0x20 DUP3 DUP5 SUB SLT ISZERO PUSH2 0x338 JUMPI PUSH2 0x337 PUSH2 0x2F5 JUMP JUMPDEST JUMPDEST PUSH0 PUSH2 0x345 DUP5 DUP3 DUP6 ADD PUSH2 0x30F JUMP JUMPDEST SWAP2 POP POP SWAP3 SWAP2 POP POP JUMP JUMPDEST PUSH0 DUP2 ISZERO ISZERO SWAP1 POP SWAP2 SWAP1 POP JUMP JUMPDEST PUSH2 0x362 DUP2 PUSH2 0x34E JUMP JUMPDEST DUP3 MSTORE POP POP JUMP JUMPDEST PUSH0 PUSH1 0x20 DUP3 ADD SWAP1 POP PUSH2 0x37B PUSH0 DUP4 ADD DUP5 PUSH2 0x359 JUMP JUMPDEST SWAP3 SWAP2 POP POP JUMP JUMPDEST PUSH0 DUP3 DUP3 MSTORE PUSH1 0x20 DUP3 ADD SWAP1 POP SWAP3 SWAP2 POP POP JUMP JUMPDEST PUSH32 0x496E73756666696369656E742062616C616E63652120286D6573736167652069 PUSH0 DUP3 ADD MSTORE PUSH32 0x732073656E642066726F6D2073656E6457697468647261772900000000000000 PUSH1 0x20 DUP3 ADD MSTORE POP JUMP JUMPDEST PUSH0 PUSH2 0x3EB PUSH1 0x39 DUP4 PUSH2 0x381 JUMP JUMPDEST SWAP2 POP PUSH2 0x3F6 DUP3 PUSH2 0x391 JUMP JUMPDEST PUSH1 0x40 DUP3 ADD SWAP1 POP SWAP2 SWAP1 POP JUMP JUMPDEST PUSH0 PUSH1 0x20 DUP3 ADD SWAP1 POP DUP2 DUP2 SUB PUSH0 DUP4 ADD MSTORE PUSH2 0x418 DUP2 PUSH2 0x3DF JUMP JUMPDEST SWAP1 POP SWAP2 SWAP1 POP JUMP JUMPDEST PUSH32 0x496E73756666696369656E742062616C616E63652120286D6573736167652069 PUSH0 DUP3 ADD MSTORE PUSH32 0x732073656E642066726F6D207472616E73666572576974686472617729000000 PUSH1 0x20 DUP3 ADD MSTORE POP JUMP JUMPDEST PUSH0 PUSH2 0x479 PUSH1 0x3D DUP4 PUSH2 0x381 JUMP JUMPDEST SWAP2 POP PUSH2 0x484 DUP3 PUSH2 0x41F JUMP JUMPDEST PUSH1 0x40 DUP3 ADD SWAP1 POP SWAP2 SWAP1 POP JUMP JUMPDEST PUSH0 PUSH1 0x20 DUP3 ADD SWAP1 POP DUP2 DUP2 SUB PUSH0 DUP4 ADD MSTORE PUSH2 0x4A6 DUP2 PUSH2 0x46D JUMP JUMPDEST SWAP1 POP SWAP2 SWAP1 POP JUMP JUMPDEST PUSH32 0x4E487B7100000000000000000000000000000000000000000000000000000000 PUSH0 MSTORE PUSH1 0x11 PUSH1 0x4 MSTORE PUSH1 0x24 PUSH0 REVERT JUMPDEST PUSH0 PUSH2 0x4E4 DUP3 PUSH2 0x2C4 JUMP JUMPDEST SWAP2 POP PUSH2 0x4EF DUP4 PUSH2 0x2C4 JUMP JUMPDEST SWAP3 POP DUP3 DUP3 SUB SWAP1 POP DUP2 DUP2 GT ISZERO PUSH2 0x507 JUMPI PUSH2 0x506 PUSH2 0x4AD JUMP JUMPDEST JUMPDEST SWAP3 SWAP2 POP POP JUMP JUMPDEST PUSH0 PUSH2 0x517 DUP3 PUSH2 0x2C4 JUMP JUMPDEST SWAP2 POP PUSH2 0x522 DUP4 PUSH2 0x2C4 JUMP JUMPDEST SWAP3 POP DUP3 DUP3 ADD SWAP1 POP DUP1 DUP3 GT ISZERO PUSH2 0x53A JUMPI PUSH2 0x539 PUSH2 0x4AD JUMP JUMPDEST JUMPDEST SWAP3 SWAP2 POP POP JUMP INVALID LOG2 PUSH5 0x6970667358 0x22 SLT KECCAK256 CODECOPY CODESIZE PUSH24 0x297DB13A2BAF6DD3A6806DB7BEBC0F60B5E8769C4329CE18 EXTCALL 0xD2 PUSH5 0x7ED264736F PUSH13 0x634300081E0033000000000000 "
				},
				"gasEstimates": {
					"creation": {
						"codeDepositCost": "279600",
						"executionCost": "316",
						"totalCost": "279916"
					},
					"external": {
						"deposit()": "infinite",
						"getBalance()": "2410",
						"sendWithdraw(uint256)": "infinite",
						"setAdmin()": "24407",
						"transferWithdraw(uint256)": "infinite"
					}
				},
				"methodIdentifiers": {
					"deposit()": "d0e30db0",
					"getBalance()": "12065fe0",
					"sendWithdraw(uint256)": "301e4f60",
					"setAdmin()": "2cae2096",
					"transferWithdraw(uint256)": "a1364123"
				}
			},
			"storageLayout": {
				"storage": [
					{
						"astId": 3,
						"contract": "contracts/week15/example02.sol:Example02",
						"label": "admin",
						"offset": 0,
						"slot": "0",
						"type": "t_address_payable"
					},
					{
						"astId": 5,
						"contract": "contracts/week15/example02.sol:Example02",
						"label": "balance",
						"offset": 0,
						"slot": "1",
						"type": "t_uint256"
					}
				],
				"types": {
					"t_address_payable": {
						"encoding": "inplace",
						"label": "address payable",
						"numberOfBytes": "20"
					},
					"t_uint256": {
						"encoding": "inplace",
						"label": "uint256",
						"numberOfBytes": "32"
					}
				}
			},
			"userdoc": {
				"kind": "user",
				"methods": {},
				"version": 1
			}
		}
	}
}