{
	"contracts/hw5.sol": {
		"bank": {
			"abi": [
				{
					"inputs": [],
					"stateMutability": "nonpayable",
					"type": "constructor"
				},
				{
					"anonymous": false,
					"inputs": [
						{
							"indexed": true,
							"internalType": "address",
							"name": "addr",
							"type": "address"
						}
					],
					"name": "addBlackList",
					"type": "event"
				},
				{
					"anonymous": false,
					"inputs": [
						{
							"indexed": true,
							"internalType": "uint256",
							"name": "amount",
							"type": "uint256"
						},
						{
							"indexed": true,
							"internalType": "address",
							"name": "account",
							"type": "address"
						},
						{
							"indexed": true,
							"internalType": "uint256",
							"name": "balance",
							"type": "uint256"
						},
						{
							"indexed": false,
							"internalType": "bool",
							"name": "state",
							"type": "bool"
						}
					],
					"name": "depositLogs",
					"type": "event"
				},
				{
					"anonymous": false,
					"inputs": [
						{
							"indexed": true,
							"internalType": "address",
							"name": "requester",
							"type": "address"
						},
						{
							"indexed": true,
							"internalType": "address",
							"name": "account",
							"type": "address"
						}
					],
					"name": "lookBalanceLogs",
					"type": "event"
				},
				{
					"anonymous": false,
					"inputs": [
						{
							"indexed": true,
							"internalType": "address",
							"name": "from",
							"type": "address"
						},
						{
							"indexed": true,
							"internalType": "uint256",
							"name": "amount",
							"type": "uint256"
						},
						{
							"indexed": true,
							"internalType": "address",
							"name": "to",
							"type": "address"
						},
						{
							"indexed": false,
							"internalType": "bool",
							"name": "state",
							"type": "bool"
						}
					],
					"name": "transferLogs",
					"type": "event"
				},
				{
					"anonymous": false,
					"inputs": [
						{
							"indexed": true,
							"internalType": "address",
							"name": "addr",
							"type": "address"
						},
						{
							"indexed": true,
							"internalType": "uint256",
							"name": "amount",
							"type": "uint256"
						},
						{
							"indexed": false,
							"internalType": "bool",
							"name": "state",
							"type": "bool"
						}
					],
					"name": "withdrawLogs",
					"type": "event"
				},
				{
					"stateMutability": "payable",
					"type": "fallback"
				},
				{
					"inputs": [
						{
							"internalType": "address",
							"name": "to",
							"type": "address"
						},
						{
							"internalType": "uint256",
							"name": "password",
							"type": "uint256"
						}
					],
					"name": "deposit",
					"outputs": [],
					"stateMutability": "payable",
					"type": "function"
				},
				{
					"inputs": [
						{
							"internalType": "address",
							"name": "addr",
							"type": "address"
						},
						{
							"internalType": "uint256",
							"name": "password",
							"type": "uint256"
						}
					],
					"name": "getBalance",
					"outputs": [
						{
							"internalType": "uint256",
							"name": "",
							"type": "uint256"
						}
					],
					"stateMutability": "nonpayable",
					"type": "function"
				},
				{
					"inputs": [
						{
							"internalType": "uint256",
							"name": "input",
							"type": "uint256"
						}
					],
					"name": "hash",
					"outputs": [
						{
							"internalType": "uint256",
							"name": "",
							"type": "uint256"
						}
					],
					"stateMutability": "pure",
					"type": "function"
				},
				{
					"inputs": [
						{
							"internalType": "address",
							"name": "to",
							"type": "address"
						},
						{
							"internalType": "uint256",
							"name": "amount",
							"type": "uint256"
						},
						{
							"internalType": "uint256",
							"name": "password",
							"type": "uint256"
						}
					],
					"name": "transfer",
					"outputs": [],
					"stateMutability": "nonpayable",
					"type": "function"
				},
				{
					"inputs": [
						{
							"internalType": "uint256",
							"name": "password",
							"type": "uint256"
						}
					],
					"name": "withdraw",
					"outputs": [],
					"stateMutability": "nonpayable",
					"type": "function"
				},
				{
					"stateMutability": "payable",
					"type": "receive"
				}
			],
			"devdoc": {
				"kind": "dev",
				"methods": {},
				"version": 1
			},
			"evm": {
				"assembly": "    /* \"contracts/hw5.sol\":62:3740  contract bank {... */\n  mstore(0x40, 0x80)\n    /* \"contracts/hw5.sol\":770:819  constructor() {... */\n  callvalue\n  dup1\n  iszero\n  tag_1\n  jumpi\n  revert(0x00, 0x00)\ntag_1:\n  pop\n    /* \"contracts/hw5.sol\":802:812  msg.sender */\n  caller\n    /* \"contracts/hw5.sol\":794:799  owner */\n  0x04\n  0x00\n    /* \"contracts/hw5.sol\":794:812  owner = msg.sender */\n  0x0100\n  exp\n  dup2\n  sload\n  dup2\n  0xffffffffffffffffffffffffffffffffffffffff\n  mul\n  not\n  and\n  swap1\n  dup4\n  0xffffffffffffffffffffffffffffffffffffffff\n  and\n  mul\n  or\n  swap1\n  sstore\n  pop\n    /* \"contracts/hw5.sol\":62:3740  contract bank {... */\n  dataSize(sub_0)\n  dup1\n  dataOffset(sub_0)\n  0x00\n  codecopy\n  0x00\n  return\nstop\n\nsub_0: assembly {\n        /* \"contracts/hw5.sol\":62:3740  contract bank {... */\n      mstore(0x40, 0x80)\n      jumpi(tag_1, lt(calldatasize, 0x04))\n      shr(0xe0, calldataload(0x00))\n      dup1\n      0x095bcdb6\n      eq\n      tag_3\n      jumpi\n      dup1\n      0x2b04e840\n      eq\n      tag_4\n      jumpi\n      dup1\n      0x2e1a7d4d\n      eq\n      tag_5\n      jumpi\n      dup1\n      0x47e7ef24\n      eq\n      tag_6\n      jumpi\n      dup1\n      0xb189fd4c\n      eq\n      tag_7\n      jumpi\n      jump(tag_2)\n    tag_1:\n      jumpi(tag_2, calldatasize)\n        /* \"contracts/hw5.sol\":3074:3082  accounts */\n      0x00\n        /* \"contracts/hw5.sol\":3074:3089  accounts[owner] */\n      0x00\n        /* \"contracts/hw5.sol\":3083:3088  owner */\n      0x04\n      0x00\n      swap1\n      sload\n      swap1\n      0x0100\n      exp\n      swap1\n      div\n      0xffffffffffffffffffffffffffffffffffffffff\n      and\n        /* \"contracts/hw5.sol\":3074:3089  accounts[owner] */\n      0xffffffffffffffffffffffffffffffffffffffff\n      and\n      0xffffffffffffffffffffffffffffffffffffffff\n      and\n      dup2\n      mstore\n      0x20\n      add\n      swap1\n      dup2\n      mstore\n      0x20\n      add\n      0x00\n      keccak256\n        /* \"contracts/hw5.sol\":3074:3100  accounts[owner][hash(123)] */\n      0x00\n        /* \"contracts/hw5.sol\":3090:3099  hash(123) */\n      tag_10\n        /* \"contracts/hw5.sol\":3095:3098  123 */\n      0x7b\n        /* \"contracts/hw5.sol\":3090:3094  hash */\n      tag_11\n        /* \"contracts/hw5.sol\":3090:3099  hash(123) */\n      jump\t// in\n    tag_10:\n        /* \"contracts/hw5.sol\":3074:3100  accounts[owner][hash(123)] */\n      dup2\n      mstore\n      0x20\n      add\n      swap1\n      dup2\n      mstore\n      0x20\n      add\n      0x00\n      keccak256\n      sload\n        /* \"contracts/hw5.sol\":3062:3072  msg.sender */\n      caller\n        /* \"contracts/hw5.sol\":3039:3107  depositLogs(msg.value, msg.sender, accounts[owner][hash(123)], true) */\n      0xffffffffffffffffffffffffffffffffffffffff\n      and\n        /* \"contracts/hw5.sol\":3051:3060  msg.value */\n      callvalue\n        /* \"contracts/hw5.sol\":3039:3107  depositLogs(msg.value, msg.sender, accounts[owner][hash(123)], true) */\n      0x8bcd11857e6a3be2869200dad8a50365a705c0d72f71b2e96f28837226cd3f7f\n        /* \"contracts/hw5.sol\":3102:3106  true */\n      0x01\n        /* \"contracts/hw5.sol\":3039:3107  depositLogs(msg.value, msg.sender, accounts[owner][hash(123)], true) */\n      mload(0x40)\n      tag_12\n      swap2\n      swap1\n      tag_13\n      jump\t// in\n    tag_12:\n      mload(0x40)\n      dup1\n      swap2\n      sub\n      swap1\n      log4\n        /* \"contracts/hw5.sol\":62:3740  contract bank {... */\n      stop\n    tag_2:\n        /* \"contracts/hw5.sol\":3199:3207  accounts */\n      0x00\n        /* \"contracts/hw5.sol\":3199:3214  accounts[owner] */\n      0x00\n        /* \"contracts/hw5.sol\":3208:3213  owner */\n      0x04\n      0x00\n      swap1\n      sload\n      swap1\n      0x0100\n      exp\n      swap1\n      div\n      0xffffffffffffffffffffffffffffffffffffffff\n      and\n        /* \"contracts/hw5.sol\":3199:3214  accounts[owner] */\n      0xffffffffffffffffffffffffffffffffffffffff\n      and\n      0xffffffffffffffffffffffffffffffffffffffff\n      and\n      dup2\n      mstore\n      0x20\n      add\n      swap1\n      dup2\n      mstore\n      0x20\n      add\n      0x00\n      keccak256\n        /* \"contracts/hw5.sol\":3199:3226  accounts[owner][hash(1234)] */\n      0x00\n        /* \"contracts/hw5.sol\":3215:3225  hash(1234) */\n      tag_16\n        /* \"contracts/hw5.sol\":3220:3224  1234 */\n      0x04d2\n        /* \"contracts/hw5.sol\":3215:3219  hash */\n      tag_11\n        /* \"contracts/hw5.sol\":3215:3225  hash(1234) */\n      jump\t// in\n    tag_16:\n        /* \"contracts/hw5.sol\":3199:3226  accounts[owner][hash(1234)] */\n      dup2\n      mstore\n      0x20\n      add\n      swap1\n      dup2\n      mstore\n      0x20\n      add\n      0x00\n      keccak256\n      sload\n        /* \"contracts/hw5.sol\":3187:3197  msg.sender */\n      caller\n        /* \"contracts/hw5.sol\":3164:3233  depositLogs(msg.value, msg.sender, accounts[owner][hash(1234)], true) */\n      0xffffffffffffffffffffffffffffffffffffffff\n      and\n        /* \"contracts/hw5.sol\":3176:3185  msg.value */\n      callvalue\n        /* \"contracts/hw5.sol\":3164:3233  depositLogs(msg.value, msg.sender, accounts[owner][hash(1234)], true) */\n      0x8bcd11857e6a3be2869200dad8a50365a705c0d72f71b2e96f28837226cd3f7f\n        /* \"contracts/hw5.sol\":3228:3232  true */\n      0x01\n        /* \"contracts/hw5.sol\":3164:3233  depositLogs(msg.value, msg.sender, accounts[owner][hash(1234)], true) */\n      mload(0x40)\n      tag_17\n      swap2\n      swap1\n      tag_13\n      jump\t// in\n    tag_17:\n      mload(0x40)\n      dup1\n      swap2\n      sub\n      swap1\n      log4\n        /* \"contracts/hw5.sol\":62:3740  contract bank {... */\n      stop\n        /* \"contracts/hw5.sol\":2182:2991  function transfer(address to, uint256 amount, uint256 password) public {... */\n    tag_3:\n      callvalue\n      dup1\n      iszero\n      tag_18\n      jumpi\n      revert(0x00, 0x00)\n    tag_18:\n      pop\n      tag_19\n      0x04\n      dup1\n      calldatasize\n      sub\n      dup2\n      add\n      swap1\n      tag_20\n      swap2\n      swap1\n      tag_21\n      jump\t// in\n    tag_20:\n      tag_22\n      jump\t// in\n    tag_19:\n      stop\n        /* \"contracts/hw5.sol\":1321:1679  function getBalance(address addr, uint256 password) public returns (uint256) {... */\n    tag_4:\n      callvalue\n      dup1\n      iszero\n      tag_23\n      jumpi\n      revert(0x00, 0x00)\n    tag_23:\n      pop\n      tag_24\n      0x04\n      dup1\n      calldatasize\n      sub\n      dup2\n      add\n      swap1\n      tag_25\n      swap2\n      swap1\n      tag_26\n      jump\t// in\n    tag_25:\n      tag_27\n      jump\t// in\n    tag_24:\n      mload(0x40)\n      tag_28\n      swap2\n      swap1\n      tag_29\n      jump\t// in\n    tag_28:\n      mload(0x40)\n      dup1\n      swap2\n      sub\n      swap1\n      return\n        /* \"contracts/hw5.sol\":1685:2176  function withdraw(uint password) public {... */\n    tag_5:\n      callvalue\n      dup1\n      iszero\n      tag_30\n      jumpi\n      revert(0x00, 0x00)\n    tag_30:\n      pop\n      tag_31\n      0x04\n      dup1\n      calldatasize\n      sub\n      dup2\n      add\n      swap1\n      tag_32\n      swap2\n      swap1\n      tag_33\n      jump\t// in\n    tag_32:\n      tag_34\n      jump\t// in\n    tag_31:\n      stop\n        /* \"contracts/hw5.sol\":923:1315  function deposit(address to, uint256 password) public payable {... */\n    tag_6:\n      tag_35\n      0x04\n      dup1\n      calldatasize\n      sub\n      dup2\n      add\n      swap1\n      tag_36\n      swap2\n      swap1\n      tag_26\n      jump\t// in\n    tag_36:\n      tag_37\n      jump\t// in\n    tag_35:\n      stop\n        /* \"contracts/hw5.sol\":3246:3363  function hash(uint256 input) public pure returns (uint256) {... */\n    tag_7:\n      callvalue\n      dup1\n      iszero\n      tag_38\n      jumpi\n      revert(0x00, 0x00)\n    tag_38:\n      pop\n      tag_39\n      0x04\n      dup1\n      calldatasize\n      sub\n      dup2\n      add\n      swap1\n      tag_40\n      swap2\n      swap1\n      tag_33\n      jump\t// in\n    tag_40:\n      tag_11\n      jump\t// in\n    tag_39:\n      mload(0x40)\n      tag_41\n      swap2\n      swap1\n      tag_29\n      jump\t// in\n    tag_41:\n      mload(0x40)\n      dup1\n      swap2\n      sub\n      swap1\n      return\n    tag_11:\n        /* \"contracts/hw5.sol\":3296:3303  uint256 */\n      0x00\n        /* \"contracts/hw5.sol\":3330:3355  sha256(abi.encode(input)) */\n      0x02\n        /* \"contracts/hw5.sol\":3348:3353  input */\n      dup3\n        /* \"contracts/hw5.sol\":3337:3354  abi.encode(input) */\n      add(0x20, mload(0x40))\n      tag_43\n      swap2\n      swap1\n      tag_29\n      jump\t// in\n    tag_43:\n      mload(0x40)\n      0x20\n      dup2\n      dup4\n      sub\n      sub\n      dup2\n      mstore\n      swap1\n      0x40\n      mstore\n        /* \"contracts/hw5.sol\":3330:3355  sha256(abi.encode(input)) */\n      mload(0x40)\n      tag_44\n      swap2\n      swap1\n      tag_45\n      jump\t// in\n    tag_44:\n      0x20\n      mload(0x40)\n      dup1\n      dup4\n      sub\n      dup2\n      dup6\n      gas\n      staticcall\n      iszero\n      dup1\n      iszero\n      tag_47\n      jumpi\n      returndatacopy(0x00, 0x00, returndatasize)\n      revert(0x00, returndatasize)\n    tag_47:\n      pop\n      pop\n      pop\n      mload(0x40)\n      returndatasize\n      not(0x1f)\n      0x1f\n      dup3\n      add\n      and\n      dup3\n      add\n      dup1\n      0x40\n      mstore\n      pop\n      dup2\n      add\n      swap1\n      tag_48\n      swap2\n      swap1\n      tag_49\n      jump\t// in\n    tag_48:\n        /* \"contracts/hw5.sol\":3322:3356  uint256(sha256(abi.encode(input))) */\n      0x00\n      shr\n        /* \"contracts/hw5.sol\":3315:3356  return uint256(sha256(abi.encode(input))) */\n      swap1\n      pop\n        /* \"contracts/hw5.sol\":3246:3363  function hash(uint256 input) public pure returns (uint256) {... */\n      swap2\n      swap1\n      pop\n      jump\t// out\n        /* \"contracts/hw5.sol\":2182:2991  function transfer(address to, uint256 amount, uint256 password) public {... */\n    tag_22:\n        /* \"contracts/hw5.sol\":2267:2276  blackList */\n      0x03\n        /* \"contracts/hw5.sol\":2267:2288  blackList[msg.sender] */\n      0x00\n        /* \"contracts/hw5.sol\":2277:2287  msg.sender */\n      caller\n        /* \"contracts/hw5.sol\":2267:2288  blackList[msg.sender] */\n      0xffffffffffffffffffffffffffffffffffffffff\n      and\n      0xffffffffffffffffffffffffffffffffffffffff\n      and\n      dup2\n      mstore\n      0x20\n      add\n      swap1\n      dup2\n      mstore\n      0x20\n      add\n      0x00\n      keccak256\n      0x00\n      swap1\n      sload\n      swap1\n      0x0100\n      exp\n      swap1\n      div\n      0xff\n      and\n        /* \"contracts/hw5.sol\":2263:2412  if (blackList[msg.sender]) {... */\n      iszero\n      tag_51\n      jumpi\n        /* \"contracts/hw5.sol\":2342:2344  to */\n      dup3\n        /* \"contracts/hw5.sol\":2309:2352  transferLogs(msg.sender, amount, to, false) */\n      0xffffffffffffffffffffffffffffffffffffffff\n      and\n        /* \"contracts/hw5.sol\":2334:2340  amount */\n      dup3\n        /* \"contracts/hw5.sol\":2322:2332  msg.sender */\n      caller\n        /* \"contracts/hw5.sol\":2309:2352  transferLogs(msg.sender, amount, to, false) */\n      0xffffffffffffffffffffffffffffffffffffffff\n      and\n      0xf3ff6628461a09e7f6325423c56503e440bfc7143ac0004f650f5010c01ff4c8\n        /* \"contracts/hw5.sol\":2346:2351  false */\n      0x00\n        /* \"contracts/hw5.sol\":2309:2352  transferLogs(msg.sender, amount, to, false) */\n      mload(0x40)\n      tag_52\n      swap2\n      swap1\n      tag_13\n      jump\t// in\n    tag_52:\n      mload(0x40)\n      dup1\n      swap2\n      sub\n      swap1\n      log4\n        /* \"contracts/hw5.sol\":2366:2401  revert(\"you are in the black list\") */\n      mload(0x40)\n      0x08c379a000000000000000000000000000000000000000000000000000000000\n      dup2\n      mstore\n      0x04\n      add\n      tag_53\n      swap1\n      tag_54\n      jump\t// in\n    tag_53:\n      mload(0x40)\n      dup1\n      swap2\n      sub\n      swap1\n      revert\n        /* \"contracts/hw5.sol\":2263:2412  if (blackList[msg.sender]) {... */\n    tag_51:\n        /* \"contracts/hw5.sol\":2473:2479  amount */\n      dup2\n        /* \"contracts/hw5.sol\":2434:2442  accounts */\n      0x00\n        /* \"contracts/hw5.sol\":2434:2454  accounts[msg.sender] */\n      0x00\n        /* \"contracts/hw5.sol\":2443:2453  msg.sender */\n      caller\n        /* \"contracts/hw5.sol\":2434:2454  accounts[msg.sender] */\n      0xffffffffffffffffffffffffffffffffffffffff\n      and\n      0xffffffffffffffffffffffffffffffffffffffff\n      and\n      dup2\n      mstore\n      0x20\n      add\n      swap1\n      dup2\n      mstore\n      0x20\n      add\n      0x00\n      keccak256\n        /* \"contracts/hw5.sol\":2434:2470  accounts[msg.sender][hash(password)] */\n      0x00\n        /* \"contracts/hw5.sol\":2455:2469  hash(password) */\n      tag_55\n        /* \"contracts/hw5.sol\":2460:2468  password */\n      dup5\n        /* \"contracts/hw5.sol\":2455:2459  hash */\n      tag_11\n        /* \"contracts/hw5.sol\":2455:2469  hash(password) */\n      jump\t// in\n    tag_55:\n        /* \"contracts/hw5.sol\":2434:2470  accounts[msg.sender][hash(password)] */\n      dup2\n      mstore\n      0x20\n      add\n      swap1\n      dup2\n      mstore\n      0x20\n      add\n      0x00\n      keccak256\n      sload\n        /* \"contracts/hw5.sol\":2434:2479  accounts[msg.sender][hash(password)] < amount */\n      lt\n        /* \"contracts/hw5.sol\":2430:2596  if (accounts[msg.sender][hash(password)] < amount) {... */\n      iszero\n      tag_56\n      jumpi\n        /* \"contracts/hw5.sol\":2533:2535  to */\n      dup3\n        /* \"contracts/hw5.sol\":2500:2543  transferLogs(msg.sender, amount, to, false) */\n      0xffffffffffffffffffffffffffffffffffffffff\n      and\n        /* \"contracts/hw5.sol\":2525:2531  amount */\n      dup3\n        /* \"contracts/hw5.sol\":2513:2523  msg.sender */\n      caller\n        /* \"contracts/hw5.sol\":2500:2543  transferLogs(msg.sender, amount, to, false) */\n      0xffffffffffffffffffffffffffffffffffffffff\n      and\n      0xf3ff6628461a09e7f6325423c56503e440bfc7143ac0004f650f5010c01ff4c8\n        /* \"contracts/hw5.sol\":2537:2542  false */\n      0x00\n        /* \"contracts/hw5.sol\":2500:2543  transferLogs(msg.sender, amount, to, false) */\n      mload(0x40)\n      tag_57\n      swap2\n      swap1\n      tag_13\n      jump\t// in\n    tag_57:\n      mload(0x40)\n      dup1\n      swap2\n      sub\n      swap1\n      log4\n        /* \"contracts/hw5.sol\":2557:2585  revert(\"not enough balance\") */\n      mload(0x40)\n      0x08c379a000000000000000000000000000000000000000000000000000000000\n      dup2\n      mstore\n      0x04\n      add\n      tag_58\n      swap1\n      tag_59\n      jump\t// in\n    tag_58:\n      mload(0x40)\n      dup1\n      swap2\n      sub\n      swap1\n      revert\n        /* \"contracts/hw5.sol\":2430:2596  if (accounts[msg.sender][hash(password)] < amount) {... */\n    tag_56:\n        /* \"contracts/hw5.sol\":2606:2618  bool success */\n      0x00\n        /* \"contracts/hw5.sol\":2621:2658  isPasswordValid(msg.sender, password) */\n      tag_60\n        /* \"contracts/hw5.sol\":2637:2647  msg.sender */\n      caller\n        /* \"contracts/hw5.sol\":2649:2657  password */\n      dup4\n        /* \"contracts/hw5.sol\":2621:2636  isPasswordValid */\n      tag_61\n        /* \"contracts/hw5.sol\":2621:2658  isPasswordValid(msg.sender, password) */\n      jump\t// in\n    tag_60:\n        /* \"contracts/hw5.sol\":2606:2658  bool success = isPasswordValid(msg.sender, password) */\n      swap1\n      pop\n        /* \"contracts/hw5.sol\":2706:2708  to */\n      dup4\n        /* \"contracts/hw5.sol\":2673:2761  transferLogs(msg.sender, amount, to,... */\n      0xffffffffffffffffffffffffffffffffffffffff\n      and\n        /* \"contracts/hw5.sol\":2698:2704  amount */\n      dup4\n        /* \"contracts/hw5.sol\":2686:2696  msg.sender */\n      caller\n        /* \"contracts/hw5.sol\":2673:2761  transferLogs(msg.sender, amount, to,... */\n      0xffffffffffffffffffffffffffffffffffffffff\n      and\n      0xf3ff6628461a09e7f6325423c56503e440bfc7143ac0004f650f5010c01ff4c8\n        /* \"contracts/hw5.sol\":2723:2730  success */\n      dup5\n        /* \"contracts/hw5.sol\":2723:2750  success && validAccount[to] */\n      dup1\n      iszero\n      tag_62\n      jumpi\n      pop\n        /* \"contracts/hw5.sol\":2734:2746  validAccount */\n      0x02\n        /* \"contracts/hw5.sol\":2734:2750  validAccount[to] */\n      0x00\n        /* \"contracts/hw5.sol\":2747:2749  to */\n      dup10\n        /* \"contracts/hw5.sol\":2734:2750  validAccount[to] */\n      0xffffffffffffffffffffffffffffffffffffffff\n      and\n      0xffffffffffffffffffffffffffffffffffffffff\n      and\n      dup2\n      mstore\n      0x20\n      add\n      swap1\n      dup2\n      mstore\n      0x20\n      add\n      0x00\n      keccak256\n      0x00\n      swap1\n      sload\n      swap1\n      0x0100\n      exp\n      swap1\n      div\n      0xff\n      and\n        /* \"contracts/hw5.sol\":2723:2750  success && validAccount[to] */\n    tag_62:\n        /* \"contracts/hw5.sol\":2673:2761  transferLogs(msg.sender, amount, to,... */\n      mload(0x40)\n      tag_63\n      swap2\n      swap1\n      tag_13\n      jump\t// in\n    tag_63:\n      mload(0x40)\n      dup1\n      swap2\n      sub\n      swap1\n      log4\n        /* \"contracts/hw5.sol\":2807:2819  validAccount */\n      0x02\n        /* \"contracts/hw5.sol\":2807:2823  validAccount[to] */\n      0x00\n        /* \"contracts/hw5.sol\":2820:2822  to */\n      dup6\n        /* \"contracts/hw5.sol\":2807:2823  validAccount[to] */\n      0xffffffffffffffffffffffffffffffffffffffff\n      and\n      0xffffffffffffffffffffffffffffffffffffffff\n      and\n      dup2\n      mstore\n      0x20\n      add\n      swap1\n      dup2\n      mstore\n      0x20\n      add\n      0x00\n      keccak256\n      0x00\n      swap1\n      sload\n      swap1\n      0x0100\n      exp\n      swap1\n      div\n      0xff\n      and\n        /* \"contracts/hw5.sol\":2803:2832  if (validAccount[to]) return; */\n      iszero\n      tag_64\n      jumpi\n        /* \"contracts/hw5.sol\":2825:2832  return; */\n      pop\n      jump(tag_50)\n        /* \"contracts/hw5.sol\":2803:2832  if (validAccount[to]) return; */\n    tag_64:\n        /* \"contracts/hw5.sol\":2847:2854  success */\n      dup1\n        /* \"contracts/hw5.sol\":2842:2879  if (!success) passwordFailedHandler() */\n      tag_65\n      jumpi\n        /* \"contracts/hw5.sol\":2856:2879  passwordFailedHandler() */\n      tag_66\n        /* \"contracts/hw5.sol\":2856:2877  passwordFailedHandler */\n      tag_67\n        /* \"contracts/hw5.sol\":2856:2879  passwordFailedHandler() */\n      jump\t// in\n    tag_66:\n        /* \"contracts/hw5.sol\":2842:2879  if (!success) passwordFailedHandler() */\n    tag_65:\n        /* \"contracts/hw5.sol\":2922:2928  amount */\n      dup3\n        /* \"contracts/hw5.sol\":2890:2898  accounts */\n      0x00\n        /* \"contracts/hw5.sol\":2890:2902  accounts[to] */\n      0x00\n        /* \"contracts/hw5.sol\":2899:2901  to */\n      dup7\n        /* \"contracts/hw5.sol\":2890:2902  accounts[to] */\n      0xffffffffffffffffffffffffffffffffffffffff\n      and\n      0xffffffffffffffffffffffffffffffffffffffff\n      and\n      dup2\n      mstore\n      0x20\n      add\n      swap1\n      dup2\n      mstore\n      0x20\n      add\n      0x00\n      keccak256\n        /* \"contracts/hw5.sol\":2890:2918  accounts[to][hash(password)] */\n      0x00\n        /* \"contracts/hw5.sol\":2903:2917  hash(password) */\n      tag_68\n        /* \"contracts/hw5.sol\":2908:2916  password */\n      dup6\n        /* \"contracts/hw5.sol\":2903:2907  hash */\n      tag_11\n        /* \"contracts/hw5.sol\":2903:2917  hash(password) */\n      jump\t// in\n    tag_68:\n        /* \"contracts/hw5.sol\":2890:2918  accounts[to][hash(password)] */\n      dup2\n      mstore\n      0x20\n      add\n      swap1\n      dup2\n      mstore\n      0x20\n      add\n      0x00\n      keccak256\n      0x00\n        /* \"contracts/hw5.sol\":2890:2928  accounts[to][hash(password)] += amount */\n      dup3\n      dup3\n      sload\n      tag_69\n      swap2\n      swap1\n      tag_70\n      jump\t// in\n    tag_69:\n      swap3\n      pop\n      pop\n      dup2\n      swap1\n      sstore\n      pop\n        /* \"contracts/hw5.sol\":2978:2984  amount */\n      dup3\n        /* \"contracts/hw5.sol\":2938:2946  accounts */\n      0x00\n        /* \"contracts/hw5.sol\":2938:2958  accounts[msg.sender] */\n      0x00\n        /* \"contracts/hw5.sol\":2947:2957  msg.sender */\n      caller\n        /* \"contracts/hw5.sol\":2938:2958  accounts[msg.sender] */\n      0xffffffffffffffffffffffffffffffffffffffff\n      and\n      0xffffffffffffffffffffffffffffffffffffffff\n      and\n      dup2\n      mstore\n      0x20\n      add\n      swap1\n      dup2\n      mstore\n      0x20\n      add\n      0x00\n      keccak256\n        /* \"contracts/hw5.sol\":2938:2974  accounts[msg.sender][hash(password)] */\n      0x00\n        /* \"contracts/hw5.sol\":2959:2973  hash(password) */\n      tag_71\n        /* \"contracts/hw5.sol\":2964:2972  password */\n      dup6\n        /* \"contracts/hw5.sol\":2959:2963  hash */\n      tag_11\n        /* \"contracts/hw5.sol\":2959:2973  hash(password) */\n      jump\t// in\n    tag_71:\n        /* \"contracts/hw5.sol\":2938:2974  accounts[msg.sender][hash(password)] */\n      dup2\n      mstore\n      0x20\n      add\n      swap1\n      dup2\n      mstore\n      0x20\n      add\n      0x00\n      keccak256\n      0x00\n        /* \"contracts/hw5.sol\":2938:2984  accounts[msg.sender][hash(password)] -= amount */\n      dup3\n      dup3\n      sload\n      tag_72\n      swap2\n      swap1\n      tag_73\n      jump\t// in\n    tag_72:\n      swap3\n      pop\n      pop\n      dup2\n      swap1\n      sstore\n      pop\n        /* \"contracts/hw5.sol\":2253:2991  {... */\n      pop\n        /* \"contracts/hw5.sol\":2182:2991  function transfer(address to, uint256 amount, uint256 password) public {... */\n    tag_50:\n      pop\n      pop\n      pop\n      jump\t// out\n        /* \"contracts/hw5.sol\":1321:1679  function getBalance(address addr, uint256 password) public returns (uint256) {... */\n    tag_27:\n        /* \"contracts/hw5.sol\":1389:1396  uint256 */\n      0x00\n        /* \"contracts/hw5.sol\":1441:1445  addr */\n      dup3\n        /* \"contracts/hw5.sol\":1413:1446  lookBalanceLogs(msg.sender, addr) */\n      0xffffffffffffffffffffffffffffffffffffffff\n      and\n        /* \"contracts/hw5.sol\":1429:1439  msg.sender */\n      caller\n        /* \"contracts/hw5.sol\":1413:1446  lookBalanceLogs(msg.sender, addr) */\n      0xffffffffffffffffffffffffffffffffffffffff\n      and\n      0xc1108062087028d06cfd95ccb33f6414d3bf1f8378198f0040fb622930dcd737\n      mload(0x40)\n      mload(0x40)\n      dup1\n      swap2\n      sub\n      swap1\n      log3\n        /* \"contracts/hw5.sol\":1464:1473  blackList */\n      0x03\n        /* \"contracts/hw5.sol\":1464:1485  blackList[msg.sender] */\n      0x00\n        /* \"contracts/hw5.sol\":1474:1484  msg.sender */\n      caller\n        /* \"contracts/hw5.sol\":1464:1485  blackList[msg.sender] */\n      0xffffffffffffffffffffffffffffffffffffffff\n      and\n      0xffffffffffffffffffffffffffffffffffffffff\n      and\n      dup2\n      mstore\n      0x20\n      add\n      swap1\n      dup2\n      mstore\n      0x20\n      add\n      0x00\n      keccak256\n      0x00\n      swap1\n      sload\n      swap1\n      0x0100\n      exp\n      swap1\n      div\n      0xff\n      and\n        /* \"contracts/hw5.sol\":1456:1515  require(blackList[msg.sender], \"you are in the black list\") */\n      tag_75\n      jumpi\n      mload(0x40)\n      0x08c379a000000000000000000000000000000000000000000000000000000000\n      dup2\n      mstore\n      0x04\n      add\n      tag_76\n      swap1\n      tag_54\n      jump\t// in\n    tag_76:\n      mload(0x40)\n      dup1\n      swap2\n      sub\n      swap1\n      revert\n    tag_75:\n        /* \"contracts/hw5.sol\":1526:1538  bool success */\n      0x00\n        /* \"contracts/hw5.sol\":1541:1572  isPasswordValid(addr, password) */\n      tag_77\n        /* \"contracts/hw5.sol\":1557:1561  addr */\n      dup5\n        /* \"contracts/hw5.sol\":1563:1571  password */\n      dup5\n        /* \"contracts/hw5.sol\":1541:1556  isPasswordValid */\n      tag_61\n        /* \"contracts/hw5.sol\":1541:1572  isPasswordValid(addr, password) */\n      jump\t// in\n    tag_77:\n        /* \"contracts/hw5.sol\":1526:1572  bool success = isPasswordValid(addr, password) */\n      swap1\n      pop\n        /* \"contracts/hw5.sol\":1587:1594  success */\n      dup1\n        /* \"contracts/hw5.sol\":1583:1671  if (success) return accounts[addr][hash(password)];... */\n      iszero\n      tag_78\n      jumpi\n        /* \"contracts/hw5.sol\":1603:1611  accounts */\n      0x00\n        /* \"contracts/hw5.sol\":1603:1617  accounts[addr] */\n      0x00\n        /* \"contracts/hw5.sol\":1612:1616  addr */\n      dup6\n        /* \"contracts/hw5.sol\":1603:1617  accounts[addr] */\n      0xffffffffffffffffffffffffffffffffffffffff\n      and\n      0xffffffffffffffffffffffffffffffffffffffff\n      and\n      dup2\n      mstore\n      0x20\n      add\n      swap1\n      dup2\n      mstore\n      0x20\n      add\n      0x00\n      keccak256\n        /* \"contracts/hw5.sol\":1603:1633  accounts[addr][hash(password)] */\n      0x00\n        /* \"contracts/hw5.sol\":1618:1632  hash(password) */\n      tag_79\n        /* \"contracts/hw5.sol\":1623:1631  password */\n      dup6\n        /* \"contracts/hw5.sol\":1618:1622  hash */\n      tag_11\n        /* \"contracts/hw5.sol\":1618:1632  hash(password) */\n      jump\t// in\n    tag_79:\n        /* \"contracts/hw5.sol\":1603:1633  accounts[addr][hash(password)] */\n      dup2\n      mstore\n      0x20\n      add\n      swap1\n      dup2\n      mstore\n      0x20\n      add\n      0x00\n      keccak256\n      sload\n        /* \"contracts/hw5.sol\":1596:1633  return accounts[addr][hash(password)] */\n      swap2\n      pop\n      pop\n      jump(tag_74)\n        /* \"contracts/hw5.sol\":1583:1671  if (success) return accounts[addr][hash(password)];... */\n    tag_78:\n        /* \"contracts/hw5.sol\":1648:1671  passwordFailedHandler() */\n      tag_81\n        /* \"contracts/hw5.sol\":1648:1669  passwordFailedHandler */\n      tag_67\n        /* \"contracts/hw5.sol\":1648:1671  passwordFailedHandler() */\n      jump\t// in\n    tag_81:\n        /* \"contracts/hw5.sol\":1398:1679  {... */\n      pop\n        /* \"contracts/hw5.sol\":1321:1679  function getBalance(address addr, uint256 password) public returns (uint256) {... */\n    tag_74:\n      swap3\n      swap2\n      pop\n      pop\n      jump\t// out\n        /* \"contracts/hw5.sol\":1685:2176  function withdraw(uint password) public {... */\n    tag_34:\n        /* \"contracts/hw5.sol\":1748:1757  blackList */\n      0x03\n        /* \"contracts/hw5.sol\":1748:1769  blackList[msg.sender] */\n      0x00\n        /* \"contracts/hw5.sol\":1758:1768  msg.sender */\n      caller\n        /* \"contracts/hw5.sol\":1748:1769  blackList[msg.sender] */\n      0xffffffffffffffffffffffffffffffffffffffff\n      and\n      0xffffffffffffffffffffffffffffffffffffffff\n      and\n      dup2\n      mstore\n      0x20\n      add\n      swap1\n      dup2\n      mstore\n      0x20\n      add\n      0x00\n      keccak256\n      0x00\n      swap1\n      sload\n      swap1\n      0x0100\n      exp\n      swap1\n      div\n      0xff\n      and\n        /* \"contracts/hw5.sol\":1744:1884  if (blackList[msg.sender]) {... */\n      iszero\n      tag_83\n      jumpi\n        /* \"contracts/hw5.sol\":1815:1816  0 */\n      0x00\n        /* \"contracts/hw5.sol\":1803:1813  msg.sender */\n      caller\n        /* \"contracts/hw5.sol\":1790:1824  withdrawLogs(msg.sender, 0, false) */\n      0xffffffffffffffffffffffffffffffffffffffff\n      and\n      0x1ace93d63abb1030c7fa4ce5af1271c17a388b5aca35a4f21e5e69c7fa95a3ee\n        /* \"contracts/hw5.sol\":1818:1823  false */\n      0x00\n        /* \"contracts/hw5.sol\":1790:1824  withdrawLogs(msg.sender, 0, false) */\n      mload(0x40)\n      tag_84\n      swap2\n      swap1\n      tag_13\n      jump\t// in\n    tag_84:\n      mload(0x40)\n      dup1\n      swap2\n      sub\n      swap1\n      log3\n        /* \"contracts/hw5.sol\":1838:1873  revert(\"you are in the black list\") */\n      mload(0x40)\n      0x08c379a000000000000000000000000000000000000000000000000000000000\n      dup2\n      mstore\n      0x04\n      add\n      tag_85\n      swap1\n      tag_54\n      jump\t// in\n    tag_85:\n      mload(0x40)\n      dup1\n      swap2\n      sub\n      swap1\n      revert\n        /* \"contracts/hw5.sol\":1744:1884  if (blackList[msg.sender]) {... */\n    tag_83:\n        /* \"contracts/hw5.sol\":1894:1906  bool success */\n      0x00\n        /* \"contracts/hw5.sol\":1909:1946  isPasswordValid(msg.sender, password) */\n      tag_86\n        /* \"contracts/hw5.sol\":1925:1935  msg.sender */\n      caller\n        /* \"contracts/hw5.sol\":1937:1945  password */\n      dup4\n        /* \"contracts/hw5.sol\":1909:1924  isPasswordValid */\n      tag_61\n        /* \"contracts/hw5.sol\":1909:1946  isPasswordValid(msg.sender, password) */\n      jump\t// in\n    tag_86:\n        /* \"contracts/hw5.sol\":1894:1946  bool success = isPasswordValid(msg.sender, password) */\n      swap1\n      pop\n        /* \"contracts/hw5.sol\":1986:1994  accounts */\n      0x00\n        /* \"contracts/hw5.sol\":1986:2006  accounts[msg.sender] */\n      0x00\n        /* \"contracts/hw5.sol\":1995:2005  msg.sender */\n      caller\n        /* \"contracts/hw5.sol\":1986:2006  accounts[msg.sender] */\n      0xffffffffffffffffffffffffffffffffffffffff\n      and\n      0xffffffffffffffffffffffffffffffffffffffff\n      and\n      dup2\n      mstore\n      0x20\n      add\n      swap1\n      dup2\n      mstore\n      0x20\n      add\n      0x00\n      keccak256\n        /* \"contracts/hw5.sol\":1986:2022  accounts[msg.sender][hash(password)] */\n      0x00\n        /* \"contracts/hw5.sol\":2007:2021  hash(password) */\n      tag_87\n        /* \"contracts/hw5.sol\":2012:2020  password */\n      dup5\n        /* \"contracts/hw5.sol\":2007:2011  hash */\n      tag_11\n        /* \"contracts/hw5.sol\":2007:2021  hash(password) */\n      jump\t// in\n    tag_87:\n        /* \"contracts/hw5.sol\":1986:2022  accounts[msg.sender][hash(password)] */\n      dup2\n      mstore\n      0x20\n      add\n      swap1\n      dup2\n      mstore\n      0x20\n      add\n      0x00\n      keccak256\n      sload\n        /* \"contracts/hw5.sol\":1974:1984  msg.sender */\n      caller\n        /* \"contracts/hw5.sol\":1961:2032  withdrawLogs(msg.sender, accounts[msg.sender][hash(password)], success) */\n      0xffffffffffffffffffffffffffffffffffffffff\n      and\n      0x1ace93d63abb1030c7fa4ce5af1271c17a388b5aca35a4f21e5e69c7fa95a3ee\n        /* \"contracts/hw5.sol\":2024:2031  success */\n      dup4\n        /* \"contracts/hw5.sol\":1961:2032  withdrawLogs(msg.sender, accounts[msg.sender][hash(password)], success) */\n      mload(0x40)\n      tag_88\n      swap2\n      swap1\n      tag_13\n      jump\t// in\n    tag_88:\n      mload(0x40)\n      dup1\n      swap2\n      sub\n      swap1\n      log3\n        /* \"contracts/hw5.sol\":2047:2054  success */\n      dup1\n        /* \"contracts/hw5.sol\":2043:2160  if (success) payable(msg.sender).transfer(accounts[msg.sender][hash(password)]);... */\n      iszero\n      tag_89\n      jumpi\n        /* \"contracts/hw5.sol\":2064:2074  msg.sender */\n      caller\n        /* \"contracts/hw5.sol\":2056:2084  payable(msg.sender).transfer */\n      0xffffffffffffffffffffffffffffffffffffffff\n      and\n        /* \"contracts/hw5.sol\":2056:2122  payable(msg.sender).transfer(accounts[msg.sender][hash(password)]) */\n      0x08fc\n        /* \"contracts/hw5.sol\":2085:2093  accounts */\n      0x00\n        /* \"contracts/hw5.sol\":2085:2105  accounts[msg.sender] */\n      0x00\n        /* \"contracts/hw5.sol\":2094:2104  msg.sender */\n      caller\n        /* \"contracts/hw5.sol\":2085:2105  accounts[msg.sender] */\n      0xffffffffffffffffffffffffffffffffffffffff\n      and\n      0xffffffffffffffffffffffffffffffffffffffff\n      and\n      dup2\n      mstore\n      0x20\n      add\n      swap1\n      dup2\n      mstore\n      0x20\n      add\n      0x00\n      keccak256\n        /* \"contracts/hw5.sol\":2085:2121  accounts[msg.sender][hash(password)] */\n      0x00\n        /* \"contracts/hw5.sol\":2106:2120  hash(password) */\n      tag_90\n        /* \"contracts/hw5.sol\":2111:2119  password */\n      dup7\n        /* \"contracts/hw5.sol\":2106:2110  hash */\n      tag_11\n        /* \"contracts/hw5.sol\":2106:2120  hash(password) */\n      jump\t// in\n    tag_90:\n        /* \"contracts/hw5.sol\":2085:2121  accounts[msg.sender][hash(password)] */\n      dup2\n      mstore\n      0x20\n      add\n      swap1\n      dup2\n      mstore\n      0x20\n      add\n      0x00\n      keccak256\n      sload\n        /* \"contracts/hw5.sol\":2056:2122  payable(msg.sender).transfer(accounts[msg.sender][hash(password)]) */\n      swap1\n      dup2\n      iszero\n      mul\n      swap1\n      mload(0x40)\n      0x00\n      mload(0x40)\n      dup1\n      dup4\n      sub\n      dup2\n      dup6\n      dup9\n      dup9\n      call\n      swap4\n      pop\n      pop\n      pop\n      pop\n      iszero\n      dup1\n      iszero\n      tag_92\n      jumpi\n      returndatacopy(0x00, 0x00, returndatasize)\n      revert(0x00, returndatasize)\n    tag_92:\n      pop\n        /* \"contracts/hw5.sol\":2043:2160  if (success) payable(msg.sender).transfer(accounts[msg.sender][hash(password)]);... */\n      jump(tag_93)\n    tag_89:\n        /* \"contracts/hw5.sol\":2137:2160  passwordFailedHandler() */\n      tag_94\n        /* \"contracts/hw5.sol\":2137:2158  passwordFailedHandler */\n      tag_67\n        /* \"contracts/hw5.sol\":2137:2160  passwordFailedHandler() */\n      jump\t// in\n    tag_94:\n        /* \"contracts/hw5.sol\":2043:2160  if (success) payable(msg.sender).transfer(accounts[msg.sender][hash(password)]);... */\n    tag_93:\n        /* \"contracts/hw5.sol\":1725:2176  {... */\n      pop\n        /* \"contracts/hw5.sol\":1685:2176  function withdraw(uint password) public {... */\n      pop\n      jump\t// out\n        /* \"contracts/hw5.sol\":923:1315  function deposit(address to, uint256 password) public payable {... */\n    tag_37:\n        /* \"contracts/hw5.sol\":999:1008  blackList */\n      0x03\n        /* \"contracts/hw5.sol\":999:1020  blackList[msg.sender] */\n      0x00\n        /* \"contracts/hw5.sol\":1009:1019  msg.sender */\n      caller\n        /* \"contracts/hw5.sol\":999:1020  blackList[msg.sender] */\n      0xffffffffffffffffffffffffffffffffffffffff\n      and\n      0xffffffffffffffffffffffffffffffffffffffff\n      and\n      dup2\n      mstore\n      0x20\n      add\n      swap1\n      dup2\n      mstore\n      0x20\n      add\n      0x00\n      keccak256\n      0x00\n      swap1\n      sload\n      swap1\n      0x0100\n      exp\n      swap1\n      div\n      0xff\n      and\n        /* \"contracts/hw5.sol\":995:1158  if (blackList[msg.sender]) {... */\n      iszero\n      tag_96\n      jumpi\n        /* \"contracts/hw5.sol\":1068:1076  accounts */\n      0x00\n        /* \"contracts/hw5.sol\":1068:1080  accounts[to] */\n      0x00\n        /* \"contracts/hw5.sol\":1077:1079  to */\n      dup4\n        /* \"contracts/hw5.sol\":1068:1080  accounts[to] */\n      0xffffffffffffffffffffffffffffffffffffffff\n      and\n      0xffffffffffffffffffffffffffffffffffffffff\n      and\n      dup2\n      mstore\n      0x20\n      add\n      swap1\n      dup2\n      mstore\n      0x20\n      add\n      0x00\n      keccak256\n        /* \"contracts/hw5.sol\":1068:1090  accounts[to][password] */\n      0x00\n        /* \"contracts/hw5.sol\":1081:1089  password */\n      dup3\n        /* \"contracts/hw5.sol\":1068:1090  accounts[to][password] */\n      dup2\n      mstore\n      0x20\n      add\n      swap1\n      dup2\n      mstore\n      0x20\n      add\n      0x00\n      keccak256\n      sload\n        /* \"contracts/hw5.sol\":1064:1066  to */\n      dup3\n        /* \"contracts/hw5.sol\":1041:1098  depositLogs(msg.value, to, accounts[to][password], false) */\n      0xffffffffffffffffffffffffffffffffffffffff\n      and\n        /* \"contracts/hw5.sol\":1053:1062  msg.value */\n      callvalue\n        /* \"contracts/hw5.sol\":1041:1098  depositLogs(msg.value, to, accounts[to][password], false) */\n      0x8bcd11857e6a3be2869200dad8a50365a705c0d72f71b2e96f28837226cd3f7f\n        /* \"contracts/hw5.sol\":1092:1097  false */\n      0x00\n        /* \"contracts/hw5.sol\":1041:1098  depositLogs(msg.value, to, accounts[to][password], false) */\n      mload(0x40)\n      tag_97\n      swap2\n      swap1\n      tag_13\n      jump\t// in\n    tag_97:\n      mload(0x40)\n      dup1\n      swap2\n      sub\n      swap1\n      log4\n        /* \"contracts/hw5.sol\":1112:1147  revert(\"you are in the black list\") */\n      mload(0x40)\n      0x08c379a000000000000000000000000000000000000000000000000000000000\n      dup2\n      mstore\n      0x04\n      add\n      tag_98\n      swap1\n      tag_54\n      jump\t// in\n    tag_98:\n      mload(0x40)\n      dup1\n      swap2\n      sub\n      swap1\n      revert\n        /* \"contracts/hw5.sol\":995:1158  if (blackList[msg.sender]) {... */\n    tag_96:\n        /* \"contracts/hw5.sol\":1187:1191  true */\n      0x01\n        /* \"contracts/hw5.sol\":1168:1180  validAccount */\n      0x02\n        /* \"contracts/hw5.sol\":1168:1184  validAccount[to] */\n      0x00\n        /* \"contracts/hw5.sol\":1181:1183  to */\n      dup5\n        /* \"contracts/hw5.sol\":1168:1184  validAccount[to] */\n      0xffffffffffffffffffffffffffffffffffffffff\n      and\n      0xffffffffffffffffffffffffffffffffffffffff\n      and\n      dup2\n      mstore\n      0x20\n      add\n      swap1\n      dup2\n      mstore\n      0x20\n      add\n      0x00\n      keccak256\n      0x00\n        /* \"contracts/hw5.sol\":1168:1191  validAccount[to] = true */\n      0x0100\n      exp\n      dup2\n      sload\n      dup2\n      0xff\n      mul\n      not\n      and\n      swap1\n      dup4\n      iszero\n      iszero\n      mul\n      or\n      swap1\n      sstore\n      pop\n        /* \"contracts/hw5.sol\":1228:1237  msg.value */\n      callvalue\n        /* \"contracts/hw5.sol\":1202:1210  accounts */\n      0x00\n        /* \"contracts/hw5.sol\":1202:1214  accounts[to] */\n      0x00\n        /* \"contracts/hw5.sol\":1211:1213  to */\n      dup5\n        /* \"contracts/hw5.sol\":1202:1214  accounts[to] */\n      0xffffffffffffffffffffffffffffffffffffffff\n      and\n      0xffffffffffffffffffffffffffffffffffffffff\n      and\n      dup2\n      mstore\n      0x20\n      add\n      swap1\n      dup2\n      mstore\n      0x20\n      add\n      0x00\n      keccak256\n        /* \"contracts/hw5.sol\":1202:1224  accounts[to][password] */\n      0x00\n        /* \"contracts/hw5.sol\":1215:1223  password */\n      dup4\n        /* \"contracts/hw5.sol\":1202:1224  accounts[to][password] */\n      dup2\n      mstore\n      0x20\n      add\n      swap1\n      dup2\n      mstore\n      0x20\n      add\n      0x00\n      keccak256\n      0x00\n        /* \"contracts/hw5.sol\":1202:1237  accounts[to][password] += msg.value */\n      dup3\n      dup3\n      sload\n      tag_99\n      swap2\n      swap1\n      tag_70\n      jump\t// in\n    tag_99:\n      swap3\n      pop\n      pop\n      dup2\n      swap1\n      sstore\n      pop\n        /* \"contracts/hw5.sol\":1279:1287  accounts */\n      0x00\n        /* \"contracts/hw5.sol\":1279:1291  accounts[to] */\n      0x00\n        /* \"contracts/hw5.sol\":1288:1290  to */\n      dup4\n        /* \"contracts/hw5.sol\":1279:1291  accounts[to] */\n      0xffffffffffffffffffffffffffffffffffffffff\n      and\n      0xffffffffffffffffffffffffffffffffffffffff\n      and\n      dup2\n      mstore\n      0x20\n      add\n      swap1\n      dup2\n      mstore\n      0x20\n      add\n      0x00\n      keccak256\n        /* \"contracts/hw5.sol\":1279:1301  accounts[to][password] */\n      0x00\n        /* \"contracts/hw5.sol\":1292:1300  password */\n      dup3\n        /* \"contracts/hw5.sol\":1279:1301  accounts[to][password] */\n      dup2\n      mstore\n      0x20\n      add\n      swap1\n      dup2\n      mstore\n      0x20\n      add\n      0x00\n      keccak256\n      sload\n        /* \"contracts/hw5.sol\":1275:1277  to */\n      dup3\n        /* \"contracts/hw5.sol\":1252:1308  depositLogs(msg.value, to, accounts[to][password], true) */\n      0xffffffffffffffffffffffffffffffffffffffff\n      and\n        /* \"contracts/hw5.sol\":1264:1273  msg.value */\n      callvalue\n        /* \"contracts/hw5.sol\":1252:1308  depositLogs(msg.value, to, accounts[to][password], true) */\n      0x8bcd11857e6a3be2869200dad8a50365a705c0d72f71b2e96f28837226cd3f7f\n        /* \"contracts/hw5.sol\":1303:1307  true */\n      0x01\n        /* \"contracts/hw5.sol\":1252:1308  depositLogs(msg.value, to, accounts[to][password], true) */\n      mload(0x40)\n      tag_100\n      swap2\n      swap1\n      tag_13\n      jump\t// in\n    tag_100:\n      mload(0x40)\n      dup1\n      swap2\n      sub\n      swap1\n      log4\n        /* \"contracts/hw5.sol\":923:1315  function deposit(address to, uint256 password) public payable {... */\n      pop\n      pop\n      jump\t// out\n        /* \"contracts/hw5.sol\":3369:3513  function isPasswordValid(address addr, uint256 password) private view returns (bool) {... */\n    tag_61:\n        /* \"contracts/hw5.sol\":3448:3452  bool */\n      0x00\n        /* \"contracts/hw5.sol\":3505:3506  0 */\n      0x00\n        /* \"contracts/hw5.sol\":3471:3479  accounts */\n      0x00\n        /* \"contracts/hw5.sol\":3471:3485  accounts[addr] */\n      0x00\n        /* \"contracts/hw5.sol\":3480:3484  addr */\n      dup6\n        /* \"contracts/hw5.sol\":3471:3485  accounts[addr] */\n      0xffffffffffffffffffffffffffffffffffffffff\n      and\n      0xffffffffffffffffffffffffffffffffffffffff\n      and\n      dup2\n      mstore\n      0x20\n      add\n      swap1\n      dup2\n      mstore\n      0x20\n      add\n      0x00\n      keccak256\n        /* \"contracts/hw5.sol\":3471:3501  accounts[addr][hash(password)] */\n      0x00\n        /* \"contracts/hw5.sol\":3486:3500  hash(password) */\n      tag_102\n        /* \"contracts/hw5.sol\":3491:3499  password */\n      dup6\n        /* \"contracts/hw5.sol\":3486:3490  hash */\n      tag_11\n        /* \"contracts/hw5.sol\":3486:3500  hash(password) */\n      jump\t// in\n    tag_102:\n        /* \"contracts/hw5.sol\":3471:3501  accounts[addr][hash(password)] */\n      dup2\n      mstore\n      0x20\n      add\n      swap1\n      dup2\n      mstore\n      0x20\n      add\n      0x00\n      keccak256\n      sload\n        /* \"contracts/hw5.sol\":3471:3506  accounts[addr][hash(password)] != 0 */\n      eq\n      iszero\n        /* \"contracts/hw5.sol\":3464:3506  return accounts[addr][hash(password)] != 0 */\n      swap1\n      pop\n        /* \"contracts/hw5.sol\":3369:3513  function isPasswordValid(address addr, uint256 password) private view returns (bool) {... */\n      swap3\n      swap2\n      pop\n      pop\n      jump\t// out\n        /* \"contracts/hw5.sol\":3519:3738  function passwordFailedHandler() private {... */\n    tag_67:\n        /* \"contracts/hw5.sol\":3597:3598  2 */\n      0x02\n        /* \"contracts/hw5.sol\":3576:3581  count */\n      0x01\n        /* \"contracts/hw5.sol\":3576:3593  count[msg.sender] */\n      0x00\n        /* \"contracts/hw5.sol\":3582:3592  msg.sender */\n      caller\n        /* \"contracts/hw5.sol\":3576:3593  count[msg.sender] */\n      0xffffffffffffffffffffffffffffffffffffffff\n      and\n      0xffffffffffffffffffffffffffffffffffffffff\n      and\n      dup2\n      mstore\n      0x20\n      add\n      swap1\n      dup2\n      mstore\n      0x20\n      add\n      0x00\n      keccak256\n      0x00\n        /* \"contracts/hw5.sol\":3574:3593  ++count[msg.sender] */\n      dup2\n      sload\n      tag_104\n      swap1\n      tag_105\n      jump\t// in\n    tag_104:\n      swap2\n      swap1\n      pop\n      dup2\n      swap1\n      sstore\n        /* \"contracts/hw5.sol\":3574:3598  ++count[msg.sender] >= 2 */\n      lt\n        /* \"contracts/hw5.sol\":3570:3696  if (++count[msg.sender] >= 2) {... */\n      tag_106\n      jumpi\n        /* \"contracts/hw5.sol\":3638:3642  true */\n      0x01\n        /* \"contracts/hw5.sol\":3614:3623  blackList */\n      0x03\n        /* \"contracts/hw5.sol\":3614:3635  blackList[msg.sender] */\n      0x00\n        /* \"contracts/hw5.sol\":3624:3634  msg.sender */\n      caller\n        /* \"contracts/hw5.sol\":3614:3635  blackList[msg.sender] */\n      0xffffffffffffffffffffffffffffffffffffffff\n      and\n      0xffffffffffffffffffffffffffffffffffffffff\n      and\n      dup2\n      mstore\n      0x20\n      add\n      swap1\n      dup2\n      mstore\n      0x20\n      add\n      0x00\n      keccak256\n      0x00\n        /* \"contracts/hw5.sol\":3614:3642  blackList[msg.sender] = true */\n      0x0100\n      exp\n      dup2\n      sload\n      dup2\n      0xff\n      mul\n      not\n      and\n      swap1\n      dup4\n      iszero\n      iszero\n      mul\n      or\n      swap1\n      sstore\n      pop\n        /* \"contracts/hw5.sol\":3674:3684  msg.sender */\n      caller\n        /* \"contracts/hw5.sol\":3661:3685  addBlackList(msg.sender) */\n      0xffffffffffffffffffffffffffffffffffffffff\n      and\n      0x0ecb93c06e2466c523c3ed0f181f11e5cc9ded3e0b654bc0b9f8a2ed1269facf\n      mload(0x40)\n      mload(0x40)\n      dup1\n      swap2\n      sub\n      swap1\n      log2\n        /* \"contracts/hw5.sol\":3570:3696  if (++count[msg.sender] >= 2) {... */\n    tag_106:\n        /* \"contracts/hw5.sol\":3705:3731  revert(\"invalid password\") */\n      mload(0x40)\n      0x08c379a000000000000000000000000000000000000000000000000000000000\n      dup2\n      mstore\n      0x04\n      add\n      tag_107\n      swap1\n      tag_108\n      jump\t// in\n    tag_107:\n      mload(0x40)\n      dup1\n      swap2\n      sub\n      swap1\n      revert\n        /* \"#utility.yul\":7:97   */\n    tag_109:\n        /* \"#utility.yul\":41:48   */\n      0x00\n        /* \"#utility.yul\":84:89   */\n      dup2\n        /* \"#utility.yul\":77:90   */\n      iszero\n        /* \"#utility.yul\":70:91   */\n      iszero\n        /* \"#utility.yul\":59:91   */\n      swap1\n      pop\n        /* \"#utility.yul\":7:97   */\n      swap2\n      swap1\n      pop\n      jump\t// out\n        /* \"#utility.yul\":103:212   */\n    tag_110:\n        /* \"#utility.yul\":184:205   */\n      tag_140\n        /* \"#utility.yul\":199:204   */\n      dup2\n        /* \"#utility.yul\":184:205   */\n      tag_109\n      jump\t// in\n    tag_140:\n        /* \"#utility.yul\":179:182   */\n      dup3\n        /* \"#utility.yul\":172:206   */\n      mstore\n        /* \"#utility.yul\":103:212   */\n      pop\n      pop\n      jump\t// out\n        /* \"#utility.yul\":218:428   */\n    tag_13:\n        /* \"#utility.yul\":305:309   */\n      0x00\n        /* \"#utility.yul\":343:345   */\n      0x20\n        /* \"#utility.yul\":332:341   */\n      dup3\n        /* \"#utility.yul\":328:346   */\n      add\n        /* \"#utility.yul\":320:346   */\n      swap1\n      pop\n        /* \"#utility.yul\":356:421   */\n      tag_142\n        /* \"#utility.yul\":418:419   */\n      0x00\n        /* \"#utility.yul\":407:416   */\n      dup4\n        /* \"#utility.yul\":403:420   */\n      add\n        /* \"#utility.yul\":394:400   */\n      dup5\n        /* \"#utility.yul\":356:421   */\n      tag_110\n      jump\t// in\n    tag_142:\n        /* \"#utility.yul\":218:428   */\n      swap3\n      swap2\n      pop\n      pop\n      jump\t// out\n        /* \"#utility.yul\":515:632   */\n    tag_112:\n        /* \"#utility.yul\":624:625   */\n      0x00\n        /* \"#utility.yul\":621:622   */\n      0x00\n        /* \"#utility.yul\":614:626   */\n      revert\n        /* \"#utility.yul\":761:887   */\n    tag_114:\n        /* \"#utility.yul\":798:805   */\n      0x00\n        /* \"#utility.yul\":838:880   */\n      0xffffffffffffffffffffffffffffffffffffffff\n        /* \"#utility.yul\":831:836   */\n      dup3\n        /* \"#utility.yul\":827:881   */\n      and\n        /* \"#utility.yul\":816:881   */\n      swap1\n      pop\n        /* \"#utility.yul\":761:887   */\n      swap2\n      swap1\n      pop\n      jump\t// out\n        /* \"#utility.yul\":893:989   */\n    tag_115:\n        /* \"#utility.yul\":930:937   */\n      0x00\n        /* \"#utility.yul\":959:983   */\n      tag_148\n        /* \"#utility.yul\":977:982   */\n      dup3\n        /* \"#utility.yul\":959:983   */\n      tag_114\n      jump\t// in\n    tag_148:\n        /* \"#utility.yul\":948:983   */\n      swap1\n      pop\n        /* \"#utility.yul\":893:989   */\n      swap2\n      swap1\n      pop\n      jump\t// out\n        /* \"#utility.yul\":995:1117   */\n    tag_116:\n        /* \"#utility.yul\":1068:1092   */\n      tag_150\n        /* \"#utility.yul\":1086:1091   */\n      dup2\n        /* \"#utility.yul\":1068:1092   */\n      tag_115\n      jump\t// in\n    tag_150:\n        /* \"#utility.yul\":1061:1066   */\n      dup2\n        /* \"#utility.yul\":1058:1093   */\n      eq\n        /* \"#utility.yul\":1048:1111   */\n      tag_151\n      jumpi\n        /* \"#utility.yul\":1107:1108   */\n      0x00\n        /* \"#utility.yul\":1104:1105   */\n      0x00\n        /* \"#utility.yul\":1097:1109   */\n      revert\n        /* \"#utility.yul\":1048:1111   */\n    tag_151:\n        /* \"#utility.yul\":995:1117   */\n      pop\n      jump\t// out\n        /* \"#utility.yul\":1123:1262   */\n    tag_117:\n        /* \"#utility.yul\":1169:1174   */\n      0x00\n        /* \"#utility.yul\":1207:1213   */\n      dup2\n        /* \"#utility.yul\":1194:1214   */\n      calldataload\n        /* \"#utility.yul\":1185:1214   */\n      swap1\n      pop\n        /* \"#utility.yul\":1223:1256   */\n      tag_153\n        /* \"#utility.yul\":1250:1255   */\n      dup2\n        /* \"#utility.yul\":1223:1256   */\n      tag_116\n      jump\t// in\n    tag_153:\n        /* \"#utility.yul\":1123:1262   */\n      swap3\n      swap2\n      pop\n      pop\n      jump\t// out\n        /* \"#utility.yul\":1268:1345   */\n    tag_118:\n        /* \"#utility.yul\":1305:1312   */\n      0x00\n        /* \"#utility.yul\":1334:1339   */\n      dup2\n        /* \"#utility.yul\":1323:1339   */\n      swap1\n      pop\n        /* \"#utility.yul\":1268:1345   */\n      swap2\n      swap1\n      pop\n      jump\t// out\n        /* \"#utility.yul\":1351:1473   */\n    tag_119:\n        /* \"#utility.yul\":1424:1448   */\n      tag_156\n        /* \"#utility.yul\":1442:1447   */\n      dup2\n        /* \"#utility.yul\":1424:1448   */\n      tag_118\n      jump\t// in\n    tag_156:\n        /* \"#utility.yul\":1417:1422   */\n      dup2\n        /* \"#utility.yul\":1414:1449   */\n      eq\n        /* \"#utility.yul\":1404:1467   */\n      tag_157\n      jumpi\n        /* \"#utility.yul\":1463:1464   */\n      0x00\n        /* \"#utility.yul\":1460:1461   */\n      0x00\n        /* \"#utility.yul\":1453:1465   */\n      revert\n        /* \"#utility.yul\":1404:1467   */\n    tag_157:\n        /* \"#utility.yul\":1351:1473   */\n      pop\n      jump\t// out\n        /* \"#utility.yul\":1479:1618   */\n    tag_120:\n        /* \"#utility.yul\":1525:1530   */\n      0x00\n        /* \"#utility.yul\":1563:1569   */\n      dup2\n        /* \"#utility.yul\":1550:1570   */\n      calldataload\n        /* \"#utility.yul\":1541:1570   */\n      swap1\n      pop\n        /* \"#utility.yul\":1579:1612   */\n      tag_159\n        /* \"#utility.yul\":1606:1611   */\n      dup2\n        /* \"#utility.yul\":1579:1612   */\n      tag_119\n      jump\t// in\n    tag_159:\n        /* \"#utility.yul\":1479:1618   */\n      swap3\n      swap2\n      pop\n      pop\n      jump\t// out\n        /* \"#utility.yul\":1624:2243   */\n    tag_21:\n        /* \"#utility.yul\":1701:1707   */\n      0x00\n        /* \"#utility.yul\":1709:1715   */\n      0x00\n        /* \"#utility.yul\":1717:1723   */\n      0x00\n        /* \"#utility.yul\":1766:1768   */\n      0x60\n        /* \"#utility.yul\":1754:1763   */\n      dup5\n        /* \"#utility.yul\":1745:1752   */\n      dup7\n        /* \"#utility.yul\":1741:1764   */\n      sub\n        /* \"#utility.yul\":1737:1769   */\n      slt\n        /* \"#utility.yul\":1734:1853   */\n      iszero\n      tag_161\n      jumpi\n        /* \"#utility.yul\":1772:1851   */\n      tag_162\n      tag_112\n      jump\t// in\n    tag_162:\n        /* \"#utility.yul\":1734:1853   */\n    tag_161:\n        /* \"#utility.yul\":1892:1893   */\n      0x00\n        /* \"#utility.yul\":1917:1970   */\n      tag_163\n        /* \"#utility.yul\":1962:1969   */\n      dup7\n        /* \"#utility.yul\":1953:1959   */\n      dup3\n        /* \"#utility.yul\":1942:1951   */\n      dup8\n        /* \"#utility.yul\":1938:1960   */\n      add\n        /* \"#utility.yul\":1917:1970   */\n      tag_117\n      jump\t// in\n    tag_163:\n        /* \"#utility.yul\":1907:1970   */\n      swap4\n      pop\n        /* \"#utility.yul\":1863:1980   */\n      pop\n        /* \"#utility.yul\":2019:2021   */\n      0x20\n        /* \"#utility.yul\":2045:2098   */\n      tag_164\n        /* \"#utility.yul\":2090:2097   */\n      dup7\n        /* \"#utility.yul\":2081:2087   */\n      dup3\n        /* \"#utility.yul\":2070:2079   */\n      dup8\n        /* \"#utility.yul\":2066:2088   */\n      add\n        /* \"#utility.yul\":2045:2098   */\n      tag_120\n      jump\t// in\n    tag_164:\n        /* \"#utility.yul\":2035:2098   */\n      swap3\n      pop\n        /* \"#utility.yul\":1990:2108   */\n      pop\n        /* \"#utility.yul\":2147:2149   */\n      0x40\n        /* \"#utility.yul\":2173:2226   */\n      tag_165\n        /* \"#utility.yul\":2218:2225   */\n      dup7\n        /* \"#utility.yul\":2209:2215   */\n      dup3\n        /* \"#utility.yul\":2198:2207   */\n      dup8\n        /* \"#utility.yul\":2194:2216   */\n      add\n        /* \"#utility.yul\":2173:2226   */\n      tag_120\n      jump\t// in\n    tag_165:\n        /* \"#utility.yul\":2163:2226   */\n      swap2\n      pop\n        /* \"#utility.yul\":2118:2236   */\n      pop\n        /* \"#utility.yul\":1624:2243   */\n      swap3\n      pop\n      swap3\n      pop\n      swap3\n      jump\t// out\n        /* \"#utility.yul\":2249:2723   */\n    tag_26:\n        /* \"#utility.yul\":2317:2323   */\n      0x00\n        /* \"#utility.yul\":2325:2331   */\n      0x00\n        /* \"#utility.yul\":2374:2376   */\n      0x40\n        /* \"#utility.yul\":2362:2371   */\n      dup4\n        /* \"#utility.yul\":2353:2360   */\n      dup6\n        /* \"#utility.yul\":2349:2372   */\n      sub\n        /* \"#utility.yul\":2345:2377   */\n      slt\n        /* \"#utility.yul\":2342:2461   */\n      iszero\n      tag_167\n      jumpi\n        /* \"#utility.yul\":2380:2459   */\n      tag_168\n      tag_112\n      jump\t// in\n    tag_168:\n        /* \"#utility.yul\":2342:2461   */\n    tag_167:\n        /* \"#utility.yul\":2500:2501   */\n      0x00\n        /* \"#utility.yul\":2525:2578   */\n      tag_169\n        /* \"#utility.yul\":2570:2577   */\n      dup6\n        /* \"#utility.yul\":2561:2567   */\n      dup3\n        /* \"#utility.yul\":2550:2559   */\n      dup7\n        /* \"#utility.yul\":2546:2568   */\n      add\n        /* \"#utility.yul\":2525:2578   */\n      tag_117\n      jump\t// in\n    tag_169:\n        /* \"#utility.yul\":2515:2578   */\n      swap3\n      pop\n        /* \"#utility.yul\":2471:2588   */\n      pop\n        /* \"#utility.yul\":2627:2629   */\n      0x20\n        /* \"#utility.yul\":2653:2706   */\n      tag_170\n        /* \"#utility.yul\":2698:2705   */\n      dup6\n        /* \"#utility.yul\":2689:2695   */\n      dup3\n        /* \"#utility.yul\":2678:2687   */\n      dup7\n        /* \"#utility.yul\":2674:2696   */\n      add\n        /* \"#utility.yul\":2653:2706   */\n      tag_120\n      jump\t// in\n    tag_170:\n        /* \"#utility.yul\":2643:2706   */\n      swap2\n      pop\n        /* \"#utility.yul\":2598:2716   */\n      pop\n        /* \"#utility.yul\":2249:2723   */\n      swap3\n      pop\n      swap3\n      swap1\n      pop\n      jump\t// out\n        /* \"#utility.yul\":2729:2847   */\n    tag_121:\n        /* \"#utility.yul\":2816:2840   */\n      tag_172\n        /* \"#utility.yul\":2834:2839   */\n      dup2\n        /* \"#utility.yul\":2816:2840   */\n      tag_118\n      jump\t// in\n    tag_172:\n        /* \"#utility.yul\":2811:2814   */\n      dup3\n        /* \"#utility.yul\":2804:2841   */\n      mstore\n        /* \"#utility.yul\":2729:2847   */\n      pop\n      pop\n      jump\t// out\n        /* \"#utility.yul\":2853:3075   */\n    tag_29:\n        /* \"#utility.yul\":2946:2950   */\n      0x00\n        /* \"#utility.yul\":2984:2986   */\n      0x20\n        /* \"#utility.yul\":2973:2982   */\n      dup3\n        /* \"#utility.yul\":2969:2987   */\n      add\n        /* \"#utility.yul\":2961:2987   */\n      swap1\n      pop\n        /* \"#utility.yul\":2997:3068   */\n      tag_174\n        /* \"#utility.yul\":3065:3066   */\n      0x00\n        /* \"#utility.yul\":3054:3063   */\n      dup4\n        /* \"#utility.yul\":3050:3067   */\n      add\n        /* \"#utility.yul\":3041:3047   */\n      dup5\n        /* \"#utility.yul\":2997:3068   */\n      tag_121\n      jump\t// in\n    tag_174:\n        /* \"#utility.yul\":2853:3075   */\n      swap3\n      swap2\n      pop\n      pop\n      jump\t// out\n        /* \"#utility.yul\":3081:3410   */\n    tag_33:\n        /* \"#utility.yul\":3140:3146   */\n      0x00\n        /* \"#utility.yul\":3189:3191   */\n      0x20\n        /* \"#utility.yul\":3177:3186   */\n      dup3\n        /* \"#utility.yul\":3168:3175   */\n      dup5\n        /* \"#utility.yul\":3164:3187   */\n      sub\n        /* \"#utility.yul\":3160:3192   */\n      slt\n        /* \"#utility.yul\":3157:3276   */\n      iszero\n      tag_176\n      jumpi\n        /* \"#utility.yul\":3195:3274   */\n      tag_177\n      tag_112\n      jump\t// in\n    tag_177:\n        /* \"#utility.yul\":3157:3276   */\n    tag_176:\n        /* \"#utility.yul\":3315:3316   */\n      0x00\n        /* \"#utility.yul\":3340:3393   */\n      tag_178\n        /* \"#utility.yul\":3385:3392   */\n      dup5\n        /* \"#utility.yul\":3376:3382   */\n      dup3\n        /* \"#utility.yul\":3365:3374   */\n      dup6\n        /* \"#utility.yul\":3361:3383   */\n      add\n        /* \"#utility.yul\":3340:3393   */\n      tag_120\n      jump\t// in\n    tag_178:\n        /* \"#utility.yul\":3330:3393   */\n      swap2\n      pop\n        /* \"#utility.yul\":3286:3403   */\n      pop\n        /* \"#utility.yul\":3081:3410   */\n      swap3\n      swap2\n      pop\n      pop\n      jump\t// out\n        /* \"#utility.yul\":3416:3514   */\n    tag_122:\n        /* \"#utility.yul\":3467:3473   */\n      0x00\n        /* \"#utility.yul\":3501:3506   */\n      dup2\n        /* \"#utility.yul\":3495:3507   */\n      mload\n        /* \"#utility.yul\":3485:3507   */\n      swap1\n      pop\n        /* \"#utility.yul\":3416:3514   */\n      swap2\n      swap1\n      pop\n      jump\t// out\n        /* \"#utility.yul\":3520:3667   */\n    tag_123:\n        /* \"#utility.yul\":3621:3632   */\n      0x00\n        /* \"#utility.yul\":3658:3661   */\n      dup2\n        /* \"#utility.yul\":3643:3661   */\n      swap1\n      pop\n        /* \"#utility.yul\":3520:3667   */\n      swap3\n      swap2\n      pop\n      pop\n      jump\t// out\n        /* \"#utility.yul\":3673:3812   */\n    tag_124:\n        /* \"#utility.yul\":3762:3768   */\n      dup3\n        /* \"#utility.yul\":3757:3760   */\n      dup2\n        /* \"#utility.yul\":3752:3755   */\n      dup4\n        /* \"#utility.yul\":3746:3769   */\n      mcopy\n        /* \"#utility.yul\":3803:3804   */\n      0x00\n        /* \"#utility.yul\":3794:3800   */\n      dup4\n        /* \"#utility.yul\":3789:3792   */\n      dup4\n        /* \"#utility.yul\":3785:3801   */\n      add\n        /* \"#utility.yul\":3778:3805   */\n      mstore\n        /* \"#utility.yul\":3673:3812   */\n      pop\n      pop\n      pop\n      jump\t// out\n        /* \"#utility.yul\":3818:4204   */\n    tag_125:\n        /* \"#utility.yul\":3922:3925   */\n      0x00\n        /* \"#utility.yul\":3950:3988   */\n      tag_183\n        /* \"#utility.yul\":3982:3987   */\n      dup3\n        /* \"#utility.yul\":3950:3988   */\n      tag_122\n      jump\t// in\n    tag_183:\n        /* \"#utility.yul\":4004:4092   */\n      tag_184\n        /* \"#utility.yul\":4085:4091   */\n      dup2\n        /* \"#utility.yul\":4080:4083   */\n      dup6\n        /* \"#utility.yul\":4004:4092   */\n      tag_123\n      jump\t// in\n    tag_184:\n        /* \"#utility.yul\":3997:4092   */\n      swap4\n      pop\n        /* \"#utility.yul\":4101:4166   */\n      tag_185\n        /* \"#utility.yul\":4159:4165   */\n      dup2\n        /* \"#utility.yul\":4154:4157   */\n      dup6\n        /* \"#utility.yul\":4147:4151   */\n      0x20\n        /* \"#utility.yul\":4140:4145   */\n      dup7\n        /* \"#utility.yul\":4136:4152   */\n      add\n        /* \"#utility.yul\":4101:4166   */\n      tag_124\n      jump\t// in\n    tag_185:\n        /* \"#utility.yul\":4191:4197   */\n      dup1\n        /* \"#utility.yul\":4186:4189   */\n      dup5\n        /* \"#utility.yul\":4182:4198   */\n      add\n        /* \"#utility.yul\":4175:4198   */\n      swap2\n      pop\n        /* \"#utility.yul\":3926:4204   */\n      pop\n        /* \"#utility.yul\":3818:4204   */\n      swap3\n      swap2\n      pop\n      pop\n      jump\t// out\n        /* \"#utility.yul\":4210:4481   */\n    tag_45:\n        /* \"#utility.yul\":4340:4343   */\n      0x00\n        /* \"#utility.yul\":4362:4455   */\n      tag_187\n        /* \"#utility.yul\":4451:4454   */\n      dup3\n        /* \"#utility.yul\":4442:4448   */\n      dup5\n        /* \"#utility.yul\":4362:4455   */\n      tag_125\n      jump\t// in\n    tag_187:\n        /* \"#utility.yul\":4355:4455   */\n      swap2\n      pop\n        /* \"#utility.yul\":4472:4475   */\n      dup2\n        /* \"#utility.yul\":4465:4475   */\n      swap1\n      pop\n        /* \"#utility.yul\":4210:4481   */\n      swap3\n      swap2\n      pop\n      pop\n      jump\t// out\n        /* \"#utility.yul\":4487:4564   */\n    tag_126:\n        /* \"#utility.yul\":4524:4531   */\n      0x00\n        /* \"#utility.yul\":4553:4558   */\n      dup2\n        /* \"#utility.yul\":4542:4558   */\n      swap1\n      pop\n        /* \"#utility.yul\":4487:4564   */\n      swap2\n      swap1\n      pop\n      jump\t// out\n        /* \"#utility.yul\":4570:4692   */\n    tag_127:\n        /* \"#utility.yul\":4643:4667   */\n      tag_190\n        /* \"#utility.yul\":4661:4666   */\n      dup2\n        /* \"#utility.yul\":4643:4667   */\n      tag_126\n      jump\t// in\n    tag_190:\n        /* \"#utility.yul\":4636:4641   */\n      dup2\n        /* \"#utility.yul\":4633:4668   */\n      eq\n        /* \"#utility.yul\":4623:4686   */\n      tag_191\n      jumpi\n        /* \"#utility.yul\":4682:4683   */\n      0x00\n        /* \"#utility.yul\":4679:4680   */\n      0x00\n        /* \"#utility.yul\":4672:4684   */\n      revert\n        /* \"#utility.yul\":4623:4686   */\n    tag_191:\n        /* \"#utility.yul\":4570:4692   */\n      pop\n      jump\t// out\n        /* \"#utility.yul\":4698:4841   */\n    tag_128:\n        /* \"#utility.yul\":4755:4760   */\n      0x00\n        /* \"#utility.yul\":4786:4792   */\n      dup2\n        /* \"#utility.yul\":4780:4793   */\n      mload\n        /* \"#utility.yul\":4771:4793   */\n      swap1\n      pop\n        /* \"#utility.yul\":4802:4835   */\n      tag_193\n        /* \"#utility.yul\":4829:4834   */\n      dup2\n        /* \"#utility.yul\":4802:4835   */\n      tag_127\n      jump\t// in\n    tag_193:\n        /* \"#utility.yul\":4698:4841   */\n      swap3\n      swap2\n      pop\n      pop\n      jump\t// out\n        /* \"#utility.yul\":4847:5198   */\n    tag_49:\n        /* \"#utility.yul\":4917:4923   */\n      0x00\n        /* \"#utility.yul\":4966:4968   */\n      0x20\n        /* \"#utility.yul\":4954:4963   */\n      dup3\n        /* \"#utility.yul\":4945:4952   */\n      dup5\n        /* \"#utility.yul\":4941:4964   */\n      sub\n        /* \"#utility.yul\":4937:4969   */\n      slt\n        /* \"#utility.yul\":4934:5053   */\n      iszero\n      tag_195\n      jumpi\n        /* \"#utility.yul\":4972:5051   */\n      tag_196\n      tag_112\n      jump\t// in\n    tag_196:\n        /* \"#utility.yul\":4934:5053   */\n    tag_195:\n        /* \"#utility.yul\":5092:5093   */\n      0x00\n        /* \"#utility.yul\":5117:5181   */\n      tag_197\n        /* \"#utility.yul\":5173:5180   */\n      dup5\n        /* \"#utility.yul\":5164:5170   */\n      dup3\n        /* \"#utility.yul\":5153:5162   */\n      dup6\n        /* \"#utility.yul\":5149:5171   */\n      add\n        /* \"#utility.yul\":5117:5181   */\n      tag_128\n      jump\t// in\n    tag_197:\n        /* \"#utility.yul\":5107:5181   */\n      swap2\n      pop\n        /* \"#utility.yul\":5063:5191   */\n      pop\n        /* \"#utility.yul\":4847:5198   */\n      swap3\n      swap2\n      pop\n      pop\n      jump\t// out\n        /* \"#utility.yul\":5204:5373   */\n    tag_129:\n        /* \"#utility.yul\":5288:5299   */\n      0x00\n        /* \"#utility.yul\":5322:5328   */\n      dup3\n        /* \"#utility.yul\":5317:5320   */\n      dup3\n        /* \"#utility.yul\":5310:5329   */\n      mstore\n        /* \"#utility.yul\":5362:5366   */\n      0x20\n        /* \"#utility.yul\":5357:5360   */\n      dup3\n        /* \"#utility.yul\":5353:5367   */\n      add\n        /* \"#utility.yul\":5338:5367   */\n      swap1\n      pop\n        /* \"#utility.yul\":5204:5373   */\n      swap3\n      swap2\n      pop\n      pop\n      jump\t// out\n        /* \"#utility.yul\":5379:5554   */\n    tag_130:\n        /* \"#utility.yul\":5519:5546   */\n      0x796f752061726520696e2074686520626c61636b206c69737400000000000000\n        /* \"#utility.yul\":5515:5516   */\n      0x00\n        /* \"#utility.yul\":5507:5513   */\n      dup3\n        /* \"#utility.yul\":5503:5517   */\n      add\n        /* \"#utility.yul\":5496:5547   */\n      mstore\n        /* \"#utility.yul\":5379:5554   */\n      pop\n      jump\t// out\n        /* \"#utility.yul\":5560:5926   */\n    tag_131:\n        /* \"#utility.yul\":5702:5705   */\n      0x00\n        /* \"#utility.yul\":5723:5790   */\n      tag_201\n        /* \"#utility.yul\":5787:5789   */\n      0x19\n        /* \"#utility.yul\":5782:5785   */\n      dup4\n        /* \"#utility.yul\":5723:5790   */\n      tag_129\n      jump\t// in\n    tag_201:\n        /* \"#utility.yul\":5716:5790   */\n      swap2\n      pop\n        /* \"#utility.yul\":5799:5892   */\n      tag_202\n        /* \"#utility.yul\":5888:5891   */\n      dup3\n        /* \"#utility.yul\":5799:5892   */\n      tag_130\n      jump\t// in\n    tag_202:\n        /* \"#utility.yul\":5917:5919   */\n      0x20\n        /* \"#utility.yul\":5912:5915   */\n      dup3\n        /* \"#utility.yul\":5908:5920   */\n      add\n        /* \"#utility.yul\":5901:5920   */\n      swap1\n      pop\n        /* \"#utility.yul\":5560:5926   */\n      swap2\n      swap1\n      pop\n      jump\t// out\n        /* \"#utility.yul\":5932:6351   */\n    tag_54:\n        /* \"#utility.yul\":6098:6102   */\n      0x00\n        /* \"#utility.yul\":6136:6138   */\n      0x20\n        /* \"#utility.yul\":6125:6134   */\n      dup3\n        /* \"#utility.yul\":6121:6139   */\n      add\n        /* \"#utility.yul\":6113:6139   */\n      swap1\n      pop\n        /* \"#utility.yul\":6185:6194   */\n      dup2\n        /* \"#utility.yul\":6179:6183   */\n      dup2\n        /* \"#utility.yul\":6175:6195   */\n      sub\n        /* \"#utility.yul\":6171:6172   */\n      0x00\n        /* \"#utility.yul\":6160:6169   */\n      dup4\n        /* \"#utility.yul\":6156:6173   */\n      add\n        /* \"#utility.yul\":6149:6196   */\n      mstore\n        /* \"#utility.yul\":6213:6344   */\n      tag_204\n        /* \"#utility.yul\":6339:6343   */\n      dup2\n        /* \"#utility.yul\":6213:6344   */\n      tag_131\n      jump\t// in\n    tag_204:\n        /* \"#utility.yul\":6205:6344   */\n      swap1\n      pop\n        /* \"#utility.yul\":5932:6351   */\n      swap2\n      swap1\n      pop\n      jump\t// out\n        /* \"#utility.yul\":6357:6525   */\n    tag_132:\n        /* \"#utility.yul\":6497:6517   */\n      0x6e6f7420656e6f7567682062616c616e63650000000000000000000000000000\n        /* \"#utility.yul\":6493:6494   */\n      0x00\n        /* \"#utility.yul\":6485:6491   */\n      dup3\n        /* \"#utility.yul\":6481:6495   */\n      add\n        /* \"#utility.yul\":6474:6518   */\n      mstore\n        /* \"#utility.yul\":6357:6525   */\n      pop\n      jump\t// out\n        /* \"#utility.yul\":6531:6897   */\n    tag_133:\n        /* \"#utility.yul\":6673:6676   */\n      0x00\n        /* \"#utility.yul\":6694:6761   */\n      tag_207\n        /* \"#utility.yul\":6758:6760   */\n      0x12\n        /* \"#utility.yul\":6753:6756   */\n      dup4\n        /* \"#utility.yul\":6694:6761   */\n      tag_129\n      jump\t// in\n    tag_207:\n        /* \"#utility.yul\":6687:6761   */\n      swap2\n      pop\n        /* \"#utility.yul\":6770:6863   */\n      tag_208\n        /* \"#utility.yul\":6859:6862   */\n      dup3\n        /* \"#utility.yul\":6770:6863   */\n      tag_132\n      jump\t// in\n    tag_208:\n        /* \"#utility.yul\":6888:6890   */\n      0x20\n        /* \"#utility.yul\":6883:6886   */\n      dup3\n        /* \"#utility.yul\":6879:6891   */\n      add\n        /* \"#utility.yul\":6872:6891   */\n      swap1\n      pop\n        /* \"#utility.yul\":6531:6897   */\n      swap2\n      swap1\n      pop\n      jump\t// out\n        /* \"#utility.yul\":6903:7322   */\n    tag_59:\n        /* \"#utility.yul\":7069:7073   */\n      0x00\n        /* \"#utility.yul\":7107:7109   */\n      0x20\n        /* \"#utility.yul\":7096:7105   */\n      dup3\n        /* \"#utility.yul\":7092:7110   */\n      add\n        /* \"#utility.yul\":7084:7110   */\n      swap1\n      pop\n        /* \"#utility.yul\":7156:7165   */\n      dup2\n        /* \"#utility.yul\":7150:7154   */\n      dup2\n        /* \"#utility.yul\":7146:7166   */\n      sub\n        /* \"#utility.yul\":7142:7143   */\n      0x00\n        /* \"#utility.yul\":7131:7140   */\n      dup4\n        /* \"#utility.yul\":7127:7144   */\n      add\n        /* \"#utility.yul\":7120:7167   */\n      mstore\n        /* \"#utility.yul\":7184:7315   */\n      tag_210\n        /* \"#utility.yul\":7310:7314   */\n      dup2\n        /* \"#utility.yul\":7184:7315   */\n      tag_133\n      jump\t// in\n    tag_210:\n        /* \"#utility.yul\":7176:7315   */\n      swap1\n      pop\n        /* \"#utility.yul\":6903:7322   */\n      swap2\n      swap1\n      pop\n      jump\t// out\n        /* \"#utility.yul\":7328:7508   */\n    tag_134:\n        /* \"#utility.yul\":7376:7453   */\n      0x4e487b7100000000000000000000000000000000000000000000000000000000\n        /* \"#utility.yul\":7373:7374   */\n      0x00\n        /* \"#utility.yul\":7366:7454   */\n      mstore\n        /* \"#utility.yul\":7473:7477   */\n      0x11\n        /* \"#utility.yul\":7470:7471   */\n      0x04\n        /* \"#utility.yul\":7463:7478   */\n      mstore\n        /* \"#utility.yul\":7497:7501   */\n      0x24\n        /* \"#utility.yul\":7494:7495   */\n      0x00\n        /* \"#utility.yul\":7487:7502   */\n      revert\n        /* \"#utility.yul\":7514:7705   */\n    tag_70:\n        /* \"#utility.yul\":7554:7557   */\n      0x00\n        /* \"#utility.yul\":7573:7593   */\n      tag_213\n        /* \"#utility.yul\":7591:7592   */\n      dup3\n        /* \"#utility.yul\":7573:7593   */\n      tag_118\n      jump\t// in\n    tag_213:\n        /* \"#utility.yul\":7568:7593   */\n      swap2\n      pop\n        /* \"#utility.yul\":7607:7627   */\n      tag_214\n        /* \"#utility.yul\":7625:7626   */\n      dup4\n        /* \"#utility.yul\":7607:7627   */\n      tag_118\n      jump\t// in\n    tag_214:\n        /* \"#utility.yul\":7602:7627   */\n      swap3\n      pop\n        /* \"#utility.yul\":7650:7651   */\n      dup3\n        /* \"#utility.yul\":7647:7648   */\n      dup3\n        /* \"#utility.yul\":7643:7652   */\n      add\n        /* \"#utility.yul\":7636:7652   */\n      swap1\n      pop\n        /* \"#utility.yul\":7671:7674   */\n      dup1\n        /* \"#utility.yul\":7668:7669   */\n      dup3\n        /* \"#utility.yul\":7665:7675   */\n      gt\n        /* \"#utility.yul\":7662:7698   */\n      iszero\n      tag_215\n      jumpi\n        /* \"#utility.yul\":7678:7696   */\n      tag_216\n      tag_134\n      jump\t// in\n    tag_216:\n        /* \"#utility.yul\":7662:7698   */\n    tag_215:\n        /* \"#utility.yul\":7514:7705   */\n      swap3\n      swap2\n      pop\n      pop\n      jump\t// out\n        /* \"#utility.yul\":7711:7905   */\n    tag_73:\n        /* \"#utility.yul\":7751:7755   */\n      0x00\n        /* \"#utility.yul\":7771:7791   */\n      tag_218\n        /* \"#utility.yul\":7789:7790   */\n      dup3\n        /* \"#utility.yul\":7771:7791   */\n      tag_118\n      jump\t// in\n    tag_218:\n        /* \"#utility.yul\":7766:7791   */\n      swap2\n      pop\n        /* \"#utility.yul\":7805:7825   */\n      tag_219\n        /* \"#utility.yul\":7823:7824   */\n      dup4\n        /* \"#utility.yul\":7805:7825   */\n      tag_118\n      jump\t// in\n    tag_219:\n        /* \"#utility.yul\":7800:7825   */\n      swap3\n      pop\n        /* \"#utility.yul\":7849:7850   */\n      dup3\n        /* \"#utility.yul\":7846:7847   */\n      dup3\n        /* \"#utility.yul\":7842:7851   */\n      sub\n        /* \"#utility.yul\":7834:7851   */\n      swap1\n      pop\n        /* \"#utility.yul\":7873:7874   */\n      dup2\n        /* \"#utility.yul\":7867:7871   */\n      dup2\n        /* \"#utility.yul\":7864:7875   */\n      gt\n        /* \"#utility.yul\":7861:7898   */\n      iszero\n      tag_220\n      jumpi\n        /* \"#utility.yul\":7878:7896   */\n      tag_221\n      tag_134\n      jump\t// in\n    tag_221:\n        /* \"#utility.yul\":7861:7898   */\n    tag_220:\n        /* \"#utility.yul\":7711:7905   */\n      swap3\n      swap2\n      pop\n      pop\n      jump\t// out\n        /* \"#utility.yul\":7911:8144   */\n    tag_105:\n        /* \"#utility.yul\":7950:7953   */\n      0x00\n        /* \"#utility.yul\":7973:7997   */\n      tag_223\n        /* \"#utility.yul\":7991:7996   */\n      dup3\n        /* \"#utility.yul\":7973:7997   */\n      tag_118\n      jump\t// in\n    tag_223:\n        /* \"#utility.yul\":7964:7997   */\n      swap2\n      pop\n        /* \"#utility.yul\":8019:8085   */\n      0xffffffffffffffffffffffffffffffffffffffffffffffffffffffffffffffff\n        /* \"#utility.yul\":8012:8017   */\n      dup3\n        /* \"#utility.yul\":8009:8086   */\n      sub\n        /* \"#utility.yul\":8006:8109   */\n      tag_224\n      jumpi\n        /* \"#utility.yul\":8089:8107   */\n      tag_225\n      tag_134\n      jump\t// in\n    tag_225:\n        /* \"#utility.yul\":8006:8109   */\n    tag_224:\n        /* \"#utility.yul\":8136:8137   */\n      0x01\n        /* \"#utility.yul\":8129:8134   */\n      dup3\n        /* \"#utility.yul\":8125:8138   */\n      add\n        /* \"#utility.yul\":8118:8138   */\n      swap1\n      pop\n        /* \"#utility.yul\":7911:8144   */\n      swap2\n      swap1\n      pop\n      jump\t// out\n        /* \"#utility.yul\":8150:8316   */\n    tag_135:\n        /* \"#utility.yul\":8290:8308   */\n      0x696e76616c69642070617373776f726400000000000000000000000000000000\n        /* \"#utility.yul\":8286:8287   */\n      0x00\n        /* \"#utility.yul\":8278:8284   */\n      dup3\n        /* \"#utility.yul\":8274:8288   */\n      add\n        /* \"#utility.yul\":8267:8309   */\n      mstore\n        /* \"#utility.yul\":8150:8316   */\n      pop\n      jump\t// out\n        /* \"#utility.yul\":8322:8688   */\n    tag_136:\n        /* \"#utility.yul\":8464:8467   */\n      0x00\n        /* \"#utility.yul\":8485:8552   */\n      tag_228\n        /* \"#utility.yul\":8549:8551   */\n      0x10\n        /* \"#utility.yul\":8544:8547   */\n      dup4\n        /* \"#utility.yul\":8485:8552   */\n      tag_129\n      jump\t// in\n    tag_228:\n        /* \"#utility.yul\":8478:8552   */\n      swap2\n      pop\n        /* \"#utility.yul\":8561:8654   */\n      tag_229\n        /* \"#utility.yul\":8650:8653   */\n      dup3\n        /* \"#utility.yul\":8561:8654   */\n      tag_135\n      jump\t// in\n    tag_229:\n        /* \"#utility.yul\":8679:8681   */\n      0x20\n        /* \"#utility.yul\":8674:8677   */\n      dup3\n        /* \"#utility.yul\":8670:8682   */\n      add\n        /* \"#utility.yul\":8663:8682   */\n      swap1\n      pop\n        /* \"#utility.yul\":8322:8688   */\n      swap2\n      swap1\n      pop\n      jump\t// out\n        /* \"#utility.yul\":8694:9113   */\n    tag_108:\n        /* \"#utility.yul\":8860:8864   */\n      0x00\n        /* \"#utility.yul\":8898:8900   */\n      0x20\n        /* \"#utility.yul\":8887:8896   */\n      dup3\n        /* \"#utility.yul\":8883:8901   */\n      add\n        /* \"#utility.yul\":8875:8901   */\n      swap1\n      pop\n        /* \"#utility.yul\":8947:8956   */\n      dup2\n        /* \"#utility.yul\":8941:8945   */\n      dup2\n        /* \"#utility.yul\":8937:8957   */\n      sub\n        /* \"#utility.yul\":8933:8934   */\n      0x00\n        /* \"#utility.yul\":8922:8931   */\n      dup4\n        /* \"#utility.yul\":8918:8935   */\n      add\n        /* \"#utility.yul\":8911:8958   */\n      mstore\n        /* \"#utility.yul\":8975:9106   */\n      tag_231\n        /* \"#utility.yul\":9101:9105   */\n      dup2\n        /* \"#utility.yul\":8975:9106   */\n      tag_136\n      jump\t// in\n    tag_231:\n        /* \"#utility.yul\":8967:9106   */\n      swap1\n      pop\n        /* \"#utility.yul\":8694:9113   */\n      swap2\n      swap1\n      pop\n      jump\t// out\n\n    auxdata: 0xa264697066735822122030beaee8c5a0db2a7a22b9f553474657214d7de06610879d34a2b3e1dca9a00064736f6c634300081e0033\n}\n",
				"bytecode": {
					"linkReferences": {},
					"object": "6080604052348015600e575f5ffd5b503360045f6101000a81548173ffffffffffffffffffffffffffffffffffffffff021916908373ffffffffffffffffffffffffffffffffffffffff16021790555061138d8061005c5f395ff3fe60806040526004361061004d575f3560e01c8063095bcdb6146101e35780632b04e8401461020b5780632e1a7d4d1461024757806347e7ef241461026f578063b189fd4c1461028b5761011a565b3661011a575f5f60045f9054906101000a900473ffffffffffffffffffffffffffffffffffffffff1673ffffffffffffffffffffffffffffffffffffffff1673ffffffffffffffffffffffffffffffffffffffff1681526020019081526020015f205f6100ba607b6102c7565b81526020019081526020015f20543373ffffffffffffffffffffffffffffffffffffffff16347f8bcd11857e6a3be2869200dad8a50365a705c0d72f71b2e96f28837226cd3f7f60016040516101109190610ee4565b60405180910390a4005b5f5f60045f9054906101000a900473ffffffffffffffffffffffffffffffffffffffff1673ffffffffffffffffffffffffffffffffffffffff1673ffffffffffffffffffffffffffffffffffffffff1681526020019081526020015f205f6101836104d26102c7565b81526020019081526020015f20543373ffffffffffffffffffffffffffffffffffffffff16347f8bcd11857e6a3be2869200dad8a50365a705c0d72f71b2e96f28837226cd3f7f60016040516101d99190610ee4565b60405180910390a4005b3480156101ee575f5ffd5b5061020960048036038101906102049190610f8e565b61033e565b005b348015610216575f5ffd5b50610231600480360381019061022c9190610fde565b61072b565b60405161023e919061102b565b60405180910390f35b348015610252575f5ffd5b5061026d60048036038101906102689190611044565b61088e565b005b61028960048036038101906102849190610fde565b610ac5565b005b348015610296575f5ffd5b506102b160048036038101906102ac9190611044565b6102c7565b6040516102be919061102b565b60405180910390f35b5f6002826040516020016102db919061102b565b6040516020818303038152906040526040516102f791906110c1565b602060405180830381855afa158015610312573d5f5f3e3d5ffd5b5050506040513d601f19601f82011682018060405250810190610335919061110a565b5f1c9050919050565b60035f3373ffffffffffffffffffffffffffffffffffffffff1673ffffffffffffffffffffffffffffffffffffffff1681526020019081526020015f205f9054906101000a900460ff161561042e578273ffffffffffffffffffffffffffffffffffffffff16823373ffffffffffffffffffffffffffffffffffffffff167ff3ff6628461a09e7f6325423c56503e440bfc7143ac0004f650f5010c01ff4c85f6040516103eb9190610ee4565b60405180910390a46040517f08c379a00000000000000000000000000000000000000000000000000000000081526004016104259061118f565b60405180910390fd5b815f5f3373ffffffffffffffffffffffffffffffffffffffff1673ffffffffffffffffffffffffffffffffffffffff1681526020019081526020015f205f610475846102c7565b81526020019081526020015f2054101561052a578273ffffffffffffffffffffffffffffffffffffffff16823373ffffffffffffffffffffffffffffffffffffffff167ff3ff6628461a09e7f6325423c56503e440bfc7143ac0004f650f5010c01ff4c85f6040516104e79190610ee4565b60405180910390a46040517f08c379a0000000000000000000000000000000000000000000000000000000008152600401610521906111f7565b60405180910390fd5b5f6105353383610d40565b90508373ffffffffffffffffffffffffffffffffffffffff16833373ffffffffffffffffffffffffffffffffffffffff167ff3ff6628461a09e7f6325423c56503e440bfc7143ac0004f650f5010c01ff4c88480156105da575060025f8973ffffffffffffffffffffffffffffffffffffffff1673ffffffffffffffffffffffffffffffffffffffff1681526020019081526020015f205f9054906101000a900460ff165b6040516105e79190610ee4565b60405180910390a460025f8573ffffffffffffffffffffffffffffffffffffffff1673ffffffffffffffffffffffffffffffffffffffff1681526020019081526020015f205f9054906101000a900460ff16156106445750610726565b8061065257610651610da0565b5b825f5f8673ffffffffffffffffffffffffffffffffffffffff1673ffffffffffffffffffffffffffffffffffffffff1681526020019081526020015f205f610699856102c7565b81526020019081526020015f205f8282546106b49190611242565b92505081905550825f5f3373ffffffffffffffffffffffffffffffffffffffff1673ffffffffffffffffffffffffffffffffffffffff1681526020019081526020015f205f610702856102c7565b81526020019081526020015f205f82825461071d9190611275565b92505081905550505b505050565b5f8273ffffffffffffffffffffffffffffffffffffffff163373ffffffffffffffffffffffffffffffffffffffff167fc1108062087028d06cfd95ccb33f6414d3bf1f8378198f0040fb622930dcd73760405160405180910390a360035f3373ffffffffffffffffffffffffffffffffffffffff1673ffffffffffffffffffffffffffffffffffffffff1681526020019081526020015f205f9054906101000a900460ff1661080f576040517f08c379a00000000000000000000000000000000000000000000000000000000081526004016108069061118f565b60405180910390fd5b5f61081a8484610d40565b9050801561087e575f5f8573ffffffffffffffffffffffffffffffffffffffff1673ffffffffffffffffffffffffffffffffffffffff1681526020019081526020015f205f610868856102c7565b81526020019081526020015f2054915050610888565b610886610da0565b505b92915050565b60035f3373ffffffffffffffffffffffffffffffffffffffff1673ffffffffffffffffffffffffffffffffffffffff1681526020019081526020015f205f9054906101000a900460ff1615610967575f3373ffffffffffffffffffffffffffffffffffffffff167f1ace93d63abb1030c7fa4ce5af1271c17a388b5aca35a4f21e5e69c7fa95a3ee5f6040516109249190610ee4565b60405180910390a36040517f08c379a000000000000000000000000000000000000000000000000000000000815260040161095e9061118f565b60405180910390fd5b5f6109723383610d40565b90505f5f3373ffffffffffffffffffffffffffffffffffffffff1673ffffffffffffffffffffffffffffffffffffffff1681526020019081526020015f205f6109ba846102c7565b81526020019081526020015f20543373ffffffffffffffffffffffffffffffffffffffff167f1ace93d63abb1030c7fa4ce5af1271c17a388b5aca35a4f21e5e69c7fa95a3ee83604051610a0e9190610ee4565b60405180910390a38015610ab8573373ffffffffffffffffffffffffffffffffffffffff166108fc5f5f3373ffffffffffffffffffffffffffffffffffffffff1673ffffffffffffffffffffffffffffffffffffffff1681526020019081526020015f205f610a7c866102c7565b81526020019081526020015f205490811502906040515f60405180830381858888f19350505050158015610ab2573d5f5f3e3d5ffd5b50610ac1565b610ac0610da0565b5b5050565b60035f3373ffffffffffffffffffffffffffffffffffffffff1673ffffffffffffffffffffffffffffffffffffffff1681526020019081526020015f205f9054906101000a900460ff1615610bea575f5f8373ffffffffffffffffffffffffffffffffffffffff1673ffffffffffffffffffffffffffffffffffffffff1681526020019081526020015f205f8281526020019081526020015f20548273ffffffffffffffffffffffffffffffffffffffff16347f8bcd11857e6a3be2869200dad8a50365a705c0d72f71b2e96f28837226cd3f7f5f604051610ba79190610ee4565b60405180910390a46040517f08c379a0000000000000000000000000000000000000000000000000000000008152600401610be19061118f565b60405180910390fd5b600160025f8473ffffffffffffffffffffffffffffffffffffffff1673ffffffffffffffffffffffffffffffffffffffff1681526020019081526020015f205f6101000a81548160ff021916908315150217905550345f5f8473ffffffffffffffffffffffffffffffffffffffff1673ffffffffffffffffffffffffffffffffffffffff1681526020019081526020015f205f8381526020019081526020015f205f828254610c999190611242565b925050819055505f5f8373ffffffffffffffffffffffffffffffffffffffff1673ffffffffffffffffffffffffffffffffffffffff1681526020019081526020015f205f8281526020019081526020015f20548273ffffffffffffffffffffffffffffffffffffffff16347f8bcd11857e6a3be2869200dad8a50365a705c0d72f71b2e96f28837226cd3f7f6001604051610d349190610ee4565b60405180910390a45050565b5f5f5f5f8573ffffffffffffffffffffffffffffffffffffffff1673ffffffffffffffffffffffffffffffffffffffff1681526020019081526020015f205f610d88856102c7565b81526020019081526020015f20541415905092915050565b600260015f3373ffffffffffffffffffffffffffffffffffffffff1673ffffffffffffffffffffffffffffffffffffffff1681526020019081526020015f205f8154610deb906112a8565b91905081905510610e8f57600160035f3373ffffffffffffffffffffffffffffffffffffffff1673ffffffffffffffffffffffffffffffffffffffff1681526020019081526020015f205f6101000a81548160ff0219169083151502179055503373ffffffffffffffffffffffffffffffffffffffff167f0ecb93c06e2466c523c3ed0f181f11e5cc9ded3e0b654bc0b9f8a2ed1269facf60405160405180910390a25b6040517f08c379a0000000000000000000000000000000000000000000000000000000008152600401610ec190611339565b60405180910390fd5b5f8115159050919050565b610ede81610eca565b82525050565b5f602082019050610ef75f830184610ed5565b92915050565b5f5ffd5b5f73ffffffffffffffffffffffffffffffffffffffff82169050919050565b5f610f2a82610f01565b9050919050565b610f3a81610f20565b8114610f44575f5ffd5b50565b5f81359050610f5581610f31565b92915050565b5f819050919050565b610f6d81610f5b565b8114610f77575f5ffd5b50565b5f81359050610f8881610f64565b92915050565b5f5f5f60608486031215610fa557610fa4610efd565b5b5f610fb286828701610f47565b9350506020610fc386828701610f7a565b9250506040610fd486828701610f7a565b9150509250925092565b5f5f60408385031215610ff457610ff3610efd565b5b5f61100185828601610f47565b925050602061101285828601610f7a565b9150509250929050565b61102581610f5b565b82525050565b5f60208201905061103e5f83018461101c565b92915050565b5f6020828403121561105957611058610efd565b5b5f61106684828501610f7a565b91505092915050565b5f81519050919050565b5f81905092915050565b8281835e5f83830152505050565b5f61109b8261106f565b6110a58185611079565b93506110b5818560208601611083565b80840191505092915050565b5f6110cc8284611091565b915081905092915050565b5f819050919050565b6110e9816110d7565b81146110f3575f5ffd5b50565b5f81519050611104816110e0565b92915050565b5f6020828403121561111f5761111e610efd565b5b5f61112c848285016110f6565b91505092915050565b5f82825260208201905092915050565b7f796f752061726520696e2074686520626c61636b206c697374000000000000005f82015250565b5f611179601983611135565b915061118482611145565b602082019050919050565b5f6020820190508181035f8301526111a68161116d565b9050919050565b7f6e6f7420656e6f7567682062616c616e636500000000000000000000000000005f82015250565b5f6111e1601283611135565b91506111ec826111ad565b602082019050919050565b5f6020820190508181035f83015261120e816111d5565b9050919050565b7f4e487b71000000000000000000000000000000000000000000000000000000005f52601160045260245ffd5b5f61124c82610f5b565b915061125783610f5b565b925082820190508082111561126f5761126e611215565b5b92915050565b5f61127f82610f5b565b915061128a83610f5b565b92508282039050818111156112a2576112a1611215565b5b92915050565b5f6112b282610f5b565b91507fffffffffffffffffffffffffffffffffffffffffffffffffffffffffffffffff82036112e4576112e3611215565b5b600182019050919050565b7f696e76616c69642070617373776f7264000000000000000000000000000000005f82015250565b5f611323601083611135565b915061132e826112ef565b602082019050919050565b5f6020820190508181035f83015261135081611317565b905091905056fea264697066735822122030beaee8c5a0db2a7a22b9f553474657214d7de06610879d34a2b3e1dca9a00064736f6c634300081e0033",
					"opcodes": "PUSH1 0x80 PUSH1 0x40 MSTORE CALLVALUE DUP1 ISZERO PUSH1 0xE JUMPI PUSH0 PUSH0 REVERT JUMPDEST POP CALLER PUSH1 0x4 PUSH0 PUSH2 0x100 EXP DUP2 SLOAD DUP2 PUSH20 0xFFFFFFFFFFFFFFFFFFFFFFFFFFFFFFFFFFFFFFFF MUL NOT AND SWAP1 DUP4 PUSH20 0xFFFFFFFFFFFFFFFFFFFFFFFFFFFFFFFFFFFFFFFF AND MUL OR SWAP1 SSTORE POP PUSH2 0x138D DUP1 PUSH2 0x5C PUSH0 CODECOPY PUSH0 RETURN INVALID PUSH1 0x80 PUSH1 0x40 MSTORE PUSH1 0x4 CALLDATASIZE LT PUSH2 0x4D JUMPI PUSH0 CALLDATALOAD PUSH1 0xE0 SHR DUP1 PUSH4 0x95BCDB6 EQ PUSH2 0x1E3 JUMPI DUP1 PUSH4 0x2B04E840 EQ PUSH2 0x20B JUMPI DUP1 PUSH4 0x2E1A7D4D EQ PUSH2 0x247 JUMPI DUP1 PUSH4 0x47E7EF24 EQ PUSH2 0x26F JUMPI DUP1 PUSH4 0xB189FD4C EQ PUSH2 0x28B JUMPI PUSH2 0x11A JUMP JUMPDEST CALLDATASIZE PUSH2 0x11A JUMPI PUSH0 PUSH0 PUSH1 0x4 PUSH0 SWAP1 SLOAD SWAP1 PUSH2 0x100 EXP SWAP1 DIV PUSH20 0xFFFFFFFFFFFFFFFFFFFFFFFFFFFFFFFFFFFFFFFF AND PUSH20 0xFFFFFFFFFFFFFFFFFFFFFFFFFFFFFFFFFFFFFFFF AND PUSH20 0xFFFFFFFFFFFFFFFFFFFFFFFFFFFFFFFFFFFFFFFF AND DUP2 MSTORE PUSH1 0x20 ADD SWAP1 DUP2 MSTORE PUSH1 0x20 ADD PUSH0 KECCAK256 PUSH0 PUSH2 0xBA PUSH1 0x7B PUSH2 0x2C7 JUMP JUMPDEST DUP2 MSTORE PUSH1 0x20 ADD SWAP1 DUP2 MSTORE PUSH1 0x20 ADD PUSH0 KECCAK256 SLOAD CALLER PUSH20 0xFFFFFFFFFFFFFFFFFFFFFFFFFFFFFFFFFFFFFFFF AND CALLVALUE PUSH32 0x8BCD11857E6A3BE2869200DAD8A50365A705C0D72F71B2E96F28837226CD3F7F PUSH1 0x1 PUSH1 0x40 MLOAD PUSH2 0x110 SWAP2 SWAP1 PUSH2 0xEE4 JUMP JUMPDEST PUSH1 0x40 MLOAD DUP1 SWAP2 SUB SWAP1 LOG4 STOP JUMPDEST PUSH0 PUSH0 PUSH1 0x4 PUSH0 SWAP1 SLOAD SWAP1 PUSH2 0x100 EXP SWAP1 DIV PUSH20 0xFFFFFFFFFFFFFFFFFFFFFFFFFFFFFFFFFFFFFFFF AND PUSH20 0xFFFFFFFFFFFFFFFFFFFFFFFFFFFFFFFFFFFFFFFF AND PUSH20 0xFFFFFFFFFFFFFFFFFFFFFFFFFFFFFFFFFFFFFFFF AND DUP2 MSTORE PUSH1 0x20 ADD SWAP1 DUP2 MSTORE PUSH1 0x20 ADD PUSH0 KECCAK256 PUSH0 PUSH2 0x183 PUSH2 0x4D2 PUSH2 0x2C7 JUMP JUMPDEST DUP2 MSTORE PUSH1 0x20 ADD SWAP1 DUP2 MSTORE PUSH1 0x20 ADD PUSH0 KECCAK256 SLOAD CALLER PUSH20 0xFFFFFFFFFFFFFFFFFFFFFFFFFFFFFFFFFFFFFFFF AND CALLVALUE PUSH32 0x8BCD11857E6A3BE2869200DAD8A50365A705C0D72F71B2E96F28837226CD3F7F PUSH1 0x1 PUSH1 0x40 MLOAD PUSH2 0x1D9 SWAP2 SWAP1 PUSH2 0xEE4 JUMP JUMPDEST PUSH1 0x40 MLOAD DUP1 SWAP2 SUB SWAP1 LOG4 STOP JUMPDEST CALLVALUE DUP1 ISZERO PUSH2 0x1EE JUMPI PUSH0 PUSH0 REVERT JUMPDEST POP PUSH2 0x209 PUSH1 0x4 DUP1 CALLDATASIZE SUB DUP2 ADD SWAP1 PUSH2 0x204 SWAP2 SWAP1 PUSH2 0xF8E JUMP JUMPDEST PUSH2 0x33E JUMP JUMPDEST STOP JUMPDEST CALLVALUE DUP1 ISZERO PUSH2 0x216 JUMPI PUSH0 PUSH0 REVERT JUMPDEST POP PUSH2 0x231 PUSH1 0x4 DUP1 CALLDATASIZE SUB DUP2 ADD SWAP1 PUSH2 0x22C SWAP2 SWAP1 PUSH2 0xFDE JUMP JUMPDEST PUSH2 0x72B JUMP JUMPDEST PUSH1 0x40 MLOAD PUSH2 0x23E SWAP2 SWAP1 PUSH2 0x102B JUMP JUMPDEST PUSH1 0x40 MLOAD DUP1 SWAP2 SUB SWAP1 RETURN JUMPDEST CALLVALUE DUP1 ISZERO PUSH2 0x252 JUMPI PUSH0 PUSH0 REVERT JUMPDEST POP PUSH2 0x26D PUSH1 0x4 DUP1 CALLDATASIZE SUB DUP2 ADD SWAP1 PUSH2 0x268 SWAP2 SWAP1 PUSH2 0x1044 JUMP JUMPDEST PUSH2 0x88E JUMP JUMPDEST STOP JUMPDEST PUSH2 0x289 PUSH1 0x4 DUP1 CALLDATASIZE SUB DUP2 ADD SWAP1 PUSH2 0x284 SWAP2 SWAP1 PUSH2 0xFDE JUMP JUMPDEST PUSH2 0xAC5 JUMP JUMPDEST STOP JUMPDEST CALLVALUE DUP1 ISZERO PUSH2 0x296 JUMPI PUSH0 PUSH0 REVERT JUMPDEST POP PUSH2 0x2B1 PUSH1 0x4 DUP1 CALLDATASIZE SUB DUP2 ADD SWAP1 PUSH2 0x2AC SWAP2 SWAP1 PUSH2 0x1044 JUMP JUMPDEST PUSH2 0x2C7 JUMP JUMPDEST PUSH1 0x40 MLOAD PUSH2 0x2BE SWAP2 SWAP1 PUSH2 0x102B JUMP JUMPDEST PUSH1 0x40 MLOAD DUP1 SWAP2 SUB SWAP1 RETURN JUMPDEST PUSH0 PUSH1 0x2 DUP3 PUSH1 0x40 MLOAD PUSH1 0x20 ADD PUSH2 0x2DB SWAP2 SWAP1 PUSH2 0x102B JUMP JUMPDEST PUSH1 0x40 MLOAD PUSH1 0x20 DUP2 DUP4 SUB SUB DUP2 MSTORE SWAP1 PUSH1 0x40 MSTORE PUSH1 0x40 MLOAD PUSH2 0x2F7 SWAP2 SWAP1 PUSH2 0x10C1 JUMP JUMPDEST PUSH1 0x20 PUSH1 0x40 MLOAD DUP1 DUP4 SUB DUP2 DUP6 GAS STATICCALL ISZERO DUP1 ISZERO PUSH2 0x312 JUMPI RETURNDATASIZE PUSH0 PUSH0 RETURNDATACOPY RETURNDATASIZE PUSH0 REVERT JUMPDEST POP POP POP PUSH1 0x40 MLOAD RETURNDATASIZE PUSH1 0x1F NOT PUSH1 0x1F DUP3 ADD AND DUP3 ADD DUP1 PUSH1 0x40 MSTORE POP DUP2 ADD SWAP1 PUSH2 0x335 SWAP2 SWAP1 PUSH2 0x110A JUMP JUMPDEST PUSH0 SHR SWAP1 POP SWAP2 SWAP1 POP JUMP JUMPDEST PUSH1 0x3 PUSH0 CALLER PUSH20 0xFFFFFFFFFFFFFFFFFFFFFFFFFFFFFFFFFFFFFFFF AND PUSH20 0xFFFFFFFFFFFFFFFFFFFFFFFFFFFFFFFFFFFFFFFF AND DUP2 MSTORE PUSH1 0x20 ADD SWAP1 DUP2 MSTORE PUSH1 0x20 ADD PUSH0 KECCAK256 PUSH0 SWAP1 SLOAD SWAP1 PUSH2 0x100 EXP SWAP1 DIV PUSH1 0xFF AND ISZERO PUSH2 0x42E JUMPI DUP3 PUSH20 0xFFFFFFFFFFFFFFFFFFFFFFFFFFFFFFFFFFFFFFFF AND DUP3 CALLER PUSH20 0xFFFFFFFFFFFFFFFFFFFFFFFFFFFFFFFFFFFFFFFF AND PUSH32 0xF3FF6628461A09E7F6325423C56503E440BFC7143AC0004F650F5010C01FF4C8 PUSH0 PUSH1 0x40 MLOAD PUSH2 0x3EB SWAP2 SWAP1 PUSH2 0xEE4 JUMP JUMPDEST PUSH1 0x40 MLOAD DUP1 SWAP2 SUB SWAP1 LOG4 PUSH1 0x40 MLOAD PUSH32 0x8C379A000000000000000000000000000000000000000000000000000000000 DUP2 MSTORE PUSH1 0x4 ADD PUSH2 0x425 SWAP1 PUSH2 0x118F JUMP JUMPDEST PUSH1 0x40 MLOAD DUP1 SWAP2 SUB SWAP1 REVERT JUMPDEST DUP2 PUSH0 PUSH0 CALLER PUSH20 0xFFFFFFFFFFFFFFFFFFFFFFFFFFFFFFFFFFFFFFFF AND PUSH20 0xFFFFFFFFFFFFFFFFFFFFFFFFFFFFFFFFFFFFFFFF AND DUP2 MSTORE PUSH1 0x20 ADD SWAP1 DUP2 MSTORE PUSH1 0x20 ADD PUSH0 KECCAK256 PUSH0 PUSH2 0x475 DUP5 PUSH2 0x2C7 JUMP JUMPDEST DUP2 MSTORE PUSH1 0x20 ADD SWAP1 DUP2 MSTORE PUSH1 0x20 ADD PUSH0 KECCAK256 SLOAD LT ISZERO PUSH2 0x52A JUMPI DUP3 PUSH20 0xFFFFFFFFFFFFFFFFFFFFFFFFFFFFFFFFFFFFFFFF AND DUP3 CALLER PUSH20 0xFFFFFFFFFFFFFFFFFFFFFFFFFFFFFFFFFFFFFFFF AND PUSH32 0xF3FF6628461A09E7F6325423C56503E440BFC7143AC0004F650F5010C01FF4C8 PUSH0 PUSH1 0x40 MLOAD PUSH2 0x4E7 SWAP2 SWAP1 PUSH2 0xEE4 JUMP JUMPDEST PUSH1 0x40 MLOAD DUP1 SWAP2 SUB SWAP1 LOG4 PUSH1 0x40 MLOAD PUSH32 0x8C379A000000000000000000000000000000000000000000000000000000000 DUP2 MSTORE PUSH1 0x4 ADD PUSH2 0x521 SWAP1 PUSH2 0x11F7 JUMP JUMPDEST PUSH1 0x40 MLOAD DUP1 SWAP2 SUB SWAP1 REVERT JUMPDEST PUSH0 PUSH2 0x535 CALLER DUP4 PUSH2 0xD40 JUMP JUMPDEST SWAP1 POP DUP4 PUSH20 0xFFFFFFFFFFFFFFFFFFFFFFFFFFFFFFFFFFFFFFFF AND DUP4 CALLER PUSH20 0xFFFFFFFFFFFFFFFFFFFFFFFFFFFFFFFFFFFFFFFF AND PUSH32 0xF3FF6628461A09E7F6325423C56503E440BFC7143AC0004F650F5010C01FF4C8 DUP5 DUP1 ISZERO PUSH2 0x5DA JUMPI POP PUSH1 0x2 PUSH0 DUP10 PUSH20 0xFFFFFFFFFFFFFFFFFFFFFFFFFFFFFFFFFFFFFFFF AND PUSH20 0xFFFFFFFFFFFFFFFFFFFFFFFFFFFFFFFFFFFFFFFF AND DUP2 MSTORE PUSH1 0x20 ADD SWAP1 DUP2 MSTORE PUSH1 0x20 ADD PUSH0 KECCAK256 PUSH0 SWAP1 SLOAD SWAP1 PUSH2 0x100 EXP SWAP1 DIV PUSH1 0xFF AND JUMPDEST PUSH1 0x40 MLOAD PUSH2 0x5E7 SWAP2 SWAP1 PUSH2 0xEE4 JUMP JUMPDEST PUSH1 0x40 MLOAD DUP1 SWAP2 SUB SWAP1 LOG4 PUSH1 0x2 PUSH0 DUP6 PUSH20 0xFFFFFFFFFFFFFFFFFFFFFFFFFFFFFFFFFFFFFFFF AND PUSH20 0xFFFFFFFFFFFFFFFFFFFFFFFFFFFFFFFFFFFFFFFF AND DUP2 MSTORE PUSH1 0x20 ADD SWAP1 DUP2 MSTORE PUSH1 0x20 ADD PUSH0 KECCAK256 PUSH0 SWAP1 SLOAD SWAP1 PUSH2 0x100 EXP SWAP1 DIV PUSH1 0xFF AND ISZERO PUSH2 0x644 JUMPI POP PUSH2 0x726 JUMP JUMPDEST DUP1 PUSH2 0x652 JUMPI PUSH2 0x651 PUSH2 0xDA0 JUMP JUMPDEST JUMPDEST DUP3 PUSH0 PUSH0 DUP7 PUSH20 0xFFFFFFFFFFFFFFFFFFFFFFFFFFFFFFFFFFFFFFFF AND PUSH20 0xFFFFFFFFFFFFFFFFFFFFFFFFFFFFFFFFFFFFFFFF AND DUP2 MSTORE PUSH1 0x20 ADD SWAP1 DUP2 MSTORE PUSH1 0x20 ADD PUSH0 KECCAK256 PUSH0 PUSH2 0x699 DUP6 PUSH2 0x2C7 JUMP JUMPDEST DUP2 MSTORE PUSH1 0x20 ADD SWAP1 DUP2 MSTORE PUSH1 0x20 ADD PUSH0 KECCAK256 PUSH0 DUP3 DUP3 SLOAD PUSH2 0x6B4 SWAP2 SWAP1 PUSH2 0x1242 JUMP JUMPDEST SWAP3 POP POP DUP2 SWAP1 SSTORE POP DUP3 PUSH0 PUSH0 CALLER PUSH20 0xFFFFFFFFFFFFFFFFFFFFFFFFFFFFFFFFFFFFFFFF AND PUSH20 0xFFFFFFFFFFFFFFFFFFFFFFFFFFFFFFFFFFFFFFFF AND DUP2 MSTORE PUSH1 0x20 ADD SWAP1 DUP2 MSTORE PUSH1 0x20 ADD PUSH0 KECCAK256 PUSH0 PUSH2 0x702 DUP6 PUSH2 0x2C7 JUMP JUMPDEST DUP2 MSTORE PUSH1 0x20 ADD SWAP1 DUP2 MSTORE PUSH1 0x20 ADD PUSH0 KECCAK256 PUSH0 DUP3 DUP3 SLOAD PUSH2 0x71D SWAP2 SWAP1 PUSH2 0x1275 JUMP JUMPDEST SWAP3 POP POP DUP2 SWAP1 SSTORE POP POP JUMPDEST POP POP POP JUMP JUMPDEST PUSH0 DUP3 PUSH20 0xFFFFFFFFFFFFFFFFFFFFFFFFFFFFFFFFFFFFFFFF AND CALLER PUSH20 0xFFFFFFFFFFFFFFFFFFFFFFFFFFFFFFFFFFFFFFFF AND PUSH32 0xC1108062087028D06CFD95CCB33F6414D3BF1F8378198F0040FB622930DCD737 PUSH1 0x40 MLOAD PUSH1 0x40 MLOAD DUP1 SWAP2 SUB SWAP1 LOG3 PUSH1 0x3 PUSH0 CALLER PUSH20 0xFFFFFFFFFFFFFFFFFFFFFFFFFFFFFFFFFFFFFFFF AND PUSH20 0xFFFFFFFFFFFFFFFFFFFFFFFFFFFFFFFFFFFFFFFF AND DUP2 MSTORE PUSH1 0x20 ADD SWAP1 DUP2 MSTORE PUSH1 0x20 ADD PUSH0 KECCAK256 PUSH0 SWAP1 SLOAD SWAP1 PUSH2 0x100 EXP SWAP1 DIV PUSH1 0xFF AND PUSH2 0x80F JUMPI PUSH1 0x40 MLOAD PUSH32 0x8C379A000000000000000000000000000000000000000000000000000000000 DUP2 MSTORE PUSH1 0x4 ADD PUSH2 0x806 SWAP1 PUSH2 0x118F JUMP JUMPDEST PUSH1 0x40 MLOAD DUP1 SWAP2 SUB SWAP1 REVERT JUMPDEST PUSH0 PUSH2 0x81A DUP5 DUP5 PUSH2 0xD40 JUMP JUMPDEST SWAP1 POP DUP1 ISZERO PUSH2 0x87E JUMPI PUSH0 PUSH0 DUP6 PUSH20 0xFFFFFFFFFFFFFFFFFFFFFFFFFFFFFFFFFFFFFFFF AND PUSH20 0xFFFFFFFFFFFFFFFFFFFFFFFFFFFFFFFFFFFFFFFF AND DUP2 MSTORE PUSH1 0x20 ADD SWAP1 DUP2 MSTORE PUSH1 0x20 ADD PUSH0 KECCAK256 PUSH0 PUSH2 0x868 DUP6 PUSH2 0x2C7 JUMP JUMPDEST DUP2 MSTORE PUSH1 0x20 ADD SWAP1 DUP2 MSTORE PUSH1 0x20 ADD PUSH0 KECCAK256 SLOAD SWAP2 POP POP PUSH2 0x888 JUMP JUMPDEST PUSH2 0x886 PUSH2 0xDA0 JUMP JUMPDEST POP JUMPDEST SWAP3 SWAP2 POP POP JUMP JUMPDEST PUSH1 0x3 PUSH0 CALLER PUSH20 0xFFFFFFFFFFFFFFFFFFFFFFFFFFFFFFFFFFFFFFFF AND PUSH20 0xFFFFFFFFFFFFFFFFFFFFFFFFFFFFFFFFFFFFFFFF AND DUP2 MSTORE PUSH1 0x20 ADD SWAP1 DUP2 MSTORE PUSH1 0x20 ADD PUSH0 KECCAK256 PUSH0 SWAP1 SLOAD SWAP1 PUSH2 0x100 EXP SWAP1 DIV PUSH1 0xFF AND ISZERO PUSH2 0x967 JUMPI PUSH0 CALLER PUSH20 0xFFFFFFFFFFFFFFFFFFFFFFFFFFFFFFFFFFFFFFFF AND PUSH32 0x1ACE93D63ABB1030C7FA4CE5AF1271C17A388B5ACA35A4F21E5E69C7FA95A3EE PUSH0 PUSH1 0x40 MLOAD PUSH2 0x924 SWAP2 SWAP1 PUSH2 0xEE4 JUMP JUMPDEST PUSH1 0x40 MLOAD DUP1 SWAP2 SUB SWAP1 LOG3 PUSH1 0x40 MLOAD PUSH32 0x8C379A000000000000000000000000000000000000000000000000000000000 DUP2 MSTORE PUSH1 0x4 ADD PUSH2 0x95E SWAP1 PUSH2 0x118F JUMP JUMPDEST PUSH1 0x40 MLOAD DUP1 SWAP2 SUB SWAP1 REVERT JUMPDEST PUSH0 PUSH2 0x972 CALLER DUP4 PUSH2 0xD40 JUMP JUMPDEST SWAP1 POP PUSH0 PUSH0 CALLER PUSH20 0xFFFFFFFFFFFFFFFFFFFFFFFFFFFFFFFFFFFFFFFF AND PUSH20 0xFFFFFFFFFFFFFFFFFFFFFFFFFFFFFFFFFFFFFFFF AND DUP2 MSTORE PUSH1 0x20 ADD SWAP1 DUP2 MSTORE PUSH1 0x20 ADD PUSH0 KECCAK256 PUSH0 PUSH2 0x9BA DUP5 PUSH2 0x2C7 JUMP JUMPDEST DUP2 MSTORE PUSH1 0x20 ADD SWAP1 DUP2 MSTORE PUSH1 0x20 ADD PUSH0 KECCAK256 SLOAD CALLER PUSH20 0xFFFFFFFFFFFFFFFFFFFFFFFFFFFFFFFFFFFFFFFF AND PUSH32 0x1ACE93D63ABB1030C7FA4CE5AF1271C17A388B5ACA35A4F21E5E69C7FA95A3EE DUP4 PUSH1 0x40 MLOAD PUSH2 0xA0E SWAP2 SWAP1 PUSH2 0xEE4 JUMP JUMPDEST PUSH1 0x40 MLOAD DUP1 SWAP2 SUB SWAP1 LOG3 DUP1 ISZERO PUSH2 0xAB8 JUMPI CALLER PUSH20 0xFFFFFFFFFFFFFFFFFFFFFFFFFFFFFFFFFFFFFFFF AND PUSH2 0x8FC PUSH0 PUSH0 CALLER PUSH20 0xFFFFFFFFFFFFFFFFFFFFFFFFFFFFFFFFFFFFFFFF AND PUSH20 0xFFFFFFFFFFFFFFFFFFFFFFFFFFFFFFFFFFFFFFFF AND DUP2 MSTORE PUSH1 0x20 ADD SWAP1 DUP2 MSTORE PUSH1 0x20 ADD PUSH0 KECCAK256 PUSH0 PUSH2 0xA7C DUP7 PUSH2 0x2C7 JUMP JUMPDEST DUP2 MSTORE PUSH1 0x20 ADD SWAP1 DUP2 MSTORE PUSH1 0x20 ADD PUSH0 KECCAK256 SLOAD SWAP1 DUP2 ISZERO MUL SWAP1 PUSH1 0x40 MLOAD PUSH0 PUSH1 0x40 MLOAD DUP1 DUP4 SUB DUP2 DUP6 DUP9 DUP9 CALL SWAP4 POP POP POP POP ISZERO DUP1 ISZERO PUSH2 0xAB2 JUMPI RETURNDATASIZE PUSH0 PUSH0 RETURNDATACOPY RETURNDATASIZE PUSH0 REVERT JUMPDEST POP PUSH2 0xAC1 JUMP JUMPDEST PUSH2 0xAC0 PUSH2 0xDA0 JUMP JUMPDEST JUMPDEST POP POP JUMP JUMPDEST PUSH1 0x3 PUSH0 CALLER PUSH20 0xFFFFFFFFFFFFFFFFFFFFFFFFFFFFFFFFFFFFFFFF AND PUSH20 0xFFFFFFFFFFFFFFFFFFFFFFFFFFFFFFFFFFFFFFFF AND DUP2 MSTORE PUSH1 0x20 ADD SWAP1 DUP2 MSTORE PUSH1 0x20 ADD PUSH0 KECCAK256 PUSH0 SWAP1 SLOAD SWAP1 PUSH2 0x100 EXP SWAP1 DIV PUSH1 0xFF AND ISZERO PUSH2 0xBEA JUMPI PUSH0 PUSH0 DUP4 PUSH20 0xFFFFFFFFFFFFFFFFFFFFFFFFFFFFFFFFFFFFFFFF AND PUSH20 0xFFFFFFFFFFFFFFFFFFFFFFFFFFFFFFFFFFFFFFFF AND DUP2 MSTORE PUSH1 0x20 ADD SWAP1 DUP2 MSTORE PUSH1 0x20 ADD PUSH0 KECCAK256 PUSH0 DUP3 DUP2 MSTORE PUSH1 0x20 ADD SWAP1 DUP2 MSTORE PUSH1 0x20 ADD PUSH0 KECCAK256 SLOAD DUP3 PUSH20 0xFFFFFFFFFFFFFFFFFFFFFFFFFFFFFFFFFFFFFFFF AND CALLVALUE PUSH32 0x8BCD11857E6A3BE2869200DAD8A50365A705C0D72F71B2E96F28837226CD3F7F PUSH0 PUSH1 0x40 MLOAD PUSH2 0xBA7 SWAP2 SWAP1 PUSH2 0xEE4 JUMP JUMPDEST PUSH1 0x40 MLOAD DUP1 SWAP2 SUB SWAP1 LOG4 PUSH1 0x40 MLOAD PUSH32 0x8C379A000000000000000000000000000000000000000000000000000000000 DUP2 MSTORE PUSH1 0x4 ADD PUSH2 0xBE1 SWAP1 PUSH2 0x118F JUMP JUMPDEST PUSH1 0x40 MLOAD DUP1 SWAP2 SUB SWAP1 REVERT JUMPDEST PUSH1 0x1 PUSH1 0x2 PUSH0 DUP5 PUSH20 0xFFFFFFFFFFFFFFFFFFFFFFFFFFFFFFFFFFFFFFFF AND PUSH20 0xFFFFFFFFFFFFFFFFFFFFFFFFFFFFFFFFFFFFFFFF AND DUP2 MSTORE PUSH1 0x20 ADD SWAP1 DUP2 MSTORE PUSH1 0x20 ADD PUSH0 KECCAK256 PUSH0 PUSH2 0x100 EXP DUP2 SLOAD DUP2 PUSH1 0xFF MUL NOT AND SWAP1 DUP4 ISZERO ISZERO MUL OR SWAP1 SSTORE POP CALLVALUE PUSH0 PUSH0 DUP5 PUSH20 0xFFFFFFFFFFFFFFFFFFFFFFFFFFFFFFFFFFFFFFFF AND PUSH20 0xFFFFFFFFFFFFFFFFFFFFFFFFFFFFFFFFFFFFFFFF AND DUP2 MSTORE PUSH1 0x20 ADD SWAP1 DUP2 MSTORE PUSH1 0x20 ADD PUSH0 KECCAK256 PUSH0 DUP4 DUP2 MSTORE PUSH1 0x20 ADD SWAP1 DUP2 MSTORE PUSH1 0x20 ADD PUSH0 KECCAK256 PUSH0 DUP3 DUP3 SLOAD PUSH2 0xC99 SWAP2 SWAP1 PUSH2 0x1242 JUMP JUMPDEST SWAP3 POP POP DUP2 SWAP1 SSTORE POP PUSH0 PUSH0 DUP4 PUSH20 0xFFFFFFFFFFFFFFFFFFFFFFFFFFFFFFFFFFFFFFFF AND PUSH20 0xFFFFFFFFFFFFFFFFFFFFFFFFFFFFFFFFFFFFFFFF AND DUP2 MSTORE PUSH1 0x20 ADD SWAP1 DUP2 MSTORE PUSH1 0x20 ADD PUSH0 KECCAK256 PUSH0 DUP3 DUP2 MSTORE PUSH1 0x20 ADD SWAP1 DUP2 MSTORE PUSH1 0x20 ADD PUSH0 KECCAK256 SLOAD DUP3 PUSH20 0xFFFFFFFFFFFFFFFFFFFFFFFFFFFFFFFFFFFFFFFF AND CALLVALUE PUSH32 0x8BCD11857E6A3BE2869200DAD8A50365A705C0D72F71B2E96F28837226CD3F7F PUSH1 0x1 PUSH1 0x40 MLOAD PUSH2 0xD34 SWAP2 SWAP1 PUSH2 0xEE4 JUMP JUMPDEST PUSH1 0x40 MLOAD DUP1 SWAP2 SUB SWAP1 LOG4 POP POP JUMP JUMPDEST PUSH0 PUSH0 PUSH0 PUSH0 DUP6 PUSH20 0xFFFFFFFFFFFFFFFFFFFFFFFFFFFFFFFFFFFFFFFF AND PUSH20 0xFFFFFFFFFFFFFFFFFFFFFFFFFFFFFFFFFFFFFFFF AND DUP2 MSTORE PUSH1 0x20 ADD SWAP1 DUP2 MSTORE PUSH1 0x20 ADD PUSH0 KECCAK256 PUSH0 PUSH2 0xD88 DUP6 PUSH2 0x2C7 JUMP JUMPDEST DUP2 MSTORE PUSH1 0x20 ADD SWAP1 DUP2 MSTORE PUSH1 0x20 ADD PUSH0 KECCAK256 SLOAD EQ ISZERO SWAP1 POP SWAP3 SWAP2 POP POP JUMP JUMPDEST PUSH1 0x2 PUSH1 0x1 PUSH0 CALLER PUSH20 0xFFFFFFFFFFFFFFFFFFFFFFFFFFFFFFFFFFFFFFFF AND PUSH20 0xFFFFFFFFFFFFFFFFFFFFFFFFFFFFFFFFFFFFFFFF AND DUP2 MSTORE PUSH1 0x20 ADD SWAP1 DUP2 MSTORE PUSH1 0x20 ADD PUSH0 KECCAK256 PUSH0 DUP2 SLOAD PUSH2 0xDEB SWAP1 PUSH2 0x12A8 JUMP JUMPDEST SWAP2 SWAP1 POP DUP2 SWAP1 SSTORE LT PUSH2 0xE8F JUMPI PUSH1 0x1 PUSH1 0x3 PUSH0 CALLER PUSH20 0xFFFFFFFFFFFFFFFFFFFFFFFFFFFFFFFFFFFFFFFF AND PUSH20 0xFFFFFFFFFFFFFFFFFFFFFFFFFFFFFFFFFFFFFFFF AND DUP2 MSTORE PUSH1 0x20 ADD SWAP1 DUP2 MSTORE PUSH1 0x20 ADD PUSH0 KECCAK256 PUSH0 PUSH2 0x100 EXP DUP2 SLOAD DUP2 PUSH1 0xFF MUL NOT AND SWAP1 DUP4 ISZERO ISZERO MUL OR SWAP1 SSTORE POP CALLER PUSH20 0xFFFFFFFFFFFFFFFFFFFFFFFFFFFFFFFFFFFFFFFF AND PUSH32 0xECB93C06E2466C523C3ED0F181F11E5CC9DED3E0B654BC0B9F8A2ED1269FACF PUSH1 0x40 MLOAD PUSH1 0x40 MLOAD DUP1 SWAP2 SUB SWAP1 LOG2 JUMPDEST PUSH1 0x40 MLOAD PUSH32 0x8C379A000000000000000000000000000000000000000000000000000000000 DUP2 MSTORE PUSH1 0x4 ADD PUSH2 0xEC1 SWAP1 PUSH2 0x1339 JUMP JUMPDEST PUSH1 0x40 MLOAD DUP1 SWAP2 SUB SWAP1 REVERT JUMPDEST PUSH0 DUP2 ISZERO ISZERO SWAP1 POP SWAP2 SWAP1 POP JUMP JUMPDEST PUSH2 0xEDE DUP2 PUSH2 0xECA JUMP JUMPDEST DUP3 MSTORE POP POP JUMP JUMPDEST PUSH0 PUSH1 0x20 DUP3 ADD SWAP1 POP PUSH2 0xEF7 PUSH0 DUP4 ADD DUP5 PUSH2 0xED5 JUMP JUMPDEST SWAP3 SWAP2 POP POP JUMP JUMPDEST PUSH0 PUSH0 REVERT JUMPDEST PUSH0 PUSH20 0xFFFFFFFFFFFFFFFFFFFFFFFFFFFFFFFFFFFFFFFF DUP3 AND SWAP1 POP SWAP2 SWAP1 POP JUMP JUMPDEST PUSH0 PUSH2 0xF2A DUP3 PUSH2 0xF01 JUMP JUMPDEST SWAP1 POP SWAP2 SWAP1 POP JUMP JUMPDEST PUSH2 0xF3A DUP2 PUSH2 0xF20 JUMP JUMPDEST DUP2 EQ PUSH2 0xF44 JUMPI PUSH0 PUSH0 REVERT JUMPDEST POP JUMP JUMPDEST PUSH0 DUP2 CALLDATALOAD SWAP1 POP PUSH2 0xF55 DUP2 PUSH2 0xF31 JUMP JUMPDEST SWAP3 SWAP2 POP POP JUMP JUMPDEST PUSH0 DUP2 SWAP1 POP SWAP2 SWAP1 POP JUMP JUMPDEST PUSH2 0xF6D DUP2 PUSH2 0xF5B JUMP JUMPDEST DUP2 EQ PUSH2 0xF77 JUMPI PUSH0 PUSH0 REVERT JUMPDEST POP JUMP JUMPDEST PUSH0 DUP2 CALLDATALOAD SWAP1 POP PUSH2 0xF88 DUP2 PUSH2 0xF64 JUMP JUMPDEST SWAP3 SWAP2 POP POP JUMP JUMPDEST PUSH0 PUSH0 PUSH0 PUSH1 0x60 DUP5 DUP7 SUB SLT ISZERO PUSH2 0xFA5 JUMPI PUSH2 0xFA4 PUSH2 0xEFD JUMP JUMPDEST JUMPDEST PUSH0 PUSH2 0xFB2 DUP7 DUP3 DUP8 ADD PUSH2 0xF47 JUMP JUMPDEST SWAP4 POP POP PUSH1 0x20 PUSH2 0xFC3 DUP7 DUP3 DUP8 ADD PUSH2 0xF7A JUMP JUMPDEST SWAP3 POP POP PUSH1 0x40 PUSH2 0xFD4 DUP7 DUP3 DUP8 ADD PUSH2 0xF7A JUMP JUMPDEST SWAP2 POP POP SWAP3 POP SWAP3 POP SWAP3 JUMP JUMPDEST PUSH0 PUSH0 PUSH1 0x40 DUP4 DUP6 SUB SLT ISZERO PUSH2 0xFF4 JUMPI PUSH2 0xFF3 PUSH2 0xEFD JUMP JUMPDEST JUMPDEST PUSH0 PUSH2 0x1001 DUP6 DUP3 DUP7 ADD PUSH2 0xF47 JUMP JUMPDEST SWAP3 POP POP PUSH1 0x20 PUSH2 0x1012 DUP6 DUP3 DUP7 ADD PUSH2 0xF7A JUMP JUMPDEST SWAP2 POP POP SWAP3 POP SWAP3 SWAP1 POP JUMP JUMPDEST PUSH2 0x1025 DUP2 PUSH2 0xF5B JUMP JUMPDEST DUP3 MSTORE POP POP JUMP JUMPDEST PUSH0 PUSH1 0x20 DUP3 ADD SWAP1 POP PUSH2 0x103E PUSH0 DUP4 ADD DUP5 PUSH2 0x101C JUMP JUMPDEST SWAP3 SWAP2 POP POP JUMP JUMPDEST PUSH0 PUSH1 0x20 DUP3 DUP5 SUB SLT ISZERO PUSH2 0x1059 JUMPI PUSH2 0x1058 PUSH2 0xEFD JUMP JUMPDEST JUMPDEST PUSH0 PUSH2 0x1066 DUP5 DUP3 DUP6 ADD PUSH2 0xF7A JUMP JUMPDEST SWAP2 POP POP SWAP3 SWAP2 POP POP JUMP JUMPDEST PUSH0 DUP2 MLOAD SWAP1 POP SWAP2 SWAP1 POP JUMP JUMPDEST PUSH0 DUP2 SWAP1 POP SWAP3 SWAP2 POP POP JUMP JUMPDEST DUP3 DUP2 DUP4 MCOPY PUSH0 DUP4 DUP4 ADD MSTORE POP POP POP JUMP JUMPDEST PUSH0 PUSH2 0x109B DUP3 PUSH2 0x106F JUMP JUMPDEST PUSH2 0x10A5 DUP2 DUP6 PUSH2 0x1079 JUMP JUMPDEST SWAP4 POP PUSH2 0x10B5 DUP2 DUP6 PUSH1 0x20 DUP7 ADD PUSH2 0x1083 JUMP JUMPDEST DUP1 DUP5 ADD SWAP2 POP POP SWAP3 SWAP2 POP POP JUMP JUMPDEST PUSH0 PUSH2 0x10CC DUP3 DUP5 PUSH2 0x1091 JUMP JUMPDEST SWAP2 POP DUP2 SWAP1 POP SWAP3 SWAP2 POP POP JUMP JUMPDEST PUSH0 DUP2 SWAP1 POP SWAP2 SWAP1 POP JUMP JUMPDEST PUSH2 0x10E9 DUP2 PUSH2 0x10D7 JUMP JUMPDEST DUP2 EQ PUSH2 0x10F3 JUMPI PUSH0 PUSH0 REVERT JUMPDEST POP JUMP JUMPDEST PUSH0 DUP2 MLOAD SWAP1 POP PUSH2 0x1104 DUP2 PUSH2 0x10E0 JUMP JUMPDEST SWAP3 SWAP2 POP POP JUMP JUMPDEST PUSH0 PUSH1 0x20 DUP3 DUP5 SUB SLT ISZERO PUSH2 0x111F JUMPI PUSH2 0x111E PUSH2 0xEFD JUMP JUMPDEST JUMPDEST PUSH0 PUSH2 0x112C DUP5 DUP3 DUP6 ADD PUSH2 0x10F6 JUMP JUMPDEST SWAP2 POP POP SWAP3 SWAP2 POP POP JUMP JUMPDEST PUSH0 DUP3 DUP3 MSTORE PUSH1 0x20 DUP3 ADD SWAP1 POP SWAP3 SWAP2 POP POP JUMP JUMPDEST PUSH32 0x796F752061726520696E2074686520626C61636B206C69737400000000000000 PUSH0 DUP3 ADD MSTORE POP JUMP JUMPDEST PUSH0 PUSH2 0x1179 PUSH1 0x19 DUP4 PUSH2 0x1135 JUMP JUMPDEST SWAP2 POP PUSH2 0x1184 DUP3 PUSH2 0x1145 JUMP JUMPDEST PUSH1 0x20 DUP3 ADD SWAP1 POP SWAP2 SWAP1 POP JUMP JUMPDEST PUSH0 PUSH1 0x20 DUP3 ADD SWAP1 POP DUP2 DUP2 SUB PUSH0 DUP4 ADD MSTORE PUSH2 0x11A6 DUP2 PUSH2 0x116D JUMP JUMPDEST SWAP1 POP SWAP2 SWAP1 POP JUMP JUMPDEST PUSH32 0x6E6F7420656E6F7567682062616C616E63650000000000000000000000000000 PUSH0 DUP3 ADD MSTORE POP JUMP JUMPDEST PUSH0 PUSH2 0x11E1 PUSH1 0x12 DUP4 PUSH2 0x1135 JUMP JUMPDEST SWAP2 POP PUSH2 0x11EC DUP3 PUSH2 0x11AD JUMP JUMPDEST PUSH1 0x20 DUP3 ADD SWAP1 POP SWAP2 SWAP1 POP JUMP JUMPDEST PUSH0 PUSH1 0x20 DUP3 ADD SWAP1 POP DUP2 DUP2 SUB PUSH0 DUP4 ADD MSTORE PUSH2 0x120E DUP2 PUSH2 0x11D5 JUMP JUMPDEST SWAP1 POP SWAP2 SWAP1 POP JUMP JUMPDEST PUSH32 0x4E487B7100000000000000000000000000000000000000000000000000000000 PUSH0 MSTORE PUSH1 0x11 PUSH1 0x4 MSTORE PUSH1 0x24 PUSH0 REVERT JUMPDEST PUSH0 PUSH2 0x124C DUP3 PUSH2 0xF5B JUMP JUMPDEST SWAP2 POP PUSH2 0x1257 DUP4 PUSH2 0xF5B JUMP JUMPDEST SWAP3 POP DUP3 DUP3 ADD SWAP1 POP DUP1 DUP3 GT ISZERO PUSH2 0x126F JUMPI PUSH2 0x126E PUSH2 0x1215 JUMP JUMPDEST JUMPDEST SWAP3 SWAP2 POP POP JUMP JUMPDEST PUSH0 PUSH2 0x127F DUP3 PUSH2 0xF5B JUMP JUMPDEST SWAP2 POP PUSH2 0x128A DUP4 PUSH2 0xF5B JUMP JUMPDEST SWAP3 POP DUP3 DUP3 SUB SWAP1 POP DUP2 DUP2 GT ISZERO PUSH2 0x12A2 JUMPI PUSH2 0x12A1 PUSH2 0x1215 JUMP JUMPDEST JUMPDEST SWAP3 SWAP2 POP POP JUMP JUMPDEST PUSH0 PUSH2 0x12B2 DUP3 PUSH2 0xF5B JUMP JUMPDEST SWAP2 POP PUSH32 0xFFFFFFFFFFFFFFFFFFFFFFFFFFFFFFFFFFFFFFFFFFFFFFFFFFFFFFFFFFFFFFFF DUP3 SUB PUSH2 0x12E4 JUMPI PUSH2 0x12E3 PUSH2 0x1215 JUMP JUMPDEST JUMPDEST PUSH1 0x1 DUP3 ADD SWAP1 POP SWAP2 SWAP1 POP JUMP JUMPDEST PUSH32 0x696E76616C69642070617373776F726400000000000000000000000000000000 PUSH0 DUP3 ADD MSTORE POP JUMP JUMPDEST PUSH0 PUSH2 0x1323 PUSH1 0x10 DUP4 PUSH2 0x1135 JUMP JUMPDEST SWAP2 POP PUSH2 0x132E DUP3 PUSH2 0x12EF JUMP JUMPDEST PUSH1 0x20 DUP3 ADD SWAP1 POP SWAP2 SWAP1 POP JUMP JUMPDEST PUSH0 PUSH1 0x20 DUP3 ADD SWAP1 POP DUP2 DUP2 SUB PUSH0 DUP4 ADD MSTORE PUSH2 0x1350 DUP2 PUSH2 0x1317 JUMP JUMPDEST SWAP1 POP SWAP2 SWAP1 POP JUMP INVALID LOG2 PUSH5 0x6970667358 0x22 SLT KECCAK256 ADDRESS 0xBE 0xAE 0xE8 0xC5 LOG0 0xDB 0x2A PUSH27 0x22B9F553474657214D7DE06610879D34A2B3E1DCA9A00064736F6C PUSH4 0x4300081E STOP CALLER "
				},
				"gasEstimates": {
					"creation": {
						"codeDepositCost": "1001000",
						"executionCost": "25304",
						"totalCost": "1026304"
					},
					"external": {
						"": "infinite",
						"deposit(address,uint256)": "infinite",
						"getBalance(address,uint256)": "infinite",
						"hash(uint256)": "infinite",
						"transfer(address,uint256,uint256)": "infinite",
						"withdraw(uint256)": "infinite"
					},
					"internal": {
						"isPasswordValid(address,uint256)": "infinite",
						"passwordFailedHandler()": "infinite"
					}
				},
				"methodIdentifiers": {
					"deposit(address,uint256)": "47e7ef24",
					"getBalance(address,uint256)": "2b04e840",
					"hash(uint256)": "b189fd4c",
					"transfer(address,uint256,uint256)": "095bcdb6",
					"withdraw(uint256)": "2e1a7d4d"
				}
			},
			"storageLayout": {
				"storage": [
					{
						"astId": 7,
						"contract": "contracts/hw5.sol:bank",
						"label": "accounts",
						"offset": 0,
						"slot": "0",
						"type": "t_mapping(t_address,t_mapping(t_uint256,t_uint256))"
					},
					{
						"astId": 11,
						"contract": "contracts/hw5.sol:bank",
						"label": "count",
						"offset": 0,
						"slot": "1",
						"type": "t_mapping(t_address,t_uint256)"
					},
					{
						"astId": 15,
						"contract": "contracts/hw5.sol:bank",
						"label": "validAccount",
						"offset": 0,
						"slot": "2",
						"type": "t_mapping(t_address,t_bool)"
					},
					{
						"astId": 19,
						"contract": "contracts/hw5.sol:bank",
						"label": "blackList",
						"offset": 0,
						"slot": "3",
						"type": "t_mapping(t_address,t_bool)"
					},
					{
						"astId": 21,
						"contract": "contracts/hw5.sol:bank",
						"label": "owner",
						"offset": 0,
						"slot": "4",
						"type": "t_address"
					}
				],
				"types": {
					"t_address": {
						"encoding": "inplace",
						"label": "address",
						"numberOfBytes": "20"
					},
					"t_bool": {
						"encoding": "inplace",
						"label": "bool",
						"numberOfBytes": "1"
					},
					"t_mapping(t_address,t_bool)": {
						"encoding": "mapping",
						"key": "t_address",
						"label": "mapping(address => bool)",
						"numberOfBytes": "32",
						"value": "t_bool"
					},
					"t_mapping(t_address,t_mapping(t_uint256,t_uint256))": {
						"encoding": "mapping",
						"key": "t_address",
						"label": "mapping(address => mapping(uint256 => uint256))",
						"numberOfBytes": "32",
						"value": "t_mapping(t_uint256,t_uint256)"
					},
					"t_mapping(t_address,t_uint256)": {
						"encoding": "mapping",
						"key": "t_address",
						"label": "mapping(address => uint256)",
						"numberOfBytes": "32",
						"value": "t_uint256"
					},
					"t_mapping(t_uint256,t_uint256)": {
						"encoding": "mapping",
						"key": "t_uint256",
						"label": "mapping(uint256 => uint256)",
						"numberOfBytes": "32",
						"value": "t_uint256"
					},
					"t_uint256": {
						"encoding": "inplace",
						"label": "uint256",
						"numberOfBytes": "32"
					}
				}
			},
			"userdoc": {
				"kind": "user",
				"methods": {},
				"version": 1
			}
		}
	}
}