{
	"contracts/hw5.sol": {
		"bank": {
			"abi": [
				{
					"inputs": [],
					"stateMutability": "nonpayable",
					"type": "constructor"
				},
				{
					"anonymous": false,
					"inputs": [
						{
							"indexed": true,
							"internalType": "address",
							"name": "addr",
							"type": "address"
						}
					],
					"name": "addBlackList",
					"type": "event"
				},
				{
					"anonymous": false,
					"inputs": [
						{
							"indexed": true,
							"internalType": "uint256",
							"name": "amount",
							"type": "uint256"
						},
						{
							"indexed": true,
							"internalType": "address",
							"name": "account",
							"type": "address"
						},
						{
							"indexed": true,
							"internalType": "uint256",
							"name": "balance",
							"type": "uint256"
						},
						{
							"indexed": false,
							"internalType": "bool",
							"name": "state",
							"type": "bool"
						}
					],
					"name": "depositLogs",
					"type": "event"
				},
				{
					"anonymous": false,
					"inputs": [
						{
							"indexed": true,
							"internalType": "address",
							"name": "from",
							"type": "address"
						},
						{
							"indexed": true,
							"internalType": "uint256",
							"name": "amount",
							"type": "uint256"
						}
					],
					"name": "forwardLogs",
					"type": "event"
				},
				{
					"anonymous": false,
					"inputs": [
						{
							"indexed": true,
							"internalType": "address",
							"name": "requester",
							"type": "address"
						},
						{
							"indexed": true,
							"internalType": "address",
							"name": "account",
							"type": "address"
						},
						{
							"indexed": false,
							"internalType": "bool",
							"name": "state",
							"type": "bool"
						}
					],
					"name": "lookBalanceLogs",
					"type": "event"
				},
				{
					"anonymous": false,
					"inputs": [
						{
							"indexed": true,
							"internalType": "address",
							"name": "from",
							"type": "address"
						},
						{
							"indexed": true,
							"internalType": "uint256",
							"name": "amount",
							"type": "uint256"
						},
						{
							"indexed": true,
							"internalType": "address",
							"name": "to",
							"type": "address"
						},
						{
							"indexed": false,
							"internalType": "bool",
							"name": "state",
							"type": "bool"
						}
					],
					"name": "transferLogs",
					"type": "event"
				},
				{
					"anonymous": false,
					"inputs": [
						{
							"indexed": true,
							"internalType": "address",
							"name": "addr",
							"type": "address"
						},
						{
							"indexed": true,
							"internalType": "uint256",
							"name": "amount",
							"type": "uint256"
						},
						{
							"indexed": false,
							"internalType": "bool",
							"name": "state",
							"type": "bool"
						}
					],
					"name": "withdrawLogs",
					"type": "event"
				},
				{
					"stateMutability": "payable",
					"type": "fallback"
				},
				{
					"inputs": [
						{
							"internalType": "address",
							"name": "to",
							"type": "address"
						},
						{
							"internalType": "uint256",
							"name": "password",
							"type": "uint256"
						}
					],
					"name": "deposit",
					"outputs": [],
					"stateMutability": "payable",
					"type": "function"
				},
				{
					"inputs": [
						{
							"internalType": "address",
							"name": "addr",
							"type": "address"
						},
						{
							"internalType": "uint256",
							"name": "password",
							"type": "uint256"
						}
					],
					"name": "getBalance",
					"outputs": [
						{
							"internalType": "uint256",
							"name": "",
							"type": "uint256"
						}
					],
					"stateMutability": "nonpayable",
					"type": "function"
				},
				{
					"inputs": [
						{
							"internalType": "uint256",
							"name": "input",
							"type": "uint256"
						}
					],
					"name": "hash",
					"outputs": [
						{
							"internalType": "uint256",
							"name": "",
							"type": "uint256"
						}
					],
					"stateMutability": "pure",
					"type": "function"
				},
				{
					"inputs": [
						{
							"internalType": "address",
							"name": "to",
							"type": "address"
						},
						{
							"internalType": "uint256",
							"name": "amount",
							"type": "uint256"
						},
						{
							"internalType": "uint256",
							"name": "password",
							"type": "uint256"
						}
					],
					"name": "transfer",
					"outputs": [],
					"stateMutability": "nonpayable",
					"type": "function"
				},
				{
					"inputs": [
						{
							"internalType": "uint256",
							"name": "password",
							"type": "uint256"
						}
					],
					"name": "withdraw",
					"outputs": [],
					"stateMutability": "nonpayable",
					"type": "function"
				},
				{
					"stateMutability": "payable",
					"type": "receive"
				}
			],
			"devdoc": {
				"kind": "dev",
				"methods": {},
				"version": 1
			},
			"evm": {
				"assembly": "    /* \"contracts/hw5.sol\":62:4706  contract bank {... */\n  mstore(0x40, 0x80)\n    /* \"contracts/hw5.sol\":967:1026  constructor() {... */\n  callvalue\n  dup1\n  iszero\n  tag_1\n  jumpi\n  revert(0x00, 0x00)\ntag_1:\n  pop\n    /* \"contracts/hw5.sol\":1008:1018  msg.sender */\n  caller\n    /* \"contracts/hw5.sol\":991:996  owner */\n  0x05\n  0x00\n    /* \"contracts/hw5.sol\":991:1019  owner = payable (msg.sender) */\n  0x0100\n  exp\n  dup2\n  sload\n  dup2\n  0xffffffffffffffffffffffffffffffffffffffff\n  mul\n  not\n  and\n  swap1\n  dup4\n  0xffffffffffffffffffffffffffffffffffffffff\n  and\n  mul\n  or\n  swap1\n  sstore\n  pop\n    /* \"contracts/hw5.sol\":62:4706  contract bank {... */\n  dataSize(sub_0)\n  dup1\n  dataOffset(sub_0)\n  0x00\n  codecopy\n  0x00\n  return\nstop\n\nsub_0: assembly {\n        /* \"contracts/hw5.sol\":62:4706  contract bank {... */\n      mstore(0x40, 0x80)\n      jumpi(tag_1, lt(calldatasize, 0x04))\n      shr(0xe0, calldataload(0x00))\n      dup1\n      0x095bcdb6\n      eq\n      tag_3\n      jumpi\n      dup1\n      0x2b04e840\n      eq\n      tag_4\n      jumpi\n      dup1\n      0x2e1a7d4d\n      eq\n      tag_5\n      jumpi\n      dup1\n      0x47e7ef24\n      eq\n      tag_6\n      jumpi\n      dup1\n      0xb189fd4c\n      eq\n      tag_7\n      jumpi\n      jump(tag_2)\n    tag_1:\n      jumpi(tag_2, calldatasize)\n        /* \"contracts/hw5.sol\":1094:1095  0 */\n      0x00\n        /* \"contracts/hw5.sol\":1068:1078  msg.sender */\n      caller\n        /* \"contracts/hw5.sol\":1068:1090  msg.sender.code.length */\n      0xffffffffffffffffffffffffffffffffffffffff\n      and\n      extcodesize\n        /* \"contracts/hw5.sol\":1068:1095  msg.sender.code.length != 0 */\n      eq\n        /* \"contracts/hw5.sol\":1064:1193  if (msg.sender.code.length != 0) {... */\n      tag_10\n      jumpi\n        /* \"contracts/hw5.sol\":1129:1139  msg.sender */\n      caller\n        /* \"contracts/hw5.sol\":1116:1140  addBlackList(msg.sender) */\n      0xffffffffffffffffffffffffffffffffffffffff\n      and\n      0x0ecb93c06e2466c523c3ed0f181f11e5cc9ded3e0b654bc0b9f8a2ed1269facf\n      mload(0x40)\n      mload(0x40)\n      dup1\n      swap2\n      sub\n      swap1\n      log2\n        /* \"contracts/hw5.sol\":1178:1182  true */\n      0x01\n        /* \"contracts/hw5.sol\":1154:1163  blackList */\n      0x04\n        /* \"contracts/hw5.sol\":1154:1175  blackList[msg.sender] */\n      0x00\n        /* \"contracts/hw5.sol\":1164:1174  msg.sender */\n      caller\n        /* \"contracts/hw5.sol\":1154:1175  blackList[msg.sender] */\n      0xffffffffffffffffffffffffffffffffffffffff\n      and\n      0xffffffffffffffffffffffffffffffffffffffff\n      and\n      dup2\n      mstore\n      0x20\n      add\n      swap1\n      dup2\n      mstore\n      0x20\n      add\n      0x00\n      keccak256\n      0x00\n        /* \"contracts/hw5.sol\":1154:1182  blackList[msg.sender] = true */\n      0x0100\n      exp\n      dup2\n      sload\n      dup2\n      0xff\n      mul\n      not\n      and\n      swap1\n      dup4\n      iszero\n      iszero\n      mul\n      or\n      swap1\n      sstore\n      pop\n        /* \"contracts/hw5.sol\":1064:1193  if (msg.sender.code.length != 0) {... */\n    tag_10:\n        /* \"contracts/hw5.sol\":3849:3854  owner */\n      0x05\n      0x00\n      swap1\n      sload\n      swap1\n      0x0100\n      exp\n      swap1\n      div\n      0xffffffffffffffffffffffffffffffffffffffff\n      and\n        /* \"contracts/hw5.sol\":3841:3864  payable(owner).transfer */\n      0xffffffffffffffffffffffffffffffffffffffff\n      and\n        /* \"contracts/hw5.sol\":3841:3875  payable(owner).transfer(msg.value) */\n      0x08fc\n        /* \"contracts/hw5.sol\":3865:3874  msg.value */\n      callvalue\n        /* \"contracts/hw5.sol\":3841:3875  payable(owner).transfer(msg.value) */\n      swap1\n      dup2\n      iszero\n      mul\n      swap1\n      mload(0x40)\n      0x00\n      mload(0x40)\n      dup1\n      dup4\n      sub\n      dup2\n      dup6\n      dup9\n      dup9\n      call\n      swap4\n      pop\n      pop\n      pop\n      pop\n      iszero\n      dup1\n      iszero\n      tag_13\n      jumpi\n      returndatacopy(0x00, 0x00, returndatasize)\n      revert(0x00, returndatasize)\n    tag_13:\n      pop\n        /* \"contracts/hw5.sol\":3914:3923  msg.value */\n      callvalue\n        /* \"contracts/hw5.sol\":3902:3912  msg.sender */\n      caller\n        /* \"contracts/hw5.sol\":3890:3924  forwardLogs(msg.sender, msg.value) */\n      0xffffffffffffffffffffffffffffffffffffffff\n      and\n      0x6b9fa43cfea9ed40dd7c399b06ee5001c6eca7b2b54d816d37899ac48ca0c255\n      mload(0x40)\n      mload(0x40)\n      dup1\n      swap2\n      sub\n      swap1\n      log3\n        /* \"contracts/hw5.sol\":3943:3952  blackList */\n      0x04\n        /* \"contracts/hw5.sol\":3943:3964  blackList[msg.sender] */\n      0x00\n        /* \"contracts/hw5.sol\":3953:3963  msg.sender */\n      caller\n        /* \"contracts/hw5.sol\":3943:3964  blackList[msg.sender] */\n      0xffffffffffffffffffffffffffffffffffffffff\n      and\n      0xffffffffffffffffffffffffffffffffffffffff\n      and\n      dup2\n      mstore\n      0x20\n      add\n      swap1\n      dup2\n      mstore\n      0x20\n      add\n      0x00\n      keccak256\n      0x00\n      swap1\n      sload\n      swap1\n      0x0100\n      exp\n      swap1\n      div\n      0xff\n      and\n        /* \"contracts/hw5.sol\":3942:3964  !blackList[msg.sender] */\n      iszero\n        /* \"contracts/hw5.sol\":3934:3994  require(!blackList[msg.sender], \"you are in the black list\") */\n      tag_14\n      jumpi\n      mload(0x40)\n      0x08c379a000000000000000000000000000000000000000000000000000000000\n      dup2\n      mstore\n      0x04\n      add\n      tag_15\n      swap1\n      tag_16\n      jump\t// in\n    tag_15:\n      mload(0x40)\n      dup1\n      swap2\n      sub\n      swap1\n      revert\n    tag_14:\n        /* \"contracts/hw5.sol\":62:4706  contract bank {... */\n      stop\n    tag_2:\n        /* \"contracts/hw5.sol\":1094:1095  0 */\n      0x00\n        /* \"contracts/hw5.sol\":1068:1078  msg.sender */\n      caller\n        /* \"contracts/hw5.sol\":1068:1090  msg.sender.code.length */\n      0xffffffffffffffffffffffffffffffffffffffff\n      and\n      extcodesize\n        /* \"contracts/hw5.sol\":1068:1095  msg.sender.code.length != 0 */\n      eq\n        /* \"contracts/hw5.sol\":1064:1193  if (msg.sender.code.length != 0) {... */\n      tag_19\n      jumpi\n        /* \"contracts/hw5.sol\":1129:1139  msg.sender */\n      caller\n        /* \"contracts/hw5.sol\":1116:1140  addBlackList(msg.sender) */\n      0xffffffffffffffffffffffffffffffffffffffff\n      and\n      0x0ecb93c06e2466c523c3ed0f181f11e5cc9ded3e0b654bc0b9f8a2ed1269facf\n      mload(0x40)\n      mload(0x40)\n      dup1\n      swap2\n      sub\n      swap1\n      log2\n        /* \"contracts/hw5.sol\":1178:1182  true */\n      0x01\n        /* \"contracts/hw5.sol\":1154:1163  blackList */\n      0x04\n        /* \"contracts/hw5.sol\":1154:1175  blackList[msg.sender] */\n      0x00\n        /* \"contracts/hw5.sol\":1164:1174  msg.sender */\n      caller\n        /* \"contracts/hw5.sol\":1154:1175  blackList[msg.sender] */\n      0xffffffffffffffffffffffffffffffffffffffff\n      and\n      0xffffffffffffffffffffffffffffffffffffffff\n      and\n      dup2\n      mstore\n      0x20\n      add\n      swap1\n      dup2\n      mstore\n      0x20\n      add\n      0x00\n      keccak256\n      0x00\n        /* \"contracts/hw5.sol\":1154:1182  blackList[msg.sender] = true */\n      0x0100\n      exp\n      dup2\n      sload\n      dup2\n      0xff\n      mul\n      not\n      and\n      swap1\n      dup4\n      iszero\n      iszero\n      mul\n      or\n      swap1\n      sstore\n      pop\n        /* \"contracts/hw5.sol\":1064:1193  if (msg.sender.code.length != 0) {... */\n    tag_19:\n        /* \"contracts/hw5.sol\":4064:4069  owner */\n      0x05\n      0x00\n      swap1\n      sload\n      swap1\n      0x0100\n      exp\n      swap1\n      div\n      0xffffffffffffffffffffffffffffffffffffffff\n      and\n        /* \"contracts/hw5.sol\":4056:4079  payable(owner).transfer */\n      0xffffffffffffffffffffffffffffffffffffffff\n      and\n        /* \"contracts/hw5.sol\":4056:4090  payable(owner).transfer(msg.value) */\n      0x08fc\n        /* \"contracts/hw5.sol\":4080:4089  msg.value */\n      callvalue\n        /* \"contracts/hw5.sol\":4056:4090  payable(owner).transfer(msg.value) */\n      swap1\n      dup2\n      iszero\n      mul\n      swap1\n      mload(0x40)\n      0x00\n      mload(0x40)\n      dup1\n      dup4\n      sub\n      dup2\n      dup6\n      dup9\n      dup9\n      call\n      swap4\n      pop\n      pop\n      pop\n      pop\n      iszero\n      dup1\n      iszero\n      tag_22\n      jumpi\n      returndatacopy(0x00, 0x00, returndatasize)\n      revert(0x00, returndatasize)\n    tag_22:\n      pop\n        /* \"contracts/hw5.sol\":4129:4138  msg.value */\n      callvalue\n        /* \"contracts/hw5.sol\":4117:4127  msg.sender */\n      caller\n        /* \"contracts/hw5.sol\":4105:4139  forwardLogs(msg.sender, msg.value) */\n      0xffffffffffffffffffffffffffffffffffffffff\n      and\n      0x6b9fa43cfea9ed40dd7c399b06ee5001c6eca7b2b54d816d37899ac48ca0c255\n      mload(0x40)\n      mload(0x40)\n      dup1\n      swap2\n      sub\n      swap1\n      log3\n        /* \"contracts/hw5.sol\":4158:4167  blackList */\n      0x04\n        /* \"contracts/hw5.sol\":4158:4179  blackList[msg.sender] */\n      0x00\n        /* \"contracts/hw5.sol\":4168:4178  msg.sender */\n      caller\n        /* \"contracts/hw5.sol\":4158:4179  blackList[msg.sender] */\n      0xffffffffffffffffffffffffffffffffffffffff\n      and\n      0xffffffffffffffffffffffffffffffffffffffff\n      and\n      dup2\n      mstore\n      0x20\n      add\n      swap1\n      dup2\n      mstore\n      0x20\n      add\n      0x00\n      keccak256\n      0x00\n      swap1\n      sload\n      swap1\n      0x0100\n      exp\n      swap1\n      div\n      0xff\n      and\n        /* \"contracts/hw5.sol\":4157:4179  !blackList[msg.sender] */\n      iszero\n        /* \"contracts/hw5.sol\":4149:4209  require(!blackList[msg.sender], \"you are in the black list\") */\n      tag_23\n      jumpi\n      mload(0x40)\n      0x08c379a000000000000000000000000000000000000000000000000000000000\n      dup2\n      mstore\n      0x04\n      add\n      tag_24\n      swap1\n      tag_16\n      jump\t// in\n    tag_24:\n      mload(0x40)\n      dup1\n      swap2\n      sub\n      swap1\n      revert\n    tag_23:\n        /* \"contracts/hw5.sol\":62:4706  contract bank {... */\n      stop\n        /* \"contracts/hw5.sol\":2920:3788  function transfer(address to, uint256 amount, uint256 password) public noContract{... */\n    tag_3:\n      callvalue\n      dup1\n      iszero\n      tag_25\n      jumpi\n      revert(0x00, 0x00)\n    tag_25:\n      pop\n      tag_26\n      0x04\n      dup1\n      calldatasize\n      sub\n      dup2\n      add\n      swap1\n      tag_27\n      swap2\n      swap1\n      tag_28\n      jump\t// in\n    tag_27:\n      tag_29\n      jump\t// in\n    tag_26:\n      stop\n        /* \"contracts/hw5.sol\":1898:2329  function getBalance(address addr, uint256 password) public noContract returns (uint256) {... */\n    tag_4:\n      callvalue\n      dup1\n      iszero\n      tag_30\n      jumpi\n      revert(0x00, 0x00)\n    tag_30:\n      pop\n      tag_31\n      0x04\n      dup1\n      calldatasize\n      sub\n      dup2\n      add\n      swap1\n      tag_32\n      swap2\n      swap1\n      tag_33\n      jump\t// in\n    tag_32:\n      tag_34\n      jump\t// in\n    tag_31:\n      mload(0x40)\n      tag_35\n      swap2\n      swap1\n      tag_36\n      jump\t// in\n    tag_35:\n      mload(0x40)\n      dup1\n      swap2\n      sub\n      swap1\n      return\n        /* \"contracts/hw5.sol\":2335:2914  function withdraw(uint password) public noContract{... */\n    tag_5:\n      callvalue\n      dup1\n      iszero\n      tag_37\n      jumpi\n      revert(0x00, 0x00)\n    tag_37:\n      pop\n      tag_38\n      0x04\n      dup1\n      calldatasize\n      sub\n      dup2\n      add\n      swap1\n      tag_39\n      swap2\n      swap1\n      tag_40\n      jump\t// in\n    tag_39:\n      tag_41\n      jump\t// in\n    tag_38:\n      stop\n        /* \"contracts/hw5.sol\":1314:1892  function deposit(address to, uint256 password) public payable noContract{... */\n    tag_6:\n      tag_42\n      0x04\n      dup1\n      calldatasize\n      sub\n      dup2\n      add\n      swap1\n      tag_43\n      swap2\n      swap1\n      tag_33\n      jump\t// in\n    tag_43:\n      tag_44\n      jump\t// in\n    tag_42:\n      stop\n        /* \"contracts/hw5.sol\":4222:4339  function hash(uint256 input) public pure returns (uint256) {... */\n    tag_7:\n      callvalue\n      dup1\n      iszero\n      tag_45\n      jumpi\n      revert(0x00, 0x00)\n    tag_45:\n      pop\n      tag_46\n      0x04\n      dup1\n      calldatasize\n      sub\n      dup2\n      add\n      swap1\n      tag_47\n      swap2\n      swap1\n      tag_40\n      jump\t// in\n    tag_47:\n      tag_48\n      jump\t// in\n    tag_46:\n      mload(0x40)\n      tag_49\n      swap2\n      swap1\n      tag_36\n      jump\t// in\n    tag_49:\n      mload(0x40)\n      dup1\n      swap2\n      sub\n      swap1\n      return\n        /* \"contracts/hw5.sol\":2920:3788  function transfer(address to, uint256 amount, uint256 password) public noContract{... */\n    tag_29:\n        /* \"contracts/hw5.sol\":1094:1095  0 */\n      0x00\n        /* \"contracts/hw5.sol\":1068:1078  msg.sender */\n      caller\n        /* \"contracts/hw5.sol\":1068:1090  msg.sender.code.length */\n      0xffffffffffffffffffffffffffffffffffffffff\n      and\n      extcodesize\n        /* \"contracts/hw5.sol\":1068:1095  msg.sender.code.length != 0 */\n      eq\n        /* \"contracts/hw5.sol\":1064:1193  if (msg.sender.code.length != 0) {... */\n      tag_51\n      jumpi\n        /* \"contracts/hw5.sol\":1129:1139  msg.sender */\n      caller\n        /* \"contracts/hw5.sol\":1116:1140  addBlackList(msg.sender) */\n      0xffffffffffffffffffffffffffffffffffffffff\n      and\n      0x0ecb93c06e2466c523c3ed0f181f11e5cc9ded3e0b654bc0b9f8a2ed1269facf\n      mload(0x40)\n      mload(0x40)\n      dup1\n      swap2\n      sub\n      swap1\n      log2\n        /* \"contracts/hw5.sol\":1178:1182  true */\n      0x01\n        /* \"contracts/hw5.sol\":1154:1163  blackList */\n      0x04\n        /* \"contracts/hw5.sol\":1154:1175  blackList[msg.sender] */\n      0x00\n        /* \"contracts/hw5.sol\":1164:1174  msg.sender */\n      caller\n        /* \"contracts/hw5.sol\":1154:1175  blackList[msg.sender] */\n      0xffffffffffffffffffffffffffffffffffffffff\n      and\n      0xffffffffffffffffffffffffffffffffffffffff\n      and\n      dup2\n      mstore\n      0x20\n      add\n      swap1\n      dup2\n      mstore\n      0x20\n      add\n      0x00\n      keccak256\n      0x00\n        /* \"contracts/hw5.sol\":1154:1182  blackList[msg.sender] = true */\n      0x0100\n      exp\n      dup2\n      sload\n      dup2\n      0xff\n      mul\n      not\n      and\n      swap1\n      dup4\n      iszero\n      iszero\n      mul\n      or\n      swap1\n      sstore\n      pop\n        /* \"contracts/hw5.sol\":1064:1193  if (msg.sender.code.length != 0) {... */\n    tag_51:\n        /* \"contracts/hw5.sol\":3015:3024  blackList */\n      0x04\n        /* \"contracts/hw5.sol\":3015:3036  blackList[msg.sender] */\n      0x00\n        /* \"contracts/hw5.sol\":3025:3035  msg.sender */\n      caller\n        /* \"contracts/hw5.sol\":3015:3036  blackList[msg.sender] */\n      0xffffffffffffffffffffffffffffffffffffffff\n      and\n      0xffffffffffffffffffffffffffffffffffffffff\n      and\n      dup2\n      mstore\n      0x20\n      add\n      swap1\n      dup2\n      mstore\n      0x20\n      add\n      0x00\n      keccak256\n      0x00\n      swap1\n      sload\n      swap1\n      0x0100\n      exp\n      swap1\n      div\n      0xff\n      and\n        /* \"contracts/hw5.sol\":3011:3160  if (blackList[msg.sender]) {... */\n      iszero\n      tag_53\n      jumpi\n        /* \"contracts/hw5.sol\":3090:3092  to */\n      dup3\n        /* \"contracts/hw5.sol\":3057:3100  transferLogs(msg.sender, amount, to, false) */\n      0xffffffffffffffffffffffffffffffffffffffff\n      and\n        /* \"contracts/hw5.sol\":3082:3088  amount */\n      dup3\n        /* \"contracts/hw5.sol\":3070:3080  msg.sender */\n      caller\n        /* \"contracts/hw5.sol\":3057:3100  transferLogs(msg.sender, amount, to, false) */\n      0xffffffffffffffffffffffffffffffffffffffff\n      and\n      0xf3ff6628461a09e7f6325423c56503e440bfc7143ac0004f650f5010c01ff4c8\n        /* \"contracts/hw5.sol\":3094:3099  false */\n      0x00\n        /* \"contracts/hw5.sol\":3057:3100  transferLogs(msg.sender, amount, to, false) */\n      mload(0x40)\n      tag_54\n      swap2\n      swap1\n      tag_55\n      jump\t// in\n    tag_54:\n      mload(0x40)\n      dup1\n      swap2\n      sub\n      swap1\n      log4\n        /* \"contracts/hw5.sol\":3114:3149  revert(\"you are in the black list\") */\n      mload(0x40)\n      0x08c379a000000000000000000000000000000000000000000000000000000000\n      dup2\n      mstore\n      0x04\n      add\n      tag_56\n      swap1\n      tag_16\n      jump\t// in\n    tag_56:\n      mload(0x40)\n      dup1\n      swap2\n      sub\n      swap1\n      revert\n        /* \"contracts/hw5.sol\":3011:3160  if (blackList[msg.sender]) {... */\n    tag_53:\n        /* \"contracts/hw5.sol\":3170:3182  bool success */\n      0x00\n        /* \"contracts/hw5.sol\":3185:3222  isPasswordValid(msg.sender, password) */\n      tag_57\n        /* \"contracts/hw5.sol\":3201:3211  msg.sender */\n      caller\n        /* \"contracts/hw5.sol\":3213:3221  password */\n      dup4\n        /* \"contracts/hw5.sol\":3185:3200  isPasswordValid */\n      tag_58\n        /* \"contracts/hw5.sol\":3185:3222  isPasswordValid(msg.sender, password) */\n      jump\t// in\n    tag_57:\n        /* \"contracts/hw5.sol\":3170:3222  bool success = isPasswordValid(msg.sender, password) */\n      swap1\n      pop\n        /* \"contracts/hw5.sol\":3270:3272  to */\n      dup4\n        /* \"contracts/hw5.sol\":3237:3325  transferLogs(msg.sender, amount, to,... */\n      0xffffffffffffffffffffffffffffffffffffffff\n      and\n        /* \"contracts/hw5.sol\":3262:3268  amount */\n      dup4\n        /* \"contracts/hw5.sol\":3250:3260  msg.sender */\n      caller\n        /* \"contracts/hw5.sol\":3237:3325  transferLogs(msg.sender, amount, to,... */\n      0xffffffffffffffffffffffffffffffffffffffff\n      and\n      0xf3ff6628461a09e7f6325423c56503e440bfc7143ac0004f650f5010c01ff4c8\n        /* \"contracts/hw5.sol\":3287:3294  success */\n      dup5\n        /* \"contracts/hw5.sol\":3287:3314  success && validAccount[to] */\n      dup1\n      iszero\n      tag_59\n      jumpi\n      pop\n        /* \"contracts/hw5.sol\":3298:3310  validAccount */\n      0x02\n        /* \"contracts/hw5.sol\":3298:3314  validAccount[to] */\n      0x00\n        /* \"contracts/hw5.sol\":3311:3313  to */\n      dup10\n        /* \"contracts/hw5.sol\":3298:3314  validAccount[to] */\n      0xffffffffffffffffffffffffffffffffffffffff\n      and\n      0xffffffffffffffffffffffffffffffffffffffff\n      and\n      dup2\n      mstore\n      0x20\n      add\n      swap1\n      dup2\n      mstore\n      0x20\n      add\n      0x00\n      keccak256\n      0x00\n      swap1\n      sload\n      swap1\n      0x0100\n      exp\n      swap1\n      div\n      0xff\n      and\n        /* \"contracts/hw5.sol\":3287:3314  success && validAccount[to] */\n    tag_59:\n        /* \"contracts/hw5.sol\":3237:3325  transferLogs(msg.sender, amount, to,... */\n      mload(0x40)\n      tag_60\n      swap2\n      swap1\n      tag_55\n      jump\t// in\n    tag_60:\n      mload(0x40)\n      dup1\n      swap2\n      sub\n      swap1\n      log4\n        /* \"contracts/hw5.sol\":3341:3348  success */\n      dup1\n        /* \"contracts/hw5.sol\":3336:3373  if (!success) passwordFailedHandler() */\n      tag_61\n      jumpi\n        /* \"contracts/hw5.sol\":3350:3373  passwordFailedHandler() */\n      tag_62\n        /* \"contracts/hw5.sol\":3350:3371  passwordFailedHandler */\n      tag_63\n        /* \"contracts/hw5.sol\":3350:3373  passwordFailedHandler() */\n      jump\t// in\n    tag_62:\n        /* \"contracts/hw5.sol\":3336:3373  if (!success) passwordFailedHandler() */\n    tag_61:\n        /* \"contracts/hw5.sol\":3427:3433  amount */\n      dup3\n        /* \"contracts/hw5.sol\":3388:3396  accounts */\n      0x00\n        /* \"contracts/hw5.sol\":3388:3408  accounts[msg.sender] */\n      0x00\n        /* \"contracts/hw5.sol\":3397:3407  msg.sender */\n      caller\n        /* \"contracts/hw5.sol\":3388:3408  accounts[msg.sender] */\n      0xffffffffffffffffffffffffffffffffffffffff\n      and\n      0xffffffffffffffffffffffffffffffffffffffff\n      and\n      dup2\n      mstore\n      0x20\n      add\n      swap1\n      dup2\n      mstore\n      0x20\n      add\n      0x00\n      keccak256\n        /* \"contracts/hw5.sol\":3388:3424  accounts[msg.sender][hash(password)] */\n      0x00\n        /* \"contracts/hw5.sol\":3409:3423  hash(password) */\n      tag_64\n        /* \"contracts/hw5.sol\":3414:3422  password */\n      dup6\n        /* \"contracts/hw5.sol\":3409:3413  hash */\n      tag_48\n        /* \"contracts/hw5.sol\":3409:3423  hash(password) */\n      jump\t// in\n    tag_64:\n        /* \"contracts/hw5.sol\":3388:3424  accounts[msg.sender][hash(password)] */\n      dup2\n      mstore\n      0x20\n      add\n      swap1\n      dup2\n      mstore\n      0x20\n      add\n      0x00\n      keccak256\n      sload\n        /* \"contracts/hw5.sol\":3388:3433  accounts[msg.sender][hash(password)] < amount */\n      lt\n        /* \"contracts/hw5.sol\":3384:3550  if (accounts[msg.sender][hash(password)] < amount) {... */\n      iszero\n      tag_65\n      jumpi\n        /* \"contracts/hw5.sol\":3487:3489  to */\n      dup4\n        /* \"contracts/hw5.sol\":3454:3497  transferLogs(msg.sender, amount, to, false) */\n      0xffffffffffffffffffffffffffffffffffffffff\n      and\n        /* \"contracts/hw5.sol\":3479:3485  amount */\n      dup4\n        /* \"contracts/hw5.sol\":3467:3477  msg.sender */\n      caller\n        /* \"contracts/hw5.sol\":3454:3497  transferLogs(msg.sender, amount, to, false) */\n      0xffffffffffffffffffffffffffffffffffffffff\n      and\n      0xf3ff6628461a09e7f6325423c56503e440bfc7143ac0004f650f5010c01ff4c8\n        /* \"contracts/hw5.sol\":3491:3496  false */\n      0x00\n        /* \"contracts/hw5.sol\":3454:3497  transferLogs(msg.sender, amount, to, false) */\n      mload(0x40)\n      tag_66\n      swap2\n      swap1\n      tag_55\n      jump\t// in\n    tag_66:\n      mload(0x40)\n      dup1\n      swap2\n      sub\n      swap1\n      log4\n        /* \"contracts/hw5.sol\":3511:3539  revert(\"not enough balance\") */\n      mload(0x40)\n      0x08c379a000000000000000000000000000000000000000000000000000000000\n      dup2\n      mstore\n      0x04\n      add\n      tag_67\n      swap1\n      tag_68\n      jump\t// in\n    tag_67:\n      mload(0x40)\n      dup1\n      swap2\n      sub\n      swap1\n      revert\n        /* \"contracts/hw5.sol\":3384:3550  if (accounts[msg.sender][hash(password)] < amount) {... */\n    tag_65:\n        /* \"contracts/hw5.sol\":3596:3608  validAccount */\n      0x02\n        /* \"contracts/hw5.sol\":3596:3612  validAccount[to] */\n      0x00\n        /* \"contracts/hw5.sol\":3609:3611  to */\n      dup6\n        /* \"contracts/hw5.sol\":3596:3612  validAccount[to] */\n      0xffffffffffffffffffffffffffffffffffffffff\n      and\n      0xffffffffffffffffffffffffffffffffffffffff\n      and\n      dup2\n      mstore\n      0x20\n      add\n      swap1\n      dup2\n      mstore\n      0x20\n      add\n      0x00\n      keccak256\n      0x00\n      swap1\n      sload\n      swap1\n      0x0100\n      exp\n      swap1\n      div\n      0xff\n      and\n        /* \"contracts/hw5.sol\":3591:3677  if (!validAccount[to]) {... */\n      tag_69\n      jumpi\n        /* \"contracts/hw5.sol\":3628:3666  revert(\"`to` address not in the bank\") */\n      mload(0x40)\n      0x08c379a000000000000000000000000000000000000000000000000000000000\n      dup2\n      mstore\n      0x04\n      add\n      tag_70\n      swap1\n      tag_71\n      jump\t// in\n    tag_70:\n      mload(0x40)\n      dup1\n      swap2\n      sub\n      swap1\n      revert\n        /* \"contracts/hw5.sol\":3591:3677  if (!validAccount[to]) {... */\n    tag_69:\n        /* \"contracts/hw5.sol\":3719:3725  amount */\n      dup3\n        /* \"contracts/hw5.sol\":3687:3695  accounts */\n      0x00\n        /* \"contracts/hw5.sol\":3687:3699  accounts[to] */\n      0x00\n        /* \"contracts/hw5.sol\":3696:3698  to */\n      dup7\n        /* \"contracts/hw5.sol\":3687:3699  accounts[to] */\n      0xffffffffffffffffffffffffffffffffffffffff\n      and\n      0xffffffffffffffffffffffffffffffffffffffff\n      and\n      dup2\n      mstore\n      0x20\n      add\n      swap1\n      dup2\n      mstore\n      0x20\n      add\n      0x00\n      keccak256\n        /* \"contracts/hw5.sol\":3687:3715  accounts[to][hash(password)] */\n      0x00\n        /* \"contracts/hw5.sol\":3700:3714  hash(password) */\n      tag_72\n        /* \"contracts/hw5.sol\":3705:3713  password */\n      dup6\n        /* \"contracts/hw5.sol\":3700:3704  hash */\n      tag_48\n        /* \"contracts/hw5.sol\":3700:3714  hash(password) */\n      jump\t// in\n    tag_72:\n        /* \"contracts/hw5.sol\":3687:3715  accounts[to][hash(password)] */\n      dup2\n      mstore\n      0x20\n      add\n      swap1\n      dup2\n      mstore\n      0x20\n      add\n      0x00\n      keccak256\n      0x00\n        /* \"contracts/hw5.sol\":3687:3725  accounts[to][hash(password)] += amount */\n      dup3\n      dup3\n      sload\n      tag_73\n      swap2\n      swap1\n      tag_74\n      jump\t// in\n    tag_73:\n      swap3\n      pop\n      pop\n      dup2\n      swap1\n      sstore\n      pop\n        /* \"contracts/hw5.sol\":3775:3781  amount */\n      dup3\n        /* \"contracts/hw5.sol\":3735:3743  accounts */\n      0x00\n        /* \"contracts/hw5.sol\":3735:3755  accounts[msg.sender] */\n      0x00\n        /* \"contracts/hw5.sol\":3744:3754  msg.sender */\n      caller\n        /* \"contracts/hw5.sol\":3735:3755  accounts[msg.sender] */\n      0xffffffffffffffffffffffffffffffffffffffff\n      and\n      0xffffffffffffffffffffffffffffffffffffffff\n      and\n      dup2\n      mstore\n      0x20\n      add\n      swap1\n      dup2\n      mstore\n      0x20\n      add\n      0x00\n      keccak256\n        /* \"contracts/hw5.sol\":3735:3771  accounts[msg.sender][hash(password)] */\n      0x00\n        /* \"contracts/hw5.sol\":3756:3770  hash(password) */\n      tag_75\n        /* \"contracts/hw5.sol\":3761:3769  password */\n      dup6\n        /* \"contracts/hw5.sol\":3756:3760  hash */\n      tag_48\n        /* \"contracts/hw5.sol\":3756:3770  hash(password) */\n      jump\t// in\n    tag_75:\n        /* \"contracts/hw5.sol\":3735:3771  accounts[msg.sender][hash(password)] */\n      dup2\n      mstore\n      0x20\n      add\n      swap1\n      dup2\n      mstore\n      0x20\n      add\n      0x00\n      keccak256\n      0x00\n        /* \"contracts/hw5.sol\":3735:3781  accounts[msg.sender][hash(password)] -= amount */\n      dup3\n      dup3\n      sload\n      tag_76\n      swap2\n      swap1\n      tag_77\n      jump\t// in\n    tag_76:\n      swap3\n      pop\n      pop\n      dup2\n      swap1\n      sstore\n      pop\n        /* \"contracts/hw5.sol\":3001:3788  {... */\n      pop\n        /* \"contracts/hw5.sol\":2920:3788  function transfer(address to, uint256 amount, uint256 password) public noContract{... */\n      pop\n      pop\n      pop\n      jump\t// out\n        /* \"contracts/hw5.sol\":1898:2329  function getBalance(address addr, uint256 password) public noContract returns (uint256) {... */\n    tag_34:\n        /* \"contracts/hw5.sol\":1977:1984  uint256 */\n      0x00\n        /* \"contracts/hw5.sol\":1094:1095  0 */\n      0x00\n        /* \"contracts/hw5.sol\":1068:1078  msg.sender */\n      caller\n        /* \"contracts/hw5.sol\":1068:1090  msg.sender.code.length */\n      0xffffffffffffffffffffffffffffffffffffffff\n      and\n      extcodesize\n        /* \"contracts/hw5.sol\":1068:1095  msg.sender.code.length != 0 */\n      eq\n        /* \"contracts/hw5.sol\":1064:1193  if (msg.sender.code.length != 0) {... */\n      tag_79\n      jumpi\n        /* \"contracts/hw5.sol\":1129:1139  msg.sender */\n      caller\n        /* \"contracts/hw5.sol\":1116:1140  addBlackList(msg.sender) */\n      0xffffffffffffffffffffffffffffffffffffffff\n      and\n      0x0ecb93c06e2466c523c3ed0f181f11e5cc9ded3e0b654bc0b9f8a2ed1269facf\n      mload(0x40)\n      mload(0x40)\n      dup1\n      swap2\n      sub\n      swap1\n      log2\n        /* \"contracts/hw5.sol\":1178:1182  true */\n      0x01\n        /* \"contracts/hw5.sol\":1154:1163  blackList */\n      0x04\n        /* \"contracts/hw5.sol\":1154:1175  blackList[msg.sender] */\n      0x00\n        /* \"contracts/hw5.sol\":1164:1174  msg.sender */\n      caller\n        /* \"contracts/hw5.sol\":1154:1175  blackList[msg.sender] */\n      0xffffffffffffffffffffffffffffffffffffffff\n      and\n      0xffffffffffffffffffffffffffffffffffffffff\n      and\n      dup2\n      mstore\n      0x20\n      add\n      swap1\n      dup2\n      mstore\n      0x20\n      add\n      0x00\n      keccak256\n      0x00\n        /* \"contracts/hw5.sol\":1154:1182  blackList[msg.sender] = true */\n      0x0100\n      exp\n      dup2\n      sload\n      dup2\n      0xff\n      mul\n      not\n      and\n      swap1\n      dup4\n      iszero\n      iszero\n      mul\n      or\n      swap1\n      sstore\n      pop\n        /* \"contracts/hw5.sol\":1064:1193  if (msg.sender.code.length != 0) {... */\n    tag_79:\n        /* \"contracts/hw5.sol\":2005:2017  bool success */\n      0x00\n        /* \"contracts/hw5.sol\":2020:2051  isPasswordValid(addr, password) */\n      tag_81\n        /* \"contracts/hw5.sol\":2036:2040  addr */\n      dup5\n        /* \"contracts/hw5.sol\":2042:2050  password */\n      dup5\n        /* \"contracts/hw5.sol\":2020:2035  isPasswordValid */\n      tag_58\n        /* \"contracts/hw5.sol\":2020:2051  isPasswordValid(addr, password) */\n      jump\t// in\n    tag_81:\n        /* \"contracts/hw5.sol\":2005:2051  bool success = isPasswordValid(addr, password) */\n      swap1\n      pop\n        /* \"contracts/hw5.sol\":2094:2098  addr */\n      dup4\n        /* \"contracts/hw5.sol\":2066:2134  lookBalanceLogs(msg.sender, addr, success && !blackList[msg.sender]) */\n      0xffffffffffffffffffffffffffffffffffffffff\n      and\n        /* \"contracts/hw5.sol\":2082:2092  msg.sender */\n      caller\n        /* \"contracts/hw5.sol\":2066:2134  lookBalanceLogs(msg.sender, addr, success && !blackList[msg.sender]) */\n      0xffffffffffffffffffffffffffffffffffffffff\n      and\n      0xd2ea60a2186848e007b6baa64ff0b47f8726c5bf53f0cb37162150dff5d46c7f\n        /* \"contracts/hw5.sol\":2100:2107  success */\n      dup4\n        /* \"contracts/hw5.sol\":2100:2133  success && !blackList[msg.sender] */\n      dup1\n      iszero\n      tag_82\n      jumpi\n      pop\n        /* \"contracts/hw5.sol\":2112:2121  blackList */\n      0x04\n        /* \"contracts/hw5.sol\":2112:2133  blackList[msg.sender] */\n      0x00\n        /* \"contracts/hw5.sol\":2122:2132  msg.sender */\n      caller\n        /* \"contracts/hw5.sol\":2112:2133  blackList[msg.sender] */\n      0xffffffffffffffffffffffffffffffffffffffff\n      and\n      0xffffffffffffffffffffffffffffffffffffffff\n      and\n      dup2\n      mstore\n      0x20\n      add\n      swap1\n      dup2\n      mstore\n      0x20\n      add\n      0x00\n      keccak256\n      0x00\n      swap1\n      sload\n      swap1\n      0x0100\n      exp\n      swap1\n      div\n      0xff\n      and\n        /* \"contracts/hw5.sol\":2111:2133  !blackList[msg.sender] */\n      iszero\n        /* \"contracts/hw5.sol\":2100:2133  success && !blackList[msg.sender] */\n    tag_82:\n        /* \"contracts/hw5.sol\":2066:2134  lookBalanceLogs(msg.sender, addr, success && !blackList[msg.sender]) */\n      mload(0x40)\n      tag_83\n      swap2\n      swap1\n      tag_55\n      jump\t// in\n    tag_83:\n      mload(0x40)\n      dup1\n      swap2\n      sub\n      swap1\n      log3\n        /* \"contracts/hw5.sol\":2153:2162  blackList */\n      0x04\n        /* \"contracts/hw5.sol\":2153:2174  blackList[msg.sender] */\n      0x00\n        /* \"contracts/hw5.sol\":2163:2173  msg.sender */\n      caller\n        /* \"contracts/hw5.sol\":2153:2174  blackList[msg.sender] */\n      0xffffffffffffffffffffffffffffffffffffffff\n      and\n      0xffffffffffffffffffffffffffffffffffffffff\n      and\n      dup2\n      mstore\n      0x20\n      add\n      swap1\n      dup2\n      mstore\n      0x20\n      add\n      0x00\n      keccak256\n      0x00\n      swap1\n      sload\n      swap1\n      0x0100\n      exp\n      swap1\n      div\n      0xff\n      and\n        /* \"contracts/hw5.sol\":2152:2174  !blackList[msg.sender] */\n      iszero\n        /* \"contracts/hw5.sol\":2144:2204  require(!blackList[msg.sender], \"you are in the black list\") */\n      tag_84\n      jumpi\n      mload(0x40)\n      0x08c379a000000000000000000000000000000000000000000000000000000000\n      dup2\n      mstore\n      0x04\n      add\n      tag_85\n      swap1\n      tag_16\n      jump\t// in\n    tag_85:\n      mload(0x40)\n      dup1\n      swap2\n      sub\n      swap1\n      revert\n    tag_84:\n        /* \"contracts/hw5.sol\":2219:2226  success */\n      dup1\n        /* \"contracts/hw5.sol\":2215:2303  if (success) return accounts[addr][hash(password)];... */\n      iszero\n      tag_86\n      jumpi\n        /* \"contracts/hw5.sol\":2235:2243  accounts */\n      0x00\n        /* \"contracts/hw5.sol\":2235:2249  accounts[addr] */\n      0x00\n        /* \"contracts/hw5.sol\":2244:2248  addr */\n      dup6\n        /* \"contracts/hw5.sol\":2235:2249  accounts[addr] */\n      0xffffffffffffffffffffffffffffffffffffffff\n      and\n      0xffffffffffffffffffffffffffffffffffffffff\n      and\n      dup2\n      mstore\n      0x20\n      add\n      swap1\n      dup2\n      mstore\n      0x20\n      add\n      0x00\n      keccak256\n        /* \"contracts/hw5.sol\":2235:2265  accounts[addr][hash(password)] */\n      0x00\n        /* \"contracts/hw5.sol\":2250:2264  hash(password) */\n      tag_87\n        /* \"contracts/hw5.sol\":2255:2263  password */\n      dup6\n        /* \"contracts/hw5.sol\":2250:2254  hash */\n      tag_48\n        /* \"contracts/hw5.sol\":2250:2264  hash(password) */\n      jump\t// in\n    tag_87:\n        /* \"contracts/hw5.sol\":2235:2265  accounts[addr][hash(password)] */\n      dup2\n      mstore\n      0x20\n      add\n      swap1\n      dup2\n      mstore\n      0x20\n      add\n      0x00\n      keccak256\n      sload\n        /* \"contracts/hw5.sol\":2228:2265  return accounts[addr][hash(password)] */\n      swap2\n      pop\n      pop\n      jump(tag_80)\n        /* \"contracts/hw5.sol\":2215:2303  if (success) return accounts[addr][hash(password)];... */\n    tag_86:\n        /* \"contracts/hw5.sol\":2280:2303  passwordFailedHandler() */\n      tag_89\n        /* \"contracts/hw5.sol\":2280:2301  passwordFailedHandler */\n      tag_63\n        /* \"contracts/hw5.sol\":2280:2303  passwordFailedHandler() */\n      jump\t// in\n    tag_89:\n        /* \"contracts/hw5.sol\":2321:2322  0 */\n      0x00\n        /* \"contracts/hw5.sol\":2314:2322  return 0 */\n      swap2\n      pop\n      pop\n        /* \"contracts/hw5.sol\":1202:1203  _ */\n    tag_80:\n        /* \"contracts/hw5.sol\":1898:2329  function getBalance(address addr, uint256 password) public noContract returns (uint256) {... */\n      swap3\n      swap2\n      pop\n      pop\n      jump\t// out\n        /* \"contracts/hw5.sol\":2335:2914  function withdraw(uint password) public noContract{... */\n    tag_41:\n        /* \"contracts/hw5.sol\":1094:1095  0 */\n      0x00\n        /* \"contracts/hw5.sol\":1068:1078  msg.sender */\n      caller\n        /* \"contracts/hw5.sol\":1068:1090  msg.sender.code.length */\n      0xffffffffffffffffffffffffffffffffffffffff\n      and\n      extcodesize\n        /* \"contracts/hw5.sol\":1068:1095  msg.sender.code.length != 0 */\n      eq\n        /* \"contracts/hw5.sol\":1064:1193  if (msg.sender.code.length != 0) {... */\n      tag_91\n      jumpi\n        /* \"contracts/hw5.sol\":1129:1139  msg.sender */\n      caller\n        /* \"contracts/hw5.sol\":1116:1140  addBlackList(msg.sender) */\n      0xffffffffffffffffffffffffffffffffffffffff\n      and\n      0x0ecb93c06e2466c523c3ed0f181f11e5cc9ded3e0b654bc0b9f8a2ed1269facf\n      mload(0x40)\n      mload(0x40)\n      dup1\n      swap2\n      sub\n      swap1\n      log2\n        /* \"contracts/hw5.sol\":1178:1182  true */\n      0x01\n        /* \"contracts/hw5.sol\":1154:1163  blackList */\n      0x04\n        /* \"contracts/hw5.sol\":1154:1175  blackList[msg.sender] */\n      0x00\n        /* \"contracts/hw5.sol\":1164:1174  msg.sender */\n      caller\n        /* \"contracts/hw5.sol\":1154:1175  blackList[msg.sender] */\n      0xffffffffffffffffffffffffffffffffffffffff\n      and\n      0xffffffffffffffffffffffffffffffffffffffff\n      and\n      dup2\n      mstore\n      0x20\n      add\n      swap1\n      dup2\n      mstore\n      0x20\n      add\n      0x00\n      keccak256\n      0x00\n        /* \"contracts/hw5.sol\":1154:1182  blackList[msg.sender] = true */\n      0x0100\n      exp\n      dup2\n      sload\n      dup2\n      0xff\n      mul\n      not\n      and\n      swap1\n      dup4\n      iszero\n      iszero\n      mul\n      or\n      swap1\n      sstore\n      pop\n        /* \"contracts/hw5.sol\":1064:1193  if (msg.sender.code.length != 0) {... */\n    tag_91:\n        /* \"contracts/hw5.sol\":2408:2417  blackList */\n      0x04\n        /* \"contracts/hw5.sol\":2408:2429  blackList[msg.sender] */\n      0x00\n        /* \"contracts/hw5.sol\":2418:2428  msg.sender */\n      caller\n        /* \"contracts/hw5.sol\":2408:2429  blackList[msg.sender] */\n      0xffffffffffffffffffffffffffffffffffffffff\n      and\n      0xffffffffffffffffffffffffffffffffffffffff\n      and\n      dup2\n      mstore\n      0x20\n      add\n      swap1\n      dup2\n      mstore\n      0x20\n      add\n      0x00\n      keccak256\n      0x00\n      swap1\n      sload\n      swap1\n      0x0100\n      exp\n      swap1\n      div\n      0xff\n      and\n        /* \"contracts/hw5.sol\":2404:2544  if (blackList[msg.sender]) {... */\n      iszero\n      tag_93\n      jumpi\n        /* \"contracts/hw5.sol\":2475:2476  0 */\n      0x00\n        /* \"contracts/hw5.sol\":2463:2473  msg.sender */\n      caller\n        /* \"contracts/hw5.sol\":2450:2484  withdrawLogs(msg.sender, 0, false) */\n      0xffffffffffffffffffffffffffffffffffffffff\n      and\n      0x1ace93d63abb1030c7fa4ce5af1271c17a388b5aca35a4f21e5e69c7fa95a3ee\n        /* \"contracts/hw5.sol\":2478:2483  false */\n      0x00\n        /* \"contracts/hw5.sol\":2450:2484  withdrawLogs(msg.sender, 0, false) */\n      mload(0x40)\n      tag_94\n      swap2\n      swap1\n      tag_55\n      jump\t// in\n    tag_94:\n      mload(0x40)\n      dup1\n      swap2\n      sub\n      swap1\n      log3\n        /* \"contracts/hw5.sol\":2498:2533  revert(\"you are in the black list\") */\n      mload(0x40)\n      0x08c379a000000000000000000000000000000000000000000000000000000000\n      dup2\n      mstore\n      0x04\n      add\n      tag_95\n      swap1\n      tag_16\n      jump\t// in\n    tag_95:\n      mload(0x40)\n      dup1\n      swap2\n      sub\n      swap1\n      revert\n        /* \"contracts/hw5.sol\":2404:2544  if (blackList[msg.sender]) {... */\n    tag_93:\n        /* \"contracts/hw5.sol\":2554:2566  bool success */\n      0x00\n        /* \"contracts/hw5.sol\":2569:2606  isPasswordValid(msg.sender, password) */\n      tag_96\n        /* \"contracts/hw5.sol\":2585:2595  msg.sender */\n      caller\n        /* \"contracts/hw5.sol\":2597:2605  password */\n      dup4\n        /* \"contracts/hw5.sol\":2569:2584  isPasswordValid */\n      tag_58\n        /* \"contracts/hw5.sol\":2569:2606  isPasswordValid(msg.sender, password) */\n      jump\t// in\n    tag_96:\n        /* \"contracts/hw5.sol\":2554:2606  bool success = isPasswordValid(msg.sender, password) */\n      swap1\n      pop\n        /* \"contracts/hw5.sol\":2646:2654  accounts */\n      0x00\n        /* \"contracts/hw5.sol\":2646:2666  accounts[msg.sender] */\n      0x00\n        /* \"contracts/hw5.sol\":2655:2665  msg.sender */\n      caller\n        /* \"contracts/hw5.sol\":2646:2666  accounts[msg.sender] */\n      0xffffffffffffffffffffffffffffffffffffffff\n      and\n      0xffffffffffffffffffffffffffffffffffffffff\n      and\n      dup2\n      mstore\n      0x20\n      add\n      swap1\n      dup2\n      mstore\n      0x20\n      add\n      0x00\n      keccak256\n        /* \"contracts/hw5.sol\":2646:2682  accounts[msg.sender][hash(password)] */\n      0x00\n        /* \"contracts/hw5.sol\":2667:2681  hash(password) */\n      tag_97\n        /* \"contracts/hw5.sol\":2672:2680  password */\n      dup5\n        /* \"contracts/hw5.sol\":2667:2671  hash */\n      tag_48\n        /* \"contracts/hw5.sol\":2667:2681  hash(password) */\n      jump\t// in\n    tag_97:\n        /* \"contracts/hw5.sol\":2646:2682  accounts[msg.sender][hash(password)] */\n      dup2\n      mstore\n      0x20\n      add\n      swap1\n      dup2\n      mstore\n      0x20\n      add\n      0x00\n      keccak256\n      sload\n        /* \"contracts/hw5.sol\":2634:2644  msg.sender */\n      caller\n        /* \"contracts/hw5.sol\":2621:2692  withdrawLogs(msg.sender, accounts[msg.sender][hash(password)], success) */\n      0xffffffffffffffffffffffffffffffffffffffff\n      and\n      0x1ace93d63abb1030c7fa4ce5af1271c17a388b5aca35a4f21e5e69c7fa95a3ee\n        /* \"contracts/hw5.sol\":2684:2691  success */\n      dup4\n        /* \"contracts/hw5.sol\":2621:2692  withdrawLogs(msg.sender, accounts[msg.sender][hash(password)], success) */\n      mload(0x40)\n      tag_98\n      swap2\n      swap1\n      tag_55\n      jump\t// in\n    tag_98:\n      mload(0x40)\n      dup1\n      swap2\n      sub\n      swap1\n      log3\n        /* \"contracts/hw5.sol\":2707:2714  success */\n      dup1\n        /* \"contracts/hw5.sol\":2703:2898  if (success) {... */\n      iszero\n      tag_99\n      jumpi\n        /* \"contracts/hw5.sol\":2738:2748  msg.sender */\n      caller\n        /* \"contracts/hw5.sol\":2730:2758  payable(msg.sender).transfer */\n      0xffffffffffffffffffffffffffffffffffffffff\n      and\n        /* \"contracts/hw5.sol\":2730:2796  payable(msg.sender).transfer(accounts[msg.sender][hash(password)]) */\n      0x08fc\n        /* \"contracts/hw5.sol\":2759:2767  accounts */\n      0x00\n        /* \"contracts/hw5.sol\":2759:2779  accounts[msg.sender] */\n      0x00\n        /* \"contracts/hw5.sol\":2768:2778  msg.sender */\n      caller\n        /* \"contracts/hw5.sol\":2759:2779  accounts[msg.sender] */\n      0xffffffffffffffffffffffffffffffffffffffff\n      and\n      0xffffffffffffffffffffffffffffffffffffffff\n      and\n      dup2\n      mstore\n      0x20\n      add\n      swap1\n      dup2\n      mstore\n      0x20\n      add\n      0x00\n      keccak256\n        /* \"contracts/hw5.sol\":2759:2795  accounts[msg.sender][hash(password)] */\n      0x00\n        /* \"contracts/hw5.sol\":2780:2794  hash(password) */\n      tag_100\n        /* \"contracts/hw5.sol\":2785:2793  password */\n      dup7\n        /* \"contracts/hw5.sol\":2780:2784  hash */\n      tag_48\n        /* \"contracts/hw5.sol\":2780:2794  hash(password) */\n      jump\t// in\n    tag_100:\n        /* \"contracts/hw5.sol\":2759:2795  accounts[msg.sender][hash(password)] */\n      dup2\n      mstore\n      0x20\n      add\n      swap1\n      dup2\n      mstore\n      0x20\n      add\n      0x00\n      keccak256\n      sload\n        /* \"contracts/hw5.sol\":2730:2796  payable(msg.sender).transfer(accounts[msg.sender][hash(password)]) */\n      swap1\n      dup2\n      iszero\n      mul\n      swap1\n      mload(0x40)\n      0x00\n      mload(0x40)\n      dup1\n      dup4\n      sub\n      dup2\n      dup6\n      dup9\n      dup9\n      call\n      swap4\n      pop\n      pop\n      pop\n      pop\n      iszero\n      dup1\n      iszero\n      tag_102\n      jumpi\n      returndatacopy(0x00, 0x00, returndatasize)\n      revert(0x00, returndatasize)\n    tag_102:\n      pop\n        /* \"contracts/hw5.sol\":2849:2850  0 */\n      0x00\n        /* \"contracts/hw5.sol\":2810:2818  accounts */\n      0x00\n        /* \"contracts/hw5.sol\":2810:2830  accounts[msg.sender] */\n      0x00\n        /* \"contracts/hw5.sol\":2819:2829  msg.sender */\n      caller\n        /* \"contracts/hw5.sol\":2810:2830  accounts[msg.sender] */\n      0xffffffffffffffffffffffffffffffffffffffff\n      and\n      0xffffffffffffffffffffffffffffffffffffffff\n      and\n      dup2\n      mstore\n      0x20\n      add\n      swap1\n      dup2\n      mstore\n      0x20\n      add\n      0x00\n      keccak256\n        /* \"contracts/hw5.sol\":2810:2846  accounts[msg.sender][hash(password)] */\n      0x00\n        /* \"contracts/hw5.sol\":2831:2845  hash(password) */\n      tag_103\n        /* \"contracts/hw5.sol\":2836:2844  password */\n      dup6\n        /* \"contracts/hw5.sol\":2831:2835  hash */\n      tag_48\n        /* \"contracts/hw5.sol\":2831:2845  hash(password) */\n      jump\t// in\n    tag_103:\n        /* \"contracts/hw5.sol\":2810:2846  accounts[msg.sender][hash(password)] */\n      dup2\n      mstore\n      0x20\n      add\n      swap1\n      dup2\n      mstore\n      0x20\n      add\n      0x00\n      keccak256\n        /* \"contracts/hw5.sol\":2810:2850  accounts[msg.sender][hash(password)] = 0 */\n      dup2\n      swap1\n      sstore\n      pop\n        /* \"contracts/hw5.sol\":2703:2898  if (success) {... */\n      jump(tag_104)\n    tag_99:\n        /* \"contracts/hw5.sol\":2875:2898  passwordFailedHandler() */\n      tag_105\n        /* \"contracts/hw5.sol\":2875:2896  passwordFailedHandler */\n      tag_63\n        /* \"contracts/hw5.sol\":2875:2898  passwordFailedHandler() */\n      jump\t// in\n    tag_105:\n        /* \"contracts/hw5.sol\":2703:2898  if (success) {... */\n    tag_104:\n        /* \"contracts/hw5.sol\":2385:2914  {... */\n      pop\n        /* \"contracts/hw5.sol\":2335:2914  function withdraw(uint password) public noContract{... */\n      pop\n      jump\t// out\n        /* \"contracts/hw5.sol\":1314:1892  function deposit(address to, uint256 password) public payable noContract{... */\n    tag_44:\n        /* \"contracts/hw5.sol\":1094:1095  0 */\n      0x00\n        /* \"contracts/hw5.sol\":1068:1078  msg.sender */\n      caller\n        /* \"contracts/hw5.sol\":1068:1090  msg.sender.code.length */\n      0xffffffffffffffffffffffffffffffffffffffff\n      and\n      extcodesize\n        /* \"contracts/hw5.sol\":1068:1095  msg.sender.code.length != 0 */\n      eq\n        /* \"contracts/hw5.sol\":1064:1193  if (msg.sender.code.length != 0) {... */\n      tag_107\n      jumpi\n        /* \"contracts/hw5.sol\":1129:1139  msg.sender */\n      caller\n        /* \"contracts/hw5.sol\":1116:1140  addBlackList(msg.sender) */\n      0xffffffffffffffffffffffffffffffffffffffff\n      and\n      0x0ecb93c06e2466c523c3ed0f181f11e5cc9ded3e0b654bc0b9f8a2ed1269facf\n      mload(0x40)\n      mload(0x40)\n      dup1\n      swap2\n      sub\n      swap1\n      log2\n        /* \"contracts/hw5.sol\":1178:1182  true */\n      0x01\n        /* \"contracts/hw5.sol\":1154:1163  blackList */\n      0x04\n        /* \"contracts/hw5.sol\":1154:1175  blackList[msg.sender] */\n      0x00\n        /* \"contracts/hw5.sol\":1164:1174  msg.sender */\n      caller\n        /* \"contracts/hw5.sol\":1154:1175  blackList[msg.sender] */\n      0xffffffffffffffffffffffffffffffffffffffff\n      and\n      0xffffffffffffffffffffffffffffffffffffffff\n      and\n      dup2\n      mstore\n      0x20\n      add\n      swap1\n      dup2\n      mstore\n      0x20\n      add\n      0x00\n      keccak256\n      0x00\n        /* \"contracts/hw5.sol\":1154:1182  blackList[msg.sender] = true */\n      0x0100\n      exp\n      dup2\n      sload\n      dup2\n      0xff\n      mul\n      not\n      and\n      swap1\n      dup4\n      iszero\n      iszero\n      mul\n      or\n      swap1\n      sstore\n      pop\n        /* \"contracts/hw5.sol\":1064:1193  if (msg.sender.code.length != 0) {... */\n    tag_107:\n        /* \"contracts/hw5.sol\":1400:1409  blackList */\n      0x04\n        /* \"contracts/hw5.sol\":1400:1421  blackList[msg.sender] */\n      0x00\n        /* \"contracts/hw5.sol\":1410:1420  msg.sender */\n      caller\n        /* \"contracts/hw5.sol\":1400:1421  blackList[msg.sender] */\n      0xffffffffffffffffffffffffffffffffffffffff\n      and\n      0xffffffffffffffffffffffffffffffffffffffff\n      and\n      dup2\n      mstore\n      0x20\n      add\n      swap1\n      dup2\n      mstore\n      0x20\n      add\n      0x00\n      keccak256\n      0x00\n      swap1\n      sload\n      swap1\n      0x0100\n      exp\n      swap1\n      div\n      0xff\n      and\n        /* \"contracts/hw5.sol\":1396:1559  if (blackList[msg.sender]) {... */\n      iszero\n      tag_109\n      jumpi\n        /* \"contracts/hw5.sol\":1469:1477  accounts */\n      0x00\n        /* \"contracts/hw5.sol\":1469:1481  accounts[to] */\n      0x00\n        /* \"contracts/hw5.sol\":1478:1480  to */\n      dup4\n        /* \"contracts/hw5.sol\":1469:1481  accounts[to] */\n      0xffffffffffffffffffffffffffffffffffffffff\n      and\n      0xffffffffffffffffffffffffffffffffffffffff\n      and\n      dup2\n      mstore\n      0x20\n      add\n      swap1\n      dup2\n      mstore\n      0x20\n      add\n      0x00\n      keccak256\n        /* \"contracts/hw5.sol\":1469:1491  accounts[to][password] */\n      0x00\n        /* \"contracts/hw5.sol\":1482:1490  password */\n      dup3\n        /* \"contracts/hw5.sol\":1469:1491  accounts[to][password] */\n      dup2\n      mstore\n      0x20\n      add\n      swap1\n      dup2\n      mstore\n      0x20\n      add\n      0x00\n      keccak256\n      sload\n        /* \"contracts/hw5.sol\":1465:1467  to */\n      dup3\n        /* \"contracts/hw5.sol\":1442:1499  depositLogs(msg.value, to, accounts[to][password], false) */\n      0xffffffffffffffffffffffffffffffffffffffff\n      and\n        /* \"contracts/hw5.sol\":1454:1463  msg.value */\n      callvalue\n        /* \"contracts/hw5.sol\":1442:1499  depositLogs(msg.value, to, accounts[to][password], false) */\n      0x8bcd11857e6a3be2869200dad8a50365a705c0d72f71b2e96f28837226cd3f7f\n        /* \"contracts/hw5.sol\":1493:1498  false */\n      0x00\n        /* \"contracts/hw5.sol\":1442:1499  depositLogs(msg.value, to, accounts[to][password], false) */\n      mload(0x40)\n      tag_110\n      swap2\n      swap1\n      tag_55\n      jump\t// in\n    tag_110:\n      mload(0x40)\n      dup1\n      swap2\n      sub\n      swap1\n      log4\n        /* \"contracts/hw5.sol\":1513:1548  revert(\"you are in the black list\") */\n      mload(0x40)\n      0x08c379a000000000000000000000000000000000000000000000000000000000\n      dup2\n      mstore\n      0x04\n      add\n      tag_111\n      swap1\n      tag_16\n      jump\t// in\n    tag_111:\n      mload(0x40)\n      dup1\n      swap2\n      sub\n      swap1\n      revert\n        /* \"contracts/hw5.sol\":1396:1559  if (blackList[msg.sender]) {... */\n    tag_109:\n        /* \"contracts/hw5.sol\":1568:1580  bool success */\n      0x00\n        /* \"contracts/hw5.sol\":1596:1597  0 */\n      0x00\n        /* \"contracts/hw5.sol\":1584:1593  msg.value */\n      callvalue\n        /* \"contracts/hw5.sol\":1584:1597  msg.value > 0 */\n      gt\n        /* \"contracts/hw5.sol\":1568:1598  bool success = (msg.value > 0) */\n      swap1\n      pop\n        /* \"contracts/hw5.sol\":1636:1645  msg.value */\n      callvalue\n        /* \"contracts/hw5.sol\":1610:1618  accounts */\n      0x00\n        /* \"contracts/hw5.sol\":1610:1622  accounts[to] */\n      0x00\n        /* \"contracts/hw5.sol\":1619:1621  to */\n      dup6\n        /* \"contracts/hw5.sol\":1610:1622  accounts[to] */\n      0xffffffffffffffffffffffffffffffffffffffff\n      and\n      0xffffffffffffffffffffffffffffffffffffffff\n      and\n      dup2\n      mstore\n      0x20\n      add\n      swap1\n      dup2\n      mstore\n      0x20\n      add\n      0x00\n      keccak256\n        /* \"contracts/hw5.sol\":1610:1632  accounts[to][password] */\n      0x00\n        /* \"contracts/hw5.sol\":1623:1631  password */\n      dup5\n        /* \"contracts/hw5.sol\":1610:1632  accounts[to][password] */\n      dup2\n      mstore\n      0x20\n      add\n      swap1\n      dup2\n      mstore\n      0x20\n      add\n      0x00\n      keccak256\n      0x00\n        /* \"contracts/hw5.sol\":1610:1645  accounts[to][password] += msg.value */\n      dup3\n      dup3\n      sload\n      tag_112\n      swap2\n      swap1\n      tag_74\n      jump\t// in\n    tag_112:\n      swap3\n      pop\n      pop\n      dup2\n      swap1\n      sstore\n      pop\n        /* \"contracts/hw5.sol\":1687:1695  accounts */\n      0x00\n        /* \"contracts/hw5.sol\":1687:1699  accounts[to] */\n      0x00\n        /* \"contracts/hw5.sol\":1696:1698  to */\n      dup5\n        /* \"contracts/hw5.sol\":1687:1699  accounts[to] */\n      0xffffffffffffffffffffffffffffffffffffffff\n      and\n      0xffffffffffffffffffffffffffffffffffffffff\n      and\n      dup2\n      mstore\n      0x20\n      add\n      swap1\n      dup2\n      mstore\n      0x20\n      add\n      0x00\n      keccak256\n        /* \"contracts/hw5.sol\":1687:1709  accounts[to][password] */\n      0x00\n        /* \"contracts/hw5.sol\":1700:1708  password */\n      dup4\n        /* \"contracts/hw5.sol\":1687:1709  accounts[to][password] */\n      dup2\n      mstore\n      0x20\n      add\n      swap1\n      dup2\n      mstore\n      0x20\n      add\n      0x00\n      keccak256\n      sload\n        /* \"contracts/hw5.sol\":1683:1685  to */\n      dup4\n        /* \"contracts/hw5.sol\":1660:1719  depositLogs(msg.value, to, accounts[to][password], success) */\n      0xffffffffffffffffffffffffffffffffffffffff\n      and\n        /* \"contracts/hw5.sol\":1672:1681  msg.value */\n      callvalue\n        /* \"contracts/hw5.sol\":1660:1719  depositLogs(msg.value, to, accounts[to][password], success) */\n      0x8bcd11857e6a3be2869200dad8a50365a705c0d72f71b2e96f28837226cd3f7f\n        /* \"contracts/hw5.sol\":1711:1718  success */\n      dup5\n        /* \"contracts/hw5.sol\":1660:1719  depositLogs(msg.value, to, accounts[to][password], success) */\n      mload(0x40)\n      tag_113\n      swap2\n      swap1\n      tag_55\n      jump\t// in\n    tag_113:\n      mload(0x40)\n      dup1\n      swap2\n      sub\n      swap1\n      log4\n        /* \"contracts/hw5.sol\":1734:1741  success */\n      dup1\n        /* \"contracts/hw5.sol\":1730:1885  if (success) {... */\n      iszero\n      tag_114\n      jumpi\n        /* \"contracts/hw5.sol\":1776:1780  true */\n      0x01\n        /* \"contracts/hw5.sol\":1757:1769  validAccount */\n      0x02\n        /* \"contracts/hw5.sol\":1757:1773  validAccount[to] */\n      0x00\n        /* \"contracts/hw5.sol\":1770:1772  to */\n      dup6\n        /* \"contracts/hw5.sol\":1757:1773  validAccount[to] */\n      0xffffffffffffffffffffffffffffffffffffffff\n      and\n      0xffffffffffffffffffffffffffffffffffffffff\n      and\n      dup2\n      mstore\n      0x20\n      add\n      swap1\n      dup2\n      mstore\n      0x20\n      add\n      0x00\n      keccak256\n      0x00\n        /* \"contracts/hw5.sol\":1757:1780  validAccount[to] = true */\n      0x0100\n      exp\n      dup2\n      sload\n      dup2\n      0xff\n      mul\n      not\n      and\n      swap1\n      dup4\n      iszero\n      iszero\n      mul\n      or\n      swap1\n      sstore\n      pop\n        /* \"contracts/hw5.sol\":1820:1824  true */\n      0x01\n        /* \"contracts/hw5.sol\":1794:1803  passwords */\n      dup1\n        /* \"contracts/hw5.sol\":1794:1807  passwords[to] */\n      0x00\n        /* \"contracts/hw5.sol\":1804:1806  to */\n      dup6\n        /* \"contracts/hw5.sol\":1794:1807  passwords[to] */\n      0xffffffffffffffffffffffffffffffffffffffff\n      and\n      0xffffffffffffffffffffffffffffffffffffffff\n      and\n      dup2\n      mstore\n      0x20\n      add\n      swap1\n      dup2\n      mstore\n      0x20\n      add\n      0x00\n      keccak256\n        /* \"contracts/hw5.sol\":1794:1817  passwords[to][password] */\n      0x00\n        /* \"contracts/hw5.sol\":1808:1816  password */\n      dup5\n        /* \"contracts/hw5.sol\":1794:1817  passwords[to][password] */\n      dup2\n      mstore\n      0x20\n      add\n      swap1\n      dup2\n      mstore\n      0x20\n      add\n      0x00\n      keccak256\n      0x00\n        /* \"contracts/hw5.sol\":1794:1824  passwords[to][password] = true */\n      0x0100\n      exp\n      dup2\n      sload\n      dup2\n      0xff\n      mul\n      not\n      and\n      swap1\n      dup4\n      iszero\n      iszero\n      mul\n      or\n      swap1\n      sstore\n      pop\n        /* \"contracts/hw5.sol\":1730:1885  if (success) {... */\n      jump(tag_115)\n    tag_114:\n        /* \"contracts/hw5.sol\":1849:1885  revert(\"not allow 0 amount deposit\") */\n      mload(0x40)\n      0x08c379a000000000000000000000000000000000000000000000000000000000\n      dup2\n      mstore\n      0x04\n      add\n      tag_116\n      swap1\n      tag_117\n      jump\t// in\n    tag_116:\n      mload(0x40)\n      dup1\n      swap2\n      sub\n      swap1\n      revert\n        /* \"contracts/hw5.sol\":1730:1885  if (success) {... */\n    tag_115:\n        /* \"contracts/hw5.sol\":1386:1892  {... */\n      pop\n        /* \"contracts/hw5.sol\":1314:1892  function deposit(address to, uint256 password) public payable noContract{... */\n      pop\n      pop\n      jump\t// out\n        /* \"contracts/hw5.sol\":4222:4339  function hash(uint256 input) public pure returns (uint256) {... */\n    tag_48:\n        /* \"contracts/hw5.sol\":4272:4279  uint256 */\n      0x00\n        /* \"contracts/hw5.sol\":4306:4331  sha256(abi.encode(input)) */\n      0x02\n        /* \"contracts/hw5.sol\":4324:4329  input */\n      dup3\n        /* \"contracts/hw5.sol\":4313:4330  abi.encode(input) */\n      add(0x20, mload(0x40))\n      tag_119\n      swap2\n      swap1\n      tag_36\n      jump\t// in\n    tag_119:\n      mload(0x40)\n      0x20\n      dup2\n      dup4\n      sub\n      sub\n      dup2\n      mstore\n      swap1\n      0x40\n      mstore\n        /* \"contracts/hw5.sol\":4306:4331  sha256(abi.encode(input)) */\n      mload(0x40)\n      tag_120\n      swap2\n      swap1\n      tag_121\n      jump\t// in\n    tag_120:\n      0x20\n      mload(0x40)\n      dup1\n      dup4\n      sub\n      dup2\n      dup6\n      gas\n      staticcall\n      iszero\n      dup1\n      iszero\n      tag_123\n      jumpi\n      returndatacopy(0x00, 0x00, returndatasize)\n      revert(0x00, returndatasize)\n    tag_123:\n      pop\n      pop\n      pop\n      mload(0x40)\n      returndatasize\n      not(0x1f)\n      0x1f\n      dup3\n      add\n      and\n      dup3\n      add\n      dup1\n      0x40\n      mstore\n      pop\n      dup2\n      add\n      swap1\n      tag_124\n      swap2\n      swap1\n      tag_125\n      jump\t// in\n    tag_124:\n        /* \"contracts/hw5.sol\":4298:4332  uint256(sha256(abi.encode(input))) */\n      0x00\n      shr\n        /* \"contracts/hw5.sol\":4291:4332  return uint256(sha256(abi.encode(input))) */\n      swap1\n      pop\n        /* \"contracts/hw5.sol\":4222:4339  function hash(uint256 input) public pure returns (uint256) {... */\n      swap2\n      swap1\n      pop\n      jump\t// out\n        /* \"contracts/hw5.sol\":4345:4485  function isPasswordValid(address addr, uint256 password) private view returns (bool) {... */\n    tag_58:\n        /* \"contracts/hw5.sol\":4424:4428  bool */\n      0x00\n        /* \"contracts/hw5.sol\":4447:4456  passwords */\n      0x01\n        /* \"contracts/hw5.sol\":4447:4462  passwords[addr] */\n      0x00\n        /* \"contracts/hw5.sol\":4457:4461  addr */\n      dup5\n        /* \"contracts/hw5.sol\":4447:4462  passwords[addr] */\n      0xffffffffffffffffffffffffffffffffffffffff\n      and\n      0xffffffffffffffffffffffffffffffffffffffff\n      and\n      dup2\n      mstore\n      0x20\n      add\n      swap1\n      dup2\n      mstore\n      0x20\n      add\n      0x00\n      keccak256\n        /* \"contracts/hw5.sol\":4447:4478  passwords[addr][hash(password)] */\n      0x00\n        /* \"contracts/hw5.sol\":4463:4477  hash(password) */\n      tag_127\n        /* \"contracts/hw5.sol\":4468:4476  password */\n      dup5\n        /* \"contracts/hw5.sol\":4463:4467  hash */\n      tag_48\n        /* \"contracts/hw5.sol\":4463:4477  hash(password) */\n      jump\t// in\n    tag_127:\n        /* \"contracts/hw5.sol\":4447:4478  passwords[addr][hash(password)] */\n      dup2\n      mstore\n      0x20\n      add\n      swap1\n      dup2\n      mstore\n      0x20\n      add\n      0x00\n      keccak256\n      0x00\n      swap1\n      sload\n      swap1\n      0x0100\n      exp\n      swap1\n      div\n      0xff\n      and\n        /* \"contracts/hw5.sol\":4440:4478  return passwords[addr][hash(password)] */\n      swap1\n      pop\n        /* \"contracts/hw5.sol\":4345:4485  function isPasswordValid(address addr, uint256 password) private view returns (bool) {... */\n      swap3\n      swap2\n      pop\n      pop\n      jump\t// out\n        /* \"contracts/hw5.sol\":4491:4704  function passwordFailedHandler() private {... */\n    tag_63:\n        /* \"contracts/hw5.sol\":4563:4564  1 */\n      0x01\n        /* \"contracts/hw5.sol\":4542:4547  count */\n      0x03\n        /* \"contracts/hw5.sol\":4542:4559  count[msg.sender] */\n      0x00\n        /* \"contracts/hw5.sol\":4548:4558  msg.sender */\n      caller\n        /* \"contracts/hw5.sol\":4542:4559  count[msg.sender] */\n      0xffffffffffffffffffffffffffffffffffffffff\n      and\n      0xffffffffffffffffffffffffffffffffffffffff\n      and\n      dup2\n      mstore\n      0x20\n      add\n      swap1\n      dup2\n      mstore\n      0x20\n      add\n      0x00\n      keccak256\n      0x00\n        /* \"contracts/hw5.sol\":4542:4564  count[msg.sender] += 1 */\n      dup3\n      dup3\n      sload\n      tag_129\n      swap2\n      swap1\n      tag_74\n      jump\t// in\n    tag_129:\n      swap3\n      pop\n      pop\n      dup2\n      swap1\n      sstore\n      pop\n        /* \"contracts/hw5.sol\":4599:4600  2 */\n      0x02\n        /* \"contracts/hw5.sol\":4578:4583  count */\n      0x03\n        /* \"contracts/hw5.sol\":4578:4595  count[msg.sender] */\n      0x00\n        /* \"contracts/hw5.sol\":4584:4594  msg.sender */\n      caller\n        /* \"contracts/hw5.sol\":4578:4595  count[msg.sender] */\n      0xffffffffffffffffffffffffffffffffffffffff\n      and\n      0xffffffffffffffffffffffffffffffffffffffff\n      and\n      dup2\n      mstore\n      0x20\n      add\n      swap1\n      dup2\n      mstore\n      0x20\n      add\n      0x00\n      keccak256\n      sload\n        /* \"contracts/hw5.sol\":4578:4600  count[msg.sender] >= 2 */\n      lt\n        /* \"contracts/hw5.sol\":4574:4698  if (count[msg.sender] >= 2) {... */\n      tag_130\n      jumpi\n        /* \"contracts/hw5.sol\":4640:4644  true */\n      0x01\n        /* \"contracts/hw5.sol\":4616:4625  blackList */\n      0x04\n        /* \"contracts/hw5.sol\":4616:4637  blackList[msg.sender] */\n      0x00\n        /* \"contracts/hw5.sol\":4626:4636  msg.sender */\n      caller\n        /* \"contracts/hw5.sol\":4616:4637  blackList[msg.sender] */\n      0xffffffffffffffffffffffffffffffffffffffff\n      and\n      0xffffffffffffffffffffffffffffffffffffffff\n      and\n      dup2\n      mstore\n      0x20\n      add\n      swap1\n      dup2\n      mstore\n      0x20\n      add\n      0x00\n      keccak256\n      0x00\n        /* \"contracts/hw5.sol\":4616:4644  blackList[msg.sender] = true */\n      0x0100\n      exp\n      dup2\n      sload\n      dup2\n      0xff\n      mul\n      not\n      and\n      swap1\n      dup4\n      iszero\n      iszero\n      mul\n      or\n      swap1\n      sstore\n      pop\n        /* \"contracts/hw5.sol\":4676:4686  msg.sender */\n      caller\n        /* \"contracts/hw5.sol\":4663:4687  addBlackList(msg.sender) */\n      0xffffffffffffffffffffffffffffffffffffffff\n      and\n      0x0ecb93c06e2466c523c3ed0f181f11e5cc9ded3e0b654bc0b9f8a2ed1269facf\n      mload(0x40)\n      mload(0x40)\n      dup1\n      swap2\n      sub\n      swap1\n      log2\n        /* \"contracts/hw5.sol\":4574:4698  if (count[msg.sender] >= 2) {... */\n    tag_130:\n        /* \"contracts/hw5.sol\":4491:4704  function passwordFailedHandler() private {... */\n      jump\t// out\n        /* \"#utility.yul\":7:176   */\n    tag_131:\n        /* \"#utility.yul\":91:102   */\n      0x00\n        /* \"#utility.yul\":125:131   */\n      dup3\n        /* \"#utility.yul\":120:123   */\n      dup3\n        /* \"#utility.yul\":113:132   */\n      mstore\n        /* \"#utility.yul\":165:169   */\n      0x20\n        /* \"#utility.yul\":160:163   */\n      dup3\n        /* \"#utility.yul\":156:170   */\n      add\n        /* \"#utility.yul\":141:170   */\n      swap1\n      pop\n        /* \"#utility.yul\":7:176   */\n      swap3\n      swap2\n      pop\n      pop\n      jump\t// out\n        /* \"#utility.yul\":182:357   */\n    tag_132:\n        /* \"#utility.yul\":322:349   */\n      0x796f752061726520696e2074686520626c61636b206c69737400000000000000\n        /* \"#utility.yul\":318:319   */\n      0x00\n        /* \"#utility.yul\":310:316   */\n      dup3\n        /* \"#utility.yul\":306:320   */\n      add\n        /* \"#utility.yul\":299:350   */\n      mstore\n        /* \"#utility.yul\":182:357   */\n      pop\n      jump\t// out\n        /* \"#utility.yul\":363:729   */\n    tag_133:\n        /* \"#utility.yul\":505:508   */\n      0x00\n        /* \"#utility.yul\":526:593   */\n      tag_165\n        /* \"#utility.yul\":590:592   */\n      0x19\n        /* \"#utility.yul\":585:588   */\n      dup4\n        /* \"#utility.yul\":526:593   */\n      tag_131\n      jump\t// in\n    tag_165:\n        /* \"#utility.yul\":519:593   */\n      swap2\n      pop\n        /* \"#utility.yul\":602:695   */\n      tag_166\n        /* \"#utility.yul\":691:694   */\n      dup3\n        /* \"#utility.yul\":602:695   */\n      tag_132\n      jump\t// in\n    tag_166:\n        /* \"#utility.yul\":720:722   */\n      0x20\n        /* \"#utility.yul\":715:718   */\n      dup3\n        /* \"#utility.yul\":711:723   */\n      add\n        /* \"#utility.yul\":704:723   */\n      swap1\n      pop\n        /* \"#utility.yul\":363:729   */\n      swap2\n      swap1\n      pop\n      jump\t// out\n        /* \"#utility.yul\":735:1154   */\n    tag_16:\n        /* \"#utility.yul\":901:905   */\n      0x00\n        /* \"#utility.yul\":939:941   */\n      0x20\n        /* \"#utility.yul\":928:937   */\n      dup3\n        /* \"#utility.yul\":924:942   */\n      add\n        /* \"#utility.yul\":916:942   */\n      swap1\n      pop\n        /* \"#utility.yul\":988:997   */\n      dup2\n        /* \"#utility.yul\":982:986   */\n      dup2\n        /* \"#utility.yul\":978:998   */\n      sub\n        /* \"#utility.yul\":974:975   */\n      0x00\n        /* \"#utility.yul\":963:972   */\n      dup4\n        /* \"#utility.yul\":959:976   */\n      add\n        /* \"#utility.yul\":952:999   */\n      mstore\n        /* \"#utility.yul\":1016:1147   */\n      tag_168\n        /* \"#utility.yul\":1142:1146   */\n      dup2\n        /* \"#utility.yul\":1016:1147   */\n      tag_133\n      jump\t// in\n    tag_168:\n        /* \"#utility.yul\":1008:1147   */\n      swap1\n      pop\n        /* \"#utility.yul\":735:1154   */\n      swap2\n      swap1\n      pop\n      jump\t// out\n        /* \"#utility.yul\":1241:1358   */\n    tag_135:\n        /* \"#utility.yul\":1350:1351   */\n      0x00\n        /* \"#utility.yul\":1347:1348   */\n      0x00\n        /* \"#utility.yul\":1340:1352   */\n      revert\n        /* \"#utility.yul\":1487:1613   */\n    tag_137:\n        /* \"#utility.yul\":1524:1531   */\n      0x00\n        /* \"#utility.yul\":1564:1606   */\n      0xffffffffffffffffffffffffffffffffffffffff\n        /* \"#utility.yul\":1557:1562   */\n      dup3\n        /* \"#utility.yul\":1553:1607   */\n      and\n        /* \"#utility.yul\":1542:1607   */\n      swap1\n      pop\n        /* \"#utility.yul\":1487:1613   */\n      swap2\n      swap1\n      pop\n      jump\t// out\n        /* \"#utility.yul\":1619:1715   */\n    tag_138:\n        /* \"#utility.yul\":1656:1663   */\n      0x00\n        /* \"#utility.yul\":1685:1709   */\n      tag_174\n        /* \"#utility.yul\":1703:1708   */\n      dup3\n        /* \"#utility.yul\":1685:1709   */\n      tag_137\n      jump\t// in\n    tag_174:\n        /* \"#utility.yul\":1674:1709   */\n      swap1\n      pop\n        /* \"#utility.yul\":1619:1715   */\n      swap2\n      swap1\n      pop\n      jump\t// out\n        /* \"#utility.yul\":1721:1843   */\n    tag_139:\n        /* \"#utility.yul\":1794:1818   */\n      tag_176\n        /* \"#utility.yul\":1812:1817   */\n      dup2\n        /* \"#utility.yul\":1794:1818   */\n      tag_138\n      jump\t// in\n    tag_176:\n        /* \"#utility.yul\":1787:1792   */\n      dup2\n        /* \"#utility.yul\":1784:1819   */\n      eq\n        /* \"#utility.yul\":1774:1837   */\n      tag_177\n      jumpi\n        /* \"#utility.yul\":1833:1834   */\n      0x00\n        /* \"#utility.yul\":1830:1831   */\n      0x00\n        /* \"#utility.yul\":1823:1835   */\n      revert\n        /* \"#utility.yul\":1774:1837   */\n    tag_177:\n        /* \"#utility.yul\":1721:1843   */\n      pop\n      jump\t// out\n        /* \"#utility.yul\":1849:1988   */\n    tag_140:\n        /* \"#utility.yul\":1895:1900   */\n      0x00\n        /* \"#utility.yul\":1933:1939   */\n      dup2\n        /* \"#utility.yul\":1920:1940   */\n      calldataload\n        /* \"#utility.yul\":1911:1940   */\n      swap1\n      pop\n        /* \"#utility.yul\":1949:1982   */\n      tag_179\n        /* \"#utility.yul\":1976:1981   */\n      dup2\n        /* \"#utility.yul\":1949:1982   */\n      tag_139\n      jump\t// in\n    tag_179:\n        /* \"#utility.yul\":1849:1988   */\n      swap3\n      swap2\n      pop\n      pop\n      jump\t// out\n        /* \"#utility.yul\":1994:2071   */\n    tag_141:\n        /* \"#utility.yul\":2031:2038   */\n      0x00\n        /* \"#utility.yul\":2060:2065   */\n      dup2\n        /* \"#utility.yul\":2049:2065   */\n      swap1\n      pop\n        /* \"#utility.yul\":1994:2071   */\n      swap2\n      swap1\n      pop\n      jump\t// out\n        /* \"#utility.yul\":2077:2199   */\n    tag_142:\n        /* \"#utility.yul\":2150:2174   */\n      tag_182\n        /* \"#utility.yul\":2168:2173   */\n      dup2\n        /* \"#utility.yul\":2150:2174   */\n      tag_141\n      jump\t// in\n    tag_182:\n        /* \"#utility.yul\":2143:2148   */\n      dup2\n        /* \"#utility.yul\":2140:2175   */\n      eq\n        /* \"#utility.yul\":2130:2193   */\n      tag_183\n      jumpi\n        /* \"#utility.yul\":2189:2190   */\n      0x00\n        /* \"#utility.yul\":2186:2187   */\n      0x00\n        /* \"#utility.yul\":2179:2191   */\n      revert\n        /* \"#utility.yul\":2130:2193   */\n    tag_183:\n        /* \"#utility.yul\":2077:2199   */\n      pop\n      jump\t// out\n        /* \"#utility.yul\":2205:2344   */\n    tag_143:\n        /* \"#utility.yul\":2251:2256   */\n      0x00\n        /* \"#utility.yul\":2289:2295   */\n      dup2\n        /* \"#utility.yul\":2276:2296   */\n      calldataload\n        /* \"#utility.yul\":2267:2296   */\n      swap1\n      pop\n        /* \"#utility.yul\":2305:2338   */\n      tag_185\n        /* \"#utility.yul\":2332:2337   */\n      dup2\n        /* \"#utility.yul\":2305:2338   */\n      tag_142\n      jump\t// in\n    tag_185:\n        /* \"#utility.yul\":2205:2344   */\n      swap3\n      swap2\n      pop\n      pop\n      jump\t// out\n        /* \"#utility.yul\":2350:2969   */\n    tag_28:\n        /* \"#utility.yul\":2427:2433   */\n      0x00\n        /* \"#utility.yul\":2435:2441   */\n      0x00\n        /* \"#utility.yul\":2443:2449   */\n      0x00\n        /* \"#utility.yul\":2492:2494   */\n      0x60\n        /* \"#utility.yul\":2480:2489   */\n      dup5\n        /* \"#utility.yul\":2471:2478   */\n      dup7\n        /* \"#utility.yul\":2467:2490   */\n      sub\n        /* \"#utility.yul\":2463:2495   */\n      slt\n        /* \"#utility.yul\":2460:2579   */\n      iszero\n      tag_187\n      jumpi\n        /* \"#utility.yul\":2498:2577   */\n      tag_188\n      tag_135\n      jump\t// in\n    tag_188:\n        /* \"#utility.yul\":2460:2579   */\n    tag_187:\n        /* \"#utility.yul\":2618:2619   */\n      0x00\n        /* \"#utility.yul\":2643:2696   */\n      tag_189\n        /* \"#utility.yul\":2688:2695   */\n      dup7\n        /* \"#utility.yul\":2679:2685   */\n      dup3\n        /* \"#utility.yul\":2668:2677   */\n      dup8\n        /* \"#utility.yul\":2664:2686   */\n      add\n        /* \"#utility.yul\":2643:2696   */\n      tag_140\n      jump\t// in\n    tag_189:\n        /* \"#utility.yul\":2633:2696   */\n      swap4\n      pop\n        /* \"#utility.yul\":2589:2706   */\n      pop\n        /* \"#utility.yul\":2745:2747   */\n      0x20\n        /* \"#utility.yul\":2771:2824   */\n      tag_190\n        /* \"#utility.yul\":2816:2823   */\n      dup7\n        /* \"#utility.yul\":2807:2813   */\n      dup3\n        /* \"#utility.yul\":2796:2805   */\n      dup8\n        /* \"#utility.yul\":2792:2814   */\n      add\n        /* \"#utility.yul\":2771:2824   */\n      tag_143\n      jump\t// in\n    tag_190:\n        /* \"#utility.yul\":2761:2824   */\n      swap3\n      pop\n        /* \"#utility.yul\":2716:2834   */\n      pop\n        /* \"#utility.yul\":2873:2875   */\n      0x40\n        /* \"#utility.yul\":2899:2952   */\n      tag_191\n        /* \"#utility.yul\":2944:2951   */\n      dup7\n        /* \"#utility.yul\":2935:2941   */\n      dup3\n        /* \"#utility.yul\":2924:2933   */\n      dup8\n        /* \"#utility.yul\":2920:2942   */\n      add\n        /* \"#utility.yul\":2899:2952   */\n      tag_143\n      jump\t// in\n    tag_191:\n        /* \"#utility.yul\":2889:2952   */\n      swap2\n      pop\n        /* \"#utility.yul\":2844:2962   */\n      pop\n        /* \"#utility.yul\":2350:2969   */\n      swap3\n      pop\n      swap3\n      pop\n      swap3\n      jump\t// out\n        /* \"#utility.yul\":2975:3449   */\n    tag_33:\n        /* \"#utility.yul\":3043:3049   */\n      0x00\n        /* \"#utility.yul\":3051:3057   */\n      0x00\n        /* \"#utility.yul\":3100:3102   */\n      0x40\n        /* \"#utility.yul\":3088:3097   */\n      dup4\n        /* \"#utility.yul\":3079:3086   */\n      dup6\n        /* \"#utility.yul\":3075:3098   */\n      sub\n        /* \"#utility.yul\":3071:3103   */\n      slt\n        /* \"#utility.yul\":3068:3187   */\n      iszero\n      tag_193\n      jumpi\n        /* \"#utility.yul\":3106:3185   */\n      tag_194\n      tag_135\n      jump\t// in\n    tag_194:\n        /* \"#utility.yul\":3068:3187   */\n    tag_193:\n        /* \"#utility.yul\":3226:3227   */\n      0x00\n        /* \"#utility.yul\":3251:3304   */\n      tag_195\n        /* \"#utility.yul\":3296:3303   */\n      dup6\n        /* \"#utility.yul\":3287:3293   */\n      dup3\n        /* \"#utility.yul\":3276:3285   */\n      dup7\n        /* \"#utility.yul\":3272:3294   */\n      add\n        /* \"#utility.yul\":3251:3304   */\n      tag_140\n      jump\t// in\n    tag_195:\n        /* \"#utility.yul\":3241:3304   */\n      swap3\n      pop\n        /* \"#utility.yul\":3197:3314   */\n      pop\n        /* \"#utility.yul\":3353:3355   */\n      0x20\n        /* \"#utility.yul\":3379:3432   */\n      tag_196\n        /* \"#utility.yul\":3424:3431   */\n      dup6\n        /* \"#utility.yul\":3415:3421   */\n      dup3\n        /* \"#utility.yul\":3404:3413   */\n      dup7\n        /* \"#utility.yul\":3400:3422   */\n      add\n        /* \"#utility.yul\":3379:3432   */\n      tag_143\n      jump\t// in\n    tag_196:\n        /* \"#utility.yul\":3369:3432   */\n      swap2\n      pop\n        /* \"#utility.yul\":3324:3442   */\n      pop\n        /* \"#utility.yul\":2975:3449   */\n      swap3\n      pop\n      swap3\n      swap1\n      pop\n      jump\t// out\n        /* \"#utility.yul\":3455:3573   */\n    tag_144:\n        /* \"#utility.yul\":3542:3566   */\n      tag_198\n        /* \"#utility.yul\":3560:3565   */\n      dup2\n        /* \"#utility.yul\":3542:3566   */\n      tag_141\n      jump\t// in\n    tag_198:\n        /* \"#utility.yul\":3537:3540   */\n      dup3\n        /* \"#utility.yul\":3530:3567   */\n      mstore\n        /* \"#utility.yul\":3455:3573   */\n      pop\n      pop\n      jump\t// out\n        /* \"#utility.yul\":3579:3801   */\n    tag_36:\n        /* \"#utility.yul\":3672:3676   */\n      0x00\n        /* \"#utility.yul\":3710:3712   */\n      0x20\n        /* \"#utility.yul\":3699:3708   */\n      dup3\n        /* \"#utility.yul\":3695:3713   */\n      add\n        /* \"#utility.yul\":3687:3713   */\n      swap1\n      pop\n        /* \"#utility.yul\":3723:3794   */\n      tag_200\n        /* \"#utility.yul\":3791:3792   */\n      0x00\n        /* \"#utility.yul\":3780:3789   */\n      dup4\n        /* \"#utility.yul\":3776:3793   */\n      add\n        /* \"#utility.yul\":3767:3773   */\n      dup5\n        /* \"#utility.yul\":3723:3794   */\n      tag_144\n      jump\t// in\n    tag_200:\n        /* \"#utility.yul\":3579:3801   */\n      swap3\n      swap2\n      pop\n      pop\n      jump\t// out\n        /* \"#utility.yul\":3807:4136   */\n    tag_40:\n        /* \"#utility.yul\":3866:3872   */\n      0x00\n        /* \"#utility.yul\":3915:3917   */\n      0x20\n        /* \"#utility.yul\":3903:3912   */\n      dup3\n        /* \"#utility.yul\":3894:3901   */\n      dup5\n        /* \"#utility.yul\":3890:3913   */\n      sub\n        /* \"#utility.yul\":3886:3918   */\n      slt\n        /* \"#utility.yul\":3883:4002   */\n      iszero\n      tag_202\n      jumpi\n        /* \"#utility.yul\":3921:4000   */\n      tag_203\n      tag_135\n      jump\t// in\n    tag_203:\n        /* \"#utility.yul\":3883:4002   */\n    tag_202:\n        /* \"#utility.yul\":4041:4042   */\n      0x00\n        /* \"#utility.yul\":4066:4119   */\n      tag_204\n        /* \"#utility.yul\":4111:4118   */\n      dup5\n        /* \"#utility.yul\":4102:4108   */\n      dup3\n        /* \"#utility.yul\":4091:4100   */\n      dup6\n        /* \"#utility.yul\":4087:4109   */\n      add\n        /* \"#utility.yul\":4066:4119   */\n      tag_143\n      jump\t// in\n    tag_204:\n        /* \"#utility.yul\":4056:4119   */\n      swap2\n      pop\n        /* \"#utility.yul\":4012:4129   */\n      pop\n        /* \"#utility.yul\":3807:4136   */\n      swap3\n      swap2\n      pop\n      pop\n      jump\t// out\n        /* \"#utility.yul\":4142:4232   */\n    tag_145:\n        /* \"#utility.yul\":4176:4183   */\n      0x00\n        /* \"#utility.yul\":4219:4224   */\n      dup2\n        /* \"#utility.yul\":4212:4225   */\n      iszero\n        /* \"#utility.yul\":4205:4226   */\n      iszero\n        /* \"#utility.yul\":4194:4226   */\n      swap1\n      pop\n        /* \"#utility.yul\":4142:4232   */\n      swap2\n      swap1\n      pop\n      jump\t// out\n        /* \"#utility.yul\":4238:4347   */\n    tag_146:\n        /* \"#utility.yul\":4319:4340   */\n      tag_207\n        /* \"#utility.yul\":4334:4339   */\n      dup2\n        /* \"#utility.yul\":4319:4340   */\n      tag_145\n      jump\t// in\n    tag_207:\n        /* \"#utility.yul\":4314:4317   */\n      dup3\n        /* \"#utility.yul\":4307:4341   */\n      mstore\n        /* \"#utility.yul\":4238:4347   */\n      pop\n      pop\n      jump\t// out\n        /* \"#utility.yul\":4353:4563   */\n    tag_55:\n        /* \"#utility.yul\":4440:4444   */\n      0x00\n        /* \"#utility.yul\":4478:4480   */\n      0x20\n        /* \"#utility.yul\":4467:4476   */\n      dup3\n        /* \"#utility.yul\":4463:4481   */\n      add\n        /* \"#utility.yul\":4455:4481   */\n      swap1\n      pop\n        /* \"#utility.yul\":4491:4556   */\n      tag_209\n        /* \"#utility.yul\":4553:4554   */\n      0x00\n        /* \"#utility.yul\":4542:4551   */\n      dup4\n        /* \"#utility.yul\":4538:4555   */\n      add\n        /* \"#utility.yul\":4529:4535   */\n      dup5\n        /* \"#utility.yul\":4491:4556   */\n      tag_146\n      jump\t// in\n    tag_209:\n        /* \"#utility.yul\":4353:4563   */\n      swap3\n      swap2\n      pop\n      pop\n      jump\t// out\n        /* \"#utility.yul\":4569:4737   */\n    tag_147:\n        /* \"#utility.yul\":4709:4729   */\n      0x6e6f7420656e6f7567682062616c616e63650000000000000000000000000000\n        /* \"#utility.yul\":4705:4706   */\n      0x00\n        /* \"#utility.yul\":4697:4703   */\n      dup3\n        /* \"#utility.yul\":4693:4707   */\n      add\n        /* \"#utility.yul\":4686:4730   */\n      mstore\n        /* \"#utility.yul\":4569:4737   */\n      pop\n      jump\t// out\n        /* \"#utility.yul\":4743:5109   */\n    tag_148:\n        /* \"#utility.yul\":4885:4888   */\n      0x00\n        /* \"#utility.yul\":4906:4973   */\n      tag_212\n        /* \"#utility.yul\":4970:4972   */\n      0x12\n        /* \"#utility.yul\":4965:4968   */\n      dup4\n        /* \"#utility.yul\":4906:4973   */\n      tag_131\n      jump\t// in\n    tag_212:\n        /* \"#utility.yul\":4899:4973   */\n      swap2\n      pop\n        /* \"#utility.yul\":4982:5075   */\n      tag_213\n        /* \"#utility.yul\":5071:5074   */\n      dup3\n        /* \"#utility.yul\":4982:5075   */\n      tag_147\n      jump\t// in\n    tag_213:\n        /* \"#utility.yul\":5100:5102   */\n      0x20\n        /* \"#utility.yul\":5095:5098   */\n      dup3\n        /* \"#utility.yul\":5091:5103   */\n      add\n        /* \"#utility.yul\":5084:5103   */\n      swap1\n      pop\n        /* \"#utility.yul\":4743:5109   */\n      swap2\n      swap1\n      pop\n      jump\t// out\n        /* \"#utility.yul\":5115:5534   */\n    tag_68:\n        /* \"#utility.yul\":5281:5285   */\n      0x00\n        /* \"#utility.yul\":5319:5321   */\n      0x20\n        /* \"#utility.yul\":5308:5317   */\n      dup3\n        /* \"#utility.yul\":5304:5322   */\n      add\n        /* \"#utility.yul\":5296:5322   */\n      swap1\n      pop\n        /* \"#utility.yul\":5368:5377   */\n      dup2\n        /* \"#utility.yul\":5362:5366   */\n      dup2\n        /* \"#utility.yul\":5358:5378   */\n      sub\n        /* \"#utility.yul\":5354:5355   */\n      0x00\n        /* \"#utility.yul\":5343:5352   */\n      dup4\n        /* \"#utility.yul\":5339:5356   */\n      add\n        /* \"#utility.yul\":5332:5379   */\n      mstore\n        /* \"#utility.yul\":5396:5527   */\n      tag_215\n        /* \"#utility.yul\":5522:5526   */\n      dup2\n        /* \"#utility.yul\":5396:5527   */\n      tag_148\n      jump\t// in\n    tag_215:\n        /* \"#utility.yul\":5388:5527   */\n      swap1\n      pop\n        /* \"#utility.yul\":5115:5534   */\n      swap2\n      swap1\n      pop\n      jump\t// out\n        /* \"#utility.yul\":5540:5718   */\n    tag_149:\n        /* \"#utility.yul\":5680:5710   */\n      0x60746f602061646472657373206e6f7420696e207468652062616e6b00000000\n        /* \"#utility.yul\":5676:5677   */\n      0x00\n        /* \"#utility.yul\":5668:5674   */\n      dup3\n        /* \"#utility.yul\":5664:5678   */\n      add\n        /* \"#utility.yul\":5657:5711   */\n      mstore\n        /* \"#utility.yul\":5540:5718   */\n      pop\n      jump\t// out\n        /* \"#utility.yul\":5724:6090   */\n    tag_150:\n        /* \"#utility.yul\":5866:5869   */\n      0x00\n        /* \"#utility.yul\":5887:5954   */\n      tag_218\n        /* \"#utility.yul\":5951:5953   */\n      0x1c\n        /* \"#utility.yul\":5946:5949   */\n      dup4\n        /* \"#utility.yul\":5887:5954   */\n      tag_131\n      jump\t// in\n    tag_218:\n        /* \"#utility.yul\":5880:5954   */\n      swap2\n      pop\n        /* \"#utility.yul\":5963:6056   */\n      tag_219\n        /* \"#utility.yul\":6052:6055   */\n      dup3\n        /* \"#utility.yul\":5963:6056   */\n      tag_149\n      jump\t// in\n    tag_219:\n        /* \"#utility.yul\":6081:6083   */\n      0x20\n        /* \"#utility.yul\":6076:6079   */\n      dup3\n        /* \"#utility.yul\":6072:6084   */\n      add\n        /* \"#utility.yul\":6065:6084   */\n      swap1\n      pop\n        /* \"#utility.yul\":5724:6090   */\n      swap2\n      swap1\n      pop\n      jump\t// out\n        /* \"#utility.yul\":6096:6515   */\n    tag_71:\n        /* \"#utility.yul\":6262:6266   */\n      0x00\n        /* \"#utility.yul\":6300:6302   */\n      0x20\n        /* \"#utility.yul\":6289:6298   */\n      dup3\n        /* \"#utility.yul\":6285:6303   */\n      add\n        /* \"#utility.yul\":6277:6303   */\n      swap1\n      pop\n        /* \"#utility.yul\":6349:6358   */\n      dup2\n        /* \"#utility.yul\":6343:6347   */\n      dup2\n        /* \"#utility.yul\":6339:6359   */\n      sub\n        /* \"#utility.yul\":6335:6336   */\n      0x00\n        /* \"#utility.yul\":6324:6333   */\n      dup4\n        /* \"#utility.yul\":6320:6337   */\n      add\n        /* \"#utility.yul\":6313:6360   */\n      mstore\n        /* \"#utility.yul\":6377:6508   */\n      tag_221\n        /* \"#utility.yul\":6503:6507   */\n      dup2\n        /* \"#utility.yul\":6377:6508   */\n      tag_150\n      jump\t// in\n    tag_221:\n        /* \"#utility.yul\":6369:6508   */\n      swap1\n      pop\n        /* \"#utility.yul\":6096:6515   */\n      swap2\n      swap1\n      pop\n      jump\t// out\n        /* \"#utility.yul\":6521:6701   */\n    tag_151:\n        /* \"#utility.yul\":6569:6646   */\n      0x4e487b7100000000000000000000000000000000000000000000000000000000\n        /* \"#utility.yul\":6566:6567   */\n      0x00\n        /* \"#utility.yul\":6559:6647   */\n      mstore\n        /* \"#utility.yul\":6666:6670   */\n      0x11\n        /* \"#utility.yul\":6663:6664   */\n      0x04\n        /* \"#utility.yul\":6656:6671   */\n      mstore\n        /* \"#utility.yul\":6690:6694   */\n      0x24\n        /* \"#utility.yul\":6687:6688   */\n      0x00\n        /* \"#utility.yul\":6680:6695   */\n      revert\n        /* \"#utility.yul\":6707:6898   */\n    tag_74:\n        /* \"#utility.yul\":6747:6750   */\n      0x00\n        /* \"#utility.yul\":6766:6786   */\n      tag_224\n        /* \"#utility.yul\":6784:6785   */\n      dup3\n        /* \"#utility.yul\":6766:6786   */\n      tag_141\n      jump\t// in\n    tag_224:\n        /* \"#utility.yul\":6761:6786   */\n      swap2\n      pop\n        /* \"#utility.yul\":6800:6820   */\n      tag_225\n        /* \"#utility.yul\":6818:6819   */\n      dup4\n        /* \"#utility.yul\":6800:6820   */\n      tag_141\n      jump\t// in\n    tag_225:\n        /* \"#utility.yul\":6795:6820   */\n      swap3\n      pop\n        /* \"#utility.yul\":6843:6844   */\n      dup3\n        /* \"#utility.yul\":6840:6841   */\n      dup3\n        /* \"#utility.yul\":6836:6845   */\n      add\n        /* \"#utility.yul\":6829:6845   */\n      swap1\n      pop\n        /* \"#utility.yul\":6864:6867   */\n      dup1\n        /* \"#utility.yul\":6861:6862   */\n      dup3\n        /* \"#utility.yul\":6858:6868   */\n      gt\n        /* \"#utility.yul\":6855:6891   */\n      iszero\n      tag_226\n      jumpi\n        /* \"#utility.yul\":6871:6889   */\n      tag_227\n      tag_151\n      jump\t// in\n    tag_227:\n        /* \"#utility.yul\":6855:6891   */\n    tag_226:\n        /* \"#utility.yul\":6707:6898   */\n      swap3\n      swap2\n      pop\n      pop\n      jump\t// out\n        /* \"#utility.yul\":6904:7098   */\n    tag_77:\n        /* \"#utility.yul\":6944:6948   */\n      0x00\n        /* \"#utility.yul\":6964:6984   */\n      tag_229\n        /* \"#utility.yul\":6982:6983   */\n      dup3\n        /* \"#utility.yul\":6964:6984   */\n      tag_141\n      jump\t// in\n    tag_229:\n        /* \"#utility.yul\":6959:6984   */\n      swap2\n      pop\n        /* \"#utility.yul\":6998:7018   */\n      tag_230\n        /* \"#utility.yul\":7016:7017   */\n      dup4\n        /* \"#utility.yul\":6998:7018   */\n      tag_141\n      jump\t// in\n    tag_230:\n        /* \"#utility.yul\":6993:7018   */\n      swap3\n      pop\n        /* \"#utility.yul\":7042:7043   */\n      dup3\n        /* \"#utility.yul\":7039:7040   */\n      dup3\n        /* \"#utility.yul\":7035:7044   */\n      sub\n        /* \"#utility.yul\":7027:7044   */\n      swap1\n      pop\n        /* \"#utility.yul\":7066:7067   */\n      dup2\n        /* \"#utility.yul\":7060:7064   */\n      dup2\n        /* \"#utility.yul\":7057:7068   */\n      gt\n        /* \"#utility.yul\":7054:7091   */\n      iszero\n      tag_231\n      jumpi\n        /* \"#utility.yul\":7071:7089   */\n      tag_232\n      tag_151\n      jump\t// in\n    tag_232:\n        /* \"#utility.yul\":7054:7091   */\n    tag_231:\n        /* \"#utility.yul\":6904:7098   */\n      swap3\n      swap2\n      pop\n      pop\n      jump\t// out\n        /* \"#utility.yul\":7104:7280   */\n    tag_152:\n        /* \"#utility.yul\":7244:7272   */\n      0x6e6f7420616c6c6f77203020616d6f756e74206465706f736974000000000000\n        /* \"#utility.yul\":7240:7241   */\n      0x00\n        /* \"#utility.yul\":7232:7238   */\n      dup3\n        /* \"#utility.yul\":7228:7242   */\n      add\n        /* \"#utility.yul\":7221:7273   */\n      mstore\n        /* \"#utility.yul\":7104:7280   */\n      pop\n      jump\t// out\n        /* \"#utility.yul\":7286:7652   */\n    tag_153:\n        /* \"#utility.yul\":7428:7431   */\n      0x00\n        /* \"#utility.yul\":7449:7516   */\n      tag_235\n        /* \"#utility.yul\":7513:7515   */\n      0x1a\n        /* \"#utility.yul\":7508:7511   */\n      dup4\n        /* \"#utility.yul\":7449:7516   */\n      tag_131\n      jump\t// in\n    tag_235:\n        /* \"#utility.yul\":7442:7516   */\n      swap2\n      pop\n        /* \"#utility.yul\":7525:7618   */\n      tag_236\n        /* \"#utility.yul\":7614:7617   */\n      dup3\n        /* \"#utility.yul\":7525:7618   */\n      tag_152\n      jump\t// in\n    tag_236:\n        /* \"#utility.yul\":7643:7645   */\n      0x20\n        /* \"#utility.yul\":7638:7641   */\n      dup3\n        /* \"#utility.yul\":7634:7646   */\n      add\n        /* \"#utility.yul\":7627:7646   */\n      swap1\n      pop\n        /* \"#utility.yul\":7286:7652   */\n      swap2\n      swap1\n      pop\n      jump\t// out\n        /* \"#utility.yul\":7658:8077   */\n    tag_117:\n        /* \"#utility.yul\":7824:7828   */\n      0x00\n        /* \"#utility.yul\":7862:7864   */\n      0x20\n        /* \"#utility.yul\":7851:7860   */\n      dup3\n        /* \"#utility.yul\":7847:7865   */\n      add\n        /* \"#utility.yul\":7839:7865   */\n      swap1\n      pop\n        /* \"#utility.yul\":7911:7920   */\n      dup2\n        /* \"#utility.yul\":7905:7909   */\n      dup2\n        /* \"#utility.yul\":7901:7921   */\n      sub\n        /* \"#utility.yul\":7897:7898   */\n      0x00\n        /* \"#utility.yul\":7886:7895   */\n      dup4\n        /* \"#utility.yul\":7882:7899   */\n      add\n        /* \"#utility.yul\":7875:7922   */\n      mstore\n        /* \"#utility.yul\":7939:8070   */\n      tag_238\n        /* \"#utility.yul\":8065:8069   */\n      dup2\n        /* \"#utility.yul\":7939:8070   */\n      tag_153\n      jump\t// in\n    tag_238:\n        /* \"#utility.yul\":7931:8070   */\n      swap1\n      pop\n        /* \"#utility.yul\":7658:8077   */\n      swap2\n      swap1\n      pop\n      jump\t// out\n        /* \"#utility.yul\":8083:8181   */\n    tag_154:\n        /* \"#utility.yul\":8134:8140   */\n      0x00\n        /* \"#utility.yul\":8168:8173   */\n      dup2\n        /* \"#utility.yul\":8162:8174   */\n      mload\n        /* \"#utility.yul\":8152:8174   */\n      swap1\n      pop\n        /* \"#utility.yul\":8083:8181   */\n      swap2\n      swap1\n      pop\n      jump\t// out\n        /* \"#utility.yul\":8187:8334   */\n    tag_155:\n        /* \"#utility.yul\":8288:8299   */\n      0x00\n        /* \"#utility.yul\":8325:8328   */\n      dup2\n        /* \"#utility.yul\":8310:8328   */\n      swap1\n      pop\n        /* \"#utility.yul\":8187:8334   */\n      swap3\n      swap2\n      pop\n      pop\n      jump\t// out\n        /* \"#utility.yul\":8340:8479   */\n    tag_156:\n        /* \"#utility.yul\":8429:8435   */\n      dup3\n        /* \"#utility.yul\":8424:8427   */\n      dup2\n        /* \"#utility.yul\":8419:8422   */\n      dup4\n        /* \"#utility.yul\":8413:8436   */\n      mcopy\n        /* \"#utility.yul\":8470:8471   */\n      0x00\n        /* \"#utility.yul\":8461:8467   */\n      dup4\n        /* \"#utility.yul\":8456:8459   */\n      dup4\n        /* \"#utility.yul\":8452:8468   */\n      add\n        /* \"#utility.yul\":8445:8472   */\n      mstore\n        /* \"#utility.yul\":8340:8479   */\n      pop\n      pop\n      pop\n      jump\t// out\n        /* \"#utility.yul\":8485:8871   */\n    tag_157:\n        /* \"#utility.yul\":8589:8592   */\n      0x00\n        /* \"#utility.yul\":8617:8655   */\n      tag_243\n        /* \"#utility.yul\":8649:8654   */\n      dup3\n        /* \"#utility.yul\":8617:8655   */\n      tag_154\n      jump\t// in\n    tag_243:\n        /* \"#utility.yul\":8671:8759   */\n      tag_244\n        /* \"#utility.yul\":8752:8758   */\n      dup2\n        /* \"#utility.yul\":8747:8750   */\n      dup6\n        /* \"#utility.yul\":8671:8759   */\n      tag_155\n      jump\t// in\n    tag_244:\n        /* \"#utility.yul\":8664:8759   */\n      swap4\n      pop\n        /* \"#utility.yul\":8768:8833   */\n      tag_245\n        /* \"#utility.yul\":8826:8832   */\n      dup2\n        /* \"#utility.yul\":8821:8824   */\n      dup6\n        /* \"#utility.yul\":8814:8818   */\n      0x20\n        /* \"#utility.yul\":8807:8812   */\n      dup7\n        /* \"#utility.yul\":8803:8819   */\n      add\n        /* \"#utility.yul\":8768:8833   */\n      tag_156\n      jump\t// in\n    tag_245:\n        /* \"#utility.yul\":8858:8864   */\n      dup1\n        /* \"#utility.yul\":8853:8856   */\n      dup5\n        /* \"#utility.yul\":8849:8865   */\n      add\n        /* \"#utility.yul\":8842:8865   */\n      swap2\n      pop\n        /* \"#utility.yul\":8593:8871   */\n      pop\n        /* \"#utility.yul\":8485:8871   */\n      swap3\n      swap2\n      pop\n      pop\n      jump\t// out\n        /* \"#utility.yul\":8877:9148   */\n    tag_121:\n        /* \"#utility.yul\":9007:9010   */\n      0x00\n        /* \"#utility.yul\":9029:9122   */\n      tag_247\n        /* \"#utility.yul\":9118:9121   */\n      dup3\n        /* \"#utility.yul\":9109:9115   */\n      dup5\n        /* \"#utility.yul\":9029:9122   */\n      tag_157\n      jump\t// in\n    tag_247:\n        /* \"#utility.yul\":9022:9122   */\n      swap2\n      pop\n        /* \"#utility.yul\":9139:9142   */\n      dup2\n        /* \"#utility.yul\":9132:9142   */\n      swap1\n      pop\n        /* \"#utility.yul\":8877:9148   */\n      swap3\n      swap2\n      pop\n      pop\n      jump\t// out\n        /* \"#utility.yul\":9154:9231   */\n    tag_158:\n        /* \"#utility.yul\":9191:9198   */\n      0x00\n        /* \"#utility.yul\":9220:9225   */\n      dup2\n        /* \"#utility.yul\":9209:9225   */\n      swap1\n      pop\n        /* \"#utility.yul\":9154:9231   */\n      swap2\n      swap1\n      pop\n      jump\t// out\n        /* \"#utility.yul\":9237:9359   */\n    tag_159:\n        /* \"#utility.yul\":9310:9334   */\n      tag_250\n        /* \"#utility.yul\":9328:9333   */\n      dup2\n        /* \"#utility.yul\":9310:9334   */\n      tag_158\n      jump\t// in\n    tag_250:\n        /* \"#utility.yul\":9303:9308   */\n      dup2\n        /* \"#utility.yul\":9300:9335   */\n      eq\n        /* \"#utility.yul\":9290:9353   */\n      tag_251\n      jumpi\n        /* \"#utility.yul\":9349:9350   */\n      0x00\n        /* \"#utility.yul\":9346:9347   */\n      0x00\n        /* \"#utility.yul\":9339:9351   */\n      revert\n        /* \"#utility.yul\":9290:9353   */\n    tag_251:\n        /* \"#utility.yul\":9237:9359   */\n      pop\n      jump\t// out\n        /* \"#utility.yul\":9365:9508   */\n    tag_160:\n        /* \"#utility.yul\":9422:9427   */\n      0x00\n        /* \"#utility.yul\":9453:9459   */\n      dup2\n        /* \"#utility.yul\":9447:9460   */\n      mload\n        /* \"#utility.yul\":9438:9460   */\n      swap1\n      pop\n        /* \"#utility.yul\":9469:9502   */\n      tag_253\n        /* \"#utility.yul\":9496:9501   */\n      dup2\n        /* \"#utility.yul\":9469:9502   */\n      tag_159\n      jump\t// in\n    tag_253:\n        /* \"#utility.yul\":9365:9508   */\n      swap3\n      swap2\n      pop\n      pop\n      jump\t// out\n        /* \"#utility.yul\":9514:9865   */\n    tag_125:\n        /* \"#utility.yul\":9584:9590   */\n      0x00\n        /* \"#utility.yul\":9633:9635   */\n      0x20\n        /* \"#utility.yul\":9621:9630   */\n      dup3\n        /* \"#utility.yul\":9612:9619   */\n      dup5\n        /* \"#utility.yul\":9608:9631   */\n      sub\n        /* \"#utility.yul\":9604:9636   */\n      slt\n        /* \"#utility.yul\":9601:9720   */\n      iszero\n      tag_255\n      jumpi\n        /* \"#utility.yul\":9639:9718   */\n      tag_256\n      tag_135\n      jump\t// in\n    tag_256:\n        /* \"#utility.yul\":9601:9720   */\n    tag_255:\n        /* \"#utility.yul\":9759:9760   */\n      0x00\n        /* \"#utility.yul\":9784:9848   */\n      tag_257\n        /* \"#utility.yul\":9840:9847   */\n      dup5\n        /* \"#utility.yul\":9831:9837   */\n      dup3\n        /* \"#utility.yul\":9820:9829   */\n      dup6\n        /* \"#utility.yul\":9816:9838   */\n      add\n        /* \"#utility.yul\":9784:9848   */\n      tag_160\n      jump\t// in\n    tag_257:\n        /* \"#utility.yul\":9774:9848   */\n      swap2\n      pop\n        /* \"#utility.yul\":9730:9858   */\n      pop\n        /* \"#utility.yul\":9514:9865   */\n      swap3\n      swap2\n      pop\n      pop\n      jump\t// out\n\n    auxdata: 0xa2646970667358221220eb3ac55699c6c888bc5414a073aea30b9e07bb49148b8d08e1b8e30336d889bc64736f6c634300081e0033\n}\n",
				"bytecode": {
					"linkReferences": {},
					"object": "6080604052348015600e575f5ffd5b503360055f6101000a81548173ffffffffffffffffffffffffffffffffffffffff021916908373ffffffffffffffffffffffffffffffffffffffff160217905550611a818061005c5f395ff3fe60806040526004361061004d575f3560e01c8063095bcdb61461042a5780632b04e840146104525780632e1a7d4d1461048e57806347e7ef24146104b6578063b189fd4c146104d25761023e565b3661023e575f3373ffffffffffffffffffffffffffffffffffffffff163b14610109573373ffffffffffffffffffffffffffffffffffffffff167f0ecb93c06e2466c523c3ed0f181f11e5cc9ded3e0b654bc0b9f8a2ed1269facf60405160405180910390a2600160045f3373ffffffffffffffffffffffffffffffffffffffff1673ffffffffffffffffffffffffffffffffffffffff1681526020019081526020015f205f6101000a81548160ff0219169083151502179055505b60055f9054906101000a900473ffffffffffffffffffffffffffffffffffffffff1673ffffffffffffffffffffffffffffffffffffffff166108fc3490811502906040515f60405180830381858888f1935050505015801561016d573d5f5f3e3d5ffd5b50343373ffffffffffffffffffffffffffffffffffffffff167f6b9fa43cfea9ed40dd7c399b06ee5001c6eca7b2b54d816d37899ac48ca0c25560405160405180910390a360045f3373ffffffffffffffffffffffffffffffffffffffff1673ffffffffffffffffffffffffffffffffffffffff1681526020019081526020015f205f9054906101000a900460ff161561023c576040517f08c379a0000000000000000000000000000000000000000000000000000000008152600401610233906115f7565b60405180910390fd5b005b5f3373ffffffffffffffffffffffffffffffffffffffff163b146102f5573373ffffffffffffffffffffffffffffffffffffffff167f0ecb93c06e2466c523c3ed0f181f11e5cc9ded3e0b654bc0b9f8a2ed1269facf60405160405180910390a2600160045f3373ffffffffffffffffffffffffffffffffffffffff1673ffffffffffffffffffffffffffffffffffffffff1681526020019081526020015f205f6101000a81548160ff0219169083151502179055505b60055f9054906101000a900473ffffffffffffffffffffffffffffffffffffffff1673ffffffffffffffffffffffffffffffffffffffff166108fc3490811502906040515f60405180830381858888f19350505050158015610359573d5f5f3e3d5ffd5b50343373ffffffffffffffffffffffffffffffffffffffff167f6b9fa43cfea9ed40dd7c399b06ee5001c6eca7b2b54d816d37899ac48ca0c25560405160405180910390a360045f3373ffffffffffffffffffffffffffffffffffffffff1673ffffffffffffffffffffffffffffffffffffffff1681526020019081526020015f205f9054906101000a900460ff1615610428576040517f08c379a000000000000000000000000000000000000000000000000000000000815260040161041f906115f7565b60405180910390fd5b005b348015610435575f5ffd5b50610450600480360381019061044b91906116a6565b61050e565b005b34801561045d575f5ffd5b50610478600480360381019061047391906116f6565b6109e5565b6040516104859190611743565b60405180910390f35b348015610499575f5ffd5b506104b460048036038101906104af919061175c565b610c61565b005b6104d060048036038101906104cb91906116f6565b610fa7565b005b3480156104dd575f5ffd5b506104f860048036038101906104f3919061175c565b611388565b6040516105059190611743565b60405180910390f35b5f3373ffffffffffffffffffffffffffffffffffffffff163b146105c5573373ffffffffffffffffffffffffffffffffffffffff167f0ecb93c06e2466c523c3ed0f181f11e5cc9ded3e0b654bc0b9f8a2ed1269facf60405160405180910390a2600160045f3373ffffffffffffffffffffffffffffffffffffffff1673ffffffffffffffffffffffffffffffffffffffff1681526020019081526020015f205f6101000a81548160ff0219169083151502179055505b60045f3373ffffffffffffffffffffffffffffffffffffffff1673ffffffffffffffffffffffffffffffffffffffff1681526020019081526020015f205f9054906101000a900460ff16156106b5578273ffffffffffffffffffffffffffffffffffffffff16823373ffffffffffffffffffffffffffffffffffffffff167ff3ff6628461a09e7f6325423c56503e440bfc7143ac0004f650f5010c01ff4c85f60405161067291906117a1565b60405180910390a46040517f08c379a00000000000000000000000000000000000000000000000000000000081526004016106ac906115f7565b60405180910390fd5b5f6106c033836113ff565b90508373ffffffffffffffffffffffffffffffffffffffff16833373ffffffffffffffffffffffffffffffffffffffff167ff3ff6628461a09e7f6325423c56503e440bfc7143ac0004f650f5010c01ff4c8848015610765575060025f8973ffffffffffffffffffffffffffffffffffffffff1673ffffffffffffffffffffffffffffffffffffffff1681526020019081526020015f205f9054906101000a900460ff165b60405161077291906117a1565b60405180910390a48061078857610787611469565b5b825f5f3373ffffffffffffffffffffffffffffffffffffffff1673ffffffffffffffffffffffffffffffffffffffff1681526020019081526020015f205f6107cf85611388565b81526020019081526020015f20541015610884578373ffffffffffffffffffffffffffffffffffffffff16833373ffffffffffffffffffffffffffffffffffffffff167ff3ff6628461a09e7f6325423c56503e440bfc7143ac0004f650f5010c01ff4c85f60405161084191906117a1565b60405180910390a46040517f08c379a000000000000000000000000000000000000000000000000000000000815260040161087b90611804565b60405180910390fd5b60025f8573ffffffffffffffffffffffffffffffffffffffff1673ffffffffffffffffffffffffffffffffffffffff1681526020019081526020015f205f9054906101000a900460ff1661090d576040517f08c379a00000000000000000000000000000000000000000000000000000000081526004016109049061186c565b60405180910390fd5b825f5f8673ffffffffffffffffffffffffffffffffffffffff1673ffffffffffffffffffffffffffffffffffffffff1681526020019081526020015f205f61095485611388565b81526020019081526020015f205f82825461096f91906118b7565b92505081905550825f5f3373ffffffffffffffffffffffffffffffffffffffff1673ffffffffffffffffffffffffffffffffffffffff1681526020019081526020015f205f6109bd85611388565b81526020019081526020015f205f8282546109d891906118ea565b9250508190555050505050565b5f5f3373ffffffffffffffffffffffffffffffffffffffff163b14610a9d573373ffffffffffffffffffffffffffffffffffffffff167f0ecb93c06e2466c523c3ed0f181f11e5cc9ded3e0b654bc0b9f8a2ed1269facf60405160405180910390a2600160045f3373ffffffffffffffffffffffffffffffffffffffff1673ffffffffffffffffffffffffffffffffffffffff1681526020019081526020015f205f6101000a81548160ff0219169083151502179055505b5f610aa884846113ff565b90508373ffffffffffffffffffffffffffffffffffffffff163373ffffffffffffffffffffffffffffffffffffffff167fd2ea60a2186848e007b6baa64ff0b47f8726c5bf53f0cb37162150dff5d46c7f838015610b4d575060045f3373ffffffffffffffffffffffffffffffffffffffff1673ffffffffffffffffffffffffffffffffffffffff1681526020019081526020015f205f9054906101000a900460ff16155b604051610b5a91906117a1565b60405180910390a360045f3373ffffffffffffffffffffffffffffffffffffffff1673ffffffffffffffffffffffffffffffffffffffff1681526020019081526020015f205f9054906101000a900460ff1615610bec576040517f08c379a0000000000000000000000000000000000000000000000000000000008152600401610be3906115f7565b60405180910390fd5b8015610c4e575f5f8573ffffffffffffffffffffffffffffffffffffffff1673ffffffffffffffffffffffffffffffffffffffff1681526020019081526020015f205f610c3885611388565b81526020019081526020015f2054915050610c5b565b610c56611469565b5f9150505b92915050565b5f3373ffffffffffffffffffffffffffffffffffffffff163b14610d18573373ffffffffffffffffffffffffffffffffffffffff167f0ecb93c06e2466c523c3ed0f181f11e5cc9ded3e0b654bc0b9f8a2ed1269facf60405160405180910390a2600160045f3373ffffffffffffffffffffffffffffffffffffffff1673ffffffffffffffffffffffffffffffffffffffff1681526020019081526020015f205f6101000a81548160ff0219169083151502179055505b60045f3373ffffffffffffffffffffffffffffffffffffffff1673ffffffffffffffffffffffffffffffffffffffff1681526020019081526020015f205f9054906101000a900460ff1615610df1575f3373ffffffffffffffffffffffffffffffffffffffff167f1ace93d63abb1030c7fa4ce5af1271c17a388b5aca35a4f21e5e69c7fa95a3ee5f604051610dae91906117a1565b60405180910390a36040517f08c379a0000000000000000000000000000000000000000000000000000000008152600401610de8906115f7565b60405180910390fd5b5f610dfc33836113ff565b90505f5f3373ffffffffffffffffffffffffffffffffffffffff1673ffffffffffffffffffffffffffffffffffffffff1681526020019081526020015f205f610e4484611388565b81526020019081526020015f20543373ffffffffffffffffffffffffffffffffffffffff167f1ace93d63abb1030c7fa4ce5af1271c17a388b5aca35a4f21e5e69c7fa95a3ee83604051610e9891906117a1565b60405180910390a38015610f9a573373ffffffffffffffffffffffffffffffffffffffff166108fc5f5f3373ffffffffffffffffffffffffffffffffffffffff1673ffffffffffffffffffffffffffffffffffffffff1681526020019081526020015f205f610f0686611388565b81526020019081526020015f205490811502906040515f60405180830381858888f19350505050158015610f3c573d5f5f3e3d5ffd5b505f5f5f3373ffffffffffffffffffffffffffffffffffffffff1673ffffffffffffffffffffffffffffffffffffffff1681526020019081526020015f205f610f8485611388565b81526020019081526020015f2081905550610fa3565b610fa2611469565b5b5050565b5f3373ffffffffffffffffffffffffffffffffffffffff163b1461105e573373ffffffffffffffffffffffffffffffffffffffff167f0ecb93c06e2466c523c3ed0f181f11e5cc9ded3e0b654bc0b9f8a2ed1269facf60405160405180910390a2600160045f3373ffffffffffffffffffffffffffffffffffffffff1673ffffffffffffffffffffffffffffffffffffffff1681526020019081526020015f205f6101000a81548160ff0219169083151502179055505b60045f3373ffffffffffffffffffffffffffffffffffffffff1673ffffffffffffffffffffffffffffffffffffffff1681526020019081526020015f205f9054906101000a900460ff1615611183575f5f8373ffffffffffffffffffffffffffffffffffffffff1673ffffffffffffffffffffffffffffffffffffffff1681526020019081526020015f205f8281526020019081526020015f20548273ffffffffffffffffffffffffffffffffffffffff16347f8bcd11857e6a3be2869200dad8a50365a705c0d72f71b2e96f28837226cd3f7f5f60405161114091906117a1565b60405180910390a46040517f08c379a000000000000000000000000000000000000000000000000000000000815260040161117a906115f7565b60405180910390fd5b5f5f34119050345f5f8573ffffffffffffffffffffffffffffffffffffffff1673ffffffffffffffffffffffffffffffffffffffff1681526020019081526020015f205f8481526020019081526020015f205f8282546111e391906118b7565b925050819055505f5f8473ffffffffffffffffffffffffffffffffffffffff1673ffffffffffffffffffffffffffffffffffffffff1681526020019081526020015f205f8381526020019081526020015f20548373ffffffffffffffffffffffffffffffffffffffff16347f8bcd11857e6a3be2869200dad8a50365a705c0d72f71b2e96f28837226cd3f7f8460405161127d91906117a1565b60405180910390a4801561134857600160025f8573ffffffffffffffffffffffffffffffffffffffff1673ffffffffffffffffffffffffffffffffffffffff1681526020019081526020015f205f6101000a81548160ff0219169083151502179055506001805f8573ffffffffffffffffffffffffffffffffffffffff1673ffffffffffffffffffffffffffffffffffffffff1681526020019081526020015f205f8481526020019081526020015f205f6101000a81548160ff021916908315150217905550611383565b6040517f08c379a000000000000000000000000000000000000000000000000000000000815260040161137a90611967565b60405180910390fd5b505050565b5f60028260405160200161139c9190611743565b6040516020818303038152906040526040516113b891906119d7565b602060405180830381855afa1580156113d3573d5f5f3e3d5ffd5b5050506040513d601f19601f820116820180604052508101906113f69190611a20565b5f1c9050919050565b5f60015f8473ffffffffffffffffffffffffffffffffffffffff1673ffffffffffffffffffffffffffffffffffffffff1681526020019081526020015f205f61144784611388565b81526020019081526020015f205f9054906101000a900460ff16905092915050565b600160035f3373ffffffffffffffffffffffffffffffffffffffff1673ffffffffffffffffffffffffffffffffffffffff1681526020019081526020015f205f8282546114b691906118b7565b92505081905550600260035f3373ffffffffffffffffffffffffffffffffffffffff1673ffffffffffffffffffffffffffffffffffffffff1681526020019081526020015f20541061159b57600160045f3373ffffffffffffffffffffffffffffffffffffffff1673ffffffffffffffffffffffffffffffffffffffff1681526020019081526020015f205f6101000a81548160ff0219169083151502179055503373ffffffffffffffffffffffffffffffffffffffff167f0ecb93c06e2466c523c3ed0f181f11e5cc9ded3e0b654bc0b9f8a2ed1269facf60405160405180910390a25b565b5f82825260208201905092915050565b7f796f752061726520696e2074686520626c61636b206c697374000000000000005f82015250565b5f6115e160198361159d565b91506115ec826115ad565b602082019050919050565b5f6020820190508181035f83015261160e816115d5565b9050919050565b5f5ffd5b5f73ffffffffffffffffffffffffffffffffffffffff82169050919050565b5f61164282611619565b9050919050565b61165281611638565b811461165c575f5ffd5b50565b5f8135905061166d81611649565b92915050565b5f819050919050565b61168581611673565b811461168f575f5ffd5b50565b5f813590506116a08161167c565b92915050565b5f5f5f606084860312156116bd576116bc611615565b5b5f6116ca8682870161165f565b93505060206116db86828701611692565b92505060406116ec86828701611692565b9150509250925092565b5f5f6040838503121561170c5761170b611615565b5b5f6117198582860161165f565b925050602061172a85828601611692565b9150509250929050565b61173d81611673565b82525050565b5f6020820190506117565f830184611734565b92915050565b5f6020828403121561177157611770611615565b5b5f61177e84828501611692565b91505092915050565b5f8115159050919050565b61179b81611787565b82525050565b5f6020820190506117b45f830184611792565b92915050565b7f6e6f7420656e6f7567682062616c616e636500000000000000000000000000005f82015250565b5f6117ee60128361159d565b91506117f9826117ba565b602082019050919050565b5f6020820190508181035f83015261181b816117e2565b9050919050565b7f60746f602061646472657373206e6f7420696e207468652062616e6b000000005f82015250565b5f611856601c8361159d565b915061186182611822565b602082019050919050565b5f6020820190508181035f8301526118838161184a565b9050919050565b7f4e487b71000000000000000000000000000000000000000000000000000000005f52601160045260245ffd5b5f6118c182611673565b91506118cc83611673565b92508282019050808211156118e4576118e361188a565b5b92915050565b5f6118f482611673565b91506118ff83611673565b92508282039050818111156119175761191661188a565b5b92915050565b7f6e6f7420616c6c6f77203020616d6f756e74206465706f7369740000000000005f82015250565b5f611951601a8361159d565b915061195c8261191d565b602082019050919050565b5f6020820190508181035f83015261197e81611945565b9050919050565b5f81519050919050565b5f81905092915050565b8281835e5f83830152505050565b5f6119b182611985565b6119bb818561198f565b93506119cb818560208601611999565b80840191505092915050565b5f6119e282846119a7565b915081905092915050565b5f819050919050565b6119ff816119ed565b8114611a09575f5ffd5b50565b5f81519050611a1a816119f6565b92915050565b5f60208284031215611a3557611a34611615565b5b5f611a4284828501611a0c565b9150509291505056fea2646970667358221220eb3ac55699c6c888bc5414a073aea30b9e07bb49148b8d08e1b8e30336d889bc64736f6c634300081e0033",
					"opcodes": "PUSH1 0x80 PUSH1 0x40 MSTORE CALLVALUE DUP1 ISZERO PUSH1 0xE JUMPI PUSH0 PUSH0 REVERT JUMPDEST POP CALLER PUSH1 0x5 PUSH0 PUSH2 0x100 EXP DUP2 SLOAD DUP2 PUSH20 0xFFFFFFFFFFFFFFFFFFFFFFFFFFFFFFFFFFFFFFFF MUL NOT AND SWAP1 DUP4 PUSH20 0xFFFFFFFFFFFFFFFFFFFFFFFFFFFFFFFFFFFFFFFF AND MUL OR SWAP1 SSTORE POP PUSH2 0x1A81 DUP1 PUSH2 0x5C PUSH0 CODECOPY PUSH0 RETURN INVALID PUSH1 0x80 PUSH1 0x40 MSTORE PUSH1 0x4 CALLDATASIZE LT PUSH2 0x4D JUMPI PUSH0 CALLDATALOAD PUSH1 0xE0 SHR DUP1 PUSH4 0x95BCDB6 EQ PUSH2 0x42A JUMPI DUP1 PUSH4 0x2B04E840 EQ PUSH2 0x452 JUMPI DUP1 PUSH4 0x2E1A7D4D EQ PUSH2 0x48E JUMPI DUP1 PUSH4 0x47E7EF24 EQ PUSH2 0x4B6 JUMPI DUP1 PUSH4 0xB189FD4C EQ PUSH2 0x4D2 JUMPI PUSH2 0x23E JUMP JUMPDEST CALLDATASIZE PUSH2 0x23E JUMPI PUSH0 CALLER PUSH20 0xFFFFFFFFFFFFFFFFFFFFFFFFFFFFFFFFFFFFFFFF AND EXTCODESIZE EQ PUSH2 0x109 JUMPI CALLER PUSH20 0xFFFFFFFFFFFFFFFFFFFFFFFFFFFFFFFFFFFFFFFF AND PUSH32 0xECB93C06E2466C523C3ED0F181F11E5CC9DED3E0B654BC0B9F8A2ED1269FACF PUSH1 0x40 MLOAD PUSH1 0x40 MLOAD DUP1 SWAP2 SUB SWAP1 LOG2 PUSH1 0x1 PUSH1 0x4 PUSH0 CALLER PUSH20 0xFFFFFFFFFFFFFFFFFFFFFFFFFFFFFFFFFFFFFFFF AND PUSH20 0xFFFFFFFFFFFFFFFFFFFFFFFFFFFFFFFFFFFFFFFF AND DUP2 MSTORE PUSH1 0x20 ADD SWAP1 DUP2 MSTORE PUSH1 0x20 ADD PUSH0 KECCAK256 PUSH0 PUSH2 0x100 EXP DUP2 SLOAD DUP2 PUSH1 0xFF MUL NOT AND SWAP1 DUP4 ISZERO ISZERO MUL OR SWAP1 SSTORE POP JUMPDEST PUSH1 0x5 PUSH0 SWAP1 SLOAD SWAP1 PUSH2 0x100 EXP SWAP1 DIV PUSH20 0xFFFFFFFFFFFFFFFFFFFFFFFFFFFFFFFFFFFFFFFF AND PUSH20 0xFFFFFFFFFFFFFFFFFFFFFFFFFFFFFFFFFFFFFFFF AND PUSH2 0x8FC CALLVALUE SWAP1 DUP2 ISZERO MUL SWAP1 PUSH1 0x40 MLOAD PUSH0 PUSH1 0x40 MLOAD DUP1 DUP4 SUB DUP2 DUP6 DUP9 DUP9 CALL SWAP4 POP POP POP POP ISZERO DUP1 ISZERO PUSH2 0x16D JUMPI RETURNDATASIZE PUSH0 PUSH0 RETURNDATACOPY RETURNDATASIZE PUSH0 REVERT JUMPDEST POP CALLVALUE CALLER PUSH20 0xFFFFFFFFFFFFFFFFFFFFFFFFFFFFFFFFFFFFFFFF AND PUSH32 0x6B9FA43CFEA9ED40DD7C399B06EE5001C6ECA7B2B54D816D37899AC48CA0C255 PUSH1 0x40 MLOAD PUSH1 0x40 MLOAD DUP1 SWAP2 SUB SWAP1 LOG3 PUSH1 0x4 PUSH0 CALLER PUSH20 0xFFFFFFFFFFFFFFFFFFFFFFFFFFFFFFFFFFFFFFFF AND PUSH20 0xFFFFFFFFFFFFFFFFFFFFFFFFFFFFFFFFFFFFFFFF AND DUP2 MSTORE PUSH1 0x20 ADD SWAP1 DUP2 MSTORE PUSH1 0x20 ADD PUSH0 KECCAK256 PUSH0 SWAP1 SLOAD SWAP1 PUSH2 0x100 EXP SWAP1 DIV PUSH1 0xFF AND ISZERO PUSH2 0x23C JUMPI PUSH1 0x40 MLOAD PUSH32 0x8C379A000000000000000000000000000000000000000000000000000000000 DUP2 MSTORE PUSH1 0x4 ADD PUSH2 0x233 SWAP1 PUSH2 0x15F7 JUMP JUMPDEST PUSH1 0x40 MLOAD DUP1 SWAP2 SUB SWAP1 REVERT JUMPDEST STOP JUMPDEST PUSH0 CALLER PUSH20 0xFFFFFFFFFFFFFFFFFFFFFFFFFFFFFFFFFFFFFFFF AND EXTCODESIZE EQ PUSH2 0x2F5 JUMPI CALLER PUSH20 0xFFFFFFFFFFFFFFFFFFFFFFFFFFFFFFFFFFFFFFFF AND PUSH32 0xECB93C06E2466C523C3ED0F181F11E5CC9DED3E0B654BC0B9F8A2ED1269FACF PUSH1 0x40 MLOAD PUSH1 0x40 MLOAD DUP1 SWAP2 SUB SWAP1 LOG2 PUSH1 0x1 PUSH1 0x4 PUSH0 CALLER PUSH20 0xFFFFFFFFFFFFFFFFFFFFFFFFFFFFFFFFFFFFFFFF AND PUSH20 0xFFFFFFFFFFFFFFFFFFFFFFFFFFFFFFFFFFFFFFFF AND DUP2 MSTORE PUSH1 0x20 ADD SWAP1 DUP2 MSTORE PUSH1 0x20 ADD PUSH0 KECCAK256 PUSH0 PUSH2 0x100 EXP DUP2 SLOAD DUP2 PUSH1 0xFF MUL NOT AND SWAP1 DUP4 ISZERO ISZERO MUL OR SWAP1 SSTORE POP JUMPDEST PUSH1 0x5 PUSH0 SWAP1 SLOAD SWAP1 PUSH2 0x100 EXP SWAP1 DIV PUSH20 0xFFFFFFFFFFFFFFFFFFFFFFFFFFFFFFFFFFFFFFFF AND PUSH20 0xFFFFFFFFFFFFFFFFFFFFFFFFFFFFFFFFFFFFFFFF AND PUSH2 0x8FC CALLVALUE SWAP1 DUP2 ISZERO MUL SWAP1 PUSH1 0x40 MLOAD PUSH0 PUSH1 0x40 MLOAD DUP1 DUP4 SUB DUP2 DUP6 DUP9 DUP9 CALL SWAP4 POP POP POP POP ISZERO DUP1 ISZERO PUSH2 0x359 JUMPI RETURNDATASIZE PUSH0 PUSH0 RETURNDATACOPY RETURNDATASIZE PUSH0 REVERT JUMPDEST POP CALLVALUE CALLER PUSH20 0xFFFFFFFFFFFFFFFFFFFFFFFFFFFFFFFFFFFFFFFF AND PUSH32 0x6B9FA43CFEA9ED40DD7C399B06EE5001C6ECA7B2B54D816D37899AC48CA0C255 PUSH1 0x40 MLOAD PUSH1 0x40 MLOAD DUP1 SWAP2 SUB SWAP1 LOG3 PUSH1 0x4 PUSH0 CALLER PUSH20 0xFFFFFFFFFFFFFFFFFFFFFFFFFFFFFFFFFFFFFFFF AND PUSH20 0xFFFFFFFFFFFFFFFFFFFFFFFFFFFFFFFFFFFFFFFF AND DUP2 MSTORE PUSH1 0x20 ADD SWAP1 DUP2 MSTORE PUSH1 0x20 ADD PUSH0 KECCAK256 PUSH0 SWAP1 SLOAD SWAP1 PUSH2 0x100 EXP SWAP1 DIV PUSH1 0xFF AND ISZERO PUSH2 0x428 JUMPI PUSH1 0x40 MLOAD PUSH32 0x8C379A000000000000000000000000000000000000000000000000000000000 DUP2 MSTORE PUSH1 0x4 ADD PUSH2 0x41F SWAP1 PUSH2 0x15F7 JUMP JUMPDEST PUSH1 0x40 MLOAD DUP1 SWAP2 SUB SWAP1 REVERT JUMPDEST STOP JUMPDEST CALLVALUE DUP1 ISZERO PUSH2 0x435 JUMPI PUSH0 PUSH0 REVERT JUMPDEST POP PUSH2 0x450 PUSH1 0x4 DUP1 CALLDATASIZE SUB DUP2 ADD SWAP1 PUSH2 0x44B SWAP2 SWAP1 PUSH2 0x16A6 JUMP JUMPDEST PUSH2 0x50E JUMP JUMPDEST STOP JUMPDEST CALLVALUE DUP1 ISZERO PUSH2 0x45D JUMPI PUSH0 PUSH0 REVERT JUMPDEST POP PUSH2 0x478 PUSH1 0x4 DUP1 CALLDATASIZE SUB DUP2 ADD SWAP1 PUSH2 0x473 SWAP2 SWAP1 PUSH2 0x16F6 JUMP JUMPDEST PUSH2 0x9E5 JUMP JUMPDEST PUSH1 0x40 MLOAD PUSH2 0x485 SWAP2 SWAP1 PUSH2 0x1743 JUMP JUMPDEST PUSH1 0x40 MLOAD DUP1 SWAP2 SUB SWAP1 RETURN JUMPDEST CALLVALUE DUP1 ISZERO PUSH2 0x499 JUMPI PUSH0 PUSH0 REVERT JUMPDEST POP PUSH2 0x4B4 PUSH1 0x4 DUP1 CALLDATASIZE SUB DUP2 ADD SWAP1 PUSH2 0x4AF SWAP2 SWAP1 PUSH2 0x175C JUMP JUMPDEST PUSH2 0xC61 JUMP JUMPDEST STOP JUMPDEST PUSH2 0x4D0 PUSH1 0x4 DUP1 CALLDATASIZE SUB DUP2 ADD SWAP1 PUSH2 0x4CB SWAP2 SWAP1 PUSH2 0x16F6 JUMP JUMPDEST PUSH2 0xFA7 JUMP JUMPDEST STOP JUMPDEST CALLVALUE DUP1 ISZERO PUSH2 0x4DD JUMPI PUSH0 PUSH0 REVERT JUMPDEST POP PUSH2 0x4F8 PUSH1 0x4 DUP1 CALLDATASIZE SUB DUP2 ADD SWAP1 PUSH2 0x4F3 SWAP2 SWAP1 PUSH2 0x175C JUMP JUMPDEST PUSH2 0x1388 JUMP JUMPDEST PUSH1 0x40 MLOAD PUSH2 0x505 SWAP2 SWAP1 PUSH2 0x1743 JUMP JUMPDEST PUSH1 0x40 MLOAD DUP1 SWAP2 SUB SWAP1 RETURN JUMPDEST PUSH0 CALLER PUSH20 0xFFFFFFFFFFFFFFFFFFFFFFFFFFFFFFFFFFFFFFFF AND EXTCODESIZE EQ PUSH2 0x5C5 JUMPI CALLER PUSH20 0xFFFFFFFFFFFFFFFFFFFFFFFFFFFFFFFFFFFFFFFF AND PUSH32 0xECB93C06E2466C523C3ED0F181F11E5CC9DED3E0B654BC0B9F8A2ED1269FACF PUSH1 0x40 MLOAD PUSH1 0x40 MLOAD DUP1 SWAP2 SUB SWAP1 LOG2 PUSH1 0x1 PUSH1 0x4 PUSH0 CALLER PUSH20 0xFFFFFFFFFFFFFFFFFFFFFFFFFFFFFFFFFFFFFFFF AND PUSH20 0xFFFFFFFFFFFFFFFFFFFFFFFFFFFFFFFFFFFFFFFF AND DUP2 MSTORE PUSH1 0x20 ADD SWAP1 DUP2 MSTORE PUSH1 0x20 ADD PUSH0 KECCAK256 PUSH0 PUSH2 0x100 EXP DUP2 SLOAD DUP2 PUSH1 0xFF MUL NOT AND SWAP1 DUP4 ISZERO ISZERO MUL OR SWAP1 SSTORE POP JUMPDEST PUSH1 0x4 PUSH0 CALLER PUSH20 0xFFFFFFFFFFFFFFFFFFFFFFFFFFFFFFFFFFFFFFFF AND PUSH20 0xFFFFFFFFFFFFFFFFFFFFFFFFFFFFFFFFFFFFFFFF AND DUP2 MSTORE PUSH1 0x20 ADD SWAP1 DUP2 MSTORE PUSH1 0x20 ADD PUSH0 KECCAK256 PUSH0 SWAP1 SLOAD SWAP1 PUSH2 0x100 EXP SWAP1 DIV PUSH1 0xFF AND ISZERO PUSH2 0x6B5 JUMPI DUP3 PUSH20 0xFFFFFFFFFFFFFFFFFFFFFFFFFFFFFFFFFFFFFFFF AND DUP3 CALLER PUSH20 0xFFFFFFFFFFFFFFFFFFFFFFFFFFFFFFFFFFFFFFFF AND PUSH32 0xF3FF6628461A09E7F6325423C56503E440BFC7143AC0004F650F5010C01FF4C8 PUSH0 PUSH1 0x40 MLOAD PUSH2 0x672 SWAP2 SWAP1 PUSH2 0x17A1 JUMP JUMPDEST PUSH1 0x40 MLOAD DUP1 SWAP2 SUB SWAP1 LOG4 PUSH1 0x40 MLOAD PUSH32 0x8C379A000000000000000000000000000000000000000000000000000000000 DUP2 MSTORE PUSH1 0x4 ADD PUSH2 0x6AC SWAP1 PUSH2 0x15F7 JUMP JUMPDEST PUSH1 0x40 MLOAD DUP1 SWAP2 SUB SWAP1 REVERT JUMPDEST PUSH0 PUSH2 0x6C0 CALLER DUP4 PUSH2 0x13FF JUMP JUMPDEST SWAP1 POP DUP4 PUSH20 0xFFFFFFFFFFFFFFFFFFFFFFFFFFFFFFFFFFFFFFFF AND DUP4 CALLER PUSH20 0xFFFFFFFFFFFFFFFFFFFFFFFFFFFFFFFFFFFFFFFF AND PUSH32 0xF3FF6628461A09E7F6325423C56503E440BFC7143AC0004F650F5010C01FF4C8 DUP5 DUP1 ISZERO PUSH2 0x765 JUMPI POP PUSH1 0x2 PUSH0 DUP10 PUSH20 0xFFFFFFFFFFFFFFFFFFFFFFFFFFFFFFFFFFFFFFFF AND PUSH20 0xFFFFFFFFFFFFFFFFFFFFFFFFFFFFFFFFFFFFFFFF AND DUP2 MSTORE PUSH1 0x20 ADD SWAP1 DUP2 MSTORE PUSH1 0x20 ADD PUSH0 KECCAK256 PUSH0 SWAP1 SLOAD SWAP1 PUSH2 0x100 EXP SWAP1 DIV PUSH1 0xFF AND JUMPDEST PUSH1 0x40 MLOAD PUSH2 0x772 SWAP2 SWAP1 PUSH2 0x17A1 JUMP JUMPDEST PUSH1 0x40 MLOAD DUP1 SWAP2 SUB SWAP1 LOG4 DUP1 PUSH2 0x788 JUMPI PUSH2 0x787 PUSH2 0x1469 JUMP JUMPDEST JUMPDEST DUP3 PUSH0 PUSH0 CALLER PUSH20 0xFFFFFFFFFFFFFFFFFFFFFFFFFFFFFFFFFFFFFFFF AND PUSH20 0xFFFFFFFFFFFFFFFFFFFFFFFFFFFFFFFFFFFFFFFF AND DUP2 MSTORE PUSH1 0x20 ADD SWAP1 DUP2 MSTORE PUSH1 0x20 ADD PUSH0 KECCAK256 PUSH0 PUSH2 0x7CF DUP6 PUSH2 0x1388 JUMP JUMPDEST DUP2 MSTORE PUSH1 0x20 ADD SWAP1 DUP2 MSTORE PUSH1 0x20 ADD PUSH0 KECCAK256 SLOAD LT ISZERO PUSH2 0x884 JUMPI DUP4 PUSH20 0xFFFFFFFFFFFFFFFFFFFFFFFFFFFFFFFFFFFFFFFF AND DUP4 CALLER PUSH20 0xFFFFFFFFFFFFFFFFFFFFFFFFFFFFFFFFFFFFFFFF AND PUSH32 0xF3FF6628461A09E7F6325423C56503E440BFC7143AC0004F650F5010C01FF4C8 PUSH0 PUSH1 0x40 MLOAD PUSH2 0x841 SWAP2 SWAP1 PUSH2 0x17A1 JUMP JUMPDEST PUSH1 0x40 MLOAD DUP1 SWAP2 SUB SWAP1 LOG4 PUSH1 0x40 MLOAD PUSH32 0x8C379A000000000000000000000000000000000000000000000000000000000 DUP2 MSTORE PUSH1 0x4 ADD PUSH2 0x87B SWAP1 PUSH2 0x1804 JUMP JUMPDEST PUSH1 0x40 MLOAD DUP1 SWAP2 SUB SWAP1 REVERT JUMPDEST PUSH1 0x2 PUSH0 DUP6 PUSH20 0xFFFFFFFFFFFFFFFFFFFFFFFFFFFFFFFFFFFFFFFF AND PUSH20 0xFFFFFFFFFFFFFFFFFFFFFFFFFFFFFFFFFFFFFFFF AND DUP2 MSTORE PUSH1 0x20 ADD SWAP1 DUP2 MSTORE PUSH1 0x20 ADD PUSH0 KECCAK256 PUSH0 SWAP1 SLOAD SWAP1 PUSH2 0x100 EXP SWAP1 DIV PUSH1 0xFF AND PUSH2 0x90D JUMPI PUSH1 0x40 MLOAD PUSH32 0x8C379A000000000000000000000000000000000000000000000000000000000 DUP2 MSTORE PUSH1 0x4 ADD PUSH2 0x904 SWAP1 PUSH2 0x186C JUMP JUMPDEST PUSH1 0x40 MLOAD DUP1 SWAP2 SUB SWAP1 REVERT JUMPDEST DUP3 PUSH0 PUSH0 DUP7 PUSH20 0xFFFFFFFFFFFFFFFFFFFFFFFFFFFFFFFFFFFFFFFF AND PUSH20 0xFFFFFFFFFFFFFFFFFFFFFFFFFFFFFFFFFFFFFFFF AND DUP2 MSTORE PUSH1 0x20 ADD SWAP1 DUP2 MSTORE PUSH1 0x20 ADD PUSH0 KECCAK256 PUSH0 PUSH2 0x954 DUP6 PUSH2 0x1388 JUMP JUMPDEST DUP2 MSTORE PUSH1 0x20 ADD SWAP1 DUP2 MSTORE PUSH1 0x20 ADD PUSH0 KECCAK256 PUSH0 DUP3 DUP3 SLOAD PUSH2 0x96F SWAP2 SWAP1 PUSH2 0x18B7 JUMP JUMPDEST SWAP3 POP POP DUP2 SWAP1 SSTORE POP DUP3 PUSH0 PUSH0 CALLER PUSH20 0xFFFFFFFFFFFFFFFFFFFFFFFFFFFFFFFFFFFFFFFF AND PUSH20 0xFFFFFFFFFFFFFFFFFFFFFFFFFFFFFFFFFFFFFFFF AND DUP2 MSTORE PUSH1 0x20 ADD SWAP1 DUP2 MSTORE PUSH1 0x20 ADD PUSH0 KECCAK256 PUSH0 PUSH2 0x9BD DUP6 PUSH2 0x1388 JUMP JUMPDEST DUP2 MSTORE PUSH1 0x20 ADD SWAP1 DUP2 MSTORE PUSH1 0x20 ADD PUSH0 KECCAK256 PUSH0 DUP3 DUP3 SLOAD PUSH2 0x9D8 SWAP2 SWAP1 PUSH2 0x18EA JUMP JUMPDEST SWAP3 POP POP DUP2 SWAP1 SSTORE POP POP POP POP POP JUMP JUMPDEST PUSH0 PUSH0 CALLER PUSH20 0xFFFFFFFFFFFFFFFFFFFFFFFFFFFFFFFFFFFFFFFF AND EXTCODESIZE EQ PUSH2 0xA9D JUMPI CALLER PUSH20 0xFFFFFFFFFFFFFFFFFFFFFFFFFFFFFFFFFFFFFFFF AND PUSH32 0xECB93C06E2466C523C3ED0F181F11E5CC9DED3E0B654BC0B9F8A2ED1269FACF PUSH1 0x40 MLOAD PUSH1 0x40 MLOAD DUP1 SWAP2 SUB SWAP1 LOG2 PUSH1 0x1 PUSH1 0x4 PUSH0 CALLER PUSH20 0xFFFFFFFFFFFFFFFFFFFFFFFFFFFFFFFFFFFFFFFF AND PUSH20 0xFFFFFFFFFFFFFFFFFFFFFFFFFFFFFFFFFFFFFFFF AND DUP2 MSTORE PUSH1 0x20 ADD SWAP1 DUP2 MSTORE PUSH1 0x20 ADD PUSH0 KECCAK256 PUSH0 PUSH2 0x100 EXP DUP2 SLOAD DUP2 PUSH1 0xFF MUL NOT AND SWAP1 DUP4 ISZERO ISZERO MUL OR SWAP1 SSTORE POP JUMPDEST PUSH0 PUSH2 0xAA8 DUP5 DUP5 PUSH2 0x13FF JUMP JUMPDEST SWAP1 POP DUP4 PUSH20 0xFFFFFFFFFFFFFFFFFFFFFFFFFFFFFFFFFFFFFFFF AND CALLER PUSH20 0xFFFFFFFFFFFFFFFFFFFFFFFFFFFFFFFFFFFFFFFF AND PUSH32 0xD2EA60A2186848E007B6BAA64FF0B47F8726C5BF53F0CB37162150DFF5D46C7F DUP4 DUP1 ISZERO PUSH2 0xB4D JUMPI POP PUSH1 0x4 PUSH0 CALLER PUSH20 0xFFFFFFFFFFFFFFFFFFFFFFFFFFFFFFFFFFFFFFFF AND PUSH20 0xFFFFFFFFFFFFFFFFFFFFFFFFFFFFFFFFFFFFFFFF AND DUP2 MSTORE PUSH1 0x20 ADD SWAP1 DUP2 MSTORE PUSH1 0x20 ADD PUSH0 KECCAK256 PUSH0 SWAP1 SLOAD SWAP1 PUSH2 0x100 EXP SWAP1 DIV PUSH1 0xFF AND ISZERO JUMPDEST PUSH1 0x40 MLOAD PUSH2 0xB5A SWAP2 SWAP1 PUSH2 0x17A1 JUMP JUMPDEST PUSH1 0x40 MLOAD DUP1 SWAP2 SUB SWAP1 LOG3 PUSH1 0x4 PUSH0 CALLER PUSH20 0xFFFFFFFFFFFFFFFFFFFFFFFFFFFFFFFFFFFFFFFF AND PUSH20 0xFFFFFFFFFFFFFFFFFFFFFFFFFFFFFFFFFFFFFFFF AND DUP2 MSTORE PUSH1 0x20 ADD SWAP1 DUP2 MSTORE PUSH1 0x20 ADD PUSH0 KECCAK256 PUSH0 SWAP1 SLOAD SWAP1 PUSH2 0x100 EXP SWAP1 DIV PUSH1 0xFF AND ISZERO PUSH2 0xBEC JUMPI PUSH1 0x40 MLOAD PUSH32 0x8C379A000000000000000000000000000000000000000000000000000000000 DUP2 MSTORE PUSH1 0x4 ADD PUSH2 0xBE3 SWAP1 PUSH2 0x15F7 JUMP JUMPDEST PUSH1 0x40 MLOAD DUP1 SWAP2 SUB SWAP1 REVERT JUMPDEST DUP1 ISZERO PUSH2 0xC4E JUMPI PUSH0 PUSH0 DUP6 PUSH20 0xFFFFFFFFFFFFFFFFFFFFFFFFFFFFFFFFFFFFFFFF AND PUSH20 0xFFFFFFFFFFFFFFFFFFFFFFFFFFFFFFFFFFFFFFFF AND DUP2 MSTORE PUSH1 0x20 ADD SWAP1 DUP2 MSTORE PUSH1 0x20 ADD PUSH0 KECCAK256 PUSH0 PUSH2 0xC38 DUP6 PUSH2 0x1388 JUMP JUMPDEST DUP2 MSTORE PUSH1 0x20 ADD SWAP1 DUP2 MSTORE PUSH1 0x20 ADD PUSH0 KECCAK256 SLOAD SWAP2 POP POP PUSH2 0xC5B JUMP JUMPDEST PUSH2 0xC56 PUSH2 0x1469 JUMP JUMPDEST PUSH0 SWAP2 POP POP JUMPDEST SWAP3 SWAP2 POP POP JUMP JUMPDEST PUSH0 CALLER PUSH20 0xFFFFFFFFFFFFFFFFFFFFFFFFFFFFFFFFFFFFFFFF AND EXTCODESIZE EQ PUSH2 0xD18 JUMPI CALLER PUSH20 0xFFFFFFFFFFFFFFFFFFFFFFFFFFFFFFFFFFFFFFFF AND PUSH32 0xECB93C06E2466C523C3ED0F181F11E5CC9DED3E0B654BC0B9F8A2ED1269FACF PUSH1 0x40 MLOAD PUSH1 0x40 MLOAD DUP1 SWAP2 SUB SWAP1 LOG2 PUSH1 0x1 PUSH1 0x4 PUSH0 CALLER PUSH20 0xFFFFFFFFFFFFFFFFFFFFFFFFFFFFFFFFFFFFFFFF AND PUSH20 0xFFFFFFFFFFFFFFFFFFFFFFFFFFFFFFFFFFFFFFFF AND DUP2 MSTORE PUSH1 0x20 ADD SWAP1 DUP2 MSTORE PUSH1 0x20 ADD PUSH0 KECCAK256 PUSH0 PUSH2 0x100 EXP DUP2 SLOAD DUP2 PUSH1 0xFF MUL NOT AND SWAP1 DUP4 ISZERO ISZERO MUL OR SWAP1 SSTORE POP JUMPDEST PUSH1 0x4 PUSH0 CALLER PUSH20 0xFFFFFFFFFFFFFFFFFFFFFFFFFFFFFFFFFFFFFFFF AND PUSH20 0xFFFFFFFFFFFFFFFFFFFFFFFFFFFFFFFFFFFFFFFF AND DUP2 MSTORE PUSH1 0x20 ADD SWAP1 DUP2 MSTORE PUSH1 0x20 ADD PUSH0 KECCAK256 PUSH0 SWAP1 SLOAD SWAP1 PUSH2 0x100 EXP SWAP1 DIV PUSH1 0xFF AND ISZERO PUSH2 0xDF1 JUMPI PUSH0 CALLER PUSH20 0xFFFFFFFFFFFFFFFFFFFFFFFFFFFFFFFFFFFFFFFF AND PUSH32 0x1ACE93D63ABB1030C7FA4CE5AF1271C17A388B5ACA35A4F21E5E69C7FA95A3EE PUSH0 PUSH1 0x40 MLOAD PUSH2 0xDAE SWAP2 SWAP1 PUSH2 0x17A1 JUMP JUMPDEST PUSH1 0x40 MLOAD DUP1 SWAP2 SUB SWAP1 LOG3 PUSH1 0x40 MLOAD PUSH32 0x8C379A000000000000000000000000000000000000000000000000000000000 DUP2 MSTORE PUSH1 0x4 ADD PUSH2 0xDE8 SWAP1 PUSH2 0x15F7 JUMP JUMPDEST PUSH1 0x40 MLOAD DUP1 SWAP2 SUB SWAP1 REVERT JUMPDEST PUSH0 PUSH2 0xDFC CALLER DUP4 PUSH2 0x13FF JUMP JUMPDEST SWAP1 POP PUSH0 PUSH0 CALLER PUSH20 0xFFFFFFFFFFFFFFFFFFFFFFFFFFFFFFFFFFFFFFFF AND PUSH20 0xFFFFFFFFFFFFFFFFFFFFFFFFFFFFFFFFFFFFFFFF AND DUP2 MSTORE PUSH1 0x20 ADD SWAP1 DUP2 MSTORE PUSH1 0x20 ADD PUSH0 KECCAK256 PUSH0 PUSH2 0xE44 DUP5 PUSH2 0x1388 JUMP JUMPDEST DUP2 MSTORE PUSH1 0x20 ADD SWAP1 DUP2 MSTORE PUSH1 0x20 ADD PUSH0 KECCAK256 SLOAD CALLER PUSH20 0xFFFFFFFFFFFFFFFFFFFFFFFFFFFFFFFFFFFFFFFF AND PUSH32 0x1ACE93D63ABB1030C7FA4CE5AF1271C17A388B5ACA35A4F21E5E69C7FA95A3EE DUP4 PUSH1 0x40 MLOAD PUSH2 0xE98 SWAP2 SWAP1 PUSH2 0x17A1 JUMP JUMPDEST PUSH1 0x40 MLOAD DUP1 SWAP2 SUB SWAP1 LOG3 DUP1 ISZERO PUSH2 0xF9A JUMPI CALLER PUSH20 0xFFFFFFFFFFFFFFFFFFFFFFFFFFFFFFFFFFFFFFFF AND PUSH2 0x8FC PUSH0 PUSH0 CALLER PUSH20 0xFFFFFFFFFFFFFFFFFFFFFFFFFFFFFFFFFFFFFFFF AND PUSH20 0xFFFFFFFFFFFFFFFFFFFFFFFFFFFFFFFFFFFFFFFF AND DUP2 MSTORE PUSH1 0x20 ADD SWAP1 DUP2 MSTORE PUSH1 0x20 ADD PUSH0 KECCAK256 PUSH0 PUSH2 0xF06 DUP7 PUSH2 0x1388 JUMP JUMPDEST DUP2 MSTORE PUSH1 0x20 ADD SWAP1 DUP2 MSTORE PUSH1 0x20 ADD PUSH0 KECCAK256 SLOAD SWAP1 DUP2 ISZERO MUL SWAP1 PUSH1 0x40 MLOAD PUSH0 PUSH1 0x40 MLOAD DUP1 DUP4 SUB DUP2 DUP6 DUP9 DUP9 CALL SWAP4 POP POP POP POP ISZERO DUP1 ISZERO PUSH2 0xF3C JUMPI RETURNDATASIZE PUSH0 PUSH0 RETURNDATACOPY RETURNDATASIZE PUSH0 REVERT JUMPDEST POP PUSH0 PUSH0 PUSH0 CALLER PUSH20 0xFFFFFFFFFFFFFFFFFFFFFFFFFFFFFFFFFFFFFFFF AND PUSH20 0xFFFFFFFFFFFFFFFFFFFFFFFFFFFFFFFFFFFFFFFF AND DUP2 MSTORE PUSH1 0x20 ADD SWAP1 DUP2 MSTORE PUSH1 0x20 ADD PUSH0 KECCAK256 PUSH0 PUSH2 0xF84 DUP6 PUSH2 0x1388 JUMP JUMPDEST DUP2 MSTORE PUSH1 0x20 ADD SWAP1 DUP2 MSTORE PUSH1 0x20 ADD PUSH0 KECCAK256 DUP2 SWAP1 SSTORE POP PUSH2 0xFA3 JUMP JUMPDEST PUSH2 0xFA2 PUSH2 0x1469 JUMP JUMPDEST JUMPDEST POP POP JUMP JUMPDEST PUSH0 CALLER PUSH20 0xFFFFFFFFFFFFFFFFFFFFFFFFFFFFFFFFFFFFFFFF AND EXTCODESIZE EQ PUSH2 0x105E JUMPI CALLER PUSH20 0xFFFFFFFFFFFFFFFFFFFFFFFFFFFFFFFFFFFFFFFF AND PUSH32 0xECB93C06E2466C523C3ED0F181F11E5CC9DED3E0B654BC0B9F8A2ED1269FACF PUSH1 0x40 MLOAD PUSH1 0x40 MLOAD DUP1 SWAP2 SUB SWAP1 LOG2 PUSH1 0x1 PUSH1 0x4 PUSH0 CALLER PUSH20 0xFFFFFFFFFFFFFFFFFFFFFFFFFFFFFFFFFFFFFFFF AND PUSH20 0xFFFFFFFFFFFFFFFFFFFFFFFFFFFFFFFFFFFFFFFF AND DUP2 MSTORE PUSH1 0x20 ADD SWAP1 DUP2 MSTORE PUSH1 0x20 ADD PUSH0 KECCAK256 PUSH0 PUSH2 0x100 EXP DUP2 SLOAD DUP2 PUSH1 0xFF MUL NOT AND SWAP1 DUP4 ISZERO ISZERO MUL OR SWAP1 SSTORE POP JUMPDEST PUSH1 0x4 PUSH0 CALLER PUSH20 0xFFFFFFFFFFFFFFFFFFFFFFFFFFFFFFFFFFFFFFFF AND PUSH20 0xFFFFFFFFFFFFFFFFFFFFFFFFFFFFFFFFFFFFFFFF AND DUP2 MSTORE PUSH1 0x20 ADD SWAP1 DUP2 MSTORE PUSH1 0x20 ADD PUSH0 KECCAK256 PUSH0 SWAP1 SLOAD SWAP1 PUSH2 0x100 EXP SWAP1 DIV PUSH1 0xFF AND ISZERO PUSH2 0x1183 JUMPI PUSH0 PUSH0 DUP4 PUSH20 0xFFFFFFFFFFFFFFFFFFFFFFFFFFFFFFFFFFFFFFFF AND PUSH20 0xFFFFFFFFFFFFFFFFFFFFFFFFFFFFFFFFFFFFFFFF AND DUP2 MSTORE PUSH1 0x20 ADD SWAP1 DUP2 MSTORE PUSH1 0x20 ADD PUSH0 KECCAK256 PUSH0 DUP3 DUP2 MSTORE PUSH1 0x20 ADD SWAP1 DUP2 MSTORE PUSH1 0x20 ADD PUSH0 KECCAK256 SLOAD DUP3 PUSH20 0xFFFFFFFFFFFFFFFFFFFFFFFFFFFFFFFFFFFFFFFF AND CALLVALUE PUSH32 0x8BCD11857E6A3BE2869200DAD8A50365A705C0D72F71B2E96F28837226CD3F7F PUSH0 PUSH1 0x40 MLOAD PUSH2 0x1140 SWAP2 SWAP1 PUSH2 0x17A1 JUMP JUMPDEST PUSH1 0x40 MLOAD DUP1 SWAP2 SUB SWAP1 LOG4 PUSH1 0x40 MLOAD PUSH32 0x8C379A000000000000000000000000000000000000000000000000000000000 DUP2 MSTORE PUSH1 0x4 ADD PUSH2 0x117A SWAP1 PUSH2 0x15F7 JUMP JUMPDEST PUSH1 0x40 MLOAD DUP1 SWAP2 SUB SWAP1 REVERT JUMPDEST PUSH0 PUSH0 CALLVALUE GT SWAP1 POP CALLVALUE PUSH0 PUSH0 DUP6 PUSH20 0xFFFFFFFFFFFFFFFFFFFFFFFFFFFFFFFFFFFFFFFF AND PUSH20 0xFFFFFFFFFFFFFFFFFFFFFFFFFFFFFFFFFFFFFFFF AND DUP2 MSTORE PUSH1 0x20 ADD SWAP1 DUP2 MSTORE PUSH1 0x20 ADD PUSH0 KECCAK256 PUSH0 DUP5 DUP2 MSTORE PUSH1 0x20 ADD SWAP1 DUP2 MSTORE PUSH1 0x20 ADD PUSH0 KECCAK256 PUSH0 DUP3 DUP3 SLOAD PUSH2 0x11E3 SWAP2 SWAP1 PUSH2 0x18B7 JUMP JUMPDEST SWAP3 POP POP DUP2 SWAP1 SSTORE POP PUSH0 PUSH0 DUP5 PUSH20 0xFFFFFFFFFFFFFFFFFFFFFFFFFFFFFFFFFFFFFFFF AND PUSH20 0xFFFFFFFFFFFFFFFFFFFFFFFFFFFFFFFFFFFFFFFF AND DUP2 MSTORE PUSH1 0x20 ADD SWAP1 DUP2 MSTORE PUSH1 0x20 ADD PUSH0 KECCAK256 PUSH0 DUP4 DUP2 MSTORE PUSH1 0x20 ADD SWAP1 DUP2 MSTORE PUSH1 0x20 ADD PUSH0 KECCAK256 SLOAD DUP4 PUSH20 0xFFFFFFFFFFFFFFFFFFFFFFFFFFFFFFFFFFFFFFFF AND CALLVALUE PUSH32 0x8BCD11857E6A3BE2869200DAD8A50365A705C0D72F71B2E96F28837226CD3F7F DUP5 PUSH1 0x40 MLOAD PUSH2 0x127D SWAP2 SWAP1 PUSH2 0x17A1 JUMP JUMPDEST PUSH1 0x40 MLOAD DUP1 SWAP2 SUB SWAP1 LOG4 DUP1 ISZERO PUSH2 0x1348 JUMPI PUSH1 0x1 PUSH1 0x2 PUSH0 DUP6 PUSH20 0xFFFFFFFFFFFFFFFFFFFFFFFFFFFFFFFFFFFFFFFF AND PUSH20 0xFFFFFFFFFFFFFFFFFFFFFFFFFFFFFFFFFFFFFFFF AND DUP2 MSTORE PUSH1 0x20 ADD SWAP1 DUP2 MSTORE PUSH1 0x20 ADD PUSH0 KECCAK256 PUSH0 PUSH2 0x100 EXP DUP2 SLOAD DUP2 PUSH1 0xFF MUL NOT AND SWAP1 DUP4 ISZERO ISZERO MUL OR SWAP1 SSTORE POP PUSH1 0x1 DUP1 PUSH0 DUP6 PUSH20 0xFFFFFFFFFFFFFFFFFFFFFFFFFFFFFFFFFFFFFFFF AND PUSH20 0xFFFFFFFFFFFFFFFFFFFFFFFFFFFFFFFFFFFFFFFF AND DUP2 MSTORE PUSH1 0x20 ADD SWAP1 DUP2 MSTORE PUSH1 0x20 ADD PUSH0 KECCAK256 PUSH0 DUP5 DUP2 MSTORE PUSH1 0x20 ADD SWAP1 DUP2 MSTORE PUSH1 0x20 ADD PUSH0 KECCAK256 PUSH0 PUSH2 0x100 EXP DUP2 SLOAD DUP2 PUSH1 0xFF MUL NOT AND SWAP1 DUP4 ISZERO ISZERO MUL OR SWAP1 SSTORE POP PUSH2 0x1383 JUMP JUMPDEST PUSH1 0x40 MLOAD PUSH32 0x8C379A000000000000000000000000000000000000000000000000000000000 DUP2 MSTORE PUSH1 0x4 ADD PUSH2 0x137A SWAP1 PUSH2 0x1967 JUMP JUMPDEST PUSH1 0x40 MLOAD DUP1 SWAP2 SUB SWAP1 REVERT JUMPDEST POP POP POP JUMP JUMPDEST PUSH0 PUSH1 0x2 DUP3 PUSH1 0x40 MLOAD PUSH1 0x20 ADD PUSH2 0x139C SWAP2 SWAP1 PUSH2 0x1743 JUMP JUMPDEST PUSH1 0x40 MLOAD PUSH1 0x20 DUP2 DUP4 SUB SUB DUP2 MSTORE SWAP1 PUSH1 0x40 MSTORE PUSH1 0x40 MLOAD PUSH2 0x13B8 SWAP2 SWAP1 PUSH2 0x19D7 JUMP JUMPDEST PUSH1 0x20 PUSH1 0x40 MLOAD DUP1 DUP4 SUB DUP2 DUP6 GAS STATICCALL ISZERO DUP1 ISZERO PUSH2 0x13D3 JUMPI RETURNDATASIZE PUSH0 PUSH0 RETURNDATACOPY RETURNDATASIZE PUSH0 REVERT JUMPDEST POP POP POP PUSH1 0x40 MLOAD RETURNDATASIZE PUSH1 0x1F NOT PUSH1 0x1F DUP3 ADD AND DUP3 ADD DUP1 PUSH1 0x40 MSTORE POP DUP2 ADD SWAP1 PUSH2 0x13F6 SWAP2 SWAP1 PUSH2 0x1A20 JUMP JUMPDEST PUSH0 SHR SWAP1 POP SWAP2 SWAP1 POP JUMP JUMPDEST PUSH0 PUSH1 0x1 PUSH0 DUP5 PUSH20 0xFFFFFFFFFFFFFFFFFFFFFFFFFFFFFFFFFFFFFFFF AND PUSH20 0xFFFFFFFFFFFFFFFFFFFFFFFFFFFFFFFFFFFFFFFF AND DUP2 MSTORE PUSH1 0x20 ADD SWAP1 DUP2 MSTORE PUSH1 0x20 ADD PUSH0 KECCAK256 PUSH0 PUSH2 0x1447 DUP5 PUSH2 0x1388 JUMP JUMPDEST DUP2 MSTORE PUSH1 0x20 ADD SWAP1 DUP2 MSTORE PUSH1 0x20 ADD PUSH0 KECCAK256 PUSH0 SWAP1 SLOAD SWAP1 PUSH2 0x100 EXP SWAP1 DIV PUSH1 0xFF AND SWAP1 POP SWAP3 SWAP2 POP POP JUMP JUMPDEST PUSH1 0x1 PUSH1 0x3 PUSH0 CALLER PUSH20 0xFFFFFFFFFFFFFFFFFFFFFFFFFFFFFFFFFFFFFFFF AND PUSH20 0xFFFFFFFFFFFFFFFFFFFFFFFFFFFFFFFFFFFFFFFF AND DUP2 MSTORE PUSH1 0x20 ADD SWAP1 DUP2 MSTORE PUSH1 0x20 ADD PUSH0 KECCAK256 PUSH0 DUP3 DUP3 SLOAD PUSH2 0x14B6 SWAP2 SWAP1 PUSH2 0x18B7 JUMP JUMPDEST SWAP3 POP POP DUP2 SWAP1 SSTORE POP PUSH1 0x2 PUSH1 0x3 PUSH0 CALLER PUSH20 0xFFFFFFFFFFFFFFFFFFFFFFFFFFFFFFFFFFFFFFFF AND PUSH20 0xFFFFFFFFFFFFFFFFFFFFFFFFFFFFFFFFFFFFFFFF AND DUP2 MSTORE PUSH1 0x20 ADD SWAP1 DUP2 MSTORE PUSH1 0x20 ADD PUSH0 KECCAK256 SLOAD LT PUSH2 0x159B JUMPI PUSH1 0x1 PUSH1 0x4 PUSH0 CALLER PUSH20 0xFFFFFFFFFFFFFFFFFFFFFFFFFFFFFFFFFFFFFFFF AND PUSH20 0xFFFFFFFFFFFFFFFFFFFFFFFFFFFFFFFFFFFFFFFF AND DUP2 MSTORE PUSH1 0x20 ADD SWAP1 DUP2 MSTORE PUSH1 0x20 ADD PUSH0 KECCAK256 PUSH0 PUSH2 0x100 EXP DUP2 SLOAD DUP2 PUSH1 0xFF MUL NOT AND SWAP1 DUP4 ISZERO ISZERO MUL OR SWAP1 SSTORE POP CALLER PUSH20 0xFFFFFFFFFFFFFFFFFFFFFFFFFFFFFFFFFFFFFFFF AND PUSH32 0xECB93C06E2466C523C3ED0F181F11E5CC9DED3E0B654BC0B9F8A2ED1269FACF PUSH1 0x40 MLOAD PUSH1 0x40 MLOAD DUP1 SWAP2 SUB SWAP1 LOG2 JUMPDEST JUMP JUMPDEST PUSH0 DUP3 DUP3 MSTORE PUSH1 0x20 DUP3 ADD SWAP1 POP SWAP3 SWAP2 POP POP JUMP JUMPDEST PUSH32 0x796F752061726520696E2074686520626C61636B206C69737400000000000000 PUSH0 DUP3 ADD MSTORE POP JUMP JUMPDEST PUSH0 PUSH2 0x15E1 PUSH1 0x19 DUP4 PUSH2 0x159D JUMP JUMPDEST SWAP2 POP PUSH2 0x15EC DUP3 PUSH2 0x15AD JUMP JUMPDEST PUSH1 0x20 DUP3 ADD SWAP1 POP SWAP2 SWAP1 POP JUMP JUMPDEST PUSH0 PUSH1 0x20 DUP3 ADD SWAP1 POP DUP2 DUP2 SUB PUSH0 DUP4 ADD MSTORE PUSH2 0x160E DUP2 PUSH2 0x15D5 JUMP JUMPDEST SWAP1 POP SWAP2 SWAP1 POP JUMP JUMPDEST PUSH0 PUSH0 REVERT JUMPDEST PUSH0 PUSH20 0xFFFFFFFFFFFFFFFFFFFFFFFFFFFFFFFFFFFFFFFF DUP3 AND SWAP1 POP SWAP2 SWAP1 POP JUMP JUMPDEST PUSH0 PUSH2 0x1642 DUP3 PUSH2 0x1619 JUMP JUMPDEST SWAP1 POP SWAP2 SWAP1 POP JUMP JUMPDEST PUSH2 0x1652 DUP2 PUSH2 0x1638 JUMP JUMPDEST DUP2 EQ PUSH2 0x165C JUMPI PUSH0 PUSH0 REVERT JUMPDEST POP JUMP JUMPDEST PUSH0 DUP2 CALLDATALOAD SWAP1 POP PUSH2 0x166D DUP2 PUSH2 0x1649 JUMP JUMPDEST SWAP3 SWAP2 POP POP JUMP JUMPDEST PUSH0 DUP2 SWAP1 POP SWAP2 SWAP1 POP JUMP JUMPDEST PUSH2 0x1685 DUP2 PUSH2 0x1673 JUMP JUMPDEST DUP2 EQ PUSH2 0x168F JUMPI PUSH0 PUSH0 REVERT JUMPDEST POP JUMP JUMPDEST PUSH0 DUP2 CALLDATALOAD SWAP1 POP PUSH2 0x16A0 DUP2 PUSH2 0x167C JUMP JUMPDEST SWAP3 SWAP2 POP POP JUMP JUMPDEST PUSH0 PUSH0 PUSH0 PUSH1 0x60 DUP5 DUP7 SUB SLT ISZERO PUSH2 0x16BD JUMPI PUSH2 0x16BC PUSH2 0x1615 JUMP JUMPDEST JUMPDEST PUSH0 PUSH2 0x16CA DUP7 DUP3 DUP8 ADD PUSH2 0x165F JUMP JUMPDEST SWAP4 POP POP PUSH1 0x20 PUSH2 0x16DB DUP7 DUP3 DUP8 ADD PUSH2 0x1692 JUMP JUMPDEST SWAP3 POP POP PUSH1 0x40 PUSH2 0x16EC DUP7 DUP3 DUP8 ADD PUSH2 0x1692 JUMP JUMPDEST SWAP2 POP POP SWAP3 POP SWAP3 POP SWAP3 JUMP JUMPDEST PUSH0 PUSH0 PUSH1 0x40 DUP4 DUP6 SUB SLT ISZERO PUSH2 0x170C JUMPI PUSH2 0x170B PUSH2 0x1615 JUMP JUMPDEST JUMPDEST PUSH0 PUSH2 0x1719 DUP6 DUP3 DUP7 ADD PUSH2 0x165F JUMP JUMPDEST SWAP3 POP POP PUSH1 0x20 PUSH2 0x172A DUP6 DUP3 DUP7 ADD PUSH2 0x1692 JUMP JUMPDEST SWAP2 POP POP SWAP3 POP SWAP3 SWAP1 POP JUMP JUMPDEST PUSH2 0x173D DUP2 PUSH2 0x1673 JUMP JUMPDEST DUP3 MSTORE POP POP JUMP JUMPDEST PUSH0 PUSH1 0x20 DUP3 ADD SWAP1 POP PUSH2 0x1756 PUSH0 DUP4 ADD DUP5 PUSH2 0x1734 JUMP JUMPDEST SWAP3 SWAP2 POP POP JUMP JUMPDEST PUSH0 PUSH1 0x20 DUP3 DUP5 SUB SLT ISZERO PUSH2 0x1771 JUMPI PUSH2 0x1770 PUSH2 0x1615 JUMP JUMPDEST JUMPDEST PUSH0 PUSH2 0x177E DUP5 DUP3 DUP6 ADD PUSH2 0x1692 JUMP JUMPDEST SWAP2 POP POP SWAP3 SWAP2 POP POP JUMP JUMPDEST PUSH0 DUP2 ISZERO ISZERO SWAP1 POP SWAP2 SWAP1 POP JUMP JUMPDEST PUSH2 0x179B DUP2 PUSH2 0x1787 JUMP JUMPDEST DUP3 MSTORE POP POP JUMP JUMPDEST PUSH0 PUSH1 0x20 DUP3 ADD SWAP1 POP PUSH2 0x17B4 PUSH0 DUP4 ADD DUP5 PUSH2 0x1792 JUMP JUMPDEST SWAP3 SWAP2 POP POP JUMP JUMPDEST PUSH32 0x6E6F7420656E6F7567682062616C616E63650000000000000000000000000000 PUSH0 DUP3 ADD MSTORE POP JUMP JUMPDEST PUSH0 PUSH2 0x17EE PUSH1 0x12 DUP4 PUSH2 0x159D JUMP JUMPDEST SWAP2 POP PUSH2 0x17F9 DUP3 PUSH2 0x17BA JUMP JUMPDEST PUSH1 0x20 DUP3 ADD SWAP1 POP SWAP2 SWAP1 POP JUMP JUMPDEST PUSH0 PUSH1 0x20 DUP3 ADD SWAP1 POP DUP2 DUP2 SUB PUSH0 DUP4 ADD MSTORE PUSH2 0x181B DUP2 PUSH2 0x17E2 JUMP JUMPDEST SWAP1 POP SWAP2 SWAP1 POP JUMP JUMPDEST PUSH32 0x60746F602061646472657373206E6F7420696E207468652062616E6B00000000 PUSH0 DUP3 ADD MSTORE POP JUMP JUMPDEST PUSH0 PUSH2 0x1856 PUSH1 0x1C DUP4 PUSH2 0x159D JUMP JUMPDEST SWAP2 POP PUSH2 0x1861 DUP3 PUSH2 0x1822 JUMP JUMPDEST PUSH1 0x20 DUP3 ADD SWAP1 POP SWAP2 SWAP1 POP JUMP JUMPDEST PUSH0 PUSH1 0x20 DUP3 ADD SWAP1 POP DUP2 DUP2 SUB PUSH0 DUP4 ADD MSTORE PUSH2 0x1883 DUP2 PUSH2 0x184A JUMP JUMPDEST SWAP1 POP SWAP2 SWAP1 POP JUMP JUMPDEST PUSH32 0x4E487B7100000000000000000000000000000000000000000000000000000000 PUSH0 MSTORE PUSH1 0x11 PUSH1 0x4 MSTORE PUSH1 0x24 PUSH0 REVERT JUMPDEST PUSH0 PUSH2 0x18C1 DUP3 PUSH2 0x1673 JUMP JUMPDEST SWAP2 POP PUSH2 0x18CC DUP4 PUSH2 0x1673 JUMP JUMPDEST SWAP3 POP DUP3 DUP3 ADD SWAP1 POP DUP1 DUP3 GT ISZERO PUSH2 0x18E4 JUMPI PUSH2 0x18E3 PUSH2 0x188A JUMP JUMPDEST JUMPDEST SWAP3 SWAP2 POP POP JUMP JUMPDEST PUSH0 PUSH2 0x18F4 DUP3 PUSH2 0x1673 JUMP JUMPDEST SWAP2 POP PUSH2 0x18FF DUP4 PUSH2 0x1673 JUMP JUMPDEST SWAP3 POP DUP3 DUP3 SUB SWAP1 POP DUP2 DUP2 GT ISZERO PUSH2 0x1917 JUMPI PUSH2 0x1916 PUSH2 0x188A JUMP JUMPDEST JUMPDEST SWAP3 SWAP2 POP POP JUMP JUMPDEST PUSH32 0x6E6F7420616C6C6F77203020616D6F756E74206465706F736974000000000000 PUSH0 DUP3 ADD MSTORE POP JUMP JUMPDEST PUSH0 PUSH2 0x1951 PUSH1 0x1A DUP4 PUSH2 0x159D JUMP JUMPDEST SWAP2 POP PUSH2 0x195C DUP3 PUSH2 0x191D JUMP JUMPDEST PUSH1 0x20 DUP3 ADD SWAP1 POP SWAP2 SWAP1 POP JUMP JUMPDEST PUSH0 PUSH1 0x20 DUP3 ADD SWAP1 POP DUP2 DUP2 SUB PUSH0 DUP4 ADD MSTORE PUSH2 0x197E DUP2 PUSH2 0x1945 JUMP JUMPDEST SWAP1 POP SWAP2 SWAP1 POP JUMP JUMPDEST PUSH0 DUP2 MLOAD SWAP1 POP SWAP2 SWAP1 POP JUMP JUMPDEST PUSH0 DUP2 SWAP1 POP SWAP3 SWAP2 POP POP JUMP JUMPDEST DUP3 DUP2 DUP4 MCOPY PUSH0 DUP4 DUP4 ADD MSTORE POP POP POP JUMP JUMPDEST PUSH0 PUSH2 0x19B1 DUP3 PUSH2 0x1985 JUMP JUMPDEST PUSH2 0x19BB DUP2 DUP6 PUSH2 0x198F JUMP JUMPDEST SWAP4 POP PUSH2 0x19CB DUP2 DUP6 PUSH1 0x20 DUP7 ADD PUSH2 0x1999 JUMP JUMPDEST DUP1 DUP5 ADD SWAP2 POP POP SWAP3 SWAP2 POP POP JUMP JUMPDEST PUSH0 PUSH2 0x19E2 DUP3 DUP5 PUSH2 0x19A7 JUMP JUMPDEST SWAP2 POP DUP2 SWAP1 POP SWAP3 SWAP2 POP POP JUMP JUMPDEST PUSH0 DUP2 SWAP1 POP SWAP2 SWAP1 POP JUMP JUMPDEST PUSH2 0x19FF DUP2 PUSH2 0x19ED JUMP JUMPDEST DUP2 EQ PUSH2 0x1A09 JUMPI PUSH0 PUSH0 REVERT JUMPDEST POP JUMP JUMPDEST PUSH0 DUP2 MLOAD SWAP1 POP PUSH2 0x1A1A DUP2 PUSH2 0x19F6 JUMP JUMPDEST SWAP3 SWAP2 POP POP JUMP JUMPDEST PUSH0 PUSH1 0x20 DUP3 DUP5 SUB SLT ISZERO PUSH2 0x1A35 JUMPI PUSH2 0x1A34 PUSH2 0x1615 JUMP JUMPDEST JUMPDEST PUSH0 PUSH2 0x1A42 DUP5 DUP3 DUP6 ADD PUSH2 0x1A0C JUMP JUMPDEST SWAP2 POP POP SWAP3 SWAP2 POP POP JUMP INVALID LOG2 PUSH5 0x6970667358 0x22 SLT KECCAK256 0xEB GASPRICE 0xC5 JUMP SWAP10 0xC6 0xC8 DUP9 0xBC SLOAD EQ LOG0 PUSH20 0xAEA30B9E07BB49148B8D08E1B8E30336D889BC64 PUSH20 0x6F6C634300081E00330000000000000000000000 "
				},
				"gasEstimates": {
					"creation": {
						"codeDepositCost": "1357000",
						"executionCost": "25680",
						"totalCost": "1382680"
					},
					"external": {
						"": "infinite",
						"deposit(address,uint256)": "infinite",
						"getBalance(address,uint256)": "infinite",
						"hash(uint256)": "infinite",
						"transfer(address,uint256,uint256)": "infinite",
						"withdraw(uint256)": "infinite"
					},
					"internal": {
						"isPasswordValid(address,uint256)": "infinite",
						"passwordFailedHandler()": "infinite"
					}
				},
				"methodIdentifiers": {
					"deposit(address,uint256)": "47e7ef24",
					"getBalance(address,uint256)": "2b04e840",
					"hash(uint256)": "b189fd4c",
					"transfer(address,uint256,uint256)": "095bcdb6",
					"withdraw(uint256)": "2e1a7d4d"
				}
			},
			"storageLayout": {
				"storage": [
					{
						"astId": 7,
						"contract": "contracts/hw5.sol:bank",
						"label": "accounts",
						"offset": 0,
						"slot": "0",
						"type": "t_mapping(t_address,t_mapping(t_uint256,t_uint256))"
					},
					{
						"astId": 13,
						"contract": "contracts/hw5.sol:bank",
						"label": "passwords",
						"offset": 0,
						"slot": "1",
						"type": "t_mapping(t_address,t_mapping(t_uint256,t_bool))"
					},
					{
						"astId": 17,
						"contract": "contracts/hw5.sol:bank",
						"label": "validAccount",
						"offset": 0,
						"slot": "2",
						"type": "t_mapping(t_address,t_bool)"
					},
					{
						"astId": 21,
						"contract": "contracts/hw5.sol:bank",
						"label": "count",
						"offset": 0,
						"slot": "3",
						"type": "t_mapping(t_address,t_uint256)"
					},
					{
						"astId": 25,
						"contract": "contracts/hw5.sol:bank",
						"label": "blackList",
						"offset": 0,
						"slot": "4",
						"type": "t_mapping(t_address,t_bool)"
					},
					{
						"astId": 27,
						"contract": "contracts/hw5.sol:bank",
						"label": "owner",
						"offset": 0,
						"slot": "5",
						"type": "t_address_payable"
					}
				],
				"types": {
					"t_address": {
						"encoding": "inplace",
						"label": "address",
						"numberOfBytes": "20"
					},
					"t_address_payable": {
						"encoding": "inplace",
						"label": "address payable",
						"numberOfBytes": "20"
					},
					"t_bool": {
						"encoding": "inplace",
						"label": "bool",
						"numberOfBytes": "1"
					},
					"t_mapping(t_address,t_bool)": {
						"encoding": "mapping",
						"key": "t_address",
						"label": "mapping(address => bool)",
						"numberOfBytes": "32",
						"value": "t_bool"
					},
					"t_mapping(t_address,t_mapping(t_uint256,t_bool))": {
						"encoding": "mapping",
						"key": "t_address",
						"label": "mapping(address => mapping(uint256 => bool))",
						"numberOfBytes": "32",
						"value": "t_mapping(t_uint256,t_bool)"
					},
					"t_mapping(t_address,t_mapping(t_uint256,t_uint256))": {
						"encoding": "mapping",
						"key": "t_address",
						"label": "mapping(address => mapping(uint256 => uint256))",
						"numberOfBytes": "32",
						"value": "t_mapping(t_uint256,t_uint256)"
					},
					"t_mapping(t_address,t_uint256)": {
						"encoding": "mapping",
						"key": "t_address",
						"label": "mapping(address => uint256)",
						"numberOfBytes": "32",
						"value": "t_uint256"
					},
					"t_mapping(t_uint256,t_bool)": {
						"encoding": "mapping",
						"key": "t_uint256",
						"label": "mapping(uint256 => bool)",
						"numberOfBytes": "32",
						"value": "t_bool"
					},
					"t_mapping(t_uint256,t_uint256)": {
						"encoding": "mapping",
						"key": "t_uint256",
						"label": "mapping(uint256 => uint256)",
						"numberOfBytes": "32",
						"value": "t_uint256"
					},
					"t_uint256": {
						"encoding": "inplace",
						"label": "uint256",
						"numberOfBytes": "32"
					}
				}
			},
			"userdoc": {
				"kind": "user",
				"methods": {},
				"version": 1
			}
		}
	}
}