{
	"contracts/hw3.sol": {
		"hw3": {
			"abi": [
				{
					"inputs": [
						{
							"internalType": "address",
							"name": "to",
							"type": "address"
						},
						{
							"internalType": "uint256",
							"name": "hashVal",
							"type": "uint256"
						}
					],
					"name": "deposit",
					"outputs": [],
					"stateMutability": "payable",
					"type": "function"
				},
				{
					"inputs": [],
					"name": "getBlance",
					"outputs": [
						{
							"internalType": "uint256",
							"name": "",
							"type": "uint256"
						}
					],
					"stateMutability": "view",
					"type": "function"
				},
				{
					"inputs": [
						{
							"internalType": "uint256",
							"name": "input",
							"type": "uint256"
						}
					],
					"name": "hash",
					"outputs": [
						{
							"internalType": "uint256",
							"name": "",
							"type": "uint256"
						}
					],
					"stateMutability": "pure",
					"type": "function"
				},
				{
					"inputs": [
						{
							"internalType": "uint256",
							"name": "rawPassword",
							"type": "uint256"
						}
					],
					"name": "withdraw",
					"outputs": [],
					"stateMutability": "nonpayable",
					"type": "function"
				}
			],
			"devdoc": {
				"kind": "dev",
				"methods": {},
				"version": 1
			},
			"evm": {
				"assembly": "    /* \"contracts/hw3.sol\":62:1208  contract hw3{... */\n  mstore(0x40, 0x80)\n  callvalue\n  dup1\n  iszero\n  tag_1\n  jumpi\n  revert(0x00, 0x00)\ntag_1:\n  pop\n  dataSize(sub_0)\n  dup1\n  dataOffset(sub_0)\n  0x00\n  codecopy\n  0x00\n  return\nstop\n\nsub_0: assembly {\n        /* \"contracts/hw3.sol\":62:1208  contract hw3{... */\n      mstore(0x40, 0x80)\n      jumpi(tag_1, lt(calldatasize, 0x04))\n      shr(0xe0, calldataload(0x00))\n      dup1\n      0x2e1a7d4d\n      eq\n      tag_2\n      jumpi\n      dup1\n      0x47e7ef24\n      eq\n      tag_3\n      jumpi\n      dup1\n      0x941be5f7\n      eq\n      tag_4\n      jumpi\n      dup1\n      0xb189fd4c\n      eq\n      tag_5\n      jumpi\n    tag_1:\n      revert(0x00, 0x00)\n        /* \"contracts/hw3.sol\":922:1118  function withdraw(uint256 rawPassword) public {... */\n    tag_2:\n      callvalue\n      dup1\n      iszero\n      tag_6\n      jumpi\n      revert(0x00, 0x00)\n    tag_6:\n      pop\n      tag_7\n      0x04\n      dup1\n      calldatasize\n      sub\n      dup2\n      add\n      swap1\n      tag_8\n      swap2\n      swap1\n      tag_9\n      jump\t// in\n    tag_8:\n      tag_10\n      jump\t// in\n    tag_7:\n      stop\n        /* \"contracts/hw3.sol\":766:917  function deposit(address to, uint256 hashVal) public payable {... */\n    tag_3:\n      tag_11\n      0x04\n      dup1\n      calldatasize\n      sub\n      dup2\n      add\n      swap1\n      tag_12\n      swap2\n      swap1\n      tag_13\n      jump\t// in\n    tag_12:\n      tag_14\n      jump\t// in\n    tag_11:\n      stop\n        /* \"contracts/hw3.sol\":1123:1206  function getBlance() public  view returns (uint256) {... */\n    tag_4:\n      callvalue\n      dup1\n      iszero\n      tag_15\n      jumpi\n      revert(0x00, 0x00)\n    tag_15:\n      pop\n      tag_16\n      tag_17\n      jump\t// in\n    tag_16:\n      mload(0x40)\n      tag_18\n      swap2\n      swap1\n      tag_19\n      jump\t// in\n    tag_18:\n      mload(0x40)\n      dup1\n      swap2\n      sub\n      swap1\n      return\n        /* \"contracts/hw3.sol\":333:450  function hash(uint256 input) public pure returns (uint256) {... */\n    tag_5:\n      callvalue\n      dup1\n      iszero\n      tag_20\n      jumpi\n      revert(0x00, 0x00)\n    tag_20:\n      pop\n      tag_21\n      0x04\n      dup1\n      calldatasize\n      sub\n      dup2\n      add\n      swap1\n      tag_22\n      swap2\n      swap1\n      tag_9\n      jump\t// in\n    tag_22:\n      tag_23\n      jump\t// in\n    tag_21:\n      mload(0x40)\n      tag_24\n      swap2\n      swap1\n      tag_19\n      jump\t// in\n    tag_24:\n      mload(0x40)\n      dup1\n      swap2\n      sub\n      swap1\n      return\n        /* \"contracts/hw3.sol\":922:1118  function withdraw(uint256 rawPassword) public {... */\n    tag_10:\n        /* \"contracts/hw3.sol\":982:1002  isValid(rawPassword) */\n      tag_26\n        /* \"contracts/hw3.sol\":990:1001  rawPassword */\n      dup2\n        /* \"contracts/hw3.sol\":982:989  isValid */\n      tag_27\n        /* \"contracts/hw3.sol\":982:1002  isValid(rawPassword) */\n      jump\t// in\n    tag_26:\n        /* \"contracts/hw3.sol\":982:1024  isValid(rawPassword) && user == msg.sender */\n      dup1\n      iszero\n      tag_28\n      jumpi\n      pop\n        /* \"contracts/hw3.sol\":1014:1024  msg.sender */\n      caller\n        /* \"contracts/hw3.sol\":1006:1024  user == msg.sender */\n      0xffffffffffffffffffffffffffffffffffffffff\n      and\n        /* \"contracts/hw3.sol\":1006:1010  user */\n      0x00\n      0x00\n      swap1\n      sload\n      swap1\n      0x0100\n      exp\n      swap1\n      div\n      0xffffffffffffffffffffffffffffffffffffffff\n      and\n        /* \"contracts/hw3.sol\":1006:1024  user == msg.sender */\n      0xffffffffffffffffffffffffffffffffffffffff\n      and\n      eq\n        /* \"contracts/hw3.sol\":982:1024  isValid(rawPassword) && user == msg.sender */\n    tag_28:\n        /* \"contracts/hw3.sol\":978:1112  if (isValid(rawPassword) && user == msg.sender){... */\n      iszero\n      tag_29\n      jumpi\n        /* \"contracts/hw3.sol\":1047:1057  msg.sender */\n      caller\n        /* \"contracts/hw3.sol\":1039:1067  payable(msg.sender).transfer */\n      0xffffffffffffffffffffffffffffffffffffffff\n      and\n        /* \"contracts/hw3.sol\":1039:1076  payable(msg.sender).transfer(balance) */\n      0x08fc\n        /* \"contracts/hw3.sol\":1068:1075  balance */\n      sload(0x02)\n        /* \"contracts/hw3.sol\":1039:1076  payable(msg.sender).transfer(balance) */\n      swap1\n      dup2\n      iszero\n      mul\n      swap1\n      mload(0x40)\n      0x00\n      mload(0x40)\n      dup1\n      dup4\n      sub\n      dup2\n      dup6\n      dup9\n      dup9\n      call\n      swap4\n      pop\n      pop\n      pop\n      pop\n      iszero\n      dup1\n      iszero\n      tag_31\n      jumpi\n      returndatacopy(0x00, 0x00, returndatasize)\n      revert(0x00, returndatasize)\n    tag_31:\n      pop\n        /* \"contracts/hw3.sol\":1100:1101  0 */\n      0x00\n        /* \"contracts/hw3.sol\":1090:1097  balance */\n      0x02\n        /* \"contracts/hw3.sol\":1090:1101  balance = 0 */\n      dup2\n      swap1\n      sstore\n      pop\n        /* \"contracts/hw3.sol\":978:1112  if (isValid(rawPassword) && user == msg.sender){... */\n    tag_29:\n        /* \"contracts/hw3.sol\":922:1118  function withdraw(uint256 rawPassword) public {... */\n      pop\n      jump\t// out\n        /* \"contracts/hw3.sol\":766:917  function deposit(address to, uint256 hashVal) public payable {... */\n    tag_14:\n        /* \"contracts/hw3.sol\":844:846  to */\n      dup2\n        /* \"contracts/hw3.sol\":837:841  user */\n      0x00\n      0x00\n        /* \"contracts/hw3.sol\":837:846  user = to */\n      0x0100\n      exp\n      dup2\n      sload\n      dup2\n      0xffffffffffffffffffffffffffffffffffffffff\n      mul\n      not\n      and\n      swap1\n      dup4\n      0xffffffffffffffffffffffffffffffffffffffff\n      and\n      mul\n      or\n      swap1\n      sstore\n      pop\n        /* \"contracts/hw3.sol\":873:880  hashVal */\n      dup1\n        /* \"contracts/hw3.sol\":856:870  hashedPassword */\n      0x01\n        /* \"contracts/hw3.sol\":856:880  hashedPassword = hashVal */\n      dup2\n      swap1\n      sstore\n      pop\n        /* \"contracts/hw3.sol\":901:910  msg.value */\n      callvalue\n        /* \"contracts/hw3.sol\":890:897  balance */\n      0x02\n      0x00\n        /* \"contracts/hw3.sol\":890:910  balance += msg.value */\n      dup3\n      dup3\n      sload\n      tag_33\n      swap2\n      swap1\n      tag_34\n      jump\t// in\n    tag_33:\n      swap3\n      pop\n      pop\n      dup2\n      swap1\n      sstore\n      pop\n        /* \"contracts/hw3.sol\":766:917  function deposit(address to, uint256 hashVal) public payable {... */\n      pop\n      pop\n      jump\t// out\n        /* \"contracts/hw3.sol\":1123:1206  function getBlance() public  view returns (uint256) {... */\n    tag_17:\n        /* \"contracts/hw3.sol\":1166:1173  uint256 */\n      0x00\n        /* \"contracts/hw3.sol\":1192:1199  balance */\n      sload(0x02)\n        /* \"contracts/hw3.sol\":1185:1199  return balance */\n      swap1\n      pop\n        /* \"contracts/hw3.sol\":1123:1206  function getBlance() public  view returns (uint256) {... */\n      swap1\n      jump\t// out\n        /* \"contracts/hw3.sol\":333:450  function hash(uint256 input) public pure returns (uint256) {... */\n    tag_23:\n        /* \"contracts/hw3.sol\":383:390  uint256 */\n      0x00\n        /* \"contracts/hw3.sol\":417:442  sha256(abi.encode(input)) */\n      0x02\n        /* \"contracts/hw3.sol\":435:440  input */\n      dup3\n        /* \"contracts/hw3.sol\":424:441  abi.encode(input) */\n      add(0x20, mload(0x40))\n      tag_37\n      swap2\n      swap1\n      tag_19\n      jump\t// in\n    tag_37:\n      mload(0x40)\n      0x20\n      dup2\n      dup4\n      sub\n      sub\n      dup2\n      mstore\n      swap1\n      0x40\n      mstore\n        /* \"contracts/hw3.sol\":417:442  sha256(abi.encode(input)) */\n      mload(0x40)\n      tag_38\n      swap2\n      swap1\n      tag_39\n      jump\t// in\n    tag_38:\n      0x20\n      mload(0x40)\n      dup1\n      dup4\n      sub\n      dup2\n      dup6\n      gas\n      staticcall\n      iszero\n      dup1\n      iszero\n      tag_41\n      jumpi\n      returndatacopy(0x00, 0x00, returndatasize)\n      revert(0x00, returndatasize)\n    tag_41:\n      pop\n      pop\n      pop\n      mload(0x40)\n      returndatasize\n      not(0x1f)\n      0x1f\n      dup3\n      add\n      and\n      dup3\n      add\n      dup1\n      0x40\n      mstore\n      pop\n      dup2\n      add\n      swap1\n      tag_42\n      swap2\n      swap1\n      tag_43\n      jump\t// in\n    tag_42:\n        /* \"contracts/hw3.sol\":409:443  uint256(sha256(abi.encode(input))) */\n      0x00\n      shr\n        /* \"contracts/hw3.sol\":402:443  return uint256(sha256(abi.encode(input))) */\n      swap1\n      pop\n        /* \"contracts/hw3.sol\":333:450  function hash(uint256 input) public pure returns (uint256) {... */\n      swap2\n      swap1\n      pop\n      jump\t// out\n        /* \"contracts/hw3.sol\":558:687  function isValid(uint256 rawPassword) private view returns(bool) {... */\n    tag_27:\n        /* \"contracts/hw3.sol\":617:621  bool */\n      0x00\n        /* \"contracts/hw3.sol\":661:680  getHashedPassword() */\n      tag_45\n        /* \"contracts/hw3.sol\":661:678  getHashedPassword */\n      tag_46\n        /* \"contracts/hw3.sol\":661:680  getHashedPassword() */\n      jump\t// in\n    tag_45:\n        /* \"contracts/hw3.sol\":640:657  hash(rawPassword) */\n      tag_47\n        /* \"contracts/hw3.sol\":645:656  rawPassword */\n      dup4\n        /* \"contracts/hw3.sol\":640:644  hash */\n      tag_23\n        /* \"contracts/hw3.sol\":640:657  hash(rawPassword) */\n      jump\t// in\n    tag_47:\n        /* \"contracts/hw3.sol\":640:680  hash(rawPassword) == getHashedPassword() */\n      eq\n        /* \"contracts/hw3.sol\":633:680  return hash(rawPassword) == getHashedPassword() */\n      swap1\n      pop\n        /* \"contracts/hw3.sol\":558:687  function isValid(uint256 rawPassword) private view returns(bool) {... */\n      swap2\n      swap1\n      pop\n      jump\t// out\n        /* \"contracts/hw3.sol\":455:553  function getHashedPassword() private view returns (uint256) {... */\n    tag_46:\n        /* \"contracts/hw3.sol\":506:513  uint256 */\n      0x00\n        /* \"contracts/hw3.sol\":532:546  hashedPassword */\n      sload(0x01)\n        /* \"contracts/hw3.sol\":525:546  return hashedPassword */\n      swap1\n      pop\n        /* \"contracts/hw3.sol\":455:553  function getHashedPassword() private view returns (uint256) {... */\n      swap1\n      jump\t// out\n        /* \"#utility.yul\":88:205   */\n    tag_50:\n        /* \"#utility.yul\":197:198   */\n      0x00\n        /* \"#utility.yul\":194:195   */\n      0x00\n        /* \"#utility.yul\":187:199   */\n      revert\n        /* \"#utility.yul\":334:411   */\n    tag_52:\n        /* \"#utility.yul\":371:378   */\n      0x00\n        /* \"#utility.yul\":400:405   */\n      dup2\n        /* \"#utility.yul\":389:405   */\n      swap1\n      pop\n        /* \"#utility.yul\":334:411   */\n      swap2\n      swap1\n      pop\n      jump\t// out\n        /* \"#utility.yul\":417:539   */\n    tag_53:\n        /* \"#utility.yul\":490:514   */\n      tag_74\n        /* \"#utility.yul\":508:513   */\n      dup2\n        /* \"#utility.yul\":490:514   */\n      tag_52\n      jump\t// in\n    tag_74:\n        /* \"#utility.yul\":483:488   */\n      dup2\n        /* \"#utility.yul\":480:515   */\n      eq\n        /* \"#utility.yul\":470:533   */\n      tag_75\n      jumpi\n        /* \"#utility.yul\":529:530   */\n      0x00\n        /* \"#utility.yul\":526:527   */\n      0x00\n        /* \"#utility.yul\":519:531   */\n      revert\n        /* \"#utility.yul\":470:533   */\n    tag_75:\n        /* \"#utility.yul\":417:539   */\n      pop\n      jump\t// out\n        /* \"#utility.yul\":545:684   */\n    tag_54:\n        /* \"#utility.yul\":591:596   */\n      0x00\n        /* \"#utility.yul\":629:635   */\n      dup2\n        /* \"#utility.yul\":616:636   */\n      calldataload\n        /* \"#utility.yul\":607:636   */\n      swap1\n      pop\n        /* \"#utility.yul\":645:678   */\n      tag_77\n        /* \"#utility.yul\":672:677   */\n      dup2\n        /* \"#utility.yul\":645:678   */\n      tag_53\n      jump\t// in\n    tag_77:\n        /* \"#utility.yul\":545:684   */\n      swap3\n      swap2\n      pop\n      pop\n      jump\t// out\n        /* \"#utility.yul\":690:1019   */\n    tag_9:\n        /* \"#utility.yul\":749:755   */\n      0x00\n        /* \"#utility.yul\":798:800   */\n      0x20\n        /* \"#utility.yul\":786:795   */\n      dup3\n        /* \"#utility.yul\":777:784   */\n      dup5\n        /* \"#utility.yul\":773:796   */\n      sub\n        /* \"#utility.yul\":769:801   */\n      slt\n        /* \"#utility.yul\":766:885   */\n      iszero\n      tag_79\n      jumpi\n        /* \"#utility.yul\":804:883   */\n      tag_80\n      tag_50\n      jump\t// in\n    tag_80:\n        /* \"#utility.yul\":766:885   */\n    tag_79:\n        /* \"#utility.yul\":924:925   */\n      0x00\n        /* \"#utility.yul\":949:1002   */\n      tag_81\n        /* \"#utility.yul\":994:1001   */\n      dup5\n        /* \"#utility.yul\":985:991   */\n      dup3\n        /* \"#utility.yul\":974:983   */\n      dup6\n        /* \"#utility.yul\":970:992   */\n      add\n        /* \"#utility.yul\":949:1002   */\n      tag_54\n      jump\t// in\n    tag_81:\n        /* \"#utility.yul\":939:1002   */\n      swap2\n      pop\n        /* \"#utility.yul\":895:1012   */\n      pop\n        /* \"#utility.yul\":690:1019   */\n      swap3\n      swap2\n      pop\n      pop\n      jump\t// out\n        /* \"#utility.yul\":1025:1151   */\n    tag_55:\n        /* \"#utility.yul\":1062:1069   */\n      0x00\n        /* \"#utility.yul\":1102:1144   */\n      0xffffffffffffffffffffffffffffffffffffffff\n        /* \"#utility.yul\":1095:1100   */\n      dup3\n        /* \"#utility.yul\":1091:1145   */\n      and\n        /* \"#utility.yul\":1080:1145   */\n      swap1\n      pop\n        /* \"#utility.yul\":1025:1151   */\n      swap2\n      swap1\n      pop\n      jump\t// out\n        /* \"#utility.yul\":1157:1253   */\n    tag_56:\n        /* \"#utility.yul\":1194:1201   */\n      0x00\n        /* \"#utility.yul\":1223:1247   */\n      tag_84\n        /* \"#utility.yul\":1241:1246   */\n      dup3\n        /* \"#utility.yul\":1223:1247   */\n      tag_55\n      jump\t// in\n    tag_84:\n        /* \"#utility.yul\":1212:1247   */\n      swap1\n      pop\n        /* \"#utility.yul\":1157:1253   */\n      swap2\n      swap1\n      pop\n      jump\t// out\n        /* \"#utility.yul\":1259:1381   */\n    tag_57:\n        /* \"#utility.yul\":1332:1356   */\n      tag_86\n        /* \"#utility.yul\":1350:1355   */\n      dup2\n        /* \"#utility.yul\":1332:1356   */\n      tag_56\n      jump\t// in\n    tag_86:\n        /* \"#utility.yul\":1325:1330   */\n      dup2\n        /* \"#utility.yul\":1322:1357   */\n      eq\n        /* \"#utility.yul\":1312:1375   */\n      tag_87\n      jumpi\n        /* \"#utility.yul\":1371:1372   */\n      0x00\n        /* \"#utility.yul\":1368:1369   */\n      0x00\n        /* \"#utility.yul\":1361:1373   */\n      revert\n        /* \"#utility.yul\":1312:1375   */\n    tag_87:\n        /* \"#utility.yul\":1259:1381   */\n      pop\n      jump\t// out\n        /* \"#utility.yul\":1387:1526   */\n    tag_58:\n        /* \"#utility.yul\":1433:1438   */\n      0x00\n        /* \"#utility.yul\":1471:1477   */\n      dup2\n        /* \"#utility.yul\":1458:1478   */\n      calldataload\n        /* \"#utility.yul\":1449:1478   */\n      swap1\n      pop\n        /* \"#utility.yul\":1487:1520   */\n      tag_89\n        /* \"#utility.yul\":1514:1519   */\n      dup2\n        /* \"#utility.yul\":1487:1520   */\n      tag_57\n      jump\t// in\n    tag_89:\n        /* \"#utility.yul\":1387:1526   */\n      swap3\n      swap2\n      pop\n      pop\n      jump\t// out\n        /* \"#utility.yul\":1532:2006   */\n    tag_13:\n        /* \"#utility.yul\":1600:1606   */\n      0x00\n        /* \"#utility.yul\":1608:1614   */\n      0x00\n        /* \"#utility.yul\":1657:1659   */\n      0x40\n        /* \"#utility.yul\":1645:1654   */\n      dup4\n        /* \"#utility.yul\":1636:1643   */\n      dup6\n        /* \"#utility.yul\":1632:1655   */\n      sub\n        /* \"#utility.yul\":1628:1660   */\n      slt\n        /* \"#utility.yul\":1625:1744   */\n      iszero\n      tag_91\n      jumpi\n        /* \"#utility.yul\":1663:1742   */\n      tag_92\n      tag_50\n      jump\t// in\n    tag_92:\n        /* \"#utility.yul\":1625:1744   */\n    tag_91:\n        /* \"#utility.yul\":1783:1784   */\n      0x00\n        /* \"#utility.yul\":1808:1861   */\n      tag_93\n        /* \"#utility.yul\":1853:1860   */\n      dup6\n        /* \"#utility.yul\":1844:1850   */\n      dup3\n        /* \"#utility.yul\":1833:1842   */\n      dup7\n        /* \"#utility.yul\":1829:1851   */\n      add\n        /* \"#utility.yul\":1808:1861   */\n      tag_58\n      jump\t// in\n    tag_93:\n        /* \"#utility.yul\":1798:1861   */\n      swap3\n      pop\n        /* \"#utility.yul\":1754:1871   */\n      pop\n        /* \"#utility.yul\":1910:1912   */\n      0x20\n        /* \"#utility.yul\":1936:1989   */\n      tag_94\n        /* \"#utility.yul\":1981:1988   */\n      dup6\n        /* \"#utility.yul\":1972:1978   */\n      dup3\n        /* \"#utility.yul\":1961:1970   */\n      dup7\n        /* \"#utility.yul\":1957:1979   */\n      add\n        /* \"#utility.yul\":1936:1989   */\n      tag_54\n      jump\t// in\n    tag_94:\n        /* \"#utility.yul\":1926:1989   */\n      swap2\n      pop\n        /* \"#utility.yul\":1881:1999   */\n      pop\n        /* \"#utility.yul\":1532:2006   */\n      swap3\n      pop\n      swap3\n      swap1\n      pop\n      jump\t// out\n        /* \"#utility.yul\":2012:2130   */\n    tag_59:\n        /* \"#utility.yul\":2099:2123   */\n      tag_96\n        /* \"#utility.yul\":2117:2122   */\n      dup2\n        /* \"#utility.yul\":2099:2123   */\n      tag_52\n      jump\t// in\n    tag_96:\n        /* \"#utility.yul\":2094:2097   */\n      dup3\n        /* \"#utility.yul\":2087:2124   */\n      mstore\n        /* \"#utility.yul\":2012:2130   */\n      pop\n      pop\n      jump\t// out\n        /* \"#utility.yul\":2136:2358   */\n    tag_19:\n        /* \"#utility.yul\":2229:2233   */\n      0x00\n        /* \"#utility.yul\":2267:2269   */\n      0x20\n        /* \"#utility.yul\":2256:2265   */\n      dup3\n        /* \"#utility.yul\":2252:2270   */\n      add\n        /* \"#utility.yul\":2244:2270   */\n      swap1\n      pop\n        /* \"#utility.yul\":2280:2351   */\n      tag_98\n        /* \"#utility.yul\":2348:2349   */\n      0x00\n        /* \"#utility.yul\":2337:2346   */\n      dup4\n        /* \"#utility.yul\":2333:2350   */\n      add\n        /* \"#utility.yul\":2324:2330   */\n      dup5\n        /* \"#utility.yul\":2280:2351   */\n      tag_59\n      jump\t// in\n    tag_98:\n        /* \"#utility.yul\":2136:2358   */\n      swap3\n      swap2\n      pop\n      pop\n      jump\t// out\n        /* \"#utility.yul\":2364:2544   */\n    tag_60:\n        /* \"#utility.yul\":2412:2489   */\n      0x4e487b7100000000000000000000000000000000000000000000000000000000\n        /* \"#utility.yul\":2409:2410   */\n      0x00\n        /* \"#utility.yul\":2402:2490   */\n      mstore\n        /* \"#utility.yul\":2509:2513   */\n      0x11\n        /* \"#utility.yul\":2506:2507   */\n      0x04\n        /* \"#utility.yul\":2499:2514   */\n      mstore\n        /* \"#utility.yul\":2533:2537   */\n      0x24\n        /* \"#utility.yul\":2530:2531   */\n      0x00\n        /* \"#utility.yul\":2523:2538   */\n      revert\n        /* \"#utility.yul\":2550:2741   */\n    tag_34:\n        /* \"#utility.yul\":2590:2593   */\n      0x00\n        /* \"#utility.yul\":2609:2629   */\n      tag_101\n        /* \"#utility.yul\":2627:2628   */\n      dup3\n        /* \"#utility.yul\":2609:2629   */\n      tag_52\n      jump\t// in\n    tag_101:\n        /* \"#utility.yul\":2604:2629   */\n      swap2\n      pop\n        /* \"#utility.yul\":2643:2663   */\n      tag_102\n        /* \"#utility.yul\":2661:2662   */\n      dup4\n        /* \"#utility.yul\":2643:2663   */\n      tag_52\n      jump\t// in\n    tag_102:\n        /* \"#utility.yul\":2638:2663   */\n      swap3\n      pop\n        /* \"#utility.yul\":2686:2687   */\n      dup3\n        /* \"#utility.yul\":2683:2684   */\n      dup3\n        /* \"#utility.yul\":2679:2688   */\n      add\n        /* \"#utility.yul\":2672:2688   */\n      swap1\n      pop\n        /* \"#utility.yul\":2707:2710   */\n      dup1\n        /* \"#utility.yul\":2704:2705   */\n      dup3\n        /* \"#utility.yul\":2701:2711   */\n      gt\n        /* \"#utility.yul\":2698:2734   */\n      iszero\n      tag_103\n      jumpi\n        /* \"#utility.yul\":2714:2732   */\n      tag_104\n      tag_60\n      jump\t// in\n    tag_104:\n        /* \"#utility.yul\":2698:2734   */\n    tag_103:\n        /* \"#utility.yul\":2550:2741   */\n      swap3\n      swap2\n      pop\n      pop\n      jump\t// out\n        /* \"#utility.yul\":2747:2845   */\n    tag_61:\n        /* \"#utility.yul\":2798:2804   */\n      0x00\n        /* \"#utility.yul\":2832:2837   */\n      dup2\n        /* \"#utility.yul\":2826:2838   */\n      mload\n        /* \"#utility.yul\":2816:2838   */\n      swap1\n      pop\n        /* \"#utility.yul\":2747:2845   */\n      swap2\n      swap1\n      pop\n      jump\t// out\n        /* \"#utility.yul\":2851:2998   */\n    tag_62:\n        /* \"#utility.yul\":2952:2963   */\n      0x00\n        /* \"#utility.yul\":2989:2992   */\n      dup2\n        /* \"#utility.yul\":2974:2992   */\n      swap1\n      pop\n        /* \"#utility.yul\":2851:2998   */\n      swap3\n      swap2\n      pop\n      pop\n      jump\t// out\n        /* \"#utility.yul\":3004:3143   */\n    tag_63:\n        /* \"#utility.yul\":3093:3099   */\n      dup3\n        /* \"#utility.yul\":3088:3091   */\n      dup2\n        /* \"#utility.yul\":3083:3086   */\n      dup4\n        /* \"#utility.yul\":3077:3100   */\n      mcopy\n        /* \"#utility.yul\":3134:3135   */\n      0x00\n        /* \"#utility.yul\":3125:3131   */\n      dup4\n        /* \"#utility.yul\":3120:3123   */\n      dup4\n        /* \"#utility.yul\":3116:3132   */\n      add\n        /* \"#utility.yul\":3109:3136   */\n      mstore\n        /* \"#utility.yul\":3004:3143   */\n      pop\n      pop\n      pop\n      jump\t// out\n        /* \"#utility.yul\":3149:3535   */\n    tag_64:\n        /* \"#utility.yul\":3253:3256   */\n      0x00\n        /* \"#utility.yul\":3281:3319   */\n      tag_109\n        /* \"#utility.yul\":3313:3318   */\n      dup3\n        /* \"#utility.yul\":3281:3319   */\n      tag_61\n      jump\t// in\n    tag_109:\n        /* \"#utility.yul\":3335:3423   */\n      tag_110\n        /* \"#utility.yul\":3416:3422   */\n      dup2\n        /* \"#utility.yul\":3411:3414   */\n      dup6\n        /* \"#utility.yul\":3335:3423   */\n      tag_62\n      jump\t// in\n    tag_110:\n        /* \"#utility.yul\":3328:3423   */\n      swap4\n      pop\n        /* \"#utility.yul\":3432:3497   */\n      tag_111\n        /* \"#utility.yul\":3490:3496   */\n      dup2\n        /* \"#utility.yul\":3485:3488   */\n      dup6\n        /* \"#utility.yul\":3478:3482   */\n      0x20\n        /* \"#utility.yul\":3471:3476   */\n      dup7\n        /* \"#utility.yul\":3467:3483   */\n      add\n        /* \"#utility.yul\":3432:3497   */\n      tag_63\n      jump\t// in\n    tag_111:\n        /* \"#utility.yul\":3522:3528   */\n      dup1\n        /* \"#utility.yul\":3517:3520   */\n      dup5\n        /* \"#utility.yul\":3513:3529   */\n      add\n        /* \"#utility.yul\":3506:3529   */\n      swap2\n      pop\n        /* \"#utility.yul\":3257:3535   */\n      pop\n        /* \"#utility.yul\":3149:3535   */\n      swap3\n      swap2\n      pop\n      pop\n      jump\t// out\n        /* \"#utility.yul\":3541:3812   */\n    tag_39:\n        /* \"#utility.yul\":3671:3674   */\n      0x00\n        /* \"#utility.yul\":3693:3786   */\n      tag_113\n        /* \"#utility.yul\":3782:3785   */\n      dup3\n        /* \"#utility.yul\":3773:3779   */\n      dup5\n        /* \"#utility.yul\":3693:3786   */\n      tag_64\n      jump\t// in\n    tag_113:\n        /* \"#utility.yul\":3686:3786   */\n      swap2\n      pop\n        /* \"#utility.yul\":3803:3806   */\n      dup2\n        /* \"#utility.yul\":3796:3806   */\n      swap1\n      pop\n        /* \"#utility.yul\":3541:3812   */\n      swap3\n      swap2\n      pop\n      pop\n      jump\t// out\n        /* \"#utility.yul\":3818:3895   */\n    tag_65:\n        /* \"#utility.yul\":3855:3862   */\n      0x00\n        /* \"#utility.yul\":3884:3889   */\n      dup2\n        /* \"#utility.yul\":3873:3889   */\n      swap1\n      pop\n        /* \"#utility.yul\":3818:3895   */\n      swap2\n      swap1\n      pop\n      jump\t// out\n        /* \"#utility.yul\":3901:4023   */\n    tag_66:\n        /* \"#utility.yul\":3974:3998   */\n      tag_116\n        /* \"#utility.yul\":3992:3997   */\n      dup2\n        /* \"#utility.yul\":3974:3998   */\n      tag_65\n      jump\t// in\n    tag_116:\n        /* \"#utility.yul\":3967:3972   */\n      dup2\n        /* \"#utility.yul\":3964:3999   */\n      eq\n        /* \"#utility.yul\":3954:4017   */\n      tag_117\n      jumpi\n        /* \"#utility.yul\":4013:4014   */\n      0x00\n        /* \"#utility.yul\":4010:4011   */\n      0x00\n        /* \"#utility.yul\":4003:4015   */\n      revert\n        /* \"#utility.yul\":3954:4017   */\n    tag_117:\n        /* \"#utility.yul\":3901:4023   */\n      pop\n      jump\t// out\n        /* \"#utility.yul\":4029:4172   */\n    tag_67:\n        /* \"#utility.yul\":4086:4091   */\n      0x00\n        /* \"#utility.yul\":4117:4123   */\n      dup2\n        /* \"#utility.yul\":4111:4124   */\n      mload\n        /* \"#utility.yul\":4102:4124   */\n      swap1\n      pop\n        /* \"#utility.yul\":4133:4166   */\n      tag_119\n        /* \"#utility.yul\":4160:4165   */\n      dup2\n        /* \"#utility.yul\":4133:4166   */\n      tag_66\n      jump\t// in\n    tag_119:\n        /* \"#utility.yul\":4029:4172   */\n      swap3\n      swap2\n      pop\n      pop\n      jump\t// out\n        /* \"#utility.yul\":4178:4529   */\n    tag_43:\n        /* \"#utility.yul\":4248:4254   */\n      0x00\n        /* \"#utility.yul\":4297:4299   */\n      0x20\n        /* \"#utility.yul\":4285:4294   */\n      dup3\n        /* \"#utility.yul\":4276:4283   */\n      dup5\n        /* \"#utility.yul\":4272:4295   */\n      sub\n        /* \"#utility.yul\":4268:4300   */\n      slt\n        /* \"#utility.yul\":4265:4384   */\n      iszero\n      tag_121\n      jumpi\n        /* \"#utility.yul\":4303:4382   */\n      tag_122\n      tag_50\n      jump\t// in\n    tag_122:\n        /* \"#utility.yul\":4265:4384   */\n    tag_121:\n        /* \"#utility.yul\":4423:4424   */\n      0x00\n        /* \"#utility.yul\":4448:4512   */\n      tag_123\n        /* \"#utility.yul\":4504:4511   */\n      dup5\n        /* \"#utility.yul\":4495:4501   */\n      dup3\n        /* \"#utility.yul\":4484:4493   */\n      dup6\n        /* \"#utility.yul\":4480:4502   */\n      add\n        /* \"#utility.yul\":4448:4512   */\n      tag_67\n      jump\t// in\n    tag_123:\n        /* \"#utility.yul\":4438:4512   */\n      swap2\n      pop\n        /* \"#utility.yul\":4394:4522   */\n      pop\n        /* \"#utility.yul\":4178:4529   */\n      swap3\n      swap2\n      pop\n      pop\n      jump\t// out\n\n    auxdata: 0xa2646970667358221220cbc412dbcce8eef25cf85b0946e6f533aba57edb8b49aee5327b8a7ef4759e8764736f6c634300081e0033\n}\n",
				"bytecode": {
					"linkReferences": {},
					"object": "6080604052348015600e575f5ffd5b506105258061001c5f395ff3fe60806040526004361061003e575f3560e01c80632e1a7d4d1461004257806347e7ef241461006a578063941be5f714610086578063b189fd4c146100b0575b5f5ffd5b34801561004d575f5ffd5b50610068600480360381019061006391906102de565b6100ec565b005b610084600480360381019061007f9190610363565b6101a2565b005b348015610091575f5ffd5b5061009a610204565b6040516100a791906103b0565b60405180910390f35b3480156100bb575f5ffd5b506100d660048036038101906100d191906102de565b61020d565b6040516100e391906103b0565b60405180910390f35b6100f581610284565b801561014c57503373ffffffffffffffffffffffffffffffffffffffff165f5f9054906101000a900473ffffffffffffffffffffffffffffffffffffffff1673ffffffffffffffffffffffffffffffffffffffff16145b1561019f573373ffffffffffffffffffffffffffffffffffffffff166108fc60025490811502906040515f60405180830381858888f19350505050158015610196573d5f5f3e3d5ffd5b505f6002819055505b50565b815f5f6101000a81548173ffffffffffffffffffffffffffffffffffffffff021916908373ffffffffffffffffffffffffffffffffffffffff160217905550806001819055503460025f8282546101f991906103f6565b925050819055505050565b5f600254905090565b5f60028260405160200161022191906103b0565b60405160208183030381529060405260405161023d919061047b565b602060405180830381855afa158015610258573d5f5f3e3d5ffd5b5050506040513d601f19601f8201168201806040525081019061027b91906104c4565b5f1c9050919050565b5f61028d61029e565b6102968361020d565b149050919050565b5f600154905090565b5f5ffd5b5f819050919050565b6102bd816102ab565b81146102c7575f5ffd5b50565b5f813590506102d8816102b4565b92915050565b5f602082840312156102f3576102f26102a7565b5b5f610300848285016102ca565b91505092915050565b5f73ffffffffffffffffffffffffffffffffffffffff82169050919050565b5f61033282610309565b9050919050565b61034281610328565b811461034c575f5ffd5b50565b5f8135905061035d81610339565b92915050565b5f5f60408385031215610379576103786102a7565b5b5f6103868582860161034f565b9250506020610397858286016102ca565b9150509250929050565b6103aa816102ab565b82525050565b5f6020820190506103c35f8301846103a1565b92915050565b7f4e487b71000000000000000000000000000000000000000000000000000000005f52601160045260245ffd5b5f610400826102ab565b915061040b836102ab565b9250828201905080821115610423576104226103c9565b5b92915050565b5f81519050919050565b5f81905092915050565b8281835e5f83830152505050565b5f61045582610429565b61045f8185610433565b935061046f81856020860161043d565b80840191505092915050565b5f610486828461044b565b915081905092915050565b5f819050919050565b6104a381610491565b81146104ad575f5ffd5b50565b5f815190506104be8161049a565b92915050565b5f602082840312156104d9576104d86102a7565b5b5f6104e6848285016104b0565b9150509291505056fea2646970667358221220cbc412dbcce8eef25cf85b0946e6f533aba57edb8b49aee5327b8a7ef4759e8764736f6c634300081e0033",
					"opcodes": "PUSH1 0x80 PUSH1 0x40 MSTORE CALLVALUE DUP1 ISZERO PUSH1 0xE JUMPI PUSH0 PUSH0 REVERT JUMPDEST POP PUSH2 0x525 DUP1 PUSH2 0x1C PUSH0 CODECOPY PUSH0 RETURN INVALID PUSH1 0x80 PUSH1 0x40 MSTORE PUSH1 0x4 CALLDATASIZE LT PUSH2 0x3E JUMPI PUSH0 CALLDATALOAD PUSH1 0xE0 SHR DUP1 PUSH4 0x2E1A7D4D EQ PUSH2 0x42 JUMPI DUP1 PUSH4 0x47E7EF24 EQ PUSH2 0x6A JUMPI DUP1 PUSH4 0x941BE5F7 EQ PUSH2 0x86 JUMPI DUP1 PUSH4 0xB189FD4C EQ PUSH2 0xB0 JUMPI JUMPDEST PUSH0 PUSH0 REVERT JUMPDEST CALLVALUE DUP1 ISZERO PUSH2 0x4D JUMPI PUSH0 PUSH0 REVERT JUMPDEST POP PUSH2 0x68 PUSH1 0x4 DUP1 CALLDATASIZE SUB DUP2 ADD SWAP1 PUSH2 0x63 SWAP2 SWAP1 PUSH2 0x2DE JUMP JUMPDEST PUSH2 0xEC JUMP JUMPDEST STOP JUMPDEST PUSH2 0x84 PUSH1 0x4 DUP1 CALLDATASIZE SUB DUP2 ADD SWAP1 PUSH2 0x7F SWAP2 SWAP1 PUSH2 0x363 JUMP JUMPDEST PUSH2 0x1A2 JUMP JUMPDEST STOP JUMPDEST CALLVALUE DUP1 ISZERO PUSH2 0x91 JUMPI PUSH0 PUSH0 REVERT JUMPDEST POP PUSH2 0x9A PUSH2 0x204 JUMP JUMPDEST PUSH1 0x40 MLOAD PUSH2 0xA7 SWAP2 SWAP1 PUSH2 0x3B0 JUMP JUMPDEST PUSH1 0x40 MLOAD DUP1 SWAP2 SUB SWAP1 RETURN JUMPDEST CALLVALUE DUP1 ISZERO PUSH2 0xBB JUMPI PUSH0 PUSH0 REVERT JUMPDEST POP PUSH2 0xD6 PUSH1 0x4 DUP1 CALLDATASIZE SUB DUP2 ADD SWAP1 PUSH2 0xD1 SWAP2 SWAP1 PUSH2 0x2DE JUMP JUMPDEST PUSH2 0x20D JUMP JUMPDEST PUSH1 0x40 MLOAD PUSH2 0xE3 SWAP2 SWAP1 PUSH2 0x3B0 JUMP JUMPDEST PUSH1 0x40 MLOAD DUP1 SWAP2 SUB SWAP1 RETURN JUMPDEST PUSH2 0xF5 DUP2 PUSH2 0x284 JUMP JUMPDEST DUP1 ISZERO PUSH2 0x14C JUMPI POP CALLER PUSH20 0xFFFFFFFFFFFFFFFFFFFFFFFFFFFFFFFFFFFFFFFF AND PUSH0 PUSH0 SWAP1 SLOAD SWAP1 PUSH2 0x100 EXP SWAP1 DIV PUSH20 0xFFFFFFFFFFFFFFFFFFFFFFFFFFFFFFFFFFFFFFFF AND PUSH20 0xFFFFFFFFFFFFFFFFFFFFFFFFFFFFFFFFFFFFFFFF AND EQ JUMPDEST ISZERO PUSH2 0x19F JUMPI CALLER PUSH20 0xFFFFFFFFFFFFFFFFFFFFFFFFFFFFFFFFFFFFFFFF AND PUSH2 0x8FC PUSH1 0x2 SLOAD SWAP1 DUP2 ISZERO MUL SWAP1 PUSH1 0x40 MLOAD PUSH0 PUSH1 0x40 MLOAD DUP1 DUP4 SUB DUP2 DUP6 DUP9 DUP9 CALL SWAP4 POP POP POP POP ISZERO DUP1 ISZERO PUSH2 0x196 JUMPI RETURNDATASIZE PUSH0 PUSH0 RETURNDATACOPY RETURNDATASIZE PUSH0 REVERT JUMPDEST POP PUSH0 PUSH1 0x2 DUP2 SWAP1 SSTORE POP JUMPDEST POP JUMP JUMPDEST DUP2 PUSH0 PUSH0 PUSH2 0x100 EXP DUP2 SLOAD DUP2 PUSH20 0xFFFFFFFFFFFFFFFFFFFFFFFFFFFFFFFFFFFFFFFF MUL NOT AND SWAP1 DUP4 PUSH20 0xFFFFFFFFFFFFFFFFFFFFFFFFFFFFFFFFFFFFFFFF AND MUL OR SWAP1 SSTORE POP DUP1 PUSH1 0x1 DUP2 SWAP1 SSTORE POP CALLVALUE PUSH1 0x2 PUSH0 DUP3 DUP3 SLOAD PUSH2 0x1F9 SWAP2 SWAP1 PUSH2 0x3F6 JUMP JUMPDEST SWAP3 POP POP DUP2 SWAP1 SSTORE POP POP POP JUMP JUMPDEST PUSH0 PUSH1 0x2 SLOAD SWAP1 POP SWAP1 JUMP JUMPDEST PUSH0 PUSH1 0x2 DUP3 PUSH1 0x40 MLOAD PUSH1 0x20 ADD PUSH2 0x221 SWAP2 SWAP1 PUSH2 0x3B0 JUMP JUMPDEST PUSH1 0x40 MLOAD PUSH1 0x20 DUP2 DUP4 SUB SUB DUP2 MSTORE SWAP1 PUSH1 0x40 MSTORE PUSH1 0x40 MLOAD PUSH2 0x23D SWAP2 SWAP1 PUSH2 0x47B JUMP JUMPDEST PUSH1 0x20 PUSH1 0x40 MLOAD DUP1 DUP4 SUB DUP2 DUP6 GAS STATICCALL ISZERO DUP1 ISZERO PUSH2 0x258 JUMPI RETURNDATASIZE PUSH0 PUSH0 RETURNDATACOPY RETURNDATASIZE PUSH0 REVERT JUMPDEST POP POP POP PUSH1 0x40 MLOAD RETURNDATASIZE PUSH1 0x1F NOT PUSH1 0x1F DUP3 ADD AND DUP3 ADD DUP1 PUSH1 0x40 MSTORE POP DUP2 ADD SWAP1 PUSH2 0x27B SWAP2 SWAP1 PUSH2 0x4C4 JUMP JUMPDEST PUSH0 SHR SWAP1 POP SWAP2 SWAP1 POP JUMP JUMPDEST PUSH0 PUSH2 0x28D PUSH2 0x29E JUMP JUMPDEST PUSH2 0x296 DUP4 PUSH2 0x20D JUMP JUMPDEST EQ SWAP1 POP SWAP2 SWAP1 POP JUMP JUMPDEST PUSH0 PUSH1 0x1 SLOAD SWAP1 POP SWAP1 JUMP JUMPDEST PUSH0 PUSH0 REVERT JUMPDEST PUSH0 DUP2 SWAP1 POP SWAP2 SWAP1 POP JUMP JUMPDEST PUSH2 0x2BD DUP2 PUSH2 0x2AB JUMP JUMPDEST DUP2 EQ PUSH2 0x2C7 JUMPI PUSH0 PUSH0 REVERT JUMPDEST POP JUMP JUMPDEST PUSH0 DUP2 CALLDATALOAD SWAP1 POP PUSH2 0x2D8 DUP2 PUSH2 0x2B4 JUMP JUMPDEST SWAP3 SWAP2 POP POP JUMP JUMPDEST PUSH0 PUSH1 0x20 DUP3 DUP5 SUB SLT ISZERO PUSH2 0x2F3 JUMPI PUSH2 0x2F2 PUSH2 0x2A7 JUMP JUMPDEST JUMPDEST PUSH0 PUSH2 0x300 DUP5 DUP3 DUP6 ADD PUSH2 0x2CA JUMP JUMPDEST SWAP2 POP POP SWAP3 SWAP2 POP POP JUMP JUMPDEST PUSH0 PUSH20 0xFFFFFFFFFFFFFFFFFFFFFFFFFFFFFFFFFFFFFFFF DUP3 AND SWAP1 POP SWAP2 SWAP1 POP JUMP JUMPDEST PUSH0 PUSH2 0x332 DUP3 PUSH2 0x309 JUMP JUMPDEST SWAP1 POP SWAP2 SWAP1 POP JUMP JUMPDEST PUSH2 0x342 DUP2 PUSH2 0x328 JUMP JUMPDEST DUP2 EQ PUSH2 0x34C JUMPI PUSH0 PUSH0 REVERT JUMPDEST POP JUMP JUMPDEST PUSH0 DUP2 CALLDATALOAD SWAP1 POP PUSH2 0x35D DUP2 PUSH2 0x339 JUMP JUMPDEST SWAP3 SWAP2 POP POP JUMP JUMPDEST PUSH0 PUSH0 PUSH1 0x40 DUP4 DUP6 SUB SLT ISZERO PUSH2 0x379 JUMPI PUSH2 0x378 PUSH2 0x2A7 JUMP JUMPDEST JUMPDEST PUSH0 PUSH2 0x386 DUP6 DUP3 DUP7 ADD PUSH2 0x34F JUMP JUMPDEST SWAP3 POP POP PUSH1 0x20 PUSH2 0x397 DUP6 DUP3 DUP7 ADD PUSH2 0x2CA JUMP JUMPDEST SWAP2 POP POP SWAP3 POP SWAP3 SWAP1 POP JUMP JUMPDEST PUSH2 0x3AA DUP2 PUSH2 0x2AB JUMP JUMPDEST DUP3 MSTORE POP POP JUMP JUMPDEST PUSH0 PUSH1 0x20 DUP3 ADD SWAP1 POP PUSH2 0x3C3 PUSH0 DUP4 ADD DUP5 PUSH2 0x3A1 JUMP JUMPDEST SWAP3 SWAP2 POP POP JUMP JUMPDEST PUSH32 0x4E487B7100000000000000000000000000000000000000000000000000000000 PUSH0 MSTORE PUSH1 0x11 PUSH1 0x4 MSTORE PUSH1 0x24 PUSH0 REVERT JUMPDEST PUSH0 PUSH2 0x400 DUP3 PUSH2 0x2AB JUMP JUMPDEST SWAP2 POP PUSH2 0x40B DUP4 PUSH2 0x2AB JUMP JUMPDEST SWAP3 POP DUP3 DUP3 ADD SWAP1 POP DUP1 DUP3 GT ISZERO PUSH2 0x423 JUMPI PUSH2 0x422 PUSH2 0x3C9 JUMP JUMPDEST JUMPDEST SWAP3 SWAP2 POP POP JUMP JUMPDEST PUSH0 DUP2 MLOAD SWAP1 POP SWAP2 SWAP1 POP JUMP JUMPDEST PUSH0 DUP2 SWAP1 POP SWAP3 SWAP2 POP POP JUMP JUMPDEST DUP3 DUP2 DUP4 MCOPY PUSH0 DUP4 DUP4 ADD MSTORE POP POP POP JUMP JUMPDEST PUSH0 PUSH2 0x455 DUP3 PUSH2 0x429 JUMP JUMPDEST PUSH2 0x45F DUP2 DUP6 PUSH2 0x433 JUMP JUMPDEST SWAP4 POP PUSH2 0x46F DUP2 DUP6 PUSH1 0x20 DUP7 ADD PUSH2 0x43D JUMP JUMPDEST DUP1 DUP5 ADD SWAP2 POP POP SWAP3 SWAP2 POP POP JUMP JUMPDEST PUSH0 PUSH2 0x486 DUP3 DUP5 PUSH2 0x44B JUMP JUMPDEST SWAP2 POP DUP2 SWAP1 POP SWAP3 SWAP2 POP POP JUMP JUMPDEST PUSH0 DUP2 SWAP1 POP SWAP2 SWAP1 POP JUMP JUMPDEST PUSH2 0x4A3 DUP2 PUSH2 0x491 JUMP JUMPDEST DUP2 EQ PUSH2 0x4AD JUMPI PUSH0 PUSH0 REVERT JUMPDEST POP JUMP JUMPDEST PUSH0 DUP2 MLOAD SWAP1 POP PUSH2 0x4BE DUP2 PUSH2 0x49A JUMP JUMPDEST SWAP3 SWAP2 POP POP JUMP JUMPDEST PUSH0 PUSH1 0x20 DUP3 DUP5 SUB SLT ISZERO PUSH2 0x4D9 JUMPI PUSH2 0x4D8 PUSH2 0x2A7 JUMP JUMPDEST JUMPDEST PUSH0 PUSH2 0x4E6 DUP5 DUP3 DUP6 ADD PUSH2 0x4B0 JUMP JUMPDEST SWAP2 POP POP SWAP3 SWAP2 POP POP JUMP INVALID LOG2 PUSH5 0x6970667358 0x22 SLT KECCAK256 0xCB 0xC4 SLT 0xDB 0xCC 0xE8 RETURNCONTRACT 0xF2 TLOAD EXTCALL JUMPDEST MULMOD CHAINID DUPN 0xF5 CALLER 0xAB 0xA5 PUSH31 0xDB8B49AEE5327B8A7EF4759E8764736F6C634300081E003300000000000000 "
				},
				"gasEstimates": {
					"creation": {
						"codeDepositCost": "263400",
						"executionCost": "304",
						"totalCost": "263704"
					},
					"external": {
						"deposit(address,uint256)": "infinite",
						"getBlance()": "2454",
						"hash(uint256)": "infinite",
						"withdraw(uint256)": "infinite"
					},
					"internal": {
						"getHashedPassword()": "2122",
						"isValid(uint256)": "infinite",
						"setPassword(uint256)": "infinite"
					}
				},
				"methodIdentifiers": {
					"deposit(address,uint256)": "47e7ef24",
					"getBlance()": "941be5f7",
					"hash(uint256)": "b189fd4c",
					"withdraw(uint256)": "2e1a7d4d"
				}
			},
			"storageLayout": {
				"storage": [
					{
						"astId": 3,
						"contract": "contracts/hw3.sol:hw3",
						"label": "user",
						"offset": 0,
						"slot": "0",
						"type": "t_address"
					},
					{
						"astId": 5,
						"contract": "contracts/hw3.sol:hw3",
						"label": "hashedPassword",
						"offset": 0,
						"slot": "1",
						"type": "t_uint256"
					},
					{
						"astId": 7,
						"contract": "contracts/hw3.sol:hw3",
						"label": "balance",
						"offset": 0,
						"slot": "2",
						"type": "t_uint256"
					}
				],
				"types": {
					"t_address": {
						"encoding": "inplace",
						"label": "address",
						"numberOfBytes": "20"
					},
					"t_uint256": {
						"encoding": "inplace",
						"label": "uint256",
						"numberOfBytes": "32"
					}
				}
			},
			"userdoc": {
				"kind": "user",
				"methods": {},
				"version": 1
			}
		}
	}
}