{
	"contracts/hw4.sol": {
		"Example01": {
			"abi": [
				{
					"inputs": [
						{
							"internalType": "address",
							"name": "to",
							"type": "address"
						},
						{
							"internalType": "uint256",
							"name": "hashedPassword",
							"type": "uint256"
						}
					],
					"name": "deposit",
					"outputs": [],
					"stateMutability": "payable",
					"type": "function"
				},
				{
					"inputs": [
						{
							"internalType": "address",
							"name": "addr",
							"type": "address"
						}
					],
					"name": "getBalance",
					"outputs": [
						{
							"internalType": "uint256",
							"name": "",
							"type": "uint256"
						}
					],
					"stateMutability": "view",
					"type": "function"
				},
				{
					"inputs": [
						{
							"internalType": "uint256",
							"name": "input",
							"type": "uint256"
						}
					],
					"name": "hash",
					"outputs": [
						{
							"internalType": "uint256",
							"name": "",
							"type": "uint256"
						}
					],
					"stateMutability": "pure",
					"type": "function"
				},
				{
					"inputs": [],
					"name": "printAllInfo",
					"outputs": [
						{
							"components": [
								{
									"internalType": "address",
									"name": "account",
									"type": "address"
								},
								{
									"internalType": "uint256",
									"name": "amount",
									"type": "uint256"
								}
							],
							"internalType": "struct Example01.Wallet[]",
							"name": "",
							"type": "tuple[]"
						}
					],
					"stateMutability": "view",
					"type": "function"
				},
				{
					"inputs": [
						{
							"internalType": "address",
							"name": "to",
							"type": "address"
						},
						{
							"internalType": "uint256",
							"name": "amount",
							"type": "uint256"
						},
						{
							"internalType": "uint256",
							"name": "psword",
							"type": "uint256"
						},
						{
							"internalType": "uint256",
							"name": "newHashedPassword",
							"type": "uint256"
						}
					],
					"name": "transfer",
					"outputs": [],
					"stateMutability": "nonpayable",
					"type": "function"
				},
				{
					"inputs": [
						{
							"internalType": "uint256",
							"name": "psword",
							"type": "uint256"
						}
					],
					"name": "withdraw",
					"outputs": [],
					"stateMutability": "nonpayable",
					"type": "function"
				}
			],
			"devdoc": {
				"kind": "dev",
				"methods": {},
				"version": 1
			},
			"evm": {
				"assembly": "    /* \"contracts/hw4.sol\":114:2669  contract Example01 {... */\n  mstore(0x40, 0x80)\n  callvalue\n  dup1\n  iszero\n  tag_1\n  jumpi\n  revert(0x00, 0x00)\ntag_1:\n  pop\n  dataSize(sub_0)\n  dup1\n  dataOffset(sub_0)\n  0x00\n  codecopy\n  0x00\n  return\nstop\n\nsub_0: assembly {\n        /* \"contracts/hw4.sol\":114:2669  contract Example01 {... */\n      mstore(0x40, 0x80)\n      jumpi(tag_1, lt(calldatasize, 0x04))\n      shr(0xe0, calldataload(0x00))\n      dup1\n      0x2e1a7d4d\n      eq\n      tag_2\n      jumpi\n      dup1\n      0x47e7ef24\n      eq\n      tag_3\n      jumpi\n      dup1\n      0x9de036e7\n      eq\n      tag_4\n      jumpi\n      dup1\n      0xb189fd4c\n      eq\n      tag_5\n      jumpi\n      dup1\n      0xb6510bb3\n      eq\n      tag_6\n      jumpi\n      dup1\n      0xf8b2cb4f\n      eq\n      tag_7\n      jumpi\n    tag_1:\n      revert(0x00, 0x00)\n        /* \"contracts/hw4.sol\":671:917  function withdraw(uint psword) public {... */\n    tag_2:\n      callvalue\n      dup1\n      iszero\n      tag_8\n      jumpi\n      revert(0x00, 0x00)\n    tag_8:\n      pop\n      tag_9\n      0x04\n      dup1\n      calldatasize\n      sub\n      dup2\n      add\n      swap1\n      tag_10\n      swap2\n      swap1\n      tag_11\n      jump\t// in\n    tag_10:\n      tag_12\n      jump\t// in\n    tag_9:\n      stop\n        /* \"contracts/hw4.sol\":318:558  function deposit(address to, uint256 hashedPassword) public payable {... */\n    tag_3:\n      tag_13\n      0x04\n      dup1\n      calldatasize\n      sub\n      dup2\n      add\n      swap1\n      tag_14\n      swap2\n      swap1\n      tag_15\n      jump\t// in\n    tag_14:\n      tag_16\n      jump\t// in\n    tag_13:\n      stop\n        /* \"contracts/hw4.sol\":923:1212  function printAllInfo() public view returns (Wallet[] memory) {... */\n    tag_4:\n      callvalue\n      dup1\n      iszero\n      tag_17\n      jumpi\n      revert(0x00, 0x00)\n    tag_17:\n      pop\n      tag_18\n      tag_19\n      jump\t// in\n    tag_18:\n      mload(0x40)\n      tag_20\n      swap2\n      swap1\n      tag_21\n      jump\t// in\n    tag_20:\n      mload(0x40)\n      dup1\n      swap2\n      sub\n      swap1\n      return\n        /* \"contracts/hw4.sol\":2173:2290  function hash(uint256 input) public pure returns (uint256) {... */\n    tag_5:\n      callvalue\n      dup1\n      iszero\n      tag_22\n      jumpi\n      revert(0x00, 0x00)\n    tag_22:\n      pop\n      tag_23\n      0x04\n      dup1\n      calldatasize\n      sub\n      dup2\n      add\n      swap1\n      tag_24\n      swap2\n      swap1\n      tag_11\n      jump\t// in\n    tag_24:\n      tag_25\n      jump\t// in\n    tag_23:\n      mload(0x40)\n      tag_26\n      swap2\n      swap1\n      tag_27\n      jump\t// in\n    tag_26:\n      mload(0x40)\n      dup1\n      swap2\n      sub\n      swap1\n      return\n        /* \"contracts/hw4.sol\":1218:1692  function transfer(address to, uint256 amount, uint256 psword, uint256 newHashedPassword) public {... */\n    tag_6:\n      callvalue\n      dup1\n      iszero\n      tag_28\n      jumpi\n      revert(0x00, 0x00)\n    tag_28:\n      pop\n      tag_29\n      0x04\n      dup1\n      calldatasize\n      sub\n      dup2\n      add\n      swap1\n      tag_30\n      swap2\n      swap1\n      tag_31\n      jump\t// in\n    tag_30:\n      tag_32\n      jump\t// in\n    tag_29:\n      stop\n        /* \"contracts/hw4.sol\":564:665  function getBalance(address addr) public view returns (uint256) {... */\n    tag_7:\n      callvalue\n      dup1\n      iszero\n      tag_33\n      jumpi\n      revert(0x00, 0x00)\n    tag_33:\n      pop\n      tag_34\n      0x04\n      dup1\n      calldatasize\n      sub\n      dup2\n      add\n      swap1\n      tag_35\n      swap2\n      swap1\n      tag_36\n      jump\t// in\n    tag_35:\n      tag_37\n      jump\t// in\n    tag_34:\n      mload(0x40)\n      tag_38\n      swap2\n      swap1\n      tag_27\n      jump\t// in\n    tag_38:\n      mload(0x40)\n      dup1\n      swap2\n      sub\n      swap1\n      return\n        /* \"contracts/hw4.sol\":671:917  function withdraw(uint psword) public {... */\n    tag_12:\n        /* \"contracts/hw4.sol\":746:747  0 */\n      0x00\n        /* \"contracts/hw4.sol\":723:730  balance */\n      0x00\n        /* \"contracts/hw4.sol\":723:742  balance[msg.sender] */\n      0x00\n        /* \"contracts/hw4.sol\":731:741  msg.sender */\n      caller\n        /* \"contracts/hw4.sol\":723:742  balance[msg.sender] */\n      0xffffffffffffffffffffffffffffffffffffffff\n      and\n      0xffffffffffffffffffffffffffffffffffffffff\n      and\n      dup2\n      mstore\n      0x20\n      add\n      swap1\n      dup2\n      mstore\n      0x20\n      add\n      0x00\n      keccak256\n      sload\n        /* \"contracts/hw4.sol\":723:747  balance[msg.sender] == 0 */\n      eq\n        /* \"contracts/hw4.sol\":723:800  balance[msg.sender] == 0 || ... */\n      dup1\n      tag_40\n      jumpi\n      pop\n        /* \"contracts/hw4.sol\":788:800  hash(psword) */\n      tag_41\n        /* \"contracts/hw4.sol\":793:799  psword */\n      dup2\n        /* \"contracts/hw4.sol\":788:792  hash */\n      tag_25\n        /* \"contracts/hw4.sol\":788:800  hash(psword) */\n      jump\t// in\n    tag_41:\n        /* \"contracts/hw4.sol\":764:772  password */\n      0x01\n        /* \"contracts/hw4.sol\":764:784  password[msg.sender] */\n      0x00\n        /* \"contracts/hw4.sol\":773:783  msg.sender */\n      caller\n        /* \"contracts/hw4.sol\":764:784  password[msg.sender] */\n      0xffffffffffffffffffffffffffffffffffffffff\n      and\n      0xffffffffffffffffffffffffffffffffffffffff\n      and\n      dup2\n      mstore\n      0x20\n      add\n      swap1\n      dup2\n      mstore\n      0x20\n      add\n      0x00\n      keccak256\n      sload\n        /* \"contracts/hw4.sol\":764:800  password[msg.sender] != hash(psword) */\n      eq\n      iszero\n        /* \"contracts/hw4.sol\":723:800  balance[msg.sender] == 0 || ... */\n    tag_40:\n        /* \"contracts/hw4.sol\":810:817  return; */\n      tag_39\n        /* \"contracts/hw4.sol\":719:817  if (balance[msg.sender] == 0 || ... */\n      jumpi\n        /* \"contracts/hw4.sol\":835:845  msg.sender */\n      caller\n        /* \"contracts/hw4.sol\":827:855  payable(msg.sender).transfer */\n      0xffffffffffffffffffffffffffffffffffffffff\n      and\n        /* \"contracts/hw4.sol\":827:876  payable(msg.sender).transfer(balance[msg.sender]) */\n      0x08fc\n        /* \"contracts/hw4.sol\":856:863  balance */\n      0x00\n        /* \"contracts/hw4.sol\":856:875  balance[msg.sender] */\n      0x00\n        /* \"contracts/hw4.sol\":864:874  msg.sender */\n      caller\n        /* \"contracts/hw4.sol\":856:875  balance[msg.sender] */\n      0xffffffffffffffffffffffffffffffffffffffff\n      and\n      0xffffffffffffffffffffffffffffffffffffffff\n      and\n      dup2\n      mstore\n      0x20\n      add\n      swap1\n      dup2\n      mstore\n      0x20\n      add\n      0x00\n      keccak256\n      sload\n        /* \"contracts/hw4.sol\":827:876  payable(msg.sender).transfer(balance[msg.sender]) */\n      swap1\n      dup2\n      iszero\n      mul\n      swap1\n      mload(0x40)\n      0x00\n      mload(0x40)\n      dup1\n      dup4\n      sub\n      dup2\n      dup6\n      dup9\n      dup9\n      call\n      swap4\n      pop\n      pop\n      pop\n      pop\n      iszero\n      dup1\n      iszero\n      tag_44\n      jumpi\n      returndatacopy(0x00, 0x00, returndatasize)\n      revert(0x00, returndatasize)\n    tag_44:\n      pop\n        /* \"contracts/hw4.sol\":886:910  clearAccount(msg.sender) */\n      tag_45\n        /* \"contracts/hw4.sol\":899:909  msg.sender */\n      caller\n        /* \"contracts/hw4.sol\":886:898  clearAccount */\n      tag_46\n        /* \"contracts/hw4.sol\":886:910  clearAccount(msg.sender) */\n      jump\t// in\n    tag_45:\n        /* \"contracts/hw4.sol\":671:917  function withdraw(uint psword) public {... */\n    tag_39:\n      pop\n      jump\t// out\n        /* \"contracts/hw4.sol\":318:558  function deposit(address to, uint256 hashedPassword) public payable {... */\n    tag_16:\n        /* \"contracts/hw4.sol\":416:417  0 */\n      0x00\n        /* \"contracts/hw4.sol\":404:413  msg.value */\n      callvalue\n        /* \"contracts/hw4.sol\":404:417  msg.value > 0 */\n      gt\n        /* \"contracts/hw4.sol\":396:418  require(msg.value > 0) */\n      tag_48\n      jumpi\n      revert(0x00, 0x00)\n    tag_48:\n        /* \"contracts/hw4.sol\":433:451  isAccountExist(to) */\n      tag_49\n        /* \"contracts/hw4.sol\":448:450  to */\n      dup3\n        /* \"contracts/hw4.sol\":433:447  isAccountExist */\n      tag_50\n        /* \"contracts/hw4.sol\":433:451  isAccountExist(to) */\n      jump\t// in\n    tag_49:\n        /* \"contracts/hw4.sol\":428:470  if (!isAccountExist(to)) accounts.push(to) */\n      tag_51\n      jumpi\n        /* \"contracts/hw4.sol\":453:461  accounts */\n      0x02\n        /* \"contracts/hw4.sol\":467:469  to */\n      dup3\n        /* \"contracts/hw4.sol\":453:470  accounts.push(to) */\n      swap1\n      dup1\n      0x01\n      dup2\n      sload\n      add\n      dup1\n      dup3\n      sstore\n      dup1\n      swap2\n      pop\n      pop\n      0x01\n      swap1\n      sub\n      swap1\n      0x00\n      mstore\n      keccak256(0x00, 0x20)\n      add\n      0x00\n      swap1\n      swap2\n      swap1\n      swap2\n      swap1\n      swap2\n      0x0100\n      exp\n      dup2\n      sload\n      dup2\n      0xffffffffffffffffffffffffffffffffffffffff\n      mul\n      not\n      and\n      swap1\n      dup4\n      0xffffffffffffffffffffffffffffffffffffffff\n      and\n      mul\n      or\n      swap1\n      sstore\n      pop\n        /* \"contracts/hw4.sol\":428:470  if (!isAccountExist(to)) accounts.push(to) */\n    tag_51:\n        /* \"contracts/hw4.sol\":503:517  hashedPassword */\n      dup1\n        /* \"contracts/hw4.sol\":480:488  password */\n      0x01\n        /* \"contracts/hw4.sol\":480:500  password[msg.sender] */\n      0x00\n        /* \"contracts/hw4.sol\":489:499  msg.sender */\n      caller\n        /* \"contracts/hw4.sol\":480:500  password[msg.sender] */\n      0xffffffffffffffffffffffffffffffffffffffff\n      and\n      0xffffffffffffffffffffffffffffffffffffffff\n      and\n      dup2\n      mstore\n      0x20\n      add\n      swap1\n      dup2\n      mstore\n      0x20\n      add\n      0x00\n      keccak256\n        /* \"contracts/hw4.sol\":480:517  password[msg.sender] = hashedPassword */\n      dup2\n      swap1\n      sstore\n      pop\n        /* \"contracts/hw4.sol\":542:551  msg.value */\n      callvalue\n        /* \"contracts/hw4.sol\":527:534  balance */\n      0x00\n        /* \"contracts/hw4.sol\":527:538  balance[to] */\n      0x00\n        /* \"contracts/hw4.sol\":535:537  to */\n      dup5\n        /* \"contracts/hw4.sol\":527:538  balance[to] */\n      0xffffffffffffffffffffffffffffffffffffffff\n      and\n      0xffffffffffffffffffffffffffffffffffffffff\n      and\n      dup2\n      mstore\n      0x20\n      add\n      swap1\n      dup2\n      mstore\n      0x20\n      add\n      0x00\n      keccak256\n      0x00\n        /* \"contracts/hw4.sol\":527:551  balance[to] += msg.value */\n      dup3\n      dup3\n      sload\n      tag_53\n      swap2\n      swap1\n      tag_54\n      jump\t// in\n    tag_53:\n      swap3\n      pop\n      pop\n      dup2\n      swap1\n      sstore\n      pop\n        /* \"contracts/hw4.sol\":318:558  function deposit(address to, uint256 hashedPassword) public payable {... */\n      pop\n      pop\n      jump\t// out\n        /* \"contracts/hw4.sol\":923:1212  function printAllInfo() public view returns (Wallet[] memory) {... */\n    tag_19:\n        /* \"contracts/hw4.sol\":968:983  Wallet[] memory */\n      0x60\n        /* \"contracts/hw4.sol\":995:1018  Wallet[] memory wallets */\n      0x00\n        /* \"contracts/hw4.sol\":1034:1042  accounts */\n      0x02\n        /* \"contracts/hw4.sol\":1034:1049  accounts.length */\n      dup1\n      sload\n      swap1\n      pop\n        /* \"contracts/hw4.sol\":1021:1050  new Wallet[](accounts.length) */\n      0xffffffffffffffff\n      dup2\n      gt\n      iszero\n      tag_56\n      jumpi\n      tag_57\n      tag_58\n      jump\t// in\n    tag_57:\n    tag_56:\n      mload(0x40)\n      swap1\n      dup1\n      dup3\n      mstore\n      dup1\n      0x20\n      mul\n      0x20\n      add\n      dup3\n      add\n      0x40\n      mstore\n      dup1\n      iszero\n      tag_59\n      jumpi\n      dup2\n      0x20\n      add\n    tag_60:\n      tag_61\n      tag_62\n      jump\t// in\n    tag_61:\n      dup2\n      mstore\n      0x20\n      add\n      swap1\n      0x01\n      swap1\n      sub\n      swap1\n      dup2\n      tag_60\n      jumpi\n      swap1\n      pop\n    tag_59:\n      pop\n        /* \"contracts/hw4.sol\":995:1050  Wallet[] memory wallets = new Wallet[](accounts.length) */\n      swap1\n      pop\n        /* \"contracts/hw4.sol\":1065:1071  uint i */\n      0x00\n        /* \"contracts/hw4.sol\":1074:1075  0 */\n      0x00\n        /* \"contracts/hw4.sol\":1065:1075  uint i = 0 */\n      swap1\n      pop\n        /* \"contracts/hw4.sol\":1060:1182  for (uint i = 0; i < accounts.length; i++) {... */\n    tag_63:\n        /* \"contracts/hw4.sol\":1081:1089  accounts */\n      0x02\n        /* \"contracts/hw4.sol\":1081:1096  accounts.length */\n      dup1\n      sload\n      swap1\n      pop\n        /* \"contracts/hw4.sol\":1077:1078  i */\n      dup2\n        /* \"contracts/hw4.sol\":1077:1096  i < accounts.length */\n      lt\n        /* \"contracts/hw4.sol\":1060:1182  for (uint i = 0; i < accounts.length; i++) {... */\n      iszero\n      tag_64\n      jumpi\n        /* \"contracts/hw4.sol\":1130:1171  Wallet(accounts[i], balance[accounts[i]]) */\n      mload(0x40)\n      dup1\n      0x40\n      add\n      0x40\n      mstore\n      dup1\n        /* \"contracts/hw4.sol\":1137:1145  accounts */\n      0x02\n        /* \"contracts/hw4.sol\":1146:1147  i */\n      dup4\n        /* \"contracts/hw4.sol\":1137:1148  accounts[i] */\n      dup2\n      sload\n      dup2\n      lt\n      tag_66\n      jumpi\n      tag_67\n      tag_68\n      jump\t// in\n    tag_67:\n    tag_66:\n      swap1\n      0x00\n      mstore\n      keccak256(0x00, 0x20)\n      add\n      0x00\n      swap1\n      sload\n      swap1\n      0x0100\n      exp\n      swap1\n      div\n      0xffffffffffffffffffffffffffffffffffffffff\n      and\n        /* \"contracts/hw4.sol\":1130:1171  Wallet(accounts[i], balance[accounts[i]]) */\n      0xffffffffffffffffffffffffffffffffffffffff\n      and\n      dup2\n      mstore\n      0x20\n      add\n        /* \"contracts/hw4.sol\":1150:1157  balance */\n      0x00\n        /* \"contracts/hw4.sol\":1150:1170  balance[accounts[i]] */\n      0x00\n        /* \"contracts/hw4.sol\":1158:1166  accounts */\n      0x02\n        /* \"contracts/hw4.sol\":1167:1168  i */\n      dup6\n        /* \"contracts/hw4.sol\":1158:1169  accounts[i] */\n      dup2\n      sload\n      dup2\n      lt\n      tag_70\n      jumpi\n      tag_71\n      tag_68\n      jump\t// in\n    tag_71:\n    tag_70:\n      swap1\n      0x00\n      mstore\n      keccak256(0x00, 0x20)\n      add\n      0x00\n      swap1\n      sload\n      swap1\n      0x0100\n      exp\n      swap1\n      div\n      0xffffffffffffffffffffffffffffffffffffffff\n      and\n        /* \"contracts/hw4.sol\":1150:1170  balance[accounts[i]] */\n      0xffffffffffffffffffffffffffffffffffffffff\n      and\n      0xffffffffffffffffffffffffffffffffffffffff\n      and\n      dup2\n      mstore\n      0x20\n      add\n      swap1\n      dup2\n      mstore\n      0x20\n      add\n      0x00\n      keccak256\n      sload\n        /* \"contracts/hw4.sol\":1130:1171  Wallet(accounts[i], balance[accounts[i]]) */\n      dup2\n      mstore\n      pop\n        /* \"contracts/hw4.sol\":1117:1124  wallets */\n      dup3\n        /* \"contracts/hw4.sol\":1125:1126  i */\n      dup3\n        /* \"contracts/hw4.sol\":1117:1127  wallets[i] */\n      dup2\n      mload\n      dup2\n      lt\n      tag_73\n      jumpi\n      tag_74\n      tag_68\n      jump\t// in\n    tag_74:\n    tag_73:\n      0x20\n      mul\n      0x20\n      add\n      add\n        /* \"contracts/hw4.sol\":1117:1171  wallets[i] = Wallet(accounts[i], balance[accounts[i]]) */\n      dup2\n      swap1\n      mstore\n      pop\n        /* \"contracts/hw4.sol\":1098:1101  i++ */\n      dup1\n      dup1\n      0x01\n      add\n      swap2\n      pop\n      pop\n        /* \"contracts/hw4.sol\":1060:1182  for (uint i = 0; i < accounts.length; i++) {... */\n      jump(tag_63)\n    tag_64:\n      pop\n        /* \"contracts/hw4.sol\":1198:1205  wallets */\n      dup1\n        /* \"contracts/hw4.sol\":1191:1205  return wallets */\n      swap2\n      pop\n      pop\n        /* \"contracts/hw4.sol\":923:1212  function printAllInfo() public view returns (Wallet[] memory) {... */\n      swap1\n      jump\t// out\n        /* \"contracts/hw4.sol\":2173:2290  function hash(uint256 input) public pure returns (uint256) {... */\n    tag_25:\n        /* \"contracts/hw4.sol\":2223:2230  uint256 */\n      0x00\n        /* \"contracts/hw4.sol\":2257:2282  sha256(abi.encode(input)) */\n      0x02\n        /* \"contracts/hw4.sol\":2275:2280  input */\n      dup3\n        /* \"contracts/hw4.sol\":2264:2281  abi.encode(input) */\n      add(0x20, mload(0x40))\n      tag_76\n      swap2\n      swap1\n      tag_27\n      jump\t// in\n    tag_76:\n      mload(0x40)\n      0x20\n      dup2\n      dup4\n      sub\n      sub\n      dup2\n      mstore\n      swap1\n      0x40\n      mstore\n        /* \"contracts/hw4.sol\":2257:2282  sha256(abi.encode(input)) */\n      mload(0x40)\n      tag_77\n      swap2\n      swap1\n      tag_78\n      jump\t// in\n    tag_77:\n      0x20\n      mload(0x40)\n      dup1\n      dup4\n      sub\n      dup2\n      dup6\n      gas\n      staticcall\n      iszero\n      dup1\n      iszero\n      tag_80\n      jumpi\n      returndatacopy(0x00, 0x00, returndatasize)\n      revert(0x00, returndatasize)\n    tag_80:\n      pop\n      pop\n      pop\n      mload(0x40)\n      returndatasize\n      not(0x1f)\n      0x1f\n      dup3\n      add\n      and\n      dup3\n      add\n      dup1\n      0x40\n      mstore\n      pop\n      dup2\n      add\n      swap1\n      tag_81\n      swap2\n      swap1\n      tag_82\n      jump\t// in\n    tag_81:\n        /* \"contracts/hw4.sol\":2249:2283  uint256(sha256(abi.encode(input))) */\n      0x00\n      shr\n        /* \"contracts/hw4.sol\":2242:2283  return uint256(sha256(abi.encode(input))) */\n      swap1\n      pop\n        /* \"contracts/hw4.sol\":2173:2290  function hash(uint256 input) public pure returns (uint256) {... */\n      swap2\n      swap1\n      pop\n      jump\t// out\n        /* \"contracts/hw4.sol\":1218:1692  function transfer(address to, uint256 amount, uint256 psword, uint256 newHashedPassword) public {... */\n    tag_32:\n        /* \"contracts/hw4.sol\":1341:1342  0 */\n      0x00\n        /* \"contracts/hw4.sol\":1332:1338  amount */\n      dup4\n        /* \"contracts/hw4.sol\":1332:1342  amount > 0 */\n      gt\n        /* \"contracts/hw4.sol\":1324:1343  require(amount > 0) */\n      tag_84\n      jumpi\n      revert(0x00, 0x00)\n    tag_84:\n        /* \"contracts/hw4.sol\":1372:1373  0 */\n      0x00\n        /* \"contracts/hw4.sol\":1357:1364  balance */\n      0x00\n        /* \"contracts/hw4.sol\":1357:1368  balance[to] */\n      0x00\n        /* \"contracts/hw4.sol\":1365:1367  to */\n      dup7\n        /* \"contracts/hw4.sol\":1357:1368  balance[to] */\n      0xffffffffffffffffffffffffffffffffffffffff\n      and\n      0xffffffffffffffffffffffffffffffffffffffff\n      and\n      dup2\n      mstore\n      0x20\n      add\n      swap1\n      dup2\n      mstore\n      0x20\n      add\n      0x00\n      keccak256\n      sload\n        /* \"contracts/hw4.sol\":1357:1373  balance[to] == 0 */\n      eq\n        /* \"contracts/hw4.sol\":1357:1417  balance[to] == 0 ||... */\n      dup1\n      tag_85\n      jumpi\n      pop\n        /* \"contracts/hw4.sol\":1411:1417  amount */\n      dup3\n        /* \"contracts/hw4.sol\":1389:1396  balance */\n      0x00\n        /* \"contracts/hw4.sol\":1389:1408  balance[msg.sender] */\n      0x00\n        /* \"contracts/hw4.sol\":1397:1407  msg.sender */\n      caller\n        /* \"contracts/hw4.sol\":1389:1408  balance[msg.sender] */\n      0xffffffffffffffffffffffffffffffffffffffff\n      and\n      0xffffffffffffffffffffffffffffffffffffffff\n      and\n      dup2\n      mstore\n      0x20\n      add\n      swap1\n      dup2\n      mstore\n      0x20\n      add\n      0x00\n      keccak256\n      sload\n        /* \"contracts/hw4.sol\":1389:1417  balance[msg.sender] < amount */\n      lt\n        /* \"contracts/hw4.sol\":1357:1417  balance[to] == 0 ||... */\n    tag_85:\n        /* \"contracts/hw4.sol\":1357:1469  balance[to] == 0 ||... */\n      dup1\n      tag_86\n      jumpi\n      pop\n        /* \"contracts/hw4.sol\":1449:1457  password */\n      0x01\n        /* \"contracts/hw4.sol\":1449:1469  password[msg.sender] */\n      0x00\n        /* \"contracts/hw4.sol\":1458:1468  msg.sender */\n      caller\n        /* \"contracts/hw4.sol\":1449:1469  password[msg.sender] */\n      0xffffffffffffffffffffffffffffffffffffffff\n      and\n      0xffffffffffffffffffffffffffffffffffffffff\n      and\n      dup2\n      mstore\n      0x20\n      add\n      swap1\n      dup2\n      mstore\n      0x20\n      add\n      0x00\n      keccak256\n      sload\n        /* \"contracts/hw4.sol\":1433:1445  hash(psword) */\n      tag_87\n        /* \"contracts/hw4.sol\":1438:1444  psword */\n      dup4\n        /* \"contracts/hw4.sol\":1433:1437  hash */\n      tag_25\n        /* \"contracts/hw4.sol\":1433:1445  hash(psword) */\n      jump\t// in\n    tag_87:\n        /* \"contracts/hw4.sol\":1433:1469  hash(psword) != password[msg.sender] */\n      eq\n      iszero\n        /* \"contracts/hw4.sol\":1357:1469  balance[to] == 0 ||... */\n    tag_86:\n        /* \"contracts/hw4.sol\":1480:1487  return; */\n      tag_83\n        /* \"contracts/hw4.sol\":1353:1487  if (balance[to] == 0 ||... */\n      jumpi\n        /* \"contracts/hw4.sol\":1512:1518  amount */\n      dup3\n        /* \"contracts/hw4.sol\":1497:1504  balance */\n      0x00\n        /* \"contracts/hw4.sol\":1497:1508  balance[to] */\n      0x00\n        /* \"contracts/hw4.sol\":1505:1507  to */\n      dup7\n        /* \"contracts/hw4.sol\":1497:1508  balance[to] */\n      0xffffffffffffffffffffffffffffffffffffffff\n      and\n      0xffffffffffffffffffffffffffffffffffffffff\n      and\n      dup2\n      mstore\n      0x20\n      add\n      swap1\n      dup2\n      mstore\n      0x20\n      add\n      0x00\n      keccak256\n      0x00\n        /* \"contracts/hw4.sol\":1497:1518  balance[to] += amount */\n      dup3\n      dup3\n      sload\n      tag_89\n      swap2\n      swap1\n      tag_54\n      jump\t// in\n    tag_89:\n      swap3\n      pop\n      pop\n      dup2\n      swap1\n      sstore\n      pop\n        /* \"contracts/hw4.sol\":1551:1557  amount */\n      dup3\n        /* \"contracts/hw4.sol\":1528:1535  balance */\n      0x00\n        /* \"contracts/hw4.sol\":1528:1547  balance[msg.sender] */\n      0x00\n        /* \"contracts/hw4.sol\":1536:1546  msg.sender */\n      caller\n        /* \"contracts/hw4.sol\":1528:1547  balance[msg.sender] */\n      0xffffffffffffffffffffffffffffffffffffffff\n      and\n      0xffffffffffffffffffffffffffffffffffffffff\n      and\n      dup2\n      mstore\n      0x20\n      add\n      swap1\n      dup2\n      mstore\n      0x20\n      add\n      0x00\n      keccak256\n      0x00\n        /* \"contracts/hw4.sol\":1528:1557  balance[msg.sender] -= amount */\n      dup3\n      dup3\n      sload\n      tag_90\n      swap2\n      swap1\n      tag_91\n      jump\t// in\n    tag_90:\n      swap3\n      pop\n      pop\n      dup2\n      swap1\n      sstore\n      pop\n        /* \"contracts/hw4.sol\":1603:1604  0 */\n      0x00\n        /* \"contracts/hw4.sol\":1580:1587  balance */\n      0x00\n        /* \"contracts/hw4.sol\":1580:1599  balance[msg.sender] */\n      0x00\n        /* \"contracts/hw4.sol\":1588:1598  msg.sender */\n      caller\n        /* \"contracts/hw4.sol\":1580:1599  balance[msg.sender] */\n      0xffffffffffffffffffffffffffffffffffffffff\n      and\n      0xffffffffffffffffffffffffffffffffffffffff\n      and\n      dup2\n      mstore\n      0x20\n      add\n      swap1\n      dup2\n      mstore\n      0x20\n      add\n      0x00\n      keccak256\n      sload\n        /* \"contracts/hw4.sol\":1580:1604  balance[msg.sender] == 0 */\n      sub\n        /* \"contracts/hw4.sol\":1576:1685  if (balance[msg.sender] == 0) clearAccount(msg.sender);... */\n      tag_92\n      jumpi\n        /* \"contracts/hw4.sol\":1606:1630  clearAccount(msg.sender) */\n      tag_93\n        /* \"contracts/hw4.sol\":1619:1629  msg.sender */\n      caller\n        /* \"contracts/hw4.sol\":1606:1618  clearAccount */\n      tag_46\n        /* \"contracts/hw4.sol\":1606:1630  clearAccount(msg.sender) */\n      jump\t// in\n    tag_93:\n        /* \"contracts/hw4.sol\":1576:1685  if (balance[msg.sender] == 0) clearAccount(msg.sender);... */\n      jump(tag_94)\n    tag_92:\n        /* \"contracts/hw4.sol\":1668:1685  newHashedPassword */\n      dup1\n        /* \"contracts/hw4.sol\":1645:1653  password */\n      0x01\n        /* \"contracts/hw4.sol\":1645:1665  password[msg.sender] */\n      0x00\n        /* \"contracts/hw4.sol\":1654:1664  msg.sender */\n      caller\n        /* \"contracts/hw4.sol\":1645:1665  password[msg.sender] */\n      0xffffffffffffffffffffffffffffffffffffffff\n      and\n      0xffffffffffffffffffffffffffffffffffffffff\n      and\n      dup2\n      mstore\n      0x20\n      add\n      swap1\n      dup2\n      mstore\n      0x20\n      add\n      0x00\n      keccak256\n        /* \"contracts/hw4.sol\":1645:1685  password[msg.sender] = newHashedPassword */\n      dup2\n      swap1\n      sstore\n      pop\n        /* \"contracts/hw4.sol\":1576:1685  if (balance[msg.sender] == 0) clearAccount(msg.sender);... */\n    tag_94:\n        /* \"contracts/hw4.sol\":1218:1692  function transfer(address to, uint256 amount, uint256 psword, uint256 newHashedPassword) public {... */\n    tag_83:\n      pop\n      pop\n      pop\n      pop\n      jump\t// out\n        /* \"contracts/hw4.sol\":564:665  function getBalance(address addr) public view returns (uint256) {... */\n    tag_37:\n        /* \"contracts/hw4.sol\":619:626  uint256 */\n      0x00\n        /* \"contracts/hw4.sol\":645:652  balance */\n      0x00\n        /* \"contracts/hw4.sol\":645:658  balance[addr] */\n      0x00\n        /* \"contracts/hw4.sol\":653:657  addr */\n      dup4\n        /* \"contracts/hw4.sol\":645:658  balance[addr] */\n      0xffffffffffffffffffffffffffffffffffffffff\n      and\n      0xffffffffffffffffffffffffffffffffffffffff\n      and\n      dup2\n      mstore\n      0x20\n      add\n      swap1\n      dup2\n      mstore\n      0x20\n      add\n      0x00\n      keccak256\n      sload\n        /* \"contracts/hw4.sol\":638:658  return balance[addr] */\n      swap1\n      pop\n        /* \"contracts/hw4.sol\":564:665  function getBalance(address addr) public view returns (uint256) {... */\n      swap2\n      swap1\n      pop\n      jump\t// out\n        /* \"contracts/hw4.sol\":2296:2667  function clearAccount(address account) private {... */\n    tag_46:\n        /* \"contracts/hw4.sol\":2431:2444  uint256 index */\n      0x00\n        /* \"contracts/hw4.sol\":2447:2471  getAccountIndex(account) */\n      tag_97\n        /* \"contracts/hw4.sol\":2463:2470  account */\n      dup3\n        /* \"contracts/hw4.sol\":2447:2462  getAccountIndex */\n      tag_98\n        /* \"contracts/hw4.sol\":2447:2471  getAccountIndex(account) */\n      jump\t// in\n    tag_97:\n        /* \"contracts/hw4.sol\":2431:2471  uint256 index = getAccountIndex(account) */\n      swap1\n      pop\n        /* \"contracts/hw4.sol\":2499:2507  accounts */\n      0x02\n        /* \"contracts/hw4.sol\":2526:2527  1 */\n      0x01\n        /* \"contracts/hw4.sol\":2508:2516  accounts */\n      0x02\n        /* \"contracts/hw4.sol\":2508:2523  accounts.length */\n      dup1\n      sload\n      swap1\n      pop\n        /* \"contracts/hw4.sol\":2508:2527  accounts.length - 1 */\n      tag_99\n      swap2\n      swap1\n      tag_91\n      jump\t// in\n    tag_99:\n        /* \"contracts/hw4.sol\":2499:2528  accounts[accounts.length - 1] */\n      dup2\n      sload\n      dup2\n      lt\n      tag_100\n      jumpi\n      tag_101\n      tag_68\n      jump\t// in\n    tag_101:\n    tag_100:\n      swap1\n      0x00\n      mstore\n      keccak256(0x00, 0x20)\n      add\n      0x00\n      swap1\n      sload\n      swap1\n      0x0100\n      exp\n      swap1\n      div\n      0xffffffffffffffffffffffffffffffffffffffff\n      and\n        /* \"contracts/hw4.sol\":2481:2489  accounts */\n      0x02\n        /* \"contracts/hw4.sol\":2490:2495  index */\n      dup3\n        /* \"contracts/hw4.sol\":2481:2496  accounts[index] */\n      dup2\n      sload\n      dup2\n      lt\n      tag_103\n      jumpi\n      tag_104\n      tag_68\n      jump\t// in\n    tag_104:\n    tag_103:\n      swap1\n      0x00\n      mstore\n      keccak256(0x00, 0x20)\n      add\n      0x00\n        /* \"contracts/hw4.sol\":2481:2528  accounts[index] = accounts[accounts.length - 1] */\n      0x0100\n      exp\n      dup2\n      sload\n      dup2\n      0xffffffffffffffffffffffffffffffffffffffff\n      mul\n      not\n      and\n      swap1\n      dup4\n      0xffffffffffffffffffffffffffffffffffffffff\n      and\n      mul\n      or\n      swap1\n      sstore\n      pop\n        /* \"contracts/hw4.sol\":2538:2546  accounts */\n      0x02\n        /* \"contracts/hw4.sol\":2538:2552  accounts.pop() */\n      dup1\n      sload\n      dup1\n      tag_106\n      jumpi\n      tag_107\n      tag_108\n      jump\t// in\n    tag_107:\n    tag_106:\n      0x01\n      swap1\n      sub\n      dup2\n      dup2\n      swap1\n      0x00\n      mstore\n      keccak256(0x00, 0x20)\n      add\n      exp(0x0100, 0x00)\n      dup2\n      sload\n      swap1\n      0xffffffffffffffffffffffffffffffffffffffff\n      mul\n      not\n      and\n      swap1\n      sstore\n      swap1\n      sstore\n        /* \"contracts/hw4.sol\":2607:2614  balance */\n      0x00\n        /* \"contracts/hw4.sol\":2607:2623  balance[account] */\n      0x00\n        /* \"contracts/hw4.sol\":2615:2622  account */\n      dup4\n        /* \"contracts/hw4.sol\":2607:2623  balance[account] */\n      0xffffffffffffffffffffffffffffffffffffffff\n      and\n      0xffffffffffffffffffffffffffffffffffffffff\n      and\n      dup2\n      mstore\n      0x20\n      add\n      swap1\n      dup2\n      mstore\n      0x20\n      add\n      0x00\n      keccak256\n        /* \"contracts/hw4.sol\":2599:2624  delete (balance[account]) */\n      0x00\n      swap1\n      sstore\n        /* \"contracts/hw4.sol\":2642:2650  password */\n      0x01\n        /* \"contracts/hw4.sol\":2642:2659  password[account] */\n      0x00\n        /* \"contracts/hw4.sol\":2651:2658  account */\n      dup4\n        /* \"contracts/hw4.sol\":2642:2659  password[account] */\n      0xffffffffffffffffffffffffffffffffffffffff\n      and\n      0xffffffffffffffffffffffffffffffffffffffff\n      and\n      dup2\n      mstore\n      0x20\n      add\n      swap1\n      dup2\n      mstore\n      0x20\n      add\n      0x00\n      keccak256\n        /* \"contracts/hw4.sol\":2634:2660  delete (password[account]) */\n      0x00\n      swap1\n      sstore\n        /* \"contracts/hw4.sol\":2343:2667  {... */\n      pop\n        /* \"contracts/hw4.sol\":2296:2667  function clearAccount(address account) private {... */\n      pop\n      jump\t// out\n        /* \"contracts/hw4.sol\":1698:1901  function isAccountExist(address addr) private view returns (bool) {... */\n    tag_50:\n        /* \"contracts/hw4.sol\":1758:1762  bool */\n      0x00\n        /* \"contracts/hw4.sol\":1844:1852  accounts */\n      0x02\n        /* \"contracts/hw4.sol\":1844:1859  accounts.length */\n      dup1\n      sload\n      swap1\n      pop\n        /* \"contracts/hw4.sol\":1819:1840  getAccountIndex(addr) */\n      tag_111\n        /* \"contracts/hw4.sol\":1835:1839  addr */\n      dup4\n        /* \"contracts/hw4.sol\":1819:1834  getAccountIndex */\n      tag_98\n        /* \"contracts/hw4.sol\":1819:1840  getAccountIndex(addr) */\n      jump\t// in\n    tag_111:\n        /* \"contracts/hw4.sol\":1819:1859  getAccountIndex(addr) == accounts.length */\n      sub\n        /* \"contracts/hw4.sol\":1815:1873  if (getAccountIndex(addr) == accounts.length) return false */\n      tag_112\n      jumpi\n        /* \"contracts/hw4.sol\":1868:1873  false */\n      0x00\n        /* \"contracts/hw4.sol\":1861:1873  return false */\n      swap1\n      pop\n      jump(tag_110)\n        /* \"contracts/hw4.sol\":1815:1873  if (getAccountIndex(addr) == accounts.length) return false */\n    tag_112:\n        /* \"contracts/hw4.sol\":1890:1894  true */\n      0x01\n        /* \"contracts/hw4.sol\":1883:1894  return true */\n      swap1\n      pop\n        /* \"contracts/hw4.sol\":1698:1901  function isAccountExist(address addr) private view returns (bool) {... */\n    tag_110:\n      swap2\n      swap1\n      pop\n      jump\t// out\n        /* \"contracts/hw4.sol\":1907:2167  function getAccountIndex(address addr) private view returns (uint) {... */\n    tag_98:\n        /* \"contracts/hw4.sol\":1968:1972  uint */\n      0x00\n        /* \"contracts/hw4.sol\":1989:1995  uint i */\n      0x00\n        /* \"contracts/hw4.sol\":1998:1999  0 */\n      0x00\n        /* \"contracts/hw4.sol\":1989:1999  uint i = 0 */\n      swap1\n      pop\n        /* \"contracts/hw4.sol\":1984:2087  for (uint i = 0; i < accounts.length; i++) {... */\n    tag_114:\n        /* \"contracts/hw4.sol\":2005:2013  accounts */\n      0x02\n        /* \"contracts/hw4.sol\":2005:2020  accounts.length */\n      dup1\n      sload\n      swap1\n      pop\n        /* \"contracts/hw4.sol\":2001:2002  i */\n      dup2\n        /* \"contracts/hw4.sol\":2001:2020  i < accounts.length */\n      lt\n        /* \"contracts/hw4.sol\":1984:2087  for (uint i = 0; i < accounts.length; i++) {... */\n      iszero\n      tag_115\n      jumpi\n        /* \"contracts/hw4.sol\":2061:2065  addr */\n      dup3\n        /* \"contracts/hw4.sol\":2046:2065  accounts[i] == addr */\n      0xffffffffffffffffffffffffffffffffffffffff\n      and\n        /* \"contracts/hw4.sol\":2046:2054  accounts */\n      0x02\n        /* \"contracts/hw4.sol\":2055:2056  i */\n      dup3\n        /* \"contracts/hw4.sol\":2046:2057  accounts[i] */\n      dup2\n      sload\n      dup2\n      lt\n      tag_117\n      jumpi\n      tag_118\n      tag_68\n      jump\t// in\n    tag_118:\n    tag_117:\n      swap1\n      0x00\n      mstore\n      keccak256(0x00, 0x20)\n      add\n      0x00\n      swap1\n      sload\n      swap1\n      0x0100\n      exp\n      swap1\n      div\n      0xffffffffffffffffffffffffffffffffffffffff\n      and\n        /* \"contracts/hw4.sol\":2046:2065  accounts[i] == addr */\n      0xffffffffffffffffffffffffffffffffffffffff\n      and\n      sub\n        /* \"contracts/hw4.sol\":2041:2076  if ((accounts[i] == addr)) return i */\n      tag_120\n      jumpi\n        /* \"contracts/hw4.sol\":2075:2076  i */\n      dup1\n        /* \"contracts/hw4.sol\":2068:2076  return i */\n      swap2\n      pop\n      pop\n      jump(tag_113)\n        /* \"contracts/hw4.sol\":2041:2076  if ((accounts[i] == addr)) return i */\n    tag_120:\n        /* \"contracts/hw4.sol\":2022:2025  i++ */\n      dup1\n      dup1\n      0x01\n      add\n      swap2\n      pop\n      pop\n        /* \"contracts/hw4.sol\":1984:2087  for (uint i = 0; i < accounts.length; i++) {... */\n      jump(tag_114)\n    tag_115:\n      pop\n        /* \"contracts/hw4.sol\":2103:2111  accounts */\n      0x02\n        /* \"contracts/hw4.sol\":2103:2118  accounts.length */\n      dup1\n      sload\n      swap1\n      pop\n        /* \"contracts/hw4.sol\":2096:2118  return accounts.length */\n      swap1\n      pop\n        /* \"contracts/hw4.sol\":1907:2167  function getAccountIndex(address addr) private view returns (uint) {... */\n    tag_113:\n      swap2\n      swap1\n      pop\n      jump\t// out\n    tag_62:\n      mload(0x40)\n      dup1\n      0x40\n      add\n      0x40\n      mstore\n      dup1\n      and(0xffffffffffffffffffffffffffffffffffffffff, 0x00)\n      dup2\n      mstore\n      0x20\n      add\n      0x00\n      dup2\n      mstore\n      pop\n      swap1\n      jump\t// out\n        /* \"#utility.yul\":88:205   */\n    tag_122:\n        /* \"#utility.yul\":197:198   */\n      0x00\n        /* \"#utility.yul\":194:195   */\n      0x00\n        /* \"#utility.yul\":187:199   */\n      revert\n        /* \"#utility.yul\":334:411   */\n    tag_124:\n        /* \"#utility.yul\":371:378   */\n      0x00\n        /* \"#utility.yul\":400:405   */\n      dup2\n        /* \"#utility.yul\":389:405   */\n      swap1\n      pop\n        /* \"#utility.yul\":334:411   */\n      swap2\n      swap1\n      pop\n      jump\t// out\n        /* \"#utility.yul\":417:539   */\n    tag_125:\n        /* \"#utility.yul\":490:514   */\n      tag_155\n        /* \"#utility.yul\":508:513   */\n      dup2\n        /* \"#utility.yul\":490:514   */\n      tag_124\n      jump\t// in\n    tag_155:\n        /* \"#utility.yul\":483:488   */\n      dup2\n        /* \"#utility.yul\":480:515   */\n      eq\n        /* \"#utility.yul\":470:533   */\n      tag_156\n      jumpi\n        /* \"#utility.yul\":529:530   */\n      0x00\n        /* \"#utility.yul\":526:527   */\n      0x00\n        /* \"#utility.yul\":519:531   */\n      revert\n        /* \"#utility.yul\":470:533   */\n    tag_156:\n        /* \"#utility.yul\":417:539   */\n      pop\n      jump\t// out\n        /* \"#utility.yul\":545:684   */\n    tag_126:\n        /* \"#utility.yul\":591:596   */\n      0x00\n        /* \"#utility.yul\":629:635   */\n      dup2\n        /* \"#utility.yul\":616:636   */\n      calldataload\n        /* \"#utility.yul\":607:636   */\n      swap1\n      pop\n        /* \"#utility.yul\":645:678   */\n      tag_158\n        /* \"#utility.yul\":672:677   */\n      dup2\n        /* \"#utility.yul\":645:678   */\n      tag_125\n      jump\t// in\n    tag_158:\n        /* \"#utility.yul\":545:684   */\n      swap3\n      swap2\n      pop\n      pop\n      jump\t// out\n        /* \"#utility.yul\":690:1019   */\n    tag_11:\n        /* \"#utility.yul\":749:755   */\n      0x00\n        /* \"#utility.yul\":798:800   */\n      0x20\n        /* \"#utility.yul\":786:795   */\n      dup3\n        /* \"#utility.yul\":777:784   */\n      dup5\n        /* \"#utility.yul\":773:796   */\n      sub\n        /* \"#utility.yul\":769:801   */\n      slt\n        /* \"#utility.yul\":766:885   */\n      iszero\n      tag_160\n      jumpi\n        /* \"#utility.yul\":804:883   */\n      tag_161\n      tag_122\n      jump\t// in\n    tag_161:\n        /* \"#utility.yul\":766:885   */\n    tag_160:\n        /* \"#utility.yul\":924:925   */\n      0x00\n        /* \"#utility.yul\":949:1002   */\n      tag_162\n        /* \"#utility.yul\":994:1001   */\n      dup5\n        /* \"#utility.yul\":985:991   */\n      dup3\n        /* \"#utility.yul\":974:983   */\n      dup6\n        /* \"#utility.yul\":970:992   */\n      add\n        /* \"#utility.yul\":949:1002   */\n      tag_126\n      jump\t// in\n    tag_162:\n        /* \"#utility.yul\":939:1002   */\n      swap2\n      pop\n        /* \"#utility.yul\":895:1012   */\n      pop\n        /* \"#utility.yul\":690:1019   */\n      swap3\n      swap2\n      pop\n      pop\n      jump\t// out\n        /* \"#utility.yul\":1025:1151   */\n    tag_127:\n        /* \"#utility.yul\":1062:1069   */\n      0x00\n        /* \"#utility.yul\":1102:1144   */\n      0xffffffffffffffffffffffffffffffffffffffff\n        /* \"#utility.yul\":1095:1100   */\n      dup3\n        /* \"#utility.yul\":1091:1145   */\n      and\n        /* \"#utility.yul\":1080:1145   */\n      swap1\n      pop\n        /* \"#utility.yul\":1025:1151   */\n      swap2\n      swap1\n      pop\n      jump\t// out\n        /* \"#utility.yul\":1157:1253   */\n    tag_128:\n        /* \"#utility.yul\":1194:1201   */\n      0x00\n        /* \"#utility.yul\":1223:1247   */\n      tag_165\n        /* \"#utility.yul\":1241:1246   */\n      dup3\n        /* \"#utility.yul\":1223:1247   */\n      tag_127\n      jump\t// in\n    tag_165:\n        /* \"#utility.yul\":1212:1247   */\n      swap1\n      pop\n        /* \"#utility.yul\":1157:1253   */\n      swap2\n      swap1\n      pop\n      jump\t// out\n        /* \"#utility.yul\":1259:1381   */\n    tag_129:\n        /* \"#utility.yul\":1332:1356   */\n      tag_167\n        /* \"#utility.yul\":1350:1355   */\n      dup2\n        /* \"#utility.yul\":1332:1356   */\n      tag_128\n      jump\t// in\n    tag_167:\n        /* \"#utility.yul\":1325:1330   */\n      dup2\n        /* \"#utility.yul\":1322:1357   */\n      eq\n        /* \"#utility.yul\":1312:1375   */\n      tag_168\n      jumpi\n        /* \"#utility.yul\":1371:1372   */\n      0x00\n        /* \"#utility.yul\":1368:1369   */\n      0x00\n        /* \"#utility.yul\":1361:1373   */\n      revert\n        /* \"#utility.yul\":1312:1375   */\n    tag_168:\n        /* \"#utility.yul\":1259:1381   */\n      pop\n      jump\t// out\n        /* \"#utility.yul\":1387:1526   */\n    tag_130:\n        /* \"#utility.yul\":1433:1438   */\n      0x00\n        /* \"#utility.yul\":1471:1477   */\n      dup2\n        /* \"#utility.yul\":1458:1478   */\n      calldataload\n        /* \"#utility.yul\":1449:1478   */\n      swap1\n      pop\n        /* \"#utility.yul\":1487:1520   */\n      tag_170\n        /* \"#utility.yul\":1514:1519   */\n      dup2\n        /* \"#utility.yul\":1487:1520   */\n      tag_129\n      jump\t// in\n    tag_170:\n        /* \"#utility.yul\":1387:1526   */\n      swap3\n      swap2\n      pop\n      pop\n      jump\t// out\n        /* \"#utility.yul\":1532:2006   */\n    tag_15:\n        /* \"#utility.yul\":1600:1606   */\n      0x00\n        /* \"#utility.yul\":1608:1614   */\n      0x00\n        /* \"#utility.yul\":1657:1659   */\n      0x40\n        /* \"#utility.yul\":1645:1654   */\n      dup4\n        /* \"#utility.yul\":1636:1643   */\n      dup6\n        /* \"#utility.yul\":1632:1655   */\n      sub\n        /* \"#utility.yul\":1628:1660   */\n      slt\n        /* \"#utility.yul\":1625:1744   */\n      iszero\n      tag_172\n      jumpi\n        /* \"#utility.yul\":1663:1742   */\n      tag_173\n      tag_122\n      jump\t// in\n    tag_173:\n        /* \"#utility.yul\":1625:1744   */\n    tag_172:\n        /* \"#utility.yul\":1783:1784   */\n      0x00\n        /* \"#utility.yul\":1808:1861   */\n      tag_174\n        /* \"#utility.yul\":1853:1860   */\n      dup6\n        /* \"#utility.yul\":1844:1850   */\n      dup3\n        /* \"#utility.yul\":1833:1842   */\n      dup7\n        /* \"#utility.yul\":1829:1851   */\n      add\n        /* \"#utility.yul\":1808:1861   */\n      tag_130\n      jump\t// in\n    tag_174:\n        /* \"#utility.yul\":1798:1861   */\n      swap3\n      pop\n        /* \"#utility.yul\":1754:1871   */\n      pop\n        /* \"#utility.yul\":1910:1912   */\n      0x20\n        /* \"#utility.yul\":1936:1989   */\n      tag_175\n        /* \"#utility.yul\":1981:1988   */\n      dup6\n        /* \"#utility.yul\":1972:1978   */\n      dup3\n        /* \"#utility.yul\":1961:1970   */\n      dup7\n        /* \"#utility.yul\":1957:1979   */\n      add\n        /* \"#utility.yul\":1936:1989   */\n      tag_126\n      jump\t// in\n    tag_175:\n        /* \"#utility.yul\":1926:1989   */\n      swap2\n      pop\n        /* \"#utility.yul\":1881:1999   */\n      pop\n        /* \"#utility.yul\":1532:2006   */\n      swap3\n      pop\n      swap3\n      swap1\n      pop\n      jump\t// out\n        /* \"#utility.yul\":2012:2148   */\n    tag_131:\n        /* \"#utility.yul\":2101:2107   */\n      0x00\n        /* \"#utility.yul\":2135:2140   */\n      dup2\n        /* \"#utility.yul\":2129:2141   */\n      mload\n        /* \"#utility.yul\":2119:2141   */\n      swap1\n      pop\n        /* \"#utility.yul\":2012:2148   */\n      swap2\n      swap1\n      pop\n      jump\t// out\n        /* \"#utility.yul\":2154:2360   */\n    tag_132:\n        /* \"#utility.yul\":2275:2286   */\n      0x00\n        /* \"#utility.yul\":2309:2315   */\n      dup3\n        /* \"#utility.yul\":2304:2307   */\n      dup3\n        /* \"#utility.yul\":2297:2316   */\n      mstore\n        /* \"#utility.yul\":2349:2353   */\n      0x20\n        /* \"#utility.yul\":2344:2347   */\n      dup3\n        /* \"#utility.yul\":2340:2354   */\n      add\n        /* \"#utility.yul\":2325:2354   */\n      swap1\n      pop\n        /* \"#utility.yul\":2154:2360   */\n      swap3\n      swap2\n      pop\n      pop\n      jump\t// out\n        /* \"#utility.yul\":2366:2520   */\n    tag_133:\n        /* \"#utility.yul\":2455:2459   */\n      0x00\n        /* \"#utility.yul\":2478:2481   */\n      dup2\n        /* \"#utility.yul\":2470:2481   */\n      swap1\n      pop\n        /* \"#utility.yul\":2508:2512   */\n      0x20\n        /* \"#utility.yul\":2503:2506   */\n      dup3\n        /* \"#utility.yul\":2499:2513   */\n      add\n        /* \"#utility.yul\":2491:2513   */\n      swap1\n      pop\n        /* \"#utility.yul\":2366:2520   */\n      swap2\n      swap1\n      pop\n      jump\t// out\n        /* \"#utility.yul\":2526:2634   */\n    tag_134:\n        /* \"#utility.yul\":2603:2627   */\n      tag_180\n        /* \"#utility.yul\":2621:2626   */\n      dup2\n        /* \"#utility.yul\":2603:2627   */\n      tag_128\n      jump\t// in\n    tag_180:\n        /* \"#utility.yul\":2598:2601   */\n      dup3\n        /* \"#utility.yul\":2591:2628   */\n      mstore\n        /* \"#utility.yul\":2526:2634   */\n      pop\n      pop\n      jump\t// out\n        /* \"#utility.yul\":2640:2748   */\n    tag_135:\n        /* \"#utility.yul\":2717:2741   */\n      tag_182\n        /* \"#utility.yul\":2735:2740   */\n      dup2\n        /* \"#utility.yul\":2717:2741   */\n      tag_124\n      jump\t// in\n    tag_182:\n        /* \"#utility.yul\":2712:2715   */\n      dup3\n        /* \"#utility.yul\":2705:2742   */\n      mstore\n        /* \"#utility.yul\":2640:2748   */\n      pop\n      pop\n      jump\t// out\n        /* \"#utility.yul\":2812:3308   */\n    tag_136:\n        /* \"#utility.yul\":2943:2947   */\n      0x40\n        /* \"#utility.yul\":2938:2941   */\n      dup3\n        /* \"#utility.yul\":2934:2948   */\n      add\n        /* \"#utility.yul\":3033:3037   */\n      0x00\n        /* \"#utility.yul\":3026:3031   */\n      dup3\n        /* \"#utility.yul\":3022:3038   */\n      add\n        /* \"#utility.yul\":3016:3039   */\n      mload\n        /* \"#utility.yul\":3052:3115   */\n      tag_184\n        /* \"#utility.yul\":3109:3113   */\n      0x00\n        /* \"#utility.yul\":3104:3107   */\n      dup6\n        /* \"#utility.yul\":3100:3114   */\n      add\n        /* \"#utility.yul\":3086:3098   */\n      dup3\n        /* \"#utility.yul\":3052:3115   */\n      tag_134\n      jump\t// in\n    tag_184:\n        /* \"#utility.yul\":2958:3125   */\n      pop\n        /* \"#utility.yul\":3209:3213   */\n      0x20\n        /* \"#utility.yul\":3202:3207   */\n      dup3\n        /* \"#utility.yul\":3198:3214   */\n      add\n        /* \"#utility.yul\":3192:3215   */\n      mload\n        /* \"#utility.yul\":3228:3291   */\n      tag_185\n        /* \"#utility.yul\":3285:3289   */\n      0x20\n        /* \"#utility.yul\":3280:3283   */\n      dup6\n        /* \"#utility.yul\":3276:3290   */\n      add\n        /* \"#utility.yul\":3262:3274   */\n      dup3\n        /* \"#utility.yul\":3228:3291   */\n      tag_135\n      jump\t// in\n    tag_185:\n        /* \"#utility.yul\":3135:3301   */\n      pop\n        /* \"#utility.yul\":2912:3308   */\n      pop\n        /* \"#utility.yul\":2812:3308   */\n      pop\n      pop\n      jump\t// out\n        /* \"#utility.yul\":3314:3581   */\n    tag_137:\n        /* \"#utility.yul\":3427:3437   */\n      0x00\n        /* \"#utility.yul\":3448:3538   */\n      tag_187\n        /* \"#utility.yul\":3534:3537   */\n      dup4\n        /* \"#utility.yul\":3526:3532   */\n      dup4\n        /* \"#utility.yul\":3448:3538   */\n      tag_136\n      jump\t// in\n    tag_187:\n        /* \"#utility.yul\":3570:3574   */\n      0x40\n        /* \"#utility.yul\":3565:3568   */\n      dup4\n        /* \"#utility.yul\":3561:3575   */\n      add\n        /* \"#utility.yul\":3547:3575   */\n      swap1\n      pop\n        /* \"#utility.yul\":3314:3581   */\n      swap3\n      swap2\n      pop\n      pop\n      jump\t// out\n        /* \"#utility.yul\":3587:3722   */\n    tag_138:\n        /* \"#utility.yul\":3679:3683   */\n      0x00\n        /* \"#utility.yul\":3711:3715   */\n      0x20\n        /* \"#utility.yul\":3706:3709   */\n      dup3\n        /* \"#utility.yul\":3702:3716   */\n      add\n        /* \"#utility.yul\":3694:3716   */\n      swap1\n      pop\n        /* \"#utility.yul\":3587:3722   */\n      swap2\n      swap1\n      pop\n      jump\t// out\n        /* \"#utility.yul\":3790:4698   */\n    tag_139:\n        /* \"#utility.yul\":3953:3956   */\n      0x00\n        /* \"#utility.yul\":3982:4058   */\n      tag_190\n        /* \"#utility.yul\":4052:4057   */\n      dup3\n        /* \"#utility.yul\":3982:4058   */\n      tag_131\n      jump\t// in\n    tag_190:\n        /* \"#utility.yul\":4074:4182   */\n      tag_191\n        /* \"#utility.yul\":4175:4181   */\n      dup2\n        /* \"#utility.yul\":4170:4173   */\n      dup6\n        /* \"#utility.yul\":4074:4182   */\n      tag_132\n      jump\t// in\n    tag_191:\n        /* \"#utility.yul\":4067:4182   */\n      swap4\n      pop\n        /* \"#utility.yul\":4206:4284   */\n      tag_192\n        /* \"#utility.yul\":4278:4283   */\n      dup4\n        /* \"#utility.yul\":4206:4284   */\n      tag_133\n      jump\t// in\n    tag_192:\n        /* \"#utility.yul\":4307:4314   */\n      dup1\n        /* \"#utility.yul\":4338:4339   */\n      0x00\n        /* \"#utility.yul\":4323:4673   */\n    tag_193:\n        /* \"#utility.yul\":4348:4354   */\n      dup4\n        /* \"#utility.yul\":4345:4346   */\n      dup2\n        /* \"#utility.yul\":4342:4355   */\n      lt\n        /* \"#utility.yul\":4323:4673   */\n      iszero\n      tag_195\n      jumpi\n        /* \"#utility.yul\":4424:4430   */\n      dup2\n        /* \"#utility.yul\":4418:4431   */\n      mload\n        /* \"#utility.yul\":4451:4558   */\n      tag_196\n        /* \"#utility.yul\":4554:4557   */\n      dup9\n        /* \"#utility.yul\":4539:4552   */\n      dup3\n        /* \"#utility.yul\":4451:4558   */\n      tag_137\n      jump\t// in\n    tag_196:\n        /* \"#utility.yul\":4444:4558   */\n      swap8\n      pop\n        /* \"#utility.yul\":4581:4663   */\n      tag_197\n        /* \"#utility.yul\":4656:4662   */\n      dup4\n        /* \"#utility.yul\":4581:4663   */\n      tag_138\n      jump\t// in\n    tag_197:\n        /* \"#utility.yul\":4571:4663   */\n      swap3\n      pop\n        /* \"#utility.yul\":4383:4673   */\n      pop\n        /* \"#utility.yul\":4370:4371   */\n      0x01\n        /* \"#utility.yul\":4367:4368   */\n      dup2\n        /* \"#utility.yul\":4363:4372   */\n      add\n        /* \"#utility.yul\":4358:4372   */\n      swap1\n      pop\n        /* \"#utility.yul\":4323:4673   */\n      jump(tag_193)\n    tag_195:\n        /* \"#utility.yul\":4327:4341   */\n      pop\n        /* \"#utility.yul\":4689:4692   */\n      dup6\n        /* \"#utility.yul\":4682:4692   */\n      swap4\n      pop\n        /* \"#utility.yul\":3958:4698   */\n      pop\n      pop\n      pop\n        /* \"#utility.yul\":3790:4698   */\n      swap3\n      swap2\n      pop\n      pop\n      jump\t// out\n        /* \"#utility.yul\":4704:5165   */\n    tag_21:\n        /* \"#utility.yul\":4891:4895   */\n      0x00\n        /* \"#utility.yul\":4929:4931   */\n      0x20\n        /* \"#utility.yul\":4918:4927   */\n      dup3\n        /* \"#utility.yul\":4914:4932   */\n      add\n        /* \"#utility.yul\":4906:4932   */\n      swap1\n      pop\n        /* \"#utility.yul\":4978:4987   */\n      dup2\n        /* \"#utility.yul\":4972:4976   */\n      dup2\n        /* \"#utility.yul\":4968:4988   */\n      sub\n        /* \"#utility.yul\":4964:4965   */\n      0x00\n        /* \"#utility.yul\":4953:4962   */\n      dup4\n        /* \"#utility.yul\":4949:4966   */\n      add\n        /* \"#utility.yul\":4942:4989   */\n      mstore\n        /* \"#utility.yul\":5006:5158   */\n      tag_199\n        /* \"#utility.yul\":5153:5157   */\n      dup2\n        /* \"#utility.yul\":5144:5150   */\n      dup5\n        /* \"#utility.yul\":5006:5158   */\n      tag_139\n      jump\t// in\n    tag_199:\n        /* \"#utility.yul\":4998:5158   */\n      swap1\n      pop\n        /* \"#utility.yul\":4704:5165   */\n      swap3\n      swap2\n      pop\n      pop\n      jump\t// out\n        /* \"#utility.yul\":5171:5289   */\n    tag_140:\n        /* \"#utility.yul\":5258:5282   */\n      tag_201\n        /* \"#utility.yul\":5276:5281   */\n      dup2\n        /* \"#utility.yul\":5258:5282   */\n      tag_124\n      jump\t// in\n    tag_201:\n        /* \"#utility.yul\":5253:5256   */\n      dup3\n        /* \"#utility.yul\":5246:5283   */\n      mstore\n        /* \"#utility.yul\":5171:5289   */\n      pop\n      pop\n      jump\t// out\n        /* \"#utility.yul\":5295:5517   */\n    tag_27:\n        /* \"#utility.yul\":5388:5392   */\n      0x00\n        /* \"#utility.yul\":5426:5428   */\n      0x20\n        /* \"#utility.yul\":5415:5424   */\n      dup3\n        /* \"#utility.yul\":5411:5429   */\n      add\n        /* \"#utility.yul\":5403:5429   */\n      swap1\n      pop\n        /* \"#utility.yul\":5439:5510   */\n      tag_203\n        /* \"#utility.yul\":5507:5508   */\n      0x00\n        /* \"#utility.yul\":5496:5505   */\n      dup4\n        /* \"#utility.yul\":5492:5509   */\n      add\n        /* \"#utility.yul\":5483:5489   */\n      dup5\n        /* \"#utility.yul\":5439:5510   */\n      tag_140\n      jump\t// in\n    tag_203:\n        /* \"#utility.yul\":5295:5517   */\n      swap3\n      swap2\n      pop\n      pop\n      jump\t// out\n        /* \"#utility.yul\":5523:6288   */\n    tag_31:\n        /* \"#utility.yul\":5609:5615   */\n      0x00\n        /* \"#utility.yul\":5617:5623   */\n      0x00\n        /* \"#utility.yul\":5625:5631   */\n      0x00\n        /* \"#utility.yul\":5633:5639   */\n      0x00\n        /* \"#utility.yul\":5682:5685   */\n      0x80\n        /* \"#utility.yul\":5670:5679   */\n      dup6\n        /* \"#utility.yul\":5661:5668   */\n      dup8\n        /* \"#utility.yul\":5657:5680   */\n      sub\n        /* \"#utility.yul\":5653:5686   */\n      slt\n        /* \"#utility.yul\":5650:5770   */\n      iszero\n      tag_205\n      jumpi\n        /* \"#utility.yul\":5689:5768   */\n      tag_206\n      tag_122\n      jump\t// in\n    tag_206:\n        /* \"#utility.yul\":5650:5770   */\n    tag_205:\n        /* \"#utility.yul\":5809:5810   */\n      0x00\n        /* \"#utility.yul\":5834:5887   */\n      tag_207\n        /* \"#utility.yul\":5879:5886   */\n      dup8\n        /* \"#utility.yul\":5870:5876   */\n      dup3\n        /* \"#utility.yul\":5859:5868   */\n      dup9\n        /* \"#utility.yul\":5855:5877   */\n      add\n        /* \"#utility.yul\":5834:5887   */\n      tag_130\n      jump\t// in\n    tag_207:\n        /* \"#utility.yul\":5824:5887   */\n      swap5\n      pop\n        /* \"#utility.yul\":5780:5897   */\n      pop\n        /* \"#utility.yul\":5936:5938   */\n      0x20\n        /* \"#utility.yul\":5962:6015   */\n      tag_208\n        /* \"#utility.yul\":6007:6014   */\n      dup8\n        /* \"#utility.yul\":5998:6004   */\n      dup3\n        /* \"#utility.yul\":5987:5996   */\n      dup9\n        /* \"#utility.yul\":5983:6005   */\n      add\n        /* \"#utility.yul\":5962:6015   */\n      tag_126\n      jump\t// in\n    tag_208:\n        /* \"#utility.yul\":5952:6015   */\n      swap4\n      pop\n        /* \"#utility.yul\":5907:6025   */\n      pop\n        /* \"#utility.yul\":6064:6066   */\n      0x40\n        /* \"#utility.yul\":6090:6143   */\n      tag_209\n        /* \"#utility.yul\":6135:6142   */\n      dup8\n        /* \"#utility.yul\":6126:6132   */\n      dup3\n        /* \"#utility.yul\":6115:6124   */\n      dup9\n        /* \"#utility.yul\":6111:6133   */\n      add\n        /* \"#utility.yul\":6090:6143   */\n      tag_126\n      jump\t// in\n    tag_209:\n        /* \"#utility.yul\":6080:6143   */\n      swap3\n      pop\n        /* \"#utility.yul\":6035:6153   */\n      pop\n        /* \"#utility.yul\":6192:6194   */\n      0x60\n        /* \"#utility.yul\":6218:6271   */\n      tag_210\n        /* \"#utility.yul\":6263:6270   */\n      dup8\n        /* \"#utility.yul\":6254:6260   */\n      dup3\n        /* \"#utility.yul\":6243:6252   */\n      dup9\n        /* \"#utility.yul\":6239:6261   */\n      add\n        /* \"#utility.yul\":6218:6271   */\n      tag_126\n      jump\t// in\n    tag_210:\n        /* \"#utility.yul\":6208:6271   */\n      swap2\n      pop\n        /* \"#utility.yul\":6163:6281   */\n      pop\n        /* \"#utility.yul\":5523:6288   */\n      swap3\n      swap6\n      swap2\n      swap5\n      pop\n      swap3\n      pop\n      jump\t// out\n        /* \"#utility.yul\":6294:6623   */\n    tag_36:\n        /* \"#utility.yul\":6353:6359   */\n      0x00\n        /* \"#utility.yul\":6402:6404   */\n      0x20\n        /* \"#utility.yul\":6390:6399   */\n      dup3\n        /* \"#utility.yul\":6381:6388   */\n      dup5\n        /* \"#utility.yul\":6377:6400   */\n      sub\n        /* \"#utility.yul\":6373:6405   */\n      slt\n        /* \"#utility.yul\":6370:6489   */\n      iszero\n      tag_212\n      jumpi\n        /* \"#utility.yul\":6408:6487   */\n      tag_213\n      tag_122\n      jump\t// in\n    tag_213:\n        /* \"#utility.yul\":6370:6489   */\n    tag_212:\n        /* \"#utility.yul\":6528:6529   */\n      0x00\n        /* \"#utility.yul\":6553:6606   */\n      tag_214\n        /* \"#utility.yul\":6598:6605   */\n      dup5\n        /* \"#utility.yul\":6589:6595   */\n      dup3\n        /* \"#utility.yul\":6578:6587   */\n      dup6\n        /* \"#utility.yul\":6574:6596   */\n      add\n        /* \"#utility.yul\":6553:6606   */\n      tag_130\n      jump\t// in\n    tag_214:\n        /* \"#utility.yul\":6543:6606   */\n      swap2\n      pop\n        /* \"#utility.yul\":6499:6616   */\n      pop\n        /* \"#utility.yul\":6294:6623   */\n      swap3\n      swap2\n      pop\n      pop\n      jump\t// out\n        /* \"#utility.yul\":6629:6809   */\n    tag_141:\n        /* \"#utility.yul\":6677:6754   */\n      0x4e487b7100000000000000000000000000000000000000000000000000000000\n        /* \"#utility.yul\":6674:6675   */\n      0x00\n        /* \"#utility.yul\":6667:6755   */\n      mstore\n        /* \"#utility.yul\":6774:6778   */\n      0x11\n        /* \"#utility.yul\":6771:6772   */\n      0x04\n        /* \"#utility.yul\":6764:6779   */\n      mstore\n        /* \"#utility.yul\":6798:6802   */\n      0x24\n        /* \"#utility.yul\":6795:6796   */\n      0x00\n        /* \"#utility.yul\":6788:6803   */\n      revert\n        /* \"#utility.yul\":6815:7006   */\n    tag_54:\n        /* \"#utility.yul\":6855:6858   */\n      0x00\n        /* \"#utility.yul\":6874:6894   */\n      tag_217\n        /* \"#utility.yul\":6892:6893   */\n      dup3\n        /* \"#utility.yul\":6874:6894   */\n      tag_124\n      jump\t// in\n    tag_217:\n        /* \"#utility.yul\":6869:6894   */\n      swap2\n      pop\n        /* \"#utility.yul\":6908:6928   */\n      tag_218\n        /* \"#utility.yul\":6926:6927   */\n      dup4\n        /* \"#utility.yul\":6908:6928   */\n      tag_124\n      jump\t// in\n    tag_218:\n        /* \"#utility.yul\":6903:6928   */\n      swap3\n      pop\n        /* \"#utility.yul\":6951:6952   */\n      dup3\n        /* \"#utility.yul\":6948:6949   */\n      dup3\n        /* \"#utility.yul\":6944:6953   */\n      add\n        /* \"#utility.yul\":6937:6953   */\n      swap1\n      pop\n        /* \"#utility.yul\":6972:6975   */\n      dup1\n        /* \"#utility.yul\":6969:6970   */\n      dup3\n        /* \"#utility.yul\":6966:6976   */\n      gt\n        /* \"#utility.yul\":6963:6999   */\n      iszero\n      tag_219\n      jumpi\n        /* \"#utility.yul\":6979:6997   */\n      tag_220\n      tag_141\n      jump\t// in\n    tag_220:\n        /* \"#utility.yul\":6963:6999   */\n    tag_219:\n        /* \"#utility.yul\":6815:7006   */\n      swap3\n      swap2\n      pop\n      pop\n      jump\t// out\n        /* \"#utility.yul\":7012:7192   */\n    tag_58:\n        /* \"#utility.yul\":7060:7137   */\n      0x4e487b7100000000000000000000000000000000000000000000000000000000\n        /* \"#utility.yul\":7057:7058   */\n      0x00\n        /* \"#utility.yul\":7050:7138   */\n      mstore\n        /* \"#utility.yul\":7157:7161   */\n      0x41\n        /* \"#utility.yul\":7154:7155   */\n      0x04\n        /* \"#utility.yul\":7147:7162   */\n      mstore\n        /* \"#utility.yul\":7181:7185   */\n      0x24\n        /* \"#utility.yul\":7178:7179   */\n      0x00\n        /* \"#utility.yul\":7171:7186   */\n      revert\n        /* \"#utility.yul\":7198:7378   */\n    tag_68:\n        /* \"#utility.yul\":7246:7323   */\n      0x4e487b7100000000000000000000000000000000000000000000000000000000\n        /* \"#utility.yul\":7243:7244   */\n      0x00\n        /* \"#utility.yul\":7236:7324   */\n      mstore\n        /* \"#utility.yul\":7343:7347   */\n      0x32\n        /* \"#utility.yul\":7340:7341   */\n      0x04\n        /* \"#utility.yul\":7333:7348   */\n      mstore\n        /* \"#utility.yul\":7367:7371   */\n      0x24\n        /* \"#utility.yul\":7364:7365   */\n      0x00\n        /* \"#utility.yul\":7357:7372   */\n      revert\n        /* \"#utility.yul\":7384:7482   */\n    tag_142:\n        /* \"#utility.yul\":7435:7441   */\n      0x00\n        /* \"#utility.yul\":7469:7474   */\n      dup2\n        /* \"#utility.yul\":7463:7475   */\n      mload\n        /* \"#utility.yul\":7453:7475   */\n      swap1\n      pop\n        /* \"#utility.yul\":7384:7482   */\n      swap2\n      swap1\n      pop\n      jump\t// out\n        /* \"#utility.yul\":7488:7635   */\n    tag_143:\n        /* \"#utility.yul\":7589:7600   */\n      0x00\n        /* \"#utility.yul\":7626:7629   */\n      dup2\n        /* \"#utility.yul\":7611:7629   */\n      swap1\n      pop\n        /* \"#utility.yul\":7488:7635   */\n      swap3\n      swap2\n      pop\n      pop\n      jump\t// out\n        /* \"#utility.yul\":7641:7780   */\n    tag_144:\n        /* \"#utility.yul\":7730:7736   */\n      dup3\n        /* \"#utility.yul\":7725:7728   */\n      dup2\n        /* \"#utility.yul\":7720:7723   */\n      dup4\n        /* \"#utility.yul\":7714:7737   */\n      mcopy\n        /* \"#utility.yul\":7771:7772   */\n      0x00\n        /* \"#utility.yul\":7762:7768   */\n      dup4\n        /* \"#utility.yul\":7757:7760   */\n      dup4\n        /* \"#utility.yul\":7753:7769   */\n      add\n        /* \"#utility.yul\":7746:7773   */\n      mstore\n        /* \"#utility.yul\":7641:7780   */\n      pop\n      pop\n      pop\n      jump\t// out\n        /* \"#utility.yul\":7786:8172   */\n    tag_145:\n        /* \"#utility.yul\":7890:7893   */\n      0x00\n        /* \"#utility.yul\":7918:7956   */\n      tag_227\n        /* \"#utility.yul\":7950:7955   */\n      dup3\n        /* \"#utility.yul\":7918:7956   */\n      tag_142\n      jump\t// in\n    tag_227:\n        /* \"#utility.yul\":7972:8060   */\n      tag_228\n        /* \"#utility.yul\":8053:8059   */\n      dup2\n        /* \"#utility.yul\":8048:8051   */\n      dup6\n        /* \"#utility.yul\":7972:8060   */\n      tag_143\n      jump\t// in\n    tag_228:\n        /* \"#utility.yul\":7965:8060   */\n      swap4\n      pop\n        /* \"#utility.yul\":8069:8134   */\n      tag_229\n        /* \"#utility.yul\":8127:8133   */\n      dup2\n        /* \"#utility.yul\":8122:8125   */\n      dup6\n        /* \"#utility.yul\":8115:8119   */\n      0x20\n        /* \"#utility.yul\":8108:8113   */\n      dup7\n        /* \"#utility.yul\":8104:8120   */\n      add\n        /* \"#utility.yul\":8069:8134   */\n      tag_144\n      jump\t// in\n    tag_229:\n        /* \"#utility.yul\":8159:8165   */\n      dup1\n        /* \"#utility.yul\":8154:8157   */\n      dup5\n        /* \"#utility.yul\":8150:8166   */\n      add\n        /* \"#utility.yul\":8143:8166   */\n      swap2\n      pop\n        /* \"#utility.yul\":7894:8172   */\n      pop\n        /* \"#utility.yul\":7786:8172   */\n      swap3\n      swap2\n      pop\n      pop\n      jump\t// out\n        /* \"#utility.yul\":8178:8449   */\n    tag_78:\n        /* \"#utility.yul\":8308:8311   */\n      0x00\n        /* \"#utility.yul\":8330:8423   */\n      tag_231\n        /* \"#utility.yul\":8419:8422   */\n      dup3\n        /* \"#utility.yul\":8410:8416   */\n      dup5\n        /* \"#utility.yul\":8330:8423   */\n      tag_145\n      jump\t// in\n    tag_231:\n        /* \"#utility.yul\":8323:8423   */\n      swap2\n      pop\n        /* \"#utility.yul\":8440:8443   */\n      dup2\n        /* \"#utility.yul\":8433:8443   */\n      swap1\n      pop\n        /* \"#utility.yul\":8178:8449   */\n      swap3\n      swap2\n      pop\n      pop\n      jump\t// out\n        /* \"#utility.yul\":8455:8532   */\n    tag_146:\n        /* \"#utility.yul\":8492:8499   */\n      0x00\n        /* \"#utility.yul\":8521:8526   */\n      dup2\n        /* \"#utility.yul\":8510:8526   */\n      swap1\n      pop\n        /* \"#utility.yul\":8455:8532   */\n      swap2\n      swap1\n      pop\n      jump\t// out\n        /* \"#utility.yul\":8538:8660   */\n    tag_147:\n        /* \"#utility.yul\":8611:8635   */\n      tag_234\n        /* \"#utility.yul\":8629:8634   */\n      dup2\n        /* \"#utility.yul\":8611:8635   */\n      tag_146\n      jump\t// in\n    tag_234:\n        /* \"#utility.yul\":8604:8609   */\n      dup2\n        /* \"#utility.yul\":8601:8636   */\n      eq\n        /* \"#utility.yul\":8591:8654   */\n      tag_235\n      jumpi\n        /* \"#utility.yul\":8650:8651   */\n      0x00\n        /* \"#utility.yul\":8647:8648   */\n      0x00\n        /* \"#utility.yul\":8640:8652   */\n      revert\n        /* \"#utility.yul\":8591:8654   */\n    tag_235:\n        /* \"#utility.yul\":8538:8660   */\n      pop\n      jump\t// out\n        /* \"#utility.yul\":8666:8809   */\n    tag_148:\n        /* \"#utility.yul\":8723:8728   */\n      0x00\n        /* \"#utility.yul\":8754:8760   */\n      dup2\n        /* \"#utility.yul\":8748:8761   */\n      mload\n        /* \"#utility.yul\":8739:8761   */\n      swap1\n      pop\n        /* \"#utility.yul\":8770:8803   */\n      tag_237\n        /* \"#utility.yul\":8797:8802   */\n      dup2\n        /* \"#utility.yul\":8770:8803   */\n      tag_147\n      jump\t// in\n    tag_237:\n        /* \"#utility.yul\":8666:8809   */\n      swap3\n      swap2\n      pop\n      pop\n      jump\t// out\n        /* \"#utility.yul\":8815:9166   */\n    tag_82:\n        /* \"#utility.yul\":8885:8891   */\n      0x00\n        /* \"#utility.yul\":8934:8936   */\n      0x20\n        /* \"#utility.yul\":8922:8931   */\n      dup3\n        /* \"#utility.yul\":8913:8920   */\n      dup5\n        /* \"#utility.yul\":8909:8932   */\n      sub\n        /* \"#utility.yul\":8905:8937   */\n      slt\n        /* \"#utility.yul\":8902:9021   */\n      iszero\n      tag_239\n      jumpi\n        /* \"#utility.yul\":8940:9019   */\n      tag_240\n      tag_122\n      jump\t// in\n    tag_240:\n        /* \"#utility.yul\":8902:9021   */\n    tag_239:\n        /* \"#utility.yul\":9060:9061   */\n      0x00\n        /* \"#utility.yul\":9085:9149   */\n      tag_241\n        /* \"#utility.yul\":9141:9148   */\n      dup5\n        /* \"#utility.yul\":9132:9138   */\n      dup3\n        /* \"#utility.yul\":9121:9130   */\n      dup6\n        /* \"#utility.yul\":9117:9139   */\n      add\n        /* \"#utility.yul\":9085:9149   */\n      tag_148\n      jump\t// in\n    tag_241:\n        /* \"#utility.yul\":9075:9149   */\n      swap2\n      pop\n        /* \"#utility.yul\":9031:9159   */\n      pop\n        /* \"#utility.yul\":8815:9166   */\n      swap3\n      swap2\n      pop\n      pop\n      jump\t// out\n        /* \"#utility.yul\":9172:9366   */\n    tag_91:\n        /* \"#utility.yul\":9212:9216   */\n      0x00\n        /* \"#utility.yul\":9232:9252   */\n      tag_243\n        /* \"#utility.yul\":9250:9251   */\n      dup3\n        /* \"#utility.yul\":9232:9252   */\n      tag_124\n      jump\t// in\n    tag_243:\n        /* \"#utility.yul\":9227:9252   */\n      swap2\n      pop\n        /* \"#utility.yul\":9266:9286   */\n      tag_244\n        /* \"#utility.yul\":9284:9285   */\n      dup4\n        /* \"#utility.yul\":9266:9286   */\n      tag_124\n      jump\t// in\n    tag_244:\n        /* \"#utility.yul\":9261:9286   */\n      swap3\n      pop\n        /* \"#utility.yul\":9310:9311   */\n      dup3\n        /* \"#utility.yul\":9307:9308   */\n      dup3\n        /* \"#utility.yul\":9303:9312   */\n      sub\n        /* \"#utility.yul\":9295:9312   */\n      swap1\n      pop\n        /* \"#utility.yul\":9334:9335   */\n      dup2\n        /* \"#utility.yul\":9328:9332   */\n      dup2\n        /* \"#utility.yul\":9325:9336   */\n      gt\n        /* \"#utility.yul\":9322:9359   */\n      iszero\n      tag_245\n      jumpi\n        /* \"#utility.yul\":9339:9357   */\n      tag_246\n      tag_141\n      jump\t// in\n    tag_246:\n        /* \"#utility.yul\":9322:9359   */\n    tag_245:\n        /* \"#utility.yul\":9172:9366   */\n      swap3\n      swap2\n      pop\n      pop\n      jump\t// out\n        /* \"#utility.yul\":9372:9552   */\n    tag_108:\n        /* \"#utility.yul\":9420:9497   */\n      0x4e487b7100000000000000000000000000000000000000000000000000000000\n        /* \"#utility.yul\":9417:9418   */\n      0x00\n        /* \"#utility.yul\":9410:9498   */\n      mstore\n        /* \"#utility.yul\":9517:9521   */\n      0x31\n        /* \"#utility.yul\":9514:9515   */\n      0x04\n        /* \"#utility.yul\":9507:9522   */\n      mstore\n        /* \"#utility.yul\":9541:9545   */\n      0x24\n        /* \"#utility.yul\":9538:9539   */\n      0x00\n        /* \"#utility.yul\":9531:9546   */\n      revert\n\n    auxdata: 0xa2646970667358221220b500135c302dee4f76f1651d1a724b8958f58f16a5e20767aeeabeb6ce19278064736f6c634300081e0033\n}\n",
				"bytecode": {
					"linkReferences": {},
					"object": "6080604052348015600e575f5ffd5b50610f448061001c5f395ff3fe608060405260043610610054575f3560e01c80632e1a7d4d1461005857806347e7ef24146100805780639de036e71461009c578063b189fd4c146100c6578063b6510bb314610102578063f8b2cb4f1461012a575b5f5ffd5b348015610063575f5ffd5b5061007e60048036038101906100799190610aa1565b610166565b005b61009a60048036038101906100959190610b26565b610286565b005b3480156100a7575f5ffd5b506100b0610397565b6040516100bd9190610c57565b60405180910390f35b3480156100d1575f5ffd5b506100ec60048036038101906100e79190610aa1565b610517565b6040516100f99190610c86565b60405180910390f35b34801561010d575f5ffd5b5061012860048036038101906101239190610c9f565b61058e565b005b348015610135575f5ffd5b50610150600480360381019061014b9190610d03565b6107b1565b60405161015d9190610c86565b60405180910390f35b5f5f5f3373ffffffffffffffffffffffffffffffffffffffff1673ffffffffffffffffffffffffffffffffffffffff1681526020019081526020015f205414806101f557506101b481610517565b60015f3373ffffffffffffffffffffffffffffffffffffffff1673ffffffffffffffffffffffffffffffffffffffff1681526020019081526020015f205414155b610283573373ffffffffffffffffffffffffffffffffffffffff166108fc5f5f3373ffffffffffffffffffffffffffffffffffffffff1673ffffffffffffffffffffffffffffffffffffffff1681526020019081526020015f205490811502906040515f60405180830381858888f19350505050158015610278573d5f5f3e3d5ffd5b50610282336107f6565b5b50565b5f3411610291575f5ffd5b61029a8261096f565b6102ff57600282908060018154018082558091505060019003905f5260205f20015f9091909190916101000a81548173ffffffffffffffffffffffffffffffffffffffff021916908373ffffffffffffffffffffffffffffffffffffffff1602179055505b8060015f3373ffffffffffffffffffffffffffffffffffffffff1673ffffffffffffffffffffffffffffffffffffffff1681526020019081526020015f2081905550345f5f8473ffffffffffffffffffffffffffffffffffffffff1673ffffffffffffffffffffffffffffffffffffffff1681526020019081526020015f205f82825461038c9190610d5b565b925050819055505050565b60605f60028054905067ffffffffffffffff8111156103b9576103b8610d8e565b5b6040519080825280602002602001820160405280156103f257816020015b6103df610a3c565b8152602001906001900390816103d75790505b5090505f5f90505b60028054905081101561050f5760405180604001604052806002838154811061042657610425610dbb565b5b905f5260205f20015f9054906101000a900473ffffffffffffffffffffffffffffffffffffffff1673ffffffffffffffffffffffffffffffffffffffff1681526020015f5f6002858154811061047f5761047e610dbb565b5b905f5260205f20015f9054906101000a900473ffffffffffffffffffffffffffffffffffffffff1673ffffffffffffffffffffffffffffffffffffffff1673ffffffffffffffffffffffffffffffffffffffff1681526020019081526020015f20548152508282815181106104f7576104f6610dbb565b5b602002602001018190525080806001019150506103fa565b508091505090565b5f60028260405160200161052b9190610c86565b6040516020818303038152906040526040516105479190610e3a565b602060405180830381855afa158015610562573d5f5f3e3d5ffd5b5050506040513d601f19601f820116820180604052508101906105859190610e83565b5f1c9050919050565b5f8311610599575f5ffd5b5f5f5f8673ffffffffffffffffffffffffffffffffffffffff1673ffffffffffffffffffffffffffffffffffffffff1681526020019081526020015f2054148061061e5750825f5f3373ffffffffffffffffffffffffffffffffffffffff1673ffffffffffffffffffffffffffffffffffffffff1681526020019081526020015f2054105b8061066e575060015f3373ffffffffffffffffffffffffffffffffffffffff1673ffffffffffffffffffffffffffffffffffffffff1681526020019081526020015f205461066b83610517565b14155b6107ab57825f5f8673ffffffffffffffffffffffffffffffffffffffff1673ffffffffffffffffffffffffffffffffffffffff1681526020019081526020015f205f8282546106bd9190610d5b565b92505081905550825f5f3373ffffffffffffffffffffffffffffffffffffffff1673ffffffffffffffffffffffffffffffffffffffff1681526020019081526020015f205f82825461070f9190610eae565b925050819055505f5f5f3373ffffffffffffffffffffffffffffffffffffffff1673ffffffffffffffffffffffffffffffffffffffff1681526020019081526020015f20540361076757610762336107f6565b6107aa565b8060015f3373ffffffffffffffffffffffffffffffffffffffff1673ffffffffffffffffffffffffffffffffffffffff1681526020019081526020015f20819055505b5b50505050565b5f5f5f8373ffffffffffffffffffffffffffffffffffffffff1673ffffffffffffffffffffffffffffffffffffffff1681526020019081526020015f20549050919050565b5f61080082610996565b9050600260016002805490506108169190610eae565b8154811061082757610826610dbb565b5b905f5260205f20015f9054906101000a900473ffffffffffffffffffffffffffffffffffffffff166002828154811061086357610862610dbb565b5b905f5260205f20015f6101000a81548173ffffffffffffffffffffffffffffffffffffffff021916908373ffffffffffffffffffffffffffffffffffffffff16021790555060028054806108ba576108b9610ee1565b5b600190038181905f5260205f20015f6101000a81549073ffffffffffffffffffffffffffffffffffffffff021916905590555f5f8373ffffffffffffffffffffffffffffffffffffffff1673ffffffffffffffffffffffffffffffffffffffff1681526020019081526020015f205f905560015f8373ffffffffffffffffffffffffffffffffffffffff1673ffffffffffffffffffffffffffffffffffffffff1681526020019081526020015f205f90555050565b5f60028054905061097f83610996565b0361098c575f9050610991565b600190505b919050565b5f5f5f90505b600280549050811015610a2d578273ffffffffffffffffffffffffffffffffffffffff16600282815481106109d4576109d3610dbb565b5b905f5260205f20015f9054906101000a900473ffffffffffffffffffffffffffffffffffffffff1673ffffffffffffffffffffffffffffffffffffffff1603610a205780915050610a37565b808060010191505061099c565b5060028054905090505b919050565b60405180604001604052805f73ffffffffffffffffffffffffffffffffffffffff1681526020015f81525090565b5f5ffd5b5f819050919050565b610a8081610a6e565b8114610a8a575f5ffd5b50565b5f81359050610a9b81610a77565b92915050565b5f60208284031215610ab657610ab5610a6a565b5b5f610ac384828501610a8d565b91505092915050565b5f73ffffffffffffffffffffffffffffffffffffffff82169050919050565b5f610af582610acc565b9050919050565b610b0581610aeb565b8114610b0f575f5ffd5b50565b5f81359050610b2081610afc565b92915050565b5f5f60408385031215610b3c57610b3b610a6a565b5b5f610b4985828601610b12565b9250506020610b5a85828601610a8d565b9150509250929050565b5f81519050919050565b5f82825260208201905092915050565b5f819050602082019050919050565b610b9681610aeb565b82525050565b610ba581610a6e565b82525050565b604082015f820151610bbf5f850182610b8d565b506020820151610bd26020850182610b9c565b50505050565b5f610be38383610bab565b60408301905092915050565b5f602082019050919050565b5f610c0582610b64565b610c0f8185610b6e565b9350610c1a83610b7e565b805f5b83811015610c4a578151610c318882610bd8565b9750610c3c83610bef565b925050600181019050610c1d565b5085935050505092915050565b5f6020820190508181035f830152610c6f8184610bfb565b905092915050565b610c8081610a6e565b82525050565b5f602082019050610c995f830184610c77565b92915050565b5f5f5f5f60808587031215610cb757610cb6610a6a565b5b5f610cc487828801610b12565b9450506020610cd587828801610a8d565b9350506040610ce687828801610a8d565b9250506060610cf787828801610a8d565b91505092959194509250565b5f60208284031215610d1857610d17610a6a565b5b5f610d2584828501610b12565b91505092915050565b7f4e487b71000000000000000000000000000000000000000000000000000000005f52601160045260245ffd5b5f610d6582610a6e565b9150610d7083610a6e565b9250828201905080821115610d8857610d87610d2e565b5b92915050565b7f4e487b71000000000000000000000000000000000000000000000000000000005f52604160045260245ffd5b7f4e487b71000000000000000000000000000000000000000000000000000000005f52603260045260245ffd5b5f81519050919050565b5f81905092915050565b8281835e5f83830152505050565b5f610e1482610de8565b610e1e8185610df2565b9350610e2e818560208601610dfc565b80840191505092915050565b5f610e458284610e0a565b915081905092915050565b5f819050919050565b610e6281610e50565b8114610e6c575f5ffd5b50565b5f81519050610e7d81610e59565b92915050565b5f60208284031215610e9857610e97610a6a565b5b5f610ea584828501610e6f565b91505092915050565b5f610eb882610a6e565b9150610ec383610a6e565b9250828203905081811115610edb57610eda610d2e565b5b92915050565b7f4e487b71000000000000000000000000000000000000000000000000000000005f52603160045260245ffdfea2646970667358221220b500135c302dee4f76f1651d1a724b8958f58f16a5e20767aeeabeb6ce19278064736f6c634300081e0033",
					"opcodes": "PUSH1 0x80 PUSH1 0x40 MSTORE CALLVALUE DUP1 ISZERO PUSH1 0xE JUMPI PUSH0 PUSH0 REVERT JUMPDEST POP PUSH2 0xF44 DUP1 PUSH2 0x1C PUSH0 CODECOPY PUSH0 RETURN INVALID PUSH1 0x80 PUSH1 0x40 MSTORE PUSH1 0x4 CALLDATASIZE LT PUSH2 0x54 JUMPI PUSH0 CALLDATALOAD PUSH1 0xE0 SHR DUP1 PUSH4 0x2E1A7D4D EQ PUSH2 0x58 JUMPI DUP1 PUSH4 0x47E7EF24 EQ PUSH2 0x80 JUMPI DUP1 PUSH4 0x9DE036E7 EQ PUSH2 0x9C JUMPI DUP1 PUSH4 0xB189FD4C EQ PUSH2 0xC6 JUMPI DUP1 PUSH4 0xB6510BB3 EQ PUSH2 0x102 JUMPI DUP1 PUSH4 0xF8B2CB4F EQ PUSH2 0x12A JUMPI JUMPDEST PUSH0 PUSH0 REVERT JUMPDEST CALLVALUE DUP1 ISZERO PUSH2 0x63 JUMPI PUSH0 PUSH0 REVERT JUMPDEST POP PUSH2 0x7E PUSH1 0x4 DUP1 CALLDATASIZE SUB DUP2 ADD SWAP1 PUSH2 0x79 SWAP2 SWAP1 PUSH2 0xAA1 JUMP JUMPDEST PUSH2 0x166 JUMP JUMPDEST STOP JUMPDEST PUSH2 0x9A PUSH1 0x4 DUP1 CALLDATASIZE SUB DUP2 ADD SWAP1 PUSH2 0x95 SWAP2 SWAP1 PUSH2 0xB26 JUMP JUMPDEST PUSH2 0x286 JUMP JUMPDEST STOP JUMPDEST CALLVALUE DUP1 ISZERO PUSH2 0xA7 JUMPI PUSH0 PUSH0 REVERT JUMPDEST POP PUSH2 0xB0 PUSH2 0x397 JUMP JUMPDEST PUSH1 0x40 MLOAD PUSH2 0xBD SWAP2 SWAP1 PUSH2 0xC57 JUMP JUMPDEST PUSH1 0x40 MLOAD DUP1 SWAP2 SUB SWAP1 RETURN JUMPDEST CALLVALUE DUP1 ISZERO PUSH2 0xD1 JUMPI PUSH0 PUSH0 REVERT JUMPDEST POP PUSH2 0xEC PUSH1 0x4 DUP1 CALLDATASIZE SUB DUP2 ADD SWAP1 PUSH2 0xE7 SWAP2 SWAP1 PUSH2 0xAA1 JUMP JUMPDEST PUSH2 0x517 JUMP JUMPDEST PUSH1 0x40 MLOAD PUSH2 0xF9 SWAP2 SWAP1 PUSH2 0xC86 JUMP JUMPDEST PUSH1 0x40 MLOAD DUP1 SWAP2 SUB SWAP1 RETURN JUMPDEST CALLVALUE DUP1 ISZERO PUSH2 0x10D JUMPI PUSH0 PUSH0 REVERT JUMPDEST POP PUSH2 0x128 PUSH1 0x4 DUP1 CALLDATASIZE SUB DUP2 ADD SWAP1 PUSH2 0x123 SWAP2 SWAP1 PUSH2 0xC9F JUMP JUMPDEST PUSH2 0x58E JUMP JUMPDEST STOP JUMPDEST CALLVALUE DUP1 ISZERO PUSH2 0x135 JUMPI PUSH0 PUSH0 REVERT JUMPDEST POP PUSH2 0x150 PUSH1 0x4 DUP1 CALLDATASIZE SUB DUP2 ADD SWAP1 PUSH2 0x14B SWAP2 SWAP1 PUSH2 0xD03 JUMP JUMPDEST PUSH2 0x7B1 JUMP JUMPDEST PUSH1 0x40 MLOAD PUSH2 0x15D SWAP2 SWAP1 PUSH2 0xC86 JUMP JUMPDEST PUSH1 0x40 MLOAD DUP1 SWAP2 SUB SWAP1 RETURN JUMPDEST PUSH0 PUSH0 PUSH0 CALLER PUSH20 0xFFFFFFFFFFFFFFFFFFFFFFFFFFFFFFFFFFFFFFFF AND PUSH20 0xFFFFFFFFFFFFFFFFFFFFFFFFFFFFFFFFFFFFFFFF AND DUP2 MSTORE PUSH1 0x20 ADD SWAP1 DUP2 MSTORE PUSH1 0x20 ADD PUSH0 KECCAK256 SLOAD EQ DUP1 PUSH2 0x1F5 JUMPI POP PUSH2 0x1B4 DUP2 PUSH2 0x517 JUMP JUMPDEST PUSH1 0x1 PUSH0 CALLER PUSH20 0xFFFFFFFFFFFFFFFFFFFFFFFFFFFFFFFFFFFFFFFF AND PUSH20 0xFFFFFFFFFFFFFFFFFFFFFFFFFFFFFFFFFFFFFFFF AND DUP2 MSTORE PUSH1 0x20 ADD SWAP1 DUP2 MSTORE PUSH1 0x20 ADD PUSH0 KECCAK256 SLOAD EQ ISZERO JUMPDEST PUSH2 0x283 JUMPI CALLER PUSH20 0xFFFFFFFFFFFFFFFFFFFFFFFFFFFFFFFFFFFFFFFF AND PUSH2 0x8FC PUSH0 PUSH0 CALLER PUSH20 0xFFFFFFFFFFFFFFFFFFFFFFFFFFFFFFFFFFFFFFFF AND PUSH20 0xFFFFFFFFFFFFFFFFFFFFFFFFFFFFFFFFFFFFFFFF AND DUP2 MSTORE PUSH1 0x20 ADD SWAP1 DUP2 MSTORE PUSH1 0x20 ADD PUSH0 KECCAK256 SLOAD SWAP1 DUP2 ISZERO MUL SWAP1 PUSH1 0x40 MLOAD PUSH0 PUSH1 0x40 MLOAD DUP1 DUP4 SUB DUP2 DUP6 DUP9 DUP9 CALL SWAP4 POP POP POP POP ISZERO DUP1 ISZERO PUSH2 0x278 JUMPI RETURNDATASIZE PUSH0 PUSH0 RETURNDATACOPY RETURNDATASIZE PUSH0 REVERT JUMPDEST POP PUSH2 0x282 CALLER PUSH2 0x7F6 JUMP JUMPDEST JUMPDEST POP JUMP JUMPDEST PUSH0 CALLVALUE GT PUSH2 0x291 JUMPI PUSH0 PUSH0 REVERT JUMPDEST PUSH2 0x29A DUP3 PUSH2 0x96F JUMP JUMPDEST PUSH2 0x2FF JUMPI PUSH1 0x2 DUP3 SWAP1 DUP1 PUSH1 0x1 DUP2 SLOAD ADD DUP1 DUP3 SSTORE DUP1 SWAP2 POP POP PUSH1 0x1 SWAP1 SUB SWAP1 PUSH0 MSTORE PUSH1 0x20 PUSH0 KECCAK256 ADD PUSH0 SWAP1 SWAP2 SWAP1 SWAP2 SWAP1 SWAP2 PUSH2 0x100 EXP DUP2 SLOAD DUP2 PUSH20 0xFFFFFFFFFFFFFFFFFFFFFFFFFFFFFFFFFFFFFFFF MUL NOT AND SWAP1 DUP4 PUSH20 0xFFFFFFFFFFFFFFFFFFFFFFFFFFFFFFFFFFFFFFFF AND MUL OR SWAP1 SSTORE POP JUMPDEST DUP1 PUSH1 0x1 PUSH0 CALLER PUSH20 0xFFFFFFFFFFFFFFFFFFFFFFFFFFFFFFFFFFFFFFFF AND PUSH20 0xFFFFFFFFFFFFFFFFFFFFFFFFFFFFFFFFFFFFFFFF AND DUP2 MSTORE PUSH1 0x20 ADD SWAP1 DUP2 MSTORE PUSH1 0x20 ADD PUSH0 KECCAK256 DUP2 SWAP1 SSTORE POP CALLVALUE PUSH0 PUSH0 DUP5 PUSH20 0xFFFFFFFFFFFFFFFFFFFFFFFFFFFFFFFFFFFFFFFF AND PUSH20 0xFFFFFFFFFFFFFFFFFFFFFFFFFFFFFFFFFFFFFFFF AND DUP2 MSTORE PUSH1 0x20 ADD SWAP1 DUP2 MSTORE PUSH1 0x20 ADD PUSH0 KECCAK256 PUSH0 DUP3 DUP3 SLOAD PUSH2 0x38C SWAP2 SWAP1 PUSH2 0xD5B JUMP JUMPDEST SWAP3 POP POP DUP2 SWAP1 SSTORE POP POP POP JUMP JUMPDEST PUSH1 0x60 PUSH0 PUSH1 0x2 DUP1 SLOAD SWAP1 POP PUSH8 0xFFFFFFFFFFFFFFFF DUP2 GT ISZERO PUSH2 0x3B9 JUMPI PUSH2 0x3B8 PUSH2 0xD8E JUMP JUMPDEST JUMPDEST PUSH1 0x40 MLOAD SWAP1 DUP1 DUP3 MSTORE DUP1 PUSH1 0x20 MUL PUSH1 0x20 ADD DUP3 ADD PUSH1 0x40 MSTORE DUP1 ISZERO PUSH2 0x3F2 JUMPI DUP2 PUSH1 0x20 ADD JUMPDEST PUSH2 0x3DF PUSH2 0xA3C JUMP JUMPDEST DUP2 MSTORE PUSH1 0x20 ADD SWAP1 PUSH1 0x1 SWAP1 SUB SWAP1 DUP2 PUSH2 0x3D7 JUMPI SWAP1 POP JUMPDEST POP SWAP1 POP PUSH0 PUSH0 SWAP1 POP JUMPDEST PUSH1 0x2 DUP1 SLOAD SWAP1 POP DUP2 LT ISZERO PUSH2 0x50F JUMPI PUSH1 0x40 MLOAD DUP1 PUSH1 0x40 ADD PUSH1 0x40 MSTORE DUP1 PUSH1 0x2 DUP4 DUP2 SLOAD DUP2 LT PUSH2 0x426 JUMPI PUSH2 0x425 PUSH2 0xDBB JUMP JUMPDEST JUMPDEST SWAP1 PUSH0 MSTORE PUSH1 0x20 PUSH0 KECCAK256 ADD PUSH0 SWAP1 SLOAD SWAP1 PUSH2 0x100 EXP SWAP1 DIV PUSH20 0xFFFFFFFFFFFFFFFFFFFFFFFFFFFFFFFFFFFFFFFF AND PUSH20 0xFFFFFFFFFFFFFFFFFFFFFFFFFFFFFFFFFFFFFFFF AND DUP2 MSTORE PUSH1 0x20 ADD PUSH0 PUSH0 PUSH1 0x2 DUP6 DUP2 SLOAD DUP2 LT PUSH2 0x47F JUMPI PUSH2 0x47E PUSH2 0xDBB JUMP JUMPDEST JUMPDEST SWAP1 PUSH0 MSTORE PUSH1 0x20 PUSH0 KECCAK256 ADD PUSH0 SWAP1 SLOAD SWAP1 PUSH2 0x100 EXP SWAP1 DIV PUSH20 0xFFFFFFFFFFFFFFFFFFFFFFFFFFFFFFFFFFFFFFFF AND PUSH20 0xFFFFFFFFFFFFFFFFFFFFFFFFFFFFFFFFFFFFFFFF AND PUSH20 0xFFFFFFFFFFFFFFFFFFFFFFFFFFFFFFFFFFFFFFFF AND DUP2 MSTORE PUSH1 0x20 ADD SWAP1 DUP2 MSTORE PUSH1 0x20 ADD PUSH0 KECCAK256 SLOAD DUP2 MSTORE POP DUP3 DUP3 DUP2 MLOAD DUP2 LT PUSH2 0x4F7 JUMPI PUSH2 0x4F6 PUSH2 0xDBB JUMP JUMPDEST JUMPDEST PUSH1 0x20 MUL PUSH1 0x20 ADD ADD DUP2 SWAP1 MSTORE POP DUP1 DUP1 PUSH1 0x1 ADD SWAP2 POP POP PUSH2 0x3FA JUMP JUMPDEST POP DUP1 SWAP2 POP POP SWAP1 JUMP JUMPDEST PUSH0 PUSH1 0x2 DUP3 PUSH1 0x40 MLOAD PUSH1 0x20 ADD PUSH2 0x52B SWAP2 SWAP1 PUSH2 0xC86 JUMP JUMPDEST PUSH1 0x40 MLOAD PUSH1 0x20 DUP2 DUP4 SUB SUB DUP2 MSTORE SWAP1 PUSH1 0x40 MSTORE PUSH1 0x40 MLOAD PUSH2 0x547 SWAP2 SWAP1 PUSH2 0xE3A JUMP JUMPDEST PUSH1 0x20 PUSH1 0x40 MLOAD DUP1 DUP4 SUB DUP2 DUP6 GAS STATICCALL ISZERO DUP1 ISZERO PUSH2 0x562 JUMPI RETURNDATASIZE PUSH0 PUSH0 RETURNDATACOPY RETURNDATASIZE PUSH0 REVERT JUMPDEST POP POP POP PUSH1 0x40 MLOAD RETURNDATASIZE PUSH1 0x1F NOT PUSH1 0x1F DUP3 ADD AND DUP3 ADD DUP1 PUSH1 0x40 MSTORE POP DUP2 ADD SWAP1 PUSH2 0x585 SWAP2 SWAP1 PUSH2 0xE83 JUMP JUMPDEST PUSH0 SHR SWAP1 POP SWAP2 SWAP1 POP JUMP JUMPDEST PUSH0 DUP4 GT PUSH2 0x599 JUMPI PUSH0 PUSH0 REVERT JUMPDEST PUSH0 PUSH0 PUSH0 DUP7 PUSH20 0xFFFFFFFFFFFFFFFFFFFFFFFFFFFFFFFFFFFFFFFF AND PUSH20 0xFFFFFFFFFFFFFFFFFFFFFFFFFFFFFFFFFFFFFFFF AND DUP2 MSTORE PUSH1 0x20 ADD SWAP1 DUP2 MSTORE PUSH1 0x20 ADD PUSH0 KECCAK256 SLOAD EQ DUP1 PUSH2 0x61E JUMPI POP DUP3 PUSH0 PUSH0 CALLER PUSH20 0xFFFFFFFFFFFFFFFFFFFFFFFFFFFFFFFFFFFFFFFF AND PUSH20 0xFFFFFFFFFFFFFFFFFFFFFFFFFFFFFFFFFFFFFFFF AND DUP2 MSTORE PUSH1 0x20 ADD SWAP1 DUP2 MSTORE PUSH1 0x20 ADD PUSH0 KECCAK256 SLOAD LT JUMPDEST DUP1 PUSH2 0x66E JUMPI POP PUSH1 0x1 PUSH0 CALLER PUSH20 0xFFFFFFFFFFFFFFFFFFFFFFFFFFFFFFFFFFFFFFFF AND PUSH20 0xFFFFFFFFFFFFFFFFFFFFFFFFFFFFFFFFFFFFFFFF AND DUP2 MSTORE PUSH1 0x20 ADD SWAP1 DUP2 MSTORE PUSH1 0x20 ADD PUSH0 KECCAK256 SLOAD PUSH2 0x66B DUP4 PUSH2 0x517 JUMP JUMPDEST EQ ISZERO JUMPDEST PUSH2 0x7AB JUMPI DUP3 PUSH0 PUSH0 DUP7 PUSH20 0xFFFFFFFFFFFFFFFFFFFFFFFFFFFFFFFFFFFFFFFF AND PUSH20 0xFFFFFFFFFFFFFFFFFFFFFFFFFFFFFFFFFFFFFFFF AND DUP2 MSTORE PUSH1 0x20 ADD SWAP1 DUP2 MSTORE PUSH1 0x20 ADD PUSH0 KECCAK256 PUSH0 DUP3 DUP3 SLOAD PUSH2 0x6BD SWAP2 SWAP1 PUSH2 0xD5B JUMP JUMPDEST SWAP3 POP POP DUP2 SWAP1 SSTORE POP DUP3 PUSH0 PUSH0 CALLER PUSH20 0xFFFFFFFFFFFFFFFFFFFFFFFFFFFFFFFFFFFFFFFF AND PUSH20 0xFFFFFFFFFFFFFFFFFFFFFFFFFFFFFFFFFFFFFFFF AND DUP2 MSTORE PUSH1 0x20 ADD SWAP1 DUP2 MSTORE PUSH1 0x20 ADD PUSH0 KECCAK256 PUSH0 DUP3 DUP3 SLOAD PUSH2 0x70F SWAP2 SWAP1 PUSH2 0xEAE JUMP JUMPDEST SWAP3 POP POP DUP2 SWAP1 SSTORE POP PUSH0 PUSH0 PUSH0 CALLER PUSH20 0xFFFFFFFFFFFFFFFFFFFFFFFFFFFFFFFFFFFFFFFF AND PUSH20 0xFFFFFFFFFFFFFFFFFFFFFFFFFFFFFFFFFFFFFFFF AND DUP2 MSTORE PUSH1 0x20 ADD SWAP1 DUP2 MSTORE PUSH1 0x20 ADD PUSH0 KECCAK256 SLOAD SUB PUSH2 0x767 JUMPI PUSH2 0x762 CALLER PUSH2 0x7F6 JUMP JUMPDEST PUSH2 0x7AA JUMP JUMPDEST DUP1 PUSH1 0x1 PUSH0 CALLER PUSH20 0xFFFFFFFFFFFFFFFFFFFFFFFFFFFFFFFFFFFFFFFF AND PUSH20 0xFFFFFFFFFFFFFFFFFFFFFFFFFFFFFFFFFFFFFFFF AND DUP2 MSTORE PUSH1 0x20 ADD SWAP1 DUP2 MSTORE PUSH1 0x20 ADD PUSH0 KECCAK256 DUP2 SWAP1 SSTORE POP JUMPDEST JUMPDEST POP POP POP POP JUMP JUMPDEST PUSH0 PUSH0 PUSH0 DUP4 PUSH20 0xFFFFFFFFFFFFFFFFFFFFFFFFFFFFFFFFFFFFFFFF AND PUSH20 0xFFFFFFFFFFFFFFFFFFFFFFFFFFFFFFFFFFFFFFFF AND DUP2 MSTORE PUSH1 0x20 ADD SWAP1 DUP2 MSTORE PUSH1 0x20 ADD PUSH0 KECCAK256 SLOAD SWAP1 POP SWAP2 SWAP1 POP JUMP JUMPDEST PUSH0 PUSH2 0x800 DUP3 PUSH2 0x996 JUMP JUMPDEST SWAP1 POP PUSH1 0x2 PUSH1 0x1 PUSH1 0x2 DUP1 SLOAD SWAP1 POP PUSH2 0x816 SWAP2 SWAP1 PUSH2 0xEAE JUMP JUMPDEST DUP2 SLOAD DUP2 LT PUSH2 0x827 JUMPI PUSH2 0x826 PUSH2 0xDBB JUMP JUMPDEST JUMPDEST SWAP1 PUSH0 MSTORE PUSH1 0x20 PUSH0 KECCAK256 ADD PUSH0 SWAP1 SLOAD SWAP1 PUSH2 0x100 EXP SWAP1 DIV PUSH20 0xFFFFFFFFFFFFFFFFFFFFFFFFFFFFFFFFFFFFFFFF AND PUSH1 0x2 DUP3 DUP2 SLOAD DUP2 LT PUSH2 0x863 JUMPI PUSH2 0x862 PUSH2 0xDBB JUMP JUMPDEST JUMPDEST SWAP1 PUSH0 MSTORE PUSH1 0x20 PUSH0 KECCAK256 ADD PUSH0 PUSH2 0x100 EXP DUP2 SLOAD DUP2 PUSH20 0xFFFFFFFFFFFFFFFFFFFFFFFFFFFFFFFFFFFFFFFF MUL NOT AND SWAP1 DUP4 PUSH20 0xFFFFFFFFFFFFFFFFFFFFFFFFFFFFFFFFFFFFFFFF AND MUL OR SWAP1 SSTORE POP PUSH1 0x2 DUP1 SLOAD DUP1 PUSH2 0x8BA JUMPI PUSH2 0x8B9 PUSH2 0xEE1 JUMP JUMPDEST JUMPDEST PUSH1 0x1 SWAP1 SUB DUP2 DUP2 SWAP1 PUSH0 MSTORE PUSH1 0x20 PUSH0 KECCAK256 ADD PUSH0 PUSH2 0x100 EXP DUP2 SLOAD SWAP1 PUSH20 0xFFFFFFFFFFFFFFFFFFFFFFFFFFFFFFFFFFFFFFFF MUL NOT AND SWAP1 SSTORE SWAP1 SSTORE PUSH0 PUSH0 DUP4 PUSH20 0xFFFFFFFFFFFFFFFFFFFFFFFFFFFFFFFFFFFFFFFF AND PUSH20 0xFFFFFFFFFFFFFFFFFFFFFFFFFFFFFFFFFFFFFFFF AND DUP2 MSTORE PUSH1 0x20 ADD SWAP1 DUP2 MSTORE PUSH1 0x20 ADD PUSH0 KECCAK256 PUSH0 SWAP1 SSTORE PUSH1 0x1 PUSH0 DUP4 PUSH20 0xFFFFFFFFFFFFFFFFFFFFFFFFFFFFFFFFFFFFFFFF AND PUSH20 0xFFFFFFFFFFFFFFFFFFFFFFFFFFFFFFFFFFFFFFFF AND DUP2 MSTORE PUSH1 0x20 ADD SWAP1 DUP2 MSTORE PUSH1 0x20 ADD PUSH0 KECCAK256 PUSH0 SWAP1 SSTORE POP POP JUMP JUMPDEST PUSH0 PUSH1 0x2 DUP1 SLOAD SWAP1 POP PUSH2 0x97F DUP4 PUSH2 0x996 JUMP JUMPDEST SUB PUSH2 0x98C JUMPI PUSH0 SWAP1 POP PUSH2 0x991 JUMP JUMPDEST PUSH1 0x1 SWAP1 POP JUMPDEST SWAP2 SWAP1 POP JUMP JUMPDEST PUSH0 PUSH0 PUSH0 SWAP1 POP JUMPDEST PUSH1 0x2 DUP1 SLOAD SWAP1 POP DUP2 LT ISZERO PUSH2 0xA2D JUMPI DUP3 PUSH20 0xFFFFFFFFFFFFFFFFFFFFFFFFFFFFFFFFFFFFFFFF AND PUSH1 0x2 DUP3 DUP2 SLOAD DUP2 LT PUSH2 0x9D4 JUMPI PUSH2 0x9D3 PUSH2 0xDBB JUMP JUMPDEST JUMPDEST SWAP1 PUSH0 MSTORE PUSH1 0x20 PUSH0 KECCAK256 ADD PUSH0 SWAP1 SLOAD SWAP1 PUSH2 0x100 EXP SWAP1 DIV PUSH20 0xFFFFFFFFFFFFFFFFFFFFFFFFFFFFFFFFFFFFFFFF AND PUSH20 0xFFFFFFFFFFFFFFFFFFFFFFFFFFFFFFFFFFFFFFFF AND SUB PUSH2 0xA20 JUMPI DUP1 SWAP2 POP POP PUSH2 0xA37 JUMP JUMPDEST DUP1 DUP1 PUSH1 0x1 ADD SWAP2 POP POP PUSH2 0x99C JUMP JUMPDEST POP PUSH1 0x2 DUP1 SLOAD SWAP1 POP SWAP1 POP JUMPDEST SWAP2 SWAP1 POP JUMP JUMPDEST PUSH1 0x40 MLOAD DUP1 PUSH1 0x40 ADD PUSH1 0x40 MSTORE DUP1 PUSH0 PUSH20 0xFFFFFFFFFFFFFFFFFFFFFFFFFFFFFFFFFFFFFFFF AND DUP2 MSTORE PUSH1 0x20 ADD PUSH0 DUP2 MSTORE POP SWAP1 JUMP JUMPDEST PUSH0 PUSH0 REVERT JUMPDEST PUSH0 DUP2 SWAP1 POP SWAP2 SWAP1 POP JUMP JUMPDEST PUSH2 0xA80 DUP2 PUSH2 0xA6E JUMP JUMPDEST DUP2 EQ PUSH2 0xA8A JUMPI PUSH0 PUSH0 REVERT JUMPDEST POP JUMP JUMPDEST PUSH0 DUP2 CALLDATALOAD SWAP1 POP PUSH2 0xA9B DUP2 PUSH2 0xA77 JUMP JUMPDEST SWAP3 SWAP2 POP POP JUMP JUMPDEST PUSH0 PUSH1 0x20 DUP3 DUP5 SUB SLT ISZERO PUSH2 0xAB6 JUMPI PUSH2 0xAB5 PUSH2 0xA6A JUMP JUMPDEST JUMPDEST PUSH0 PUSH2 0xAC3 DUP5 DUP3 DUP6 ADD PUSH2 0xA8D JUMP JUMPDEST SWAP2 POP POP SWAP3 SWAP2 POP POP JUMP JUMPDEST PUSH0 PUSH20 0xFFFFFFFFFFFFFFFFFFFFFFFFFFFFFFFFFFFFFFFF DUP3 AND SWAP1 POP SWAP2 SWAP1 POP JUMP JUMPDEST PUSH0 PUSH2 0xAF5 DUP3 PUSH2 0xACC JUMP JUMPDEST SWAP1 POP SWAP2 SWAP1 POP JUMP JUMPDEST PUSH2 0xB05 DUP2 PUSH2 0xAEB JUMP JUMPDEST DUP2 EQ PUSH2 0xB0F JUMPI PUSH0 PUSH0 REVERT JUMPDEST POP JUMP JUMPDEST PUSH0 DUP2 CALLDATALOAD SWAP1 POP PUSH2 0xB20 DUP2 PUSH2 0xAFC JUMP JUMPDEST SWAP3 SWAP2 POP POP JUMP JUMPDEST PUSH0 PUSH0 PUSH1 0x40 DUP4 DUP6 SUB SLT ISZERO PUSH2 0xB3C JUMPI PUSH2 0xB3B PUSH2 0xA6A JUMP JUMPDEST JUMPDEST PUSH0 PUSH2 0xB49 DUP6 DUP3 DUP7 ADD PUSH2 0xB12 JUMP JUMPDEST SWAP3 POP POP PUSH1 0x20 PUSH2 0xB5A DUP6 DUP3 DUP7 ADD PUSH2 0xA8D JUMP JUMPDEST SWAP2 POP POP SWAP3 POP SWAP3 SWAP1 POP JUMP JUMPDEST PUSH0 DUP2 MLOAD SWAP1 POP SWAP2 SWAP1 POP JUMP JUMPDEST PUSH0 DUP3 DUP3 MSTORE PUSH1 0x20 DUP3 ADD SWAP1 POP SWAP3 SWAP2 POP POP JUMP JUMPDEST PUSH0 DUP2 SWAP1 POP PUSH1 0x20 DUP3 ADD SWAP1 POP SWAP2 SWAP1 POP JUMP JUMPDEST PUSH2 0xB96 DUP2 PUSH2 0xAEB JUMP JUMPDEST DUP3 MSTORE POP POP JUMP JUMPDEST PUSH2 0xBA5 DUP2 PUSH2 0xA6E JUMP JUMPDEST DUP3 MSTORE POP POP JUMP JUMPDEST PUSH1 0x40 DUP3 ADD PUSH0 DUP3 ADD MLOAD PUSH2 0xBBF PUSH0 DUP6 ADD DUP3 PUSH2 0xB8D JUMP JUMPDEST POP PUSH1 0x20 DUP3 ADD MLOAD PUSH2 0xBD2 PUSH1 0x20 DUP6 ADD DUP3 PUSH2 0xB9C JUMP JUMPDEST POP POP POP POP JUMP JUMPDEST PUSH0 PUSH2 0xBE3 DUP4 DUP4 PUSH2 0xBAB JUMP JUMPDEST PUSH1 0x40 DUP4 ADD SWAP1 POP SWAP3 SWAP2 POP POP JUMP JUMPDEST PUSH0 PUSH1 0x20 DUP3 ADD SWAP1 POP SWAP2 SWAP1 POP JUMP JUMPDEST PUSH0 PUSH2 0xC05 DUP3 PUSH2 0xB64 JUMP JUMPDEST PUSH2 0xC0F DUP2 DUP6 PUSH2 0xB6E JUMP JUMPDEST SWAP4 POP PUSH2 0xC1A DUP4 PUSH2 0xB7E JUMP JUMPDEST DUP1 PUSH0 JUMPDEST DUP4 DUP2 LT ISZERO PUSH2 0xC4A JUMPI DUP2 MLOAD PUSH2 0xC31 DUP9 DUP3 PUSH2 0xBD8 JUMP JUMPDEST SWAP8 POP PUSH2 0xC3C DUP4 PUSH2 0xBEF JUMP JUMPDEST SWAP3 POP POP PUSH1 0x1 DUP2 ADD SWAP1 POP PUSH2 0xC1D JUMP JUMPDEST POP DUP6 SWAP4 POP POP POP POP SWAP3 SWAP2 POP POP JUMP JUMPDEST PUSH0 PUSH1 0x20 DUP3 ADD SWAP1 POP DUP2 DUP2 SUB PUSH0 DUP4 ADD MSTORE PUSH2 0xC6F DUP2 DUP5 PUSH2 0xBFB JUMP JUMPDEST SWAP1 POP SWAP3 SWAP2 POP POP JUMP JUMPDEST PUSH2 0xC80 DUP2 PUSH2 0xA6E JUMP JUMPDEST DUP3 MSTORE POP POP JUMP JUMPDEST PUSH0 PUSH1 0x20 DUP3 ADD SWAP1 POP PUSH2 0xC99 PUSH0 DUP4 ADD DUP5 PUSH2 0xC77 JUMP JUMPDEST SWAP3 SWAP2 POP POP JUMP JUMPDEST PUSH0 PUSH0 PUSH0 PUSH0 PUSH1 0x80 DUP6 DUP8 SUB SLT ISZERO PUSH2 0xCB7 JUMPI PUSH2 0xCB6 PUSH2 0xA6A JUMP JUMPDEST JUMPDEST PUSH0 PUSH2 0xCC4 DUP8 DUP3 DUP9 ADD PUSH2 0xB12 JUMP JUMPDEST SWAP5 POP POP PUSH1 0x20 PUSH2 0xCD5 DUP8 DUP3 DUP9 ADD PUSH2 0xA8D JUMP JUMPDEST SWAP4 POP POP PUSH1 0x40 PUSH2 0xCE6 DUP8 DUP3 DUP9 ADD PUSH2 0xA8D JUMP JUMPDEST SWAP3 POP POP PUSH1 0x60 PUSH2 0xCF7 DUP8 DUP3 DUP9 ADD PUSH2 0xA8D JUMP JUMPDEST SWAP2 POP POP SWAP3 SWAP6 SWAP2 SWAP5 POP SWAP3 POP JUMP JUMPDEST PUSH0 PUSH1 0x20 DUP3 DUP5 SUB SLT ISZERO PUSH2 0xD18 JUMPI PUSH2 0xD17 PUSH2 0xA6A JUMP JUMPDEST JUMPDEST PUSH0 PUSH2 0xD25 DUP5 DUP3 DUP6 ADD PUSH2 0xB12 JUMP JUMPDEST SWAP2 POP POP SWAP3 SWAP2 POP POP JUMP JUMPDEST PUSH32 0x4E487B7100000000000000000000000000000000000000000000000000000000 PUSH0 MSTORE PUSH1 0x11 PUSH1 0x4 MSTORE PUSH1 0x24 PUSH0 REVERT JUMPDEST PUSH0 PUSH2 0xD65 DUP3 PUSH2 0xA6E JUMP JUMPDEST SWAP2 POP PUSH2 0xD70 DUP4 PUSH2 0xA6E JUMP JUMPDEST SWAP3 POP DUP3 DUP3 ADD SWAP1 POP DUP1 DUP3 GT ISZERO PUSH2 0xD88 JUMPI PUSH2 0xD87 PUSH2 0xD2E JUMP JUMPDEST JUMPDEST SWAP3 SWAP2 POP POP JUMP JUMPDEST PUSH32 0x4E487B7100000000000000000000000000000000000000000000000000000000 PUSH0 MSTORE PUSH1 0x41 PUSH1 0x4 MSTORE PUSH1 0x24 PUSH0 REVERT JUMPDEST PUSH32 0x4E487B7100000000000000000000000000000000000000000000000000000000 PUSH0 MSTORE PUSH1 0x32 PUSH1 0x4 MSTORE PUSH1 0x24 PUSH0 REVERT JUMPDEST PUSH0 DUP2 MLOAD SWAP1 POP SWAP2 SWAP1 POP JUMP JUMPDEST PUSH0 DUP2 SWAP1 POP SWAP3 SWAP2 POP POP JUMP JUMPDEST DUP3 DUP2 DUP4 MCOPY PUSH0 DUP4 DUP4 ADD MSTORE POP POP POP JUMP JUMPDEST PUSH0 PUSH2 0xE14 DUP3 PUSH2 0xDE8 JUMP JUMPDEST PUSH2 0xE1E DUP2 DUP6 PUSH2 0xDF2 JUMP JUMPDEST SWAP4 POP PUSH2 0xE2E DUP2 DUP6 PUSH1 0x20 DUP7 ADD PUSH2 0xDFC JUMP JUMPDEST DUP1 DUP5 ADD SWAP2 POP POP SWAP3 SWAP2 POP POP JUMP JUMPDEST PUSH0 PUSH2 0xE45 DUP3 DUP5 PUSH2 0xE0A JUMP JUMPDEST SWAP2 POP DUP2 SWAP1 POP SWAP3 SWAP2 POP POP JUMP JUMPDEST PUSH0 DUP2 SWAP1 POP SWAP2 SWAP1 POP JUMP JUMPDEST PUSH2 0xE62 DUP2 PUSH2 0xE50 JUMP JUMPDEST DUP2 EQ PUSH2 0xE6C JUMPI PUSH0 PUSH0 REVERT JUMPDEST POP JUMP JUMPDEST PUSH0 DUP2 MLOAD SWAP1 POP PUSH2 0xE7D DUP2 PUSH2 0xE59 JUMP JUMPDEST SWAP3 SWAP2 POP POP JUMP JUMPDEST PUSH0 PUSH1 0x20 DUP3 DUP5 SUB SLT ISZERO PUSH2 0xE98 JUMPI PUSH2 0xE97 PUSH2 0xA6A JUMP JUMPDEST JUMPDEST PUSH0 PUSH2 0xEA5 DUP5 DUP3 DUP6 ADD PUSH2 0xE6F JUMP JUMPDEST SWAP2 POP POP SWAP3 SWAP2 POP POP JUMP JUMPDEST PUSH0 PUSH2 0xEB8 DUP3 PUSH2 0xA6E JUMP JUMPDEST SWAP2 POP PUSH2 0xEC3 DUP4 PUSH2 0xA6E JUMP JUMPDEST SWAP3 POP DUP3 DUP3 SUB SWAP1 POP DUP2 DUP2 GT ISZERO PUSH2 0xEDB JUMPI PUSH2 0xEDA PUSH2 0xD2E JUMP JUMPDEST JUMPDEST SWAP3 SWAP2 POP POP JUMP JUMPDEST PUSH32 0x4E487B7100000000000000000000000000000000000000000000000000000000 PUSH0 MSTORE PUSH1 0x31 PUSH1 0x4 MSTORE PUSH1 0x24 PUSH0 REVERT INVALID LOG2 PUSH5 0x6970667358 0x22 SLT KECCAK256 0xB5 STOP SGT TLOAD ADDRESS 0x2D RETURNCONTRACT 0x4F PUSH23 0xF1651D1A724B8958F58F16A5E20767AEEABEB6CE192780 PUSH5 0x736F6C6343 STOP ADDMOD 0x1E STOP CALLER "
				},
				"gasEstimates": {
					"creation": {
						"codeDepositCost": "781600",
						"executionCost": "816",
						"totalCost": "782416"
					},
					"external": {
						"deposit(address,uint256)": "infinite",
						"getBalance(address)": "2916",
						"hash(uint256)": "infinite",
						"printAllInfo()": "infinite",
						"transfer(address,uint256,uint256,uint256)": "infinite",
						"withdraw(uint256)": "infinite"
					},
					"internal": {
						"clearAccount(address)": "infinite",
						"getAccountIndex(address)": "infinite",
						"isAccountExist(address)": "infinite"
					}
				},
				"methodIdentifiers": {
					"deposit(address,uint256)": "47e7ef24",
					"getBalance(address)": "f8b2cb4f",
					"hash(uint256)": "b189fd4c",
					"printAllInfo()": "9de036e7",
					"transfer(address,uint256,uint256,uint256)": "b6510bb3",
					"withdraw(uint256)": "2e1a7d4d"
				}
			},
			"storageLayout": {
				"storage": [
					{
						"astId": 5,
						"contract": "contracts/hw4.sol:Example01",
						"label": "balance",
						"offset": 0,
						"slot": "0",
						"type": "t_mapping(t_address,t_uint256)"
					},
					{
						"astId": 9,
						"contract": "contracts/hw4.sol:Example01",
						"label": "password",
						"offset": 0,
						"slot": "1",
						"type": "t_mapping(t_address,t_uint256)"
					},
					{
						"astId": 12,
						"contract": "contracts/hw4.sol:Example01",
						"label": "accounts",
						"offset": 0,
						"slot": "2",
						"type": "t_array(t_address)dyn_storage"
					}
				],
				"types": {
					"t_address": {
						"encoding": "inplace",
						"label": "address",
						"numberOfBytes": "20"
					},
					"t_array(t_address)dyn_storage": {
						"base": "t_address",
						"encoding": "dynamic_array",
						"label": "address[]",
						"numberOfBytes": "32"
					},
					"t_mapping(t_address,t_uint256)": {
						"encoding": "mapping",
						"key": "t_address",
						"label": "mapping(address => uint256)",
						"numberOfBytes": "32",
						"value": "t_uint256"
					},
					"t_uint256": {
						"encoding": "inplace",
						"label": "uint256",
						"numberOfBytes": "32"
					}
				}
			},
			"userdoc": {
				"kind": "user",
				"methods": {},
				"version": 1
			}
		}
	}
}