{
	"contracts/hw4.sol": {
		"hw4": {
			"abi": [
				{
					"inputs": [
						{
							"internalType": "address",
							"name": "to",
							"type": "address"
						},
						{
							"internalType": "uint256",
							"name": "hashedPassword",
							"type": "uint256"
						}
					],
					"name": "deposit",
					"outputs": [],
					"stateMutability": "payable",
					"type": "function"
				},
				{
					"inputs": [
						{
							"internalType": "address",
							"name": "addr",
							"type": "address"
						}
					],
					"name": "getBalance",
					"outputs": [
						{
							"internalType": "uint256",
							"name": "",
							"type": "uint256"
						}
					],
					"stateMutability": "view",
					"type": "function"
				},
				{
					"inputs": [
						{
							"internalType": "uint256",
							"name": "input",
							"type": "uint256"
						}
					],
					"name": "hash",
					"outputs": [
						{
							"internalType": "uint256",
							"name": "",
							"type": "uint256"
						}
					],
					"stateMutability": "pure",
					"type": "function"
				},
				{
					"inputs": [
						{
							"internalType": "address",
							"name": "addr",
							"type": "address"
						}
					],
					"name": "isAccountSetPassword",
					"outputs": [
						{
							"internalType": "bool",
							"name": "",
							"type": "bool"
						}
					],
					"stateMutability": "view",
					"type": "function"
				},
				{
					"inputs": [],
					"name": "printAllInfo",
					"outputs": [
						{
							"components": [
								{
									"internalType": "address",
									"name": "account",
									"type": "address"
								},
								{
									"internalType": "uint256",
									"name": "amount",
									"type": "uint256"
								}
							],
							"internalType": "struct hw4.Wallet[]",
							"name": "",
							"type": "tuple[]"
						}
					],
					"stateMutability": "view",
					"type": "function"
				},
				{
					"inputs": [
						{
							"internalType": "address",
							"name": "to",
							"type": "address"
						},
						{
							"internalType": "uint256",
							"name": "amount",
							"type": "uint256"
						},
						{
							"internalType": "uint256",
							"name": "psword",
							"type": "uint256"
						},
						{
							"internalType": "uint256",
							"name": "newHashedPassword",
							"type": "uint256"
						}
					],
					"name": "transfer",
					"outputs": [],
					"stateMutability": "nonpayable",
					"type": "function"
				},
				{
					"inputs": [
						{
							"internalType": "uint256",
							"name": "psword",
							"type": "uint256"
						}
					],
					"name": "withdraw",
					"outputs": [],
					"stateMutability": "nonpayable",
					"type": "function"
				}
			],
			"devdoc": {
				"kind": "dev",
				"methods": {},
				"version": 1
			},
			"evm": {
				"assembly": "    /* \"contracts/hw4.sol\":114:2768  contract hw4 {... */\n  mstore(0x40, 0x80)\n  callvalue\n  dup1\n  iszero\n  tag_1\n  jumpi\n  revert(0x00, 0x00)\ntag_1:\n  pop\n  dataSize(sub_0)\n  dup1\n  dataOffset(sub_0)\n  0x00\n  codecopy\n  0x00\n  return\nstop\n\nsub_0: assembly {\n        /* \"contracts/hw4.sol\":114:2768  contract hw4 {... */\n      mstore(0x40, 0x80)\n      jumpi(tag_1, lt(calldatasize, 0x04))\n      shr(0xe0, calldataload(0x00))\n      dup1\n      0x9de036e7\n      gt\n      tag_9\n      jumpi\n      dup1\n      0x9de036e7\n      eq\n      tag_5\n      jumpi\n      dup1\n      0xb189fd4c\n      eq\n      tag_6\n      jumpi\n      dup1\n      0xb6510bb3\n      eq\n      tag_7\n      jumpi\n      dup1\n      0xf8b2cb4f\n      eq\n      tag_8\n      jumpi\n      jump(tag_1)\n    tag_9:\n      dup1\n      0x0e7be890\n      eq\n      tag_2\n      jumpi\n      dup1\n      0x2e1a7d4d\n      eq\n      tag_3\n      jumpi\n      dup1\n      0x47e7ef24\n      eq\n      tag_4\n      jumpi\n    tag_1:\n      revert(0x00, 0x00)\n        /* \"contracts/hw4.sol\":2650:2766  function isAccountSetPassword(address addr) public view returns (bool) {... */\n    tag_2:\n      callvalue\n      dup1\n      iszero\n      tag_10\n      jumpi\n      revert(0x00, 0x00)\n    tag_10:\n      pop\n      tag_11\n      0x04\n      dup1\n      calldatasize\n      sub\n      dup2\n      add\n      swap1\n      tag_12\n      swap2\n      swap1\n      tag_13\n      jump\t// in\n    tag_12:\n      tag_14\n      jump\t// in\n    tag_11:\n      mload(0x40)\n      tag_15\n      swap2\n      swap1\n      tag_16\n      jump\t// in\n    tag_15:\n      mload(0x40)\n      dup1\n      swap2\n      sub\n      swap1\n      return\n        /* \"contracts/hw4.sol\":772:1018  function withdraw(uint psword) public {... */\n    tag_3:\n      callvalue\n      dup1\n      iszero\n      tag_17\n      jumpi\n      revert(0x00, 0x00)\n    tag_17:\n      pop\n      tag_18\n      0x04\n      dup1\n      calldatasize\n      sub\n      dup2\n      add\n      swap1\n      tag_19\n      swap2\n      swap1\n      tag_20\n      jump\t// in\n    tag_19:\n      tag_21\n      jump\t// in\n    tag_18:\n      stop\n        /* \"contracts/hw4.sol\":312:659  function deposit(address to, uint256 hashedPassword) public payable {... */\n    tag_4:\n      tag_22\n      0x04\n      dup1\n      calldatasize\n      sub\n      dup2\n      add\n      swap1\n      tag_23\n      swap2\n      swap1\n      tag_24\n      jump\t// in\n    tag_23:\n      tag_25\n      jump\t// in\n    tag_22:\n      stop\n        /* \"contracts/hw4.sol\":1024:1313  function printAllInfo() public view returns (Wallet[] memory) {... */\n    tag_5:\n      callvalue\n      dup1\n      iszero\n      tag_26\n      jumpi\n      revert(0x00, 0x00)\n    tag_26:\n      pop\n      tag_27\n      tag_28\n      jump\t// in\n    tag_27:\n      mload(0x40)\n      tag_29\n      swap2\n      swap1\n      tag_30\n      jump\t// in\n    tag_29:\n      mload(0x40)\n      dup1\n      swap2\n      sub\n      swap1\n      return\n        /* \"contracts/hw4.sol\":2150:2267  function hash(uint256 input) public pure returns (uint256) {... */\n    tag_6:\n      callvalue\n      dup1\n      iszero\n      tag_31\n      jumpi\n      revert(0x00, 0x00)\n    tag_31:\n      pop\n      tag_32\n      0x04\n      dup1\n      calldatasize\n      sub\n      dup2\n      add\n      swap1\n      tag_33\n      swap2\n      swap1\n      tag_20\n      jump\t// in\n    tag_33:\n      tag_34\n      jump\t// in\n    tag_32:\n      mload(0x40)\n      tag_35\n      swap2\n      swap1\n      tag_36\n      jump\t// in\n    tag_35:\n      mload(0x40)\n      dup1\n      swap2\n      sub\n      swap1\n      return\n        /* \"contracts/hw4.sol\":1319:1878  function transfer(address to, uint256 amount, uint256 psword, uint256 newHashedPassword) public {... */\n    tag_7:\n      callvalue\n      dup1\n      iszero\n      tag_37\n      jumpi\n      revert(0x00, 0x00)\n    tag_37:\n      pop\n      tag_38\n      0x04\n      dup1\n      calldatasize\n      sub\n      dup2\n      add\n      swap1\n      tag_39\n      swap2\n      swap1\n      tag_40\n      jump\t// in\n    tag_39:\n      tag_41\n      jump\t// in\n    tag_38:\n      stop\n        /* \"contracts/hw4.sol\":665:766  function getBalance(address addr) public view returns (uint256) {... */\n    tag_8:\n      callvalue\n      dup1\n      iszero\n      tag_42\n      jumpi\n      revert(0x00, 0x00)\n    tag_42:\n      pop\n      tag_43\n      0x04\n      dup1\n      calldatasize\n      sub\n      dup2\n      add\n      swap1\n      tag_44\n      swap2\n      swap1\n      tag_13\n      jump\t// in\n    tag_44:\n      tag_45\n      jump\t// in\n    tag_43:\n      mload(0x40)\n      tag_46\n      swap2\n      swap1\n      tag_36\n      jump\t// in\n    tag_46:\n      mload(0x40)\n      dup1\n      swap2\n      sub\n      swap1\n      return\n        /* \"contracts/hw4.sol\":2650:2766  function isAccountSetPassword(address addr) public view returns (bool) {... */\n    tag_14:\n        /* \"contracts/hw4.sol\":2715:2719  bool */\n      0x00\n        /* \"contracts/hw4.sol\":2757:2758  0 */\n      0x00\n        /* \"contracts/hw4.sol\":2739:2747  password */\n      0x01\n        /* \"contracts/hw4.sol\":2739:2753  password[addr] */\n      0x00\n        /* \"contracts/hw4.sol\":2748:2752  addr */\n      dup5\n        /* \"contracts/hw4.sol\":2739:2753  password[addr] */\n      0xffffffffffffffffffffffffffffffffffffffff\n      and\n      0xffffffffffffffffffffffffffffffffffffffff\n      and\n      dup2\n      mstore\n      0x20\n      add\n      swap1\n      dup2\n      mstore\n      0x20\n      add\n      0x00\n      keccak256\n      sload\n        /* \"contracts/hw4.sol\":2739:2758  password[addr] != 0 */\n      eq\n      iszero\n        /* \"contracts/hw4.sol\":2731:2759  return (password[addr] != 0) */\n      swap1\n      pop\n        /* \"contracts/hw4.sol\":2650:2766  function isAccountSetPassword(address addr) public view returns (bool) {... */\n      swap2\n      swap1\n      pop\n      jump\t// out\n        /* \"contracts/hw4.sol\":772:1018  function withdraw(uint psword) public {... */\n    tag_21:\n        /* \"contracts/hw4.sol\":847:848  0 */\n      0x00\n        /* \"contracts/hw4.sol\":824:831  balance */\n      0x00\n        /* \"contracts/hw4.sol\":824:843  balance[msg.sender] */\n      0x00\n        /* \"contracts/hw4.sol\":832:842  msg.sender */\n      caller\n        /* \"contracts/hw4.sol\":824:843  balance[msg.sender] */\n      0xffffffffffffffffffffffffffffffffffffffff\n      and\n      0xffffffffffffffffffffffffffffffffffffffff\n      and\n      dup2\n      mstore\n      0x20\n      add\n      swap1\n      dup2\n      mstore\n      0x20\n      add\n      0x00\n      keccak256\n      sload\n        /* \"contracts/hw4.sol\":824:848  balance[msg.sender] == 0 */\n      eq\n        /* \"contracts/hw4.sol\":824:901  balance[msg.sender] == 0 || ... */\n      dup1\n      tag_49\n      jumpi\n      pop\n        /* \"contracts/hw4.sol\":889:901  hash(psword) */\n      tag_50\n        /* \"contracts/hw4.sol\":894:900  psword */\n      dup2\n        /* \"contracts/hw4.sol\":889:893  hash */\n      tag_34\n        /* \"contracts/hw4.sol\":889:901  hash(psword) */\n      jump\t// in\n    tag_50:\n        /* \"contracts/hw4.sol\":865:873  password */\n      0x01\n        /* \"contracts/hw4.sol\":865:885  password[msg.sender] */\n      0x00\n        /* \"contracts/hw4.sol\":874:884  msg.sender */\n      caller\n        /* \"contracts/hw4.sol\":865:885  password[msg.sender] */\n      0xffffffffffffffffffffffffffffffffffffffff\n      and\n      0xffffffffffffffffffffffffffffffffffffffff\n      and\n      dup2\n      mstore\n      0x20\n      add\n      swap1\n      dup2\n      mstore\n      0x20\n      add\n      0x00\n      keccak256\n      sload\n        /* \"contracts/hw4.sol\":865:901  password[msg.sender] != hash(psword) */\n      eq\n      iszero\n        /* \"contracts/hw4.sol\":824:901  balance[msg.sender] == 0 || ... */\n    tag_49:\n        /* \"contracts/hw4.sol\":911:918  return; */\n      tag_48\n        /* \"contracts/hw4.sol\":820:918  if (balance[msg.sender] == 0 || ... */\n      jumpi\n        /* \"contracts/hw4.sol\":936:946  msg.sender */\n      caller\n        /* \"contracts/hw4.sol\":928:956  payable(msg.sender).transfer */\n      0xffffffffffffffffffffffffffffffffffffffff\n      and\n        /* \"contracts/hw4.sol\":928:977  payable(msg.sender).transfer(balance[msg.sender]) */\n      0x08fc\n        /* \"contracts/hw4.sol\":957:964  balance */\n      0x00\n        /* \"contracts/hw4.sol\":957:976  balance[msg.sender] */\n      0x00\n        /* \"contracts/hw4.sol\":965:975  msg.sender */\n      caller\n        /* \"contracts/hw4.sol\":957:976  balance[msg.sender] */\n      0xffffffffffffffffffffffffffffffffffffffff\n      and\n      0xffffffffffffffffffffffffffffffffffffffff\n      and\n      dup2\n      mstore\n      0x20\n      add\n      swap1\n      dup2\n      mstore\n      0x20\n      add\n      0x00\n      keccak256\n      sload\n        /* \"contracts/hw4.sol\":928:977  payable(msg.sender).transfer(balance[msg.sender]) */\n      swap1\n      dup2\n      iszero\n      mul\n      swap1\n      mload(0x40)\n      0x00\n      mload(0x40)\n      dup1\n      dup4\n      sub\n      dup2\n      dup6\n      dup9\n      dup9\n      call\n      swap4\n      pop\n      pop\n      pop\n      pop\n      iszero\n      dup1\n      iszero\n      tag_53\n      jumpi\n      returndatacopy(0x00, 0x00, returndatasize)\n      revert(0x00, returndatasize)\n    tag_53:\n      pop\n        /* \"contracts/hw4.sol\":987:1011  clearAccount(msg.sender) */\n      tag_54\n        /* \"contracts/hw4.sol\":1000:1010  msg.sender */\n      caller\n        /* \"contracts/hw4.sol\":987:999  clearAccount */\n      tag_55\n        /* \"contracts/hw4.sol\":987:1011  clearAccount(msg.sender) */\n      jump\t// in\n    tag_54:\n        /* \"contracts/hw4.sol\":772:1018  function withdraw(uint psword) public {... */\n    tag_48:\n      pop\n      jump\t// out\n        /* \"contracts/hw4.sol\":312:659  function deposit(address to, uint256 hashedPassword) public payable {... */\n    tag_25:\n        /* \"contracts/hw4.sol\":410:411  0 */\n      0x00\n        /* \"contracts/hw4.sol\":398:407  msg.value */\n      callvalue\n        /* \"contracts/hw4.sol\":398:411  msg.value > 0 */\n      gt\n        /* \"contracts/hw4.sol\":390:412  require(msg.value > 0) */\n      tag_57\n      jumpi\n      revert(0x00, 0x00)\n    tag_57:\n        /* \"contracts/hw4.sol\":508:509  0 */\n      0x00\n        /* \"contracts/hw4.sol\":493:500  balance */\n      0x00\n        /* \"contracts/hw4.sol\":493:504  balance[to] */\n      0x00\n        /* \"contracts/hw4.sol\":501:503  to */\n      dup5\n        /* \"contracts/hw4.sol\":493:504  balance[to] */\n      0xffffffffffffffffffffffffffffffffffffffff\n      and\n      0xffffffffffffffffffffffffffffffffffffffff\n      and\n      dup2\n      mstore\n      0x20\n      add\n      swap1\n      dup2\n      mstore\n      0x20\n      add\n      0x00\n      keccak256\n      sload\n        /* \"contracts/hw4.sol\":493:509  balance[to] == 0 */\n      sub\n        /* \"contracts/hw4.sol\":489:528  if (balance[to] == 0) accounts.push(to) */\n      tag_58\n      jumpi\n        /* \"contracts/hw4.sol\":511:519  accounts */\n      0x02\n        /* \"contracts/hw4.sol\":525:527  to */\n      dup3\n        /* \"contracts/hw4.sol\":511:528  accounts.push(to) */\n      swap1\n      dup1\n      0x01\n      dup2\n      sload\n      add\n      dup1\n      dup3\n      sstore\n      dup1\n      swap2\n      pop\n      pop\n      0x01\n      swap1\n      sub\n      swap1\n      0x00\n      mstore\n      keccak256(0x00, 0x20)\n      add\n      0x00\n      swap1\n      swap2\n      swap1\n      swap2\n      swap1\n      swap2\n      0x0100\n      exp\n      dup2\n      sload\n      dup2\n      0xffffffffffffffffffffffffffffffffffffffff\n      mul\n      not\n      and\n      swap1\n      dup4\n      0xffffffffffffffffffffffffffffffffffffffff\n      and\n      mul\n      or\n      swap1\n      sstore\n      pop\n        /* \"contracts/hw4.sol\":489:528  if (balance[to] == 0) accounts.push(to) */\n    tag_58:\n        /* \"contracts/hw4.sol\":553:562  msg.value */\n      callvalue\n        /* \"contracts/hw4.sol\":538:545  balance */\n      0x00\n        /* \"contracts/hw4.sol\":538:549  balance[to] */\n      0x00\n        /* \"contracts/hw4.sol\":546:548  to */\n      dup5\n        /* \"contracts/hw4.sol\":538:549  balance[to] */\n      0xffffffffffffffffffffffffffffffffffffffff\n      and\n      0xffffffffffffffffffffffffffffffffffffffff\n      and\n      dup2\n      mstore\n      0x20\n      add\n      swap1\n      dup2\n      mstore\n      0x20\n      add\n      0x00\n      keccak256\n      0x00\n        /* \"contracts/hw4.sol\":538:562  balance[to] += msg.value */\n      dup3\n      dup3\n      sload\n      tag_60\n      swap2\n      swap1\n      tag_61\n      jump\t// in\n    tag_60:\n      swap3\n      pop\n      pop\n      dup2\n      swap1\n      sstore\n      pop\n        /* \"contracts/hw4.sol\":600:601  0 */\n      0x00\n        /* \"contracts/hw4.sol\":577:584  balance */\n      0x00\n        /* \"contracts/hw4.sol\":577:596  balance[msg.sender] */\n      0x00\n        /* \"contracts/hw4.sol\":585:595  msg.sender */\n      caller\n        /* \"contracts/hw4.sol\":577:596  balance[msg.sender] */\n      0xffffffffffffffffffffffffffffffffffffffff\n      and\n      0xffffffffffffffffffffffffffffffffffffffff\n      and\n      dup2\n      mstore\n      0x20\n      add\n      swap1\n      dup2\n      mstore\n      0x20\n      add\n      0x00\n      keccak256\n      sload\n        /* \"contracts/hw4.sol\":577:601  balance[msg.sender] != 0 */\n      eq\n        /* \"contracts/hw4.sol\":573:652  if (balance[msg.sender] != 0)... */\n      tag_62\n      jumpi\n        /* \"contracts/hw4.sol\":638:652  hashedPassword */\n      dup1\n        /* \"contracts/hw4.sol\":615:623  password */\n      0x01\n        /* \"contracts/hw4.sol\":615:635  password[msg.sender] */\n      0x00\n        /* \"contracts/hw4.sol\":624:634  msg.sender */\n      caller\n        /* \"contracts/hw4.sol\":615:635  password[msg.sender] */\n      0xffffffffffffffffffffffffffffffffffffffff\n      and\n      0xffffffffffffffffffffffffffffffffffffffff\n      and\n      dup2\n      mstore\n      0x20\n      add\n      swap1\n      dup2\n      mstore\n      0x20\n      add\n      0x00\n      keccak256\n        /* \"contracts/hw4.sol\":615:652  password[msg.sender] = hashedPassword */\n      dup2\n      swap1\n      sstore\n      pop\n        /* \"contracts/hw4.sol\":573:652  if (balance[msg.sender] != 0)... */\n    tag_62:\n        /* \"contracts/hw4.sol\":312:659  function deposit(address to, uint256 hashedPassword) public payable {... */\n      pop\n      pop\n      jump\t// out\n        /* \"contracts/hw4.sol\":1024:1313  function printAllInfo() public view returns (Wallet[] memory) {... */\n    tag_28:\n        /* \"contracts/hw4.sol\":1069:1084  Wallet[] memory */\n      0x60\n        /* \"contracts/hw4.sol\":1096:1119  Wallet[] memory wallets */\n      0x00\n        /* \"contracts/hw4.sol\":1135:1143  accounts */\n      0x02\n        /* \"contracts/hw4.sol\":1135:1150  accounts.length */\n      dup1\n      sload\n      swap1\n      pop\n        /* \"contracts/hw4.sol\":1122:1151  new Wallet[](accounts.length) */\n      0xffffffffffffffff\n      dup2\n      gt\n      iszero\n      tag_64\n      jumpi\n      tag_65\n      tag_66\n      jump\t// in\n    tag_65:\n    tag_64:\n      mload(0x40)\n      swap1\n      dup1\n      dup3\n      mstore\n      dup1\n      0x20\n      mul\n      0x20\n      add\n      dup3\n      add\n      0x40\n      mstore\n      dup1\n      iszero\n      tag_67\n      jumpi\n      dup2\n      0x20\n      add\n    tag_68:\n      tag_69\n      tag_70\n      jump\t// in\n    tag_69:\n      dup2\n      mstore\n      0x20\n      add\n      swap1\n      0x01\n      swap1\n      sub\n      swap1\n      dup2\n      tag_68\n      jumpi\n      swap1\n      pop\n    tag_67:\n      pop\n        /* \"contracts/hw4.sol\":1096:1151  Wallet[] memory wallets = new Wallet[](accounts.length) */\n      swap1\n      pop\n        /* \"contracts/hw4.sol\":1166:1172  uint i */\n      0x00\n        /* \"contracts/hw4.sol\":1175:1176  0 */\n      0x00\n        /* \"contracts/hw4.sol\":1166:1176  uint i = 0 */\n      swap1\n      pop\n        /* \"contracts/hw4.sol\":1161:1283  for (uint i = 0; i < accounts.length; i++) {... */\n    tag_71:\n        /* \"contracts/hw4.sol\":1182:1190  accounts */\n      0x02\n        /* \"contracts/hw4.sol\":1182:1197  accounts.length */\n      dup1\n      sload\n      swap1\n      pop\n        /* \"contracts/hw4.sol\":1178:1179  i */\n      dup2\n        /* \"contracts/hw4.sol\":1178:1197  i < accounts.length */\n      lt\n        /* \"contracts/hw4.sol\":1161:1283  for (uint i = 0; i < accounts.length; i++) {... */\n      iszero\n      tag_72\n      jumpi\n        /* \"contracts/hw4.sol\":1231:1272  Wallet(accounts[i], balance[accounts[i]]) */\n      mload(0x40)\n      dup1\n      0x40\n      add\n      0x40\n      mstore\n      dup1\n        /* \"contracts/hw4.sol\":1238:1246  accounts */\n      0x02\n        /* \"contracts/hw4.sol\":1247:1248  i */\n      dup4\n        /* \"contracts/hw4.sol\":1238:1249  accounts[i] */\n      dup2\n      sload\n      dup2\n      lt\n      tag_74\n      jumpi\n      tag_75\n      tag_76\n      jump\t// in\n    tag_75:\n    tag_74:\n      swap1\n      0x00\n      mstore\n      keccak256(0x00, 0x20)\n      add\n      0x00\n      swap1\n      sload\n      swap1\n      0x0100\n      exp\n      swap1\n      div\n      0xffffffffffffffffffffffffffffffffffffffff\n      and\n        /* \"contracts/hw4.sol\":1231:1272  Wallet(accounts[i], balance[accounts[i]]) */\n      0xffffffffffffffffffffffffffffffffffffffff\n      and\n      dup2\n      mstore\n      0x20\n      add\n        /* \"contracts/hw4.sol\":1251:1258  balance */\n      0x00\n        /* \"contracts/hw4.sol\":1251:1271  balance[accounts[i]] */\n      0x00\n        /* \"contracts/hw4.sol\":1259:1267  accounts */\n      0x02\n        /* \"contracts/hw4.sol\":1268:1269  i */\n      dup6\n        /* \"contracts/hw4.sol\":1259:1270  accounts[i] */\n      dup2\n      sload\n      dup2\n      lt\n      tag_78\n      jumpi\n      tag_79\n      tag_76\n      jump\t// in\n    tag_79:\n    tag_78:\n      swap1\n      0x00\n      mstore\n      keccak256(0x00, 0x20)\n      add\n      0x00\n      swap1\n      sload\n      swap1\n      0x0100\n      exp\n      swap1\n      div\n      0xffffffffffffffffffffffffffffffffffffffff\n      and\n        /* \"contracts/hw4.sol\":1251:1271  balance[accounts[i]] */\n      0xffffffffffffffffffffffffffffffffffffffff\n      and\n      0xffffffffffffffffffffffffffffffffffffffff\n      and\n      dup2\n      mstore\n      0x20\n      add\n      swap1\n      dup2\n      mstore\n      0x20\n      add\n      0x00\n      keccak256\n      sload\n        /* \"contracts/hw4.sol\":1231:1272  Wallet(accounts[i], balance[accounts[i]]) */\n      dup2\n      mstore\n      pop\n        /* \"contracts/hw4.sol\":1218:1225  wallets */\n      dup3\n        /* \"contracts/hw4.sol\":1226:1227  i */\n      dup3\n        /* \"contracts/hw4.sol\":1218:1228  wallets[i] */\n      dup2\n      mload\n      dup2\n      lt\n      tag_81\n      jumpi\n      tag_82\n      tag_76\n      jump\t// in\n    tag_82:\n    tag_81:\n      0x20\n      mul\n      0x20\n      add\n      add\n        /* \"contracts/hw4.sol\":1218:1272  wallets[i] = Wallet(accounts[i], balance[accounts[i]]) */\n      dup2\n      swap1\n      mstore\n      pop\n        /* \"contracts/hw4.sol\":1199:1202  i++ */\n      dup1\n      dup1\n      0x01\n      add\n      swap2\n      pop\n      pop\n        /* \"contracts/hw4.sol\":1161:1283  for (uint i = 0; i < accounts.length; i++) {... */\n      jump(tag_71)\n    tag_72:\n      pop\n        /* \"contracts/hw4.sol\":1299:1306  wallets */\n      dup1\n        /* \"contracts/hw4.sol\":1292:1306  return wallets */\n      swap2\n      pop\n      pop\n        /* \"contracts/hw4.sol\":1024:1313  function printAllInfo() public view returns (Wallet[] memory) {... */\n      swap1\n      jump\t// out\n        /* \"contracts/hw4.sol\":2150:2267  function hash(uint256 input) public pure returns (uint256) {... */\n    tag_34:\n        /* \"contracts/hw4.sol\":2200:2207  uint256 */\n      0x00\n        /* \"contracts/hw4.sol\":2234:2259  sha256(abi.encode(input)) */\n      0x02\n        /* \"contracts/hw4.sol\":2252:2257  input */\n      dup3\n        /* \"contracts/hw4.sol\":2241:2258  abi.encode(input) */\n      add(0x20, mload(0x40))\n      tag_84\n      swap2\n      swap1\n      tag_36\n      jump\t// in\n    tag_84:\n      mload(0x40)\n      0x20\n      dup2\n      dup4\n      sub\n      sub\n      dup2\n      mstore\n      swap1\n      0x40\n      mstore\n        /* \"contracts/hw4.sol\":2234:2259  sha256(abi.encode(input)) */\n      mload(0x40)\n      tag_85\n      swap2\n      swap1\n      tag_86\n      jump\t// in\n    tag_85:\n      0x20\n      mload(0x40)\n      dup1\n      dup4\n      sub\n      dup2\n      dup6\n      gas\n      staticcall\n      iszero\n      dup1\n      iszero\n      tag_88\n      jumpi\n      returndatacopy(0x00, 0x00, returndatasize)\n      revert(0x00, returndatasize)\n    tag_88:\n      pop\n      pop\n      pop\n      mload(0x40)\n      returndatasize\n      not(0x1f)\n      0x1f\n      dup3\n      add\n      and\n      dup3\n      add\n      dup1\n      0x40\n      mstore\n      pop\n      dup2\n      add\n      swap1\n      tag_89\n      swap2\n      swap1\n      tag_90\n      jump\t// in\n    tag_89:\n        /* \"contracts/hw4.sol\":2226:2260  uint256(sha256(abi.encode(input))) */\n      0x00\n      shr\n        /* \"contracts/hw4.sol\":2219:2260  return uint256(sha256(abi.encode(input))) */\n      swap1\n      pop\n        /* \"contracts/hw4.sol\":2150:2267  function hash(uint256 input) public pure returns (uint256) {... */\n      swap2\n      swap1\n      pop\n      jump\t// out\n        /* \"contracts/hw4.sol\":1319:1878  function transfer(address to, uint256 amount, uint256 psword, uint256 newHashedPassword) public {... */\n    tag_41:\n        /* \"contracts/hw4.sol\":1442:1443  0 */\n      0x00\n        /* \"contracts/hw4.sol\":1433:1439  amount */\n      dup4\n        /* \"contracts/hw4.sol\":1433:1443  amount > 0 */\n      gt\n        /* \"contracts/hw4.sol\":1425:1444  require(amount > 0) */\n      tag_92\n      jumpi\n      revert(0x00, 0x00)\n    tag_92:\n        /* \"contracts/hw4.sol\":1480:1486  amount */\n      dup3\n        /* \"contracts/hw4.sol\":1458:1465  balance */\n      0x00\n        /* \"contracts/hw4.sol\":1458:1477  balance[msg.sender] */\n      0x00\n        /* \"contracts/hw4.sol\":1466:1476  msg.sender */\n      caller\n        /* \"contracts/hw4.sol\":1458:1477  balance[msg.sender] */\n      0xffffffffffffffffffffffffffffffffffffffff\n      and\n      0xffffffffffffffffffffffffffffffffffffffff\n      and\n      dup2\n      mstore\n      0x20\n      add\n      swap1\n      dup2\n      mstore\n      0x20\n      add\n      0x00\n      keccak256\n      sload\n        /* \"contracts/hw4.sol\":1458:1486  balance[msg.sender] < amount */\n      lt\n        /* \"contracts/hw4.sol\":1458:1538  balance[msg.sender] < amount ||... */\n      dup1\n      tag_93\n      jumpi\n      pop\n        /* \"contracts/hw4.sol\":1518:1526  password */\n      0x01\n        /* \"contracts/hw4.sol\":1518:1538  password[msg.sender] */\n      0x00\n        /* \"contracts/hw4.sol\":1527:1537  msg.sender */\n      caller\n        /* \"contracts/hw4.sol\":1518:1538  password[msg.sender] */\n      0xffffffffffffffffffffffffffffffffffffffff\n      and\n      0xffffffffffffffffffffffffffffffffffffffff\n      and\n      dup2\n      mstore\n      0x20\n      add\n      swap1\n      dup2\n      mstore\n      0x20\n      add\n      0x00\n      keccak256\n      sload\n        /* \"contracts/hw4.sol\":1502:1514  hash(psword) */\n      tag_94\n        /* \"contracts/hw4.sol\":1507:1513  psword */\n      dup4\n        /* \"contracts/hw4.sol\":1502:1506  hash */\n      tag_34\n        /* \"contracts/hw4.sol\":1502:1514  hash(psword) */\n      jump\t// in\n    tag_94:\n        /* \"contracts/hw4.sol\":1502:1538  hash(psword) != password[msg.sender] */\n      eq\n      iszero\n        /* \"contracts/hw4.sol\":1458:1538  balance[msg.sender] < amount ||... */\n    tag_93:\n        /* \"contracts/hw4.sol\":1549:1556  return; */\n      tag_91\n        /* \"contracts/hw4.sol\":1454:1556  if (balance[msg.sender] < amount ||... */\n      jumpi\n        /* \"contracts/hw4.sol\":1652:1653  0 */\n      0x00\n        /* \"contracts/hw4.sol\":1637:1644  balance */\n      0x00\n        /* \"contracts/hw4.sol\":1637:1648  balance[to] */\n      0x00\n        /* \"contracts/hw4.sol\":1645:1647  to */\n      dup7\n        /* \"contracts/hw4.sol\":1637:1648  balance[to] */\n      0xffffffffffffffffffffffffffffffffffffffff\n      and\n      0xffffffffffffffffffffffffffffffffffffffff\n      and\n      dup2\n      mstore\n      0x20\n      add\n      swap1\n      dup2\n      mstore\n      0x20\n      add\n      0x00\n      keccak256\n      sload\n        /* \"contracts/hw4.sol\":1637:1653  balance[to] == 0 */\n      sub\n        /* \"contracts/hw4.sol\":1633:1672  if (balance[to] == 0) accounts.push(to) */\n      tag_96\n      jumpi\n        /* \"contracts/hw4.sol\":1655:1663  accounts */\n      0x02\n        /* \"contracts/hw4.sol\":1669:1671  to */\n      dup5\n        /* \"contracts/hw4.sol\":1655:1672  accounts.push(to) */\n      swap1\n      dup1\n      0x01\n      dup2\n      sload\n      add\n      dup1\n      dup3\n      sstore\n      dup1\n      swap2\n      pop\n      pop\n      0x01\n      swap1\n      sub\n      swap1\n      0x00\n      mstore\n      keccak256(0x00, 0x20)\n      add\n      0x00\n      swap1\n      swap2\n      swap1\n      swap2\n      swap1\n      swap2\n      0x0100\n      exp\n      dup2\n      sload\n      dup2\n      0xffffffffffffffffffffffffffffffffffffffff\n      mul\n      not\n      and\n      swap1\n      dup4\n      0xffffffffffffffffffffffffffffffffffffffff\n      and\n      mul\n      or\n      swap1\n      sstore\n      pop\n        /* \"contracts/hw4.sol\":1633:1672  if (balance[to] == 0) accounts.push(to) */\n    tag_96:\n        /* \"contracts/hw4.sol\":1698:1704  amount */\n      dup3\n        /* \"contracts/hw4.sol\":1683:1690  balance */\n      0x00\n        /* \"contracts/hw4.sol\":1683:1694  balance[to] */\n      0x00\n        /* \"contracts/hw4.sol\":1691:1693  to */\n      dup7\n        /* \"contracts/hw4.sol\":1683:1694  balance[to] */\n      0xffffffffffffffffffffffffffffffffffffffff\n      and\n      0xffffffffffffffffffffffffffffffffffffffff\n      and\n      dup2\n      mstore\n      0x20\n      add\n      swap1\n      dup2\n      mstore\n      0x20\n      add\n      0x00\n      keccak256\n      0x00\n        /* \"contracts/hw4.sol\":1683:1704  balance[to] += amount */\n      dup3\n      dup3\n      sload\n      tag_98\n      swap2\n      swap1\n      tag_61\n      jump\t// in\n    tag_98:\n      swap3\n      pop\n      pop\n      dup2\n      swap1\n      sstore\n      pop\n        /* \"contracts/hw4.sol\":1737:1743  amount */\n      dup3\n        /* \"contracts/hw4.sol\":1714:1721  balance */\n      0x00\n        /* \"contracts/hw4.sol\":1714:1733  balance[msg.sender] */\n      0x00\n        /* \"contracts/hw4.sol\":1722:1732  msg.sender */\n      caller\n        /* \"contracts/hw4.sol\":1714:1733  balance[msg.sender] */\n      0xffffffffffffffffffffffffffffffffffffffff\n      and\n      0xffffffffffffffffffffffffffffffffffffffff\n      and\n      dup2\n      mstore\n      0x20\n      add\n      swap1\n      dup2\n      mstore\n      0x20\n      add\n      0x00\n      keccak256\n      0x00\n        /* \"contracts/hw4.sol\":1714:1743  balance[msg.sender] -= amount */\n      dup3\n      dup3\n      sload\n      tag_99\n      swap2\n      swap1\n      tag_100\n      jump\t// in\n    tag_99:\n      swap3\n      pop\n      pop\n      dup2\n      swap1\n      sstore\n      pop\n        /* \"contracts/hw4.sol\":1789:1790  0 */\n      0x00\n        /* \"contracts/hw4.sol\":1766:1773  balance */\n      0x00\n        /* \"contracts/hw4.sol\":1766:1785  balance[msg.sender] */\n      0x00\n        /* \"contracts/hw4.sol\":1774:1784  msg.sender */\n      caller\n        /* \"contracts/hw4.sol\":1766:1785  balance[msg.sender] */\n      0xffffffffffffffffffffffffffffffffffffffff\n      and\n      0xffffffffffffffffffffffffffffffffffffffff\n      and\n      dup2\n      mstore\n      0x20\n      add\n      swap1\n      dup2\n      mstore\n      0x20\n      add\n      0x00\n      keccak256\n      sload\n        /* \"contracts/hw4.sol\":1766:1790  balance[msg.sender] == 0 */\n      sub\n        /* \"contracts/hw4.sol\":1762:1871  if (balance[msg.sender] == 0) clearAccount(msg.sender);... */\n      tag_101\n      jumpi\n        /* \"contracts/hw4.sol\":1792:1816  clearAccount(msg.sender) */\n      tag_102\n        /* \"contracts/hw4.sol\":1805:1815  msg.sender */\n      caller\n        /* \"contracts/hw4.sol\":1792:1804  clearAccount */\n      tag_55\n        /* \"contracts/hw4.sol\":1792:1816  clearAccount(msg.sender) */\n      jump\t// in\n    tag_102:\n        /* \"contracts/hw4.sol\":1762:1871  if (balance[msg.sender] == 0) clearAccount(msg.sender);... */\n      jump(tag_103)\n    tag_101:\n        /* \"contracts/hw4.sol\":1854:1871  newHashedPassword */\n      dup1\n        /* \"contracts/hw4.sol\":1831:1839  password */\n      0x01\n        /* \"contracts/hw4.sol\":1831:1851  password[msg.sender] */\n      0x00\n        /* \"contracts/hw4.sol\":1840:1850  msg.sender */\n      caller\n        /* \"contracts/hw4.sol\":1831:1851  password[msg.sender] */\n      0xffffffffffffffffffffffffffffffffffffffff\n      and\n      0xffffffffffffffffffffffffffffffffffffffff\n      and\n      dup2\n      mstore\n      0x20\n      add\n      swap1\n      dup2\n      mstore\n      0x20\n      add\n      0x00\n      keccak256\n        /* \"contracts/hw4.sol\":1831:1871  password[msg.sender] = newHashedPassword */\n      dup2\n      swap1\n      sstore\n      pop\n        /* \"contracts/hw4.sol\":1762:1871  if (balance[msg.sender] == 0) clearAccount(msg.sender);... */\n    tag_103:\n        /* \"contracts/hw4.sol\":1319:1878  function transfer(address to, uint256 amount, uint256 psword, uint256 newHashedPassword) public {... */\n    tag_91:\n      pop\n      pop\n      pop\n      pop\n      jump\t// out\n        /* \"contracts/hw4.sol\":665:766  function getBalance(address addr) public view returns (uint256) {... */\n    tag_45:\n        /* \"contracts/hw4.sol\":720:727  uint256 */\n      0x00\n        /* \"contracts/hw4.sol\":746:753  balance */\n      0x00\n        /* \"contracts/hw4.sol\":746:759  balance[addr] */\n      0x00\n        /* \"contracts/hw4.sol\":754:758  addr */\n      dup4\n        /* \"contracts/hw4.sol\":746:759  balance[addr] */\n      0xffffffffffffffffffffffffffffffffffffffff\n      and\n      0xffffffffffffffffffffffffffffffffffffffff\n      and\n      dup2\n      mstore\n      0x20\n      add\n      swap1\n      dup2\n      mstore\n      0x20\n      add\n      0x00\n      keccak256\n      sload\n        /* \"contracts/hw4.sol\":739:759  return balance[addr] */\n      swap1\n      pop\n        /* \"contracts/hw4.sol\":665:766  function getBalance(address addr) public view returns (uint256) {... */\n      swap2\n      swap1\n      pop\n      jump\t// out\n        /* \"contracts/hw4.sol\":2273:2644  function clearAccount(address account) private {... */\n    tag_55:\n        /* \"contracts/hw4.sol\":2408:2421  uint256 index */\n      0x00\n        /* \"contracts/hw4.sol\":2424:2448  getAccountIndex(account) */\n      tag_106\n        /* \"contracts/hw4.sol\":2440:2447  account */\n      dup3\n        /* \"contracts/hw4.sol\":2424:2439  getAccountIndex */\n      tag_107\n        /* \"contracts/hw4.sol\":2424:2448  getAccountIndex(account) */\n      jump\t// in\n    tag_106:\n        /* \"contracts/hw4.sol\":2408:2448  uint256 index = getAccountIndex(account) */\n      swap1\n      pop\n        /* \"contracts/hw4.sol\":2476:2484  accounts */\n      0x02\n        /* \"contracts/hw4.sol\":2503:2504  1 */\n      0x01\n        /* \"contracts/hw4.sol\":2485:2493  accounts */\n      0x02\n        /* \"contracts/hw4.sol\":2485:2500  accounts.length */\n      dup1\n      sload\n      swap1\n      pop\n        /* \"contracts/hw4.sol\":2485:2504  accounts.length - 1 */\n      tag_108\n      swap2\n      swap1\n      tag_100\n      jump\t// in\n    tag_108:\n        /* \"contracts/hw4.sol\":2476:2505  accounts[accounts.length - 1] */\n      dup2\n      sload\n      dup2\n      lt\n      tag_109\n      jumpi\n      tag_110\n      tag_76\n      jump\t// in\n    tag_110:\n    tag_109:\n      swap1\n      0x00\n      mstore\n      keccak256(0x00, 0x20)\n      add\n      0x00\n      swap1\n      sload\n      swap1\n      0x0100\n      exp\n      swap1\n      div\n      0xffffffffffffffffffffffffffffffffffffffff\n      and\n        /* \"contracts/hw4.sol\":2458:2466  accounts */\n      0x02\n        /* \"contracts/hw4.sol\":2467:2472  index */\n      dup3\n        /* \"contracts/hw4.sol\":2458:2473  accounts[index] */\n      dup2\n      sload\n      dup2\n      lt\n      tag_112\n      jumpi\n      tag_113\n      tag_76\n      jump\t// in\n    tag_113:\n    tag_112:\n      swap1\n      0x00\n      mstore\n      keccak256(0x00, 0x20)\n      add\n      0x00\n        /* \"contracts/hw4.sol\":2458:2505  accounts[index] = accounts[accounts.length - 1] */\n      0x0100\n      exp\n      dup2\n      sload\n      dup2\n      0xffffffffffffffffffffffffffffffffffffffff\n      mul\n      not\n      and\n      swap1\n      dup4\n      0xffffffffffffffffffffffffffffffffffffffff\n      and\n      mul\n      or\n      swap1\n      sstore\n      pop\n        /* \"contracts/hw4.sol\":2515:2523  accounts */\n      0x02\n        /* \"contracts/hw4.sol\":2515:2529  accounts.pop() */\n      dup1\n      sload\n      dup1\n      tag_115\n      jumpi\n      tag_116\n      tag_117\n      jump\t// in\n    tag_116:\n    tag_115:\n      0x01\n      swap1\n      sub\n      dup2\n      dup2\n      swap1\n      0x00\n      mstore\n      keccak256(0x00, 0x20)\n      add\n      exp(0x0100, 0x00)\n      dup2\n      sload\n      swap1\n      0xffffffffffffffffffffffffffffffffffffffff\n      mul\n      not\n      and\n      swap1\n      sstore\n      swap1\n      sstore\n        /* \"contracts/hw4.sol\":2584:2591  balance */\n      0x00\n        /* \"contracts/hw4.sol\":2584:2600  balance[account] */\n      0x00\n        /* \"contracts/hw4.sol\":2592:2599  account */\n      dup4\n        /* \"contracts/hw4.sol\":2584:2600  balance[account] */\n      0xffffffffffffffffffffffffffffffffffffffff\n      and\n      0xffffffffffffffffffffffffffffffffffffffff\n      and\n      dup2\n      mstore\n      0x20\n      add\n      swap1\n      dup2\n      mstore\n      0x20\n      add\n      0x00\n      keccak256\n        /* \"contracts/hw4.sol\":2576:2601  delete (balance[account]) */\n      0x00\n      swap1\n      sstore\n        /* \"contracts/hw4.sol\":2619:2627  password */\n      0x01\n        /* \"contracts/hw4.sol\":2619:2636  password[account] */\n      0x00\n        /* \"contracts/hw4.sol\":2628:2635  account */\n      dup4\n        /* \"contracts/hw4.sol\":2619:2636  password[account] */\n      0xffffffffffffffffffffffffffffffffffffffff\n      and\n      0xffffffffffffffffffffffffffffffffffffffff\n      and\n      dup2\n      mstore\n      0x20\n      add\n      swap1\n      dup2\n      mstore\n      0x20\n      add\n      0x00\n      keccak256\n        /* \"contracts/hw4.sol\":2611:2637  delete (password[account]) */\n      0x00\n      swap1\n      sstore\n        /* \"contracts/hw4.sol\":2320:2644  {... */\n      pop\n        /* \"contracts/hw4.sol\":2273:2644  function clearAccount(address account) private {... */\n      pop\n      jump\t// out\n        /* \"contracts/hw4.sol\":1884:2144  function getAccountIndex(address addr) private view returns (uint) {... */\n    tag_107:\n        /* \"contracts/hw4.sol\":1945:1949  uint */\n      0x00\n        /* \"contracts/hw4.sol\":1966:1972  uint i */\n      0x00\n        /* \"contracts/hw4.sol\":1975:1976  0 */\n      0x00\n        /* \"contracts/hw4.sol\":1966:1976  uint i = 0 */\n      swap1\n      pop\n        /* \"contracts/hw4.sol\":1961:2064  for (uint i = 0; i < accounts.length; i++) {... */\n    tag_120:\n        /* \"contracts/hw4.sol\":1982:1990  accounts */\n      0x02\n        /* \"contracts/hw4.sol\":1982:1997  accounts.length */\n      dup1\n      sload\n      swap1\n      pop\n        /* \"contracts/hw4.sol\":1978:1979  i */\n      dup2\n        /* \"contracts/hw4.sol\":1978:1997  i < accounts.length */\n      lt\n        /* \"contracts/hw4.sol\":1961:2064  for (uint i = 0; i < accounts.length; i++) {... */\n      iszero\n      tag_121\n      jumpi\n        /* \"contracts/hw4.sol\":2038:2042  addr */\n      dup3\n        /* \"contracts/hw4.sol\":2023:2042  accounts[i] == addr */\n      0xffffffffffffffffffffffffffffffffffffffff\n      and\n        /* \"contracts/hw4.sol\":2023:2031  accounts */\n      0x02\n        /* \"contracts/hw4.sol\":2032:2033  i */\n      dup3\n        /* \"contracts/hw4.sol\":2023:2034  accounts[i] */\n      dup2\n      sload\n      dup2\n      lt\n      tag_123\n      jumpi\n      tag_124\n      tag_76\n      jump\t// in\n    tag_124:\n    tag_123:\n      swap1\n      0x00\n      mstore\n      keccak256(0x00, 0x20)\n      add\n      0x00\n      swap1\n      sload\n      swap1\n      0x0100\n      exp\n      swap1\n      div\n      0xffffffffffffffffffffffffffffffffffffffff\n      and\n        /* \"contracts/hw4.sol\":2023:2042  accounts[i] == addr */\n      0xffffffffffffffffffffffffffffffffffffffff\n      and\n      sub\n        /* \"contracts/hw4.sol\":2018:2053  if ((accounts[i] == addr)) return i */\n      tag_126\n      jumpi\n        /* \"contracts/hw4.sol\":2052:2053  i */\n      dup1\n        /* \"contracts/hw4.sol\":2045:2053  return i */\n      swap2\n      pop\n      pop\n      jump(tag_119)\n        /* \"contracts/hw4.sol\":2018:2053  if ((accounts[i] == addr)) return i */\n    tag_126:\n        /* \"contracts/hw4.sol\":1999:2002  i++ */\n      dup1\n      dup1\n      0x01\n      add\n      swap2\n      pop\n      pop\n        /* \"contracts/hw4.sol\":1961:2064  for (uint i = 0; i < accounts.length; i++) {... */\n      jump(tag_120)\n    tag_121:\n      pop\n        /* \"contracts/hw4.sol\":2080:2088  accounts */\n      0x02\n        /* \"contracts/hw4.sol\":2080:2095  accounts.length */\n      dup1\n      sload\n      swap1\n      pop\n        /* \"contracts/hw4.sol\":2073:2095  return accounts.length */\n      swap1\n      pop\n        /* \"contracts/hw4.sol\":1884:2144  function getAccountIndex(address addr) private view returns (uint) {... */\n    tag_119:\n      swap2\n      swap1\n      pop\n      jump\t// out\n    tag_70:\n      mload(0x40)\n      dup1\n      0x40\n      add\n      0x40\n      mstore\n      dup1\n      and(0xffffffffffffffffffffffffffffffffffffffff, 0x00)\n      dup2\n      mstore\n      0x20\n      add\n      0x00\n      dup2\n      mstore\n      pop\n      swap1\n      jump\t// out\n        /* \"#utility.yul\":88:205   */\n    tag_128:\n        /* \"#utility.yul\":197:198   */\n      0x00\n        /* \"#utility.yul\":194:195   */\n      0x00\n        /* \"#utility.yul\":187:199   */\n      revert\n        /* \"#utility.yul\":334:460   */\n    tag_130:\n        /* \"#utility.yul\":371:378   */\n      0x00\n        /* \"#utility.yul\":411:453   */\n      0xffffffffffffffffffffffffffffffffffffffff\n        /* \"#utility.yul\":404:409   */\n      dup3\n        /* \"#utility.yul\":400:454   */\n      and\n        /* \"#utility.yul\":389:454   */\n      swap1\n      pop\n        /* \"#utility.yul\":334:460   */\n      swap2\n      swap1\n      pop\n      jump\t// out\n        /* \"#utility.yul\":466:562   */\n    tag_131:\n        /* \"#utility.yul\":503:510   */\n      0x00\n        /* \"#utility.yul\":532:556   */\n      tag_163\n        /* \"#utility.yul\":550:555   */\n      dup3\n        /* \"#utility.yul\":532:556   */\n      tag_130\n      jump\t// in\n    tag_163:\n        /* \"#utility.yul\":521:556   */\n      swap1\n      pop\n        /* \"#utility.yul\":466:562   */\n      swap2\n      swap1\n      pop\n      jump\t// out\n        /* \"#utility.yul\":568:690   */\n    tag_132:\n        /* \"#utility.yul\":641:665   */\n      tag_165\n        /* \"#utility.yul\":659:664   */\n      dup2\n        /* \"#utility.yul\":641:665   */\n      tag_131\n      jump\t// in\n    tag_165:\n        /* \"#utility.yul\":634:639   */\n      dup2\n        /* \"#utility.yul\":631:666   */\n      eq\n        /* \"#utility.yul\":621:684   */\n      tag_166\n      jumpi\n        /* \"#utility.yul\":680:681   */\n      0x00\n        /* \"#utility.yul\":677:678   */\n      0x00\n        /* \"#utility.yul\":670:682   */\n      revert\n        /* \"#utility.yul\":621:684   */\n    tag_166:\n        /* \"#utility.yul\":568:690   */\n      pop\n      jump\t// out\n        /* \"#utility.yul\":696:835   */\n    tag_133:\n        /* \"#utility.yul\":742:747   */\n      0x00\n        /* \"#utility.yul\":780:786   */\n      dup2\n        /* \"#utility.yul\":767:787   */\n      calldataload\n        /* \"#utility.yul\":758:787   */\n      swap1\n      pop\n        /* \"#utility.yul\":796:829   */\n      tag_168\n        /* \"#utility.yul\":823:828   */\n      dup2\n        /* \"#utility.yul\":796:829   */\n      tag_132\n      jump\t// in\n    tag_168:\n        /* \"#utility.yul\":696:835   */\n      swap3\n      swap2\n      pop\n      pop\n      jump\t// out\n        /* \"#utility.yul\":841:1170   */\n    tag_13:\n        /* \"#utility.yul\":900:906   */\n      0x00\n        /* \"#utility.yul\":949:951   */\n      0x20\n        /* \"#utility.yul\":937:946   */\n      dup3\n        /* \"#utility.yul\":928:935   */\n      dup5\n        /* \"#utility.yul\":924:947   */\n      sub\n        /* \"#utility.yul\":920:952   */\n      slt\n        /* \"#utility.yul\":917:1036   */\n      iszero\n      tag_170\n      jumpi\n        /* \"#utility.yul\":955:1034   */\n      tag_171\n      tag_128\n      jump\t// in\n    tag_171:\n        /* \"#utility.yul\":917:1036   */\n    tag_170:\n        /* \"#utility.yul\":1075:1076   */\n      0x00\n        /* \"#utility.yul\":1100:1153   */\n      tag_172\n        /* \"#utility.yul\":1145:1152   */\n      dup5\n        /* \"#utility.yul\":1136:1142   */\n      dup3\n        /* \"#utility.yul\":1125:1134   */\n      dup6\n        /* \"#utility.yul\":1121:1143   */\n      add\n        /* \"#utility.yul\":1100:1153   */\n      tag_133\n      jump\t// in\n    tag_172:\n        /* \"#utility.yul\":1090:1153   */\n      swap2\n      pop\n        /* \"#utility.yul\":1046:1163   */\n      pop\n        /* \"#utility.yul\":841:1170   */\n      swap3\n      swap2\n      pop\n      pop\n      jump\t// out\n        /* \"#utility.yul\":1176:1266   */\n    tag_134:\n        /* \"#utility.yul\":1210:1217   */\n      0x00\n        /* \"#utility.yul\":1253:1258   */\n      dup2\n        /* \"#utility.yul\":1246:1259   */\n      iszero\n        /* \"#utility.yul\":1239:1260   */\n      iszero\n        /* \"#utility.yul\":1228:1260   */\n      swap1\n      pop\n        /* \"#utility.yul\":1176:1266   */\n      swap2\n      swap1\n      pop\n      jump\t// out\n        /* \"#utility.yul\":1272:1381   */\n    tag_135:\n        /* \"#utility.yul\":1353:1374   */\n      tag_175\n        /* \"#utility.yul\":1368:1373   */\n      dup2\n        /* \"#utility.yul\":1353:1374   */\n      tag_134\n      jump\t// in\n    tag_175:\n        /* \"#utility.yul\":1348:1351   */\n      dup3\n        /* \"#utility.yul\":1341:1375   */\n      mstore\n        /* \"#utility.yul\":1272:1381   */\n      pop\n      pop\n      jump\t// out\n        /* \"#utility.yul\":1387:1597   */\n    tag_16:\n        /* \"#utility.yul\":1474:1478   */\n      0x00\n        /* \"#utility.yul\":1512:1514   */\n      0x20\n        /* \"#utility.yul\":1501:1510   */\n      dup3\n        /* \"#utility.yul\":1497:1515   */\n      add\n        /* \"#utility.yul\":1489:1515   */\n      swap1\n      pop\n        /* \"#utility.yul\":1525:1590   */\n      tag_177\n        /* \"#utility.yul\":1587:1588   */\n      0x00\n        /* \"#utility.yul\":1576:1585   */\n      dup4\n        /* \"#utility.yul\":1572:1589   */\n      add\n        /* \"#utility.yul\":1563:1569   */\n      dup5\n        /* \"#utility.yul\":1525:1590   */\n      tag_135\n      jump\t// in\n    tag_177:\n        /* \"#utility.yul\":1387:1597   */\n      swap3\n      swap2\n      pop\n      pop\n      jump\t// out\n        /* \"#utility.yul\":1603:1680   */\n    tag_136:\n        /* \"#utility.yul\":1640:1647   */\n      0x00\n        /* \"#utility.yul\":1669:1674   */\n      dup2\n        /* \"#utility.yul\":1658:1674   */\n      swap1\n      pop\n        /* \"#utility.yul\":1603:1680   */\n      swap2\n      swap1\n      pop\n      jump\t// out\n        /* \"#utility.yul\":1686:1808   */\n    tag_137:\n        /* \"#utility.yul\":1759:1783   */\n      tag_180\n        /* \"#utility.yul\":1777:1782   */\n      dup2\n        /* \"#utility.yul\":1759:1783   */\n      tag_136\n      jump\t// in\n    tag_180:\n        /* \"#utility.yul\":1752:1757   */\n      dup2\n        /* \"#utility.yul\":1749:1784   */\n      eq\n        /* \"#utility.yul\":1739:1802   */\n      tag_181\n      jumpi\n        /* \"#utility.yul\":1798:1799   */\n      0x00\n        /* \"#utility.yul\":1795:1796   */\n      0x00\n        /* \"#utility.yul\":1788:1800   */\n      revert\n        /* \"#utility.yul\":1739:1802   */\n    tag_181:\n        /* \"#utility.yul\":1686:1808   */\n      pop\n      jump\t// out\n        /* \"#utility.yul\":1814:1953   */\n    tag_138:\n        /* \"#utility.yul\":1860:1865   */\n      0x00\n        /* \"#utility.yul\":1898:1904   */\n      dup2\n        /* \"#utility.yul\":1885:1905   */\n      calldataload\n        /* \"#utility.yul\":1876:1905   */\n      swap1\n      pop\n        /* \"#utility.yul\":1914:1947   */\n      tag_183\n        /* \"#utility.yul\":1941:1946   */\n      dup2\n        /* \"#utility.yul\":1914:1947   */\n      tag_137\n      jump\t// in\n    tag_183:\n        /* \"#utility.yul\":1814:1953   */\n      swap3\n      swap2\n      pop\n      pop\n      jump\t// out\n        /* \"#utility.yul\":1959:2288   */\n    tag_20:\n        /* \"#utility.yul\":2018:2024   */\n      0x00\n        /* \"#utility.yul\":2067:2069   */\n      0x20\n        /* \"#utility.yul\":2055:2064   */\n      dup3\n        /* \"#utility.yul\":2046:2053   */\n      dup5\n        /* \"#utility.yul\":2042:2065   */\n      sub\n        /* \"#utility.yul\":2038:2070   */\n      slt\n        /* \"#utility.yul\":2035:2154   */\n      iszero\n      tag_185\n      jumpi\n        /* \"#utility.yul\":2073:2152   */\n      tag_186\n      tag_128\n      jump\t// in\n    tag_186:\n        /* \"#utility.yul\":2035:2154   */\n    tag_185:\n        /* \"#utility.yul\":2193:2194   */\n      0x00\n        /* \"#utility.yul\":2218:2271   */\n      tag_187\n        /* \"#utility.yul\":2263:2270   */\n      dup5\n        /* \"#utility.yul\":2254:2260   */\n      dup3\n        /* \"#utility.yul\":2243:2252   */\n      dup6\n        /* \"#utility.yul\":2239:2261   */\n      add\n        /* \"#utility.yul\":2218:2271   */\n      tag_138\n      jump\t// in\n    tag_187:\n        /* \"#utility.yul\":2208:2271   */\n      swap2\n      pop\n        /* \"#utility.yul\":2164:2281   */\n      pop\n        /* \"#utility.yul\":1959:2288   */\n      swap3\n      swap2\n      pop\n      pop\n      jump\t// out\n        /* \"#utility.yul\":2294:2768   */\n    tag_24:\n        /* \"#utility.yul\":2362:2368   */\n      0x00\n        /* \"#utility.yul\":2370:2376   */\n      0x00\n        /* \"#utility.yul\":2419:2421   */\n      0x40\n        /* \"#utility.yul\":2407:2416   */\n      dup4\n        /* \"#utility.yul\":2398:2405   */\n      dup6\n        /* \"#utility.yul\":2394:2417   */\n      sub\n        /* \"#utility.yul\":2390:2422   */\n      slt\n        /* \"#utility.yul\":2387:2506   */\n      iszero\n      tag_189\n      jumpi\n        /* \"#utility.yul\":2425:2504   */\n      tag_190\n      tag_128\n      jump\t// in\n    tag_190:\n        /* \"#utility.yul\":2387:2506   */\n    tag_189:\n        /* \"#utility.yul\":2545:2546   */\n      0x00\n        /* \"#utility.yul\":2570:2623   */\n      tag_191\n        /* \"#utility.yul\":2615:2622   */\n      dup6\n        /* \"#utility.yul\":2606:2612   */\n      dup3\n        /* \"#utility.yul\":2595:2604   */\n      dup7\n        /* \"#utility.yul\":2591:2613   */\n      add\n        /* \"#utility.yul\":2570:2623   */\n      tag_133\n      jump\t// in\n    tag_191:\n        /* \"#utility.yul\":2560:2623   */\n      swap3\n      pop\n        /* \"#utility.yul\":2516:2633   */\n      pop\n        /* \"#utility.yul\":2672:2674   */\n      0x20\n        /* \"#utility.yul\":2698:2751   */\n      tag_192\n        /* \"#utility.yul\":2743:2750   */\n      dup6\n        /* \"#utility.yul\":2734:2740   */\n      dup3\n        /* \"#utility.yul\":2723:2732   */\n      dup7\n        /* \"#utility.yul\":2719:2741   */\n      add\n        /* \"#utility.yul\":2698:2751   */\n      tag_138\n      jump\t// in\n    tag_192:\n        /* \"#utility.yul\":2688:2751   */\n      swap2\n      pop\n        /* \"#utility.yul\":2643:2761   */\n      pop\n        /* \"#utility.yul\":2294:2768   */\n      swap3\n      pop\n      swap3\n      swap1\n      pop\n      jump\t// out\n        /* \"#utility.yul\":2774:2910   */\n    tag_139:\n        /* \"#utility.yul\":2863:2869   */\n      0x00\n        /* \"#utility.yul\":2897:2902   */\n      dup2\n        /* \"#utility.yul\":2891:2903   */\n      mload\n        /* \"#utility.yul\":2881:2903   */\n      swap1\n      pop\n        /* \"#utility.yul\":2774:2910   */\n      swap2\n      swap1\n      pop\n      jump\t// out\n        /* \"#utility.yul\":2916:3122   */\n    tag_140:\n        /* \"#utility.yul\":3037:3048   */\n      0x00\n        /* \"#utility.yul\":3071:3077   */\n      dup3\n        /* \"#utility.yul\":3066:3069   */\n      dup3\n        /* \"#utility.yul\":3059:3078   */\n      mstore\n        /* \"#utility.yul\":3111:3115   */\n      0x20\n        /* \"#utility.yul\":3106:3109   */\n      dup3\n        /* \"#utility.yul\":3102:3116   */\n      add\n        /* \"#utility.yul\":3087:3116   */\n      swap1\n      pop\n        /* \"#utility.yul\":2916:3122   */\n      swap3\n      swap2\n      pop\n      pop\n      jump\t// out\n        /* \"#utility.yul\":3128:3282   */\n    tag_141:\n        /* \"#utility.yul\":3217:3221   */\n      0x00\n        /* \"#utility.yul\":3240:3243   */\n      dup2\n        /* \"#utility.yul\":3232:3243   */\n      swap1\n      pop\n        /* \"#utility.yul\":3270:3274   */\n      0x20\n        /* \"#utility.yul\":3265:3268   */\n      dup3\n        /* \"#utility.yul\":3261:3275   */\n      add\n        /* \"#utility.yul\":3253:3275   */\n      swap1\n      pop\n        /* \"#utility.yul\":3128:3282   */\n      swap2\n      swap1\n      pop\n      jump\t// out\n        /* \"#utility.yul\":3288:3396   */\n    tag_142:\n        /* \"#utility.yul\":3365:3389   */\n      tag_197\n        /* \"#utility.yul\":3383:3388   */\n      dup2\n        /* \"#utility.yul\":3365:3389   */\n      tag_131\n      jump\t// in\n    tag_197:\n        /* \"#utility.yul\":3360:3363   */\n      dup3\n        /* \"#utility.yul\":3353:3390   */\n      mstore\n        /* \"#utility.yul\":3288:3396   */\n      pop\n      pop\n      jump\t// out\n        /* \"#utility.yul\":3402:3510   */\n    tag_143:\n        /* \"#utility.yul\":3479:3503   */\n      tag_199\n        /* \"#utility.yul\":3497:3502   */\n      dup2\n        /* \"#utility.yul\":3479:3503   */\n      tag_136\n      jump\t// in\n    tag_199:\n        /* \"#utility.yul\":3474:3477   */\n      dup3\n        /* \"#utility.yul\":3467:3504   */\n      mstore\n        /* \"#utility.yul\":3402:3510   */\n      pop\n      pop\n      jump\t// out\n        /* \"#utility.yul\":3562:4058   */\n    tag_144:\n        /* \"#utility.yul\":3693:3697   */\n      0x40\n        /* \"#utility.yul\":3688:3691   */\n      dup3\n        /* \"#utility.yul\":3684:3698   */\n      add\n        /* \"#utility.yul\":3783:3787   */\n      0x00\n        /* \"#utility.yul\":3776:3781   */\n      dup3\n        /* \"#utility.yul\":3772:3788   */\n      add\n        /* \"#utility.yul\":3766:3789   */\n      mload\n        /* \"#utility.yul\":3802:3865   */\n      tag_201\n        /* \"#utility.yul\":3859:3863   */\n      0x00\n        /* \"#utility.yul\":3854:3857   */\n      dup6\n        /* \"#utility.yul\":3850:3864   */\n      add\n        /* \"#utility.yul\":3836:3848   */\n      dup3\n        /* \"#utility.yul\":3802:3865   */\n      tag_142\n      jump\t// in\n    tag_201:\n        /* \"#utility.yul\":3708:3875   */\n      pop\n        /* \"#utility.yul\":3959:3963   */\n      0x20\n        /* \"#utility.yul\":3952:3957   */\n      dup3\n        /* \"#utility.yul\":3948:3964   */\n      add\n        /* \"#utility.yul\":3942:3965   */\n      mload\n        /* \"#utility.yul\":3978:4041   */\n      tag_202\n        /* \"#utility.yul\":4035:4039   */\n      0x20\n        /* \"#utility.yul\":4030:4033   */\n      dup6\n        /* \"#utility.yul\":4026:4040   */\n      add\n        /* \"#utility.yul\":4012:4024   */\n      dup3\n        /* \"#utility.yul\":3978:4041   */\n      tag_143\n      jump\t// in\n    tag_202:\n        /* \"#utility.yul\":3885:4051   */\n      pop\n        /* \"#utility.yul\":3662:4058   */\n      pop\n        /* \"#utility.yul\":3562:4058   */\n      pop\n      pop\n      jump\t// out\n        /* \"#utility.yul\":4064:4331   */\n    tag_145:\n        /* \"#utility.yul\":4177:4187   */\n      0x00\n        /* \"#utility.yul\":4198:4288   */\n      tag_204\n        /* \"#utility.yul\":4284:4287   */\n      dup4\n        /* \"#utility.yul\":4276:4282   */\n      dup4\n        /* \"#utility.yul\":4198:4288   */\n      tag_144\n      jump\t// in\n    tag_204:\n        /* \"#utility.yul\":4320:4324   */\n      0x40\n        /* \"#utility.yul\":4315:4318   */\n      dup4\n        /* \"#utility.yul\":4311:4325   */\n      add\n        /* \"#utility.yul\":4297:4325   */\n      swap1\n      pop\n        /* \"#utility.yul\":4064:4331   */\n      swap3\n      swap2\n      pop\n      pop\n      jump\t// out\n        /* \"#utility.yul\":4337:4472   */\n    tag_146:\n        /* \"#utility.yul\":4429:4433   */\n      0x00\n        /* \"#utility.yul\":4461:4465   */\n      0x20\n        /* \"#utility.yul\":4456:4459   */\n      dup3\n        /* \"#utility.yul\":4452:4466   */\n      add\n        /* \"#utility.yul\":4444:4466   */\n      swap1\n      pop\n        /* \"#utility.yul\":4337:4472   */\n      swap2\n      swap1\n      pop\n      jump\t// out\n        /* \"#utility.yul\":4528:5436   */\n    tag_147:\n        /* \"#utility.yul\":4691:4694   */\n      0x00\n        /* \"#utility.yul\":4720:4796   */\n      tag_207\n        /* \"#utility.yul\":4790:4795   */\n      dup3\n        /* \"#utility.yul\":4720:4796   */\n      tag_139\n      jump\t// in\n    tag_207:\n        /* \"#utility.yul\":4812:4920   */\n      tag_208\n        /* \"#utility.yul\":4913:4919   */\n      dup2\n        /* \"#utility.yul\":4908:4911   */\n      dup6\n        /* \"#utility.yul\":4812:4920   */\n      tag_140\n      jump\t// in\n    tag_208:\n        /* \"#utility.yul\":4805:4920   */\n      swap4\n      pop\n        /* \"#utility.yul\":4944:5022   */\n      tag_209\n        /* \"#utility.yul\":5016:5021   */\n      dup4\n        /* \"#utility.yul\":4944:5022   */\n      tag_141\n      jump\t// in\n    tag_209:\n        /* \"#utility.yul\":5045:5052   */\n      dup1\n        /* \"#utility.yul\":5076:5077   */\n      0x00\n        /* \"#utility.yul\":5061:5411   */\n    tag_210:\n        /* \"#utility.yul\":5086:5092   */\n      dup4\n        /* \"#utility.yul\":5083:5084   */\n      dup2\n        /* \"#utility.yul\":5080:5093   */\n      lt\n        /* \"#utility.yul\":5061:5411   */\n      iszero\n      tag_212\n      jumpi\n        /* \"#utility.yul\":5162:5168   */\n      dup2\n        /* \"#utility.yul\":5156:5169   */\n      mload\n        /* \"#utility.yul\":5189:5296   */\n      tag_213\n        /* \"#utility.yul\":5292:5295   */\n      dup9\n        /* \"#utility.yul\":5277:5290   */\n      dup3\n        /* \"#utility.yul\":5189:5296   */\n      tag_145\n      jump\t// in\n    tag_213:\n        /* \"#utility.yul\":5182:5296   */\n      swap8\n      pop\n        /* \"#utility.yul\":5319:5401   */\n      tag_214\n        /* \"#utility.yul\":5394:5400   */\n      dup4\n        /* \"#utility.yul\":5319:5401   */\n      tag_146\n      jump\t// in\n    tag_214:\n        /* \"#utility.yul\":5309:5401   */\n      swap3\n      pop\n        /* \"#utility.yul\":5121:5411   */\n      pop\n        /* \"#utility.yul\":5108:5109   */\n      0x01\n        /* \"#utility.yul\":5105:5106   */\n      dup2\n        /* \"#utility.yul\":5101:5110   */\n      add\n        /* \"#utility.yul\":5096:5110   */\n      swap1\n      pop\n        /* \"#utility.yul\":5061:5411   */\n      jump(tag_210)\n    tag_212:\n        /* \"#utility.yul\":5065:5079   */\n      pop\n        /* \"#utility.yul\":5427:5430   */\n      dup6\n        /* \"#utility.yul\":5420:5430   */\n      swap4\n      pop\n        /* \"#utility.yul\":4696:5436   */\n      pop\n      pop\n      pop\n        /* \"#utility.yul\":4528:5436   */\n      swap3\n      swap2\n      pop\n      pop\n      jump\t// out\n        /* \"#utility.yul\":5442:5903   */\n    tag_30:\n        /* \"#utility.yul\":5629:5633   */\n      0x00\n        /* \"#utility.yul\":5667:5669   */\n      0x20\n        /* \"#utility.yul\":5656:5665   */\n      dup3\n        /* \"#utility.yul\":5652:5670   */\n      add\n        /* \"#utility.yul\":5644:5670   */\n      swap1\n      pop\n        /* \"#utility.yul\":5716:5725   */\n      dup2\n        /* \"#utility.yul\":5710:5714   */\n      dup2\n        /* \"#utility.yul\":5706:5726   */\n      sub\n        /* \"#utility.yul\":5702:5703   */\n      0x00\n        /* \"#utility.yul\":5691:5700   */\n      dup4\n        /* \"#utility.yul\":5687:5704   */\n      add\n        /* \"#utility.yul\":5680:5727   */\n      mstore\n        /* \"#utility.yul\":5744:5896   */\n      tag_216\n        /* \"#utility.yul\":5891:5895   */\n      dup2\n        /* \"#utility.yul\":5882:5888   */\n      dup5\n        /* \"#utility.yul\":5744:5896   */\n      tag_147\n      jump\t// in\n    tag_216:\n        /* \"#utility.yul\":5736:5896   */\n      swap1\n      pop\n        /* \"#utility.yul\":5442:5903   */\n      swap3\n      swap2\n      pop\n      pop\n      jump\t// out\n        /* \"#utility.yul\":5909:6027   */\n    tag_148:\n        /* \"#utility.yul\":5996:6020   */\n      tag_218\n        /* \"#utility.yul\":6014:6019   */\n      dup2\n        /* \"#utility.yul\":5996:6020   */\n      tag_136\n      jump\t// in\n    tag_218:\n        /* \"#utility.yul\":5991:5994   */\n      dup3\n        /* \"#utility.yul\":5984:6021   */\n      mstore\n        /* \"#utility.yul\":5909:6027   */\n      pop\n      pop\n      jump\t// out\n        /* \"#utility.yul\":6033:6255   */\n    tag_36:\n        /* \"#utility.yul\":6126:6130   */\n      0x00\n        /* \"#utility.yul\":6164:6166   */\n      0x20\n        /* \"#utility.yul\":6153:6162   */\n      dup3\n        /* \"#utility.yul\":6149:6167   */\n      add\n        /* \"#utility.yul\":6141:6167   */\n      swap1\n      pop\n        /* \"#utility.yul\":6177:6248   */\n      tag_220\n        /* \"#utility.yul\":6245:6246   */\n      0x00\n        /* \"#utility.yul\":6234:6243   */\n      dup4\n        /* \"#utility.yul\":6230:6247   */\n      add\n        /* \"#utility.yul\":6221:6227   */\n      dup5\n        /* \"#utility.yul\":6177:6248   */\n      tag_148\n      jump\t// in\n    tag_220:\n        /* \"#utility.yul\":6033:6255   */\n      swap3\n      swap2\n      pop\n      pop\n      jump\t// out\n        /* \"#utility.yul\":6261:7026   */\n    tag_40:\n        /* \"#utility.yul\":6347:6353   */\n      0x00\n        /* \"#utility.yul\":6355:6361   */\n      0x00\n        /* \"#utility.yul\":6363:6369   */\n      0x00\n        /* \"#utility.yul\":6371:6377   */\n      0x00\n        /* \"#utility.yul\":6420:6423   */\n      0x80\n        /* \"#utility.yul\":6408:6417   */\n      dup6\n        /* \"#utility.yul\":6399:6406   */\n      dup8\n        /* \"#utility.yul\":6395:6418   */\n      sub\n        /* \"#utility.yul\":6391:6424   */\n      slt\n        /* \"#utility.yul\":6388:6508   */\n      iszero\n      tag_222\n      jumpi\n        /* \"#utility.yul\":6427:6506   */\n      tag_223\n      tag_128\n      jump\t// in\n    tag_223:\n        /* \"#utility.yul\":6388:6508   */\n    tag_222:\n        /* \"#utility.yul\":6547:6548   */\n      0x00\n        /* \"#utility.yul\":6572:6625   */\n      tag_224\n        /* \"#utility.yul\":6617:6624   */\n      dup8\n        /* \"#utility.yul\":6608:6614   */\n      dup3\n        /* \"#utility.yul\":6597:6606   */\n      dup9\n        /* \"#utility.yul\":6593:6615   */\n      add\n        /* \"#utility.yul\":6572:6625   */\n      tag_133\n      jump\t// in\n    tag_224:\n        /* \"#utility.yul\":6562:6625   */\n      swap5\n      pop\n        /* \"#utility.yul\":6518:6635   */\n      pop\n        /* \"#utility.yul\":6674:6676   */\n      0x20\n        /* \"#utility.yul\":6700:6753   */\n      tag_225\n        /* \"#utility.yul\":6745:6752   */\n      dup8\n        /* \"#utility.yul\":6736:6742   */\n      dup3\n        /* \"#utility.yul\":6725:6734   */\n      dup9\n        /* \"#utility.yul\":6721:6743   */\n      add\n        /* \"#utility.yul\":6700:6753   */\n      tag_138\n      jump\t// in\n    tag_225:\n        /* \"#utility.yul\":6690:6753   */\n      swap4\n      pop\n        /* \"#utility.yul\":6645:6763   */\n      pop\n        /* \"#utility.yul\":6802:6804   */\n      0x40\n        /* \"#utility.yul\":6828:6881   */\n      tag_226\n        /* \"#utility.yul\":6873:6880   */\n      dup8\n        /* \"#utility.yul\":6864:6870   */\n      dup3\n        /* \"#utility.yul\":6853:6862   */\n      dup9\n        /* \"#utility.yul\":6849:6871   */\n      add\n        /* \"#utility.yul\":6828:6881   */\n      tag_138\n      jump\t// in\n    tag_226:\n        /* \"#utility.yul\":6818:6881   */\n      swap3\n      pop\n        /* \"#utility.yul\":6773:6891   */\n      pop\n        /* \"#utility.yul\":6930:6932   */\n      0x60\n        /* \"#utility.yul\":6956:7009   */\n      tag_227\n        /* \"#utility.yul\":7001:7008   */\n      dup8\n        /* \"#utility.yul\":6992:6998   */\n      dup3\n        /* \"#utility.yul\":6981:6990   */\n      dup9\n        /* \"#utility.yul\":6977:6999   */\n      add\n        /* \"#utility.yul\":6956:7009   */\n      tag_138\n      jump\t// in\n    tag_227:\n        /* \"#utility.yul\":6946:7009   */\n      swap2\n      pop\n        /* \"#utility.yul\":6901:7019   */\n      pop\n        /* \"#utility.yul\":6261:7026   */\n      swap3\n      swap6\n      swap2\n      swap5\n      pop\n      swap3\n      pop\n      jump\t// out\n        /* \"#utility.yul\":7032:7212   */\n    tag_149:\n        /* \"#utility.yul\":7080:7157   */\n      0x4e487b7100000000000000000000000000000000000000000000000000000000\n        /* \"#utility.yul\":7077:7078   */\n      0x00\n        /* \"#utility.yul\":7070:7158   */\n      mstore\n        /* \"#utility.yul\":7177:7181   */\n      0x11\n        /* \"#utility.yul\":7174:7175   */\n      0x04\n        /* \"#utility.yul\":7167:7182   */\n      mstore\n        /* \"#utility.yul\":7201:7205   */\n      0x24\n        /* \"#utility.yul\":7198:7199   */\n      0x00\n        /* \"#utility.yul\":7191:7206   */\n      revert\n        /* \"#utility.yul\":7218:7409   */\n    tag_61:\n        /* \"#utility.yul\":7258:7261   */\n      0x00\n        /* \"#utility.yul\":7277:7297   */\n      tag_230\n        /* \"#utility.yul\":7295:7296   */\n      dup3\n        /* \"#utility.yul\":7277:7297   */\n      tag_136\n      jump\t// in\n    tag_230:\n        /* \"#utility.yul\":7272:7297   */\n      swap2\n      pop\n        /* \"#utility.yul\":7311:7331   */\n      tag_231\n        /* \"#utility.yul\":7329:7330   */\n      dup4\n        /* \"#utility.yul\":7311:7331   */\n      tag_136\n      jump\t// in\n    tag_231:\n        /* \"#utility.yul\":7306:7331   */\n      swap3\n      pop\n        /* \"#utility.yul\":7354:7355   */\n      dup3\n        /* \"#utility.yul\":7351:7352   */\n      dup3\n        /* \"#utility.yul\":7347:7356   */\n      add\n        /* \"#utility.yul\":7340:7356   */\n      swap1\n      pop\n        /* \"#utility.yul\":7375:7378   */\n      dup1\n        /* \"#utility.yul\":7372:7373   */\n      dup3\n        /* \"#utility.yul\":7369:7379   */\n      gt\n        /* \"#utility.yul\":7366:7402   */\n      iszero\n      tag_232\n      jumpi\n        /* \"#utility.yul\":7382:7400   */\n      tag_233\n      tag_149\n      jump\t// in\n    tag_233:\n        /* \"#utility.yul\":7366:7402   */\n    tag_232:\n        /* \"#utility.yul\":7218:7409   */\n      swap3\n      swap2\n      pop\n      pop\n      jump\t// out\n        /* \"#utility.yul\":7415:7595   */\n    tag_66:\n        /* \"#utility.yul\":7463:7540   */\n      0x4e487b7100000000000000000000000000000000000000000000000000000000\n        /* \"#utility.yul\":7460:7461   */\n      0x00\n        /* \"#utility.yul\":7453:7541   */\n      mstore\n        /* \"#utility.yul\":7560:7564   */\n      0x41\n        /* \"#utility.yul\":7557:7558   */\n      0x04\n        /* \"#utility.yul\":7550:7565   */\n      mstore\n        /* \"#utility.yul\":7584:7588   */\n      0x24\n        /* \"#utility.yul\":7581:7582   */\n      0x00\n        /* \"#utility.yul\":7574:7589   */\n      revert\n        /* \"#utility.yul\":7601:7781   */\n    tag_76:\n        /* \"#utility.yul\":7649:7726   */\n      0x4e487b7100000000000000000000000000000000000000000000000000000000\n        /* \"#utility.yul\":7646:7647   */\n      0x00\n        /* \"#utility.yul\":7639:7727   */\n      mstore\n        /* \"#utility.yul\":7746:7750   */\n      0x32\n        /* \"#utility.yul\":7743:7744   */\n      0x04\n        /* \"#utility.yul\":7736:7751   */\n      mstore\n        /* \"#utility.yul\":7770:7774   */\n      0x24\n        /* \"#utility.yul\":7767:7768   */\n      0x00\n        /* \"#utility.yul\":7760:7775   */\n      revert\n        /* \"#utility.yul\":7787:7885   */\n    tag_150:\n        /* \"#utility.yul\":7838:7844   */\n      0x00\n        /* \"#utility.yul\":7872:7877   */\n      dup2\n        /* \"#utility.yul\":7866:7878   */\n      mload\n        /* \"#utility.yul\":7856:7878   */\n      swap1\n      pop\n        /* \"#utility.yul\":7787:7885   */\n      swap2\n      swap1\n      pop\n      jump\t// out\n        /* \"#utility.yul\":7891:8038   */\n    tag_151:\n        /* \"#utility.yul\":7992:8003   */\n      0x00\n        /* \"#utility.yul\":8029:8032   */\n      dup2\n        /* \"#utility.yul\":8014:8032   */\n      swap1\n      pop\n        /* \"#utility.yul\":7891:8038   */\n      swap3\n      swap2\n      pop\n      pop\n      jump\t// out\n        /* \"#utility.yul\":8044:8183   */\n    tag_152:\n        /* \"#utility.yul\":8133:8139   */\n      dup3\n        /* \"#utility.yul\":8128:8131   */\n      dup2\n        /* \"#utility.yul\":8123:8126   */\n      dup4\n        /* \"#utility.yul\":8117:8140   */\n      mcopy\n        /* \"#utility.yul\":8174:8175   */\n      0x00\n        /* \"#utility.yul\":8165:8171   */\n      dup4\n        /* \"#utility.yul\":8160:8163   */\n      dup4\n        /* \"#utility.yul\":8156:8172   */\n      add\n        /* \"#utility.yul\":8149:8176   */\n      mstore\n        /* \"#utility.yul\":8044:8183   */\n      pop\n      pop\n      pop\n      jump\t// out\n        /* \"#utility.yul\":8189:8575   */\n    tag_153:\n        /* \"#utility.yul\":8293:8296   */\n      0x00\n        /* \"#utility.yul\":8321:8359   */\n      tag_240\n        /* \"#utility.yul\":8353:8358   */\n      dup3\n        /* \"#utility.yul\":8321:8359   */\n      tag_150\n      jump\t// in\n    tag_240:\n        /* \"#utility.yul\":8375:8463   */\n      tag_241\n        /* \"#utility.yul\":8456:8462   */\n      dup2\n        /* \"#utility.yul\":8451:8454   */\n      dup6\n        /* \"#utility.yul\":8375:8463   */\n      tag_151\n      jump\t// in\n    tag_241:\n        /* \"#utility.yul\":8368:8463   */\n      swap4\n      pop\n        /* \"#utility.yul\":8472:8537   */\n      tag_242\n        /* \"#utility.yul\":8530:8536   */\n      dup2\n        /* \"#utility.yul\":8525:8528   */\n      dup6\n        /* \"#utility.yul\":8518:8522   */\n      0x20\n        /* \"#utility.yul\":8511:8516   */\n      dup7\n        /* \"#utility.yul\":8507:8523   */\n      add\n        /* \"#utility.yul\":8472:8537   */\n      tag_152\n      jump\t// in\n    tag_242:\n        /* \"#utility.yul\":8562:8568   */\n      dup1\n        /* \"#utility.yul\":8557:8560   */\n      dup5\n        /* \"#utility.yul\":8553:8569   */\n      add\n        /* \"#utility.yul\":8546:8569   */\n      swap2\n      pop\n        /* \"#utility.yul\":8297:8575   */\n      pop\n        /* \"#utility.yul\":8189:8575   */\n      swap3\n      swap2\n      pop\n      pop\n      jump\t// out\n        /* \"#utility.yul\":8581:8852   */\n    tag_86:\n        /* \"#utility.yul\":8711:8714   */\n      0x00\n        /* \"#utility.yul\":8733:8826   */\n      tag_244\n        /* \"#utility.yul\":8822:8825   */\n      dup3\n        /* \"#utility.yul\":8813:8819   */\n      dup5\n        /* \"#utility.yul\":8733:8826   */\n      tag_153\n      jump\t// in\n    tag_244:\n        /* \"#utility.yul\":8726:8826   */\n      swap2\n      pop\n        /* \"#utility.yul\":8843:8846   */\n      dup2\n        /* \"#utility.yul\":8836:8846   */\n      swap1\n      pop\n        /* \"#utility.yul\":8581:8852   */\n      swap3\n      swap2\n      pop\n      pop\n      jump\t// out\n        /* \"#utility.yul\":8858:8935   */\n    tag_154:\n        /* \"#utility.yul\":8895:8902   */\n      0x00\n        /* \"#utility.yul\":8924:8929   */\n      dup2\n        /* \"#utility.yul\":8913:8929   */\n      swap1\n      pop\n        /* \"#utility.yul\":8858:8935   */\n      swap2\n      swap1\n      pop\n      jump\t// out\n        /* \"#utility.yul\":8941:9063   */\n    tag_155:\n        /* \"#utility.yul\":9014:9038   */\n      tag_247\n        /* \"#utility.yul\":9032:9037   */\n      dup2\n        /* \"#utility.yul\":9014:9038   */\n      tag_154\n      jump\t// in\n    tag_247:\n        /* \"#utility.yul\":9007:9012   */\n      dup2\n        /* \"#utility.yul\":9004:9039   */\n      eq\n        /* \"#utility.yul\":8994:9057   */\n      tag_248\n      jumpi\n        /* \"#utility.yul\":9053:9054   */\n      0x00\n        /* \"#utility.yul\":9050:9051   */\n      0x00\n        /* \"#utility.yul\":9043:9055   */\n      revert\n        /* \"#utility.yul\":8994:9057   */\n    tag_248:\n        /* \"#utility.yul\":8941:9063   */\n      pop\n      jump\t// out\n        /* \"#utility.yul\":9069:9212   */\n    tag_156:\n        /* \"#utility.yul\":9126:9131   */\n      0x00\n        /* \"#utility.yul\":9157:9163   */\n      dup2\n        /* \"#utility.yul\":9151:9164   */\n      mload\n        /* \"#utility.yul\":9142:9164   */\n      swap1\n      pop\n        /* \"#utility.yul\":9173:9206   */\n      tag_250\n        /* \"#utility.yul\":9200:9205   */\n      dup2\n        /* \"#utility.yul\":9173:9206   */\n      tag_155\n      jump\t// in\n    tag_250:\n        /* \"#utility.yul\":9069:9212   */\n      swap3\n      swap2\n      pop\n      pop\n      jump\t// out\n        /* \"#utility.yul\":9218:9569   */\n    tag_90:\n        /* \"#utility.yul\":9288:9294   */\n      0x00\n        /* \"#utility.yul\":9337:9339   */\n      0x20\n        /* \"#utility.yul\":9325:9334   */\n      dup3\n        /* \"#utility.yul\":9316:9323   */\n      dup5\n        /* \"#utility.yul\":9312:9335   */\n      sub\n        /* \"#utility.yul\":9308:9340   */\n      slt\n        /* \"#utility.yul\":9305:9424   */\n      iszero\n      tag_252\n      jumpi\n        /* \"#utility.yul\":9343:9422   */\n      tag_253\n      tag_128\n      jump\t// in\n    tag_253:\n        /* \"#utility.yul\":9305:9424   */\n    tag_252:\n        /* \"#utility.yul\":9463:9464   */\n      0x00\n        /* \"#utility.yul\":9488:9552   */\n      tag_254\n        /* \"#utility.yul\":9544:9551   */\n      dup5\n        /* \"#utility.yul\":9535:9541   */\n      dup3\n        /* \"#utility.yul\":9524:9533   */\n      dup6\n        /* \"#utility.yul\":9520:9542   */\n      add\n        /* \"#utility.yul\":9488:9552   */\n      tag_156\n      jump\t// in\n    tag_254:\n        /* \"#utility.yul\":9478:9552   */\n      swap2\n      pop\n        /* \"#utility.yul\":9434:9562   */\n      pop\n        /* \"#utility.yul\":9218:9569   */\n      swap3\n      swap2\n      pop\n      pop\n      jump\t// out\n        /* \"#utility.yul\":9575:9769   */\n    tag_100:\n        /* \"#utility.yul\":9615:9619   */\n      0x00\n        /* \"#utility.yul\":9635:9655   */\n      tag_256\n        /* \"#utility.yul\":9653:9654   */\n      dup3\n        /* \"#utility.yul\":9635:9655   */\n      tag_136\n      jump\t// in\n    tag_256:\n        /* \"#utility.yul\":9630:9655   */\n      swap2\n      pop\n        /* \"#utility.yul\":9669:9689   */\n      tag_257\n        /* \"#utility.yul\":9687:9688   */\n      dup4\n        /* \"#utility.yul\":9669:9689   */\n      tag_136\n      jump\t// in\n    tag_257:\n        /* \"#utility.yul\":9664:9689   */\n      swap3\n      pop\n        /* \"#utility.yul\":9713:9714   */\n      dup3\n        /* \"#utility.yul\":9710:9711   */\n      dup3\n        /* \"#utility.yul\":9706:9715   */\n      sub\n        /* \"#utility.yul\":9698:9715   */\n      swap1\n      pop\n        /* \"#utility.yul\":9737:9738   */\n      dup2\n        /* \"#utility.yul\":9731:9735   */\n      dup2\n        /* \"#utility.yul\":9728:9739   */\n      gt\n        /* \"#utility.yul\":9725:9762   */\n      iszero\n      tag_258\n      jumpi\n        /* \"#utility.yul\":9742:9760   */\n      tag_259\n      tag_149\n      jump\t// in\n    tag_259:\n        /* \"#utility.yul\":9725:9762   */\n    tag_258:\n        /* \"#utility.yul\":9575:9769   */\n      swap3\n      swap2\n      pop\n      pop\n      jump\t// out\n        /* \"#utility.yul\":9775:9955   */\n    tag_117:\n        /* \"#utility.yul\":9823:9900   */\n      0x4e487b7100000000000000000000000000000000000000000000000000000000\n        /* \"#utility.yul\":9820:9821   */\n      0x00\n        /* \"#utility.yul\":9813:9901   */\n      mstore\n        /* \"#utility.yul\":9920:9924   */\n      0x31\n        /* \"#utility.yul\":9917:9918   */\n      0x04\n        /* \"#utility.yul\":9910:9925   */\n      mstore\n        /* \"#utility.yul\":9944:9948   */\n      0x24\n        /* \"#utility.yul\":9941:9942   */\n      0x00\n        /* \"#utility.yul\":9934:9949   */\n      revert\n\n    auxdata: 0xa2646970667358221220425de701786a2f937cb95cb59f0142b615bf2a4dbd51aec84535ff38df3f536464736f6c634300081e0033\n}\n",
				"bytecode": {
					"linkReferences": {},
					"object": "6080604052348015600e575f5ffd5b506110c88061001c5f395ff3fe60806040526004361061006f575f3560e01c80639de036e71161004d5780639de036e7146100f3578063b189fd4c1461011d578063b6510bb314610159578063f8b2cb4f146101815761006f565b80630e7be890146100735780632e1a7d4d146100af57806347e7ef24146100d7575b5f5ffd5b34801561007e575f5ffd5b5061009960048036038101906100949190610c19565b6101bd565b6040516100a69190610c5e565b60405180910390f35b3480156100ba575f5ffd5b506100d560048036038101906100d09190610caa565b610206565b005b6100f160048036038101906100ec9190610cd5565b610326565b005b3480156100fe575f5ffd5b506101076104b1565b6040516101149190610e06565b60405180910390f35b348015610128575f5ffd5b50610143600480360381019061013e9190610caa565b610631565b6040516101509190610e35565b60405180910390f35b348015610164575f5ffd5b5061017f600480360381019061017a9190610e4e565b6106a8565b005b34801561018c575f5ffd5b506101a760048036038101906101a29190610c19565b610929565b6040516101b49190610e35565b60405180910390f35b5f5f60015f8473ffffffffffffffffffffffffffffffffffffffff1673ffffffffffffffffffffffffffffffffffffffff1681526020019081526020015f205414159050919050565b5f5f5f3373ffffffffffffffffffffffffffffffffffffffff1673ffffffffffffffffffffffffffffffffffffffff1681526020019081526020015f20541480610295575061025481610631565b60015f3373ffffffffffffffffffffffffffffffffffffffff1673ffffffffffffffffffffffffffffffffffffffff1681526020019081526020015f205414155b610323573373ffffffffffffffffffffffffffffffffffffffff166108fc5f5f3373ffffffffffffffffffffffffffffffffffffffff1673ffffffffffffffffffffffffffffffffffffffff1681526020019081526020015f205490811502906040515f60405180830381858888f19350505050158015610318573d5f5f3e3d5ffd5b506103223361096e565b5b50565b5f3411610331575f5ffd5b5f5f5f8473ffffffffffffffffffffffffffffffffffffffff1673ffffffffffffffffffffffffffffffffffffffff1681526020019081526020015f2054036103d557600282908060018154018082558091505060019003905f5260205f20015f9091909190916101000a81548173ffffffffffffffffffffffffffffffffffffffff021916908373ffffffffffffffffffffffffffffffffffffffff1602179055505b345f5f8473ffffffffffffffffffffffffffffffffffffffff1673ffffffffffffffffffffffffffffffffffffffff1681526020019081526020015f205f8282546104209190610edf565b925050819055505f5f5f3373ffffffffffffffffffffffffffffffffffffffff1673ffffffffffffffffffffffffffffffffffffffff1681526020019081526020015f2054146104ad578060015f3373ffffffffffffffffffffffffffffffffffffffff1673ffffffffffffffffffffffffffffffffffffffff1681526020019081526020015f20819055505b5050565b60605f60028054905067ffffffffffffffff8111156104d3576104d2610f12565b5b60405190808252806020026020018201604052801561050c57816020015b6104f9610b8d565b8152602001906001900390816104f15790505b5090505f5f90505b600280549050811015610629576040518060400160405280600283815481106105405761053f610f3f565b5b905f5260205f20015f9054906101000a900473ffffffffffffffffffffffffffffffffffffffff1673ffffffffffffffffffffffffffffffffffffffff1681526020015f5f6002858154811061059957610598610f3f565b5b905f5260205f20015f9054906101000a900473ffffffffffffffffffffffffffffffffffffffff1673ffffffffffffffffffffffffffffffffffffffff1673ffffffffffffffffffffffffffffffffffffffff1681526020019081526020015f205481525082828151811061061157610610610f3f565b5b60200260200101819052508080600101915050610514565b508091505090565b5f6002826040516020016106459190610e35565b6040516020818303038152906040526040516106619190610fbe565b602060405180830381855afa15801561067c573d5f5f3e3d5ffd5b5050506040513d601f19601f8201168201806040525081019061069f9190611007565b5f1c9050919050565b5f83116106b3575f5ffd5b825f5f3373ffffffffffffffffffffffffffffffffffffffff1673ffffffffffffffffffffffffffffffffffffffff1681526020019081526020015f20541080610742575060015f3373ffffffffffffffffffffffffffffffffffffffff1673ffffffffffffffffffffffffffffffffffffffff1681526020019081526020015f205461073f83610631565b14155b610923575f5f5f8673ffffffffffffffffffffffffffffffffffffffff1673ffffffffffffffffffffffffffffffffffffffff1681526020019081526020015f2054036107ea57600284908060018154018082558091505060019003905f5260205f20015f9091909190916101000a81548173ffffffffffffffffffffffffffffffffffffffff021916908373ffffffffffffffffffffffffffffffffffffffff1602179055505b825f5f8673ffffffffffffffffffffffffffffffffffffffff1673ffffffffffffffffffffffffffffffffffffffff1681526020019081526020015f205f8282546108359190610edf565b92505081905550825f5f3373ffffffffffffffffffffffffffffffffffffffff1673ffffffffffffffffffffffffffffffffffffffff1681526020019081526020015f205f8282546108879190611032565b925050819055505f5f5f3373ffffffffffffffffffffffffffffffffffffffff1673ffffffffffffffffffffffffffffffffffffffff1681526020019081526020015f2054036108df576108da3361096e565b610922565b8060015f3373ffffffffffffffffffffffffffffffffffffffff1673ffffffffffffffffffffffffffffffffffffffff1681526020019081526020015f20819055505b5b50505050565b5f5f5f8373ffffffffffffffffffffffffffffffffffffffff1673ffffffffffffffffffffffffffffffffffffffff1681526020019081526020015f20549050919050565b5f61097882610ae7565b90506002600160028054905061098e9190611032565b8154811061099f5761099e610f3f565b5b905f5260205f20015f9054906101000a900473ffffffffffffffffffffffffffffffffffffffff16600282815481106109db576109da610f3f565b5b905f5260205f20015f6101000a81548173ffffffffffffffffffffffffffffffffffffffff021916908373ffffffffffffffffffffffffffffffffffffffff1602179055506002805480610a3257610a31611065565b5b600190038181905f5260205f20015f6101000a81549073ffffffffffffffffffffffffffffffffffffffff021916905590555f5f8373ffffffffffffffffffffffffffffffffffffffff1673ffffffffffffffffffffffffffffffffffffffff1681526020019081526020015f205f905560015f8373ffffffffffffffffffffffffffffffffffffffff1673ffffffffffffffffffffffffffffffffffffffff1681526020019081526020015f205f90555050565b5f5f5f90505b600280549050811015610b7e578273ffffffffffffffffffffffffffffffffffffffff1660028281548110610b2557610b24610f3f565b5b905f5260205f20015f9054906101000a900473ffffffffffffffffffffffffffffffffffffffff1673ffffffffffffffffffffffffffffffffffffffff1603610b715780915050610b88565b8080600101915050610aed565b5060028054905090505b919050565b60405180604001604052805f73ffffffffffffffffffffffffffffffffffffffff1681526020015f81525090565b5f5ffd5b5f73ffffffffffffffffffffffffffffffffffffffff82169050919050565b5f610be882610bbf565b9050919050565b610bf881610bde565b8114610c02575f5ffd5b50565b5f81359050610c1381610bef565b92915050565b5f60208284031215610c2e57610c2d610bbb565b5b5f610c3b84828501610c05565b91505092915050565b5f8115159050919050565b610c5881610c44565b82525050565b5f602082019050610c715f830184610c4f565b92915050565b5f819050919050565b610c8981610c77565b8114610c93575f5ffd5b50565b5f81359050610ca481610c80565b92915050565b5f60208284031215610cbf57610cbe610bbb565b5b5f610ccc84828501610c96565b91505092915050565b5f5f60408385031215610ceb57610cea610bbb565b5b5f610cf885828601610c05565b9250506020610d0985828601610c96565b9150509250929050565b5f81519050919050565b5f82825260208201905092915050565b5f819050602082019050919050565b610d4581610bde565b82525050565b610d5481610c77565b82525050565b604082015f820151610d6e5f850182610d3c565b506020820151610d816020850182610d4b565b50505050565b5f610d928383610d5a565b60408301905092915050565b5f602082019050919050565b5f610db482610d13565b610dbe8185610d1d565b9350610dc983610d2d565b805f5b83811015610df9578151610de08882610d87565b9750610deb83610d9e565b925050600181019050610dcc565b5085935050505092915050565b5f6020820190508181035f830152610e1e8184610daa565b905092915050565b610e2f81610c77565b82525050565b5f602082019050610e485f830184610e26565b92915050565b5f5f5f5f60808587031215610e6657610e65610bbb565b5b5f610e7387828801610c05565b9450506020610e8487828801610c96565b9350506040610e9587828801610c96565b9250506060610ea687828801610c96565b91505092959194509250565b7f4e487b71000000000000000000000000000000000000000000000000000000005f52601160045260245ffd5b5f610ee982610c77565b9150610ef483610c77565b9250828201905080821115610f0c57610f0b610eb2565b5b92915050565b7f4e487b71000000000000000000000000000000000000000000000000000000005f52604160045260245ffd5b7f4e487b71000000000000000000000000000000000000000000000000000000005f52603260045260245ffd5b5f81519050919050565b5f81905092915050565b8281835e5f83830152505050565b5f610f9882610f6c565b610fa28185610f76565b9350610fb2818560208601610f80565b80840191505092915050565b5f610fc98284610f8e565b915081905092915050565b5f819050919050565b610fe681610fd4565b8114610ff0575f5ffd5b50565b5f8151905061100181610fdd565b92915050565b5f6020828403121561101c5761101b610bbb565b5b5f61102984828501610ff3565b91505092915050565b5f61103c82610c77565b915061104783610c77565b925082820390508181111561105f5761105e610eb2565b5b92915050565b7f4e487b71000000000000000000000000000000000000000000000000000000005f52603160045260245ffdfea2646970667358221220425de701786a2f937cb95cb59f0142b615bf2a4dbd51aec84535ff38df3f536464736f6c634300081e0033",
					"opcodes": "PUSH1 0x80 PUSH1 0x40 MSTORE CALLVALUE DUP1 ISZERO PUSH1 0xE JUMPI PUSH0 PUSH0 REVERT JUMPDEST POP PUSH2 0x10C8 DUP1 PUSH2 0x1C PUSH0 CODECOPY PUSH0 RETURN INVALID PUSH1 0x80 PUSH1 0x40 MSTORE PUSH1 0x4 CALLDATASIZE LT PUSH2 0x6F JUMPI PUSH0 CALLDATALOAD PUSH1 0xE0 SHR DUP1 PUSH4 0x9DE036E7 GT PUSH2 0x4D JUMPI DUP1 PUSH4 0x9DE036E7 EQ PUSH2 0xF3 JUMPI DUP1 PUSH4 0xB189FD4C EQ PUSH2 0x11D JUMPI DUP1 PUSH4 0xB6510BB3 EQ PUSH2 0x159 JUMPI DUP1 PUSH4 0xF8B2CB4F EQ PUSH2 0x181 JUMPI PUSH2 0x6F JUMP JUMPDEST DUP1 PUSH4 0xE7BE890 EQ PUSH2 0x73 JUMPI DUP1 PUSH4 0x2E1A7D4D EQ PUSH2 0xAF JUMPI DUP1 PUSH4 0x47E7EF24 EQ PUSH2 0xD7 JUMPI JUMPDEST PUSH0 PUSH0 REVERT JUMPDEST CALLVALUE DUP1 ISZERO PUSH2 0x7E JUMPI PUSH0 PUSH0 REVERT JUMPDEST POP PUSH2 0x99 PUSH1 0x4 DUP1 CALLDATASIZE SUB DUP2 ADD SWAP1 PUSH2 0x94 SWAP2 SWAP1 PUSH2 0xC19 JUMP JUMPDEST PUSH2 0x1BD JUMP JUMPDEST PUSH1 0x40 MLOAD PUSH2 0xA6 SWAP2 SWAP1 PUSH2 0xC5E JUMP JUMPDEST PUSH1 0x40 MLOAD DUP1 SWAP2 SUB SWAP1 RETURN JUMPDEST CALLVALUE DUP1 ISZERO PUSH2 0xBA JUMPI PUSH0 PUSH0 REVERT JUMPDEST POP PUSH2 0xD5 PUSH1 0x4 DUP1 CALLDATASIZE SUB DUP2 ADD SWAP1 PUSH2 0xD0 SWAP2 SWAP1 PUSH2 0xCAA JUMP JUMPDEST PUSH2 0x206 JUMP JUMPDEST STOP JUMPDEST PUSH2 0xF1 PUSH1 0x4 DUP1 CALLDATASIZE SUB DUP2 ADD SWAP1 PUSH2 0xEC SWAP2 SWAP1 PUSH2 0xCD5 JUMP JUMPDEST PUSH2 0x326 JUMP JUMPDEST STOP JUMPDEST CALLVALUE DUP1 ISZERO PUSH2 0xFE JUMPI PUSH0 PUSH0 REVERT JUMPDEST POP PUSH2 0x107 PUSH2 0x4B1 JUMP JUMPDEST PUSH1 0x40 MLOAD PUSH2 0x114 SWAP2 SWAP1 PUSH2 0xE06 JUMP JUMPDEST PUSH1 0x40 MLOAD DUP1 SWAP2 SUB SWAP1 RETURN JUMPDEST CALLVALUE DUP1 ISZERO PUSH2 0x128 JUMPI PUSH0 PUSH0 REVERT JUMPDEST POP PUSH2 0x143 PUSH1 0x4 DUP1 CALLDATASIZE SUB DUP2 ADD SWAP1 PUSH2 0x13E SWAP2 SWAP1 PUSH2 0xCAA JUMP JUMPDEST PUSH2 0x631 JUMP JUMPDEST PUSH1 0x40 MLOAD PUSH2 0x150 SWAP2 SWAP1 PUSH2 0xE35 JUMP JUMPDEST PUSH1 0x40 MLOAD DUP1 SWAP2 SUB SWAP1 RETURN JUMPDEST CALLVALUE DUP1 ISZERO PUSH2 0x164 JUMPI PUSH0 PUSH0 REVERT JUMPDEST POP PUSH2 0x17F PUSH1 0x4 DUP1 CALLDATASIZE SUB DUP2 ADD SWAP1 PUSH2 0x17A SWAP2 SWAP1 PUSH2 0xE4E JUMP JUMPDEST PUSH2 0x6A8 JUMP JUMPDEST STOP JUMPDEST CALLVALUE DUP1 ISZERO PUSH2 0x18C JUMPI PUSH0 PUSH0 REVERT JUMPDEST POP PUSH2 0x1A7 PUSH1 0x4 DUP1 CALLDATASIZE SUB DUP2 ADD SWAP1 PUSH2 0x1A2 SWAP2 SWAP1 PUSH2 0xC19 JUMP JUMPDEST PUSH2 0x929 JUMP JUMPDEST PUSH1 0x40 MLOAD PUSH2 0x1B4 SWAP2 SWAP1 PUSH2 0xE35 JUMP JUMPDEST PUSH1 0x40 MLOAD DUP1 SWAP2 SUB SWAP1 RETURN JUMPDEST PUSH0 PUSH0 PUSH1 0x1 PUSH0 DUP5 PUSH20 0xFFFFFFFFFFFFFFFFFFFFFFFFFFFFFFFFFFFFFFFF AND PUSH20 0xFFFFFFFFFFFFFFFFFFFFFFFFFFFFFFFFFFFFFFFF AND DUP2 MSTORE PUSH1 0x20 ADD SWAP1 DUP2 MSTORE PUSH1 0x20 ADD PUSH0 KECCAK256 SLOAD EQ ISZERO SWAP1 POP SWAP2 SWAP1 POP JUMP JUMPDEST PUSH0 PUSH0 PUSH0 CALLER PUSH20 0xFFFFFFFFFFFFFFFFFFFFFFFFFFFFFFFFFFFFFFFF AND PUSH20 0xFFFFFFFFFFFFFFFFFFFFFFFFFFFFFFFFFFFFFFFF AND DUP2 MSTORE PUSH1 0x20 ADD SWAP1 DUP2 MSTORE PUSH1 0x20 ADD PUSH0 KECCAK256 SLOAD EQ DUP1 PUSH2 0x295 JUMPI POP PUSH2 0x254 DUP2 PUSH2 0x631 JUMP JUMPDEST PUSH1 0x1 PUSH0 CALLER PUSH20 0xFFFFFFFFFFFFFFFFFFFFFFFFFFFFFFFFFFFFFFFF AND PUSH20 0xFFFFFFFFFFFFFFFFFFFFFFFFFFFFFFFFFFFFFFFF AND DUP2 MSTORE PUSH1 0x20 ADD SWAP1 DUP2 MSTORE PUSH1 0x20 ADD PUSH0 KECCAK256 SLOAD EQ ISZERO JUMPDEST PUSH2 0x323 JUMPI CALLER PUSH20 0xFFFFFFFFFFFFFFFFFFFFFFFFFFFFFFFFFFFFFFFF AND PUSH2 0x8FC PUSH0 PUSH0 CALLER PUSH20 0xFFFFFFFFFFFFFFFFFFFFFFFFFFFFFFFFFFFFFFFF AND PUSH20 0xFFFFFFFFFFFFFFFFFFFFFFFFFFFFFFFFFFFFFFFF AND DUP2 MSTORE PUSH1 0x20 ADD SWAP1 DUP2 MSTORE PUSH1 0x20 ADD PUSH0 KECCAK256 SLOAD SWAP1 DUP2 ISZERO MUL SWAP1 PUSH1 0x40 MLOAD PUSH0 PUSH1 0x40 MLOAD DUP1 DUP4 SUB DUP2 DUP6 DUP9 DUP9 CALL SWAP4 POP POP POP POP ISZERO DUP1 ISZERO PUSH2 0x318 JUMPI RETURNDATASIZE PUSH0 PUSH0 RETURNDATACOPY RETURNDATASIZE PUSH0 REVERT JUMPDEST POP PUSH2 0x322 CALLER PUSH2 0x96E JUMP JUMPDEST JUMPDEST POP JUMP JUMPDEST PUSH0 CALLVALUE GT PUSH2 0x331 JUMPI PUSH0 PUSH0 REVERT JUMPDEST PUSH0 PUSH0 PUSH0 DUP5 PUSH20 0xFFFFFFFFFFFFFFFFFFFFFFFFFFFFFFFFFFFFFFFF AND PUSH20 0xFFFFFFFFFFFFFFFFFFFFFFFFFFFFFFFFFFFFFFFF AND DUP2 MSTORE PUSH1 0x20 ADD SWAP1 DUP2 MSTORE PUSH1 0x20 ADD PUSH0 KECCAK256 SLOAD SUB PUSH2 0x3D5 JUMPI PUSH1 0x2 DUP3 SWAP1 DUP1 PUSH1 0x1 DUP2 SLOAD ADD DUP1 DUP3 SSTORE DUP1 SWAP2 POP POP PUSH1 0x1 SWAP1 SUB SWAP1 PUSH0 MSTORE PUSH1 0x20 PUSH0 KECCAK256 ADD PUSH0 SWAP1 SWAP2 SWAP1 SWAP2 SWAP1 SWAP2 PUSH2 0x100 EXP DUP2 SLOAD DUP2 PUSH20 0xFFFFFFFFFFFFFFFFFFFFFFFFFFFFFFFFFFFFFFFF MUL NOT AND SWAP1 DUP4 PUSH20 0xFFFFFFFFFFFFFFFFFFFFFFFFFFFFFFFFFFFFFFFF AND MUL OR SWAP1 SSTORE POP JUMPDEST CALLVALUE PUSH0 PUSH0 DUP5 PUSH20 0xFFFFFFFFFFFFFFFFFFFFFFFFFFFFFFFFFFFFFFFF AND PUSH20 0xFFFFFFFFFFFFFFFFFFFFFFFFFFFFFFFFFFFFFFFF AND DUP2 MSTORE PUSH1 0x20 ADD SWAP1 DUP2 MSTORE PUSH1 0x20 ADD PUSH0 KECCAK256 PUSH0 DUP3 DUP3 SLOAD PUSH2 0x420 SWAP2 SWAP1 PUSH2 0xEDF JUMP JUMPDEST SWAP3 POP POP DUP2 SWAP1 SSTORE POP PUSH0 PUSH0 PUSH0 CALLER PUSH20 0xFFFFFFFFFFFFFFFFFFFFFFFFFFFFFFFFFFFFFFFF AND PUSH20 0xFFFFFFFFFFFFFFFFFFFFFFFFFFFFFFFFFFFFFFFF AND DUP2 MSTORE PUSH1 0x20 ADD SWAP1 DUP2 MSTORE PUSH1 0x20 ADD PUSH0 KECCAK256 SLOAD EQ PUSH2 0x4AD JUMPI DUP1 PUSH1 0x1 PUSH0 CALLER PUSH20 0xFFFFFFFFFFFFFFFFFFFFFFFFFFFFFFFFFFFFFFFF AND PUSH20 0xFFFFFFFFFFFFFFFFFFFFFFFFFFFFFFFFFFFFFFFF AND DUP2 MSTORE PUSH1 0x20 ADD SWAP1 DUP2 MSTORE PUSH1 0x20 ADD PUSH0 KECCAK256 DUP2 SWAP1 SSTORE POP JUMPDEST POP POP JUMP JUMPDEST PUSH1 0x60 PUSH0 PUSH1 0x2 DUP1 SLOAD SWAP1 POP PUSH8 0xFFFFFFFFFFFFFFFF DUP2 GT ISZERO PUSH2 0x4D3 JUMPI PUSH2 0x4D2 PUSH2 0xF12 JUMP JUMPDEST JUMPDEST PUSH1 0x40 MLOAD SWAP1 DUP1 DUP3 MSTORE DUP1 PUSH1 0x20 MUL PUSH1 0x20 ADD DUP3 ADD PUSH1 0x40 MSTORE DUP1 ISZERO PUSH2 0x50C JUMPI DUP2 PUSH1 0x20 ADD JUMPDEST PUSH2 0x4F9 PUSH2 0xB8D JUMP JUMPDEST DUP2 MSTORE PUSH1 0x20 ADD SWAP1 PUSH1 0x1 SWAP1 SUB SWAP1 DUP2 PUSH2 0x4F1 JUMPI SWAP1 POP JUMPDEST POP SWAP1 POP PUSH0 PUSH0 SWAP1 POP JUMPDEST PUSH1 0x2 DUP1 SLOAD SWAP1 POP DUP2 LT ISZERO PUSH2 0x629 JUMPI PUSH1 0x40 MLOAD DUP1 PUSH1 0x40 ADD PUSH1 0x40 MSTORE DUP1 PUSH1 0x2 DUP4 DUP2 SLOAD DUP2 LT PUSH2 0x540 JUMPI PUSH2 0x53F PUSH2 0xF3F JUMP JUMPDEST JUMPDEST SWAP1 PUSH0 MSTORE PUSH1 0x20 PUSH0 KECCAK256 ADD PUSH0 SWAP1 SLOAD SWAP1 PUSH2 0x100 EXP SWAP1 DIV PUSH20 0xFFFFFFFFFFFFFFFFFFFFFFFFFFFFFFFFFFFFFFFF AND PUSH20 0xFFFFFFFFFFFFFFFFFFFFFFFFFFFFFFFFFFFFFFFF AND DUP2 MSTORE PUSH1 0x20 ADD PUSH0 PUSH0 PUSH1 0x2 DUP6 DUP2 SLOAD DUP2 LT PUSH2 0x599 JUMPI PUSH2 0x598 PUSH2 0xF3F JUMP JUMPDEST JUMPDEST SWAP1 PUSH0 MSTORE PUSH1 0x20 PUSH0 KECCAK256 ADD PUSH0 SWAP1 SLOAD SWAP1 PUSH2 0x100 EXP SWAP1 DIV PUSH20 0xFFFFFFFFFFFFFFFFFFFFFFFFFFFFFFFFFFFFFFFF AND PUSH20 0xFFFFFFFFFFFFFFFFFFFFFFFFFFFFFFFFFFFFFFFF AND PUSH20 0xFFFFFFFFFFFFFFFFFFFFFFFFFFFFFFFFFFFFFFFF AND DUP2 MSTORE PUSH1 0x20 ADD SWAP1 DUP2 MSTORE PUSH1 0x20 ADD PUSH0 KECCAK256 SLOAD DUP2 MSTORE POP DUP3 DUP3 DUP2 MLOAD DUP2 LT PUSH2 0x611 JUMPI PUSH2 0x610 PUSH2 0xF3F JUMP JUMPDEST JUMPDEST PUSH1 0x20 MUL PUSH1 0x20 ADD ADD DUP2 SWAP1 MSTORE POP DUP1 DUP1 PUSH1 0x1 ADD SWAP2 POP POP PUSH2 0x514 JUMP JUMPDEST POP DUP1 SWAP2 POP POP SWAP1 JUMP JUMPDEST PUSH0 PUSH1 0x2 DUP3 PUSH1 0x40 MLOAD PUSH1 0x20 ADD PUSH2 0x645 SWAP2 SWAP1 PUSH2 0xE35 JUMP JUMPDEST PUSH1 0x40 MLOAD PUSH1 0x20 DUP2 DUP4 SUB SUB DUP2 MSTORE SWAP1 PUSH1 0x40 MSTORE PUSH1 0x40 MLOAD PUSH2 0x661 SWAP2 SWAP1 PUSH2 0xFBE JUMP JUMPDEST PUSH1 0x20 PUSH1 0x40 MLOAD DUP1 DUP4 SUB DUP2 DUP6 GAS STATICCALL ISZERO DUP1 ISZERO PUSH2 0x67C JUMPI RETURNDATASIZE PUSH0 PUSH0 RETURNDATACOPY RETURNDATASIZE PUSH0 REVERT JUMPDEST POP POP POP PUSH1 0x40 MLOAD RETURNDATASIZE PUSH1 0x1F NOT PUSH1 0x1F DUP3 ADD AND DUP3 ADD DUP1 PUSH1 0x40 MSTORE POP DUP2 ADD SWAP1 PUSH2 0x69F SWAP2 SWAP1 PUSH2 0x1007 JUMP JUMPDEST PUSH0 SHR SWAP1 POP SWAP2 SWAP1 POP JUMP JUMPDEST PUSH0 DUP4 GT PUSH2 0x6B3 JUMPI PUSH0 PUSH0 REVERT JUMPDEST DUP3 PUSH0 PUSH0 CALLER PUSH20 0xFFFFFFFFFFFFFFFFFFFFFFFFFFFFFFFFFFFFFFFF AND PUSH20 0xFFFFFFFFFFFFFFFFFFFFFFFFFFFFFFFFFFFFFFFF AND DUP2 MSTORE PUSH1 0x20 ADD SWAP1 DUP2 MSTORE PUSH1 0x20 ADD PUSH0 KECCAK256 SLOAD LT DUP1 PUSH2 0x742 JUMPI POP PUSH1 0x1 PUSH0 CALLER PUSH20 0xFFFFFFFFFFFFFFFFFFFFFFFFFFFFFFFFFFFFFFFF AND PUSH20 0xFFFFFFFFFFFFFFFFFFFFFFFFFFFFFFFFFFFFFFFF AND DUP2 MSTORE PUSH1 0x20 ADD SWAP1 DUP2 MSTORE PUSH1 0x20 ADD PUSH0 KECCAK256 SLOAD PUSH2 0x73F DUP4 PUSH2 0x631 JUMP JUMPDEST EQ ISZERO JUMPDEST PUSH2 0x923 JUMPI PUSH0 PUSH0 PUSH0 DUP7 PUSH20 0xFFFFFFFFFFFFFFFFFFFFFFFFFFFFFFFFFFFFFFFF AND PUSH20 0xFFFFFFFFFFFFFFFFFFFFFFFFFFFFFFFFFFFFFFFF AND DUP2 MSTORE PUSH1 0x20 ADD SWAP1 DUP2 MSTORE PUSH1 0x20 ADD PUSH0 KECCAK256 SLOAD SUB PUSH2 0x7EA JUMPI PUSH1 0x2 DUP5 SWAP1 DUP1 PUSH1 0x1 DUP2 SLOAD ADD DUP1 DUP3 SSTORE DUP1 SWAP2 POP POP PUSH1 0x1 SWAP1 SUB SWAP1 PUSH0 MSTORE PUSH1 0x20 PUSH0 KECCAK256 ADD PUSH0 SWAP1 SWAP2 SWAP1 SWAP2 SWAP1 SWAP2 PUSH2 0x100 EXP DUP2 SLOAD DUP2 PUSH20 0xFFFFFFFFFFFFFFFFFFFFFFFFFFFFFFFFFFFFFFFF MUL NOT AND SWAP1 DUP4 PUSH20 0xFFFFFFFFFFFFFFFFFFFFFFFFFFFFFFFFFFFFFFFF AND MUL OR SWAP1 SSTORE POP JUMPDEST DUP3 PUSH0 PUSH0 DUP7 PUSH20 0xFFFFFFFFFFFFFFFFFFFFFFFFFFFFFFFFFFFFFFFF AND PUSH20 0xFFFFFFFFFFFFFFFFFFFFFFFFFFFFFFFFFFFFFFFF AND DUP2 MSTORE PUSH1 0x20 ADD SWAP1 DUP2 MSTORE PUSH1 0x20 ADD PUSH0 KECCAK256 PUSH0 DUP3 DUP3 SLOAD PUSH2 0x835 SWAP2 SWAP1 PUSH2 0xEDF JUMP JUMPDEST SWAP3 POP POP DUP2 SWAP1 SSTORE POP DUP3 PUSH0 PUSH0 CALLER PUSH20 0xFFFFFFFFFFFFFFFFFFFFFFFFFFFFFFFFFFFFFFFF AND PUSH20 0xFFFFFFFFFFFFFFFFFFFFFFFFFFFFFFFFFFFFFFFF AND DUP2 MSTORE PUSH1 0x20 ADD SWAP1 DUP2 MSTORE PUSH1 0x20 ADD PUSH0 KECCAK256 PUSH0 DUP3 DUP3 SLOAD PUSH2 0x887 SWAP2 SWAP1 PUSH2 0x1032 JUMP JUMPDEST SWAP3 POP POP DUP2 SWAP1 SSTORE POP PUSH0 PUSH0 PUSH0 CALLER PUSH20 0xFFFFFFFFFFFFFFFFFFFFFFFFFFFFFFFFFFFFFFFF AND PUSH20 0xFFFFFFFFFFFFFFFFFFFFFFFFFFFFFFFFFFFFFFFF AND DUP2 MSTORE PUSH1 0x20 ADD SWAP1 DUP2 MSTORE PUSH1 0x20 ADD PUSH0 KECCAK256 SLOAD SUB PUSH2 0x8DF JUMPI PUSH2 0x8DA CALLER PUSH2 0x96E JUMP JUMPDEST PUSH2 0x922 JUMP JUMPDEST DUP1 PUSH1 0x1 PUSH0 CALLER PUSH20 0xFFFFFFFFFFFFFFFFFFFFFFFFFFFFFFFFFFFFFFFF AND PUSH20 0xFFFFFFFFFFFFFFFFFFFFFFFFFFFFFFFFFFFFFFFF AND DUP2 MSTORE PUSH1 0x20 ADD SWAP1 DUP2 MSTORE PUSH1 0x20 ADD PUSH0 KECCAK256 DUP2 SWAP1 SSTORE POP JUMPDEST JUMPDEST POP POP POP POP JUMP JUMPDEST PUSH0 PUSH0 PUSH0 DUP4 PUSH20 0xFFFFFFFFFFFFFFFFFFFFFFFFFFFFFFFFFFFFFFFF AND PUSH20 0xFFFFFFFFFFFFFFFFFFFFFFFFFFFFFFFFFFFFFFFF AND DUP2 MSTORE PUSH1 0x20 ADD SWAP1 DUP2 MSTORE PUSH1 0x20 ADD PUSH0 KECCAK256 SLOAD SWAP1 POP SWAP2 SWAP1 POP JUMP JUMPDEST PUSH0 PUSH2 0x978 DUP3 PUSH2 0xAE7 JUMP JUMPDEST SWAP1 POP PUSH1 0x2 PUSH1 0x1 PUSH1 0x2 DUP1 SLOAD SWAP1 POP PUSH2 0x98E SWAP2 SWAP1 PUSH2 0x1032 JUMP JUMPDEST DUP2 SLOAD DUP2 LT PUSH2 0x99F JUMPI PUSH2 0x99E PUSH2 0xF3F JUMP JUMPDEST JUMPDEST SWAP1 PUSH0 MSTORE PUSH1 0x20 PUSH0 KECCAK256 ADD PUSH0 SWAP1 SLOAD SWAP1 PUSH2 0x100 EXP SWAP1 DIV PUSH20 0xFFFFFFFFFFFFFFFFFFFFFFFFFFFFFFFFFFFFFFFF AND PUSH1 0x2 DUP3 DUP2 SLOAD DUP2 LT PUSH2 0x9DB JUMPI PUSH2 0x9DA PUSH2 0xF3F JUMP JUMPDEST JUMPDEST SWAP1 PUSH0 MSTORE PUSH1 0x20 PUSH0 KECCAK256 ADD PUSH0 PUSH2 0x100 EXP DUP2 SLOAD DUP2 PUSH20 0xFFFFFFFFFFFFFFFFFFFFFFFFFFFFFFFFFFFFFFFF MUL NOT AND SWAP1 DUP4 PUSH20 0xFFFFFFFFFFFFFFFFFFFFFFFFFFFFFFFFFFFFFFFF AND MUL OR SWAP1 SSTORE POP PUSH1 0x2 DUP1 SLOAD DUP1 PUSH2 0xA32 JUMPI PUSH2 0xA31 PUSH2 0x1065 JUMP JUMPDEST JUMPDEST PUSH1 0x1 SWAP1 SUB DUP2 DUP2 SWAP1 PUSH0 MSTORE PUSH1 0x20 PUSH0 KECCAK256 ADD PUSH0 PUSH2 0x100 EXP DUP2 SLOAD SWAP1 PUSH20 0xFFFFFFFFFFFFFFFFFFFFFFFFFFFFFFFFFFFFFFFF MUL NOT AND SWAP1 SSTORE SWAP1 SSTORE PUSH0 PUSH0 DUP4 PUSH20 0xFFFFFFFFFFFFFFFFFFFFFFFFFFFFFFFFFFFFFFFF AND PUSH20 0xFFFFFFFFFFFFFFFFFFFFFFFFFFFFFFFFFFFFFFFF AND DUP2 MSTORE PUSH1 0x20 ADD SWAP1 DUP2 MSTORE PUSH1 0x20 ADD PUSH0 KECCAK256 PUSH0 SWAP1 SSTORE PUSH1 0x1 PUSH0 DUP4 PUSH20 0xFFFFFFFFFFFFFFFFFFFFFFFFFFFFFFFFFFFFFFFF AND PUSH20 0xFFFFFFFFFFFFFFFFFFFFFFFFFFFFFFFFFFFFFFFF AND DUP2 MSTORE PUSH1 0x20 ADD SWAP1 DUP2 MSTORE PUSH1 0x20 ADD PUSH0 KECCAK256 PUSH0 SWAP1 SSTORE POP POP JUMP JUMPDEST PUSH0 PUSH0 PUSH0 SWAP1 POP JUMPDEST PUSH1 0x2 DUP1 SLOAD SWAP1 POP DUP2 LT ISZERO PUSH2 0xB7E JUMPI DUP3 PUSH20 0xFFFFFFFFFFFFFFFFFFFFFFFFFFFFFFFFFFFFFFFF AND PUSH1 0x2 DUP3 DUP2 SLOAD DUP2 LT PUSH2 0xB25 JUMPI PUSH2 0xB24 PUSH2 0xF3F JUMP JUMPDEST JUMPDEST SWAP1 PUSH0 MSTORE PUSH1 0x20 PUSH0 KECCAK256 ADD PUSH0 SWAP1 SLOAD SWAP1 PUSH2 0x100 EXP SWAP1 DIV PUSH20 0xFFFFFFFFFFFFFFFFFFFFFFFFFFFFFFFFFFFFFFFF AND PUSH20 0xFFFFFFFFFFFFFFFFFFFFFFFFFFFFFFFFFFFFFFFF AND SUB PUSH2 0xB71 JUMPI DUP1 SWAP2 POP POP PUSH2 0xB88 JUMP JUMPDEST DUP1 DUP1 PUSH1 0x1 ADD SWAP2 POP POP PUSH2 0xAED JUMP JUMPDEST POP PUSH1 0x2 DUP1 SLOAD SWAP1 POP SWAP1 POP JUMPDEST SWAP2 SWAP1 POP JUMP JUMPDEST PUSH1 0x40 MLOAD DUP1 PUSH1 0x40 ADD PUSH1 0x40 MSTORE DUP1 PUSH0 PUSH20 0xFFFFFFFFFFFFFFFFFFFFFFFFFFFFFFFFFFFFFFFF AND DUP2 MSTORE PUSH1 0x20 ADD PUSH0 DUP2 MSTORE POP SWAP1 JUMP JUMPDEST PUSH0 PUSH0 REVERT JUMPDEST PUSH0 PUSH20 0xFFFFFFFFFFFFFFFFFFFFFFFFFFFFFFFFFFFFFFFF DUP3 AND SWAP1 POP SWAP2 SWAP1 POP JUMP JUMPDEST PUSH0 PUSH2 0xBE8 DUP3 PUSH2 0xBBF JUMP JUMPDEST SWAP1 POP SWAP2 SWAP1 POP JUMP JUMPDEST PUSH2 0xBF8 DUP2 PUSH2 0xBDE JUMP JUMPDEST DUP2 EQ PUSH2 0xC02 JUMPI PUSH0 PUSH0 REVERT JUMPDEST POP JUMP JUMPDEST PUSH0 DUP2 CALLDATALOAD SWAP1 POP PUSH2 0xC13 DUP2 PUSH2 0xBEF JUMP JUMPDEST SWAP3 SWAP2 POP POP JUMP JUMPDEST PUSH0 PUSH1 0x20 DUP3 DUP5 SUB SLT ISZERO PUSH2 0xC2E JUMPI PUSH2 0xC2D PUSH2 0xBBB JUMP JUMPDEST JUMPDEST PUSH0 PUSH2 0xC3B DUP5 DUP3 DUP6 ADD PUSH2 0xC05 JUMP JUMPDEST SWAP2 POP POP SWAP3 SWAP2 POP POP JUMP JUMPDEST PUSH0 DUP2 ISZERO ISZERO SWAP1 POP SWAP2 SWAP1 POP JUMP JUMPDEST PUSH2 0xC58 DUP2 PUSH2 0xC44 JUMP JUMPDEST DUP3 MSTORE POP POP JUMP JUMPDEST PUSH0 PUSH1 0x20 DUP3 ADD SWAP1 POP PUSH2 0xC71 PUSH0 DUP4 ADD DUP5 PUSH2 0xC4F JUMP JUMPDEST SWAP3 SWAP2 POP POP JUMP JUMPDEST PUSH0 DUP2 SWAP1 POP SWAP2 SWAP1 POP JUMP JUMPDEST PUSH2 0xC89 DUP2 PUSH2 0xC77 JUMP JUMPDEST DUP2 EQ PUSH2 0xC93 JUMPI PUSH0 PUSH0 REVERT JUMPDEST POP JUMP JUMPDEST PUSH0 DUP2 CALLDATALOAD SWAP1 POP PUSH2 0xCA4 DUP2 PUSH2 0xC80 JUMP JUMPDEST SWAP3 SWAP2 POP POP JUMP JUMPDEST PUSH0 PUSH1 0x20 DUP3 DUP5 SUB SLT ISZERO PUSH2 0xCBF JUMPI PUSH2 0xCBE PUSH2 0xBBB JUMP JUMPDEST JUMPDEST PUSH0 PUSH2 0xCCC DUP5 DUP3 DUP6 ADD PUSH2 0xC96 JUMP JUMPDEST SWAP2 POP POP SWAP3 SWAP2 POP POP JUMP JUMPDEST PUSH0 PUSH0 PUSH1 0x40 DUP4 DUP6 SUB SLT ISZERO PUSH2 0xCEB JUMPI PUSH2 0xCEA PUSH2 0xBBB JUMP JUMPDEST JUMPDEST PUSH0 PUSH2 0xCF8 DUP6 DUP3 DUP7 ADD PUSH2 0xC05 JUMP JUMPDEST SWAP3 POP POP PUSH1 0x20 PUSH2 0xD09 DUP6 DUP3 DUP7 ADD PUSH2 0xC96 JUMP JUMPDEST SWAP2 POP POP SWAP3 POP SWAP3 SWAP1 POP JUMP JUMPDEST PUSH0 DUP2 MLOAD SWAP1 POP SWAP2 SWAP1 POP JUMP JUMPDEST PUSH0 DUP3 DUP3 MSTORE PUSH1 0x20 DUP3 ADD SWAP1 POP SWAP3 SWAP2 POP POP JUMP JUMPDEST PUSH0 DUP2 SWAP1 POP PUSH1 0x20 DUP3 ADD SWAP1 POP SWAP2 SWAP1 POP JUMP JUMPDEST PUSH2 0xD45 DUP2 PUSH2 0xBDE JUMP JUMPDEST DUP3 MSTORE POP POP JUMP JUMPDEST PUSH2 0xD54 DUP2 PUSH2 0xC77 JUMP JUMPDEST DUP3 MSTORE POP POP JUMP JUMPDEST PUSH1 0x40 DUP3 ADD PUSH0 DUP3 ADD MLOAD PUSH2 0xD6E PUSH0 DUP6 ADD DUP3 PUSH2 0xD3C JUMP JUMPDEST POP PUSH1 0x20 DUP3 ADD MLOAD PUSH2 0xD81 PUSH1 0x20 DUP6 ADD DUP3 PUSH2 0xD4B JUMP JUMPDEST POP POP POP POP JUMP JUMPDEST PUSH0 PUSH2 0xD92 DUP4 DUP4 PUSH2 0xD5A JUMP JUMPDEST PUSH1 0x40 DUP4 ADD SWAP1 POP SWAP3 SWAP2 POP POP JUMP JUMPDEST PUSH0 PUSH1 0x20 DUP3 ADD SWAP1 POP SWAP2 SWAP1 POP JUMP JUMPDEST PUSH0 PUSH2 0xDB4 DUP3 PUSH2 0xD13 JUMP JUMPDEST PUSH2 0xDBE DUP2 DUP6 PUSH2 0xD1D JUMP JUMPDEST SWAP4 POP PUSH2 0xDC9 DUP4 PUSH2 0xD2D JUMP JUMPDEST DUP1 PUSH0 JUMPDEST DUP4 DUP2 LT ISZERO PUSH2 0xDF9 JUMPI DUP2 MLOAD PUSH2 0xDE0 DUP9 DUP3 PUSH2 0xD87 JUMP JUMPDEST SWAP8 POP PUSH2 0xDEB DUP4 PUSH2 0xD9E JUMP JUMPDEST SWAP3 POP POP PUSH1 0x1 DUP2 ADD SWAP1 POP PUSH2 0xDCC JUMP JUMPDEST POP DUP6 SWAP4 POP POP POP POP SWAP3 SWAP2 POP POP JUMP JUMPDEST PUSH0 PUSH1 0x20 DUP3 ADD SWAP1 POP DUP2 DUP2 SUB PUSH0 DUP4 ADD MSTORE PUSH2 0xE1E DUP2 DUP5 PUSH2 0xDAA JUMP JUMPDEST SWAP1 POP SWAP3 SWAP2 POP POP JUMP JUMPDEST PUSH2 0xE2F DUP2 PUSH2 0xC77 JUMP JUMPDEST DUP3 MSTORE POP POP JUMP JUMPDEST PUSH0 PUSH1 0x20 DUP3 ADD SWAP1 POP PUSH2 0xE48 PUSH0 DUP4 ADD DUP5 PUSH2 0xE26 JUMP JUMPDEST SWAP3 SWAP2 POP POP JUMP JUMPDEST PUSH0 PUSH0 PUSH0 PUSH0 PUSH1 0x80 DUP6 DUP8 SUB SLT ISZERO PUSH2 0xE66 JUMPI PUSH2 0xE65 PUSH2 0xBBB JUMP JUMPDEST JUMPDEST PUSH0 PUSH2 0xE73 DUP8 DUP3 DUP9 ADD PUSH2 0xC05 JUMP JUMPDEST SWAP5 POP POP PUSH1 0x20 PUSH2 0xE84 DUP8 DUP3 DUP9 ADD PUSH2 0xC96 JUMP JUMPDEST SWAP4 POP POP PUSH1 0x40 PUSH2 0xE95 DUP8 DUP3 DUP9 ADD PUSH2 0xC96 JUMP JUMPDEST SWAP3 POP POP PUSH1 0x60 PUSH2 0xEA6 DUP8 DUP3 DUP9 ADD PUSH2 0xC96 JUMP JUMPDEST SWAP2 POP POP SWAP3 SWAP6 SWAP2 SWAP5 POP SWAP3 POP JUMP JUMPDEST PUSH32 0x4E487B7100000000000000000000000000000000000000000000000000000000 PUSH0 MSTORE PUSH1 0x11 PUSH1 0x4 MSTORE PUSH1 0x24 PUSH0 REVERT JUMPDEST PUSH0 PUSH2 0xEE9 DUP3 PUSH2 0xC77 JUMP JUMPDEST SWAP2 POP PUSH2 0xEF4 DUP4 PUSH2 0xC77 JUMP JUMPDEST SWAP3 POP DUP3 DUP3 ADD SWAP1 POP DUP1 DUP3 GT ISZERO PUSH2 0xF0C JUMPI PUSH2 0xF0B PUSH2 0xEB2 JUMP JUMPDEST JUMPDEST SWAP3 SWAP2 POP POP JUMP JUMPDEST PUSH32 0x4E487B7100000000000000000000000000000000000000000000000000000000 PUSH0 MSTORE PUSH1 0x41 PUSH1 0x4 MSTORE PUSH1 0x24 PUSH0 REVERT JUMPDEST PUSH32 0x4E487B7100000000000000000000000000000000000000000000000000000000 PUSH0 MSTORE PUSH1 0x32 PUSH1 0x4 MSTORE PUSH1 0x24 PUSH0 REVERT JUMPDEST PUSH0 DUP2 MLOAD SWAP1 POP SWAP2 SWAP1 POP JUMP JUMPDEST PUSH0 DUP2 SWAP1 POP SWAP3 SWAP2 POP POP JUMP JUMPDEST DUP3 DUP2 DUP4 MCOPY PUSH0 DUP4 DUP4 ADD MSTORE POP POP POP JUMP JUMPDEST PUSH0 PUSH2 0xF98 DUP3 PUSH2 0xF6C JUMP JUMPDEST PUSH2 0xFA2 DUP2 DUP6 PUSH2 0xF76 JUMP JUMPDEST SWAP4 POP PUSH2 0xFB2 DUP2 DUP6 PUSH1 0x20 DUP7 ADD PUSH2 0xF80 JUMP JUMPDEST DUP1 DUP5 ADD SWAP2 POP POP SWAP3 SWAP2 POP POP JUMP JUMPDEST PUSH0 PUSH2 0xFC9 DUP3 DUP5 PUSH2 0xF8E JUMP JUMPDEST SWAP2 POP DUP2 SWAP1 POP SWAP3 SWAP2 POP POP JUMP JUMPDEST PUSH0 DUP2 SWAP1 POP SWAP2 SWAP1 POP JUMP JUMPDEST PUSH2 0xFE6 DUP2 PUSH2 0xFD4 JUMP JUMPDEST DUP2 EQ PUSH2 0xFF0 JUMPI PUSH0 PUSH0 REVERT JUMPDEST POP JUMP JUMPDEST PUSH0 DUP2 MLOAD SWAP1 POP PUSH2 0x1001 DUP2 PUSH2 0xFDD JUMP JUMPDEST SWAP3 SWAP2 POP POP JUMP JUMPDEST PUSH0 PUSH1 0x20 DUP3 DUP5 SUB SLT ISZERO PUSH2 0x101C JUMPI PUSH2 0x101B PUSH2 0xBBB JUMP JUMPDEST JUMPDEST PUSH0 PUSH2 0x1029 DUP5 DUP3 DUP6 ADD PUSH2 0xFF3 JUMP JUMPDEST SWAP2 POP POP SWAP3 SWAP2 POP POP JUMP JUMPDEST PUSH0 PUSH2 0x103C DUP3 PUSH2 0xC77 JUMP JUMPDEST SWAP2 POP PUSH2 0x1047 DUP4 PUSH2 0xC77 JUMP JUMPDEST SWAP3 POP DUP3 DUP3 SUB SWAP1 POP DUP2 DUP2 GT ISZERO PUSH2 0x105F JUMPI PUSH2 0x105E PUSH2 0xEB2 JUMP JUMPDEST JUMPDEST SWAP3 SWAP2 POP POP JUMP JUMPDEST PUSH32 0x4E487B7100000000000000000000000000000000000000000000000000000000 PUSH0 MSTORE PUSH1 0x31 PUSH1 0x4 MSTORE PUSH1 0x24 PUSH0 REVERT INVALID LOG2 PUSH5 0x6970667358 0x22 SLT KECCAK256 TIMESTAMP TSTORE SWAPN 0x1 PUSH25 0x6A2F937CB95CB59F0142B615BF2A4DBD51AEC84535FF38DF3F MSTORE8 PUSH5 0x64736F6C63 NUMBER STOP ADDMOD 0x1E STOP CALLER "
				},
				"gasEstimates": {
					"creation": {
						"codeDepositCost": "859200",
						"executionCost": "894",
						"totalCost": "860094"
					},
					"external": {
						"deposit(address,uint256)": "infinite",
						"getBalance(address)": "2894",
						"hash(uint256)": "infinite",
						"isAccountSetPassword(address)": "2844",
						"printAllInfo()": "infinite",
						"transfer(address,uint256,uint256,uint256)": "infinite",
						"withdraw(uint256)": "infinite"
					},
					"internal": {
						"clearAccount(address)": "infinite",
						"getAccountIndex(address)": "infinite"
					}
				},
				"methodIdentifiers": {
					"deposit(address,uint256)": "47e7ef24",
					"getBalance(address)": "f8b2cb4f",
					"hash(uint256)": "b189fd4c",
					"isAccountSetPassword(address)": "0e7be890",
					"printAllInfo()": "9de036e7",
					"transfer(address,uint256,uint256,uint256)": "b6510bb3",
					"withdraw(uint256)": "2e1a7d4d"
				}
			},
			"storageLayout": {
				"storage": [
					{
						"astId": 5,
						"contract": "contracts/hw4.sol:hw4",
						"label": "balance",
						"offset": 0,
						"slot": "0",
						"type": "t_mapping(t_address,t_uint256)"
					},
					{
						"astId": 9,
						"contract": "contracts/hw4.sol:hw4",
						"label": "password",
						"offset": 0,
						"slot": "1",
						"type": "t_mapping(t_address,t_uint256)"
					},
					{
						"astId": 12,
						"contract": "contracts/hw4.sol:hw4",
						"label": "accounts",
						"offset": 0,
						"slot": "2",
						"type": "t_array(t_address)dyn_storage"
					}
				],
				"types": {
					"t_address": {
						"encoding": "inplace",
						"label": "address",
						"numberOfBytes": "20"
					},
					"t_array(t_address)dyn_storage": {
						"base": "t_address",
						"encoding": "dynamic_array",
						"label": "address[]",
						"numberOfBytes": "32"
					},
					"t_mapping(t_address,t_uint256)": {
						"encoding": "mapping",
						"key": "t_address",
						"label": "mapping(address => uint256)",
						"numberOfBytes": "32",
						"value": "t_uint256"
					},
					"t_uint256": {
						"encoding": "inplace",
						"label": "uint256",
						"numberOfBytes": "32"
					}
				}
			},
			"userdoc": {
				"kind": "user",
				"methods": {},
				"version": 1
			}
		}
	}
}